{
  "contractName": "DART",
  "abi": [
    {
      "constant": true,
      "inputs": [],
      "name": "name",
      "outputs": [
        {
          "name": "",
          "type": "string"
        }
      ],
      "payable": false,
      "stateMutability": "view",
      "type": "function"
    },
    {
      "constant": true,
      "inputs": [
        {
          "name": "_tokenId",
          "type": "uint256"
        }
      ],
      "name": "getApproved",
      "outputs": [
        {
          "name": "",
          "type": "address"
        }
      ],
      "payable": false,
      "stateMutability": "view",
      "type": "function"
    },
    {
      "constant": false,
      "inputs": [
        {
          "name": "_to",
          "type": "address"
        },
        {
          "name": "_tokenId",
          "type": "uint256"
        }
      ],
      "name": "approve",
      "outputs": [],
      "payable": false,
      "stateMutability": "nonpayable",
      "type": "function"
    },
    {
      "constant": true,
      "inputs": [],
      "name": "totalSupply",
      "outputs": [
        {
          "name": "",
          "type": "uint256"
        }
      ],
      "payable": false,
      "stateMutability": "view",
      "type": "function"
    },
    {
      "constant": false,
      "inputs": [
        {
          "name": "_from",
          "type": "address"
        },
        {
          "name": "_to",
          "type": "address"
        },
        {
          "name": "_tokenId",
          "type": "uint256"
        }
      ],
      "name": "transferFrom",
      "outputs": [],
      "payable": false,
      "stateMutability": "nonpayable",
      "type": "function"
    },
    {
      "constant": false,
      "inputs": [
        {
          "name": "addrs",
          "type": "address[]"
        }
      ],
      "name": "removeAddressesFromWhitelist",
      "outputs": [
        {
          "name": "success",
          "type": "bool"
        }
      ],
      "payable": false,
      "stateMutability": "nonpayable",
      "type": "function"
    },
    {
      "constant": false,
      "inputs": [
        {
          "name": "addr",
          "type": "address"
        }
      ],
      "name": "removeAddressFromWhitelist",
      "outputs": [
        {
          "name": "success",
          "type": "bool"
        }
      ],
      "payable": false,
      "stateMutability": "nonpayable",
      "type": "function"
    },
    {
      "constant": true,
      "inputs": [
        {
          "name": "_owner",
          "type": "address"
        },
        {
          "name": "_index",
          "type": "uint256"
        }
      ],
      "name": "tokenOfOwnerByIndex",
      "outputs": [
        {
          "name": "",
          "type": "uint256"
        }
      ],
      "payable": false,
      "stateMutability": "view",
      "type": "function"
    },
    {
      "constant": false,
      "inputs": [
        {
          "name": "_from",
          "type": "address"
        },
        {
          "name": "_to",
          "type": "address"
        },
        {
          "name": "_tokenId",
          "type": "uint256"
        }
      ],
      "name": "safeTransferFrom",
      "outputs": [],
      "payable": false,
      "stateMutability": "nonpayable",
      "type": "function"
    },
    {
      "constant": true,
      "inputs": [
        {
          "name": "_tokenId",
          "type": "uint256"
        }
      ],
      "name": "exists",
      "outputs": [
        {
          "name": "",
          "type": "bool"
        }
      ],
      "payable": false,
      "stateMutability": "view",
      "type": "function"
    },
    {
      "constant": true,
      "inputs": [
        {
          "name": "_index",
          "type": "uint256"
        }
      ],
      "name": "tokenByIndex",
      "outputs": [
        {
          "name": "",
          "type": "uint256"
        }
      ],
      "payable": false,
      "stateMutability": "view",
      "type": "function"
    },
    {
      "constant": true,
      "inputs": [],
      "name": "InterfaceSignature_ERC721Optional",
      "outputs": [
        {
          "name": "",
          "type": "bytes4"
        }
      ],
      "payable": false,
      "stateMutability": "view",
      "type": "function"
    },
    {
      "constant": true,
      "inputs": [
        {
          "name": "_tokenId",
          "type": "uint256"
        }
      ],
      "name": "ownerOf",
      "outputs": [
        {
          "name": "",
          "type": "address"
        }
      ],
      "payable": false,
      "stateMutability": "view",
      "type": "function"
    },
    {
      "constant": true,
      "inputs": [
        {
          "name": "_owner",
          "type": "address"
        }
      ],
      "name": "balanceOf",
      "outputs": [
        {
          "name": "",
          "type": "uint256"
        }
      ],
      "payable": false,
      "stateMutability": "view",
      "type": "function"
    },
    {
      "constant": false,
      "inputs": [
        {
          "name": "addr",
          "type": "address"
        }
      ],
      "name": "addAddressToWhitelist",
      "outputs": [
        {
          "name": "success",
          "type": "bool"
        }
      ],
      "payable": false,
      "stateMutability": "nonpayable",
      "type": "function"
    },
    {
      "constant": true,
      "inputs": [],
      "name": "owner",
      "outputs": [
        {
          "name": "",
          "type": "address"
        }
      ],
      "payable": false,
      "stateMutability": "view",
      "type": "function"
    },
    {
      "constant": true,
      "inputs": [],
      "name": "symbol",
      "outputs": [
        {
          "name": "",
          "type": "string"
        }
      ],
      "payable": false,
      "stateMutability": "view",
      "type": "function"
    },
    {
      "constant": true,
      "inputs": [
        {
          "name": "",
          "type": "address"
        }
      ],
      "name": "whitelist",
      "outputs": [
        {
          "name": "",
          "type": "bool"
        }
      ],
      "payable": false,
      "stateMutability": "view",
      "type": "function"
    },
    {
      "constant": false,
      "inputs": [
        {
          "name": "_to",
          "type": "address"
        },
        {
          "name": "_approved",
          "type": "bool"
        }
      ],
      "name": "setApprovalForAll",
      "outputs": [],
      "payable": false,
      "stateMutability": "nonpayable",
      "type": "function"
    },
    {
      "constant": false,
      "inputs": [
        {
          "name": "_from",
          "type": "address"
        },
        {
          "name": "_to",
          "type": "address"
        },
        {
          "name": "_tokenId",
          "type": "uint256"
        },
        {
          "name": "_data",
          "type": "bytes"
        }
      ],
      "name": "safeTransferFrom",
      "outputs": [],
      "payable": false,
      "stateMutability": "nonpayable",
      "type": "function"
    },
    {
      "constant": false,
      "inputs": [
        {
          "name": "addrs",
          "type": "address[]"
        }
      ],
      "name": "addAddressesToWhitelist",
      "outputs": [
        {
          "name": "success",
          "type": "bool"
        }
      ],
      "payable": false,
      "stateMutability": "nonpayable",
      "type": "function"
    },
    {
      "constant": true,
      "inputs": [
        {
          "name": "_owner",
          "type": "address"
        },
        {
          "name": "_operator",
          "type": "address"
        }
      ],
      "name": "isApprovedForAll",
      "outputs": [
        {
          "name": "",
          "type": "bool"
        }
      ],
      "payable": false,
      "stateMutability": "view",
      "type": "function"
    },
    {
      "constant": false,
      "inputs": [
        {
          "name": "newOwner",
          "type": "address"
        }
      ],
      "name": "transferOwnership",
      "outputs": [],
      "payable": false,
      "stateMutability": "nonpayable",
      "type": "function"
    },
    {
      "inputs": [],
      "payable": false,
      "stateMutability": "nonpayable",
      "type": "constructor"
    },
    {
      "payable": true,
      "stateMutability": "payable",
      "type": "fallback"
    },
    {
      "anonymous": false,
      "inputs": [
        {
          "indexed": true,
          "name": "_owner",
          "type": "address"
        },
        {
          "indexed": true,
          "name": "_tokenId",
          "type": "uint256"
        },
        {
          "indexed": false,
          "name": "_blockhash",
          "type": "bytes32"
        },
        {
          "indexed": false,
          "name": "_nickname",
          "type": "string"
        }
      ],
      "name": "MintDART",
      "type": "event"
    },
    {
      "anonymous": false,
      "inputs": [
        {
          "indexed": false,
          "name": "addr",
          "type": "address"
        }
      ],
      "name": "WhitelistedAddressAdded",
      "type": "event"
    },
    {
      "anonymous": false,
      "inputs": [
        {
          "indexed": false,
          "name": "addr",
          "type": "address"
        }
      ],
      "name": "WhitelistedAddressRemoved",
      "type": "event"
    },
    {
      "anonymous": false,
      "inputs": [
        {
          "indexed": true,
          "name": "previousOwner",
          "type": "address"
        },
        {
          "indexed": true,
          "name": "newOwner",
          "type": "address"
        }
      ],
      "name": "OwnershipTransferred",
      "type": "event"
    },
    {
      "anonymous": false,
      "inputs": [
        {
          "indexed": true,
          "name": "_from",
          "type": "address"
        },
        {
          "indexed": true,
          "name": "_to",
          "type": "address"
        },
        {
          "indexed": false,
          "name": "_tokenId",
          "type": "uint256"
        }
      ],
      "name": "Transfer",
      "type": "event"
    },
    {
      "anonymous": false,
      "inputs": [
        {
          "indexed": true,
          "name": "_owner",
          "type": "address"
        },
        {
          "indexed": true,
          "name": "_approved",
          "type": "address"
        },
        {
          "indexed": false,
          "name": "_tokenId",
          "type": "uint256"
        }
      ],
      "name": "Approval",
      "type": "event"
    },
    {
      "anonymous": false,
      "inputs": [
        {
          "indexed": true,
          "name": "_owner",
          "type": "address"
        },
        {
          "indexed": true,
          "name": "_operator",
          "type": "address"
        },
        {
          "indexed": false,
          "name": "_approved",
          "type": "bool"
        }
      ],
      "name": "ApprovalForAll",
      "type": "event"
    },
    {
      "constant": true,
      "inputs": [
        {
          "name": "_interfaceID",
          "type": "bytes4"
        }
      ],
      "name": "supportsInterface",
      "outputs": [
        {
          "name": "",
          "type": "bool"
        }
      ],
      "payable": false,
      "stateMutability": "pure",
      "type": "function"
    },
    {
      "constant": false,
      "inputs": [
        {
          "name": "_blockhash",
          "type": "bytes32"
        },
        {
          "name": "_tokenId",
          "type": "uint256"
        },
        {
          "name": "_nickname",
          "type": "string"
        }
      ],
      "name": "mint",
      "outputs": [],
      "payable": false,
      "stateMutability": "nonpayable",
      "type": "function"
    },
    {
      "constant": false,
      "inputs": [
        {
          "name": "_tokenId",
          "type": "uint256"
        },
        {
          "name": "_uri",
          "type": "string"
        }
      ],
      "name": "setTokenURI",
      "outputs": [],
      "payable": false,
      "stateMutability": "nonpayable",
      "type": "function"
    },
    {
      "constant": true,
      "inputs": [
        {
          "name": "_owner",
          "type": "address"
        }
      ],
      "name": "tokensOf",
      "outputs": [
        {
          "name": "_tokenIds",
          "type": "uint256[]"
        }
      ],
      "payable": false,
      "stateMutability": "view",
      "type": "function"
    },
    {
      "constant": true,
      "inputs": [
        {
          "name": "_owner",
          "type": "address"
        }
      ],
      "name": "hasTokens",
      "outputs": [
        {
          "name": "",
          "type": "bool"
        }
      ],
      "payable": false,
      "stateMutability": "view",
      "type": "function"
    },
    {
      "constant": true,
      "inputs": [
        {
          "name": "_owner",
          "type": "address"
        }
      ],
      "name": "firstToken",
      "outputs": [
        {
          "name": "_tokenId",
          "type": "uint256"
        }
      ],
      "payable": false,
      "stateMutability": "view",
      "type": "function"
    },
    {
      "constant": true,
      "inputs": [
        {
          "name": "_tokenId",
          "type": "uint256"
        }
      ],
      "name": "nicknameOf",
      "outputs": [
        {
          "name": "_nickname",
          "type": "string"
        }
      ],
      "payable": false,
      "stateMutability": "view",
      "type": "function"
    },
    {
      "constant": true,
      "inputs": [
        {
          "name": "_tokenId",
          "type": "uint256"
        }
      ],
      "name": "tokenURI",
      "outputs": [
        {
          "name": "",
          "type": "string"
        }
      ],
      "payable": false,
      "stateMutability": "view",
      "type": "function"
    },
    {
      "constant": false,
      "inputs": [
        {
          "name": "_newBaseURI",
          "type": "string"
        }
      ],
      "name": "setTokenBaseURI",
      "outputs": [],
      "payable": false,
      "stateMutability": "nonpayable",
      "type": "function"
    },
    {
      "constant": true,
      "inputs": [
        {
          "name": "_tokenId",
          "type": "uint256"
        }
      ],
      "name": "blockhashOf",
      "outputs": [
        {
          "name": "hash",
          "type": "bytes32"
        }
      ],
      "payable": false,
      "stateMutability": "view",
      "type": "function"
    }
  ],
  "bytecode": "0x60c0604052601c60808190527f68747470733a2f2f697066732e696e667572612e696f2f697066732f0000000060a09081526200004091600d919062000214565b503480156200004e57600080fd5b50604080518082018252600b81527f4469676974616c204172740000000000000000000000000000000000000000006020808301918252835180850190945260048085527f4441525400000000000000000000000000000000000000000000000000000000918501919091528251929392620000cb929062000214565b508051620000e190600590602084019062000214565b5050600b8054600160a060020a0319163390811790915562000112915064010000000062000f066200017582021704565b506200014073f43ae50c468c3d3fa0c3dc3454e797317ef5307864010000000062000f066200017582021704565b506200016e73e1023c112a39c58238929153f25364c11a33b72964010000000062000f066200017582021704565b50620002b9565b600b54600090600160a060020a031633146200019057600080fd5b600160a060020a0382166000908152600c602052604090205460ff1615156200020f57600160a060020a0382166000818152600c6020908152604091829020805460ff19166001179055815192835290517fd1bba68c128cc3f427e5831b3c6f99f480b6efa6b9e80c757768f6124158cc3f9281900390910190a15060015b919050565b828054600181600116156101000203166002900490600052602060002090601f016020900481019282601f106200025757805160ff191683800117855562000287565b8280016001018555821562000287579182015b82811115620002875782518255916020019190600101906200026a565b506200029592915062000299565b5090565b620002b691905b80821115620002955760008155600101620002a0565b90565b611eb080620002c96000396000f3006080604052600436106101a05763ffffffff7c010000000000000000000000000000000000000000000000000000000060003504166301ffc9a781146101a557806306fdde03146101db57806307518c8e14610265578063081812fc1461028f578063095ea7b3146102c3578063162094c4146102e957806318160ddd1461030d57806323b872dd1461032257806324953eaa1461034c578063286dd3f5146103a15780632f745c59146103c25780633cefc1e0146103e657806342842e0e146104075780634f558e79146104315780634f6ccce71461044957806354f50f1b146104615780635a3f267214610479578063624de3d9146104ea5780636352211e1461051c5780636f37f48b1461053457806370a08231146105555780637b9417c8146105765780638da5cb5b146105975780638ef79e91146105ac57806395d89b41146105cc5780639b19251a146105e15780639fb6c79614610602578063a22cb4651461062a578063b88d4fde14610650578063c87b56dd146106bf578063e2ec6ec3146106d7578063e985e9c51461072c578063f2fde38b14610753575b600080fd5b3480156101b157600080fd5b506101c7600160e060020a031960043516610774565b604080519115158252519081900360200190f35b3480156101e757600080fd5b506101f061087b565b6040805160208082528351818301528351919283929083019185019080838360005b8381101561022a578181015183820152602001610212565b50505050905090810190601f1680156102575780820380516001836020036101000a031916815260200191505b509250505060405180910390f35b34801561027157600080fd5b5061027d600435610912565b60408051918252519081900360200190f35b34801561029b57600080fd5b506102a7600435610924565b60408051600160a060020a039092168252519081900360200190f35b3480156102cf57600080fd5b506102e7600160a060020a036004351660243561093f565b005b3480156102f557600080fd5b506102e7600480359060248035908101910135610a31565b34801561031957600080fd5b5061027d610a9d565b34801561032e57600080fd5b506102e7600160a060020a0360043581169060243516604435610aa3565b34801561035857600080fd5b50604080516020600480358082013583810280860185019096528085526101c795369593946024949385019291829185019084908082843750949750610b529650505050505050565b3480156103ad57600080fd5b506101c7600160a060020a0360043516610bb3565b3480156103ce57600080fd5b5061027d600160a060020a0360043516602435610c4b565b3480156103f257600080fd5b506101c7600160a060020a0360043516610c98565b34801561041357600080fd5b506102e7600160a060020a0360043581169060243516604435610cb4565b34801561043d57600080fd5b506101c7600435610cec565b34801561045557600080fd5b5061027d600435610d09565b34801561046d57600080fd5b506101f0600435610d3e565b34801561048557600080fd5b5061049a600160a060020a0360043516610ddf565b60408051602080825283518183015283519192839290830191858101910280838360005b838110156104d65781810151838201526020016104be565b505050509050019250505060405180910390f35b3480156104f657600080fd5b506104ff610e4a565b60408051600160e060020a03199092168252519081900360200190f35b34801561052857600080fd5b506102a7600435610e6e565b34801561054057600080fd5b5061027d600160a060020a0360043516610e98565b34801561056157600080fd5b5061027d600160a060020a0360043516610ed3565b34801561058257600080fd5b506101c7600160a060020a0360043516610f06565b3480156105a357600080fd5b506102a7610fa2565b3480156105b857600080fd5b506102e76004803560248101910135610fb1565b3480156105d857600080fd5b506101f0610fd4565b3480156105ed57600080fd5b506101c7600160a060020a0360043516611035565b34801561060e57600080fd5b506102e76004803590602480359160443591820191013561104a565b34801561063657600080fd5b506102e7600160a060020a0360043516602435151561117d565b34801561065c57600080fd5b50604080516020601f6064356004818101359283018490048402850184019095528184526102e794600160a060020a0381358116956024803590921695604435953695608494019181908401838280828437509497506112019650505050505050565b3480156106cb57600080fd5b506101f0600435611240565b3480156106e357600080fd5b50604080516020600480358082013583810280860185019096528085526101c7953695939460249493850192918291850190849080828437509497506113709650505050505050565b34801561073857600080fd5b506101c7600160a060020a03600435811690602435166113cb565b34801561075f57600080fd5b506102e7600160a060020a03600435166113f9565b6000600160e060020a031982167f01ffc9a70000000000000000000000000000000000000000000000000000000014806107d75750600160e060020a031982167f80ac58cd00000000000000000000000000000000000000000000000000000000145b8061080b5750600160e060020a031982167fb0aa718700000000000000000000000000000000000000000000000000000000145b8061083f5750600160e060020a031982167f780e9d6300000000000000000000000000000000000000000000000000000000145b806108735750600160e060020a031982167f5b5e139f00000000000000000000000000000000000000000000000000000000145b90505b919050565b60048054604080516020601f60026000196101006001881615020190951694909404938401819004810282018101909252828152606093909290918301828280156109075780601f106108dc57610100808354040283529160200191610907565b820191906000526020600020905b8154815290600101906020018083116108ea57829003601f168201915b505050505090505b90565b6000908152600f602052604090205490565b600090815260016020526040902054600160a060020a031690565b600061094a82610e6e565b9050600160a060020a03838116908216141561096557600080fd5b33600160a060020a0382161480610981575061098181336113cb565b151561098c57600080fd5b600061099783610924565b600160a060020a03161415806109b55750600160a060020a03831615155b15610a2c57600082815260016020908152604091829020805473ffffffffffffffffffffffffffffffffffffffff1916600160a060020a03878116918217909255835186815293519093918516927f8c5be1e5ebec7d5bd14f71427d1e84f3dd0314c0f7b2291e5b200ac8c7c3b925928290030190a35b505050565b336000908152600c602052604090205460ff161515610a4f57600080fd5b610a5883610cec565b1515610a6357600080fd5b610a2c8383838080601f0160208091040260200160405190810160405280939291908181526020018383808284375061148e945050505050565b60085490565b80610aae33826114c1565b1515610ab957600080fd5b600160a060020a0384161515610ace57600080fd5b600160a060020a0383161515610ae357600080fd5b610aed8483611520565b610af784836115ce565b610b018383611707565b82600160a060020a031684600160a060020a03167fddf252ad1be2c89b69c2b068fc378daa952ba7f163c4a11628f55a4df523b3ef846040518082815260200191505060405180910390a350505050565b600b546000908190600160a060020a03163314610b6e57600080fd5b5060005b8251811015610bad57610b9b8382815181101515610b8c57fe5b90602001906020020151610bb3565b15610ba557600191505b600101610b72565b50919050565b600b54600090600160a060020a03163314610bcd57600080fd5b600160a060020a0382166000908152600c602052604090205460ff161561087657600160a060020a0382166000818152600c6020908152604091829020805460ff19169055815192835290517ff1abf01a1043b7c244d128e8595cf0c1d10743b022b03a02dffd8ca3bf729f5a9281900390910190a1506001919050565b6000610c5683610ed3565b8210610c6157600080fd5b600160a060020a0383166000908152600660205260409020805483908110610c8557fe5b9060005260206000200154905092915050565b600160a060020a03166000908152600660205260408120541190565b80610cbf33826114c1565b1515610cca57600080fd5b610ce68484846020604051908101604052806000815250611201565b50505050565b600090815260208190526040902054600160a060020a0316151590565b6000610d13610a9d565b8210610d1e57600080fd5b6008805483908110610d2c57fe5b90600052602060002001549050919050565b6000818152600e602090815260409182902080548351601f6002600019610100600186161502019093169290920491820184900484028101840190945280845260609392830182828015610dd35780601f10610da857610100808354040283529160200191610dd3565b820191906000526020600020905b815481529060010190602001808311610db657829003601f168201915b50505050509050919050565b600160a060020a038116600090815260066020908152604091829020805483518184028101840190945280845260609392830182828015610dd357602002820191906000526020600020905b815481526020019060010190808311610e2b5750505050509050919050565b7fb0aa71870000000000000000000000000000000000000000000000000000000081565b600081815260208190526040812054600160a060020a0316801515610e9257600080fd5b92915050565b6000610ea382610c98565b1515610eae57600080fd5b600160a060020a038216600090815260066020526040812080549091908110610d2c57fe5b6000600160a060020a0382161515610eea57600080fd5b50600160a060020a031660009081526002602052604090205490565b600b54600090600160a060020a03163314610f2057600080fd5b600160a060020a0382166000908152600c602052604090205460ff16151561087657600160a060020a0382166000818152600c6020908152604091829020805460ff19166001179055815192835290517fd1bba68c128cc3f427e5831b3c6f99f480b6efa6b9e80c757768f6124158cc3f9281900390910190a1506001919050565b600b54600160a060020a031681565b600b54600160a060020a03163314610fc857600080fd5b610a2c600d8383611d5e565b60058054604080516020601f60026000196101006001881615020190951694909404938401819004810282018101909252828152606093909290918301828280156109075780601f106108dc57610100808354040283529160200191610907565b600c6020526000908152604090205460ff1681565b336000908152600c602052604090205460ff16151561106857600080fd5b6000848152601060205260409020541561108157600080fd5b6000838152600f60205260409020541561109a57600080fd5b6110a43384611750565b6110e3836040805190810160405280600381526020017f574950000000000000000000000000000000000000000000000000000000000081525061148e565b6000838152600f6020908152604080832087905586835260108252808320869055858352600e9091529020611119908383611d5e565b506040805185815260208101828152918101839052849133917f4453ce3000f70afbe0bcadf15f2ba7165d528adb6dffa06dd8aa0b89c6516e189188918791879190606082018484808284376040519201829003965090945050505050a350505050565b600160a060020a03821633141561119357600080fd5b336000818152600360209081526040808320600160a060020a03871680855290835292819020805460ff1916861515908117909155815190815290519293927f17307eab39ab6107e8899845ad3d59bd9653f200f220920489ca2b5937696c31929181900390910190a35050565b8161120c33826114c1565b151561121757600080fd5b611222858585610aa3565b61122e8585858561179f565b151561123957600080fd5b5050505050565b600d805460408051602060026001851615610100026000190190941693909304601f810184900484028201840190925281815260609361087393919290918301828280156112cf5780601f106112a4576101008083540402835291602001916112cf565b820191906000526020600020905b8154815290600101906020018083116112b257829003601f168201915b5050506000868152600a60209081526040918290208054835160026001831615610100026000190190921691909104601f8101849004840282018401909452838152945092508301828280156113665780601f1061133b57610100808354040283529160200191611366565b820191906000526020600020905b81548152906001019060200180831161134957829003601f168201915b5050505050611910565b600b546000908190600160a060020a0316331461138c57600080fd5b5060005b8251811015610bad576113b983828151811015156113aa57fe5b90602001906020020151610f06565b156113c357600191505b600101611390565b600160a060020a03918216600090815260036020908152604080832093909416825291909152205460ff1690565b600b54600160a060020a0316331461141057600080fd5b600160a060020a038116151561142557600080fd5b600b54604051600160a060020a038084169216907f8be0079c531659141344cd1fd0a4f28419497f9722a3daafe3b4186f6b6457e090600090a3600b805473ffffffffffffffffffffffffffffffffffffffff1916600160a060020a0392909216919091179055565b61149782610cec565b15156114a257600080fd5b6000828152600a602090815260409091208251610a2c92840190611ddc565b6000806114cd83610e6e565b905080600160a060020a031684600160a060020a03161480611508575083600160a060020a03166114fd84610924565b600160a060020a0316145b80611518575061151881856113cb565b949350505050565b81600160a060020a031661153382610e6e565b600160a060020a03161461154657600080fd5b600081815260016020526040902054600160a060020a0316156115ca576000818152600160209081526040808320805473ffffffffffffffffffffffffffffffffffffffff1916905580518481529051600160a060020a038616927f8c5be1e5ebec7d5bd14f71427d1e84f3dd0314c0f7b2291e5b200ac8c7c3b925928290030190a35b5050565b60008060006115dd858561194c565b600084815260076020908152604080832054600160a060020a038916845260069092529091205490935061161890600163ffffffff6119e116565b600160a060020a03861660009081526006602052604090208054919350908390811061164057fe5b90600052602060002001549050806006600087600160a060020a0316600160a060020a031681526020019081526020016000208481548110151561168057fe5b6000918252602080832090910192909255600160a060020a03871681526006909152604081208054849081106116b257fe5b6000918252602080832090910192909255600160a060020a03871681526006909152604090208054906116e9906000198301611e4a565b50600093845260076020526040808520859055908452909220555050565b600061171383836119f3565b50600160a060020a039091166000908152600660209081526040808320805460018101825590845282842081018590559383526007909152902055565b61175a8282611a82565b600880546000838152600960205260408120829055600182018355919091527ff3f7a9fe364faab93b216da50a3214154f22a0a2b415b23a84c8169e8b636ee3015550565b6000806117b485600160a060020a0316611ae6565b15156117c35760019150611907565b84600160a060020a031663f0b9e5ba8786866040518463ffffffff167c01000000000000000000000000000000000000000000000000000000000281526004018084600160a060020a0316600160a060020a0316815260200183815260200180602001828103825283818151815260200191508051906020019080838360005b8381101561185b578181015183820152602001611843565b50505050905090810190601f1680156118885780820380516001836020036101000a031916815260200191505b50945050505050602060405180830381600087803b1580156118a957600080fd5b505af11580156118bd573d6000803e3d6000fd5b505050506040513d60208110156118d357600080fd5b5051600160e060020a031981167ff0b9e5ba0000000000000000000000000000000000000000000000000000000014925090505b50949350505050565b604080516020818101835260008083528351808301855281815284519283019094528152606092611945928692869290611aee565b9392505050565b81600160a060020a031661195f82610e6e565b600160a060020a03161461197257600080fd5b600160a060020a03821660009081526002602052604090205461199c90600163ffffffff6119e116565b600160a060020a039092166000908152600260209081526040808320949094559181529081905220805473ffffffffffffffffffffffffffffffffffffffff19169055565b6000828211156119ed57fe5b50900390565b600081815260208190526040902054600160a060020a031615611a1557600080fd5b600081815260208181526040808320805473ffffffffffffffffffffffffffffffffffffffff1916600160a060020a03871690811790915583526002909152902054611a62906001611d4f565b600160a060020a0390921660009081526002602052604090209190915550565b600160a060020a0382161515611a9757600080fd5b611aa18282611707565b604080518281529051600160a060020a038416916000917fddf252ad1be2c89b69c2b068fc378daa952ba7f163c4a11628f55a4df523b3ef9181900360200190a35050565b6000903b1190565b6060806060806060806060806000808e98508d97508c96508b95508a94508451865188518a518c51010101016040519080825280601f01601f191660200182016040528015611b47578160200160208202803883390190505b50935083925060009150600090505b8851811015611bb4578881815181101515611b6d57fe5b90602001015160f860020a900460f860020a028383806001019450815181101515611b9457fe5b906020010190600160f860020a031916908160001a905350600101611b56565b5060005b8751811015611c16578781815181101515611bcf57fe5b90602001015160f860020a900460f860020a028383806001019450815181101515611bf657fe5b906020010190600160f860020a031916908160001a905350600101611bb8565b5060005b8651811015611c78578681815181101515611c3157fe5b90602001015160f860020a900460f860020a028383806001019450815181101515611c5857fe5b906020010190600160f860020a031916908160001a905350600101611c1a565b5060005b8551811015611cda578581815181101515611c9357fe5b90602001015160f860020a900460f860020a028383806001019450815181101515611cba57fe5b906020010190600160f860020a031916908160001a905350600101611c7c565b5060005b8451811015611d3c578481815181101515611cf557fe5b90602001015160f860020a900460f860020a028383806001019450815181101515611d1c57fe5b906020010190600160f860020a031916908160001a905350600101611cde565b50909d9c50505050505050505050505050565b60008282018381101561194557fe5b828054600181600116156101000203166002900490600052602060002090601f016020900481019282601f10611d9f5782800160ff19823516178555611dcc565b82800160010185558215611dcc579182015b82811115611dcc578235825591602001919060010190611db1565b50611dd8929150611e6a565b5090565b828054600181600116156101000203166002900490600052602060002090601f016020900481019282601f10611e1d57805160ff1916838001178555611dcc565b82800160010185558215611dcc579182015b82811115611dcc578251825591602001919060010190611e2f565b815481835581811115610a2c57600083815260209020610a2c9181019083015b61090f91905b80821115611dd85760008155600101611e705600a165627a7a723058209bafe33a6fccfffdcf123cc0a872bcf709c7a53ac358330c596a6a504dffe6b20029",
  "source": "pragma solidity ^0.4.21;\n\n\nimport \"./ERC721Token.sol\";\n\nimport \"./Strings.sol\";\n\nimport \"./ERC165.sol\";\n\nimport \"./Whitelist.sol\";\n\n\n/**\n* @title DART\n*/\ncontract DART is ERC721Token, ERC165, Whitelist {\n  using SafeMath for uint256;\n\n  bytes4 constant InterfaceSignature_ERC165 = 0x01ffc9a7;\n  /*\n  bytes4(keccak256('supportsInterface(bytes4)'));\n  */\n\n  bytes4 constant InterfaceSignature_ERC721Enumerable = 0x780e9d63;\n  /*\n  bytes4(keccak256('totalSupply()')) ^\n  bytes4(keccak256('tokenOfOwnerByIndex(address,uint256)')) ^\n  bytes4(keccak256('tokenByIndex(uint256)'));\n  */\n\n  bytes4 constant InterfaceSignature_ERC721Metadata = 0x5b5e139f;\n  /*\n  bytes4(keccak256('name()')) ^\n  bytes4(keccak256('symbol()')) ^\n  bytes4(keccak256('tokenURI(uint256)'));\n  */\n\n  bytes4 constant InterfaceSignature_ERC721 = 0x80ac58cd;\n  /*\n  bytes4(keccak256('balanceOf(address)')) ^\n  bytes4(keccak256('ownerOf(uint256)')) ^\n  bytes4(keccak256('approve(address,uint256)')) ^\n  bytes4(keccak256('getApproved(uint256)')) ^\n  bytes4(keccak256('setApprovalForAll(address,bool)')) ^\n  bytes4(keccak256('isApprovedForAll(address,address)')) ^\n  bytes4(keccak256('transferFrom(address,address,uint256)')) ^\n  bytes4(keccak256('safeTransferFrom(address,address,uint256)')) ^\n  bytes4(keccak256('safeTransferFrom(address,address,uint256,bytes)'));\n  */\n\n  bytes4 public constant InterfaceSignature_ERC721Optional = - 0x4f558e79;\n  /*\n  bytes4(keccak256('exists(uint256)'));\n  */\n\n  /**\n   * @notice Introspection interface as per ERC-165 (https://github.com/ethereum/EIPs/issues/165).\n   * @dev Returns true for any standardized interfaces implemented by this contract.\n   * @param _interfaceID bytes4 the interface to check for\n   * @return true for any standardized interfaces implemented by this contract.\n   */\n  function supportsInterface(bytes4 _interfaceID) external pure returns (bool) {\n    return ((_interfaceID == InterfaceSignature_ERC165)\n    || (_interfaceID == InterfaceSignature_ERC721)\n    || (_interfaceID == InterfaceSignature_ERC721Optional)\n    || (_interfaceID == InterfaceSignature_ERC721Enumerable)\n    || (_interfaceID == InterfaceSignature_ERC721Metadata));\n  }\n\n  event MintDART(address indexed _owner, uint256 indexed _tokenId, bytes32 _blockhash, string _nickname);\n\n  string internal tokenBaseURI = \"https://ipfs.infura.io/ipfs/\";\n\n  mapping (uint256 => string) internal tokenIdToNickname;\n\n  mapping(uint256 => bytes32) internal tokenIdToBlockhash;\n  mapping(bytes32 => uint256) internal blockhashToTokenId;\n\n  function DART() public ERC721Token(\"Digital Art\", \"DART\") {\n    // FIXME - hardcoded?\n    super.addAddressToWhitelist(msg.sender);\n    super.addAddressToWhitelist(0xf43aE50C468c3D3Fa0C3dC3454E797317EF53078);\n    super.addAddressToWhitelist(0xe1023C112A39c58238929153F25364c11A33B729);\n  }\n\n  // don't accept payment directly to contract\n  function() public payable {\n    revert();\n  }\n\n  /**\n   * @dev Mint a new DART token\n   * @dev Reverts if not called by curator\n   * @param _blockhash an Ethereum block hash\n   * @param _tokenId unique token ID\n   * @param _nickname char stamp of token owner\n   */\n  function mint(bytes32 _blockhash, uint256 _tokenId, string _nickname) external onlyWhitelisted {\n    require(blockhashToTokenId[_blockhash] == 0);\n    require(tokenIdToBlockhash[_tokenId] == 0);\n\n    // actually mint the token\n    super._mint(msg.sender, _tokenId);\n\n    // Use default\n    super._setTokenURI(_tokenId, \"WIP\");\n\n    // set data\n    tokenIdToBlockhash[_tokenId] = _blockhash;\n    blockhashToTokenId[_blockhash] = _tokenId;\n    tokenIdToNickname[_tokenId] = _nickname;\n\n    MintDART(msg.sender, _tokenId, _blockhash, _nickname);\n  }\n\n  /**\n   * @dev Utility function for updating a DART assets token URI\n   * @dev Reverts if not called by management\n   * @param _tokenId the DART token ID\n   * @param _uri the token URI, will be concatenated with baseUri\n   */\n  function setTokenURI(uint256 _tokenId, string _uri) external onlyWhitelisted {\n    require(exists(_tokenId));\n    _setTokenURI(_tokenId, _uri);\n  }\n\n  /**\n   * @dev Return owned tokens\n   * @param _owner address to query\n   */\n  function tokensOf(address _owner) public view returns (uint256[] _tokenIds) {\n    return ownedTokens[_owner];\n  }\n\n  /**\n   * @dev checks for owned tokens\n   * @param _owner address to query\n   */\n  function hasTokens(address _owner) constant returns (bool) {\n    return ownedTokens[_owner].length > 0;\n  }\n\n  /**\n   * @dev checks for owned tokens\n   * @param _owner address to query\n   */\n  function firstToken(address _owner) constant returns (uint256 _tokenId) {\n    require(hasTokens(_owner));\n    return ownedTokens[_owner][0];\n  }\n\n  /**\n   * @dev Return handle of token\n   * @param _tokenId token ID for handle lookup\n   */\n  function nicknameOf(uint256 _tokenId) public view returns (string _nickname) {\n    return tokenIdToNickname[_tokenId];\n  }\n\n  /**\n   * @dev Get token URI fro the given token, useful for testing purposes\n   * @param _tokenId the DART token ID\n   * @return the token ID or only the base URI if not found\n   */\n  function tokenURI(uint256 _tokenId) public view returns (string) {\n    return Strings.strConcat(tokenBaseURI, tokenURIs[_tokenId]);\n  }\n\n  /**\n   * @dev Allows management to update the base tokenURI path\n   * @dev Reverts if not called by management\n   * @param _newBaseURI the new base URI to set\n   */\n  function setTokenBaseURI(string _newBaseURI) external onlyOwner {\n    tokenBaseURI = _newBaseURI;\n  }\n\n  /**\n   * @dev Return blockhash of the DART token\n   * @param _tokenId the DART token ID\n   */\n  function blockhashOf(uint256 _tokenId) public view returns (bytes32 hash) {\n    return tokenIdToBlockhash[_tokenId];\n  }\n}\n",
  "sourcePath": "/Users/andy/workspace/art-blocks/contracts/DART.sol",
  "compiler": {
    "name": "solc",
    "version": "0.4.24+commit.e67f0147.Emscripten.clang"
  },
  "schemaVersion": "2.0.0",
  "updatedAt": "2018-05-27T09:18:02.701Z"
}