{
  "contractName": "DART",
  "abi": [
    {
      "constant": true,
      "inputs": [],
      "name": "name",
      "outputs": [
        {
          "name": "",
          "type": "string"
        }
      ],
      "payable": false,
      "stateMutability": "view",
      "type": "function"
    },
    {
      "constant": true,
      "inputs": [
        {
          "name": "_tokenId",
          "type": "uint256"
        }
      ],
      "name": "getApproved",
      "outputs": [
        {
          "name": "",
          "type": "address"
        }
      ],
      "payable": false,
      "stateMutability": "view",
      "type": "function"
    },
    {
      "constant": false,
      "inputs": [
        {
          "name": "_to",
          "type": "address"
        },
        {
          "name": "_tokenId",
          "type": "uint256"
        }
      ],
      "name": "approve",
      "outputs": [],
      "payable": false,
      "stateMutability": "nonpayable",
      "type": "function"
    },
    {
      "constant": true,
      "inputs": [],
      "name": "totalSupply",
      "outputs": [
        {
          "name": "",
          "type": "uint256"
        }
      ],
      "payable": false,
      "stateMutability": "view",
      "type": "function"
    },
    {
      "constant": false,
      "inputs": [
        {
          "name": "_from",
          "type": "address"
        },
        {
          "name": "_to",
          "type": "address"
        },
        {
          "name": "_tokenId",
          "type": "uint256"
        }
      ],
      "name": "transferFrom",
      "outputs": [],
      "payable": false,
      "stateMutability": "nonpayable",
      "type": "function"
    },
    {
      "constant": false,
      "inputs": [
        {
          "name": "addrs",
          "type": "address[]"
        }
      ],
      "name": "removeAddressesFromWhitelist",
      "outputs": [
        {
          "name": "success",
          "type": "bool"
        }
      ],
      "payable": false,
      "stateMutability": "nonpayable",
      "type": "function"
    },
    {
      "constant": false,
      "inputs": [
        {
          "name": "addr",
          "type": "address"
        }
      ],
      "name": "removeAddressFromWhitelist",
      "outputs": [
        {
          "name": "success",
          "type": "bool"
        }
      ],
      "payable": false,
      "stateMutability": "nonpayable",
      "type": "function"
    },
    {
      "constant": true,
      "inputs": [
        {
          "name": "_owner",
          "type": "address"
        },
        {
          "name": "_index",
          "type": "uint256"
        }
      ],
      "name": "tokenOfOwnerByIndex",
      "outputs": [
        {
          "name": "",
          "type": "uint256"
        }
      ],
      "payable": false,
      "stateMutability": "view",
      "type": "function"
    },
    {
      "constant": true,
      "inputs": [],
      "name": "tokenIdPointer",
      "outputs": [
        {
          "name": "",
          "type": "uint256"
        }
      ],
      "payable": false,
      "stateMutability": "view",
      "type": "function"
    },
    {
      "constant": false,
      "inputs": [
        {
          "name": "_from",
          "type": "address"
        },
        {
          "name": "_to",
          "type": "address"
        },
        {
          "name": "_tokenId",
          "type": "uint256"
        }
      ],
      "name": "safeTransferFrom",
      "outputs": [],
      "payable": false,
      "stateMutability": "nonpayable",
      "type": "function"
    },
    {
      "constant": true,
      "inputs": [
        {
          "name": "_tokenId",
          "type": "uint256"
        }
      ],
      "name": "exists",
      "outputs": [
        {
          "name": "",
          "type": "bool"
        }
      ],
      "payable": false,
      "stateMutability": "view",
      "type": "function"
    },
    {
      "constant": true,
      "inputs": [
        {
          "name": "_index",
          "type": "uint256"
        }
      ],
      "name": "tokenByIndex",
      "outputs": [
        {
          "name": "",
          "type": "uint256"
        }
      ],
      "payable": false,
      "stateMutability": "view",
      "type": "function"
    },
    {
      "constant": true,
      "inputs": [],
      "name": "totalContributionsInWei",
      "outputs": [
        {
          "name": "",
          "type": "uint256"
        }
      ],
      "payable": false,
      "stateMutability": "view",
      "type": "function"
    },
    {
      "constant": true,
      "inputs": [],
      "name": "InterfaceSignature_ERC721Optional",
      "outputs": [
        {
          "name": "",
          "type": "bytes4"
        }
      ],
      "payable": false,
      "stateMutability": "view",
      "type": "function"
    },
    {
      "constant": true,
      "inputs": [
        {
          "name": "_tokenId",
          "type": "uint256"
        }
      ],
      "name": "ownerOf",
      "outputs": [
        {
          "name": "",
          "type": "address"
        }
      ],
      "payable": false,
      "stateMutability": "view",
      "type": "function"
    },
    {
      "constant": true,
      "inputs": [
        {
          "name": "_owner",
          "type": "address"
        }
      ],
      "name": "balanceOf",
      "outputs": [
        {
          "name": "",
          "type": "uint256"
        }
      ],
      "payable": false,
      "stateMutability": "view",
      "type": "function"
    },
    {
      "constant": false,
      "inputs": [
        {
          "name": "addr",
          "type": "address"
        }
      ],
      "name": "addAddressToWhitelist",
      "outputs": [
        {
          "name": "success",
          "type": "bool"
        }
      ],
      "payable": false,
      "stateMutability": "nonpayable",
      "type": "function"
    },
    {
      "constant": true,
      "inputs": [],
      "name": "owner",
      "outputs": [
        {
          "name": "",
          "type": "address"
        }
      ],
      "payable": false,
      "stateMutability": "view",
      "type": "function"
    },
    {
      "constant": true,
      "inputs": [],
      "name": "symbol",
      "outputs": [
        {
          "name": "",
          "type": "string"
        }
      ],
      "payable": false,
      "stateMutability": "view",
      "type": "function"
    },
    {
      "constant": true,
      "inputs": [
        {
          "name": "",
          "type": "address"
        }
      ],
      "name": "whitelist",
      "outputs": [
        {
          "name": "",
          "type": "bool"
        }
      ],
      "payable": false,
      "stateMutability": "view",
      "type": "function"
    },
    {
      "constant": false,
      "inputs": [
        {
          "name": "_to",
          "type": "address"
        },
        {
          "name": "_approved",
          "type": "bool"
        }
      ],
      "name": "setApprovalForAll",
      "outputs": [],
      "payable": false,
      "stateMutability": "nonpayable",
      "type": "function"
    },
    {
      "constant": true,
      "inputs": [],
      "name": "pricePerBlock",
      "outputs": [
        {
          "name": "",
          "type": "uint256"
        }
      ],
      "payable": false,
      "stateMutability": "view",
      "type": "function"
    },
    {
      "constant": false,
      "inputs": [
        {
          "name": "_from",
          "type": "address"
        },
        {
          "name": "_to",
          "type": "address"
        },
        {
          "name": "_tokenId",
          "type": "uint256"
        },
        {
          "name": "_data",
          "type": "bytes"
        }
      ],
      "name": "safeTransferFrom",
      "outputs": [],
      "payable": false,
      "stateMutability": "nonpayable",
      "type": "function"
    },
    {
      "constant": true,
      "inputs": [],
      "name": "maxBlockPurchaseInOneGo",
      "outputs": [
        {
          "name": "",
          "type": "uint256"
        }
      ],
      "payable": false,
      "stateMutability": "view",
      "type": "function"
    },
    {
      "constant": true,
      "inputs": [],
      "name": "donationPercentage",
      "outputs": [
        {
          "name": "",
          "type": "uint8"
        }
      ],
      "payable": false,
      "stateMutability": "view",
      "type": "function"
    },
    {
      "constant": false,
      "inputs": [
        {
          "name": "addrs",
          "type": "address[]"
        }
      ],
      "name": "addAddressesToWhitelist",
      "outputs": [
        {
          "name": "success",
          "type": "bool"
        }
      ],
      "payable": false,
      "stateMutability": "nonpayable",
      "type": "function"
    },
    {
      "constant": true,
      "inputs": [
        {
          "name": "_owner",
          "type": "address"
        },
        {
          "name": "_operator",
          "type": "address"
        }
      ],
      "name": "isApprovedForAll",
      "outputs": [
        {
          "name": "",
          "type": "bool"
        }
      ],
      "payable": false,
      "stateMutability": "view",
      "type": "function"
    },
    {
      "constant": false,
      "inputs": [
        {
          "name": "newOwner",
          "type": "address"
        }
      ],
      "name": "transferOwnership",
      "outputs": [],
      "payable": false,
      "stateMutability": "nonpayable",
      "type": "function"
    },
    {
      "inputs": [],
      "payable": false,
      "stateMutability": "nonpayable",
      "type": "constructor"
    },
    {
      "payable": true,
      "stateMutability": "payable",
      "type": "fallback"
    },
    {
      "anonymous": false,
      "inputs": [
        {
          "indexed": false,
          "name": "addr",
          "type": "address"
        }
      ],
      "name": "WhitelistedAddressAdded",
      "type": "event"
    },
    {
      "anonymous": false,
      "inputs": [
        {
          "indexed": false,
          "name": "addr",
          "type": "address"
        }
      ],
      "name": "WhitelistedAddressRemoved",
      "type": "event"
    },
    {
      "anonymous": false,
      "inputs": [
        {
          "indexed": true,
          "name": "previousOwner",
          "type": "address"
        },
        {
          "indexed": true,
          "name": "newOwner",
          "type": "address"
        }
      ],
      "name": "OwnershipTransferred",
      "type": "event"
    },
    {
      "anonymous": false,
      "inputs": [
        {
          "indexed": true,
          "name": "_from",
          "type": "address"
        },
        {
          "indexed": true,
          "name": "_to",
          "type": "address"
        },
        {
          "indexed": false,
          "name": "_tokenId",
          "type": "uint256"
        }
      ],
      "name": "Transfer",
      "type": "event"
    },
    {
      "anonymous": false,
      "inputs": [
        {
          "indexed": true,
          "name": "_owner",
          "type": "address"
        },
        {
          "indexed": true,
          "name": "_approved",
          "type": "address"
        },
        {
          "indexed": false,
          "name": "_tokenId",
          "type": "uint256"
        }
      ],
      "name": "Approval",
      "type": "event"
    },
    {
      "anonymous": false,
      "inputs": [
        {
          "indexed": true,
          "name": "_owner",
          "type": "address"
        },
        {
          "indexed": true,
          "name": "_operator",
          "type": "address"
        },
        {
          "indexed": false,
          "name": "_approved",
          "type": "bool"
        }
      ],
      "name": "ApprovalForAll",
      "type": "event"
    },
    {
      "constant": true,
      "inputs": [
        {
          "name": "_interfaceID",
          "type": "bytes4"
        }
      ],
      "name": "supportsInterface",
      "outputs": [
        {
          "name": "",
          "type": "bool"
        }
      ],
      "payable": false,
      "stateMutability": "pure",
      "type": "function"
    },
    {
      "constant": false,
      "inputs": [
        {
          "name": "_tokenId",
          "type": "uint256"
        }
      ],
      "name": "fundDart",
      "outputs": [],
      "payable": true,
      "stateMutability": "payable",
      "type": "function"
    },
    {
      "constant": false,
      "inputs": [
        {
          "name": "_blockHash",
          "type": "bytes32"
        },
        {
          "name": "_nickname",
          "type": "string"
        }
      ],
      "name": "mint",
      "outputs": [],
      "payable": false,
      "stateMutability": "nonpayable",
      "type": "function"
    },
    {
      "constant": false,
      "inputs": [
        {
          "name": "_tokenId",
          "type": "uint256"
        }
      ],
      "name": "burn",
      "outputs": [],
      "payable": false,
      "stateMutability": "nonpayable",
      "type": "function"
    },
    {
      "constant": false,
      "inputs": [
        {
          "name": "_tokenId",
          "type": "uint256"
        },
        {
          "name": "_uri",
          "type": "string"
        }
      ],
      "name": "setTokenURI",
      "outputs": [],
      "payable": false,
      "stateMutability": "nonpayable",
      "type": "function"
    },
    {
      "constant": true,
      "inputs": [
        {
          "name": "_owner",
          "type": "address"
        }
      ],
      "name": "tokensOf",
      "outputs": [
        {
          "name": "_tokenIds",
          "type": "uint256[]"
        }
      ],
      "payable": false,
      "stateMutability": "view",
      "type": "function"
    },
    {
      "constant": true,
      "inputs": [
        {
          "name": "_tokenId",
          "type": "uint256"
        }
      ],
      "name": "nicknameOf",
      "outputs": [
        {
          "name": "_nickname",
          "type": "string"
        }
      ],
      "payable": false,
      "stateMutability": "view",
      "type": "function"
    },
    {
      "constant": true,
      "inputs": [
        {
          "name": "_tokenId",
          "type": "uint256"
        }
      ],
      "name": "blockhashOf",
      "outputs": [
        {
          "name": "hash",
          "type": "bytes32"
        }
      ],
      "payable": false,
      "stateMutability": "view",
      "type": "function"
    },
    {
      "constant": true,
      "inputs": [
        {
          "name": "_tokenId",
          "type": "uint256"
        }
      ],
      "name": "tokenURI",
      "outputs": [
        {
          "name": "",
          "type": "string"
        }
      ],
      "payable": false,
      "stateMutability": "view",
      "type": "function"
    },
    {
      "constant": false,
      "inputs": [
        {
          "name": "_newBaseURI",
          "type": "string"
        }
      ],
      "name": "setTokenBaseURI",
      "outputs": [],
      "payable": false,
      "stateMutability": "nonpayable",
      "type": "function"
    },
    {
      "constant": true,
      "inputs": [
        {
          "name": "_tokenId",
          "type": "uint256"
        }
      ],
      "name": "tokenHash",
      "outputs": [
        {
          "name": "",
          "type": "bytes32"
        }
      ],
      "payable": false,
      "stateMutability": "view",
      "type": "function"
    },
    {
      "constant": true,
      "inputs": [],
      "name": "nextHash",
      "outputs": [
        {
          "name": "_tokenHash",
          "type": "bytes32"
        }
      ],
      "payable": false,
      "stateMutability": "view",
      "type": "function"
    },
    {
      "constant": true,
      "inputs": [],
      "name": "blockNumber",
      "outputs": [
        {
          "name": "_blockNumber",
          "type": "uint256"
        }
      ],
      "payable": false,
      "stateMutability": "view",
      "type": "function"
    }
  ],
  "bytecode": "0x606060405260408051908101604052601c81527f68747470733a2f2f697066732e696e667572612e696f2f697066732f000000006020820152600d9080516200004d92916020019062000263565b506000600f819055662386f26fc100006010556011805460ff19166001179055600a60125560155534156200008157600080fd5b604080519081016040908152600b82527f4469676974616c204172740000000000000000000000000000000000000000006020830152805190810160405260048082527f44415254000000000000000000000000000000000000000000000000000000006020830152828051620000fd92916020019062000263565b5060058180516200011392916020019062000263565b5050600b8054600160a060020a03191633600160a060020a0381169190911790915543601555620001539150640100000000620001b68102620011461704565b506200018173f43ae50c468c3d3fa0c3dc3454e797317ef5307864010000000062001146620001b682021704565b50620001af73e1023c112a39c58238929153f25364c11a33b72964010000000062001146620001b682021704565b5062000308565b600b5460009033600160a060020a03908116911614620001d557600080fd5b600160a060020a0382166000908152600c602052604090205460ff1615156200025e57600160a060020a0382166000908152600c602052604090819020805460ff191660011790557fd1bba68c128cc3f427e5831b3c6f99f480b6efa6b9e80c757768f6124158cc3f90839051600160a060020a03909116815260200160405180910390a15060015b919050565b828054600181600116156101000203166002900490600052602060002090601f016020900481019282601f10620002a657805160ff1916838001178555620002d6565b82800160010185558215620002d6579182015b82811115620002d6578251825591602001919060010190620002b9565b50620002e4929150620002e8565b5090565b6200030591905b80821115620002e45760008155600101620002ef565b90565b6122c580620003186000396000f3006060604052600436106101f85763ffffffff7c010000000000000000000000000000000000000000000000000000000060003504166301ffc9a781146101fd57806306fdde031461023157806307518c8e146102bb578063081812fc146102e3578063095ea7b314610315578063162094c41461033957806318160ddd1461035b57806323b872dd1461036e57806324953eaa14610396578063286dd3f5146103e55780632f745c59146104045780633b3a1a7a1461042657806342842e0e1461043957806342966c68146104615780634f558e79146104775780634f6ccce71461048d57806354f50f1b146104a357806357e871e7146104b95780635a3f2672146104cc5780635a7cb31b1461053e578063624de3d9146105515780636352211e146105815780636ed2e7781461059757806370a08231146105a2578063727f0067146105c15780637b9417c8146105d45780638da5cb5b146105f35780638ef79e911461060657806395d89b41146106245780639b19251a14610637578063a22cb46514610656578063a38643971461067a578063ab792cdb14610690578063b88d4fde146106a3578063bb8270fa1461070f578063c16cc81014610722578063c87b56dd1461074b578063e2ec6ec314610761578063e985e9c5146107b0578063ee7242e3146107d5578063f2fde38b146107f7575b600080fd5b341561020857600080fd5b61021d600160e060020a031960043516610816565b604051901515815260200160405180910390f35b341561023c57600080fd5b61024461091d565b60405160208082528190810183818151815260200191508051906020019080838360005b83811015610280578082015183820152602001610268565b50505050905090810190601f1680156102ad5780820380516001836020036101000a031916815260200191505b509250505060405180910390f35b34156102c657600080fd5b6102d16004356109c6565b60405190815260200160405180910390f35b34156102ee57600080fd5b6102f96004356109d8565b604051600160a060020a03909116815260200160405180910390f35b341561032057600080fd5b610337600160a060020a03600435166024356109f3565b005b341561034457600080fd5b610337600480359060248035908101910135610aef565b341561036657600080fd5b6102d1610b63565b341561037957600080fd5b610337600160a060020a0360043581169060243516604435610b69565b34156103a157600080fd5b61021d6004602481358181019083013580602081810201604051908101604052809392919081815260200183836020028082843750949650610c1495505050505050565b34156103f057600080fd5b61021d600160a060020a0360043516610c77565b341561040f57600080fd5b6102d1600160a060020a0360043516602435610d1d565b341561043157600080fd5b6102d1610d6b565b341561044457600080fd5b610337600160a060020a0360043581169060243516604435610d71565b341561046c57600080fd5b610337600435610da7565b341561048257600080fd5b61021d600435610e23565b341561049857600080fd5b6102d1600435610e40565b34156104ae57600080fd5b610244600435610e76565b34156104c457600080fd5b6102d1610f31565b34156104d757600080fd5b6104eb600160a060020a0360043516610f35565b60405160208082528190810183818151815260200191508051906020019060200280838360005b8381101561052a578082015183820152602001610512565b505050509050019250505060405180910390f35b341561054957600080fd5b6102d1610fb7565b341561055c57600080fd5b610564610fbd565b604051600160e060020a0319909116815260200160405180910390f35b341561058c57600080fd5b6102f9600435610fe1565b61033760043561100b565b34156105ad57600080fd5b6102d1600160a060020a03600435166110c9565b34156105cc57600080fd5b6102d16110fc565b34156105df57600080fd5b61021d600160a060020a0360043516611146565b34156105fe57600080fd5b6102f96111f0565b341561061157600080fd5b61033760048035602481019101356111ff565b341561062f57600080fd5b610244611232565b341561064257600080fd5b61021d600160a060020a03600435166112a5565b341561066157600080fd5b610337600160a060020a036004351660243515156112ba565b341561068557600080fd5b6102d160043561134b565b341561069b57600080fd5b6102d1611374565b34156106ae57600080fd5b610337600160a060020a036004803582169160248035909116916044359160849060643590810190830135806020601f8201819004810201604051908101604052818152929190602084018383808284375094965061137a95505050505050565b341561071a57600080fd5b6102d16113b9565b341561072d57600080fd5b6107356113bf565b60405160ff909116815260200160405180910390f35b341561075657600080fd5b6102446004356113c8565b341561076c57600080fd5b61021d600460248135818101908301358060208181020160405190810160405280939291908181526020018383602002808284375094965061151f95505050505050565b34156107bb57600080fd5b61021d600160a060020a036004358116906024351661157c565b34156107e057600080fd5b6103376004803590602480359081019101356115aa565b341561080257600080fd5b610337600160a060020a0360043516611660565b6000600160e060020a031982167f01ffc9a70000000000000000000000000000000000000000000000000000000014806108795750600160e060020a031982167f80ac58cd00000000000000000000000000000000000000000000000000000000145b806108ad5750600160e060020a031982167fb0aa718700000000000000000000000000000000000000000000000000000000145b806108e15750600160e060020a031982167f780e9d6300000000000000000000000000000000000000000000000000000000145b806109155750600160e060020a031982167f5b5e139f00000000000000000000000000000000000000000000000000000000145b90505b919050565b610925612116565b60048054600181600116156101000203166002900480601f0160208091040260200160405190810160405280929190818152602001828054600181600116156101000203166002900480156109bb5780601f10610990576101008083540402835291602001916109bb565b820191906000526020600020905b81548152906001019060200180831161099e57829003601f168201915b505050505090505b90565b60009081526013602052604090205490565b600090815260016020526040902054600160a060020a031690565b60006109fe82610fe1565b9050600160a060020a038381169082161415610a1957600080fd5b80600160a060020a031633600160a060020a03161480610a3e5750610a3e813361157c565b1515610a4957600080fd5b6000610a54836109d8565b600160a060020a0316141580610a725750600160a060020a03831615155b15610aea5760008281526001602052604090819020805473ffffffffffffffffffffffffffffffffffffffff1916600160a060020a0386811691821790925591908316907f8c5be1e5ebec7d5bd14f71427d1e84f3dd0314c0f7b2291e5b200ac8c7c3b9259085905190815260200160405180910390a35b505050565b600160a060020a0333166000908152600c602052604090205460ff161515610b1657600080fd5b610b1f83610e23565b1515610b2a57600080fd5b610aea8383838080601f0160208091040260200160405190810160405281815292919060208401838380828437506116fb945050505050565b60085490565b80610b74338261172e565b1515610b7f57600080fd5b600160a060020a0384161515610b9457600080fd5b600160a060020a0383161515610ba957600080fd5b610bb3848361178d565b610bbd848361183c565b610bc7838361196a565b82600160a060020a031684600160a060020a03167fddf252ad1be2c89b69c2b068fc378daa952ba7f163c4a11628f55a4df523b3ef8460405190815260200160405180910390a350505050565b600b54600090819033600160a060020a03908116911614610c3457600080fd5b5060005b8251811015610c7157610c5f838281518110610c5057fe5b90602001906020020151610c77565b15610c6957600191505b600101610c38565b50919050565b600b5460009033600160a060020a03908116911614610c9557600080fd5b600160a060020a0382166000908152600c602052604090205460ff161561091857600160a060020a0382166000908152600c602052604090819020805460ff191690557ff1abf01a1043b7c244d128e8595cf0c1d10743b022b03a02dffd8ca3bf729f5a90839051600160a060020a03909116815260200160405180910390a1506001919050565b6000610d28836110c9565b8210610d3357600080fd5b600160a060020a0383166000908152600660205260409020805483908110610d5757fe5b906000526020600020900154905092915050565b600f5481565b80610d7c338261172e565b1515610d8757600080fd5b610da184848460206040519081016040526000815261137a565b50505050565b600160a060020a0333166000908152600c602052604090205460ff161515610dce57600080fd5b600b546000828152602081905260409020548291600160a060020a03918216911614610df957600080fd5b610e0282610e23565b1515610e0d57600080fd5b610e1f610e1983610fe1565b836119c4565b5050565b600090815260208190526040902054600160a060020a0316151590565b6000610e4a610b63565b8210610e5557600080fd5b6008805483908110610e6357fe5b9060005260206000209001549050919050565b610e7e612116565b601460008381526020019081526020016000208054600181600116156101000203166002900480601f016020809104026020016040519081016040528092919081815260200182805460018160011615610100020316600290048015610f255780601f10610efa57610100808354040283529160200191610f25565b820191906000526020600020905b815481529060010190602001808311610f0857829003601f168201915b50505050509050919050565b4390565b610f3d612116565b6006600083600160a060020a0316600160a060020a03168152602001908152602001600020805480602002602001604051908101604052809291908181526020018280548015610f2557602002820191906000526020600020905b815481526020019060010190808311610f985750505050509050919050565b600e5481565b7fb0aa71870000000000000000000000000000000000000000000000000000000081565b600081815260208190526040812054600160a060020a031680151561100557600080fd5b92915050565b6000808080348190101561101e57600080fd5b60105434101561102d57600080fd5b6012546010540234111561104057600080fd5b61104985610e23565b151561105457600080fd5b6010543481151561106157fe5b0493504392506015544311156110775760155492505b50506001810160005b838160ff1610156110c05760008281526016602052604090205415156110b55760008281526016602052604090208590556001015b600190910190611080565b50601555505050565b6000600160a060020a03821615156110e057600080fd5b50600160a060020a031660009081526002602052604090205490565b60001943016000908152601660205260408120541561113c57506000194301600090815260166020908152604080832054835260139091529020546109c3565b5060001943014090565b600b5460009033600160a060020a0390811691161461116457600080fd5b600160a060020a0382166000908152600c602052604090205460ff16151561091857600160a060020a0382166000908152600c602052604090819020805460ff191660011790557fd1bba68c128cc3f427e5831b3c6f99f480b6efa6b9e80c757768f6124158cc3f90839051600160a060020a03909116815260200160405180910390a1506001919050565b600b54600160a060020a031681565b600160a060020a0333166000908152600c602052604090205460ff16151561122657600080fd5b610aea600d8383612128565b61123a612116565b60058054600181600116156101000203166002900480601f0160208091040260200160405190810160405280929190818152602001828054600181600116156101000203166002900480156109bb5780601f10610990576101008083540402835291602001916109bb565b600c6020526000908152604090205460ff1681565b33600160a060020a031682600160a060020a0316141515156112db57600080fd5b33600160a060020a0390811660008181526003602090815260408083209487168084529490915290819020805460ff19168515151790557f17307eab39ab6107e8899845ad3d59bd9653f200f220920489ca2b5937696c3190849051901515815260200160405180910390a35050565b600061135682610e23565b151561136157600080fd5b5060009081526013602052604090205490565b60105481565b81611385338261172e565b151561139057600080fd5b61139b858585610b69565b6113a785858585611abf565b15156113b257600080fd5b5050505050565b60125481565b60115460ff1681565b6113d0612116565b610915600d8054600181600116156101000203166002900480601f0160208091040260200160405190810160405280929190818152602001828054600181600116156101000203166002900480156114695780601f1061143e57610100808354040283529160200191611469565b820191906000526020600020905b81548152906001019060200180831161144c57829003601f168201915b5050505050600a60008581526020019081526020016000208054600181600116156101000203166002900480601f0160208091040260200160405190810160405280929190818152602001828054600181600116156101000203166002900480156115155780601f106114ea57610100808354040283529160200191611515565b820191906000526020600020905b8154815290600101906020018083116114f857829003601f168201915b5050505050611c19565b600b54600090819033600160a060020a0390811691161461153f57600080fd5b5060005b8251811015610c715761156a83828151811061155b57fe5b90602001906020020151611146565b1561157457600191505b600101611543565b600160a060020a03918216600090815260036020908152604080832093909416825291909152205460ff1690565b600160a060020a0333166000908152600c602052604081205460ff1615156115d157600080fd5b50600f546115df3382611c63565b61161c8160408051908101604052600381527f574950000000000000000000000000000000000000000000000000000000000060208201526116fb565b600081815260136020908152604080832087905560149091529020611642908484612128565b50600f5461165790600163ffffffff611ca016565b600f5550505050565b600b5433600160a060020a0390811691161461167b57600080fd5b600160a060020a038116151561169057600080fd5b600b54600160a060020a0380831691167f8be0079c531659141344cd1fd0a4f28419497f9722a3daafe3b4186f6b6457e060405160405180910390a3600b805473ffffffffffffffffffffffffffffffffffffffff1916600160a060020a0392909216919091179055565b61170482610e23565b151561170f57600080fd5b6000828152600a60205260409020818051610aea9291602001906121a6565b60008061173a83610fe1565b905080600160a060020a031684600160a060020a03161480611775575083600160a060020a031661176a846109d8565b600160a060020a0316145b806117855750611785818561157c565b949350505050565b81600160a060020a03166117a082610fe1565b600160a060020a0316146117b357600080fd5b600081815260016020526040902054600160a060020a031615610e1f57600081815260016020526040808220805473ffffffffffffffffffffffffffffffffffffffff19169055600160a060020a038416907f8c5be1e5ebec7d5bd14f71427d1e84f3dd0314c0f7b2291e5b200ac8c7c3b9259084905190815260200160405180910390a35050565b600080600061184b8585611caf565b600084815260076020908152604080832054600160a060020a038916845260069092529091205490935061188690600163ffffffff611d4416565b600160a060020a0386166000908152600660205260409020805491935090839081106118ae57fe5b6000918252602080832090910154600160a060020a03881683526006909152604090912080549192508291859081106118e357fe5b6000918252602080832090910192909255600160a060020a038716815260069091526040812080548490811061191557fe5b6000918252602080832090910192909255600160a060020a038716815260069091526040902080549061194c906000198301612214565b50600093845260076020526040808520859055908452909220555050565b60006119768383611d56565b50600160a060020a038216600090815260066020526040902080549081600181016119a18382612214565b506000918252602080832091909101849055928152600790925260409091205550565b60008060006119d38585611de5565b6000848152600a60205260409020546002600019610100600184161502019091160415611a11576000848152600a60205260408120611a1191612238565b600084815260096020526040902054600854909350611a3790600163ffffffff611d4416565b9150600882815481101515611a4857fe5b906000526020600020900154905080600884815481101515611a6657fe5b60009182526020822001919091556008805484908110611a8257fe5b6000918252602090912001556008805490611aa1906000198301612214565b50600093845260096020526040808520859055908452909220555050565b600080611ad485600160a060020a0316611e3c565b1515611ae35760019150611c10565b84600160a060020a031663f0b9e5ba8786866040518463ffffffff167c01000000000000000000000000000000000000000000000000000000000281526004018084600160a060020a0316600160a060020a0316815260200183815260200180602001828103825283818151815260200191508051906020019080838360005b83811015611b7b578082015183820152602001611b63565b50505050905090810190601f168015611ba85780820380516001836020036101000a031916815260200191505b50945050505050602060405180830381600087803b1515611bc857600080fd5b5af11515611bd557600080fd5b5050506040518051600160e060020a031981167ff0b9e5ba000000000000000000000000000000000000000000000000000000001493509150505b50949350505050565b611c21612116565b611c5c838360206040519081016040528060008152506020604051908101604052806000815250602060405190810160405260008152611e44565b9392505050565b611c6d82826120b4565b60088054600083815260096020526040902081905560018101611c908382612214565b5060009182526020909120015550565b600082820183811015611c5c57fe5b81600160a060020a0316611cc282610fe1565b600160a060020a031614611cd557600080fd5b600160a060020a038216600090815260026020526040902054611cff90600163ffffffff611d4416565b600160a060020a039092166000908152600260209081526040808320949094559181529081905220805473ffffffffffffffffffffffffffffffffffffffff19169055565b600082821115611d5057fe5b50900390565b600081815260208190526040902054600160a060020a031615611d7857600080fd5b600081815260208181526040808320805473ffffffffffffffffffffffffffffffffffffffff1916600160a060020a03871690811790915583526002909152902054611dc5906001611ca0565b600160a060020a0390921660009081526002602052604090209190915550565b611def828261178d565b611df9828261183c565b6000600160a060020a0383167fddf252ad1be2c89b69c2b068fc378daa952ba7f163c4a11628f55a4df523b3ef8360405190815260200160405180910390a35050565b6000903b1190565b611e4c612116565b611e54612116565b611e5c612116565b611e64612116565b611e6c612116565b611e74612116565b611e7c612116565b611e84612116565b6000808e98508d97508c96508b95508a94508451865188518a518c5101010101604051805910611eb15750595b818152601f19601f83011681016020016040529050935083925060009150600090505b8851811015611f2d57888181518110611ee957fe5b016020015160f860020a900460f860020a02838380600101945081518110611f0d57fe5b906020010190600160f860020a031916908160001a905350600101611ed4565b5060005b8751811015611f8a57878181518110611f4657fe5b016020015160f860020a900460f860020a02838380600101945081518110611f6a57fe5b906020010190600160f860020a031916908160001a905350600101611f31565b5060005b8651811015611fe757868181518110611fa357fe5b016020015160f860020a900460f860020a02838380600101945081518110611fc757fe5b906020010190600160f860020a031916908160001a905350600101611f8e565b5060005b85518110156120445785818151811061200057fe5b016020015160f860020a900460f860020a0283838060010194508151811061202457fe5b906020010190600160f860020a031916908160001a905350600101611feb565b5060005b84518110156120a15784818151811061205d57fe5b016020015160f860020a900460f860020a0283838060010194508151811061208157fe5b906020010190600160f860020a031916908160001a905350600101612048565b50909d9c50505050505050505050505050565b600160a060020a03821615156120c957600080fd5b6120d3828261196a565b600160a060020a03821660007fddf252ad1be2c89b69c2b068fc378daa952ba7f163c4a11628f55a4df523b3ef8360405190815260200160405180910390a35050565b60206040519081016040526000815290565b828054600181600116156101000203166002900490600052602060002090601f016020900481019282601f106121695782800160ff19823516178555612196565b82800160010185558215612196579182015b8281111561219657823582559160200191906001019061217b565b506121a292915061227f565b5090565b828054600181600116156101000203166002900490600052602060002090601f016020900481019282601f106121e757805160ff1916838001178555612196565b82800160010185558215612196579182015b828111156121965782518255916020019190600101906121f9565b815481835581811511610aea57600083815260209020610aea91810190830161227f565b50805460018160011615610100020316600290046000825580601f1061225e575061227c565b601f01602090049060005260206000209081019061227c919061227f565b50565b6109c391905b808211156121a257600081556001016122855600a165627a7a723058209671350fd2dcad72a594653a43eded115ccc8d49ce288323bcc072be776490290029",
  "source": "pragma solidity ^0.4.21;\n\n\nimport \"./ERC721Token.sol\";\n\nimport \"./Strings.sol\";\n\nimport \"./ERC165.sol\";\n\nimport \"./Whitelist.sol\";\n\n\n/**\n* @title DART\n*/\ncontract DART is ERC721Token, ERC165, Whitelist {\n  using SafeMath for uint256;\n\n  bytes4 constant InterfaceSignature_ERC165 = 0x01ffc9a7;\n  /*\n  bytes4(keccak256('supportsInterface(bytes4)'));\n  */\n\n  bytes4 constant InterfaceSignature_ERC721Enumerable = 0x780e9d63;\n  /*\n  bytes4(keccak256('totalSupply()')) ^\n  bytes4(keccak256('tokenOfOwnerByIndex(address,uint256)')) ^\n  bytes4(keccak256('tokenByIndex(uint256)'));\n  */\n\n  bytes4 constant InterfaceSignature_ERC721Metadata = 0x5b5e139f;\n  /*\n  bytes4(keccak256('name()')) ^\n  bytes4(keccak256('symbol()')) ^\n  bytes4(keccak256('tokenURI(uint256)'));\n  */\n\n  bytes4 constant InterfaceSignature_ERC721 = 0x80ac58cd;\n  /*\n  bytes4(keccak256('balanceOf(address)')) ^\n  bytes4(keccak256('ownerOf(uint256)')) ^\n  bytes4(keccak256('approve(address,uint256)')) ^\n  bytes4(keccak256('getApproved(uint256)')) ^\n  bytes4(keccak256('setApprovalForAll(address,bool)')) ^\n  bytes4(keccak256('isApprovedForAll(address,address)')) ^\n  bytes4(keccak256('transferFrom(address,address,uint256)')) ^\n  bytes4(keccak256('safeTransferFrom(address,address,uint256)')) ^\n  bytes4(keccak256('safeTransferFrom(address,address,uint256,bytes)'));\n  */\n\n  bytes4 public constant InterfaceSignature_ERC721Optional = - 0x4f558e79;\n  /*\n  bytes4(keccak256('exists(uint256)'));\n  */\n\n  /**\n   * @notice Introspection interface as per ERC-165 (https://github.com/ethereum/EIPs/issues/165).\n   * @dev Returns true for any standardized interfaces implemented by this contract.\n   * @param _interfaceID bytes4 the interface to check for\n   * @return true for any standardized interfaces implemented by this contract.\n   */\n  function supportsInterface(bytes4 _interfaceID) external pure returns (bool) {\n    return ((_interfaceID == InterfaceSignature_ERC165)\n    || (_interfaceID == InterfaceSignature_ERC721)\n    || (_interfaceID == InterfaceSignature_ERC721Optional)\n    || (_interfaceID == InterfaceSignature_ERC721Enumerable)\n    || (_interfaceID == InterfaceSignature_ERC721Metadata));\n  }\n\n  string internal tokenBaseURI = \"https://ipfs.infura.io/ipfs/\";\n\n  // total wei sent to the  contract\n  uint256 public totalContributionsInWei;\n\n  // A pointer to the next token to be minted, zero indexed\n  uint256 public tokenIdPointer = 0;\n\n  // TODO handle setting these per contract/installation\n  // the price to display per block\n  uint256 public pricePerBlock = 0.01 ether;\n\n  // TODO handle setting these per contract/installation\n  // percentage of all funds received which is directed to a donation address\n  uint8 public donationPercentage = 1;\n\n  // TODO handle setting these per contract/installation\n  // max number of blocks allowed to purchased in one go (mainly for gas costs, this should be kept fairly low for now)\n  uint256 public maxBlockPurchaseInOneGo = 10;\n\n  // Token ID to block hash\n  mapping (uint256 => bytes32) internal tokenIdToBlockhash;\n\n  //Token ID to nickname\n  mapping (uint256 => string) internal tokenIdToNickname;\n\n  uint256 workingBlockCounter = 0;\n\n  mapping (uint256 => uint256) internal blockToTokenIdToDisplay;\n\n  modifier onlyDARTOwnedToken(uint256 _tokenId) {\n    require(tokenOwner[_tokenId] == owner);\n    _;\n  }\n\n  modifier onlyValidAmounts() {\n    // Some value\n    require(msg.value >= 0);\n\n    // Min price\n    require(msg.value >= pricePerBlock);\n\n    // max price\n    require(msg.value <= (pricePerBlock * maxBlockPurchaseInOneGo));\n    _;\n  }\n\n  function DART() public ERC721Token(\"Digital Art\", \"DART\") {\n    // set to current block mined in\n    workingBlockCounter = block.number;\n\n    // TODO handle setting these/configuring\n    super.addAddressToWhitelist(msg.sender);\n    super.addAddressToWhitelist(0xf43aE50C468c3D3Fa0C3dC3454E797317EF53078);\n    super.addAddressToWhitelist(0xe1023C112A39c58238929153F25364c11A33B729);\n  }\n\n  // don't accept payment directly to contract\n  function() public payable {\n    // TODO handle payments, redirect to donations address?\n    revert();\n  }\n\n  /**\n   * @dev Funds your token to be displayed for a specific amount of time\n   * @param _tokenId the DART token ID\n   */\n  function fundDart(uint256 _tokenId) public payable onlyValidAmounts {\n    require(exists(_tokenId));\n\n    // determine how many blocks purchased\n    uint256 blocksPurchased = msg.value / pricePerBlock;\n\n    uint256 currentBlock = block.number;\n\n    // move current block on if already past last purchased block count, reduces while loop costs\n    if (block.number > workingBlockCounter) {\n      currentBlock = workingBlockCounter;\n    }\n\n    uint256 nextBlock = currentBlock + 1;\n\n    uint8 i = 0;\n    while (i < blocksPurchased) {\n\n      // if no one has the next block, set next block to this token\n      if (blockToTokenIdToDisplay[nextBlock] == 0) {\n        blockToTokenIdToDisplay[nextBlock] = _tokenId;\n        i++;\n      }\n\n      // move next block on to find another free space\n      nextBlock++;\n    }\n\n    // update where the current work block is (TODO is this needed)\n    workingBlockCounter = nextBlock;\n\n    // TODO splice monies to various parties\n  }\n\n  /**\n   * @dev Mint a new DART token\n   * @dev Reverts if not called by curator\n   * @param _blockHash an ethereum block hash\n   * @param _nickname char stamp of token owner\n   */\n  function mint(bytes32 _blockHash, string _nickname) external onlyWhitelisted {\n    uint256 _tokenId = tokenIdPointer;\n\n    // actually mint the token\n    super._mint(msg.sender, _tokenId);\n\n    // FIXME - handle this\n    super._setTokenURI(_tokenId, \"WIP\");\n\n    // set data\n    tokenIdToBlockhash[_tokenId] = _blockHash;\n    tokenIdToNickname[_tokenId] = _nickname;\n\n    // bump pointer on\n    tokenIdPointer = tokenIdPointer.add(1);\n  }\n\n  /**\n   * @dev Burns a DART token\n   * @dev Reverts if token is not unsold or not owned by management\n   * @param _tokenId the DART token ID\n   */\n  function burn(uint256 _tokenId) external onlyWhitelisted onlyDARTOwnedToken(_tokenId) {\n    require(exists(_tokenId));\n    super._burn(ownerOf(_tokenId), _tokenId);\n  }\n\n  /**\n   * @dev Utility function for updating a DART assets token URI\n   * @dev Reverts if not called by management\n   * @param _tokenId the DART token ID\n   * @param _uri the token URI, will be concatenated with baseUri\n   */\n  function setTokenURI(uint256 _tokenId, string _uri) external onlyWhitelisted {\n    require(exists(_tokenId));\n    _setTokenURI(_tokenId, _uri);\n  }\n\n  /**\n   * @dev Return owned tokens\n   * @param _owner address to query\n   */\n  function tokensOf(address _owner) public view returns (uint256[] _tokenIds) {\n    return ownedTokens[_owner];\n  }\n\n  /**\n  * @dev Return handle of token\n  * @param _tokenId token ID for handle lookup\n  */\n  function nicknameOf(uint256 _tokenId) public view returns (string _nickname) {\n    return tokenIdToNickname[_tokenId];\n  }\n\n  /**\n  * @dev Return blockhash of the DART token\n   * @param _tokenId the DART token ID\n  */\n  function blockhashOf(uint256 _tokenId) public view returns (bytes32 hash) {\n    return tokenIdToBlockhash[_tokenId];\n  }\n\n  /**\n   * @dev Get token URI fro the given token, useful for testing purposes\n   * @param _tokenId the DART token ID\n   * @return the token ID or only the base URI if not found\n   */\n  function tokenURI(uint256 _tokenId) public view returns (string) {\n    return Strings.strConcat(tokenBaseURI, tokenURIs[_tokenId]);\n  }\n\n  /**\n   * @dev Allows management to update the base tokenURI path\n   * @dev Reverts if not called by management\n   * @param _newBaseURI the new base URI to set\n   */\n  function setTokenBaseURI(string _newBaseURI) external onlyWhitelisted {\n    tokenBaseURI = _newBaseURI;\n  }\n\n  /**\n   * @dev Generates a unique token hash for the token and handle\n   * @param _tokenId the DART token ID\n   */\n  function tokenHash(uint256 _tokenId) public view returns (bytes32) {\n    require(exists(_tokenId));\n    return tokenIdToBlockhash[_tokenId];\n  }\n\n  /**\n   * @dev Generates a unique token hash for the token and handle\n   */\n  function nextHash() public view returns (bytes32 _tokenHash) {\n\n    // if current block number has been allocated then use it\n    if (blockToTokenIdToDisplay[block.number - 1] != 0) {\n      return tokenIdToBlockhash[blockToTokenIdToDisplay[block.number - 1]];\n    }\n\n    // if no one own the current blockhash return current\n    return block.blockhash(block.number - 1);\n  }\n\n  /**\n   * @dev Returns blocknumber\n   */\n  function blockNumber() public view returns (uint256 _blockNumber) {\n    return block.number;\n  }\n}\n",
  "sourcePath": "/Users/andy/workspace/art-blocks/contracts/DART.sol",
  "compiler": {
    "name": "solc",
    "version": "0.4.21+commit.dfe3193c.Emscripten.clang"
  },
  "schemaVersion": "2.0.0",
  "updatedAt": "2018-04-27T11:54:19.269Z"
}