{
  "contractName": "DART",
  "abi": [
    {
      "constant": true,
      "inputs": [],
      "name": "name",
      "outputs": [
        {
          "name": "",
          "type": "string"
        }
      ],
      "payable": false,
      "stateMutability": "view",
      "type": "function"
    },
    {
      "constant": true,
      "inputs": [
        {
          "name": "_tokenId",
          "type": "uint256"
        }
      ],
      "name": "getApproved",
      "outputs": [
        {
          "name": "",
          "type": "address"
        }
      ],
      "payable": false,
      "stateMutability": "view",
      "type": "function"
    },
    {
      "constant": false,
      "inputs": [
        {
          "name": "_to",
          "type": "address"
        },
        {
          "name": "_tokenId",
          "type": "uint256"
        }
      ],
      "name": "approve",
      "outputs": [],
      "payable": false,
      "stateMutability": "nonpayable",
      "type": "function"
    },
    {
      "constant": true,
      "inputs": [],
      "name": "totalSupply",
      "outputs": [
        {
          "name": "",
          "type": "uint256"
        }
      ],
      "payable": false,
      "stateMutability": "view",
      "type": "function"
    },
    {
      "constant": false,
      "inputs": [
        {
          "name": "_from",
          "type": "address"
        },
        {
          "name": "_to",
          "type": "address"
        },
        {
          "name": "_tokenId",
          "type": "uint256"
        }
      ],
      "name": "transferFrom",
      "outputs": [],
      "payable": false,
      "stateMutability": "nonpayable",
      "type": "function"
    },
    {
      "constant": false,
      "inputs": [
        {
          "name": "addrs",
          "type": "address[]"
        }
      ],
      "name": "removeAddressesFromWhitelist",
      "outputs": [
        {
          "name": "success",
          "type": "bool"
        }
      ],
      "payable": false,
      "stateMutability": "nonpayable",
      "type": "function"
    },
    {
      "constant": false,
      "inputs": [
        {
          "name": "addr",
          "type": "address"
        }
      ],
      "name": "removeAddressFromWhitelist",
      "outputs": [
        {
          "name": "success",
          "type": "bool"
        }
      ],
      "payable": false,
      "stateMutability": "nonpayable",
      "type": "function"
    },
    {
      "constant": true,
      "inputs": [
        {
          "name": "_owner",
          "type": "address"
        },
        {
          "name": "_index",
          "type": "uint256"
        }
      ],
      "name": "tokenOfOwnerByIndex",
      "outputs": [
        {
          "name": "",
          "type": "uint256"
        }
      ],
      "payable": false,
      "stateMutability": "view",
      "type": "function"
    },
    {
      "constant": false,
      "inputs": [
        {
          "name": "_from",
          "type": "address"
        },
        {
          "name": "_to",
          "type": "address"
        },
        {
          "name": "_tokenId",
          "type": "uint256"
        }
      ],
      "name": "safeTransferFrom",
      "outputs": [],
      "payable": false,
      "stateMutability": "nonpayable",
      "type": "function"
    },
    {
      "constant": true,
      "inputs": [
        {
          "name": "_tokenId",
          "type": "uint256"
        }
      ],
      "name": "exists",
      "outputs": [
        {
          "name": "",
          "type": "bool"
        }
      ],
      "payable": false,
      "stateMutability": "view",
      "type": "function"
    },
    {
      "constant": true,
      "inputs": [
        {
          "name": "_index",
          "type": "uint256"
        }
      ],
      "name": "tokenByIndex",
      "outputs": [
        {
          "name": "",
          "type": "uint256"
        }
      ],
      "payable": false,
      "stateMutability": "view",
      "type": "function"
    },
    {
      "constant": true,
      "inputs": [],
      "name": "totalContributionsInWei",
      "outputs": [
        {
          "name": "",
          "type": "uint256"
        }
      ],
      "payable": false,
      "stateMutability": "view",
      "type": "function"
    },
    {
      "constant": true,
      "inputs": [],
      "name": "InterfaceSignature_ERC721Optional",
      "outputs": [
        {
          "name": "",
          "type": "bytes4"
        }
      ],
      "payable": false,
      "stateMutability": "view",
      "type": "function"
    },
    {
      "constant": true,
      "inputs": [
        {
          "name": "_tokenId",
          "type": "uint256"
        }
      ],
      "name": "ownerOf",
      "outputs": [
        {
          "name": "",
          "type": "address"
        }
      ],
      "payable": false,
      "stateMutability": "view",
      "type": "function"
    },
    {
      "constant": true,
      "inputs": [
        {
          "name": "_owner",
          "type": "address"
        }
      ],
      "name": "balanceOf",
      "outputs": [
        {
          "name": "",
          "type": "uint256"
        }
      ],
      "payable": false,
      "stateMutability": "view",
      "type": "function"
    },
    {
      "constant": false,
      "inputs": [
        {
          "name": "addr",
          "type": "address"
        }
      ],
      "name": "addAddressToWhitelist",
      "outputs": [
        {
          "name": "success",
          "type": "bool"
        }
      ],
      "payable": false,
      "stateMutability": "nonpayable",
      "type": "function"
    },
    {
      "constant": true,
      "inputs": [],
      "name": "owner",
      "outputs": [
        {
          "name": "",
          "type": "address"
        }
      ],
      "payable": false,
      "stateMutability": "view",
      "type": "function"
    },
    {
      "constant": true,
      "inputs": [],
      "name": "symbol",
      "outputs": [
        {
          "name": "",
          "type": "string"
        }
      ],
      "payable": false,
      "stateMutability": "view",
      "type": "function"
    },
    {
      "constant": true,
      "inputs": [
        {
          "name": "",
          "type": "address"
        }
      ],
      "name": "whitelist",
      "outputs": [
        {
          "name": "",
          "type": "bool"
        }
      ],
      "payable": false,
      "stateMutability": "view",
      "type": "function"
    },
    {
      "constant": false,
      "inputs": [
        {
          "name": "_to",
          "type": "address"
        },
        {
          "name": "_approved",
          "type": "bool"
        }
      ],
      "name": "setApprovalForAll",
      "outputs": [],
      "payable": false,
      "stateMutability": "nonpayable",
      "type": "function"
    },
    {
      "constant": true,
      "inputs": [],
      "name": "pricePerBlock",
      "outputs": [
        {
          "name": "",
          "type": "uint256"
        }
      ],
      "payable": false,
      "stateMutability": "view",
      "type": "function"
    },
    {
      "constant": true,
      "inputs": [],
      "name": "lastPurchasedBlock",
      "outputs": [
        {
          "name": "",
          "type": "uint256"
        }
      ],
      "payable": false,
      "stateMutability": "view",
      "type": "function"
    },
    {
      "constant": false,
      "inputs": [
        {
          "name": "_from",
          "type": "address"
        },
        {
          "name": "_to",
          "type": "address"
        },
        {
          "name": "_tokenId",
          "type": "uint256"
        },
        {
          "name": "_data",
          "type": "bytes"
        }
      ],
      "name": "safeTransferFrom",
      "outputs": [],
      "payable": false,
      "stateMutability": "nonpayable",
      "type": "function"
    },
    {
      "constant": true,
      "inputs": [],
      "name": "maxBlockPurchaseInOneGo",
      "outputs": [
        {
          "name": "",
          "type": "uint256"
        }
      ],
      "payable": false,
      "stateMutability": "view",
      "type": "function"
    },
    {
      "constant": true,
      "inputs": [],
      "name": "donationPercentage",
      "outputs": [
        {
          "name": "",
          "type": "uint8"
        }
      ],
      "payable": false,
      "stateMutability": "view",
      "type": "function"
    },
    {
      "constant": false,
      "inputs": [
        {
          "name": "addrs",
          "type": "address[]"
        }
      ],
      "name": "addAddressesToWhitelist",
      "outputs": [
        {
          "name": "success",
          "type": "bool"
        }
      ],
      "payable": false,
      "stateMutability": "nonpayable",
      "type": "function"
    },
    {
      "constant": true,
      "inputs": [
        {
          "name": "_owner",
          "type": "address"
        },
        {
          "name": "_operator",
          "type": "address"
        }
      ],
      "name": "isApprovedForAll",
      "outputs": [
        {
          "name": "",
          "type": "bool"
        }
      ],
      "payable": false,
      "stateMutability": "view",
      "type": "function"
    },
    {
      "constant": false,
      "inputs": [
        {
          "name": "newOwner",
          "type": "address"
        }
      ],
      "name": "transferOwnership",
      "outputs": [],
      "payable": false,
      "stateMutability": "nonpayable",
      "type": "function"
    },
    {
      "inputs": [],
      "payable": false,
      "stateMutability": "nonpayable",
      "type": "constructor"
    },
    {
      "payable": true,
      "stateMutability": "payable",
      "type": "fallback"
    },
    {
      "anonymous": false,
      "inputs": [
        {
          "indexed": true,
          "name": "_owner",
          "type": "address"
        },
        {
          "indexed": true,
          "name": "_tokenId",
          "type": "uint256"
        },
        {
          "indexed": false,
          "name": "_blockhash",
          "type": "bytes32"
        },
        {
          "indexed": false,
          "name": "_nickname",
          "type": "string"
        }
      ],
      "name": "MintDART",
      "type": "event"
    },
    {
      "anonymous": false,
      "inputs": [
        {
          "indexed": true,
          "name": "_funder",
          "type": "address"
        },
        {
          "indexed": true,
          "name": "_tokenId",
          "type": "uint256"
        },
        {
          "indexed": false,
          "name": "_blockhash",
          "type": "bytes32"
        },
        {
          "indexed": false,
          "name": "_block",
          "type": "uint256"
        }
      ],
      "name": "FundDART",
      "type": "event"
    },
    {
      "anonymous": false,
      "inputs": [
        {
          "indexed": true,
          "name": "_funder",
          "type": "address"
        },
        {
          "indexed": true,
          "name": "_tokenId",
          "type": "uint256"
        },
        {
          "indexed": false,
          "name": "_blocksPurchased",
          "type": "uint256"
        }
      ],
      "name": "BlocksPurchasedDART",
      "type": "event"
    },
    {
      "anonymous": false,
      "inputs": [
        {
          "indexed": false,
          "name": "name",
          "type": "string"
        },
        {
          "indexed": false,
          "name": "now",
          "type": "uint256"
        }
      ],
      "name": "Test",
      "type": "event"
    },
    {
      "anonymous": false,
      "inputs": [
        {
          "indexed": false,
          "name": "addr",
          "type": "address"
        }
      ],
      "name": "WhitelistedAddressAdded",
      "type": "event"
    },
    {
      "anonymous": false,
      "inputs": [
        {
          "indexed": false,
          "name": "addr",
          "type": "address"
        }
      ],
      "name": "WhitelistedAddressRemoved",
      "type": "event"
    },
    {
      "anonymous": false,
      "inputs": [
        {
          "indexed": true,
          "name": "previousOwner",
          "type": "address"
        },
        {
          "indexed": true,
          "name": "newOwner",
          "type": "address"
        }
      ],
      "name": "OwnershipTransferred",
      "type": "event"
    },
    {
      "anonymous": false,
      "inputs": [
        {
          "indexed": true,
          "name": "_from",
          "type": "address"
        },
        {
          "indexed": true,
          "name": "_to",
          "type": "address"
        },
        {
          "indexed": false,
          "name": "_tokenId",
          "type": "uint256"
        }
      ],
      "name": "Transfer",
      "type": "event"
    },
    {
      "anonymous": false,
      "inputs": [
        {
          "indexed": true,
          "name": "_owner",
          "type": "address"
        },
        {
          "indexed": true,
          "name": "_approved",
          "type": "address"
        },
        {
          "indexed": false,
          "name": "_tokenId",
          "type": "uint256"
        }
      ],
      "name": "Approval",
      "type": "event"
    },
    {
      "anonymous": false,
      "inputs": [
        {
          "indexed": true,
          "name": "_owner",
          "type": "address"
        },
        {
          "indexed": true,
          "name": "_operator",
          "type": "address"
        },
        {
          "indexed": false,
          "name": "_approved",
          "type": "bool"
        }
      ],
      "name": "ApprovalForAll",
      "type": "event"
    },
    {
      "constant": true,
      "inputs": [
        {
          "name": "_interfaceID",
          "type": "bytes4"
        }
      ],
      "name": "supportsInterface",
      "outputs": [
        {
          "name": "",
          "type": "bool"
        }
      ],
      "payable": false,
      "stateMutability": "pure",
      "type": "function"
    },
    {
      "constant": false,
      "inputs": [
        {
          "name": "_tokenId",
          "type": "uint256"
        }
      ],
      "name": "fundDart",
      "outputs": [],
      "payable": true,
      "stateMutability": "payable",
      "type": "function"
    },
    {
      "constant": false,
      "inputs": [
        {
          "name": "_blockhash",
          "type": "bytes32"
        },
        {
          "name": "_tokenId",
          "type": "uint256"
        },
        {
          "name": "_nickname",
          "type": "string"
        }
      ],
      "name": "mint",
      "outputs": [],
      "payable": false,
      "stateMutability": "nonpayable",
      "type": "function"
    },
    {
      "constant": true,
      "inputs": [],
      "name": "getNextBlockToFund",
      "outputs": [
        {
          "name": "_nextFundedBlock",
          "type": "uint256"
        }
      ],
      "payable": false,
      "stateMutability": "view",
      "type": "function"
    },
    {
      "constant": false,
      "inputs": [
        {
          "name": "_tokenId",
          "type": "uint256"
        }
      ],
      "name": "burn",
      "outputs": [],
      "payable": false,
      "stateMutability": "nonpayable",
      "type": "function"
    },
    {
      "constant": false,
      "inputs": [
        {
          "name": "_tokenId",
          "type": "uint256"
        },
        {
          "name": "_uri",
          "type": "string"
        }
      ],
      "name": "setTokenURI",
      "outputs": [],
      "payable": false,
      "stateMutability": "nonpayable",
      "type": "function"
    },
    {
      "constant": true,
      "inputs": [
        {
          "name": "_owner",
          "type": "address"
        }
      ],
      "name": "tokensOf",
      "outputs": [
        {
          "name": "_tokenIds",
          "type": "uint256[]"
        }
      ],
      "payable": false,
      "stateMutability": "view",
      "type": "function"
    },
    {
      "constant": true,
      "inputs": [
        {
          "name": "_tokenId",
          "type": "uint256"
        }
      ],
      "name": "nicknameOf",
      "outputs": [
        {
          "name": "_nickname",
          "type": "string"
        }
      ],
      "payable": false,
      "stateMutability": "view",
      "type": "function"
    },
    {
      "constant": true,
      "inputs": [
        {
          "name": "_tokenId",
          "type": "uint256"
        }
      ],
      "name": "blockhashOf",
      "outputs": [
        {
          "name": "hash",
          "type": "bytes32"
        }
      ],
      "payable": false,
      "stateMutability": "view",
      "type": "function"
    },
    {
      "constant": true,
      "inputs": [
        {
          "name": "_blockNumber",
          "type": "uint256"
        }
      ],
      "name": "blockOwnerOf",
      "outputs": [
        {
          "name": "_tokenId",
          "type": "uint256"
        }
      ],
      "payable": false,
      "stateMutability": "view",
      "type": "function"
    },
    {
      "constant": true,
      "inputs": [
        {
          "name": "_blockNumber",
          "type": "uint256"
        }
      ],
      "name": "isBlockPurchased",
      "outputs": [
        {
          "name": "",
          "type": "bool"
        }
      ],
      "payable": false,
      "stateMutability": "view",
      "type": "function"
    },
    {
      "constant": true,
      "inputs": [
        {
          "name": "_tokenId",
          "type": "uint256"
        }
      ],
      "name": "blocksPurchasedByToken",
      "outputs": [
        {
          "name": "_blocks",
          "type": "uint256[]"
        }
      ],
      "payable": false,
      "stateMutability": "view",
      "type": "function"
    },
    {
      "constant": true,
      "inputs": [
        {
          "name": "_tokenId",
          "type": "uint256"
        }
      ],
      "name": "tokenURI",
      "outputs": [
        {
          "name": "",
          "type": "string"
        }
      ],
      "payable": false,
      "stateMutability": "view",
      "type": "function"
    },
    {
      "constant": false,
      "inputs": [
        {
          "name": "_newBaseURI",
          "type": "string"
        }
      ],
      "name": "setTokenBaseURI",
      "outputs": [],
      "payable": false,
      "stateMutability": "nonpayable",
      "type": "function"
    },
    {
      "constant": true,
      "inputs": [
        {
          "name": "_blockNumber",
          "type": "uint256"
        }
      ],
      "name": "generateHash",
      "outputs": [
        {
          "name": "_tokenHash",
          "type": "bytes32"
        }
      ],
      "payable": false,
      "stateMutability": "view",
      "type": "function"
    },
    {
      "constant": true,
      "inputs": [],
      "name": "nextHash",
      "outputs": [
        {
          "name": "_tokenHash",
          "type": "bytes32"
        }
      ],
      "payable": false,
      "stateMutability": "view",
      "type": "function"
    },
    {
      "constant": true,
      "inputs": [
        {
          "name": "_blockNumber",
          "type": "uint256"
        }
      ],
      "name": "defaultBlockhash",
      "outputs": [
        {
          "name": "_tokenHash",
          "type": "bytes32"
        }
      ],
      "payable": false,
      "stateMutability": "view",
      "type": "function"
    },
    {
      "constant": true,
      "inputs": [],
      "name": "blockNumber",
      "outputs": [
        {
          "name": "_blockNumber",
          "type": "uint256"
        }
      ],
      "payable": false,
      "stateMutability": "view",
      "type": "function"
    }
  ],
  "bytecode": "0x606060405260408051908101604052601c81527f68747470733a2f2f697066732e696e667572612e696f2f697066732f000000006020820152600d9080516200004d9291602001906200025e565b50662386f26fc10000600f556010805460ff191660011790556014601155600060155534156200007c57600080fd5b604080519081016040908152600b82527f4469676974616c204172740000000000000000000000000000000000000000006020830152805190810160405260048082527f44415254000000000000000000000000000000000000000000000000000000006020830152828051620000f89291602001906200025e565b5060058180516200010e9291602001906200025e565b5050600b8054600160a060020a03191633600160a060020a03811691909117909155436015556200014e9150640100000000620001b18102620013071704565b506200017c73f43ae50c468c3d3fa0c3dc3454e797317ef5307864010000000062001307620001b182021704565b50620001aa73e1023c112a39c58238929153f25364c11a33b72964010000000062001307620001b182021704565b5062000303565b600b5460009033600160a060020a03908116911614620001d057600080fd5b600160a060020a0382166000908152600c602052604090205460ff1615156200025957600160a060020a0382166000908152600c602052604090819020805460ff191660011790557fd1bba68c128cc3f427e5831b3c6f99f480b6efa6b9e80c757768f6124158cc3f90839051600160a060020a03909116815260200160405180910390a15060015b919050565b828054600181600116156101000203166002900490600052602060002090601f016020900481019282601f10620002a157805160ff1916838001178555620002d1565b82800160010185558215620002d1579182015b82811115620002d1578251825591602001919060010190620002b4565b50620002df929150620002e3565b5090565b6200030091905b80821115620002df5760008155600101620002ea565b90565b61256c80620003136000396000f30060606040526004361061022f5763ffffffff7c010000000000000000000000000000000000000000000000000000000060003504166301ffc9a7811461023b57806306fdde031461026f57806307518c8e146102f9578063081812fc14610321578063095ea7b31461035357806310bfaa7c14610375578063162094c41461038b57806318160ddd146103ad57806323b872dd146103c057806324953eaa146103e857806325ad50d514610437578063286dd3f51461044d5780632f745c591461046c5780634064bc061461048e57806342842e0e146104a457806342966c68146104cc5780634f558e79146104e25780634f6ccce7146104f857806354f50f1b1461050e57806357e871e7146105245780635a3f2672146105375780635a7cb31b146105a95780635bc7b8f7146105bc578063624de3d9146105d25780636352211e146106025780636ed2e7781461061857806370a0823114610623578063727f0067146106425780637b9417c8146106555780638da5cb5b146106745780638ef79e911461068757806395d89b41146106a55780639b19251a146106b85780639fb6c796146106d7578063a22cb465146106fd578063aa32490514610721578063ab792cdb14610734578063b32bf01114610747578063b88d4fde1461075a578063bb8270fa146107c6578063c16cc810146107d9578063c87b56dd14610802578063cc106d0914610818578063e2ec6ec31461082e578063e985e9c51461087d578063f2fde38b146108a2575b61023960a16108c1565b005b341561024657600080fd5b61025b600160e060020a031960043516610a53565b604051901515815260200160405180910390f35b341561027a57600080fd5b610282610b5a565b60405160208082528190810183818151815260200191508051906020019080838360005b838110156102be5780820151838201526020016102a6565b50505050905090810190601f1680156102eb5780820380516001836020036101000a031916815260200191505b509250505060405180910390f35b341561030457600080fd5b61030f600435610c03565b60405190815260200160405180910390f35b341561032c57600080fd5b610337600435610c15565b604051600160a060020a03909116815260200160405180910390f35b341561035e57600080fd5b610239600160a060020a0360043516602435610c30565b341561038057600080fd5b61025b600435610d2c565b341561039657600080fd5b610239600480359060248035908101910135610d41565b34156103b857600080fd5b61030f610db5565b34156103cb57600080fd5b610239600160a060020a0360043581169060243516604435610dbb565b34156103f357600080fd5b61025b6004602481358181019083013580602081810201604051908101604052809392919081815260200183836020028082843750949650610e6695505050505050565b341561044257600080fd5b61030f600435610ec9565b341561045857600080fd5b61025b600160a060020a0360043516610edb565b341561047757600080fd5b61030f600160a060020a0360043516602435610f81565b341561049957600080fd5b61030f600435610fcf565b34156104af57600080fd5b610239600160a060020a0360043581169060243516604435611001565b34156104d757600080fd5b610239600435611037565b34156104ed57600080fd5b61025b6004356110b3565b341561050357600080fd5b61030f6004356110d0565b341561051957600080fd5b610282600435611106565b341561052f57600080fd5b61030f6111c1565b341561054257600080fd5b610556600160a060020a03600435166111c5565b60405160208082528190810183818151815260200191508051906020019060200280838360005b8381101561059557808201518382015260200161057d565b505050509050019250505060405180910390f35b34156105b457600080fd5b61030f611247565b34156105c757600080fd5b61030f60043561124d565b34156105dd57600080fd5b6105e5611251565b604051600160e060020a0319909116815260200160405180910390f35b341561060d57600080fd5b610337600435611275565b6102396004356108c1565b341561062e57600080fd5b61030f600160a060020a036004351661129f565b341561064d57600080fd5b61030f6112d2565b341561066057600080fd5b61025b600160a060020a0360043516611307565b341561067f57600080fd5b6103376113b1565b341561069257600080fd5b61023960048035602481019101356113c0565b34156106b057600080fd5b6102826113f3565b34156106c357600080fd5b61025b600160a060020a0360043516611466565b34156106e257600080fd5b6102396004803590602480359160443591820191013561147b565b341561070857600080fd5b610239600160a060020a036004351660243515156115b9565b341561072c57600080fd5b61030f61164a565b341561073f57600080fd5b61030f611667565b341561075257600080fd5b61030f61166d565b341561076557600080fd5b610239600160a060020a036004803582169160248035909116916044359160849060643590810190830135806020601f8201819004810201604051908101604052818152929190602084018383808284375094965061167395505050505050565b34156107d157600080fd5b61030f6116b2565b34156107e457600080fd5b6107ec6116b8565b60405160ff909116815260200160405180910390f35b341561080d57600080fd5b6102826004356116c1565b341561082357600080fd5b610556600435611818565b341561083957600080fd5b61025b600460248135818101908301358060208181020160405190810160405280939291908181526020018383602002808284375094965061188795505050505050565b341561088857600080fd5b61025b600160a060020a03600435811690602435166118e4565b34156108ad57600080fd5b610239600160a060020a0360043516611912565b600080808034819010156108d457600080fd5b600f543410156108e357600080fd5b601154600f54023411156108f657600080fd5b6108ff856110b3565b151561090a57600080fd5b600f543481151561091757fe5b0493504360010192506015548310156109305760155492505b5081905060005b838160ff161015610a095760008281526017602052604090205460ff1615156109fe576000828152601760209081526040808320805460ff1916600190811790915560168352818420899055888452601890925290912080549091810161099e83826123c1565b50600091825260209091200182905584600160a060020a0333167f04649188eae35f52d46ae0040474804e761d09610a0ab8338319f35200bcbbb46109e285610fcf565b8560405191825260208201526040908101905180910390a36001015b600190910190610937565b601582905584600160a060020a0333167f63b058983ba124fb07f181575aca82b9693554b4313354644491e215083042218660405190815260200160405180910390a35050505050565b6000600160e060020a031982167f01ffc9a7000000000000000000000000000000000000000000000000000000001480610ab65750600160e060020a031982167f80ac58cd00000000000000000000000000000000000000000000000000000000145b80610aea5750600160e060020a031982167fb0aa718700000000000000000000000000000000000000000000000000000000145b80610b1e5750600160e060020a031982167f780e9d6300000000000000000000000000000000000000000000000000000000145b80610b525750600160e060020a031982167f5b5e139f00000000000000000000000000000000000000000000000000000000145b90505b919050565b610b626123e5565b60048054600181600116156101000203166002900480601f016020809104026020016040519081016040528092919081815260200182805460018160011615610100020316600290048015610bf85780601f10610bcd57610100808354040283529160200191610bf8565b820191906000526020600020905b815481529060010190602001808311610bdb57829003601f168201915b505050505090505b90565b60009081526012602052604090205490565b600090815260016020526040902054600160a060020a031690565b6000610c3b82611275565b9050600160a060020a038381169082161415610c5657600080fd5b80600160a060020a031633600160a060020a03161480610c7b5750610c7b81336118e4565b1515610c8657600080fd5b6000610c9183610c15565b600160a060020a0316141580610caf5750600160a060020a03831615155b15610d275760008281526001602052604090819020805473ffffffffffffffffffffffffffffffffffffffff1916600160a060020a0386811691821790925591908316907f8c5be1e5ebec7d5bd14f71427d1e84f3dd0314c0f7b2291e5b200ac8c7c3b9259085905190815260200160405180910390a35b505050565b60009081526017602052604090205460ff1690565b600160a060020a0333166000908152600c602052604090205460ff161515610d6857600080fd5b610d71836110b3565b1515610d7c57600080fd5b610d278383838080601f0160208091040260200160405190810160405281815292919060208401838380828437506119ad945050505050565b60085490565b80610dc633826119e0565b1515610dd157600080fd5b600160a060020a0384161515610de657600080fd5b600160a060020a0383161515610dfb57600080fd5b610e058483611a3f565b610e0f8483611aee565b610e198383611c1c565b82600160a060020a031684600160a060020a03167fddf252ad1be2c89b69c2b068fc378daa952ba7f163c4a11628f55a4df523b3ef8460405190815260200160405180910390a350505050565b600b54600090819033600160a060020a03908116911614610e8657600080fd5b5060005b8251811015610ec357610eb1838281518110610ea257fe5b90602001906020020151610edb565b15610ebb57600191505b600101610e8a565b50919050565b60009081526016602052604090205490565b600b5460009033600160a060020a03908116911614610ef957600080fd5b600160a060020a0382166000908152600c602052604090205460ff1615610b5557600160a060020a0382166000908152600c602052604090819020805460ff191690557ff1abf01a1043b7c244d128e8595cf0c1d10743b022b03a02dffd8ca3bf729f5a90839051600160a060020a03909116815260200160405180910390a1506001919050565b6000610f8c8361129f565b8210610f9757600080fd5b600160a060020a0383166000908152600660205260409020805483908110610fbb57fe5b906000526020600020900154905092915050565b600080610fdb83610d2c565b1515610fe657600080fd5b610fef83610ec9565b9050610ffa81610c03565b9392505050565b8061100c33826119e0565b151561101757600080fd5b611031848484602060405190810160405260008152611673565b50505050565b600160a060020a0333166000908152600c602052604090205460ff16151561105e57600080fd5b600b546000828152602081905260409020548291600160a060020a0391821691161461108957600080fd5b611092826110b3565b151561109d57600080fd5b6110af6110a983611275565b83611c76565b5050565b600090815260208190526040902054600160a060020a0316151590565b60006110da610db5565b82106110e557600080fd5b60088054839081106110f357fe5b9060005260206000209001549050919050565b61110e6123e5565b601460008381526020019081526020016000208054600181600116156101000203166002900480601f0160208091040260200160405190810160405280929190818152602001828054600181600116156101000203166002900480156111b55780601f1061118a576101008083540402835291602001916111b5565b820191906000526020600020905b81548152906001019060200180831161119857829003601f168201915b50505050509050919050565b4390565b6111cd6123e5565b6006600083600160a060020a0316600160a060020a031681526020019081526020016000208054806020026020016040519081016040528092919081815260200182805480156111b557602002820191906000526020600020905b8154815260200190600101908083116112285750505050509050919050565b600e5481565b4090565b7fb0aa71870000000000000000000000000000000000000000000000000000000081565b600081815260208190526040812054600160a060020a031680151561129957600080fd5b92915050565b6000600160a060020a03821615156112b657600080fd5b50600160a060020a031660009081526002602052604090205490565b600060001943016112e281610ec9565b156112f7576112f081610fcf565b9150611303565b6113008161124d565b91505b5090565b600b5460009033600160a060020a0390811691161461132557600080fd5b600160a060020a0382166000908152600c602052604090205460ff161515610b5557600160a060020a0382166000908152600c602052604090819020805460ff191660011790557fd1bba68c128cc3f427e5831b3c6f99f480b6efa6b9e80c757768f6124158cc3f90839051600160a060020a03909116815260200160405180910390a1506001919050565b600b54600160a060020a031681565b600160a060020a0333166000908152600c602052604090205460ff1615156113e757600080fd5b610d27600d83836123f7565b6113fb6123e5565b60058054600181600116156101000203166002900480601f016020809104026020016040519081016040528092919081815260200182805460018160011615610100020316600290048015610bf85780601f10610bcd57610100808354040283529160200191610bf8565b600c6020526000908152604090205460ff1681565b600160a060020a0333166000908152600c602052604090205460ff1615156114a257600080fd5b600084815260136020526040902054156114bb57600080fd5b600083815260126020526040902054156114d457600080fd5b6114de3384611d71565b61151b8360408051908101604052600381527f574950000000000000000000000000000000000000000000000000000000000060208201526119ad565b600083815260126020908152604080832087905586835260138252808320869055858352601490915290206115519083836123f7565b508233600160a060020a03167f4453ce3000f70afbe0bcadf15f2ba7165d528adb6dffa06dd8aa0b89c6516e1886858560405183815260406020820181815290820183905260608201848480828437820191505094505050505060405180910390a350505050565b33600160a060020a031682600160a060020a0316141515156115da57600080fd5b33600160a060020a0390811660008181526003602090815260408083209487168084529490915290819020805460ff19168515151790557f17307eab39ab6107e8899845ad3d59bd9653f200f220920489ca2b5937696c3190849051901515815260200160405180910390a35050565b600060155443101561165f5750601554610c00565b506001430190565b600f5481565b60155481565b8161167e33826119e0565b151561168957600080fd5b611694858585610dbb565b6116a085858585611dae565b15156116ab57600080fd5b5050505050565b60115481565b60105460ff1681565b6116c96123e5565b610b52600d8054600181600116156101000203166002900480601f0160208091040260200160405190810160405280929190818152602001828054600181600116156101000203166002900480156117625780601f1061173757610100808354040283529160200191611762565b820191906000526020600020905b81548152906001019060200180831161174557829003601f168201915b5050505050600a60008581526020019081526020016000208054600181600116156101000203166002900480601f01602080910402602001604051908101604052809291908181526020018280546001816001161561010002031660029004801561180e5780601f106117e35761010080835404028352916020019161180e565b820191906000526020600020905b8154815290600101906020018083116117f157829003601f168201915b5050505050611f08565b6118206123e5565b601860008381526020019081526020016000208054806020026020016040519081016040528092919081815260200182805480156111b557602002820191906000526020600020908154815260200190600101908083116112285750505050509050919050565b600b54600090819033600160a060020a039081169116146118a757600080fd5b5060005b8251811015610ec3576118d28382815181106118c357fe5b90602001906020020151611307565b156118dc57600191505b6001016118ab565b600160a060020a03918216600090815260036020908152604080832093909416825291909152205460ff1690565b600b5433600160a060020a0390811691161461192d57600080fd5b600160a060020a038116151561194257600080fd5b600b54600160a060020a0380831691167f8be0079c531659141344cd1fd0a4f28419497f9722a3daafe3b4186f6b6457e060405160405180910390a3600b805473ffffffffffffffffffffffffffffffffffffffff1916600160a060020a0392909216919091179055565b6119b6826110b3565b15156119c157600080fd5b6000828152600a60205260409020818051610d27929160200190612471565b6000806119ec83611275565b905080600160a060020a031684600160a060020a03161480611a27575083600160a060020a0316611a1c84610c15565b600160a060020a0316145b80611a375750611a3781856118e4565b949350505050565b81600160a060020a0316611a5282611275565b600160a060020a031614611a6557600080fd5b600081815260016020526040902054600160a060020a0316156110af57600081815260016020526040808220805473ffffffffffffffffffffffffffffffffffffffff19169055600160a060020a038416907f8c5be1e5ebec7d5bd14f71427d1e84f3dd0314c0f7b2291e5b200ac8c7c3b9259084905190815260200160405180910390a35050565b6000806000611afd8585611f4b565b600084815260076020908152604080832054600160a060020a0389168452600690925290912054909350611b3890600163ffffffff611fe016565b600160a060020a038616600090815260066020526040902080549193509083908110611b6057fe5b6000918252602080832090910154600160a060020a0388168352600690915260409091208054919250829185908110611b9557fe5b6000918252602080832090910192909255600160a060020a0387168152600690915260408120805484908110611bc757fe5b6000918252602080832090910192909255600160a060020a0387168152600690915260409020805490611bfe9060001983016123c1565b50600093845260076020526040808520859055908452909220555050565b6000611c288383611ff2565b50600160a060020a03821660009081526006602052604090208054908160018101611c5383826123c1565b506000918252602080832091909101849055928152600790925260409091205550565b6000806000611c858585612081565b6000848152600a60205260409020546002600019610100600184161502019091160415611cc3576000848152600a60205260408120611cc3916124df565b600084815260096020526040902054600854909350611ce990600163ffffffff611fe016565b9150600882815481101515611cfa57fe5b906000526020600020900154905080600884815481101515611d1857fe5b60009182526020822001919091556008805484908110611d3457fe5b6000918252602090912001556008805490611d539060001983016123c1565b50600093845260096020526040808520859055908452909220555050565b611d7b82826120d8565b60088054600083815260096020526040902081905560018101611d9e83826123c1565b5060009182526020909120015550565b600080611dc385600160a060020a031661213a565b1515611dd25760019150611eff565b84600160a060020a031663f0b9e5ba8786866040518463ffffffff167c01000000000000000000000000000000000000000000000000000000000281526004018084600160a060020a0316600160a060020a0316815260200183815260200180602001828103825283818151815260200191508051906020019080838360005b83811015611e6a578082015183820152602001611e52565b50505050905090810190601f168015611e975780820380516001836020036101000a031916815260200191505b50945050505050602060405180830381600087803b1515611eb757600080fd5b5af11515611ec457600080fd5b5050506040518051600160e060020a031981167ff0b9e5ba000000000000000000000000000000000000000000000000000000001493509150505b50949350505050565b611f106123e5565b610ffa838360206040519081016040528060008152506020604051908101604052806000815250602060405190810160405260008152612142565b81600160a060020a0316611f5e82611275565b600160a060020a031614611f7157600080fd5b600160a060020a038216600090815260026020526040902054611f9b90600163ffffffff611fe016565b600160a060020a039092166000908152600260209081526040808320949094559181529081905220805473ffffffffffffffffffffffffffffffffffffffff19169055565b600082821115611fec57fe5b50900390565b600081815260208190526040902054600160a060020a03161561201457600080fd5b600081815260208181526040808320805473ffffffffffffffffffffffffffffffffffffffff1916600160a060020a038716908117909155835260029091529020546120619060016123b2565b600160a060020a0390921660009081526002602052604090209190915550565b61208b8282611a3f565b6120958282611aee565b6000600160a060020a0383167fddf252ad1be2c89b69c2b068fc378daa952ba7f163c4a11628f55a4df523b3ef8360405190815260200160405180910390a35050565b600160a060020a03821615156120ed57600080fd5b6120f78282611c1c565b600160a060020a03821660007fddf252ad1be2c89b69c2b068fc378daa952ba7f163c4a11628f55a4df523b3ef8360405190815260200160405180910390a35050565b6000903b1190565b61214a6123e5565b6121526123e5565b61215a6123e5565b6121626123e5565b61216a6123e5565b6121726123e5565b61217a6123e5565b6121826123e5565b6000808e98508d97508c96508b95508a94508451865188518a518c51010101016040518059106121af5750595b818152601f19601f83011681016020016040529050935083925060009150600090505b885181101561222b578881815181106121e757fe5b016020015160f860020a900460f860020a0283838060010194508151811061220b57fe5b906020010190600160f860020a031916908160001a9053506001016121d2565b5060005b87518110156122885787818151811061224457fe5b016020015160f860020a900460f860020a0283838060010194508151811061226857fe5b906020010190600160f860020a031916908160001a90535060010161222f565b5060005b86518110156122e5578681815181106122a157fe5b016020015160f860020a900460f860020a028383806001019450815181106122c557fe5b906020010190600160f860020a031916908160001a90535060010161228c565b5060005b8551811015612342578581815181106122fe57fe5b016020015160f860020a900460f860020a0283838060010194508151811061232257fe5b906020010190600160f860020a031916908160001a9053506001016122e9565b5060005b845181101561239f5784818151811061235b57fe5b016020015160f860020a900460f860020a0283838060010194508151811061237f57fe5b906020010190600160f860020a031916908160001a905350600101612346565b50909d9c50505050505050505050505050565b600082820183811015610ffa57fe5b815481835581811511610d2757600083815260209020610d27918101908301612526565b60206040519081016040526000815290565b828054600181600116156101000203166002900490600052602060002090601f016020900481019282601f106124385782800160ff19823516178555612465565b82800160010185558215612465579182015b8281111561246557823582559160200191906001019061244a565b50611303929150612526565b828054600181600116156101000203166002900490600052602060002090601f016020900481019282601f106124b257805160ff1916838001178555612465565b82800160010185558215612465579182015b828111156124655782518255916020019190600101906124c4565b50805460018160011615610100020316600290046000825580601f106125055750612523565b601f0160209004906000526020600020908101906125239190612526565b50565b610c0091905b80821115611303576000815560010161252c5600a165627a7a72305820bf90c2f8acae7971eb5d4a7e4a212c2da055bb85a8901fdd97c22b3dcda7c7ba0029",
  "source": "pragma solidity ^0.4.21;\n\n\nimport \"./ERC721Token.sol\";\n\nimport \"./Strings.sol\";\n\nimport \"./ERC165.sol\";\n\nimport \"./Whitelist.sol\";\n\n\n/**\n* @title DART\n*/\ncontract DART is ERC721Token, ERC165, Whitelist {\n  using SafeMath for uint256;\n\n  bytes4 constant InterfaceSignature_ERC165 = 0x01ffc9a7;\n  /*\n  bytes4(keccak256('supportsInterface(bytes4)'));\n  */\n\n  bytes4 constant InterfaceSignature_ERC721Enumerable = 0x780e9d63;\n  /*\n  bytes4(keccak256('totalSupply()')) ^\n  bytes4(keccak256('tokenOfOwnerByIndex(address,uint256)')) ^\n  bytes4(keccak256('tokenByIndex(uint256)'));\n  */\n\n  bytes4 constant InterfaceSignature_ERC721Metadata = 0x5b5e139f;\n  /*\n  bytes4(keccak256('name()')) ^\n  bytes4(keccak256('symbol()')) ^\n  bytes4(keccak256('tokenURI(uint256)'));\n  */\n\n  bytes4 constant InterfaceSignature_ERC721 = 0x80ac58cd;\n  /*\n  bytes4(keccak256('balanceOf(address)')) ^\n  bytes4(keccak256('ownerOf(uint256)')) ^\n  bytes4(keccak256('approve(address,uint256)')) ^\n  bytes4(keccak256('getApproved(uint256)')) ^\n  bytes4(keccak256('setApprovalForAll(address,bool)')) ^\n  bytes4(keccak256('isApprovedForAll(address,address)')) ^\n  bytes4(keccak256('transferFrom(address,address,uint256)')) ^\n  bytes4(keccak256('safeTransferFrom(address,address,uint256)')) ^\n  bytes4(keccak256('safeTransferFrom(address,address,uint256,bytes)'));\n  */\n\n  bytes4 public constant InterfaceSignature_ERC721Optional = - 0x4f558e79;\n  /*\n  bytes4(keccak256('exists(uint256)'));\n  */\n\n  /**\n   * @notice Introspection interface as per ERC-165 (https://github.com/ethereum/EIPs/issues/165).\n   * @dev Returns true for any standardized interfaces implemented by this contract.\n   * @param _interfaceID bytes4 the interface to check for\n   * @return true for any standardized interfaces implemented by this contract.\n   */\n  function supportsInterface(bytes4 _interfaceID) external pure returns (bool) {\n    return ((_interfaceID == InterfaceSignature_ERC165)\n    || (_interfaceID == InterfaceSignature_ERC721)\n    || (_interfaceID == InterfaceSignature_ERC721Optional)\n    || (_interfaceID == InterfaceSignature_ERC721Enumerable)\n    || (_interfaceID == InterfaceSignature_ERC721Metadata));\n  }\n\n  event MintDART(address indexed _owner, uint256 indexed _tokenId, bytes32 _blockhash, string _nickname);\n\n  event FundDART(address indexed _funder, uint256 indexed _tokenId, bytes32 _blockhash, uint256 _block);\n\n  event BlocksPurchasedDART(address indexed _funder, uint256 indexed _tokenId, uint256 _blocksPurchased);\n\n  event Test(string name, uint256 now);\n\n  string internal tokenBaseURI = \"https://ipfs.infura.io/ipfs/\";\n\n  // total wei sent to the  contract\n  uint256 public totalContributionsInWei;\n\n  // TODO handle setting these per contract/installation\n  // the price to display per block\n  uint256 public pricePerBlock = 0.01 ether;\n\n  // TODO handle setting these per contract/installation\n  // percentage of all funds received which is directed to a donation address\n  uint8 public donationPercentage = 1;\n\n  // TODO handle setting these per contract/installation\n  // max number of blocks allowed to purchased in one go (mainly for gas costs, this should be kept fairly low for now)\n  uint256 public maxBlockPurchaseInOneGo = 20;\n\n  mapping (uint256 => bytes32) internal tokenIdToBlockhash;\n\n  mapping (bytes32 => uint256) internal blockhashToTokenId;\n\n  mapping (uint256 => string) internal tokenIdToNickname;\n\n  uint256 public lastPurchasedBlock = 0;\n\n  mapping (uint256 => uint256) internal blockToTokenOwner;\n\n  mapping (uint256 => bool) internal blockPurchasedMapping;\n\n  // Mapping tokenID to the blocks that have purchased\n  mapping (uint256 => uint256[]) internal tokenToBlocksPurchased;\n\n  modifier onlyDARTOwnedToken(uint256 _tokenId) {\n    require(tokenOwner[_tokenId] == owner);\n    _;\n  }\n\n  modifier onlyValidAmounts() {\n    // Some value\n    require(msg.value >= 0);\n\n    // Min price\n    require(msg.value >= pricePerBlock);\n\n    // max price\n    require(msg.value <= (pricePerBlock * maxBlockPurchaseInOneGo));\n    _;\n  }\n\n  function DART() public ERC721Token(\"Digital Art\", \"DART\") {\n    // set to current block mined in\n    lastPurchasedBlock = block.number;\n\n    // TODO handle setting these/configuring\n    super.addAddressToWhitelist(msg.sender);\n    super.addAddressToWhitelist(0xf43aE50C468c3D3Fa0C3dC3454E797317EF53078);\n    super.addAddressToWhitelist(0xe1023C112A39c58238929153F25364c11A33B729);\n  }\n\n  // don't accept payment directly to contract\n  function() public payable {\n    // FIXME HARD CODE ALERT\n    fundDart(161);\n  }\n\n  /**\n   * @dev Funds your token to be displayed for a specific amount of time\n   * @param _tokenId the DART token ID\n   */\n  function fundDart(uint256 _tokenId) public payable onlyValidAmounts {\n    require(exists(_tokenId));\n\n    // determine how many blocks purchased\n    uint256 blocksToPurchased = msg.value / pricePerBlock;\n\n    // Start purchase from next block the current block is being mined\n    uint256 nextBlockToPurchase = block.number + 1;\n\n    // Move next purchase-able on block if the blockchain is in the past when compared to future purchased blocks\n    // This deal with people purchasing blocks in the future & reduces looping costs\n    if (nextBlockToPurchase < lastPurchasedBlock) {\n      nextBlockToPurchase = lastPurchasedBlock;\n    }\n\n    uint256 nextBlock = nextBlockToPurchase;\n\n    uint8 purchased = 0;\n    while (purchased < blocksToPurchased) {\n\n      // if the next block is not purchased\n      if (!blockPurchasedMapping[nextBlock]) {\n\n        // Set a boolean flag to identify this block is purchased\n        blockPurchasedMapping[nextBlock] = true;\n\n        // keep track of the token associated to the block\n        blockToTokenOwner[nextBlock] = _tokenId;\n\n        // Keep track of the blocks purchased by the token\n        tokenToBlocksPurchased[_tokenId].push(nextBlock);\n\n        // Emit event for logging/tracking\n        FundDART(msg.sender, _tokenId, generateHash(nextBlock), nextBlock);\n\n        // Mark one block as found\n        purchased++;\n      }\n\n      // move next block on to find another free space\n      nextBlock++;\n    }\n\n    // update last block once purchased\n    lastPurchasedBlock = nextBlock;\n\n    BlocksPurchasedDART(msg.sender, _tokenId, blocksToPurchased);\n\n    // TODO splice monies to various parties\n  }\n\n  /**\n   * @dev Mint a new DART token\n   * @dev Reverts if not called by curator\n   * @param _blockhash an Ethereum block hash\n   * @param _tokenId unique token ID\n   * @param _nickname char stamp of token owner\n   */\n  function mint(bytes32 _blockhash, uint256 _tokenId, string _nickname) external onlyWhitelisted {\n    require(blockhashToTokenId[_blockhash] == 0);\n    require(tokenIdToBlockhash[_tokenId] == 0);\n\n    // actually mint the token\n    super._mint(msg.sender, _tokenId);\n\n    // FIXME - handle this\n    super._setTokenURI(_tokenId, \"WIP\");\n\n    // set data\n    tokenIdToBlockhash[_tokenId] = _blockhash;\n    blockhashToTokenId[_blockhash] = _tokenId;\n    tokenIdToNickname[_tokenId] = _nickname;\n\n    MintDART(msg.sender, _tokenId, _blockhash, _nickname);\n  }\n\n  /**\n   * @dev Attempts to work out the next block which will be funded\n   */\n  function getNextBlockToFund() public view returns (uint256 _nextFundedBlock) {\n    if (block.number < lastPurchasedBlock) {\n      return lastPurchasedBlock;\n    }\n    return block.number + 1;\n  }\n\n  /**\n   * @dev Burns a DART token\n   * @dev Reverts if token is not unsold or not owned by management\n   * @param _tokenId the DART token ID\n   */\n  function burn(uint256 _tokenId) external onlyWhitelisted onlyDARTOwnedToken(_tokenId) {\n    require(exists(_tokenId));\n    super._burn(ownerOf(_tokenId), _tokenId);\n    // TODO clear metadata\n  }\n\n  /**\n   * @dev Utility function for updating a DART assets token URI\n   * @dev Reverts if not called by management\n   * @param _tokenId the DART token ID\n   * @param _uri the token URI, will be concatenated with baseUri\n   */\n  function setTokenURI(uint256 _tokenId, string _uri) external onlyWhitelisted {\n    require(exists(_tokenId));\n    _setTokenURI(_tokenId, _uri);\n  }\n\n  /**\n   * @dev Return owned tokens\n   * @param _owner address to query\n   */\n  function tokensOf(address _owner) public view returns (uint256[] _tokenIds) {\n    return ownedTokens[_owner];\n  }\n\n  /**\n   * @dev Return handle of token\n   * @param _tokenId token ID for handle lookup\n   */\n  function nicknameOf(uint256 _tokenId) public view returns (string _nickname) {\n    return tokenIdToNickname[_tokenId];\n  }\n\n  /**\n   * @dev Return blockhash of the DART token\n   * @param _tokenId the DART token ID\n   */\n  function blockhashOf(uint256 _tokenId) public view returns (bytes32 hash) {\n    return tokenIdToBlockhash[_tokenId];\n  }\n\n  /**\n   * @dev Return token ID for the provided block or 0 when not found\n   */\n  function blockOwnerOf(uint256 _blockNumber) public view returns (uint256 _tokenId) {\n    return blockToTokenOwner[_blockNumber];\n  }\n\n  /**\n   * @dev Returns whether the specified block has been purchased\n   */\n  function isBlockPurchased(uint256 _blockNumber) public view returns (bool) {\n    return blockPurchasedMapping[_blockNumber];\n  }\n\n  /**\n   * @dev Returns the blocks which the [provided token has purchased\n   */\n  function blocksPurchasedByToken(uint256 _tokenId) public view returns (uint256[] _blocks) {\n    return tokenToBlocksPurchased[_tokenId];\n  }\n\n  /**\n   * @dev Get token URI fro the given token, useful for testing purposes\n   * @param _tokenId the DART token ID\n   * @return the token ID or only the base URI if not found\n   */\n  function tokenURI(uint256 _tokenId) public view returns (string) {\n    return Strings.strConcat(tokenBaseURI, tokenURIs[_tokenId]);\n  }\n\n  /**\n   * @dev Allows management to update the base tokenURI path\n   * @dev Reverts if not called by management\n   * @param _newBaseURI the new base URI to set\n   */\n  function setTokenBaseURI(string _newBaseURI) external onlyWhitelisted {\n    tokenBaseURI = _newBaseURI;\n  }\n\n  /**\n   * @dev Get the hash the given block\n   * @param _blockNumber the block to generate hash for\n   * TODO rename this to get()\n   */\n  function generateHash(uint256 _blockNumber) public view returns (bytes32 _tokenHash) {\n    // Dont allow this to be called for hashes which aren't purchased\n    require(isBlockPurchased(_blockNumber));\n\n    uint256 token = blockOwnerOf(_blockNumber);\n    return blockhashOf(token);\n  }\n\n  /**\n   * @dev Generates a unique token hash for the token and handle\n   */\n  function nextHash() public view returns (bytes32 _tokenHash) {\n    uint256 nextBlock = block.number - 1;\n\n    // if current block number has been allocated then use it\n    if (blockOwnerOf(nextBlock) != 0) {\n      return generateHash(nextBlock);\n    }\n\n    // if no one own the current blockhash return current\n    return defaultBlockhash(nextBlock);\n  }\n\n  /**\n   * @dev Generates default block hash behaviour - good for testings\n   */\n  function defaultBlockhash(uint256 _blockNumber) public view returns (bytes32 _tokenHash) {\n    return block.blockhash(_blockNumber);\n  }\n\n  /**\n   * @dev Returns blocknumber - good for testings\n   */\n  function blockNumber() public view returns (uint256 _blockNumber) {\n    return block.number;\n  }\n}\n",
  "sourcePath": "/Users/andy/workspace/art-blocks/contracts/DART.sol",
  "compiler": {
    "name": "solc",
    "version": "0.4.21+commit.dfe3193c.Emscripten.clang"
  },
  "schemaVersion": "2.0.0",
  "updatedAt": "2018-05-01T13:40:16.080Z"
}