{
  "contractName": "DART",
  "abi": [
    {
      "constant": true,
      "inputs": [],
      "name": "name",
      "outputs": [
        {
          "name": "",
          "type": "string"
        }
      ],
      "payable": false,
      "stateMutability": "view",
      "type": "function"
    },
    {
      "constant": true,
      "inputs": [
        {
          "name": "_tokenId",
          "type": "uint256"
        }
      ],
      "name": "getApproved",
      "outputs": [
        {
          "name": "",
          "type": "address"
        }
      ],
      "payable": false,
      "stateMutability": "view",
      "type": "function"
    },
    {
      "constant": false,
      "inputs": [
        {
          "name": "_to",
          "type": "address"
        },
        {
          "name": "_tokenId",
          "type": "uint256"
        }
      ],
      "name": "approve",
      "outputs": [],
      "payable": false,
      "stateMutability": "nonpayable",
      "type": "function"
    },
    {
      "constant": true,
      "inputs": [
        {
          "name": "addr",
          "type": "address"
        },
        {
          "name": "roleName",
          "type": "string"
        }
      ],
      "name": "checkRole",
      "outputs": [],
      "payable": false,
      "stateMutability": "view",
      "type": "function"
    },
    {
      "constant": true,
      "inputs": [],
      "name": "totalSupply",
      "outputs": [
        {
          "name": "",
          "type": "uint256"
        }
      ],
      "payable": false,
      "stateMutability": "view",
      "type": "function"
    },
    {
      "constant": true,
      "inputs": [],
      "name": "ROLE_WHITELISTED",
      "outputs": [
        {
          "name": "",
          "type": "string"
        }
      ],
      "payable": false,
      "stateMutability": "view",
      "type": "function"
    },
    {
      "constant": true,
      "inputs": [
        {
          "name": "addr",
          "type": "address"
        },
        {
          "name": "roleName",
          "type": "string"
        }
      ],
      "name": "hasRole",
      "outputs": [
        {
          "name": "",
          "type": "bool"
        }
      ],
      "payable": false,
      "stateMutability": "view",
      "type": "function"
    },
    {
      "constant": false,
      "inputs": [
        {
          "name": "_from",
          "type": "address"
        },
        {
          "name": "_to",
          "type": "address"
        },
        {
          "name": "_tokenId",
          "type": "uint256"
        }
      ],
      "name": "transferFrom",
      "outputs": [],
      "payable": false,
      "stateMutability": "nonpayable",
      "type": "function"
    },
    {
      "constant": false,
      "inputs": [
        {
          "name": "addrs",
          "type": "address[]"
        }
      ],
      "name": "removeAddressesFromWhitelist",
      "outputs": [],
      "payable": false,
      "stateMutability": "nonpayable",
      "type": "function"
    },
    {
      "constant": false,
      "inputs": [
        {
          "name": "addr",
          "type": "address"
        }
      ],
      "name": "removeAddressFromWhitelist",
      "outputs": [],
      "payable": false,
      "stateMutability": "nonpayable",
      "type": "function"
    },
    {
      "constant": true,
      "inputs": [
        {
          "name": "_owner",
          "type": "address"
        },
        {
          "name": "_index",
          "type": "uint256"
        }
      ],
      "name": "tokenOfOwnerByIndex",
      "outputs": [
        {
          "name": "",
          "type": "uint256"
        }
      ],
      "payable": false,
      "stateMutability": "view",
      "type": "function"
    },
    {
      "constant": false,
      "inputs": [
        {
          "name": "_from",
          "type": "address"
        },
        {
          "name": "_to",
          "type": "address"
        },
        {
          "name": "_tokenId",
          "type": "uint256"
        }
      ],
      "name": "safeTransferFrom",
      "outputs": [],
      "payable": false,
      "stateMutability": "nonpayable",
      "type": "function"
    },
    {
      "constant": true,
      "inputs": [
        {
          "name": "_tokenId",
          "type": "uint256"
        }
      ],
      "name": "exists",
      "outputs": [
        {
          "name": "",
          "type": "bool"
        }
      ],
      "payable": false,
      "stateMutability": "view",
      "type": "function"
    },
    {
      "constant": true,
      "inputs": [
        {
          "name": "_index",
          "type": "uint256"
        }
      ],
      "name": "tokenByIndex",
      "outputs": [
        {
          "name": "",
          "type": "uint256"
        }
      ],
      "payable": false,
      "stateMutability": "view",
      "type": "function"
    },
    {
      "constant": true,
      "inputs": [],
      "name": "InterfaceSignature_ERC721Optional",
      "outputs": [
        {
          "name": "",
          "type": "bytes4"
        }
      ],
      "payable": false,
      "stateMutability": "view",
      "type": "function"
    },
    {
      "constant": true,
      "inputs": [
        {
          "name": "_tokenId",
          "type": "uint256"
        }
      ],
      "name": "ownerOf",
      "outputs": [
        {
          "name": "",
          "type": "address"
        }
      ],
      "payable": false,
      "stateMutability": "view",
      "type": "function"
    },
    {
      "constant": true,
      "inputs": [
        {
          "name": "_owner",
          "type": "address"
        }
      ],
      "name": "balanceOf",
      "outputs": [
        {
          "name": "",
          "type": "uint256"
        }
      ],
      "payable": false,
      "stateMutability": "view",
      "type": "function"
    },
    {
      "constant": false,
      "inputs": [],
      "name": "renounceOwnership",
      "outputs": [],
      "payable": false,
      "stateMutability": "nonpayable",
      "type": "function"
    },
    {
      "constant": false,
      "inputs": [
        {
          "name": "addr",
          "type": "address"
        }
      ],
      "name": "addAddressToWhitelist",
      "outputs": [],
      "payable": false,
      "stateMutability": "nonpayable",
      "type": "function"
    },
    {
      "constant": true,
      "inputs": [],
      "name": "owner",
      "outputs": [
        {
          "name": "",
          "type": "address"
        }
      ],
      "payable": false,
      "stateMutability": "view",
      "type": "function"
    },
    {
      "constant": true,
      "inputs": [],
      "name": "symbol",
      "outputs": [
        {
          "name": "",
          "type": "string"
        }
      ],
      "payable": false,
      "stateMutability": "view",
      "type": "function"
    },
    {
      "constant": true,
      "inputs": [
        {
          "name": "addr",
          "type": "address"
        }
      ],
      "name": "whitelist",
      "outputs": [
        {
          "name": "",
          "type": "bool"
        }
      ],
      "payable": false,
      "stateMutability": "view",
      "type": "function"
    },
    {
      "constant": false,
      "inputs": [
        {
          "name": "_to",
          "type": "address"
        },
        {
          "name": "_approved",
          "type": "bool"
        }
      ],
      "name": "setApprovalForAll",
      "outputs": [],
      "payable": false,
      "stateMutability": "nonpayable",
      "type": "function"
    },
    {
      "constant": false,
      "inputs": [
        {
          "name": "_from",
          "type": "address"
        },
        {
          "name": "_to",
          "type": "address"
        },
        {
          "name": "_tokenId",
          "type": "uint256"
        },
        {
          "name": "_data",
          "type": "bytes"
        }
      ],
      "name": "safeTransferFrom",
      "outputs": [],
      "payable": false,
      "stateMutability": "nonpayable",
      "type": "function"
    },
    {
      "constant": false,
      "inputs": [
        {
          "name": "addrs",
          "type": "address[]"
        }
      ],
      "name": "addAddressesToWhitelist",
      "outputs": [],
      "payable": false,
      "stateMutability": "nonpayable",
      "type": "function"
    },
    {
      "constant": true,
      "inputs": [
        {
          "name": "_owner",
          "type": "address"
        },
        {
          "name": "_operator",
          "type": "address"
        }
      ],
      "name": "isApprovedForAll",
      "outputs": [
        {
          "name": "",
          "type": "bool"
        }
      ],
      "payable": false,
      "stateMutability": "view",
      "type": "function"
    },
    {
      "constant": false,
      "inputs": [
        {
          "name": "_newOwner",
          "type": "address"
        }
      ],
      "name": "transferOwnership",
      "outputs": [],
      "payable": false,
      "stateMutability": "nonpayable",
      "type": "function"
    },
    {
      "inputs": [],
      "payable": false,
      "stateMutability": "nonpayable",
      "type": "constructor"
    },
    {
      "payable": true,
      "stateMutability": "payable",
      "type": "fallback"
    },
    {
      "anonymous": false,
      "inputs": [
        {
          "indexed": true,
          "name": "_owner",
          "type": "address"
        },
        {
          "indexed": true,
          "name": "_tokenId",
          "type": "uint256"
        },
        {
          "indexed": false,
          "name": "_blockhash",
          "type": "bytes32"
        },
        {
          "indexed": false,
          "name": "_nickname",
          "type": "bytes32"
        }
      ],
      "name": "MintDART",
      "type": "event"
    },
    {
      "anonymous": false,
      "inputs": [
        {
          "indexed": false,
          "name": "addr",
          "type": "address"
        }
      ],
      "name": "WhitelistedAddressAdded",
      "type": "event"
    },
    {
      "anonymous": false,
      "inputs": [
        {
          "indexed": false,
          "name": "addr",
          "type": "address"
        }
      ],
      "name": "WhitelistedAddressRemoved",
      "type": "event"
    },
    {
      "anonymous": false,
      "inputs": [
        {
          "indexed": false,
          "name": "addr",
          "type": "address"
        },
        {
          "indexed": false,
          "name": "roleName",
          "type": "string"
        }
      ],
      "name": "RoleAdded",
      "type": "event"
    },
    {
      "anonymous": false,
      "inputs": [
        {
          "indexed": false,
          "name": "addr",
          "type": "address"
        },
        {
          "indexed": false,
          "name": "roleName",
          "type": "string"
        }
      ],
      "name": "RoleRemoved",
      "type": "event"
    },
    {
      "anonymous": false,
      "inputs": [
        {
          "indexed": true,
          "name": "previousOwner",
          "type": "address"
        }
      ],
      "name": "OwnershipRenounced",
      "type": "event"
    },
    {
      "anonymous": false,
      "inputs": [
        {
          "indexed": true,
          "name": "previousOwner",
          "type": "address"
        },
        {
          "indexed": true,
          "name": "newOwner",
          "type": "address"
        }
      ],
      "name": "OwnershipTransferred",
      "type": "event"
    },
    {
      "anonymous": false,
      "inputs": [
        {
          "indexed": true,
          "name": "_from",
          "type": "address"
        },
        {
          "indexed": true,
          "name": "_to",
          "type": "address"
        },
        {
          "indexed": false,
          "name": "_tokenId",
          "type": "uint256"
        }
      ],
      "name": "Transfer",
      "type": "event"
    },
    {
      "anonymous": false,
      "inputs": [
        {
          "indexed": true,
          "name": "_owner",
          "type": "address"
        },
        {
          "indexed": true,
          "name": "_approved",
          "type": "address"
        },
        {
          "indexed": false,
          "name": "_tokenId",
          "type": "uint256"
        }
      ],
      "name": "Approval",
      "type": "event"
    },
    {
      "anonymous": false,
      "inputs": [
        {
          "indexed": true,
          "name": "_owner",
          "type": "address"
        },
        {
          "indexed": true,
          "name": "_operator",
          "type": "address"
        },
        {
          "indexed": false,
          "name": "_approved",
          "type": "bool"
        }
      ],
      "name": "ApprovalForAll",
      "type": "event"
    },
    {
      "constant": true,
      "inputs": [
        {
          "name": "_interfaceID",
          "type": "bytes4"
        }
      ],
      "name": "supportsInterface",
      "outputs": [
        {
          "name": "",
          "type": "bool"
        }
      ],
      "payable": false,
      "stateMutability": "pure",
      "type": "function"
    },
    {
      "constant": false,
      "inputs": [
        {
          "name": "_blockhash",
          "type": "bytes32"
        },
        {
          "name": "_tokenId",
          "type": "uint256"
        },
        {
          "name": "_nickname",
          "type": "bytes32"
        }
      ],
      "name": "mint",
      "outputs": [],
      "payable": false,
      "stateMutability": "nonpayable",
      "type": "function"
    },
    {
      "constant": false,
      "inputs": [
        {
          "name": "_tokenId",
          "type": "uint256"
        },
        {
          "name": "_uri",
          "type": "string"
        }
      ],
      "name": "setTokenURI",
      "outputs": [],
      "payable": false,
      "stateMutability": "nonpayable",
      "type": "function"
    },
    {
      "constant": false,
      "inputs": [
        {
          "name": "_tokenId",
          "type": "uint256"
        },
        {
          "name": "_nickname",
          "type": "bytes32"
        }
      ],
      "name": "setNickname",
      "outputs": [],
      "payable": false,
      "stateMutability": "nonpayable",
      "type": "function"
    },
    {
      "constant": true,
      "inputs": [
        {
          "name": "_owner",
          "type": "address"
        }
      ],
      "name": "tokensOf",
      "outputs": [
        {
          "name": "_tokenIds",
          "type": "uint256[]"
        }
      ],
      "payable": false,
      "stateMutability": "view",
      "type": "function"
    },
    {
      "constant": true,
      "inputs": [
        {
          "name": "_owner",
          "type": "address"
        }
      ],
      "name": "hasTokens",
      "outputs": [
        {
          "name": "",
          "type": "bool"
        }
      ],
      "payable": false,
      "stateMutability": "view",
      "type": "function"
    },
    {
      "constant": true,
      "inputs": [
        {
          "name": "_owner",
          "type": "address"
        }
      ],
      "name": "firstToken",
      "outputs": [
        {
          "name": "_tokenId",
          "type": "uint256"
        }
      ],
      "payable": false,
      "stateMutability": "view",
      "type": "function"
    },
    {
      "constant": true,
      "inputs": [
        {
          "name": "_tokenId",
          "type": "uint256"
        }
      ],
      "name": "nicknameOf",
      "outputs": [
        {
          "name": "_nickname",
          "type": "bytes32"
        }
      ],
      "payable": false,
      "stateMutability": "view",
      "type": "function"
    },
    {
      "constant": true,
      "inputs": [
        {
          "name": "_tokenId",
          "type": "uint256"
        }
      ],
      "name": "tokenURI",
      "outputs": [
        {
          "name": "",
          "type": "string"
        }
      ],
      "payable": false,
      "stateMutability": "view",
      "type": "function"
    },
    {
      "constant": false,
      "inputs": [
        {
          "name": "_newBaseURI",
          "type": "string"
        }
      ],
      "name": "setTokenBaseURI",
      "outputs": [],
      "payable": false,
      "stateMutability": "nonpayable",
      "type": "function"
    },
    {
      "constant": true,
      "inputs": [
        {
          "name": "_tokenId",
          "type": "uint256"
        }
      ],
      "name": "blockhashOf",
      "outputs": [
        {
          "name": "hash",
          "type": "bytes32"
        }
      ],
      "payable": false,
      "stateMutability": "view",
      "type": "function"
    }
  ],
  "bytecode": "0x60c0604052601c60808190527f68747470733a2f2f697066732e696e667572612e696f2f697066732f0000000060a09081526200004091600d919062000374565b503480156200004e57600080fd5b50604080518082018252601181527f446563656e7472616c697a6564204172740000000000000000000000000000006020808301918252835180850190945260048085527f4441525400000000000000000000000000000000000000000000000000000000918501919091528251929392620000cb929062000374565b508051620000e190600590602084019062000374565b5050600b8054600160a060020a031916339081179091556200011291506401000000006200127c6200017282021704565b6200013f73f43ae50c468c3d3fa0c3dc3454e797317ef530786401000000006200127c6200017282021704565b6200016c73e1023c112a39c58238929153f25364c11a33b7296401000000006200127c6200017282021704565b62000419565b600b54600160a060020a031633146200018a57600080fd5b620001da816040805190810160405280600981526020017f77686974656c697374000000000000000000000000000000000000000000000081525062000219640100000000026401000000009004565b60408051600160a060020a038316815290517fd1bba68c128cc3f427e5831b3c6f99f480b6efa6b9e80c757768f6124158cc3f9181900360200190a150565b6200029582600c836040518082805190602001908083835b60208310620002525780518252601f19909201916020918201910162000231565b51815160209384036101000a60001901801990921691161790529201948552506040519384900301909220929150506401000000006200034f810262001f7a1704565b7fbfec83d64eaa953f2708271a023ab9ee82057f8f3578d548c1a4ba0b5b70048982826040518083600160a060020a0316600160a060020a0316815260200180602001828103825283818151815260200191508051906020019080838360005b838110156200030f578181015183820152602001620002f5565b50505050905090810190601f1680156200033d5780820380516001836020036101000a031916815260200191505b50935050505060405180910390a15050565b600160a060020a0316600090815260209190915260409020805460ff19166001179055565b828054600181600116156101000203166002900490600052602060002090601f016020900481019282601f10620003b757805160ff1916838001178555620003e7565b82800160010185558215620003e7579182015b82811115620003e7578251825591602001919060010190620003ca565b50620003f5929150620003f9565b5090565b6200041691905b80821115620003f5576000815560010162000400565b90565b61238780620004296000396000f3006080604052600436106101d75763ffffffff7c010000000000000000000000000000000000000000000000000000000060003504166301ffc9a781146101dc57806306fdde031461021257806307518c8e1461029c578063081812fc146102c6578063095ea7b3146102fa5780630988ca8c14610320578063162094c41461038757806318160ddd146103ab57806318b919e9146103c0578063202c413d146103d5578063217fe6c6146103f057806323b872dd1461045757806324953eaa14610481578063286dd3f5146104d65780632f745c59146104f75780633cefc1e01461051b57806340786dec1461053c57806342842e0e1461055a5780634f558e79146105845780634f6ccce71461059c57806354f50f1b146105b45780635a3f2672146105cc578063624de3d91461063d5780636352211e1461066f5780636f37f48b1461068757806370a08231146106a8578063715018a6146106c95780637b9417c8146106de5780638da5cb5b146106ff5780638ef79e911461071457806395d89b41146107345780639b19251a14610749578063a22cb4651461076a578063b88d4fde14610790578063c87b56dd146107ff578063e2ec6ec314610817578063e985e9c51461086c578063f2fde38b14610893575b600080fd5b3480156101e857600080fd5b506101fe600160e060020a0319600435166108b4565b604080519115158252519081900360200190f35b34801561021e57600080fd5b506102276109b9565b6040805160208082528351818301528351919283929083019185019080838360005b83811015610261578181015183820152602001610249565b50505050905090810190601f16801561028e5780820380516001836020036101000a031916815260200191505b509250505060405180910390f35b3480156102a857600080fd5b506102b4600435610a50565b60408051918252519081900360200190f35b3480156102d257600080fd5b506102de600435610a62565b60408051600160a060020a039092168252519081900360200190f35b34801561030657600080fd5b5061031e600160a060020a0360043516602435610a7d565b005b34801561032c57600080fd5b5060408051602060046024803582810135601f810185900485028601850190965285855261031e958335600160a060020a0316953695604494919390910191908190840183828082843750949750610b6f9650505050505050565b34801561039357600080fd5b5061031e600480359060248035908101910135610bdd565b3480156103b757600080fd5b506102b4610c58565b3480156103cc57600080fd5b50610227610c5e565b3480156103e157600080fd5b5061031e600435602435610c83565b3480156103fc57600080fd5b5060408051602060046024803582810135601f81018590048502860185019096528585526101fe958335600160a060020a0316953695604494919390910191908190840183828082843750949750610cb49650505050505050565b34801561046357600080fd5b5061031e600160a060020a0360043581169060243516604435610d27565b34801561048d57600080fd5b506040805160206004803580820135838102808601850190965280855261031e95369593946024949385019291829185019084908082843750949750610dd69650505050505050565b3480156104e257600080fd5b5061031e600160a060020a0360043516610e25565b34801561050357600080fd5b506102b4600160a060020a0360043516602435610ea8565b34801561052757600080fd5b506101fe600160a060020a0360043516610ef5565b34801561054857600080fd5b5061031e600435602435604435610f11565b34801561056657600080fd5b5061031e600160a060020a0360043581169060243516604435611050565b34801561059057600080fd5b506101fe600435611088565b3480156105a857600080fd5b506102b46004356110a5565b3480156105c057600080fd5b506102b46004356110da565b3480156105d857600080fd5b506105ed600160a060020a03600435166110ec565b60408051602080825283518183015283519192839290830191858101910280838360005b83811015610629578181015183820152602001610611565b505050509050019250505060405180910390f35b34801561064957600080fd5b50610652611158565b60408051600160e060020a03199092168252519081900360200190f35b34801561067b57600080fd5b506102de60043561117c565b34801561069357600080fd5b506102b4600160a060020a03600435166111a0565b3480156106b457600080fd5b506102b4600160a060020a03600435166111db565b3480156106d557600080fd5b5061031e61120e565b3480156106ea57600080fd5b5061031e600160a060020a036004351661127c565b34801561070b57600080fd5b506102de6112ff565b34801561072057600080fd5b5061031e600480356024810191013561130e565b34801561074057600080fd5b50610227611331565b34801561075557600080fd5b506101fe600160a060020a0360043516611392565b34801561077657600080fd5b5061031e600160a060020a036004351660243515156113c1565b34801561079c57600080fd5b50604080516020601f60643560048181013592830184900484028501840190955281845261031e94600160a060020a0381358116956024803590921695604435953695608494019181908401838280828437509497506114459650505050505050565b34801561080b57600080fd5b50610227600435611484565b34801561082357600080fd5b506040805160206004803580820135838102808601850190965280855261031e953695939460249493850192918291850190849080828437509497506115b49650505050505050565b34801561087857600080fd5b506101fe600160a060020a0360043581169060243516611603565b34801561089f57600080fd5b5061031e600160a060020a0360043516611631565b6000600160e060020a031982167f01ffc9a70000000000000000000000000000000000000000000000000000000014806109175750600160e060020a031982167f80ac58cd00000000000000000000000000000000000000000000000000000000145b8061094b5750600160e060020a031982167fb0aa718700000000000000000000000000000000000000000000000000000000145b8061097f5750600160e060020a031982167f780e9d6300000000000000000000000000000000000000000000000000000000145b806109b35750600160e060020a031982167f5b5e139f00000000000000000000000000000000000000000000000000000000145b92915050565b60048054604080516020601f6002600019610100600188161502019095169490940493840181900481028201810190925282815260609390929091830182828015610a455780601f10610a1a57610100808354040283529160200191610a45565b820191906000526020600020905b815481529060010190602001808311610a2857829003601f168201915b505050505090505b90565b6000908152600f602052604090205490565b600090815260016020526040902054600160a060020a031690565b6000610a888261117c565b9050600160a060020a038381169082161415610aa357600080fd5b33600160a060020a0382161480610abf5750610abf8133611603565b1515610aca57600080fd5b6000610ad583610a62565b600160a060020a0316141580610af35750600160a060020a03831615155b15610b6a57600082815260016020908152604091829020805473ffffffffffffffffffffffffffffffffffffffff1916600160a060020a03878116918217909255835186815293519093918516927f8c5be1e5ebec7d5bd14f71427d1e84f3dd0314c0f7b2291e5b200ac8c7c3b925928290030190a35b505050565b610bd982600c836040518082805190602001908083835b60208310610ba55780518252601f199092019160209182019101610b86565b51815160209384036101000a6000190180199092169116179052920194855250604051938490030190922092915050611654565b5050565b610c0a3360408051908101604052806009815260200160008051602061233c833981519152815250610b6f565b610c1383611088565b1515610c1e57600080fd5b610b6a8383838080601f01602080910402602001604051908101604052809392919081815260200183838082843750611669945050505050565b60085490565b604080518082019091526009815260008051602061233c833981519152602082015281565b8133610c8e8261117c565b600160a060020a031614610ca157600080fd5b506000918252600e602052604090912055565b6000610d2083600c846040518082805190602001908083835b60208310610cec5780518252601f199092019160209182019101610ccd565b51815160209384036101000a600019018019909216911617905292019485525060405193849003019092209291505061169c565b9392505050565b80610d3233826116bb565b1515610d3d57600080fd5b600160a060020a0384161515610d5257600080fd5b600160a060020a0383161515610d6757600080fd5b610d71848361171a565b610d7b84836117c7565b610d858383611900565b82600160a060020a031684600160a060020a03167fddf252ad1be2c89b69c2b068fc378daa952ba7f163c4a11628f55a4df523b3ef846040518082815260200191505060405180910390a350505050565b600b54600090600160a060020a03163314610df057600080fd5b5060005b8151811015610bd957610e1d8282815181101515610e0e57fe5b90602001906020020151610e25565b600101610df4565b600b54600160a060020a03163314610e3c57600080fd5b610e698160408051908101604052806009815260200160008051602061233c833981519152815250611949565b60408051600160a060020a038316815290517ff1abf01a1043b7c244d128e8595cf0c1d10743b022b03a02dffd8ca3bf729f5a9181900360200190a150565b6000610eb3836111db565b8210610ebe57600080fd5b600160a060020a0383166000908152600660205260409020805483908110610ee257fe5b9060005260206000200154905092915050565b600160a060020a03166000908152600660205260408120541190565b610f3e3360408051908101604052806009815260200160008051602061233c833981519152815250610b6f565b60008381526010602052604090205415610f5757600080fd5b6000828152600f602052604090205415610f7057600080fd5b610f7a3383611a6a565b610fe082606060405190810160405280602e81526020017f516d5572546a5079326734617752594156384b73525368476148664c6863676b81526020017f336e51704547775935383933426b000000000000000000000000000000000000815250611669565b6000828152600f6020908152604080832086905585835260108252808320859055848352600e82529182902083905581518581529081018390528151849233927f02eaafbcba86bb6efee76aa94b66db88189635b9ca856870dae091808fed4ee5929081900390910190a3505050565b8061105b33826116bb565b151561106657600080fd5b6110828484846020604051908101604052806000815250611445565b50505050565b600090815260208190526040902054600160a060020a0316151590565b60006110af610c58565b82106110ba57600080fd5b60088054839081106110c857fe5b90600052602060002001549050919050565b6000908152600e602052604090205490565b600160a060020a03811660009081526006602090815260409182902080548351818402810184019094528084526060939283018282801561114c57602002820191906000526020600020905b815481526020019060010190808311611138575b50505050509050919050565b7fb0aa71870000000000000000000000000000000000000000000000000000000081565b600081815260208190526040812054600160a060020a03168015156109b357600080fd5b60006111ab82610ef5565b15156111b657600080fd5b600160a060020a0382166000908152600660205260408120805490919081106110c857fe5b6000600160a060020a03821615156111f257600080fd5b50600160a060020a031660009081526002602052604090205490565b600b54600160a060020a0316331461122557600080fd5b600b54604051600160a060020a03909116907ff8df31144d9c2f0f6b59d69b8b98abd5459d07f2742c4df920b25aae33c6482090600090a2600b805473ffffffffffffffffffffffffffffffffffffffff19169055565b600b54600160a060020a0316331461129357600080fd5b6112c08160408051908101604052806009815260200160008051602061233c833981519152815250611ab9565b60408051600160a060020a038316815290517fd1bba68c128cc3f427e5831b3c6f99f480b6efa6b9e80c757768f6124158cc3f9181900360200190a150565b600b54600160a060020a031681565b600b54600160a060020a0316331461132557600080fd5b610b6a600d8383612215565b60058054604080516020601f6002600019610100600188161502019095169490940493840181900481028201810190925282815260609390929091830182828015610a455780601f10610a1a57610100808354040283529160200191610a45565b60006109b38260408051908101604052806009815260200160008051602061233c833981519152815250610cb4565b600160a060020a0382163314156113d757600080fd5b336000818152600360209081526040808320600160a060020a03871680855290835292819020805460ff1916861515908117909155815190815290519293927f17307eab39ab6107e8899845ad3d59bd9653f200f220920489ca2b5937696c31929181900390910190a35050565b8161145033826116bb565b151561145b57600080fd5b611466858585610d27565b61147285858585611b9a565b151561147d57600080fd5b5050505050565b600d805460408051602060026001851615610100026000190190941693909304601f81018490048402820184019092528181526060936109b393919290918301828280156115135780601f106114e857610100808354040283529160200191611513565b820191906000526020600020905b8154815290600101906020018083116114f657829003601f168201915b5050506000868152600a60209081526040918290208054835160026001831615610100026000190190921691909104601f8101849004840282018401909452838152945092508301828280156115aa5780601f1061157f576101008083540402835291602001916115aa565b820191906000526020600020905b81548152906001019060200180831161158d57829003601f168201915b5050505050611d0b565b600b54600090600160a060020a031633146115ce57600080fd5b5060005b8151811015610bd9576115fb82828151811015156115ec57fe5b9060200190602002015161127c565b6001016115d2565b600160a060020a03918216600090815260036020908152604080832093909416825291909152205460ff1690565b600b54600160a060020a0316331461164857600080fd5b61165181611d40565b50565b61165e828261169c565b1515610bd957600080fd5b61167282611088565b151561167d57600080fd5b6000828152600a602090815260409091208251610b6a92840190612293565b600160a060020a03166000908152602091909152604090205460ff1690565b6000806116c78361117c565b905080600160a060020a031684600160a060020a03161480611702575083600160a060020a03166116f784610a62565b600160a060020a0316145b8061171257506117128185611603565b949350505050565b81600160a060020a031661172d8261117c565b600160a060020a03161461174057600080fd5b600081815260016020526040902054600160a060020a031615610bd9576000818152600160209081526040808320805473ffffffffffffffffffffffffffffffffffffffff1916905580518481529051600160a060020a038616927f8c5be1e5ebec7d5bd14f71427d1e84f3dd0314c0f7b2291e5b200ac8c7c3b925928290030190a35050565b60008060006117d68585611dbe565b600084815260076020908152604080832054600160a060020a038916845260069092529091205490935061181190600163ffffffff611e5316565b600160a060020a03861660009081526006602052604090208054919350908390811061183957fe5b90600052602060002001549050806006600087600160a060020a0316600160a060020a031681526020019081526020016000208481548110151561187957fe5b6000918252602080832090910192909255600160a060020a03871681526006909152604081208054849081106118ab57fe5b6000918252602080832090910192909255600160a060020a03871681526006909152604090208054906118e2906000198301612301565b50600093845260076020526040808520859055908452909220555050565b600061190c8383611e65565b50600160a060020a039091166000908152600660209081526040808320805460018101825590845282842081018590559383526007909152902055565b6119b382600c836040518082805190602001908083835b6020831061197f5780518252601f199092019160209182019101611960565b51815160209384036101000a6000190180199092169116179052920194855250604051938490030190922092915050611ef4565b7fd211483f91fc6eff862467f8de606587a30c8fc9981056f051b897a418df803a82826040518083600160a060020a0316600160a060020a0316815260200180602001828103825283818151815260200191508051906020019080838360005b83811015611a2b578181015183820152602001611a13565b50505050905090810190601f168015611a585780820380516001836020036101000a031916815260200191505b50935050505060405180910390a15050565b611a748282611f16565b600880546000838152600960205260408120829055600182018355919091527ff3f7a9fe364faab93b216da50a3214154f22a0a2b415b23a84c8169e8b636ee3015550565b611b2382600c836040518082805190602001908083835b60208310611aef5780518252601f199092019160209182019101611ad0565b51815160209384036101000a6000190180199092169116179052920194855250604051938490030190922092915050611f7a565b7fbfec83d64eaa953f2708271a023ab9ee82057f8f3578d548c1a4ba0b5b70048982826040518083600160a060020a0316600160a060020a03168152602001806020018281038252838181518152602001915080519060200190808383600083811015611a2b578181015183820152602001611a13565b600080611baf85600160a060020a0316611f9f565b1515611bbe5760019150611d02565b84600160a060020a031663f0b9e5ba8786866040518463ffffffff167c01000000000000000000000000000000000000000000000000000000000281526004018084600160a060020a0316600160a060020a0316815260200183815260200180602001828103825283818151815260200191508051906020019080838360005b83811015611c56578181015183820152602001611c3e565b50505050905090810190601f168015611c835780820380516001836020036101000a031916815260200191505b50945050505050602060405180830381600087803b158015611ca457600080fd5b505af1158015611cb8573d6000803e3d6000fd5b505050506040513d6020811015611cce57600080fd5b5051600160e060020a031981167ff0b9e5ba0000000000000000000000000000000000000000000000000000000014925090505b50949350505050565b604080516020818101835260008083528351808301855281815284519283019094528152606092610d20928692869290611fa7565b600160a060020a0381161515611d5557600080fd5b600b54604051600160a060020a038084169216907f8be0079c531659141344cd1fd0a4f28419497f9722a3daafe3b4186f6b6457e090600090a3600b805473ffffffffffffffffffffffffffffffffffffffff1916600160a060020a0392909216919091179055565b81600160a060020a0316611dd18261117c565b600160a060020a031614611de457600080fd5b600160a060020a038216600090815260026020526040902054611e0e90600163ffffffff611e5316565b600160a060020a039092166000908152600260209081526040808320949094559181529081905220805473ffffffffffffffffffffffffffffffffffffffff19169055565b600082821115611e5f57fe5b50900390565b600081815260208190526040902054600160a060020a031615611e8757600080fd5b600081815260208181526040808320805473ffffffffffffffffffffffffffffffffffffffff1916600160a060020a03871690811790915583526002909152902054611ed4906001612208565b600160a060020a0390921660009081526002602052604090209190915550565b600160a060020a0316600090815260209190915260409020805460ff19169055565b600160a060020a0382161515611f2b57600080fd5b611f358282611900565b604080518281529051600160a060020a038416916000917fddf252ad1be2c89b69c2b068fc378daa952ba7f163c4a11628f55a4df523b3ef9181900360200190a35050565b600160a060020a0316600090815260209190915260409020805460ff19166001179055565b6000903b1190565b6060806060806060806060806000808e98508d97508c96508b95508a94508451865188518a518c51010101016040519080825280601f01601f191660200182016040528015612000578160200160208202803883390190505b50935083925060009150600090505b885181101561206d57888181518110151561202657fe5b90602001015160f860020a900460f860020a02838380600101945081518110151561204d57fe5b906020010190600160f860020a031916908160001a90535060010161200f565b5060005b87518110156120cf57878181518110151561208857fe5b90602001015160f860020a900460f860020a0283838060010194508151811015156120af57fe5b906020010190600160f860020a031916908160001a905350600101612071565b5060005b86518110156121315786818151811015156120ea57fe5b90602001015160f860020a900460f860020a02838380600101945081518110151561211157fe5b906020010190600160f860020a031916908160001a9053506001016120d3565b5060005b855181101561219357858181518110151561214c57fe5b90602001015160f860020a900460f860020a02838380600101945081518110151561217357fe5b906020010190600160f860020a031916908160001a905350600101612135565b5060005b84518110156121f55784818151811015156121ae57fe5b90602001015160f860020a900460f860020a0283838060010194508151811015156121d557fe5b906020010190600160f860020a031916908160001a905350600101612197565b50909d9c50505050505050505050505050565b818101828110156109b357fe5b828054600181600116156101000203166002900490600052602060002090601f016020900481019282601f106122565782800160ff19823516178555612283565b82800160010185558215612283579182015b82811115612283578235825591602001919060010190612268565b5061228f929150612321565b5090565b828054600181600116156101000203166002900490600052602060002090601f016020900481019282601f106122d457805160ff1916838001178555612283565b82800160010185558215612283579182015b828111156122835782518255916020019190600101906122e6565b815481835581811115610b6a57600083815260209020610b6a9181019083015b610a4d91905b8082111561228f5760008155600101612327560077686974656c6973740000000000000000000000000000000000000000000000a165627a7a72305820d57de2f4016642b84c1b3f77183211bb96a4a5467cbbbc0b3f79649d2c545c170029",
  "source": "pragma solidity ^0.4.24;\n\n\nimport \"openzeppelin-solidity/contracts/token/ERC721/ERC721Token.sol\";\n\nimport \"./Strings.sol\";\n\nimport \"./ERC165.sol\";\n\nimport \"openzeppelin-solidity/contracts/ownership/Whitelist.sol\";\n\n\n/**\n* @title DART\n*/\ncontract DART is ERC721Token, ERC165, Whitelist {\n  using SafeMath for uint256;\n\n  bytes4 constant InterfaceSignature_ERC165 = 0x01ffc9a7;\n  /*\n  bytes4(keccak256('supportsInterface(bytes4)'));\n  */\n\n  bytes4 constant InterfaceSignature_ERC721Enumerable = 0x780e9d63;\n  /*\n  bytes4(keccak256('totalSupply()')) ^\n  bytes4(keccak256('tokenOfOwnerByIndex(address,uint256)')) ^\n  bytes4(keccak256('tokenByIndex(uint256)'));\n  */\n\n  bytes4 constant InterfaceSignature_ERC721Metadata = 0x5b5e139f;\n  /*\n  bytes4(keccak256('name()')) ^\n  bytes4(keccak256('symbol()')) ^\n  bytes4(keccak256('tokenURI(uint256)'));\n  */\n\n  bytes4 constant InterfaceSignature_ERC721 = 0x80ac58cd;\n  /*\n  bytes4(keccak256('balanceOf(address)')) ^\n  bytes4(keccak256('ownerOf(uint256)')) ^\n  bytes4(keccak256('approve(address,uint256)')) ^\n  bytes4(keccak256('getApproved(uint256)')) ^\n  bytes4(keccak256('setApprovalForAll(address,bool)')) ^\n  bytes4(keccak256('isApprovedForAll(address,address)')) ^\n  bytes4(keccak256('transferFrom(address,address,uint256)')) ^\n  bytes4(keccak256('safeTransferFrom(address,address,uint256)')) ^\n  bytes4(keccak256('safeTransferFrom(address,address,uint256,bytes)'));\n  */\n\n  bytes4 public constant InterfaceSignature_ERC721Optional = - 0x4f558e79;\n  /*\n  bytes4(keccak256('exists(uint256)'));\n  */\n\n  /**\n   * @notice Introspection interface as per ERC-165 (https://github.com/ethereum/EIPs/issues/165).\n   * @dev Returns true for any standardized interfaces implemented by this contract.\n   * @param _interfaceID bytes4 the interface to check for\n   * @return true for any standardized interfaces implemented by this contract.\n   */\n  function supportsInterface(bytes4 _interfaceID) external pure returns (bool) {\n    return ((_interfaceID == InterfaceSignature_ERC165)\n    || (_interfaceID == InterfaceSignature_ERC721)\n    || (_interfaceID == InterfaceSignature_ERC721Optional)\n    || (_interfaceID == InterfaceSignature_ERC721Enumerable)\n    || (_interfaceID == InterfaceSignature_ERC721Metadata));\n  }\n\n  event MintDART(address indexed _owner, uint256 indexed _tokenId, bytes32 _blockhash, bytes32 _nickname);\n\n  /**\n   * @dev Throws if not called by a dART token holder\n   */\n  modifier onlyTokenOwners() {\n    require(hasTokens(msg.sender));\n    _;\n  }\n\n  string internal tokenBaseURI = \"https://ipfs.infura.io/ipfs/\";\n\n  mapping (uint256 => bytes32) internal tokenIdToNickname;\n\n  mapping(uint256 => bytes32) internal tokenIdToBlockhash;\n  mapping(bytes32 => uint256) internal blockhashToTokenId;\n\n  function DART() public ERC721Token(\"Decentralized Art\", \"DART\") {\n\n    super.addAddressToWhitelist(msg.sender);\n\n    // FIXME - hardcoded?\n    super.addAddressToWhitelist(0xf43aE50C468c3D3Fa0C3dC3454E797317EF53078);\n    super.addAddressToWhitelist(0xe1023C112A39c58238929153F25364c11A33B729);\n  }\n\n  // don't accept payment directly to contract\n  function() public payable {\n    revert();\n  }\n\n  /**\n   * @dev Mint a new DART token\n   * @dev Reverts if not called by curator\n   * @param _blockhash an Ethereum block hash\n   * @param _tokenId unique token ID\n   * @param _nickname char stamp of token owner\n   */\n  function mint(bytes32 _blockhash, uint256 _tokenId, bytes32 _nickname) external onlyWhitelisted {\n    require(blockhashToTokenId[_blockhash] == 0);\n    require(tokenIdToBlockhash[_tokenId] == 0);\n\n    // actually mint the token\n    super._mint(msg.sender, _tokenId);\n\n    // Use default artblock.io IPFS hash\n    super._setTokenURI(_tokenId, \"QmUrTjPy2g4awRYAV8KsRShGaHfLhcgk3nQpEGwY5893Bk\");\n\n    // set data\n    tokenIdToBlockhash[_tokenId] = _blockhash;\n    blockhashToTokenId[_blockhash] = _tokenId;\n    tokenIdToNickname[_tokenId] = _nickname;\n\n    MintDART(msg.sender, _tokenId, _blockhash, _nickname);\n  }\n\n  /**\n   * @dev Utility function for updating a DART assets token URI\n   * @dev Reverts if not called by management\n   * @param _tokenId the DART token ID\n   * @param _uri the token URI, will be concatenated with baseUri\n   */\n  function setTokenURI(uint256 _tokenId, string _uri) external onlyWhitelisted {\n    require(exists(_tokenId));\n    _setTokenURI(_tokenId, _uri);\n  }\n\n  /**\n   * @dev Utility function for updating a nickname if you own the token\n   * @dev Reverts if not called by owner\n   * @param _tokenId the DART token ID\n   * @param _nickname char stamp of token owner\n   */\n  function setNickname(uint256 _tokenId, bytes32 _nickname) external onlyOwnerOf(_tokenId) {\n    tokenIdToNickname[_tokenId] = _nickname;\n  }\n\n  /**\n   * @dev Return owned tokens\n   * @param _owner address to query\n   */\n  function tokensOf(address _owner) public view returns (uint256[] _tokenIds) {\n    return ownedTokens[_owner];\n  }\n\n  /**\n   * @dev checks for owned tokens\n   * @param _owner address to query\n   */\n  function hasTokens(address _owner) constant returns (bool) {\n    return ownedTokens[_owner].length > 0;\n  }\n\n  /**\n   * @dev checks for owned tokens\n   * @param _owner address to query\n   */\n  function firstToken(address _owner) constant returns (uint256 _tokenId) {\n    require(hasTokens(_owner));\n    return ownedTokens[_owner][0];\n  }\n\n  /**\n   * @dev Return handle of token\n   * @param _tokenId token ID for handle lookup\n   */\n  function nicknameOf(uint256 _tokenId) public view returns (bytes32 _nickname) {\n    return tokenIdToNickname[_tokenId];\n  }\n\n  /**\n   * @dev Get token URI fro the given token, useful for testing purposes\n   * @param _tokenId the DART token ID\n   * @return the token ID or only the base URI if not found\n   */\n  function tokenURI(uint256 _tokenId) public view returns (string) {\n    return Strings.strConcat(tokenBaseURI, tokenURIs[_tokenId]);\n  }\n\n  /**\n   * @dev Allows management to update the base tokenURI path\n   * @dev Reverts if not called by management\n   * @param _newBaseURI the new base URI to set\n   */\n  function setTokenBaseURI(string _newBaseURI) external onlyOwner {\n    tokenBaseURI = _newBaseURI;\n  }\n\n  /**\n   * @dev Return blockhash of the DART token\n   * @param _tokenId the DART token ID\n   */\n  function blockhashOf(uint256 _tokenId) public view returns (bytes32 hash) {\n    return tokenIdToBlockhash[_tokenId];\n  }\n}\n",
  "sourcePath": "/Users/andy/workspace/art-blocks/contracts/DART.sol",
  "compiler": {
    "name": "solc",
    "version": "0.4.24+commit.e67f0147.Emscripten.clang"
  },
  "schemaVersion": "2.0.0",
  "updatedAt": "2018-06-22T13:00:45.063Z"
}