{
  "contractName": "DART",
  "abi": [
    {
      "constant": true,
      "inputs": [],
      "name": "name",
      "outputs": [
        {
          "name": "",
          "type": "string"
        }
      ],
      "payable": false,
      "stateMutability": "view",
      "type": "function"
    },
    {
      "constant": true,
      "inputs": [
        {
          "name": "_tokenId",
          "type": "uint256"
        }
      ],
      "name": "getApproved",
      "outputs": [
        {
          "name": "",
          "type": "address"
        }
      ],
      "payable": false,
      "stateMutability": "view",
      "type": "function"
    },
    {
      "constant": false,
      "inputs": [
        {
          "name": "_to",
          "type": "address"
        },
        {
          "name": "_tokenId",
          "type": "uint256"
        }
      ],
      "name": "approve",
      "outputs": [],
      "payable": false,
      "stateMutability": "nonpayable",
      "type": "function"
    },
    {
      "constant": true,
      "inputs": [],
      "name": "totalSupply",
      "outputs": [
        {
          "name": "",
          "type": "uint256"
        }
      ],
      "payable": false,
      "stateMutability": "view",
      "type": "function"
    },
    {
      "constant": false,
      "inputs": [
        {
          "name": "_from",
          "type": "address"
        },
        {
          "name": "_to",
          "type": "address"
        },
        {
          "name": "_tokenId",
          "type": "uint256"
        }
      ],
      "name": "transferFrom",
      "outputs": [],
      "payable": false,
      "stateMutability": "nonpayable",
      "type": "function"
    },
    {
      "constant": true,
      "inputs": [
        {
          "name": "_owner",
          "type": "address"
        },
        {
          "name": "_index",
          "type": "uint256"
        }
      ],
      "name": "tokenOfOwnerByIndex",
      "outputs": [
        {
          "name": "",
          "type": "uint256"
        }
      ],
      "payable": false,
      "stateMutability": "view",
      "type": "function"
    },
    {
      "constant": true,
      "inputs": [],
      "name": "tokenIdPointer",
      "outputs": [
        {
          "name": "",
          "type": "uint256"
        }
      ],
      "payable": false,
      "stateMutability": "view",
      "type": "function"
    },
    {
      "constant": false,
      "inputs": [
        {
          "name": "_from",
          "type": "address"
        },
        {
          "name": "_to",
          "type": "address"
        },
        {
          "name": "_tokenId",
          "type": "uint256"
        }
      ],
      "name": "safeTransferFrom",
      "outputs": [],
      "payable": false,
      "stateMutability": "nonpayable",
      "type": "function"
    },
    {
      "constant": true,
      "inputs": [
        {
          "name": "_tokenId",
          "type": "uint256"
        }
      ],
      "name": "exists",
      "outputs": [
        {
          "name": "",
          "type": "bool"
        }
      ],
      "payable": false,
      "stateMutability": "view",
      "type": "function"
    },
    {
      "constant": true,
      "inputs": [
        {
          "name": "_index",
          "type": "uint256"
        }
      ],
      "name": "tokenByIndex",
      "outputs": [
        {
          "name": "",
          "type": "uint256"
        }
      ],
      "payable": false,
      "stateMutability": "view",
      "type": "function"
    },
    {
      "constant": true,
      "inputs": [],
      "name": "totalContributionsInWei",
      "outputs": [
        {
          "name": "",
          "type": "uint256"
        }
      ],
      "payable": false,
      "stateMutability": "view",
      "type": "function"
    },
    {
      "constant": true,
      "inputs": [],
      "name": "InterfaceSignature_ERC721Optional",
      "outputs": [
        {
          "name": "",
          "type": "bytes4"
        }
      ],
      "payable": false,
      "stateMutability": "view",
      "type": "function"
    },
    {
      "constant": true,
      "inputs": [
        {
          "name": "_tokenId",
          "type": "uint256"
        }
      ],
      "name": "ownerOf",
      "outputs": [
        {
          "name": "",
          "type": "address"
        }
      ],
      "payable": false,
      "stateMutability": "view",
      "type": "function"
    },
    {
      "constant": true,
      "inputs": [
        {
          "name": "_owner",
          "type": "address"
        }
      ],
      "name": "balanceOf",
      "outputs": [
        {
          "name": "",
          "type": "uint256"
        }
      ],
      "payable": false,
      "stateMutability": "view",
      "type": "function"
    },
    {
      "constant": true,
      "inputs": [],
      "name": "symbol",
      "outputs": [
        {
          "name": "",
          "type": "string"
        }
      ],
      "payable": false,
      "stateMutability": "view",
      "type": "function"
    },
    {
      "constant": false,
      "inputs": [
        {
          "name": "_to",
          "type": "address"
        },
        {
          "name": "_approved",
          "type": "bool"
        }
      ],
      "name": "setApprovalForAll",
      "outputs": [],
      "payable": false,
      "stateMutability": "nonpayable",
      "type": "function"
    },
    {
      "constant": false,
      "inputs": [
        {
          "name": "_from",
          "type": "address"
        },
        {
          "name": "_to",
          "type": "address"
        },
        {
          "name": "_tokenId",
          "type": "uint256"
        },
        {
          "name": "_data",
          "type": "bytes"
        }
      ],
      "name": "safeTransferFrom",
      "outputs": [],
      "payable": false,
      "stateMutability": "nonpayable",
      "type": "function"
    },
    {
      "constant": true,
      "inputs": [],
      "name": "curatorAccount",
      "outputs": [
        {
          "name": "",
          "type": "address"
        }
      ],
      "payable": false,
      "stateMutability": "view",
      "type": "function"
    },
    {
      "constant": true,
      "inputs": [
        {
          "name": "_owner",
          "type": "address"
        },
        {
          "name": "_operator",
          "type": "address"
        }
      ],
      "name": "isApprovedForAll",
      "outputs": [
        {
          "name": "",
          "type": "bool"
        }
      ],
      "payable": false,
      "stateMutability": "view",
      "type": "function"
    },
    {
      "inputs": [],
      "payable": false,
      "stateMutability": "nonpayable",
      "type": "constructor"
    },
    {
      "payable": true,
      "stateMutability": "payable",
      "type": "fallback"
    },
    {
      "anonymous": false,
      "inputs": [
        {
          "indexed": true,
          "name": "_from",
          "type": "address"
        },
        {
          "indexed": true,
          "name": "_to",
          "type": "address"
        },
        {
          "indexed": false,
          "name": "_tokenId",
          "type": "uint256"
        }
      ],
      "name": "Transfer",
      "type": "event"
    },
    {
      "anonymous": false,
      "inputs": [
        {
          "indexed": true,
          "name": "_owner",
          "type": "address"
        },
        {
          "indexed": true,
          "name": "_approved",
          "type": "address"
        },
        {
          "indexed": false,
          "name": "_tokenId",
          "type": "uint256"
        }
      ],
      "name": "Approval",
      "type": "event"
    },
    {
      "anonymous": false,
      "inputs": [
        {
          "indexed": true,
          "name": "_owner",
          "type": "address"
        },
        {
          "indexed": true,
          "name": "_operator",
          "type": "address"
        },
        {
          "indexed": false,
          "name": "_approved",
          "type": "bool"
        }
      ],
      "name": "ApprovalForAll",
      "type": "event"
    },
    {
      "constant": true,
      "inputs": [
        {
          "name": "_interfaceID",
          "type": "bytes4"
        }
      ],
      "name": "supportsInterface",
      "outputs": [
        {
          "name": "",
          "type": "bool"
        }
      ],
      "payable": false,
      "stateMutability": "pure",
      "type": "function"
    },
    {
      "constant": false,
      "inputs": [
        {
          "name": "_tokenURI",
          "type": "string"
        },
        {
          "name": "_handle",
          "type": "string"
        }
      ],
      "name": "mint",
      "outputs": [],
      "payable": false,
      "stateMutability": "nonpayable",
      "type": "function"
    },
    {
      "constant": false,
      "inputs": [
        {
          "name": "_tokenId",
          "type": "uint256"
        }
      ],
      "name": "burn",
      "outputs": [],
      "payable": false,
      "stateMutability": "nonpayable",
      "type": "function"
    },
    {
      "constant": false,
      "inputs": [
        {
          "name": "_tokenId",
          "type": "uint256"
        },
        {
          "name": "_uri",
          "type": "string"
        }
      ],
      "name": "setTokenURI",
      "outputs": [],
      "payable": false,
      "stateMutability": "nonpayable",
      "type": "function"
    },
    {
      "constant": true,
      "inputs": [
        {
          "name": "_owner",
          "type": "address"
        }
      ],
      "name": "tokensOf",
      "outputs": [
        {
          "name": "_tokenIds",
          "type": "uint256[]"
        }
      ],
      "payable": false,
      "stateMutability": "view",
      "type": "function"
    },
    {
      "constant": true,
      "inputs": [
        {
          "name": "_tokenId",
          "type": "uint256"
        }
      ],
      "name": "handleOf",
      "outputs": [
        {
          "name": "_handle",
          "type": "string"
        }
      ],
      "payable": false,
      "stateMutability": "view",
      "type": "function"
    },
    {
      "constant": true,
      "inputs": [
        {
          "name": "_tokenId",
          "type": "uint256"
        }
      ],
      "name": "tokenURI",
      "outputs": [
        {
          "name": "",
          "type": "string"
        }
      ],
      "payable": false,
      "stateMutability": "view",
      "type": "function"
    },
    {
      "constant": false,
      "inputs": [
        {
          "name": "_newBaseURI",
          "type": "string"
        }
      ],
      "name": "setTokenBaseURI",
      "outputs": [],
      "payable": false,
      "stateMutability": "nonpayable",
      "type": "function"
    },
    {
      "constant": true,
      "inputs": [
        {
          "name": "_tokenId",
          "type": "uint256"
        }
      ],
      "name": "tokenHash",
      "outputs": [
        {
          "name": "",
          "type": "bytes32"
        }
      ],
      "payable": false,
      "stateMutability": "view",
      "type": "function"
    }
  ],
  "bytecode": "0x606060405260408051908101604052601c81527f68747470733a2f2f697066732e696e667572612e696f2f697066732f000000006020820152600b9080516200004d92916020019062000115565b506000600e5534156200005f57600080fd5b604080519081016040908152600b82527f4469676974616c204172740000000000000000000000000000000000000000006020830152805190810160405260048082527f44415254000000000000000000000000000000000000000000000000000000006020830152828051620000db92916020019062000115565b506005818051620000f192916020019062000115565b5050600c8054600160a060020a03191633600160a060020a031617905550620001ba565b828054600181600116156101000203166002900490600052602060002090601f016020900481019282601f106200015857805160ff191683800117855562000188565b8280016001018555821562000188579182015b82811115620001885782518255916020019190600101906200016b565b50620001969291506200019a565b5090565b620001b791905b80821115620001965760008155600101620001a1565b90565b611c8b80620001ca6000396000f3006060604052600436106101695763ffffffff7c010000000000000000000000000000000000000000000000000000000060003504166301ffc9a7811461016e57806306fdde03146101a2578063081812fc1461022c578063095ea7b31461025e578063162094c41461028257806318160ddd146102a457806323b872dd146102c95780632f745c59146102f15780633b3a1a7a1461031357806342842e0e1461032657806342966c681461034e57806349491987146103645780634f558e791461037a5780634f6ccce7146103905780635a3f2672146103a65780635a7cb31b14610418578063624de3d91461042b5780636352211e1461045b57806370a08231146104715780638aa0fdad146104905780638ef79e91146104ba57806395d89b41146104d8578063a22cb465146104eb578063a38643971461050f578063b88d4fde14610525578063c87b56dd14610591578063d4f74bf4146105a7578063e985e9c5146105ba575b600080fd5b341561017957600080fd5b61018e600160e060020a0319600435166105df565b604051901515815260200160405180910390f35b34156101ad57600080fd5b6101b56106e4565b60405160208082528190810183818151815260200191508051906020019080838360005b838110156101f15780820151838201526020016101d9565b50505050905090810190601f16801561021e5780820380516001836020036101000a031916815260200191505b509250505060405180910390f35b341561023757600080fd5b61024260043561078d565b604051600160a060020a03909116815260200160405180910390f35b341561026957600080fd5b610280600160a060020a03600435166024356107a8565b005b341561028d57600080fd5b6102806004803590602480359081019101356108a4565b34156102af57600080fd5b6102b761090c565b60405190815260200160405180910390f35b34156102d457600080fd5b610280600160a060020a0360043581169060243516604435610912565b34156102fc57600080fd5b6102b7600160a060020a03600435166024356109bd565b341561031e57600080fd5b6102b7610a0b565b341561033157600080fd5b610280600160a060020a0360043581169060243516604435610a11565b341561035957600080fd5b610280600435610a47565b341561036f57600080fd5b6101b5600435610ab7565b341561038557600080fd5b61018e600435610b72565b341561039b57600080fd5b6102b7600435610b8f565b34156103b157600080fd5b6103c5600160a060020a0360043516610bc5565b60405160208082528190810183818151815260200191508051906020019060200280838360005b838110156104045780820151838201526020016103ec565b505050509050019250505060405180910390f35b341561042357600080fd5b6102b7610c47565b341561043657600080fd5b61043e610c4d565b604051600160e060020a0319909116815260200160405180910390f35b341561046657600080fd5b610242600435610c71565b341561047c57600080fd5b6102b7600160a060020a0360043516610c95565b341561049b57600080fd5b6102806024600480358281019290820135918135918201910135610cc8565b34156104c557600080fd5b6102806004803560248101910135610d65565b34156104e357600080fd5b6101b5610d8c565b34156104f657600080fd5b610280600160a060020a03600435166024351515610dff565b341561051a57600080fd5b6102b7600435610e90565b341561053057600080fd5b610280600160a060020a036004803582169160248035909116916044359160849060643590810190830135806020601f82018190048102016040519081016040528181529291906020840183838082843750949650610f0e95505050505050565b341561059c57600080fd5b6101b5600435610f4d565b34156105b257600080fd5b610242610fd1565b34156105c557600080fd5b61018e600160a060020a0360043581169060243516610fe0565b6000600160e060020a031982167f01ffc9a70000000000000000000000000000000000000000000000000000000014806106425750600160e060020a031982167f80ac58cd00000000000000000000000000000000000000000000000000000000145b806106765750600160e060020a031982167fb0aa718700000000000000000000000000000000000000000000000000000000145b806106aa5750600160e060020a031982167f780e9d6300000000000000000000000000000000000000000000000000000000145b806106de5750600160e060020a031982167f5b5e139f00000000000000000000000000000000000000000000000000000000145b92915050565b6106ec611adc565b60048054600181600116156101000203166002900480601f0160208091040260200160405190810160405280929190818152602001828054600181600116156101000203166002900480156107825780601f1061075757610100808354040283529160200191610782565b820191906000526020600020905b81548152906001019060200180831161076557829003601f168201915b505050505090505b90565b600090815260016020526040902054600160a060020a031690565b60006107b382610c71565b9050600160a060020a0383811690821614156107ce57600080fd5b80600160a060020a031633600160a060020a031614806107f357506107f38133610fe0565b15156107fe57600080fd5b60006108098361078d565b600160a060020a03161415806108275750600160a060020a03831615155b1561089f5760008281526001602052604090819020805473ffffffffffffffffffffffffffffffffffffffff1916600160a060020a0386811691821790925591908316907f8c5be1e5ebec7d5bd14f71427d1e84f3dd0314c0f7b2291e5b200ac8c7c3b9259085905190815260200160405180910390a35b505050565b600c5433600160a060020a039081169116146108bf57600080fd5b6108c883610b72565b15156108d357600080fd5b61089f8383838080601f01602080910402602001604051908101604052818152929190602084018383808284375061100e945050505050565b60085490565b8061091d3382611041565b151561092857600080fd5b600160a060020a038416151561093d57600080fd5b600160a060020a038316151561095257600080fd5b61095c84836110a0565b610966848361114f565b610970838361127d565b82600160a060020a031684600160a060020a03167fddf252ad1be2c89b69c2b068fc378daa952ba7f163c4a11628f55a4df523b3ef8460405190815260200160405180910390a350505050565b60006109c883610c95565b82106109d357600080fd5b600160a060020a03831660009081526006602052604090208054839081106109f757fe5b906000526020600020900154905092915050565b600e5481565b80610a1c3382611041565b1515610a2757600080fd5b610a41848484602060405190810160405260008152610f0e565b50505050565b600c5433600160a060020a03908116911614610a6257600080fd5b600c546000828152602081905260409020548291600160a060020a03918216911614610a8d57600080fd5b610a9682610b72565b1515610aa157600080fd5b610ab3610aad83610c71565b836112d7565b5050565b610abf611adc565b600f60008381526020019081526020016000208054600181600116156101000203166002900480601f016020809104026020016040519081016040528092919081815260200182805460018160011615610100020316600290048015610b665780601f10610b3b57610100808354040283529160200191610b66565b820191906000526020600020905b815481529060010190602001808311610b4957829003601f168201915b50505050509050919050565b600090815260208190526040902054600160a060020a0316151590565b6000610b9961090c565b8210610ba457600080fd5b6008805483908110610bb257fe5b9060005260206000209001549050919050565b610bcd611adc565b6006600083600160a060020a0316600160a060020a03168152602001908152602001600020805480602002602001604051908101604052809291908181526020018280548015610b6657602002820191906000526020600020905b815481526020019060010190808311610c285750505050509050919050565b600d5481565b7fb0aa71870000000000000000000000000000000000000000000000000000000081565b600081815260208190526040812054600160a060020a03168015156106de57600080fd5b6000600160a060020a0382161515610cac57600080fd5b50600160a060020a031660009081526002602052604090205490565b600c5460009033600160a060020a03908116911614610ce657600080fd5b50600e54610cf433826113d2565b610d2d8186868080601f01602080910402602001604051908101604052818152929190602084018383808284375061100e945050505050565b6000818152600f60205260409020610d46908484611aee565b50600e54610d5b90600163ffffffff61140f16565b600e555050505050565b600c5433600160a060020a03908116911614610d8057600080fd5b61089f600b8383611aee565b610d94611adc565b60058054600181600116156101000203166002900480601f0160208091040260200160405190810160405280929190818152602001828054600181600116156101000203166002900480156107825780601f1061075757610100808354040283529160200191610782565b33600160a060020a031682600160a060020a031614151515610e2057600080fd5b33600160a060020a0390811660008181526003602090815260408083209487168084529490915290819020805460ff19168515151790557f17307eab39ab6107e8899845ad3d59bd9653f200f220920489ca2b5937696c3190849051901515815260200160405180910390a35050565b6000610eac610e9e83611425565b610ea784610ab7565b6114d8565b6040518082805190602001908083835b60208310610edb5780518252601f199092019160209182019101610ebc565b6001836020036101000a038019825116818451161790925250505091909101925060409150505180910390209050919050565b81610f193382611041565b1515610f2457600080fd5b610f2f858585610912565b610f3b8585858561151b565b1515610f4657600080fd5b5050505050565b610f55611adc565b600a60008381526020019081526020016000208054600181600116156101000203166002900480601f016020809104026020016040519081016040528092919081815260200182805460018160011615610100020316600290048015610b665780601f10610b3b57610100808354040283529160200191610b66565b600c54600160a060020a031681565b600160a060020a03918216600090815260036020908152604080832093909416825291909152205460ff1690565b61101782610b72565b151561102257600080fd5b6000828152600a6020526040902081805161089f929160200190611b6c565b60008061104d83610c71565b905080600160a060020a031684600160a060020a03161480611088575083600160a060020a031661107d8461078d565b600160a060020a0316145b8061109857506110988185610fe0565b949350505050565b81600160a060020a03166110b382610c71565b600160a060020a0316146110c657600080fd5b600081815260016020526040902054600160a060020a031615610ab357600081815260016020526040808220805473ffffffffffffffffffffffffffffffffffffffff19169055600160a060020a038416907f8c5be1e5ebec7d5bd14f71427d1e84f3dd0314c0f7b2291e5b200ac8c7c3b9259084905190815260200160405180910390a35050565b600080600061115e8585611675565b600084815260076020908152604080832054600160a060020a038916845260069092529091205490935061119990600163ffffffff61170a16565b600160a060020a0386166000908152600660205260409020805491935090839081106111c157fe5b6000918252602080832090910154600160a060020a03881683526006909152604090912080549192508291859081106111f657fe5b6000918252602080832090910192909255600160a060020a038716815260069091526040812080548490811061122857fe5b6000918252602080832090910192909255600160a060020a038716815260069091526040902080549061125f906000198301611bda565b50600093845260076020526040808520859055908452909220555050565b6000611289838361171c565b50600160a060020a038216600090815260066020526040902080549081600181016112b48382611bda565b506000918252602080832091909101849055928152600790925260409091205550565b60008060006112e685856117ab565b6000848152600a60205260409020546002600019610100600184161502019091160415611324576000848152600a6020526040812061132491611bfe565b60008481526009602052604090205460085490935061134a90600163ffffffff61170a16565b915060088281548110151561135b57fe5b90600052602060002090015490508060088481548110151561137957fe5b6000918252602082200191909155600880548490811061139557fe5b60009182526020909120015560088054906113b4906000198301611bda565b50600093845260096020526040808520859055908452909220555050565b6113dc8282611802565b600880546000838152600960205260409020819055600181016113ff8382611bda565b5060009182526020909120015550565b60008282018381101561141e57fe5b9392505050565b61142d611adc565b611435611adc565b60008060206040518059106114475750595b818152601f19601f830116810160200160405290509250600091505b60208210156114cf57506008810260020a84027fff000000000000000000000000000000000000000000000000000000000000008116156114c457808383815181106114ab57fe5b906020010190600160f860020a031916908160001a9053505b600190910190611463565b50909392505050565b6114e0611adc565b61141e838360206040519081016040528060008152506020604051908101604052806000815250602060405190810160405260008152611864565b60008061153085600160a060020a0316611ad4565b151561153f576001915061166c565b84600160a060020a031663f0b9e5ba8786866040518463ffffffff167c01000000000000000000000000000000000000000000000000000000000281526004018084600160a060020a0316600160a060020a0316815260200183815260200180602001828103825283818151815260200191508051906020019080838360005b838110156115d75780820151838201526020016115bf565b50505050905090810190601f1680156116045780820380516001836020036101000a031916815260200191505b50945050505050602060405180830381600087803b151561162457600080fd5b5af1151561163157600080fd5b5050506040518051600160e060020a031981167ff0b9e5ba000000000000000000000000000000000000000000000000000000001493509150505b50949350505050565b81600160a060020a031661168882610c71565b600160a060020a03161461169b57600080fd5b600160a060020a0382166000908152600260205260409020546116c590600163ffffffff61170a16565b600160a060020a039092166000908152600260209081526040808320949094559181529081905220805473ffffffffffffffffffffffffffffffffffffffff19169055565b60008282111561171657fe5b50900390565b600081815260208190526040902054600160a060020a03161561173e57600080fd5b600081815260208181526040808320805473ffffffffffffffffffffffffffffffffffffffff1916600160a060020a0387169081179091558352600290915290205461178b90600161140f565b600160a060020a0390921660009081526002602052604090209190915550565b6117b582826110a0565b6117bf828261114f565b6000600160a060020a0383167fddf252ad1be2c89b69c2b068fc378daa952ba7f163c4a11628f55a4df523b3ef8360405190815260200160405180910390a35050565b600160a060020a038216151561181757600080fd5b611821828261127d565b600160a060020a03821660007fddf252ad1be2c89b69c2b068fc378daa952ba7f163c4a11628f55a4df523b3ef8360405190815260200160405180910390a35050565b61186c611adc565b611874611adc565b61187c611adc565b611884611adc565b61188c611adc565b611894611adc565b61189c611adc565b6118a4611adc565b6000808e98508d97508c96508b95508a94508451865188518a518c51010101016040518059106118d15750595b818152601f19601f83011681016020016040529050935083925060009150600090505b885181101561194d5788818151811061190957fe5b016020015160f860020a900460f860020a0283838060010194508151811061192d57fe5b906020010190600160f860020a031916908160001a9053506001016118f4565b5060005b87518110156119aa5787818151811061196657fe5b016020015160f860020a900460f860020a0283838060010194508151811061198a57fe5b906020010190600160f860020a031916908160001a905350600101611951565b5060005b8651811015611a07578681815181106119c357fe5b016020015160f860020a900460f860020a028383806001019450815181106119e757fe5b906020010190600160f860020a031916908160001a9053506001016119ae565b5060005b8551811015611a6457858181518110611a2057fe5b016020015160f860020a900460f860020a02838380600101945081518110611a4457fe5b906020010190600160f860020a031916908160001a905350600101611a0b565b5060005b8451811015611ac157848181518110611a7d57fe5b016020015160f860020a900460f860020a02838380600101945081518110611aa157fe5b906020010190600160f860020a031916908160001a905350600101611a68565b50909d9c50505050505050505050505050565b6000903b1190565b60206040519081016040526000815290565b828054600181600116156101000203166002900490600052602060002090601f016020900481019282601f10611b2f5782800160ff19823516178555611b5c565b82800160010185558215611b5c579182015b82811115611b5c578235825591602001919060010190611b41565b50611b68929150611c45565b5090565b828054600181600116156101000203166002900490600052602060002090601f016020900481019282601f10611bad57805160ff1916838001178555611b5c565b82800160010185558215611b5c579182015b82811115611b5c578251825591602001919060010190611bbf565b81548183558181151161089f5760008381526020902061089f918101908301611c45565b50805460018160011615610100020316600290046000825580601f10611c245750611c42565b601f016020900490600052602060002090810190611c429190611c45565b50565b61078a91905b80821115611b685760008155600101611c4b5600a165627a7a7230582065ef975de1b3d14835f2ccfd42a038e45ee7494cf87993888b2d07336d471ebe0029",
  "source": "pragma solidity ^0.4.21;\n\n\nimport \"./ERC721Token.sol\";\n\nimport \"./Strings.sol\";\n\nimport \"./ERC165.sol\";\n\n/**\n* @title DART\n*/\ncontract DART is ERC721Token, ERC165 {\n  using SafeMath for uint256;\n\n  bytes4 constant InterfaceSignature_ERC165 = 0x01ffc9a7;\n    /*\n    bytes4(keccak256('supportsInterface(bytes4)'));\n    */\n\n  bytes4 constant InterfaceSignature_ERC721Enumerable = 0x780e9d63;\n    /*\n    bytes4(keccak256('totalSupply()')) ^\n    bytes4(keccak256('tokenOfOwnerByIndex(address,uint256)')) ^\n    bytes4(keccak256('tokenByIndex(uint256)'));\n    */\n\n  bytes4 constant InterfaceSignature_ERC721Metadata = 0x5b5e139f;\n    /*\n    bytes4(keccak256('name()')) ^\n    bytes4(keccak256('symbol()')) ^\n    bytes4(keccak256('tokenURI(uint256)'));\n    */\n\n  bytes4 constant InterfaceSignature_ERC721 = 0x80ac58cd;\n    /*\n    bytes4(keccak256('balanceOf(address)')) ^\n    bytes4(keccak256('ownerOf(uint256)')) ^\n    bytes4(keccak256('approve(address,uint256)')) ^\n    bytes4(keccak256('getApproved(uint256)')) ^\n    bytes4(keccak256('setApprovalForAll(address,bool)')) ^\n    bytes4(keccak256('isApprovedForAll(address,address)')) ^\n    bytes4(keccak256('transferFrom(address,address,uint256)')) ^\n    bytes4(keccak256('safeTransferFrom(address,address,uint256)')) ^\n    bytes4(keccak256('safeTransferFrom(address,address,uint256,bytes)'));\n    */\n\n  bytes4 public constant InterfaceSignature_ERC721Optional =- 0x4f558e79;\n    /*\n    bytes4(keccak256('exists(uint256)'));\n    */\n\n  /**\n   * @notice Introspection interface as per ERC-165 (https://github.com/ethereum/EIPs/issues/165).\n   * @dev Returns true for any standardized interfaces implemented by this contract.\n   * @param _interfaceID bytes4 the interface to check for\n   * @return true for any standardized interfaces implemented by this contract.\n   */\n  function supportsInterface(bytes4 _interfaceID) external pure returns (bool) {\n    return ((_interfaceID == InterfaceSignature_ERC165)\n    || (_interfaceID == InterfaceSignature_ERC721)\n    || (_interfaceID == InterfaceSignature_ERC721Optional)\n    || (_interfaceID == InterfaceSignature_ERC721Enumerable)\n    || (_interfaceID == InterfaceSignature_ERC721Metadata));\n  }\n\n  string internal tokenBaseURI = \"https://ipfs.infura.io/ipfs/\";\n\n  // creator and owner\n  address public curatorAccount;\n\n  // total wei sent to the  contract\n  uint256 public totalContributionsInWei;\n\n  // A pointer to the next token to be minted, zero indexed\n  uint256 public tokenIdPointer = 0;\n\n  mapping (uint256 => string) internal tokenIdToHandle;\n\n  modifier onlyCurator() {\n    require(msg.sender == curatorAccount);\n    _;\n  }\n\n  modifier onlyDARTOwnedToken(uint256 _tokenId) {\n    require(tokenOwner[_tokenId] == curatorAccount);\n    _;\n  }\n\n  modifier onlyDART() {\n    require(msg.sender == curatorAccount);\n    _;\n  }\n\n  function DART() public ERC721Token(\"Digital Art\", \"DART\") {\n    curatorAccount = msg.sender;\n  }\n\n  // don't accept payment directly to contract\n  function() public payable {\n    revert();\n  }\n\n  /**\n   * @dev Mint a new DART token\n   * @dev Reverts if not called by curator\n   * @param _tokenURI the IPFS or equivalent hash\n   * @param _handle char stamp of token owner\n   */\n  function mint(string _tokenURI, string _handle) external onlyDART {\n    uint256 _tokenId = tokenIdPointer;\n\n    super._mint(msg.sender, _tokenId);\n    super._setTokenURI(_tokenId, _tokenURI);\n\n    tokenIdToHandle[_tokenId] = _handle;\n\n    tokenIdPointer = tokenIdPointer.add(1);\n  }\n\n  /**\n   * @dev Burns a DART token\n   * @dev Reverts if token is not unsold or not owned by management\n   * @param _tokenId the KODA token ID\n   */\n  function burn(uint256 _tokenId) external onlyDART onlyDARTOwnedToken(_tokenId) {\n    require(exists(_tokenId));\n    super._burn(ownerOf(_tokenId), _tokenId);\n  }\n\n  /**\n   * @dev Utility function for updating a DART assets token URI\n   * @dev Reverts if not called by management\n   * @param _tokenId the DART token ID\n   * @param _uri the token URI, will be concatenated with baseUri\n   */\n  function setTokenURI(uint256 _tokenId, string _uri) external onlyDART {\n    require(exists(_tokenId));\n    _setTokenURI(_tokenId, _uri);\n  }\n\n  /**\n   * @dev Return owned tokens\n   * @param _owner address to query\n   */\n  function tokensOf(address _owner) public view returns (uint256[] _tokenIds) {\n    return ownedTokens[_owner];\n  }\n\n  /**\n  * @dev Return handle of token\n  * @param _tokenId token ID for handle lookup\n  */\n  function handleOf(uint256 _tokenId) public view returns (string _handle) {\n    return tokenIdToHandle[_tokenId];\n  }\n\n  /**\n   * @dev Get token URI fro the given token, useful for testing purposes\n   * @param _tokenId the KODA token ID\n   * @return the token ID or only the base URI if not found\n   */\n  function tokenURI(uint256 _tokenId) public view returns (string) {\n//    return Strings.strConcat(tokenBaseURI, tokenURIs[_tokenId]);\n    return tokenURIs[_tokenId];\n  }\n\n  /**\n   * @dev Allows management to update the base tokenURI path\n   * @dev Reverts if not called by management\n   * @param _newBaseURI the new base URI to set\n   */\n  function setTokenBaseURI(string _newBaseURI) external onlyDART {\n    tokenBaseURI = _newBaseURI;\n  }\n\n\n  function tokenHash(uint256 _tokenId) public view returns (bytes32) {\n    return keccak256(strConcat(bytes32ToString(bytes32(_tokenId)), handleOf(_tokenId)));\n  }\n\n  // SHOULD BE IN Strings.sol\n\n  // via https://github.com/oraclize/ethereum-api/blob/master/oraclizeAPI_0.5.sol\n  function strConcat(string _a, string _b, string _c, string _d, string _e) internal pure returns (string) {\n    bytes memory _ba = bytes(_a);\n    bytes memory _bb = bytes(_b);\n    bytes memory _bc = bytes(_c);\n    bytes memory _bd = bytes(_d);\n    bytes memory _be = bytes(_e);\n    string memory abcde = new string(_ba.length + _bb.length + _bc.length + _bd.length + _be.length);\n    bytes memory babcde = bytes(abcde);\n    uint k = 0;\n    for (uint i = 0; i < _ba.length; i++) babcde[k++] = _ba[i];\n    for (i = 0; i < _bb.length; i++) babcde[k++] = _bb[i];\n    for (i = 0; i < _bc.length; i++) babcde[k++] = _bc[i];\n    for (i = 0; i < _bd.length; i++) babcde[k++] = _bd[i];\n    for (i = 0; i < _be.length; i++) babcde[k++] = _be[i];\n    return string(babcde);\n  }\n\n  function strConcat(string _a, string _b, string _c, string _d) internal pure returns (string) {\n    return strConcat(_a, _b, _c, _d, \"\");\n  }\n\n  function strConcat(string _a, string _b, string _c) internal pure returns (string) {\n    return strConcat(_a, _b, _c, \"\", \"\");\n  }\n\n  function strConcat(string _a, string _b) internal pure returns (string) {\n    return strConcat(_a, _b, \"\", \"\", \"\");\n  }\n\n  function bytes32ToString(bytes32 data) internal pure returns (string) {\n    bytes memory bytesString = new bytes(32);\n    for (uint j = 0; j < 32; j++) {\n      byte char = byte(bytes32(uint(data) * 2 ** (8 * j)));\n      if (char != 0) {\n        bytesString[j] = char;\n      }\n    }\n    return string(bytesString);\n  }\n}\n",
  "sourcePath": "/Users/andy/workspace/art-blocks/contracts/DART.sol",
  "compiler": {
    "name": "solc",
    "version": "0.4.21+commit.dfe3193c.Emscripten.clang"
  },
  "schemaVersion": "2.0.0",
  "updatedAt": "2018-04-25T11:33:45.672Z"
}