{
  "contractName": "DART",
  "abi": [
    {
      "constant": true,
      "inputs": [],
      "name": "name",
      "outputs": [
        {
          "name": "",
          "type": "string"
        }
      ],
      "payable": false,
      "stateMutability": "view",
      "type": "function"
    },
    {
      "constant": true,
      "inputs": [
        {
          "name": "_tokenId",
          "type": "uint256"
        }
      ],
      "name": "getApproved",
      "outputs": [
        {
          "name": "",
          "type": "address"
        }
      ],
      "payable": false,
      "stateMutability": "view",
      "type": "function"
    },
    {
      "constant": false,
      "inputs": [
        {
          "name": "_to",
          "type": "address"
        },
        {
          "name": "_tokenId",
          "type": "uint256"
        }
      ],
      "name": "approve",
      "outputs": [],
      "payable": false,
      "stateMutability": "nonpayable",
      "type": "function"
    },
    {
      "constant": true,
      "inputs": [],
      "name": "totalSupply",
      "outputs": [
        {
          "name": "",
          "type": "uint256"
        }
      ],
      "payable": false,
      "stateMutability": "view",
      "type": "function"
    },
    {
      "constant": false,
      "inputs": [
        {
          "name": "_from",
          "type": "address"
        },
        {
          "name": "_to",
          "type": "address"
        },
        {
          "name": "_tokenId",
          "type": "uint256"
        }
      ],
      "name": "transferFrom",
      "outputs": [],
      "payable": false,
      "stateMutability": "nonpayable",
      "type": "function"
    },
    {
      "constant": false,
      "inputs": [
        {
          "name": "addrs",
          "type": "address[]"
        }
      ],
      "name": "removeAddressesFromWhitelist",
      "outputs": [
        {
          "name": "success",
          "type": "bool"
        }
      ],
      "payable": false,
      "stateMutability": "nonpayable",
      "type": "function"
    },
    {
      "constant": false,
      "inputs": [
        {
          "name": "addr",
          "type": "address"
        }
      ],
      "name": "removeAddressFromWhitelist",
      "outputs": [
        {
          "name": "success",
          "type": "bool"
        }
      ],
      "payable": false,
      "stateMutability": "nonpayable",
      "type": "function"
    },
    {
      "constant": true,
      "inputs": [
        {
          "name": "_owner",
          "type": "address"
        },
        {
          "name": "_index",
          "type": "uint256"
        }
      ],
      "name": "tokenOfOwnerByIndex",
      "outputs": [
        {
          "name": "",
          "type": "uint256"
        }
      ],
      "payable": false,
      "stateMutability": "view",
      "type": "function"
    },
    {
      "constant": false,
      "inputs": [
        {
          "name": "_from",
          "type": "address"
        },
        {
          "name": "_to",
          "type": "address"
        },
        {
          "name": "_tokenId",
          "type": "uint256"
        }
      ],
      "name": "safeTransferFrom",
      "outputs": [],
      "payable": false,
      "stateMutability": "nonpayable",
      "type": "function"
    },
    {
      "constant": true,
      "inputs": [
        {
          "name": "_tokenId",
          "type": "uint256"
        }
      ],
      "name": "exists",
      "outputs": [
        {
          "name": "",
          "type": "bool"
        }
      ],
      "payable": false,
      "stateMutability": "view",
      "type": "function"
    },
    {
      "constant": true,
      "inputs": [
        {
          "name": "_index",
          "type": "uint256"
        }
      ],
      "name": "tokenByIndex",
      "outputs": [
        {
          "name": "",
          "type": "uint256"
        }
      ],
      "payable": false,
      "stateMutability": "view",
      "type": "function"
    },
    {
      "constant": true,
      "inputs": [],
      "name": "totalContributionsInWei",
      "outputs": [
        {
          "name": "",
          "type": "uint256"
        }
      ],
      "payable": false,
      "stateMutability": "view",
      "type": "function"
    },
    {
      "constant": true,
      "inputs": [],
      "name": "InterfaceSignature_ERC721Optional",
      "outputs": [
        {
          "name": "",
          "type": "bytes4"
        }
      ],
      "payable": false,
      "stateMutability": "view",
      "type": "function"
    },
    {
      "constant": true,
      "inputs": [
        {
          "name": "_tokenId",
          "type": "uint256"
        }
      ],
      "name": "ownerOf",
      "outputs": [
        {
          "name": "",
          "type": "address"
        }
      ],
      "payable": false,
      "stateMutability": "view",
      "type": "function"
    },
    {
      "constant": true,
      "inputs": [
        {
          "name": "_owner",
          "type": "address"
        }
      ],
      "name": "balanceOf",
      "outputs": [
        {
          "name": "",
          "type": "uint256"
        }
      ],
      "payable": false,
      "stateMutability": "view",
      "type": "function"
    },
    {
      "constant": false,
      "inputs": [
        {
          "name": "addr",
          "type": "address"
        }
      ],
      "name": "addAddressToWhitelist",
      "outputs": [
        {
          "name": "success",
          "type": "bool"
        }
      ],
      "payable": false,
      "stateMutability": "nonpayable",
      "type": "function"
    },
    {
      "constant": true,
      "inputs": [],
      "name": "owner",
      "outputs": [
        {
          "name": "",
          "type": "address"
        }
      ],
      "payable": false,
      "stateMutability": "view",
      "type": "function"
    },
    {
      "constant": true,
      "inputs": [],
      "name": "symbol",
      "outputs": [
        {
          "name": "",
          "type": "string"
        }
      ],
      "payable": false,
      "stateMutability": "view",
      "type": "function"
    },
    {
      "constant": true,
      "inputs": [
        {
          "name": "",
          "type": "address"
        }
      ],
      "name": "whitelist",
      "outputs": [
        {
          "name": "",
          "type": "bool"
        }
      ],
      "payable": false,
      "stateMutability": "view",
      "type": "function"
    },
    {
      "constant": false,
      "inputs": [
        {
          "name": "_to",
          "type": "address"
        },
        {
          "name": "_approved",
          "type": "bool"
        }
      ],
      "name": "setApprovalForAll",
      "outputs": [],
      "payable": false,
      "stateMutability": "nonpayable",
      "type": "function"
    },
    {
      "constant": true,
      "inputs": [],
      "name": "pricePerBlock",
      "outputs": [
        {
          "name": "",
          "type": "uint256"
        }
      ],
      "payable": false,
      "stateMutability": "view",
      "type": "function"
    },
    {
      "constant": false,
      "inputs": [
        {
          "name": "_from",
          "type": "address"
        },
        {
          "name": "_to",
          "type": "address"
        },
        {
          "name": "_tokenId",
          "type": "uint256"
        },
        {
          "name": "_data",
          "type": "bytes"
        }
      ],
      "name": "safeTransferFrom",
      "outputs": [],
      "payable": false,
      "stateMutability": "nonpayable",
      "type": "function"
    },
    {
      "constant": true,
      "inputs": [],
      "name": "maxBlockPurchaseInOneGo",
      "outputs": [
        {
          "name": "",
          "type": "uint256"
        }
      ],
      "payable": false,
      "stateMutability": "view",
      "type": "function"
    },
    {
      "constant": true,
      "inputs": [],
      "name": "donationPercentage",
      "outputs": [
        {
          "name": "",
          "type": "uint8"
        }
      ],
      "payable": false,
      "stateMutability": "view",
      "type": "function"
    },
    {
      "constant": false,
      "inputs": [
        {
          "name": "addrs",
          "type": "address[]"
        }
      ],
      "name": "addAddressesToWhitelist",
      "outputs": [
        {
          "name": "success",
          "type": "bool"
        }
      ],
      "payable": false,
      "stateMutability": "nonpayable",
      "type": "function"
    },
    {
      "constant": true,
      "inputs": [
        {
          "name": "_owner",
          "type": "address"
        },
        {
          "name": "_operator",
          "type": "address"
        }
      ],
      "name": "isApprovedForAll",
      "outputs": [
        {
          "name": "",
          "type": "bool"
        }
      ],
      "payable": false,
      "stateMutability": "view",
      "type": "function"
    },
    {
      "constant": false,
      "inputs": [
        {
          "name": "newOwner",
          "type": "address"
        }
      ],
      "name": "transferOwnership",
      "outputs": [],
      "payable": false,
      "stateMutability": "nonpayable",
      "type": "function"
    },
    {
      "inputs": [],
      "payable": false,
      "stateMutability": "nonpayable",
      "type": "constructor"
    },
    {
      "payable": true,
      "stateMutability": "payable",
      "type": "fallback"
    },
    {
      "anonymous": false,
      "inputs": [
        {
          "indexed": false,
          "name": "addr",
          "type": "address"
        }
      ],
      "name": "WhitelistedAddressAdded",
      "type": "event"
    },
    {
      "anonymous": false,
      "inputs": [
        {
          "indexed": false,
          "name": "addr",
          "type": "address"
        }
      ],
      "name": "WhitelistedAddressRemoved",
      "type": "event"
    },
    {
      "anonymous": false,
      "inputs": [
        {
          "indexed": true,
          "name": "previousOwner",
          "type": "address"
        },
        {
          "indexed": true,
          "name": "newOwner",
          "type": "address"
        }
      ],
      "name": "OwnershipTransferred",
      "type": "event"
    },
    {
      "anonymous": false,
      "inputs": [
        {
          "indexed": true,
          "name": "_from",
          "type": "address"
        },
        {
          "indexed": true,
          "name": "_to",
          "type": "address"
        },
        {
          "indexed": false,
          "name": "_tokenId",
          "type": "uint256"
        }
      ],
      "name": "Transfer",
      "type": "event"
    },
    {
      "anonymous": false,
      "inputs": [
        {
          "indexed": true,
          "name": "_owner",
          "type": "address"
        },
        {
          "indexed": true,
          "name": "_approved",
          "type": "address"
        },
        {
          "indexed": false,
          "name": "_tokenId",
          "type": "uint256"
        }
      ],
      "name": "Approval",
      "type": "event"
    },
    {
      "anonymous": false,
      "inputs": [
        {
          "indexed": true,
          "name": "_owner",
          "type": "address"
        },
        {
          "indexed": true,
          "name": "_operator",
          "type": "address"
        },
        {
          "indexed": false,
          "name": "_approved",
          "type": "bool"
        }
      ],
      "name": "ApprovalForAll",
      "type": "event"
    },
    {
      "constant": true,
      "inputs": [
        {
          "name": "_interfaceID",
          "type": "bytes4"
        }
      ],
      "name": "supportsInterface",
      "outputs": [
        {
          "name": "",
          "type": "bool"
        }
      ],
      "payable": false,
      "stateMutability": "pure",
      "type": "function"
    },
    {
      "constant": false,
      "inputs": [
        {
          "name": "_tokenId",
          "type": "uint256"
        }
      ],
      "name": "fundDart",
      "outputs": [],
      "payable": true,
      "stateMutability": "payable",
      "type": "function"
    },
    {
      "constant": false,
      "inputs": [
        {
          "name": "_blockHash",
          "type": "bytes32"
        },
        {
          "name": "_tokenId",
          "type": "uint256"
        },
        {
          "name": "_nickname",
          "type": "string"
        }
      ],
      "name": "mint",
      "outputs": [],
      "payable": false,
      "stateMutability": "nonpayable",
      "type": "function"
    },
    {
      "constant": false,
      "inputs": [
        {
          "name": "_tokenId",
          "type": "uint256"
        }
      ],
      "name": "burn",
      "outputs": [],
      "payable": false,
      "stateMutability": "nonpayable",
      "type": "function"
    },
    {
      "constant": false,
      "inputs": [
        {
          "name": "_tokenId",
          "type": "uint256"
        },
        {
          "name": "_uri",
          "type": "string"
        }
      ],
      "name": "setTokenURI",
      "outputs": [],
      "payable": false,
      "stateMutability": "nonpayable",
      "type": "function"
    },
    {
      "constant": true,
      "inputs": [
        {
          "name": "_owner",
          "type": "address"
        }
      ],
      "name": "tokensOf",
      "outputs": [
        {
          "name": "_tokenIds",
          "type": "uint256[]"
        }
      ],
      "payable": false,
      "stateMutability": "view",
      "type": "function"
    },
    {
      "constant": true,
      "inputs": [
        {
          "name": "_tokenId",
          "type": "uint256"
        }
      ],
      "name": "nicknameOf",
      "outputs": [
        {
          "name": "_nickname",
          "type": "string"
        }
      ],
      "payable": false,
      "stateMutability": "view",
      "type": "function"
    },
    {
      "constant": true,
      "inputs": [
        {
          "name": "_tokenId",
          "type": "uint256"
        }
      ],
      "name": "blockhashOf",
      "outputs": [
        {
          "name": "hash",
          "type": "bytes32"
        }
      ],
      "payable": false,
      "stateMutability": "view",
      "type": "function"
    },
    {
      "constant": true,
      "inputs": [
        {
          "name": "_tokenId",
          "type": "uint256"
        }
      ],
      "name": "tokenURI",
      "outputs": [
        {
          "name": "",
          "type": "string"
        }
      ],
      "payable": false,
      "stateMutability": "view",
      "type": "function"
    },
    {
      "constant": false,
      "inputs": [
        {
          "name": "_newBaseURI",
          "type": "string"
        }
      ],
      "name": "setTokenBaseURI",
      "outputs": [],
      "payable": false,
      "stateMutability": "nonpayable",
      "type": "function"
    },
    {
      "constant": true,
      "inputs": [
        {
          "name": "_tokenId",
          "type": "uint256"
        }
      ],
      "name": "tokenHash",
      "outputs": [
        {
          "name": "",
          "type": "bytes32"
        }
      ],
      "payable": false,
      "stateMutability": "view",
      "type": "function"
    },
    {
      "constant": true,
      "inputs": [],
      "name": "nextHash",
      "outputs": [
        {
          "name": "_tokenHash",
          "type": "bytes32"
        }
      ],
      "payable": false,
      "stateMutability": "view",
      "type": "function"
    },
    {
      "constant": true,
      "inputs": [],
      "name": "blockNumber",
      "outputs": [
        {
          "name": "_blockNumber",
          "type": "uint256"
        }
      ],
      "payable": false,
      "stateMutability": "view",
      "type": "function"
    }
  ],
  "bytecode": "0x606060405260408051908101604052601c81527f68747470733a2f2f697066732e696e667572612e696f2f697066732f000000006020820152600d9080516200004d9291602001906200025e565b50662386f26fc10000600f556010805460ff19166001179055600a601155600060155534156200007c57600080fd5b604080519081016040908152600b82527f4469676974616c204172740000000000000000000000000000000000000000006020830152805190810160405260048082527f44415254000000000000000000000000000000000000000000000000000000006020830152828051620000f89291602001906200025e565b5060058180516200010e9291602001906200025e565b5050600b8054600160a060020a03191633600160a060020a03811691909117909155436015556200014e9150640100000000620001b18102620011241704565b506200017c73f43ae50c468c3d3fa0c3dc3454e797317ef5307864010000000062001124620001b182021704565b50620001aa73e1023c112a39c58238929153f25364c11a33b72964010000000062001124620001b182021704565b5062000303565b600b5460009033600160a060020a03908116911614620001d057600080fd5b600160a060020a0382166000908152600c602052604090205460ff1615156200025957600160a060020a0382166000908152600c602052604090819020805460ff191660011790557fd1bba68c128cc3f427e5831b3c6f99f480b6efa6b9e80c757768f6124158cc3f90839051600160a060020a03909116815260200160405180910390a15060015b919050565b828054600181600116156101000203166002900490600052602060002090601f016020900481019282601f10620002a157805160ff1916838001178555620002d1565b82800160010185558215620002d1579182015b82811115620002d1578251825591602001919060010190620002b4565b50620002df929150620002e3565b5090565b6200030091905b80821115620002df5760008155600101620002ea565b90565b6122c380620003136000396000f3006060604052600436106101ed5763ffffffff7c010000000000000000000000000000000000000000000000000000000060003504166301ffc9a781146101f257806306fdde031461022657806307518c8e146102b0578063081812fc146102d8578063095ea7b31461030a578063162094c41461032e57806318160ddd1461035057806323b872dd1461036357806324953eaa1461038b578063286dd3f5146103da5780632f745c59146103f957806342842e0e1461041b57806342966c68146104435780634f558e79146104595780634f6ccce71461046f57806354f50f1b1461048557806357e871e71461049b5780635a3f2672146104ae5780635a7cb31b14610520578063624de3d9146105335780636352211e146105635780636ed2e7781461057957806370a0823114610584578063727f0067146105a35780637b9417c8146105b65780638da5cb5b146105d55780638ef79e91146105e857806395d89b41146106065780639b19251a146106195780639fb6c79614610638578063a22cb4651461065e578063a386439714610682578063ab792cdb14610698578063b88d4fde146106ab578063bb8270fa14610717578063c16cc8101461072a578063c87b56dd14610753578063e2ec6ec314610769578063e985e9c5146107b8578063f2fde38b146107dd575b600080fd5b34156101fd57600080fd5b610212600160e060020a0319600435166107fc565b604051901515815260200160405180910390f35b341561023157600080fd5b610239610903565b60405160208082528190810183818151815260200191508051906020019080838360005b8381101561027557808201518382015260200161025d565b50505050905090810190601f1680156102a25780820380516001836020036101000a031916815260200191505b509250505060405180910390f35b34156102bb57600080fd5b6102c66004356109ac565b60405190815260200160405180910390f35b34156102e357600080fd5b6102ee6004356109be565b604051600160a060020a03909116815260200160405180910390f35b341561031557600080fd5b61032c600160a060020a03600435166024356109d9565b005b341561033957600080fd5b61032c600480359060248035908101910135610ad5565b341561035b57600080fd5b6102c6610b49565b341561036e57600080fd5b61032c600160a060020a0360043581169060243516604435610b4f565b341561039657600080fd5b6102126004602481358181019083013580602081810201604051908101604052809392919081815260200183836020028082843750949650610bfa95505050505050565b34156103e557600080fd5b610212600160a060020a0360043516610c5d565b341561040457600080fd5b6102c6600160a060020a0360043516602435610d03565b341561042657600080fd5b61032c600160a060020a0360043581169060243516604435610d51565b341561044e57600080fd5b61032c600435610d87565b341561046457600080fd5b610212600435610e03565b341561047a57600080fd5b6102c6600435610e20565b341561049057600080fd5b610239600435610e56565b34156104a657600080fd5b6102c6610f11565b34156104b957600080fd5b6104cd600160a060020a0360043516610f15565b60405160208082528190810183818151815260200191508051906020019060200280838360005b8381101561050c5780820151838201526020016104f4565b505050509050019250505060405180910390f35b341561052b57600080fd5b6102c6610f97565b341561053e57600080fd5b610546610f9d565b604051600160e060020a0319909116815260200160405180910390f35b341561056e57600080fd5b6102ee600435610fc1565b61032c600435610feb565b341561058f57600080fd5b6102c6600160a060020a03600435166110a7565b34156105ae57600080fd5b6102c66110da565b34156105c157600080fd5b610212600160a060020a0360043516611124565b34156105e057600080fd5b6102ee6111ce565b34156105f357600080fd5b61032c60048035602481019101356111dd565b341561061157600080fd5b610239611210565b341561062457600080fd5b610212600160a060020a0360043516611283565b341561064357600080fd5b61032c60048035906024803591604435918201910135611298565b341561066957600080fd5b61032c600160a060020a03600435166024351515611375565b341561068d57600080fd5b6102c6600435611406565b34156106a357600080fd5b6102c661142f565b34156106b657600080fd5b61032c600160a060020a036004803582169160248035909116916044359160849060643590810190830135806020601f8201819004810201604051908101604052818152929190602084018383808284375094965061143595505050505050565b341561072257600080fd5b6102c661146d565b341561073557600080fd5b61073d611473565b60405160ff909116815260200160405180910390f35b341561075e57600080fd5b61023960043561147c565b341561077457600080fd5b61021260046024813581810190830135806020818102016040519081016040528093929190818152602001838360200280828437509496506115d395505050505050565b34156107c357600080fd5b610212600160a060020a0360043581169060243516611630565b34156107e857600080fd5b61032c600160a060020a036004351661165e565b6000600160e060020a031982167f01ffc9a700000000000000000000000000000000000000000000000000000000148061085f5750600160e060020a031982167f80ac58cd00000000000000000000000000000000000000000000000000000000145b806108935750600160e060020a031982167fb0aa718700000000000000000000000000000000000000000000000000000000145b806108c75750600160e060020a031982167f780e9d6300000000000000000000000000000000000000000000000000000000145b806108fb5750600160e060020a031982167f5b5e139f00000000000000000000000000000000000000000000000000000000145b90505b919050565b61090b612114565b60048054600181600116156101000203166002900480601f0160208091040260200160405190810160405280929190818152602001828054600181600116156101000203166002900480156109a15780601f10610976576101008083540402835291602001916109a1565b820191906000526020600020905b81548152906001019060200180831161098457829003601f168201915b505050505090505b90565b60009081526012602052604090205490565b600090815260016020526040902054600160a060020a031690565b60006109e482610fc1565b9050600160a060020a0383811690821614156109ff57600080fd5b80600160a060020a031633600160a060020a03161480610a245750610a248133611630565b1515610a2f57600080fd5b6000610a3a836109be565b600160a060020a0316141580610a585750600160a060020a03831615155b15610ad05760008281526001602052604090819020805473ffffffffffffffffffffffffffffffffffffffff1916600160a060020a0386811691821790925591908316907f8c5be1e5ebec7d5bd14f71427d1e84f3dd0314c0f7b2291e5b200ac8c7c3b9259085905190815260200160405180910390a35b505050565b600160a060020a0333166000908152600c602052604090205460ff161515610afc57600080fd5b610b0583610e03565b1515610b1057600080fd5b610ad08383838080601f0160208091040260200160405190810160405281815292919060208401838380828437506116f9945050505050565b60085490565b80610b5a338261172c565b1515610b6557600080fd5b600160a060020a0384161515610b7a57600080fd5b600160a060020a0383161515610b8f57600080fd5b610b99848361178b565b610ba3848361183a565b610bad8383611968565b82600160a060020a031684600160a060020a03167fddf252ad1be2c89b69c2b068fc378daa952ba7f163c4a11628f55a4df523b3ef8460405190815260200160405180910390a350505050565b600b54600090819033600160a060020a03908116911614610c1a57600080fd5b5060005b8251811015610c5757610c45838281518110610c3657fe5b90602001906020020151610c5d565b15610c4f57600191505b600101610c1e565b50919050565b600b5460009033600160a060020a03908116911614610c7b57600080fd5b600160a060020a0382166000908152600c602052604090205460ff16156108fe57600160a060020a0382166000908152600c602052604090819020805460ff191690557ff1abf01a1043b7c244d128e8595cf0c1d10743b022b03a02dffd8ca3bf729f5a90839051600160a060020a03909116815260200160405180910390a1506001919050565b6000610d0e836110a7565b8210610d1957600080fd5b600160a060020a0383166000908152600660205260409020805483908110610d3d57fe5b906000526020600020900154905092915050565b80610d5c338261172c565b1515610d6757600080fd5b610d81848484602060405190810160405260008152611435565b50505050565b600160a060020a0333166000908152600c602052604090205460ff161515610dae57600080fd5b600b546000828152602081905260409020548291600160a060020a03918216911614610dd957600080fd5b610de282610e03565b1515610ded57600080fd5b610dff610df983610fc1565b836119c2565b5050565b600090815260208190526040902054600160a060020a0316151590565b6000610e2a610b49565b8210610e3557600080fd5b6008805483908110610e4357fe5b9060005260206000209001549050919050565b610e5e612114565b601460008381526020019081526020016000208054600181600116156101000203166002900480601f016020809104026020016040519081016040528092919081815260200182805460018160011615610100020316600290048015610f055780601f10610eda57610100808354040283529160200191610f05565b820191906000526020600020905b815481529060010190602001808311610ee857829003601f168201915b50505050509050919050565b4390565b610f1d612114565b6006600083600160a060020a0316600160a060020a03168152602001908152602001600020805480602002602001604051908101604052809291908181526020018280548015610f0557602002820191906000526020600020905b815481526020019060010190808311610f785750505050509050919050565b600e5481565b7fb0aa71870000000000000000000000000000000000000000000000000000000081565b600081815260208190526040812054600160a060020a0316801515610fe557600080fd5b92915050565b60008080803481901015610ffe57600080fd5b600f5434101561100d57600080fd5b601154600f540234111561102057600080fd5b61102985610e03565b151561103457600080fd5b600f543481151561104157fe5b0493504392506015544311156110575760155492505b5081905060005b838160ff16101561109e5760008281526016602052604090205415156110935760008281526016602052604090208590556001015b60019091019061105e565b50601555505050565b6000600160a060020a03821615156110be57600080fd5b50600160a060020a031660009081526002602052604090205490565b60001943016000908152601660205260408120541561111a57506000194301600090815260166020908152604080832054835260129091529020546109a9565b5060001943014090565b600b5460009033600160a060020a0390811691161461114257600080fd5b600160a060020a0382166000908152600c602052604090205460ff1615156108fe57600160a060020a0382166000908152600c602052604090819020805460ff191660011790557fd1bba68c128cc3f427e5831b3c6f99f480b6efa6b9e80c757768f6124158cc3f90839051600160a060020a03909116815260200160405180910390a1506001919050565b600b54600160a060020a031681565b600160a060020a0333166000908152600c602052604090205460ff16151561120457600080fd5b610ad0600d8383612126565b611218612114565b60058054600181600116156101000203166002900480601f0160208091040260200160405190810160405280929190818152602001828054600181600116156101000203166002900480156109a15780601f10610976576101008083540402835291602001916109a1565b600c6020526000908152604090205460ff1681565b600160a060020a0333166000908152600c602052604090205460ff1615156112bf57600080fd5b600084815260136020526040902054156112d857600080fd5b600083815260126020526040902054156112f157600080fd5b6112fb3384611abd565b6113388360408051908101604052600381527f574950000000000000000000000000000000000000000000000000000000000060208201526116f9565b6000838152601260209081526040808320879055868352601382528083208690558583526014909152902061136e908383612126565b5050505050565b33600160a060020a031682600160a060020a03161415151561139657600080fd5b33600160a060020a0390811660008181526003602090815260408083209487168084529490915290819020805460ff19168515151790557f17307eab39ab6107e8899845ad3d59bd9653f200f220920489ca2b5937696c3190849051901515815260200160405180910390a35050565b600061141182610e03565b151561141c57600080fd5b5060009081526012602052604090205490565b600f5481565b81611440338261172c565b151561144b57600080fd5b611456858585610b4f565b61146285858585611afa565b151561136e57600080fd5b60115481565b60105460ff1681565b611484612114565b6108fb600d8054600181600116156101000203166002900480601f01602080910402602001604051908101604052809291908181526020018280546001816001161561010002031660029004801561151d5780601f106114f25761010080835404028352916020019161151d565b820191906000526020600020905b81548152906001019060200180831161150057829003601f168201915b5050505050600a60008581526020019081526020016000208054600181600116156101000203166002900480601f0160208091040260200160405190810160405280929190818152602001828054600181600116156101000203166002900480156115c95780601f1061159e576101008083540402835291602001916115c9565b820191906000526020600020905b8154815290600101906020018083116115ac57829003601f168201915b5050505050611c54565b600b54600090819033600160a060020a039081169116146115f357600080fd5b5060005b8251811015610c575761161e83828151811061160f57fe5b90602001906020020151611124565b1561162857600191505b6001016115f7565b600160a060020a03918216600090815260036020908152604080832093909416825291909152205460ff1690565b600b5433600160a060020a0390811691161461167957600080fd5b600160a060020a038116151561168e57600080fd5b600b54600160a060020a0380831691167f8be0079c531659141344cd1fd0a4f28419497f9722a3daafe3b4186f6b6457e060405160405180910390a3600b805473ffffffffffffffffffffffffffffffffffffffff1916600160a060020a0392909216919091179055565b61170282610e03565b151561170d57600080fd5b6000828152600a60205260409020818051610ad09291602001906121a4565b60008061173883610fc1565b905080600160a060020a031684600160a060020a03161480611773575083600160a060020a0316611768846109be565b600160a060020a0316145b8061178357506117838185611630565b949350505050565b81600160a060020a031661179e82610fc1565b600160a060020a0316146117b157600080fd5b600081815260016020526040902054600160a060020a031615610dff57600081815260016020526040808220805473ffffffffffffffffffffffffffffffffffffffff19169055600160a060020a038416907f8c5be1e5ebec7d5bd14f71427d1e84f3dd0314c0f7b2291e5b200ac8c7c3b9259084905190815260200160405180910390a35050565b60008060006118498585611c9e565b600084815260076020908152604080832054600160a060020a038916845260069092529091205490935061188490600163ffffffff611d3316565b600160a060020a0386166000908152600660205260409020805491935090839081106118ac57fe5b6000918252602080832090910154600160a060020a03881683526006909152604090912080549192508291859081106118e157fe5b6000918252602080832090910192909255600160a060020a038716815260069091526040812080548490811061191357fe5b6000918252602080832090910192909255600160a060020a038716815260069091526040902080549061194a906000198301612212565b50600093845260076020526040808520859055908452909220555050565b60006119748383611d45565b50600160a060020a0382166000908152600660205260409020805490816001810161199f8382612212565b506000918252602080832091909101849055928152600790925260409091205550565b60008060006119d18585611dd4565b6000848152600a60205260409020546002600019610100600184161502019091160415611a0f576000848152600a60205260408120611a0f91612236565b600084815260096020526040902054600854909350611a3590600163ffffffff611d3316565b9150600882815481101515611a4657fe5b906000526020600020900154905080600884815481101515611a6457fe5b60009182526020822001919091556008805484908110611a8057fe5b6000918252602090912001556008805490611a9f906000198301612212565b50600093845260096020526040808520859055908452909220555050565b611ac78282611e2b565b60088054600083815260096020526040902081905560018101611aea8382612212565b5060009182526020909120015550565b600080611b0f85600160a060020a0316611e8d565b1515611b1e5760019150611c4b565b84600160a060020a031663f0b9e5ba8786866040518463ffffffff167c01000000000000000000000000000000000000000000000000000000000281526004018084600160a060020a0316600160a060020a0316815260200183815260200180602001828103825283818151815260200191508051906020019080838360005b83811015611bb6578082015183820152602001611b9e565b50505050905090810190601f168015611be35780820380516001836020036101000a031916815260200191505b50945050505050602060405180830381600087803b1515611c0357600080fd5b5af11515611c1057600080fd5b5050506040518051600160e060020a031981167ff0b9e5ba000000000000000000000000000000000000000000000000000000001493509150505b50949350505050565b611c5c612114565b611c97838360206040519081016040528060008152506020604051908101604052806000815250602060405190810160405260008152611e95565b9392505050565b81600160a060020a0316611cb182610fc1565b600160a060020a031614611cc457600080fd5b600160a060020a038216600090815260026020526040902054611cee90600163ffffffff611d3316565b600160a060020a039092166000908152600260209081526040808320949094559181529081905220805473ffffffffffffffffffffffffffffffffffffffff19169055565b600082821115611d3f57fe5b50900390565b600081815260208190526040902054600160a060020a031615611d6757600080fd5b600081815260208181526040808320805473ffffffffffffffffffffffffffffffffffffffff1916600160a060020a03871690811790915583526002909152902054611db4906001612105565b600160a060020a0390921660009081526002602052604090209190915550565b611dde828261178b565b611de8828261183a565b6000600160a060020a0383167fddf252ad1be2c89b69c2b068fc378daa952ba7f163c4a11628f55a4df523b3ef8360405190815260200160405180910390a35050565b600160a060020a0382161515611e4057600080fd5b611e4a8282611968565b600160a060020a03821660007fddf252ad1be2c89b69c2b068fc378daa952ba7f163c4a11628f55a4df523b3ef8360405190815260200160405180910390a35050565b6000903b1190565b611e9d612114565b611ea5612114565b611ead612114565b611eb5612114565b611ebd612114565b611ec5612114565b611ecd612114565b611ed5612114565b6000808e98508d97508c96508b95508a94508451865188518a518c5101010101604051805910611f025750595b818152601f19601f83011681016020016040529050935083925060009150600090505b8851811015611f7e57888181518110611f3a57fe5b016020015160f860020a900460f860020a02838380600101945081518110611f5e57fe5b906020010190600160f860020a031916908160001a905350600101611f25565b5060005b8751811015611fdb57878181518110611f9757fe5b016020015160f860020a900460f860020a02838380600101945081518110611fbb57fe5b906020010190600160f860020a031916908160001a905350600101611f82565b5060005b865181101561203857868181518110611ff457fe5b016020015160f860020a900460f860020a0283838060010194508151811061201857fe5b906020010190600160f860020a031916908160001a905350600101611fdf565b5060005b85518110156120955785818151811061205157fe5b016020015160f860020a900460f860020a0283838060010194508151811061207557fe5b906020010190600160f860020a031916908160001a90535060010161203c565b5060005b84518110156120f2578481815181106120ae57fe5b016020015160f860020a900460f860020a028383806001019450815181106120d257fe5b906020010190600160f860020a031916908160001a905350600101612099565b50909d9c50505050505050505050505050565b600082820183811015611c9757fe5b60206040519081016040526000815290565b828054600181600116156101000203166002900490600052602060002090601f016020900481019282601f106121675782800160ff19823516178555612194565b82800160010185558215612194579182015b82811115612194578235825591602001919060010190612179565b506121a092915061227d565b5090565b828054600181600116156101000203166002900490600052602060002090601f016020900481019282601f106121e557805160ff1916838001178555612194565b82800160010185558215612194579182015b828111156121945782518255916020019190600101906121f7565b815481835581811511610ad057600083815260209020610ad091810190830161227d565b50805460018160011615610100020316600290046000825580601f1061225c575061227a565b601f01602090049060005260206000209081019061227a919061227d565b50565b6109a991905b808211156121a057600081556001016122835600a165627a7a7230582008154cc172e33273e318022032ca84090819b8f52ad292247384940ba29f63300029",
  "source": "pragma solidity ^0.4.21;\n\n\nimport \"./ERC721Token.sol\";\n\nimport \"./Strings.sol\";\n\nimport \"./ERC165.sol\";\n\nimport \"./Whitelist.sol\";\n\n\n/**\n* @title DART\n*/\ncontract DART is ERC721Token, ERC165, Whitelist {\n  using SafeMath for uint256;\n\n  bytes4 constant InterfaceSignature_ERC165 = 0x01ffc9a7;\n  /*\n  bytes4(keccak256('supportsInterface(bytes4)'));\n  */\n\n  bytes4 constant InterfaceSignature_ERC721Enumerable = 0x780e9d63;\n  /*\n  bytes4(keccak256('totalSupply()')) ^\n  bytes4(keccak256('tokenOfOwnerByIndex(address,uint256)')) ^\n  bytes4(keccak256('tokenByIndex(uint256)'));\n  */\n\n  bytes4 constant InterfaceSignature_ERC721Metadata = 0x5b5e139f;\n  /*\n  bytes4(keccak256('name()')) ^\n  bytes4(keccak256('symbol()')) ^\n  bytes4(keccak256('tokenURI(uint256)'));\n  */\n\n  bytes4 constant InterfaceSignature_ERC721 = 0x80ac58cd;\n  /*\n  bytes4(keccak256('balanceOf(address)')) ^\n  bytes4(keccak256('ownerOf(uint256)')) ^\n  bytes4(keccak256('approve(address,uint256)')) ^\n  bytes4(keccak256('getApproved(uint256)')) ^\n  bytes4(keccak256('setApprovalForAll(address,bool)')) ^\n  bytes4(keccak256('isApprovedForAll(address,address)')) ^\n  bytes4(keccak256('transferFrom(address,address,uint256)')) ^\n  bytes4(keccak256('safeTransferFrom(address,address,uint256)')) ^\n  bytes4(keccak256('safeTransferFrom(address,address,uint256,bytes)'));\n  */\n\n  bytes4 public constant InterfaceSignature_ERC721Optional = - 0x4f558e79;\n  /*\n  bytes4(keccak256('exists(uint256)'));\n  */\n\n  /**\n   * @notice Introspection interface as per ERC-165 (https://github.com/ethereum/EIPs/issues/165).\n   * @dev Returns true for any standardized interfaces implemented by this contract.\n   * @param _interfaceID bytes4 the interface to check for\n   * @return true for any standardized interfaces implemented by this contract.\n   */\n  function supportsInterface(bytes4 _interfaceID) external pure returns (bool) {\n    return ((_interfaceID == InterfaceSignature_ERC165)\n    || (_interfaceID == InterfaceSignature_ERC721)\n    || (_interfaceID == InterfaceSignature_ERC721Optional)\n    || (_interfaceID == InterfaceSignature_ERC721Enumerable)\n    || (_interfaceID == InterfaceSignature_ERC721Metadata));\n  }\n\n  string internal tokenBaseURI = \"https://ipfs.infura.io/ipfs/\";\n\n  // total wei sent to the  contract\n  uint256 public totalContributionsInWei;\n\n  // TODO handle setting these per contract/installation\n  // the price to display per block\n  uint256 public pricePerBlock = 0.01 ether;\n\n  // TODO handle setting these per contract/installation\n  // percentage of all funds received which is directed to a donation address\n  uint8 public donationPercentage = 1;\n\n  // TODO handle setting these per contract/installation\n  // max number of blocks allowed to purchased in one go (mainly for gas costs, this should be kept fairly low for now)\n  uint256 public maxBlockPurchaseInOneGo = 10;\n\n  // Token ID to block hash\n  mapping (uint256 => bytes32) internal tokenIdToBlockhash;\n\n  // Blockhash to Token ID\n  mapping (bytes32 => uint256) internal blockhashToTokenId;\n\n  //Token ID to nickname\n  mapping (uint256 => string) internal tokenIdToNickname;\n\n  uint256 workingBlockCounter = 0;\n\n  mapping (uint256 => uint256) internal blockToTokenIdToDisplay;\n\n  modifier onlyDARTOwnedToken(uint256 _tokenId) {\n    require(tokenOwner[_tokenId] == owner);\n    _;\n  }\n\n  modifier onlyValidAmounts() {\n    // Some value\n    require(msg.value >= 0);\n\n    // Min price\n    require(msg.value >= pricePerBlock);\n\n    // max price\n    require(msg.value <= (pricePerBlock * maxBlockPurchaseInOneGo));\n    _;\n  }\n\n  function DART() public ERC721Token(\"Digital Art\", \"DART\") {\n    // set to current block mined in\n    workingBlockCounter = block.number;\n\n    // TODO handle setting these/configuring\n    super.addAddressToWhitelist(msg.sender);\n    super.addAddressToWhitelist(0xf43aE50C468c3D3Fa0C3dC3454E797317EF53078);\n    super.addAddressToWhitelist(0xe1023C112A39c58238929153F25364c11A33B729);\n  }\n\n  // don't accept payment directly to contract\n  function() public payable {\n    // TODO handle payments, redirect to donations address?\n    revert();\n  }\n\n  /**\n   * @dev Funds your token to be displayed for a specific amount of time\n   * @param _tokenId the DART token ID\n   */\n  function fundDart(uint256 _tokenId) public payable onlyValidAmounts {\n    require(exists(_tokenId));\n\n    // determine how many blocks purchased\n    uint256 blocksPurchased = msg.value / pricePerBlock;\n\n    uint256 currentBlock = block.number;\n\n    // move current block on if already past last purchased block count, reduces while loop costs\n    if (block.number > workingBlockCounter) {\n      currentBlock = workingBlockCounter;\n    }\n\n    uint256 nextBlock = currentBlock;\n\n    uint8 i = 0;\n    while (i < blocksPurchased) {\n\n      // if no one has the next block, set next block to this token\n      if (blockToTokenIdToDisplay[nextBlock] == 0) {\n        blockToTokenIdToDisplay[nextBlock] = _tokenId;\n        i++;\n      }\n\n      // move next block on to find another free space\n      nextBlock++;\n    }\n\n    // update where the current work block is (TODO is this needed)\n    workingBlockCounter = nextBlock;\n\n    // TODO splice monies to various parties\n  }\n\n  /**\n   * @dev Mint a new DART token\n   * @dev Reverts if not called by curator\n   * @param _blockHash an Ethereum block hash\n   * @param _tokenId unique token ID\n   * @param _nickname char stamp of token owner\n   */\n  function mint(bytes32 _blockHash, uint256 _tokenId, string _nickname) external onlyWhitelisted {\n    require(blockhashToTokenId[_blockHash] == 0);\n    require(tokenIdToBlockhash[_tokenId] == 0);\n\n    // actually mint the token\n    super._mint(msg.sender, _tokenId);\n\n    // FIXME - handle this\n    super._setTokenURI(_tokenId, \"WIP\");\n\n    // set data\n    tokenIdToBlockhash[_tokenId] = _blockHash;\n    blockhashToTokenId[_blockHash] = _tokenId;\n    tokenIdToNickname[_tokenId] = _nickname;\n  }\n\n  /**\n   * @dev Burns a DART token\n   * @dev Reverts if token is not unsold or not owned by management\n   * @param _tokenId the DART token ID\n   */\n  function burn(uint256 _tokenId) external onlyWhitelisted onlyDARTOwnedToken(_tokenId) {\n    require(exists(_tokenId));\n    super._burn(ownerOf(_tokenId), _tokenId);\n  }\n\n  /**\n   * @dev Utility function for updating a DART assets token URI\n   * @dev Reverts if not called by management\n   * @param _tokenId the DART token ID\n   * @param _uri the token URI, will be concatenated with baseUri\n   */\n  function setTokenURI(uint256 _tokenId, string _uri) external onlyWhitelisted {\n    require(exists(_tokenId));\n    _setTokenURI(_tokenId, _uri);\n  }\n\n  /**\n   * @dev Return owned tokens\n   * @param _owner address to query\n   */\n  function tokensOf(address _owner) public view returns (uint256[] _tokenIds) {\n    return ownedTokens[_owner];\n  }\n\n  /**\n  * @dev Return handle of token\n  * @param _tokenId token ID for handle lookup\n  */\n  function nicknameOf(uint256 _tokenId) public view returns (string _nickname) {\n    return tokenIdToNickname[_tokenId];\n  }\n\n  /**\n  * @dev Return blockhash of the DART token\n   * @param _tokenId the DART token ID\n  */\n  function blockhashOf(uint256 _tokenId) public view returns (bytes32 hash) {\n    return tokenIdToBlockhash[_tokenId];\n  }\n\n  /**\n   * @dev Get token URI fro the given token, useful for testing purposes\n   * @param _tokenId the DART token ID\n   * @return the token ID or only the base URI if not found\n   */\n  function tokenURI(uint256 _tokenId) public view returns (string) {\n    return Strings.strConcat(tokenBaseURI, tokenURIs[_tokenId]);\n  }\n\n  /**\n   * @dev Allows management to update the base tokenURI path\n   * @dev Reverts if not called by management\n   * @param _newBaseURI the new base URI to set\n   */\n  function setTokenBaseURI(string _newBaseURI) external onlyWhitelisted {\n    tokenBaseURI = _newBaseURI;\n  }\n\n  /**\n   * @dev Generates a unique token hash for the token and handle\n   * @param _tokenId the DART token ID\n   */\n  function tokenHash(uint256 _tokenId) public view returns (bytes32) {\n    require(exists(_tokenId));\n    return tokenIdToBlockhash[_tokenId];\n  }\n\n  /**\n   * @dev Generates a unique token hash for the token and handle\n   */\n  function nextHash() public view returns (bytes32 _tokenHash) {\n\n    // if current block number has been allocated then use it\n    if (blockToTokenIdToDisplay[block.number - 1] != 0) {\n      return tokenIdToBlockhash[blockToTokenIdToDisplay[block.number - 1]];\n    }\n\n    // if no one own the current blockhash return current\n    return block.blockhash(block.number - 1);\n  }\n\n  /**\n   * @dev Returns blocknumber\n   */\n  function blockNumber() public view returns (uint256 _blockNumber) {\n    return block.number;\n  }\n}\n",
  "sourcePath": "/Users/andy/workspace/art-blocks/contracts/DART.sol",
  "compiler": {
    "name": "solc",
    "version": "0.4.21+commit.dfe3193c.Emscripten.clang"
  },
  "schemaVersion": "2.0.0",
  "updatedAt": "2018-04-27T16:12:08.026Z"
}