{
  "contractName": "DART",
  "abi": [
    {
      "constant": true,
      "inputs": [],
      "name": "name",
      "outputs": [
        {
          "name": "",
          "type": "string"
        }
      ],
      "payable": false,
      "stateMutability": "view",
      "type": "function"
    },
    {
      "constant": true,
      "inputs": [
        {
          "name": "_tokenId",
          "type": "uint256"
        }
      ],
      "name": "getApproved",
      "outputs": [
        {
          "name": "",
          "type": "address"
        }
      ],
      "payable": false,
      "stateMutability": "view",
      "type": "function"
    },
    {
      "constant": false,
      "inputs": [
        {
          "name": "_to",
          "type": "address"
        },
        {
          "name": "_tokenId",
          "type": "uint256"
        }
      ],
      "name": "approve",
      "outputs": [],
      "payable": false,
      "stateMutability": "nonpayable",
      "type": "function"
    },
    {
      "constant": true,
      "inputs": [],
      "name": "totalSupply",
      "outputs": [
        {
          "name": "",
          "type": "uint256"
        }
      ],
      "payable": false,
      "stateMutability": "view",
      "type": "function"
    },
    {
      "constant": false,
      "inputs": [
        {
          "name": "_from",
          "type": "address"
        },
        {
          "name": "_to",
          "type": "address"
        },
        {
          "name": "_tokenId",
          "type": "uint256"
        }
      ],
      "name": "transferFrom",
      "outputs": [],
      "payable": false,
      "stateMutability": "nonpayable",
      "type": "function"
    },
    {
      "constant": false,
      "inputs": [
        {
          "name": "addrs",
          "type": "address[]"
        }
      ],
      "name": "removeAddressesFromWhitelist",
      "outputs": [
        {
          "name": "success",
          "type": "bool"
        }
      ],
      "payable": false,
      "stateMutability": "nonpayable",
      "type": "function"
    },
    {
      "constant": false,
      "inputs": [
        {
          "name": "addr",
          "type": "address"
        }
      ],
      "name": "removeAddressFromWhitelist",
      "outputs": [
        {
          "name": "success",
          "type": "bool"
        }
      ],
      "payable": false,
      "stateMutability": "nonpayable",
      "type": "function"
    },
    {
      "constant": true,
      "inputs": [
        {
          "name": "_owner",
          "type": "address"
        },
        {
          "name": "_index",
          "type": "uint256"
        }
      ],
      "name": "tokenOfOwnerByIndex",
      "outputs": [
        {
          "name": "",
          "type": "uint256"
        }
      ],
      "payable": false,
      "stateMutability": "view",
      "type": "function"
    },
    {
      "constant": false,
      "inputs": [
        {
          "name": "_from",
          "type": "address"
        },
        {
          "name": "_to",
          "type": "address"
        },
        {
          "name": "_tokenId",
          "type": "uint256"
        }
      ],
      "name": "safeTransferFrom",
      "outputs": [],
      "payable": false,
      "stateMutability": "nonpayable",
      "type": "function"
    },
    {
      "constant": true,
      "inputs": [
        {
          "name": "_tokenId",
          "type": "uint256"
        }
      ],
      "name": "exists",
      "outputs": [
        {
          "name": "",
          "type": "bool"
        }
      ],
      "payable": false,
      "stateMutability": "view",
      "type": "function"
    },
    {
      "constant": true,
      "inputs": [
        {
          "name": "_index",
          "type": "uint256"
        }
      ],
      "name": "tokenByIndex",
      "outputs": [
        {
          "name": "",
          "type": "uint256"
        }
      ],
      "payable": false,
      "stateMutability": "view",
      "type": "function"
    },
    {
      "constant": true,
      "inputs": [],
      "name": "totalContributionsInWei",
      "outputs": [
        {
          "name": "",
          "type": "uint256"
        }
      ],
      "payable": false,
      "stateMutability": "view",
      "type": "function"
    },
    {
      "constant": true,
      "inputs": [],
      "name": "InterfaceSignature_ERC721Optional",
      "outputs": [
        {
          "name": "",
          "type": "bytes4"
        }
      ],
      "payable": false,
      "stateMutability": "view",
      "type": "function"
    },
    {
      "constant": true,
      "inputs": [
        {
          "name": "_tokenId",
          "type": "uint256"
        }
      ],
      "name": "ownerOf",
      "outputs": [
        {
          "name": "",
          "type": "address"
        }
      ],
      "payable": false,
      "stateMutability": "view",
      "type": "function"
    },
    {
      "constant": true,
      "inputs": [
        {
          "name": "_owner",
          "type": "address"
        }
      ],
      "name": "balanceOf",
      "outputs": [
        {
          "name": "",
          "type": "uint256"
        }
      ],
      "payable": false,
      "stateMutability": "view",
      "type": "function"
    },
    {
      "constant": false,
      "inputs": [
        {
          "name": "addr",
          "type": "address"
        }
      ],
      "name": "addAddressToWhitelist",
      "outputs": [
        {
          "name": "success",
          "type": "bool"
        }
      ],
      "payable": false,
      "stateMutability": "nonpayable",
      "type": "function"
    },
    {
      "constant": true,
      "inputs": [],
      "name": "owner",
      "outputs": [
        {
          "name": "",
          "type": "address"
        }
      ],
      "payable": false,
      "stateMutability": "view",
      "type": "function"
    },
    {
      "constant": true,
      "inputs": [],
      "name": "symbol",
      "outputs": [
        {
          "name": "",
          "type": "string"
        }
      ],
      "payable": false,
      "stateMutability": "view",
      "type": "function"
    },
    {
      "constant": true,
      "inputs": [
        {
          "name": "",
          "type": "address"
        }
      ],
      "name": "whitelist",
      "outputs": [
        {
          "name": "",
          "type": "bool"
        }
      ],
      "payable": false,
      "stateMutability": "view",
      "type": "function"
    },
    {
      "constant": false,
      "inputs": [
        {
          "name": "_to",
          "type": "address"
        },
        {
          "name": "_approved",
          "type": "bool"
        }
      ],
      "name": "setApprovalForAll",
      "outputs": [],
      "payable": false,
      "stateMutability": "nonpayable",
      "type": "function"
    },
    {
      "constant": true,
      "inputs": [],
      "name": "pricePerBlock",
      "outputs": [
        {
          "name": "",
          "type": "uint256"
        }
      ],
      "payable": false,
      "stateMutability": "view",
      "type": "function"
    },
    {
      "constant": true,
      "inputs": [],
      "name": "lastPurchasedBlock",
      "outputs": [
        {
          "name": "",
          "type": "uint256"
        }
      ],
      "payable": false,
      "stateMutability": "view",
      "type": "function"
    },
    {
      "constant": false,
      "inputs": [
        {
          "name": "_from",
          "type": "address"
        },
        {
          "name": "_to",
          "type": "address"
        },
        {
          "name": "_tokenId",
          "type": "uint256"
        },
        {
          "name": "_data",
          "type": "bytes"
        }
      ],
      "name": "safeTransferFrom",
      "outputs": [],
      "payable": false,
      "stateMutability": "nonpayable",
      "type": "function"
    },
    {
      "constant": true,
      "inputs": [],
      "name": "maxBlockPurchaseInOneGo",
      "outputs": [
        {
          "name": "",
          "type": "uint256"
        }
      ],
      "payable": false,
      "stateMutability": "view",
      "type": "function"
    },
    {
      "constant": true,
      "inputs": [],
      "name": "donationPercentage",
      "outputs": [
        {
          "name": "",
          "type": "uint8"
        }
      ],
      "payable": false,
      "stateMutability": "view",
      "type": "function"
    },
    {
      "constant": false,
      "inputs": [
        {
          "name": "addrs",
          "type": "address[]"
        }
      ],
      "name": "addAddressesToWhitelist",
      "outputs": [
        {
          "name": "success",
          "type": "bool"
        }
      ],
      "payable": false,
      "stateMutability": "nonpayable",
      "type": "function"
    },
    {
      "constant": true,
      "inputs": [
        {
          "name": "_owner",
          "type": "address"
        },
        {
          "name": "_operator",
          "type": "address"
        }
      ],
      "name": "isApprovedForAll",
      "outputs": [
        {
          "name": "",
          "type": "bool"
        }
      ],
      "payable": false,
      "stateMutability": "view",
      "type": "function"
    },
    {
      "constant": false,
      "inputs": [
        {
          "name": "newOwner",
          "type": "address"
        }
      ],
      "name": "transferOwnership",
      "outputs": [],
      "payable": false,
      "stateMutability": "nonpayable",
      "type": "function"
    },
    {
      "inputs": [],
      "payable": false,
      "stateMutability": "nonpayable",
      "type": "constructor"
    },
    {
      "payable": true,
      "stateMutability": "payable",
      "type": "fallback"
    },
    {
      "anonymous": false,
      "inputs": [
        {
          "indexed": true,
          "name": "_owner",
          "type": "address"
        },
        {
          "indexed": true,
          "name": "_tokenId",
          "type": "uint256"
        },
        {
          "indexed": false,
          "name": "_blockhash",
          "type": "bytes32"
        },
        {
          "indexed": false,
          "name": "_nickname",
          "type": "string"
        }
      ],
      "name": "MintDART",
      "type": "event"
    },
    {
      "anonymous": false,
      "inputs": [
        {
          "indexed": true,
          "name": "_funder",
          "type": "address"
        },
        {
          "indexed": true,
          "name": "_tokenId",
          "type": "uint256"
        },
        {
          "indexed": false,
          "name": "_blockhash",
          "type": "bytes32"
        },
        {
          "indexed": false,
          "name": "_block",
          "type": "uint256"
        }
      ],
      "name": "FundDART",
      "type": "event"
    },
    {
      "anonymous": false,
      "inputs": [
        {
          "indexed": true,
          "name": "_funder",
          "type": "address"
        },
        {
          "indexed": true,
          "name": "_tokenId",
          "type": "uint256"
        },
        {
          "indexed": false,
          "name": "_blocksPurchased",
          "type": "uint256"
        }
      ],
      "name": "BlocksPurchasedDART",
      "type": "event"
    },
    {
      "anonymous": false,
      "inputs": [
        {
          "indexed": false,
          "name": "addr",
          "type": "address"
        }
      ],
      "name": "WhitelistedAddressAdded",
      "type": "event"
    },
    {
      "anonymous": false,
      "inputs": [
        {
          "indexed": false,
          "name": "addr",
          "type": "address"
        }
      ],
      "name": "WhitelistedAddressRemoved",
      "type": "event"
    },
    {
      "anonymous": false,
      "inputs": [
        {
          "indexed": true,
          "name": "previousOwner",
          "type": "address"
        },
        {
          "indexed": true,
          "name": "newOwner",
          "type": "address"
        }
      ],
      "name": "OwnershipTransferred",
      "type": "event"
    },
    {
      "anonymous": false,
      "inputs": [
        {
          "indexed": true,
          "name": "_from",
          "type": "address"
        },
        {
          "indexed": true,
          "name": "_to",
          "type": "address"
        },
        {
          "indexed": false,
          "name": "_tokenId",
          "type": "uint256"
        }
      ],
      "name": "Transfer",
      "type": "event"
    },
    {
      "anonymous": false,
      "inputs": [
        {
          "indexed": true,
          "name": "_owner",
          "type": "address"
        },
        {
          "indexed": true,
          "name": "_approved",
          "type": "address"
        },
        {
          "indexed": false,
          "name": "_tokenId",
          "type": "uint256"
        }
      ],
      "name": "Approval",
      "type": "event"
    },
    {
      "anonymous": false,
      "inputs": [
        {
          "indexed": true,
          "name": "_owner",
          "type": "address"
        },
        {
          "indexed": true,
          "name": "_operator",
          "type": "address"
        },
        {
          "indexed": false,
          "name": "_approved",
          "type": "bool"
        }
      ],
      "name": "ApprovalForAll",
      "type": "event"
    },
    {
      "constant": true,
      "inputs": [
        {
          "name": "_interfaceID",
          "type": "bytes4"
        }
      ],
      "name": "supportsInterface",
      "outputs": [
        {
          "name": "",
          "type": "bool"
        }
      ],
      "payable": false,
      "stateMutability": "pure",
      "type": "function"
    },
    {
      "constant": false,
      "inputs": [
        {
          "name": "_tokenId",
          "type": "uint256"
        }
      ],
      "name": "fundDart",
      "outputs": [],
      "payable": true,
      "stateMutability": "payable",
      "type": "function"
    },
    {
      "constant": false,
      "inputs": [
        {
          "name": "_blockhash",
          "type": "bytes32"
        },
        {
          "name": "_tokenId",
          "type": "uint256"
        },
        {
          "name": "_nickname",
          "type": "string"
        }
      ],
      "name": "mint",
      "outputs": [],
      "payable": false,
      "stateMutability": "nonpayable",
      "type": "function"
    },
    {
      "constant": true,
      "inputs": [],
      "name": "getNextBlockToFund",
      "outputs": [
        {
          "name": "_nextFundedBlock",
          "type": "uint256"
        }
      ],
      "payable": false,
      "stateMutability": "view",
      "type": "function"
    },
    {
      "constant": false,
      "inputs": [
        {
          "name": "_tokenId",
          "type": "uint256"
        }
      ],
      "name": "burn",
      "outputs": [],
      "payable": false,
      "stateMutability": "nonpayable",
      "type": "function"
    },
    {
      "constant": false,
      "inputs": [
        {
          "name": "_tokenId",
          "type": "uint256"
        },
        {
          "name": "_uri",
          "type": "string"
        }
      ],
      "name": "setTokenURI",
      "outputs": [],
      "payable": false,
      "stateMutability": "nonpayable",
      "type": "function"
    },
    {
      "constant": true,
      "inputs": [
        {
          "name": "_owner",
          "type": "address"
        }
      ],
      "name": "tokensOf",
      "outputs": [
        {
          "name": "_tokenIds",
          "type": "uint256[]"
        }
      ],
      "payable": false,
      "stateMutability": "view",
      "type": "function"
    },
    {
      "constant": true,
      "inputs": [
        {
          "name": "_tokenId",
          "type": "uint256"
        }
      ],
      "name": "nicknameOf",
      "outputs": [
        {
          "name": "_nickname",
          "type": "string"
        }
      ],
      "payable": false,
      "stateMutability": "view",
      "type": "function"
    },
    {
      "constant": true,
      "inputs": [
        {
          "name": "_tokenId",
          "type": "uint256"
        }
      ],
      "name": "blockhashOf",
      "outputs": [
        {
          "name": "hash",
          "type": "bytes32"
        }
      ],
      "payable": false,
      "stateMutability": "view",
      "type": "function"
    },
    {
      "constant": true,
      "inputs": [
        {
          "name": "_blockNumber",
          "type": "uint256"
        }
      ],
      "name": "tokenIdOf",
      "outputs": [
        {
          "name": "_tokenId",
          "type": "uint256"
        }
      ],
      "payable": false,
      "stateMutability": "view",
      "type": "function"
    },
    {
      "constant": true,
      "inputs": [
        {
          "name": "_tokenId",
          "type": "uint256"
        }
      ],
      "name": "blocksPurchasedByToken",
      "outputs": [
        {
          "name": "_blocks",
          "type": "uint256[]"
        }
      ],
      "payable": false,
      "stateMutability": "view",
      "type": "function"
    },
    {
      "constant": true,
      "inputs": [
        {
          "name": "_tokenId",
          "type": "uint256"
        }
      ],
      "name": "tokenURI",
      "outputs": [
        {
          "name": "",
          "type": "string"
        }
      ],
      "payable": false,
      "stateMutability": "view",
      "type": "function"
    },
    {
      "constant": false,
      "inputs": [
        {
          "name": "_newBaseURI",
          "type": "string"
        }
      ],
      "name": "setTokenBaseURI",
      "outputs": [],
      "payable": false,
      "stateMutability": "nonpayable",
      "type": "function"
    },
    {
      "constant": true,
      "inputs": [
        {
          "name": "_blockNumber",
          "type": "uint256"
        }
      ],
      "name": "generateHash",
      "outputs": [
        {
          "name": "_tokenHash",
          "type": "bytes32"
        }
      ],
      "payable": false,
      "stateMutability": "view",
      "type": "function"
    },
    {
      "constant": true,
      "inputs": [],
      "name": "nextHash",
      "outputs": [
        {
          "name": "_tokenHash",
          "type": "bytes32"
        },
        {
          "name": "_nextBlock",
          "type": "uint256"
        }
      ],
      "payable": false,
      "stateMutability": "view",
      "type": "function"
    },
    {
      "constant": true,
      "inputs": [
        {
          "name": "_blockNumber",
          "type": "uint256"
        }
      ],
      "name": "defaultBlockhash",
      "outputs": [
        {
          "name": "_tokenHash",
          "type": "bytes32"
        }
      ],
      "payable": false,
      "stateMutability": "view",
      "type": "function"
    },
    {
      "constant": true,
      "inputs": [],
      "name": "blockNumber",
      "outputs": [
        {
          "name": "_blockNumber",
          "type": "uint256"
        }
      ],
      "payable": false,
      "stateMutability": "view",
      "type": "function"
    }
  ],
  "bytecode": "0x606060405260408051908101604052601c81527f68747470733a2f2f697066732e696e667572612e696f2f697066732f000000006020820152600d9080516200004d9291602001906200025e565b50662386f26fc10000600f556010805460ff191660011790556014601155600060155534156200007c57600080fd5b604080519081016040908152600b82527f4469676974616c204172740000000000000000000000000000000000000000006020830152805190810160405260048082527f44415254000000000000000000000000000000000000000000000000000000006020830152828051620000f89291602001906200025e565b5060058180516200010e9291602001906200025e565b5050600b8054600160a060020a03191633600160a060020a03811691909117909155436015556200014e9150640100000000620001b181026200126a1704565b506200017c73f43ae50c468c3d3fa0c3dc3454e797317ef530786401000000006200126a620001b182021704565b50620001aa73e1023c112a39c58238929153f25364c11a33b7296401000000006200126a620001b182021704565b5062000303565b600b5460009033600160a060020a03908116911614620001d057600080fd5b600160a060020a0382166000908152600c602052604090205460ff1615156200025957600160a060020a0382166000908152600c602052604090819020805460ff191660011790557fd1bba68c128cc3f427e5831b3c6f99f480b6efa6b9e80c757768f6124158cc3f90839051600160a060020a03909116815260200160405180910390a15060015b919050565b828054600181600116156101000203166002900490600052602060002090601f016020900481019282601f10620002a157805160ff1916838001178555620002d1565b82800160010185558215620002d1579182015b82811115620002d1578251825591602001919060010190620002b4565b50620002df929150620002e3565b5090565b6200030091905b80821115620002df5760008155600101620002ea565b90565b61255b80620003136000396000f3006060604052600436106102245763ffffffff7c010000000000000000000000000000000000000000000000000000000060003504166301ffc9a7811461028157806306474d12146102b557806306fdde03146102dd57806307518c8e14610367578063081812fc1461037d578063095ea7b3146103af578063162094c4146103d157806318160ddd146103f357806323b872dd1461040657806324953eaa1461042e578063286dd3f51461047d5780632f745c591461049c5780634064bc06146104be57806342842e0e146104d457806342966c68146104fc5780634f558e79146105125780634f6ccce71461052857806354f50f1b1461053e57806357e871e7146105545780635a3f2672146105675780635a7cb31b146105d95780635bc7b8f7146105ec578063624de3d9146106025780636352211e146106325780636ed2e7781461064857806370a0823114610653578063727f0067146106725780637b9417c81461069d5780638da5cb5b146106bc5780638ef79e91146106cf57806395d89b41146106ed5780639b19251a146107005780639fb6c7961461071f578063a22cb46514610745578063aa32490514610769578063ab792cdb1461077c578063b32bf0111461078f578063b88d4fde146107a2578063bb8270fa1461080e578063c16cc81014610821578063c87b56dd1461084a578063cc106d0914610860578063e2ec6ec314610876578063e985e9c5146108c5578063f2fde38b146108ea575b600160a060020a0333166000908152600660205260408120541161024757600080fd5b600160a060020a0333166000908152600660205260408120805461027f9290811061026e57fe5b906000526020600020900154610909565b005b341561028c57600080fd5b6102a1600160e060020a0319600435166109f7565b604051901515815260200160405180910390f35b34156102c057600080fd5b6102cb600435610afe565b60405190815260200160405180910390f35b34156102e857600080fd5b6102f0610b10565b60405160208082528190810183818151815260200191508051906020019080838360005b8381101561032c578082015183820152602001610314565b50505050905090810190601f1680156103595780820380516001836020036101000a031916815260200191505b509250505060405180910390f35b341561037257600080fd5b6102cb600435610bb9565b341561038857600080fd5b610393600435610bcb565b604051600160a060020a03909116815260200160405180910390f35b34156103ba57600080fd5b61027f600160a060020a0360043516602435610be6565b34156103dc57600080fd5b61027f600480359060248035908101910135610ce2565b34156103fe57600080fd5b6102cb610d56565b341561041157600080fd5b61027f600160a060020a0360043581169060243516604435610d5c565b341561043957600080fd5b6102a16004602481358181019083013580602081810201604051908101604052809392919081815260200183836020028082843750949650610e0795505050505050565b341561048857600080fd5b6102a1600160a060020a0360043516610e6a565b34156104a757600080fd5b6102cb600160a060020a0360043516602435610f10565b34156104c957600080fd5b6102cb600435610f5e565b34156104df57600080fd5b61027f600160a060020a0360043581169060243516604435610f90565b341561050757600080fd5b61027f600435610fc6565b341561051d57600080fd5b6102a160043561100e565b341561053357600080fd5b6102cb60043561102b565b341561054957600080fd5b6102f0600435611061565b341561055f57600080fd5b6102cb61111c565b341561057257600080fd5b610586600160a060020a0360043516611120565b60405160208082528190810183818151815260200191508051906020019060200280838360005b838110156105c55780820151838201526020016105ad565b505050509050019250505060405180910390f35b34156105e457600080fd5b6102cb6111a2565b34156105f757600080fd5b6102cb6004356111a8565b341561060d57600080fd5b6106156111ac565b604051600160e060020a0319909116815260200160405180910390f35b341561063d57600080fd5b6103936004356111d0565b61027f600435610909565b341561065e57600080fd5b6102cb600160a060020a03600435166111fa565b341561067d57600080fd5b61068561122d565b60405191825260208201526040908101905180910390f35b34156106a857600080fd5b6102a1600160a060020a036004351661126a565b34156106c757600080fd5b610393611314565b34156106da57600080fd5b61027f6004803560248101910135611323565b34156106f857600080fd5b6102f0611356565b341561070b57600080fd5b6102a1600160a060020a03600435166113c9565b341561072a57600080fd5b61027f600480359060248035916044359182019101356113de565b341561075057600080fd5b61027f600160a060020a0360043516602435151561151c565b341561077457600080fd5b6102cb6115ad565b341561078757600080fd5b6102cb6115ca565b341561079a57600080fd5b6102cb6115d0565b34156107ad57600080fd5b61027f600160a060020a036004803582169160248035909116916044359160849060643590810190830135806020601f820181900481020160405190810160405281815292919060208401838380828437509496506115d695505050505050565b341561081957600080fd5b6102cb611615565b341561082c57600080fd5b61083461161b565b60405160ff909116815260200160405180910390f35b341561085557600080fd5b6102f0600435611624565b341561086b57600080fd5b61058660043561177b565b341561088157600080fd5b6102a160046024813581810190830135806020818102016040519081016040528093929190818152602001838360200280828437509496506117ea95505050505050565b34156108d057600080fd5b6102a1600160a060020a0360043581169060243516611847565b34156108f557600080fd5b61027f600160a060020a0360043516611875565b60008080348190101561091b57600080fd5b600f5434101561092a57600080fd5b601154600f540234111561093d57600080fd5b6109468461100e565b151561095157600080fd5b600f543481151561095e57fe5b0492504360010191506015548210156109775760155491505b5060005b828160ff1610156109ae5761098f82610afe565b15156109a35761099f8285611910565b6001015b81600101915061097b565b601582905583600160a060020a0333167f63b058983ba124fb07f181575aca82b9693554b4313354644491e215083042218560405190815260200160405180910390a350505050565b6000600160e060020a031982167f01ffc9a7000000000000000000000000000000000000000000000000000000001480610a5a5750600160e060020a031982167f80ac58cd00000000000000000000000000000000000000000000000000000000145b80610a8e5750600160e060020a031982167fb0aa718700000000000000000000000000000000000000000000000000000000145b80610ac25750600160e060020a031982167f780e9d6300000000000000000000000000000000000000000000000000000000145b80610af65750600160e060020a031982167f5b5e139f00000000000000000000000000000000000000000000000000000000145b90505b919050565b60009081526016602052604090205490565b610b186123b3565b60048054600181600116156101000203166002900480601f016020809104026020016040519081016040528092919081815260200182805460018160011615610100020316600290048015610bae5780601f10610b8357610100808354040283529160200191610bae565b820191906000526020600020905b815481529060010190602001808311610b9157829003601f168201915b505050505090505b90565b60009081526012602052604090205490565b600090815260016020526040902054600160a060020a031690565b6000610bf1826111d0565b9050600160a060020a038381169082161415610c0c57600080fd5b80600160a060020a031633600160a060020a03161480610c315750610c318133611847565b1515610c3c57600080fd5b6000610c4783610bcb565b600160a060020a0316141580610c655750600160a060020a03831615155b15610cdd5760008281526001602052604090819020805473ffffffffffffffffffffffffffffffffffffffff1916600160a060020a0386811691821790925591908316907f8c5be1e5ebec7d5bd14f71427d1e84f3dd0314c0f7b2291e5b200ac8c7c3b9259085905190815260200160405180910390a35b505050565b600160a060020a0333166000908152600c602052604090205460ff161515610d0957600080fd5b610d128361100e565b1515610d1d57600080fd5b610cdd8383838080601f01602080910402602001604051908101604052818152929190602084018383808284375061199e945050505050565b60085490565b80610d6733826119d1565b1515610d7257600080fd5b600160a060020a0384161515610d8757600080fd5b600160a060020a0383161515610d9c57600080fd5b610da68483611a30565b610db08483611ae0565b610dba8383611c0e565b82600160a060020a031684600160a060020a03167fddf252ad1be2c89b69c2b068fc378daa952ba7f163c4a11628f55a4df523b3ef8460405190815260200160405180910390a350505050565b600b54600090819033600160a060020a03908116911614610e2757600080fd5b5060005b8251811015610e6457610e52838281518110610e4357fe5b90602001906020020151610e6a565b15610e5c57600191505b600101610e2b565b50919050565b600b5460009033600160a060020a03908116911614610e8857600080fd5b600160a060020a0382166000908152600c602052604090205460ff1615610af957600160a060020a0382166000908152600c602052604090819020805460ff191690557ff1abf01a1043b7c244d128e8595cf0c1d10743b022b03a02dffd8ca3bf729f5a90839051600160a060020a03909116815260200160405180910390a1506001919050565b6000610f1b836111fa565b8210610f2657600080fd5b600160a060020a0383166000908152600660205260409020805483908110610f4a57fe5b906000526020600020900154905092915050565b600080610f6a83610afe565b1515610f7557600080fd5b610f7e83610afe565b9050610f8981610bb9565b9392505050565b80610f9b33826119d1565b1515610fa657600080fd5b610fc08484846020604051908101604052600081526115d6565b50505050565b600160a060020a0333166000908152600c602052604090205460ff161515610fed57600080fd5b610ff68161100e565b151561100157600080fd5b61100b3382611c68565b50565b600090815260208190526040902054600160a060020a0316151590565b6000611035610d56565b821061104057600080fd5b600880548390811061104e57fe5b9060005260206000209001549050919050565b6110696123b3565b601460008381526020019081526020016000208054600181600116156101000203166002900480601f0160208091040260200160405190810160405280929190818152602001828054600181600116156101000203166002900480156111105780601f106110e557610100808354040283529160200191611110565b820191906000526020600020905b8154815290600101906020018083116110f357829003601f168201915b50505050509050919050565b4390565b6111286123b3565b6006600083600160a060020a0316600160a060020a0316815260200190815260200160002080548060200260200160405190810160405280929190818152602001828054801561111057602002820191906000526020600020905b8154815260200190600101908083116111835750505050509050919050565b600e5481565b4090565b7fb0aa71870000000000000000000000000000000000000000000000000000000081565b600081815260208190526040812054600160a060020a03168015156111f457600080fd5b92915050565b6000600160a060020a038216151561121157600080fd5b50600160a060020a031660009081526002602052604090205490565b600080600019430161123e81610afe565b156112565761124c81610f5e565b8192509250611265565b61125f816111a8565b81925092505b509091565b600b5460009033600160a060020a0390811691161461128857600080fd5b600160a060020a0382166000908152600c602052604090205460ff161515610af957600160a060020a0382166000908152600c602052604090819020805460ff191660011790557fd1bba68c128cc3f427e5831b3c6f99f480b6efa6b9e80c757768f6124158cc3f90839051600160a060020a03909116815260200160405180910390a1506001919050565b600b54600160a060020a031681565b600160a060020a0333166000908152600c602052604090205460ff16151561134a57600080fd5b610cdd600d83836123c5565b61135e6123b3565b60058054600181600116156101000203166002900480601f016020809104026020016040519081016040528092919081815260200182805460018160011615610100020316600290048015610bae5780601f10610b8357610100808354040283529160200191610bae565b600c6020526000908152604090205460ff1681565b600160a060020a0333166000908152600c602052604090205460ff16151561140557600080fd5b6000848152601360205260409020541561141e57600080fd5b6000838152601260205260409020541561143757600080fd5b6114413384611d63565b61147e8360408051908101604052600381527f5749500000000000000000000000000000000000000000000000000000000000602082015261199e565b600083815260126020908152604080832087905586835260138252808320869055858352601490915290206114b49083836123c5565b508233600160a060020a03167f4453ce3000f70afbe0bcadf15f2ba7165d528adb6dffa06dd8aa0b89c6516e1886858560405183815260406020820181815290820183905260608201848480828437820191505094505050505060405180910390a350505050565b33600160a060020a031682600160a060020a03161415151561153d57600080fd5b33600160a060020a0390811660008181526003602090815260408083209487168084529490915290819020805460ff19168515151790557f17307eab39ab6107e8899845ad3d59bd9653f200f220920489ca2b5937696c3190849051901515815260200160405180910390a35050565b60006015544310156115c25750601554610bb6565b506001430190565b600f5481565b60155481565b816115e133826119d1565b15156115ec57600080fd5b6115f7858585610d5c565b61160385858585611da0565b151561160e57600080fd5b5050505050565b60115481565b60105460ff1681565b61162c6123b3565b610af6600d8054600181600116156101000203166002900480601f0160208091040260200160405190810160405280929190818152602001828054600181600116156101000203166002900480156116c55780601f1061169a576101008083540402835291602001916116c5565b820191906000526020600020905b8154815290600101906020018083116116a857829003601f168201915b5050505050600a60008581526020019081526020016000208054600181600116156101000203166002900480601f0160208091040260200160405190810160405280929190818152602001828054600181600116156101000203166002900480156117715780601f1061174657610100808354040283529160200191611771565b820191906000526020600020905b81548152906001019060200180831161175457829003601f168201915b5050505050611efa565b6117836123b3565b6017600083815260200190815260200160002080548060200260200160405190810160405280929190818152602001828054801561111057602002820191906000526020600020908154815260200190600101908083116111835750505050509050919050565b600b54600090819033600160a060020a0390811691161461180a57600080fd5b5060005b8251811015610e645761183583828151811061182657fe5b9060200190602002015161126a565b1561183f57600191505b60010161180e565b600160a060020a03918216600090815260036020908152604080832093909416825291909152205460ff1690565b600b5433600160a060020a0390811691161461189057600080fd5b600160a060020a03811615156118a557600080fd5b600b54600160a060020a0380831691167f8be0079c531659141344cd1fd0a4f28419497f9722a3daafe3b4186f6b6457e060405160405180910390a3600b805473ffffffffffffffffffffffffffffffffffffffff1916600160a060020a0392909216919091179055565b60008281526016602090815260408083208490558383526017909152902080546001810161193e8382612443565b50600091825260209091200182905580600160a060020a0333167f04649188eae35f52d46ae0040474804e761d09610a0ab8338319f35200bcbbb461198285610f5e565b8560405191825260208201526040908101905180910390a35050565b6119a78261100e565b15156119b257600080fd5b6000828152600a60205260409020818051610cdd929160200190612467565b6000806119dd836111d0565b905080600160a060020a031684600160a060020a03161480611a18575083600160a060020a0316611a0d84610bcb565b600160a060020a0316145b80611a285750611a288185611847565b949350505050565b81600160a060020a0316611a43826111d0565b600160a060020a031614611a5657600080fd5b600081815260016020526040902054600160a060020a031615611adc57600081815260016020526040808220805473ffffffffffffffffffffffffffffffffffffffff19169055600160a060020a038416907f8c5be1e5ebec7d5bd14f71427d1e84f3dd0314c0f7b2291e5b200ac8c7c3b9259084905190815260200160405180910390a35b5050565b6000806000611aef8585611f3d565b600084815260076020908152604080832054600160a060020a0389168452600690925290912054909350611b2a90600163ffffffff611fd216565b600160a060020a038616600090815260066020526040902080549193509083908110611b5257fe5b6000918252602080832090910154600160a060020a0388168352600690915260409091208054919250829185908110611b8757fe5b6000918252602080832090910192909255600160a060020a0387168152600690915260408120805484908110611bb957fe5b6000918252602080832090910192909255600160a060020a0387168152600690915260409020805490611bf0906000198301612443565b50600093845260076020526040808520859055908452909220555050565b6000611c1a8383611fe4565b50600160a060020a03821660009081526006602052604090208054908160018101611c458382612443565b506000918252602080832091909101849055928152600790925260409091205550565b6000806000611c778585612073565b6000848152600a60205260409020546002600019610100600184161502019091160415611cb5576000848152600a60205260408120611cb5916124d5565b600084815260096020526040902054600854909350611cdb90600163ffffffff611fd216565b9150600882815481101515611cec57fe5b906000526020600020900154905080600884815481101515611d0a57fe5b60009182526020822001919091556008805484908110611d2657fe5b6000918252602090912001556008805490611d45906000198301612443565b50600093845260096020526040808520859055908452909220555050565b611d6d82826120ca565b60088054600083815260096020526040902081905560018101611d908382612443565b5060009182526020909120015550565b600080611db585600160a060020a031661212c565b1515611dc45760019150611ef1565b84600160a060020a031663f0b9e5ba8786866040518463ffffffff167c01000000000000000000000000000000000000000000000000000000000281526004018084600160a060020a0316600160a060020a0316815260200183815260200180602001828103825283818151815260200191508051906020019080838360005b83811015611e5c578082015183820152602001611e44565b50505050905090810190601f168015611e895780820380516001836020036101000a031916815260200191505b50945050505050602060405180830381600087803b1515611ea957600080fd5b5af11515611eb657600080fd5b5050506040518051600160e060020a031981167ff0b9e5ba000000000000000000000000000000000000000000000000000000001493509150505b50949350505050565b611f026123b3565b610f89838360206040519081016040528060008152506020604051908101604052806000815250602060405190810160405260008152612134565b81600160a060020a0316611f50826111d0565b600160a060020a031614611f6357600080fd5b600160a060020a038216600090815260026020526040902054611f8d90600163ffffffff611fd216565b600160a060020a039092166000908152600260209081526040808320949094559181529081905220805473ffffffffffffffffffffffffffffffffffffffff19169055565b600082821115611fde57fe5b50900390565b600081815260208190526040902054600160a060020a03161561200657600080fd5b600081815260208181526040808320805473ffffffffffffffffffffffffffffffffffffffff1916600160a060020a038716908117909155835260029091529020546120539060016123a4565b600160a060020a0390921660009081526002602052604090209190915550565b61207d8282611a30565b6120878282611ae0565b6000600160a060020a0383167fddf252ad1be2c89b69c2b068fc378daa952ba7f163c4a11628f55a4df523b3ef8360405190815260200160405180910390a35050565b600160a060020a03821615156120df57600080fd5b6120e98282611c0e565b600160a060020a03821660007fddf252ad1be2c89b69c2b068fc378daa952ba7f163c4a11628f55a4df523b3ef8360405190815260200160405180910390a35050565b6000903b1190565b61213c6123b3565b6121446123b3565b61214c6123b3565b6121546123b3565b61215c6123b3565b6121646123b3565b61216c6123b3565b6121746123b3565b6000808e98508d97508c96508b95508a94508451865188518a518c51010101016040518059106121a15750595b818152601f19601f83011681016020016040529050935083925060009150600090505b885181101561221d578881815181106121d957fe5b016020015160f860020a900460f860020a028383806001019450815181106121fd57fe5b906020010190600160f860020a031916908160001a9053506001016121c4565b5060005b875181101561227a5787818151811061223657fe5b016020015160f860020a900460f860020a0283838060010194508151811061225a57fe5b906020010190600160f860020a031916908160001a905350600101612221565b5060005b86518110156122d75786818151811061229357fe5b016020015160f860020a900460f860020a028383806001019450815181106122b757fe5b906020010190600160f860020a031916908160001a90535060010161227e565b5060005b8551811015612334578581815181106122f057fe5b016020015160f860020a900460f860020a0283838060010194508151811061231457fe5b906020010190600160f860020a031916908160001a9053506001016122db565b5060005b84518110156123915784818151811061234d57fe5b016020015160f860020a900460f860020a0283838060010194508151811061237157fe5b906020010190600160f860020a031916908160001a905350600101612338565b50909d9c50505050505050505050505050565b600082820183811015610f8957fe5b60206040519081016040526000815290565b828054600181600116156101000203166002900490600052602060002090601f016020900481019282601f106124065782800160ff19823516178555612433565b82800160010185558215612433579182015b82811115612433578235825591602001919060010190612418565b5061243f929150612515565b5090565b815481835581811511610cdd57600083815260209020610cdd918101908301612515565b828054600181600116156101000203166002900490600052602060002090601f016020900481019282601f106124a857805160ff1916838001178555612433565b82800160010185558215612433579182015b828111156124335782518255916020019190600101906124ba565b50805460018160011615610100020316600290046000825580601f106124fb575061100b565b601f01602090049060005260206000209081019061100b91905b610bb691905b8082111561243f576000815560010161251b5600a165627a7a72305820973b896c1c88fb290d7823690253a8a8b57f4332da10246cf947f5992942f46a0029",
  "source": "pragma solidity ^0.4.21;\n\n\nimport \"./ERC721Token.sol\";\n\nimport \"./Strings.sol\";\n\nimport \"./ERC165.sol\";\n\nimport \"./Whitelist.sol\";\n\n\n/**\n* @title DART\n*/\ncontract DART is ERC721Token, ERC165, Whitelist {\n  using SafeMath for uint256;\n\n  bytes4 constant InterfaceSignature_ERC165 = 0x01ffc9a7;\n  /*\n  bytes4(keccak256('supportsInterface(bytes4)'));\n  */\n\n  bytes4 constant InterfaceSignature_ERC721Enumerable = 0x780e9d63;\n  /*\n  bytes4(keccak256('totalSupply()')) ^\n  bytes4(keccak256('tokenOfOwnerByIndex(address,uint256)')) ^\n  bytes4(keccak256('tokenByIndex(uint256)'));\n  */\n\n  bytes4 constant InterfaceSignature_ERC721Metadata = 0x5b5e139f;\n  /*\n  bytes4(keccak256('name()')) ^\n  bytes4(keccak256('symbol()')) ^\n  bytes4(keccak256('tokenURI(uint256)'));\n  */\n\n  bytes4 constant InterfaceSignature_ERC721 = 0x80ac58cd;\n  /*\n  bytes4(keccak256('balanceOf(address)')) ^\n  bytes4(keccak256('ownerOf(uint256)')) ^\n  bytes4(keccak256('approve(address,uint256)')) ^\n  bytes4(keccak256('getApproved(uint256)')) ^\n  bytes4(keccak256('setApprovalForAll(address,bool)')) ^\n  bytes4(keccak256('isApprovedForAll(address,address)')) ^\n  bytes4(keccak256('transferFrom(address,address,uint256)')) ^\n  bytes4(keccak256('safeTransferFrom(address,address,uint256)')) ^\n  bytes4(keccak256('safeTransferFrom(address,address,uint256,bytes)'));\n  */\n\n  bytes4 public constant InterfaceSignature_ERC721Optional = - 0x4f558e79;\n  /*\n  bytes4(keccak256('exists(uint256)'));\n  */\n\n  /**\n   * @notice Introspection interface as per ERC-165 (https://github.com/ethereum/EIPs/issues/165).\n   * @dev Returns true for any standardized interfaces implemented by this contract.\n   * @param _interfaceID bytes4 the interface to check for\n   * @return true for any standardized interfaces implemented by this contract.\n   */\n  function supportsInterface(bytes4 _interfaceID) external pure returns (bool) {\n    return ((_interfaceID == InterfaceSignature_ERC165)\n    || (_interfaceID == InterfaceSignature_ERC721)\n    || (_interfaceID == InterfaceSignature_ERC721Optional)\n    || (_interfaceID == InterfaceSignature_ERC721Enumerable)\n    || (_interfaceID == InterfaceSignature_ERC721Metadata));\n  }\n\n  event MintDART(address indexed _owner, uint256 indexed _tokenId, bytes32 _blockhash, string _nickname);\n\n  event FundDART(address indexed _funder, uint256 indexed _tokenId, bytes32 _blockhash, uint256 _block);\n\n  event BlocksPurchasedDART(address indexed _funder, uint256 indexed _tokenId, uint256 _blocksPurchased);\n\n  string internal tokenBaseURI = \"https://ipfs.infura.io/ipfs/\";\n\n  // total wei sent to the  contract\n  uint256 public totalContributionsInWei;\n\n  // TODO handle setting these per contract/installation\n  // the price to display per block\n  uint256 public pricePerBlock = 0.01 ether;\n\n  // TODO handle setting these per contract/installation\n  // percentage of all funds received which is directed to a donation address\n  uint8 public donationPercentage = 1;\n\n  // TODO handle setting these per contract/installation\n  // max number of blocks allowed to purchased in one go (mainly for gas costs, this should be kept fairly low for now)\n  uint256 public maxBlockPurchaseInOneGo = 20;\n\n  mapping (uint256 => bytes32) internal tokenIdToBlockhash;\n\n  mapping (bytes32 => uint256) internal blockhashToTokenId;\n\n  mapping (uint256 => string) internal tokenIdToNickname;\n\n  uint256 public lastPurchasedBlock = 0;\n\n  mapping (uint256 => uint256) internal blocknumberToTokenId;\n\n  // Mapping tokenID to the blocks that have purchased\n  mapping (uint256 => uint256[]) internal tokenIdToPurchasedBlocknumbers;\n\n  modifier onlyDARTOwnedToken(uint256 _tokenId) {\n    require(tokenOwner[_tokenId] == owner);\n    _;\n  }\n\n  modifier onlyValidAmounts() {\n    // Some value\n    require(msg.value >= 0);\n\n    // Min price\n    require(msg.value >= pricePerBlock);\n\n    // max price\n    require(msg.value <= (pricePerBlock * maxBlockPurchaseInOneGo));\n    _;\n  }\n\n  function DART() public ERC721Token(\"Digital Art\", \"DART\") {\n    // set to current block mined in\n    lastPurchasedBlock = block.number;\n\n    // TODO handle setting these/configuring\n    super.addAddressToWhitelist(msg.sender);\n    super.addAddressToWhitelist(0xf43aE50C468c3D3Fa0C3dC3454E797317EF53078);\n    super.addAddressToWhitelist(0xe1023C112A39c58238929153F25364c11A33B729);\n  }\n\n  // don't accept payment directly to contract\n  function() public payable {\n    require(ownedTokens[msg.sender].length > 0);\n\n    fundDart(ownedTokens[msg.sender][0]);\n  }\n\n  /**\n   * @dev Funds your token to be displayed for a specific amount of time\n   * @param _tokenId the DART token ID\n   */\n  function fundDart(uint256 _tokenId) public payable onlyValidAmounts {\n    require(exists(_tokenId));\n\n    // determine how many blocks purchased\n    uint256 blocksToPurchased = msg.value / pricePerBlock;\n\n    // Start purchase from next block the current block is being mined\n    uint256 nextBlockToPurchase = block.number + 1;\n\n    // If next block is behind the next block to purchase, set next block to the last block\n    if (nextBlockToPurchase < lastPurchasedBlock) {\n      // reducing wasted loops to find a viable block to purchase\n      nextBlockToPurchase = lastPurchasedBlock;\n    }\n\n    uint8 purchased = 0;\n    while (purchased < blocksToPurchased) {\n\n      if (tokenIdOf(nextBlockToPurchase) == 0) {\n        purchaseBlock(nextBlockToPurchase, _tokenId);\n        purchased++;\n      }\n\n      // move next block on to find another free space\n      nextBlockToPurchase = nextBlockToPurchase + 1;\n    }\n\n    // update last block once purchased\n    lastPurchasedBlock = nextBlockToPurchase;\n\n    // TODO splice monies to various parties\n    BlocksPurchasedDART(msg.sender, _tokenId, blocksToPurchased);\n  }\n\n  function purchaseBlock(uint256 _blocknumber, uint256 _tokenId) internal {\n\n    // keep track of the token associated to the block\n    blocknumberToTokenId[_blocknumber] = _tokenId;\n\n    // Keep track of the blocks purchased by the token\n    tokenIdToPurchasedBlocknumbers[_tokenId].push(_blocknumber);\n\n    // Emit event for logging/tracking\n    FundDART(msg.sender, _tokenId, generateHash(_blocknumber), _blocknumber);\n  }\n\n  /**\n   * @dev Mint a new DART token\n   * @dev Reverts if not called by curator\n   * @param _blockhash an Ethereum block hash\n   * @param _tokenId unique token ID\n   * @param _nickname char stamp of token owner\n   */\n  function mint(bytes32 _blockhash, uint256 _tokenId, string _nickname) external onlyWhitelisted {\n    require(blockhashToTokenId[_blockhash] == 0);\n    require(tokenIdToBlockhash[_tokenId] == 0);\n\n    // actually mint the token\n    super._mint(msg.sender, _tokenId);\n\n    // FIXME - handle this\n    super._setTokenURI(_tokenId, \"WIP\");\n\n    // set data\n    tokenIdToBlockhash[_tokenId] = _blockhash;\n    blockhashToTokenId[_blockhash] = _tokenId;\n    tokenIdToNickname[_tokenId] = _nickname;\n\n    MintDART(msg.sender, _tokenId, _blockhash, _nickname);\n  }\n\n  /**\n   * @dev Attempts to work out the next block which will be funded\n   */\n  function getNextBlockToFund() public view returns (uint256 _nextFundedBlock) {\n    if (block.number < lastPurchasedBlock) {\n      return lastPurchasedBlock;\n    }\n    return block.number + 1;\n  }\n\n  /**\n   * @dev Burns a DART token\n   * @dev Reverts if token is not unsold or not owned by management\n   * @param _tokenId the DART token ID\n   */\n  function burn(uint256 _tokenId) external onlyWhitelisted {\n    require(exists(_tokenId));\n    super._burn(msg.sender, _tokenId); // TODO presume owner of token can burn\n    // TODO clear metadata\n  }\n\n  /**\n   * @dev Utility function for updating a DART assets token URI\n   * @dev Reverts if not called by management\n   * @param _tokenId the DART token ID\n   * @param _uri the token URI, will be concatenated with baseUri\n   */\n  function setTokenURI(uint256 _tokenId, string _uri) external onlyWhitelisted {\n    require(exists(_tokenId));\n    _setTokenURI(_tokenId, _uri);\n  }\n\n  /**\n   * @dev Return owned tokens\n   * @param _owner address to query\n   */\n  function tokensOf(address _owner) public view returns (uint256[] _tokenIds) {\n    return ownedTokens[_owner];\n  }\n\n  /**\n   * @dev Return handle of token\n   * @param _tokenId token ID for handle lookup\n   */\n  function nicknameOf(uint256 _tokenId) public view returns (string _nickname) {\n    return tokenIdToNickname[_tokenId];\n  }\n\n  /**\n   * @dev Return blockhash of the DART token\n   * @param _tokenId the DART token ID\n   */\n  function blockhashOf(uint256 _tokenId) public view returns (bytes32 hash) {\n    return tokenIdToBlockhash[_tokenId];\n  }\n\n  /**\n   * @dev Return token ID for the provided block or 0 when not found\n   */\n  function tokenIdOf(uint256 _blockNumber) public view returns (uint256 _tokenId) {\n    return blocknumberToTokenId[_blockNumber];\n  }\n\n  /**\n   * @dev Returns the blocks which the [provided token has purchased\n   */\n  function blocksPurchasedByToken(uint256 _tokenId) public view returns (uint256[] _blocks) {\n    return tokenIdToPurchasedBlocknumbers[_tokenId];\n  }\n\n  /**\n   * @dev Get token URI fro the given token, useful for testing purposes\n   * @param _tokenId the DART token ID\n   * @return the token ID or only the base URI if not found\n   */\n  function tokenURI(uint256 _tokenId) public view returns (string) {\n    return Strings.strConcat(tokenBaseURI, tokenURIs[_tokenId]);\n  }\n\n  /**\n   * @dev Allows management to update the base tokenURI path\n   * @dev Reverts if not called by management\n   * @param _newBaseURI the new base URI to set\n   */\n  function setTokenBaseURI(string _newBaseURI) external onlyWhitelisted {\n    tokenBaseURI = _newBaseURI;\n  }\n\n  /**\n   * @dev Get the hash the given block\n   * @param _blockNumber the block to generate hash for\n   * TODO rename this to get()\n   */\n  function generateHash(uint256 _blockNumber) public view returns (bytes32 _tokenHash) {\n    // Dont allow this to be called for hashes which aren't purchased\n    require(tokenIdOf(_blockNumber) != 0);\n\n    uint256 tokenId = tokenIdOf(_blockNumber);\n    return blockhashOf(tokenId);\n  }\n\n  /**\n   * @dev Generates a unique token hash for the token\n   * @return the hash and its associated block\n   */\n  function nextHash() public view returns (bytes32 _tokenHash, uint256 _nextBlock) {\n    uint256 nextBlock = block.number - 1;\n\n    // if current block number has been allocated then use it\n    if (tokenIdOf(nextBlock) != 0) {\n      return (\n        generateHash(nextBlock),\n        nextBlock\n      );\n    }\n\n    // if no one own the current blockhash return current\n    return (\n      defaultBlockhash(nextBlock),\n      nextBlock\n    );\n  }\n\n  /**\n   * @dev Generates default block hash behaviour - good for testings\n   */\n  function defaultBlockhash(uint256 _blockNumber) public view returns (bytes32 _tokenHash) {\n    return block.blockhash(_blockNumber);\n  }\n\n  /**\n   * @dev Returns blocknumber - good for testings\n   */\n  function blockNumber() public view returns (uint256 _blockNumber) {\n    return block.number;\n  }\n}\n",
  "sourcePath": "/Users/andy/workspace/art-blocks/contracts/DART.sol",
  "compiler": {
    "name": "solc",
    "version": "0.4.21+commit.dfe3193c.Emscripten.clang"
  },
  "schemaVersion": "2.0.0",
  "updatedAt": "2018-05-11T19:24:34.071Z"
}