{
  "contractName": "DART",
  "abi": [
    {
      "constant": true,
      "inputs": [],
      "name": "name",
      "outputs": [
        {
          "name": "",
          "type": "string"
        }
      ],
      "payable": false,
      "stateMutability": "view",
      "type": "function"
    },
    {
      "constant": true,
      "inputs": [
        {
          "name": "_tokenId",
          "type": "uint256"
        }
      ],
      "name": "getApproved",
      "outputs": [
        {
          "name": "",
          "type": "address"
        }
      ],
      "payable": false,
      "stateMutability": "view",
      "type": "function"
    },
    {
      "constant": false,
      "inputs": [
        {
          "name": "_to",
          "type": "address"
        },
        {
          "name": "_tokenId",
          "type": "uint256"
        }
      ],
      "name": "approve",
      "outputs": [],
      "payable": false,
      "stateMutability": "nonpayable",
      "type": "function"
    },
    {
      "constant": true,
      "inputs": [],
      "name": "totalSupply",
      "outputs": [
        {
          "name": "",
          "type": "uint256"
        }
      ],
      "payable": false,
      "stateMutability": "view",
      "type": "function"
    },
    {
      "constant": false,
      "inputs": [
        {
          "name": "_from",
          "type": "address"
        },
        {
          "name": "_to",
          "type": "address"
        },
        {
          "name": "_tokenId",
          "type": "uint256"
        }
      ],
      "name": "transferFrom",
      "outputs": [],
      "payable": false,
      "stateMutability": "nonpayable",
      "type": "function"
    },
    {
      "constant": true,
      "inputs": [
        {
          "name": "_owner",
          "type": "address"
        },
        {
          "name": "_index",
          "type": "uint256"
        }
      ],
      "name": "tokenOfOwnerByIndex",
      "outputs": [
        {
          "name": "",
          "type": "uint256"
        }
      ],
      "payable": false,
      "stateMutability": "view",
      "type": "function"
    },
    {
      "constant": true,
      "inputs": [],
      "name": "tokenIdPointer",
      "outputs": [
        {
          "name": "",
          "type": "uint256"
        }
      ],
      "payable": false,
      "stateMutability": "view",
      "type": "function"
    },
    {
      "constant": false,
      "inputs": [
        {
          "name": "_from",
          "type": "address"
        },
        {
          "name": "_to",
          "type": "address"
        },
        {
          "name": "_tokenId",
          "type": "uint256"
        }
      ],
      "name": "safeTransferFrom",
      "outputs": [],
      "payable": false,
      "stateMutability": "nonpayable",
      "type": "function"
    },
    {
      "constant": true,
      "inputs": [
        {
          "name": "_tokenId",
          "type": "uint256"
        }
      ],
      "name": "exists",
      "outputs": [
        {
          "name": "",
          "type": "bool"
        }
      ],
      "payable": false,
      "stateMutability": "view",
      "type": "function"
    },
    {
      "constant": true,
      "inputs": [
        {
          "name": "_index",
          "type": "uint256"
        }
      ],
      "name": "tokenByIndex",
      "outputs": [
        {
          "name": "",
          "type": "uint256"
        }
      ],
      "payable": false,
      "stateMutability": "view",
      "type": "function"
    },
    {
      "constant": true,
      "inputs": [],
      "name": "totalContributionsInWei",
      "outputs": [
        {
          "name": "",
          "type": "uint256"
        }
      ],
      "payable": false,
      "stateMutability": "view",
      "type": "function"
    },
    {
      "constant": true,
      "inputs": [],
      "name": "InterfaceSignature_ERC721Optional",
      "outputs": [
        {
          "name": "",
          "type": "bytes4"
        }
      ],
      "payable": false,
      "stateMutability": "view",
      "type": "function"
    },
    {
      "constant": true,
      "inputs": [
        {
          "name": "_tokenId",
          "type": "uint256"
        }
      ],
      "name": "ownerOf",
      "outputs": [
        {
          "name": "",
          "type": "address"
        }
      ],
      "payable": false,
      "stateMutability": "view",
      "type": "function"
    },
    {
      "constant": true,
      "inputs": [
        {
          "name": "_owner",
          "type": "address"
        }
      ],
      "name": "balanceOf",
      "outputs": [
        {
          "name": "",
          "type": "uint256"
        }
      ],
      "payable": false,
      "stateMutability": "view",
      "type": "function"
    },
    {
      "constant": true,
      "inputs": [],
      "name": "symbol",
      "outputs": [
        {
          "name": "",
          "type": "string"
        }
      ],
      "payable": false,
      "stateMutability": "view",
      "type": "function"
    },
    {
      "constant": false,
      "inputs": [
        {
          "name": "_to",
          "type": "address"
        },
        {
          "name": "_approved",
          "type": "bool"
        }
      ],
      "name": "setApprovalForAll",
      "outputs": [],
      "payable": false,
      "stateMutability": "nonpayable",
      "type": "function"
    },
    {
      "constant": false,
      "inputs": [
        {
          "name": "_from",
          "type": "address"
        },
        {
          "name": "_to",
          "type": "address"
        },
        {
          "name": "_tokenId",
          "type": "uint256"
        },
        {
          "name": "_data",
          "type": "bytes"
        }
      ],
      "name": "safeTransferFrom",
      "outputs": [],
      "payable": false,
      "stateMutability": "nonpayable",
      "type": "function"
    },
    {
      "constant": true,
      "inputs": [],
      "name": "curatorAccount",
      "outputs": [
        {
          "name": "",
          "type": "address"
        }
      ],
      "payable": false,
      "stateMutability": "view",
      "type": "function"
    },
    {
      "constant": true,
      "inputs": [
        {
          "name": "_owner",
          "type": "address"
        },
        {
          "name": "_operator",
          "type": "address"
        }
      ],
      "name": "isApprovedForAll",
      "outputs": [
        {
          "name": "",
          "type": "bool"
        }
      ],
      "payable": false,
      "stateMutability": "view",
      "type": "function"
    },
    {
      "inputs": [],
      "payable": false,
      "stateMutability": "nonpayable",
      "type": "constructor"
    },
    {
      "payable": true,
      "stateMutability": "payable",
      "type": "fallback"
    },
    {
      "anonymous": false,
      "inputs": [
        {
          "indexed": true,
          "name": "_from",
          "type": "address"
        },
        {
          "indexed": true,
          "name": "_to",
          "type": "address"
        },
        {
          "indexed": false,
          "name": "_tokenId",
          "type": "uint256"
        }
      ],
      "name": "Transfer",
      "type": "event"
    },
    {
      "anonymous": false,
      "inputs": [
        {
          "indexed": true,
          "name": "_owner",
          "type": "address"
        },
        {
          "indexed": true,
          "name": "_approved",
          "type": "address"
        },
        {
          "indexed": false,
          "name": "_tokenId",
          "type": "uint256"
        }
      ],
      "name": "Approval",
      "type": "event"
    },
    {
      "anonymous": false,
      "inputs": [
        {
          "indexed": true,
          "name": "_owner",
          "type": "address"
        },
        {
          "indexed": true,
          "name": "_operator",
          "type": "address"
        },
        {
          "indexed": false,
          "name": "_approved",
          "type": "bool"
        }
      ],
      "name": "ApprovalForAll",
      "type": "event"
    },
    {
      "constant": true,
      "inputs": [
        {
          "name": "_interfaceID",
          "type": "bytes4"
        }
      ],
      "name": "supportsInterface",
      "outputs": [
        {
          "name": "",
          "type": "bool"
        }
      ],
      "payable": false,
      "stateMutability": "pure",
      "type": "function"
    },
    {
      "constant": false,
      "inputs": [
        {
          "name": "_tokenId",
          "type": "uint256"
        }
      ],
      "name": "dArtFundDisplayTime",
      "outputs": [],
      "payable": true,
      "stateMutability": "payable",
      "type": "function"
    },
    {
      "constant": false,
      "inputs": [
        {
          "name": "_tokenURI",
          "type": "string"
        },
        {
          "name": "_handle",
          "type": "string"
        }
      ],
      "name": "mint",
      "outputs": [],
      "payable": false,
      "stateMutability": "nonpayable",
      "type": "function"
    },
    {
      "constant": false,
      "inputs": [
        {
          "name": "_tokenId",
          "type": "uint256"
        }
      ],
      "name": "burn",
      "outputs": [],
      "payable": false,
      "stateMutability": "nonpayable",
      "type": "function"
    },
    {
      "constant": false,
      "inputs": [
        {
          "name": "_tokenId",
          "type": "uint256"
        },
        {
          "name": "_uri",
          "type": "string"
        }
      ],
      "name": "setTokenURI",
      "outputs": [],
      "payable": false,
      "stateMutability": "nonpayable",
      "type": "function"
    },
    {
      "constant": true,
      "inputs": [
        {
          "name": "_owner",
          "type": "address"
        }
      ],
      "name": "tokensOf",
      "outputs": [
        {
          "name": "_tokenIds",
          "type": "uint256[]"
        }
      ],
      "payable": false,
      "stateMutability": "view",
      "type": "function"
    },
    {
      "constant": true,
      "inputs": [
        {
          "name": "_tokenId",
          "type": "uint256"
        }
      ],
      "name": "handleOf",
      "outputs": [
        {
          "name": "_handle",
          "type": "string"
        }
      ],
      "payable": false,
      "stateMutability": "view",
      "type": "function"
    },
    {
      "constant": true,
      "inputs": [
        {
          "name": "_blockNumber",
          "type": "uint256"
        }
      ],
      "name": "tokenBlockOwnerOf",
      "outputs": [
        {
          "name": "_tokenId",
          "type": "uint256"
        }
      ],
      "payable": false,
      "stateMutability": "view",
      "type": "function"
    },
    {
      "constant": true,
      "inputs": [
        {
          "name": "_tokenId",
          "type": "uint256"
        }
      ],
      "name": "tokenURI",
      "outputs": [
        {
          "name": "",
          "type": "string"
        }
      ],
      "payable": false,
      "stateMutability": "view",
      "type": "function"
    },
    {
      "constant": false,
      "inputs": [
        {
          "name": "_newBaseURI",
          "type": "string"
        }
      ],
      "name": "setTokenBaseURI",
      "outputs": [],
      "payable": false,
      "stateMutability": "nonpayable",
      "type": "function"
    },
    {
      "constant": true,
      "inputs": [
        {
          "name": "_tokenId",
          "type": "uint256"
        }
      ],
      "name": "tokenHash",
      "outputs": [
        {
          "name": "",
          "type": "bytes32"
        }
      ],
      "payable": false,
      "stateMutability": "view",
      "type": "function"
    },
    {
      "constant": true,
      "inputs": [],
      "name": "getCurrentHash",
      "outputs": [
        {
          "name": "_tokenHash",
          "type": "bytes32"
        }
      ],
      "payable": false,
      "stateMutability": "view",
      "type": "function"
    }
  ],
  "bytecode": "0x606060405260408051908101604052601c81527f68747470733a2f2f697066732e696e667572612e696f2f697066732f000000006020820152600b9080516200004d92916020019062000115565b506000600e5534156200005f57600080fd5b604080519081016040908152600b82527f4469676974616c204172740000000000000000000000000000000000000000006020830152805190810160405260048082527f44415254000000000000000000000000000000000000000000000000000000006020830152828051620000db92916020019062000115565b506005818051620000f192916020019062000115565b5050600c8054600160a060020a03191633600160a060020a031617905550620001ba565b828054600181600116156101000203166002900490600052602060002090601f016020900481019282601f106200015857805160ff191683800117855562000188565b8280016001018555821562000188579182015b82811115620001885782518255916020019190600101906200016b565b50620001969291506200019a565b5090565b620001b791905b80821115620001965760008155600101620001a1565b90565b611f4e80620001ca6000396000f30060606040526004361061018a5763ffffffff7c010000000000000000000000000000000000000000000000000000000060003504166301ffc9a7811461018f57806306fdde03146101c3578063081812fc1461024d578063095ea7b31461027f57806310542ccb146102a3578063162094c4146102ae57806318160ddd146102d057806323b872dd146102f55780632f745c591461031d5780633b3a1a7a1461033f57806342842e0e1461035257806342966c681461037a57806349491987146103905780634f558e79146103a65780634f6ccce7146103bc5780635a3f2672146103d25780635a7cb31b146104445780635da841b614610457578063624de3d91461046d5780636352211e1461049d57806370a08231146104b35780637cee919c146104d25780638aa0fdad146104e55780638ef79e911461050f57806395d89b411461052d578063a22cb46514610540578063a386439714610564578063b88d4fde1461057a578063c87b56dd146105e6578063d4f74bf4146105fc578063e985e9c51461060f575b600080fd5b341561019a57600080fd5b6101af600160e060020a031960043516610634565b604051901515815260200160405180910390f35b34156101ce57600080fd5b6101d6610739565b60405160208082528190810183818151815260200191508051906020019080838360005b838110156102125780820151838201526020016101fa565b50505050905090810190601f16801561023f5780820380516001836020036101000a031916815260200191505b509250505060405180910390f35b341561025857600080fd5b6102636004356107e2565b604051600160a060020a03909116815260200160405180910390f35b341561028a57600080fd5b6102a1600160a060020a03600435166024356107fd565b005b6102a16004356108f9565b34156102b957600080fd5b6102a160048035906024803590810191013561091e565b34156102db57600080fd5b6102e3610986565b60405190815260200160405180910390f35b341561030057600080fd5b6102a1600160a060020a036004358116906024351660443561098c565b341561032857600080fd5b6102e3600160a060020a0360043516602435610a37565b341561034a57600080fd5b6102e3610a85565b341561035d57600080fd5b6102a1600160a060020a0360043581169060243516604435610a8b565b341561038557600080fd5b6102a1600435610ac1565b341561039b57600080fd5b6101d6600435610b31565b34156103b157600080fd5b6101af600435610bec565b34156103c757600080fd5b6102e3600435610c09565b34156103dd57600080fd5b6103f1600160a060020a0360043516610c3f565b60405160208082528190810183818151815260200191508051906020019060200280838360005b83811015610430578082015183820152602001610418565b505050509050019250505060405180910390f35b341561044f57600080fd5b6102e3610cc1565b341561046257600080fd5b6102e3600435610cc7565b341561047857600080fd5b610480610cd9565b604051600160e060020a0319909116815260200160405180910390f35b34156104a857600080fd5b610263600435610cfd565b34156104be57600080fd5b6102e3600160a060020a0360043516610d21565b34156104dd57600080fd5b6102e3610d54565b34156104f057600080fd5b6102a16024600480358281019290820135918135918201910135610d89565b341561051a57600080fd5b6102a16004803560248101910135610e54565b341561053857600080fd5b6101d6610e7b565b341561054b57600080fd5b6102a1600160a060020a03600435166024351515610eee565b341561056f57600080fd5b6102e3600435610f7f565b341561058557600080fd5b6102a1600160a060020a036004803582169160248035909116916044359160849060643590810190830135806020601f820181900481020160405190810160405281815292919060208401838380828437509496506110d695505050505050565b34156105f157600080fd5b6101d6600435611115565b341561060757600080fd5b61026361126c565b341561061a57600080fd5b6101af600160a060020a036004358116906024351661127b565b6000600160e060020a031982167f01ffc9a70000000000000000000000000000000000000000000000000000000014806106975750600160e060020a031982167f80ac58cd00000000000000000000000000000000000000000000000000000000145b806106cb5750600160e060020a031982167fb0aa718700000000000000000000000000000000000000000000000000000000145b806106ff5750600160e060020a031982167f780e9d6300000000000000000000000000000000000000000000000000000000145b806107335750600160e060020a031982167f5b5e139f00000000000000000000000000000000000000000000000000000000145b92915050565b610741611daa565b60048054600181600116156101000203166002900480601f0160208091040260200160405190810160405280929190818152602001828054600181600116156101000203166002900480156107d75780601f106107ac576101008083540402835291602001916107d7565b820191906000526020600020905b8154815290600101906020018083116107ba57829003601f168201915b505050505090505b90565b600090815260016020526040902054600160a060020a031690565b600061080882610cfd565b9050600160a060020a03838116908216141561082357600080fd5b80600160a060020a031633600160a060020a031614806108485750610848813361127b565b151561085357600080fd5b600061085e836107e2565b600160a060020a031614158061087c5750600160a060020a03831615155b156108f45760008281526001602052604090819020805473ffffffffffffffffffffffffffffffffffffffff1916600160a060020a0386811691821790925591908316907f8c5be1e5ebec7d5bd14f71427d1e84f3dd0314c0f7b2291e5b200ac8c7c3b9259085905190815260200160405180910390a35b505050565b61090281610bec565b151561090d57600080fd5b600034101561091b57600080fd5b50565b600c5433600160a060020a0390811691161461093957600080fd5b61094283610bec565b151561094d57600080fd5b6108f48383838080601f0160208091040260200160405190810160405281815292919060208401838380828437506112a9945050505050565b60085490565b8061099733826112dc565b15156109a257600080fd5b600160a060020a03841615156109b757600080fd5b600160a060020a03831615156109cc57600080fd5b6109d6848361133b565b6109e084836113ea565b6109ea8383611518565b82600160a060020a031684600160a060020a03167fddf252ad1be2c89b69c2b068fc378daa952ba7f163c4a11628f55a4df523b3ef8460405190815260200160405180910390a350505050565b6000610a4283610d21565b8210610a4d57600080fd5b600160a060020a0383166000908152600660205260409020805483908110610a7157fe5b906000526020600020900154905092915050565b600e5481565b80610a9633826112dc565b1515610aa157600080fd5b610abb8484846020604051908101604052600081526110d6565b50505050565b600c5433600160a060020a03908116911614610adc57600080fd5b600c546000828152602081905260409020548291600160a060020a03918216911614610b0757600080fd5b610b1082610bec565b1515610b1b57600080fd5b610b2d610b2783610cfd565b83611572565b5050565b610b39611daa565b601060008381526020019081526020016000208054600181600116156101000203166002900480601f016020809104026020016040519081016040528092919081815260200182805460018160011615610100020316600290048015610be05780601f10610bb557610100808354040283529160200191610be0565b820191906000526020600020905b815481529060010190602001808311610bc357829003601f168201915b50505050509050919050565b600090815260208190526040902054600160a060020a0316151590565b6000610c13610986565b8210610c1e57600080fd5b6008805483908110610c2c57fe5b9060005260206000209001549050919050565b610c47611daa565b6006600083600160a060020a0316600160a060020a03168152602001908152602001600020805480602002602001604051908101604052809291908181526020018280548015610be057602002820191906000526020600020905b815481526020019060010190808311610ca25750505050509050919050565b600d5481565b6000908152600f602052604090205490565b7fb0aa71870000000000000000000000000000000000000000000000000000000081565b600081815260208190526040812054600160a060020a031680151561073357600080fd5b6000600160a060020a0382161515610d3857600080fd5b50600160a060020a031660009081526002602052604090205490565b600080610d6043610cc7565b9050610d6b81610bec565b15610d8057610d7981610f7f565b9150610d85565b434091505b5090565b600c54600090819033600160a060020a03908116911614610da957600080fd5b5050600e54436000818152600f602052604090205415610dc857600080fd5b610dd2338361166d565b610e0b8287878080601f0160208091040260200160405190810160405281815292919060208401838380828437506112a9945050505050565b6000818152600f6020908152604080832085905584835260109091529020610e34908585611dbc565b50600e54610e4990600163ffffffff6116aa16565b600e55505050505050565b600c5433600160a060020a03908116911614610e6f57600080fd5b6108f4600b8383611dbc565b610e83611daa565b60058054600181600116156101000203166002900480601f0160208091040260200160405190810160405280929190818152602001828054600181600116156101000203166002900480156107d75780601f106107ac576101008083540402835291602001916107d7565b33600160a060020a031682600160a060020a031614151515610f0f57600080fd5b33600160a060020a0390811660008181526003602090815260408083209487168084529490915290819020805460ff19168515151790557f17307eab39ab6107e8899845ad3d59bd9653f200f220920489ca2b5937696c3190849051901515815260200160405180910390a35050565b6000611074610f8d836116c0565b6040805190810160405280600181526020017f3a00000000000000000000000000000000000000000000000000000000000000815250601060008681526020019081526020016000208054600181600116156101000203166002900480601f01602080910402602001604051908101604052809291908181526020018280546001816001161561010002031660029004801561106a5780601f1061103f5761010080835404028352916020019161106a565b820191906000526020600020905b81548152906001019060200180831161104d57829003601f168201915b5050505050611773565b6040518082805190602001908083835b602083106110a35780518252601f199092019160209182019101611084565b6001836020036101000a038019825116818451161790925250505091909101925060409150505180910390209050919050565b816110e133826112dc565b15156110ec57600080fd5b6110f785858561098c565b611103858585856117a6565b151561110e57600080fd5b5050505050565b61111d611daa565b610733600b8054600181600116156101000203166002900480601f0160208091040260200160405190810160405280929190818152602001828054600181600116156101000203166002900480156111b65780601f1061118b576101008083540402835291602001916111b6565b820191906000526020600020905b81548152906001019060200180831161119957829003601f168201915b5050505050600a60008581526020019081526020016000208054600181600116156101000203166002900480601f0160208091040260200160405190810160405280929190818152602001828054600181600116156101000203166002900480156112625780601f1061123757610100808354040283529160200191611262565b820191906000526020600020905b81548152906001019060200180831161124557829003601f168201915b5050505050611900565b600c54600160a060020a031681565b600160a060020a03918216600090815260036020908152604080832093909416825291909152205460ff1690565b6112b282610bec565b15156112bd57600080fd5b6000828152600a602052604090208180516108f4929160200190611e36565b6000806112e883610cfd565b905080600160a060020a031684600160a060020a03161480611323575083600160a060020a0316611318846107e2565b600160a060020a0316145b806113335750611333818561127b565b949350505050565b81600160a060020a031661134e82610cfd565b600160a060020a03161461136157600080fd5b600081815260016020526040902054600160a060020a031615610b2d57600081815260016020526040808220805473ffffffffffffffffffffffffffffffffffffffff19169055600160a060020a038416907f8c5be1e5ebec7d5bd14f71427d1e84f3dd0314c0f7b2291e5b200ac8c7c3b9259084905190815260200160405180910390a35050565b60008060006113f98585611943565b600084815260076020908152604080832054600160a060020a038916845260069092529091205490935061143490600163ffffffff6119d816565b600160a060020a03861660009081526006602052604090208054919350908390811061145c57fe5b6000918252602080832090910154600160a060020a038816835260069091526040909120805491925082918590811061149157fe5b6000918252602080832090910192909255600160a060020a03871681526006909152604081208054849081106114c357fe5b6000918252602080832090910192909255600160a060020a03871681526006909152604090208054906114fa906000198301611ea4565b50600093845260076020526040808520859055908452909220555050565b600061152483836119ea565b50600160a060020a0382166000908152600660205260409020805490816001810161154f8382611ea4565b506000918252602080832091909101849055928152600790925260409091205550565b60008060006115818585611a79565b6000848152600a602052604090205460026000196101006001841615020190911604156115bf576000848152600a602052604081206115bf91611ec8565b6000848152600960205260409020546008549093506115e590600163ffffffff6119d816565b91506008828154811015156115f657fe5b90600052602060002090015490508060088481548110151561161457fe5b6000918252602082200191909155600880548490811061163057fe5b600091825260209091200155600880549061164f906000198301611ea4565b50600093845260096020526040808520859055908452909220555050565b6116778282611ad0565b6008805460008381526009602052604090208190556001810161169a8382611ea4565b5060009182526020909120015550565b6000828201838110156116b957fe5b9392505050565b6116c8611daa565b6116d0611daa565b60008060206040518059106116e25750595b818152601f19601f830116810160200160405290509250600091505b602082101561176a57506008810260020a84027fff0000000000000000000000000000000000000000000000000000000000000081161561175f578083838151811061174657fe5b906020010190600160f860020a031916908160001a9053505b6001909101906116fe565b50909392505050565b61177b611daa565b6113338484846020604051908101604052806000815250602060405190810160405260008152611b32565b6000806117bb85600160a060020a0316611da2565b15156117ca57600191506118f7565b84600160a060020a031663f0b9e5ba8786866040518463ffffffff167c01000000000000000000000000000000000000000000000000000000000281526004018084600160a060020a0316600160a060020a0316815260200183815260200180602001828103825283818151815260200191508051906020019080838360005b8381101561186257808201518382015260200161184a565b50505050905090810190601f16801561188f5780820380516001836020036101000a031916815260200191505b50945050505050602060405180830381600087803b15156118af57600080fd5b5af115156118bc57600080fd5b5050506040518051600160e060020a031981167ff0b9e5ba000000000000000000000000000000000000000000000000000000001493509150505b50949350505050565b611908611daa565b6116b9838360206040519081016040528060008152506020604051908101604052806000815250602060405190810160405260008152611b32565b81600160a060020a031661195682610cfd565b600160a060020a03161461196957600080fd5b600160a060020a03821660009081526002602052604090205461199390600163ffffffff6119d816565b600160a060020a039092166000908152600260209081526040808320949094559181529081905220805473ffffffffffffffffffffffffffffffffffffffff19169055565b6000828211156119e457fe5b50900390565b600081815260208190526040902054600160a060020a031615611a0c57600080fd5b600081815260208181526040808320805473ffffffffffffffffffffffffffffffffffffffff1916600160a060020a03871690811790915583526002909152902054611a599060016116aa565b600160a060020a0390921660009081526002602052604090209190915550565b611a83828261133b565b611a8d82826113ea565b6000600160a060020a0383167fddf252ad1be2c89b69c2b068fc378daa952ba7f163c4a11628f55a4df523b3ef8360405190815260200160405180910390a35050565b600160a060020a0382161515611ae557600080fd5b611aef8282611518565b600160a060020a03821660007fddf252ad1be2c89b69c2b068fc378daa952ba7f163c4a11628f55a4df523b3ef8360405190815260200160405180910390a35050565b611b3a611daa565b611b42611daa565b611b4a611daa565b611b52611daa565b611b5a611daa565b611b62611daa565b611b6a611daa565b611b72611daa565b6000808e98508d97508c96508b95508a94508451865188518a518c5101010101604051805910611b9f5750595b818152601f19601f83011681016020016040529050935083925060009150600090505b8851811015611c1b57888181518110611bd757fe5b016020015160f860020a900460f860020a02838380600101945081518110611bfb57fe5b906020010190600160f860020a031916908160001a905350600101611bc2565b5060005b8751811015611c7857878181518110611c3457fe5b016020015160f860020a900460f860020a02838380600101945081518110611c5857fe5b906020010190600160f860020a031916908160001a905350600101611c1f565b5060005b8651811015611cd557868181518110611c9157fe5b016020015160f860020a900460f860020a02838380600101945081518110611cb557fe5b906020010190600160f860020a031916908160001a905350600101611c7c565b5060005b8551811015611d3257858181518110611cee57fe5b016020015160f860020a900460f860020a02838380600101945081518110611d1257fe5b906020010190600160f860020a031916908160001a905350600101611cd9565b5060005b8451811015611d8f57848181518110611d4b57fe5b016020015160f860020a900460f860020a02838380600101945081518110611d6f57fe5b906020010190600160f860020a031916908160001a905350600101611d36565b50909d9c50505050505050505050505050565b6000903b1190565b60206040519081016040526000815290565b828054600181600116156101000203166002900490600052602060002090601f016020900481019282601f10611dfd5782800160ff19823516178555611e2a565b82800160010185558215611e2a579182015b82811115611e2a578235825591602001919060010190611e0f565b50610d85929150611f08565b828054600181600116156101000203166002900490600052602060002090601f016020900481019282601f10611e7757805160ff1916838001178555611e2a565b82800160010185558215611e2a579182015b82811115611e2a578251825591602001919060010190611e89565b8154818355818115116108f4576000838152602090206108f4918101908301611f08565b50805460018160011615610100020316600290046000825580601f10611eee575061091b565b601f01602090049060005260206000209081019061091b91905b6107df91905b80821115610d855760008155600101611f0e5600a165627a7a72305820c04d6e66db89953339d981a051f99cf1dec27b42ff3b4d98ff78223c1143c1bd0029",
  "source": "pragma solidity ^0.4.21;\n\n\nimport \"./ERC721Token.sol\";\n\nimport \"./Strings.sol\";\n\nimport \"./ERC165.sol\";\n\n\n/**\n* @title DART\n*/\ncontract DART is ERC721Token, ERC165 {\n  using SafeMath for uint256;\n\n  bytes4 constant InterfaceSignature_ERC165 = 0x01ffc9a7;\n  /*\n  bytes4(keccak256('supportsInterface(bytes4)'));\n  */\n\n  bytes4 constant InterfaceSignature_ERC721Enumerable = 0x780e9d63;\n  /*\n  bytes4(keccak256('totalSupply()')) ^\n  bytes4(keccak256('tokenOfOwnerByIndex(address,uint256)')) ^\n  bytes4(keccak256('tokenByIndex(uint256)'));\n  */\n\n  bytes4 constant InterfaceSignature_ERC721Metadata = 0x5b5e139f;\n  /*\n  bytes4(keccak256('name()')) ^\n  bytes4(keccak256('symbol()')) ^\n  bytes4(keccak256('tokenURI(uint256)'));\n  */\n\n  bytes4 constant InterfaceSignature_ERC721 = 0x80ac58cd;\n  /*\n  bytes4(keccak256('balanceOf(address)')) ^\n  bytes4(keccak256('ownerOf(uint256)')) ^\n  bytes4(keccak256('approve(address,uint256)')) ^\n  bytes4(keccak256('getApproved(uint256)')) ^\n  bytes4(keccak256('setApprovalForAll(address,bool)')) ^\n  bytes4(keccak256('isApprovedForAll(address,address)')) ^\n  bytes4(keccak256('transferFrom(address,address,uint256)')) ^\n  bytes4(keccak256('safeTransferFrom(address,address,uint256)')) ^\n  bytes4(keccak256('safeTransferFrom(address,address,uint256,bytes)'));\n  */\n\n  bytes4 public constant InterfaceSignature_ERC721Optional = - 0x4f558e79;\n  /*\n  bytes4(keccak256('exists(uint256)'));\n  */\n\n  /**\n   * @notice Introspection interface as per ERC-165 (https://github.com/ethereum/EIPs/issues/165).\n   * @dev Returns true for any standardized interfaces implemented by this contract.\n   * @param _interfaceID bytes4 the interface to check for\n   * @return true for any standardized interfaces implemented by this contract.\n   */\n  function supportsInterface(bytes4 _interfaceID) external pure returns (bool) {\n    return ((_interfaceID == InterfaceSignature_ERC165)\n    || (_interfaceID == InterfaceSignature_ERC721)\n    || (_interfaceID == InterfaceSignature_ERC721Optional)\n    || (_interfaceID == InterfaceSignature_ERC721Enumerable)\n    || (_interfaceID == InterfaceSignature_ERC721Metadata));\n  }\n\n  string internal tokenBaseURI = \"https://ipfs.infura.io/ipfs/\";\n\n  // creator and owner\n  address public curatorAccount;\n\n  // total wei sent to the  contract\n  uint256 public totalContributionsInWei;\n\n  // A pointer to the next token to be minted, zero indexed\n  uint256 public tokenIdPointer = 0;\n\n  //Block number to Token ID\n  mapping (uint256 => uint256) internal blockNumberToTokenId;\n\n  //Token ID to Handle\n  mapping (uint256 => string) internal tokenIdToHandle;\n\n  modifier onlyCurator() {\n    require(msg.sender == curatorAccount);\n    _;\n  }\n\n  modifier onlyDARTOwnedToken(uint256 _tokenId) {\n    require(tokenOwner[_tokenId] == curatorAccount);\n    _;\n  }\n\n  modifier onlyDART() {\n    require(msg.sender == curatorAccount);\n    _;\n  }\n\n  function DART() public ERC721Token(\"Digital Art\", \"DART\") {\n    curatorAccount = msg.sender;\n  }\n\n  // don't accept payment directly to contract\n  function() public payable {\n    // TODO if payable found, check called has a token and call dArtFundDisplayTime() - probs arise if person already owns one?\n    revert();\n  }\n\n  /**\n   * @dev Funds your token to be displayed for a specific amount of time\n   * @param _tokenId the DART token ID\n   */\n  function dArtFundDisplayTime(uint256 _tokenId) public payable {\n    require(exists(_tokenId));\n    require(msg.value >= 0);\n\n    // TODO valid min/max payment\n\n    // TODO\n    // determine number of blocks to display based on msg.value\n    // add to next working block list the amount of blocks the sender ha requested to be used\n    // update list of next blocks and what to display\n    // update hashing function to check this list, if match found use it, otherwise all back to default\n    // splice monies to various parties\n  }\n\n  /**\n   * @dev Mint a new DART token\n   * @dev Reverts if not called by curator\n   * @param _tokenURI the IPFS or equivalent hash\n   * @param _handle char stamp of token owner\n   */\n  function mint(string _tokenURI, string _handle) external onlyDART {\n    uint256 _tokenId = tokenIdPointer;\n\n    uint256 currentBlockNumber = block.number;\n\n    // ensure block is empty\n    require(blockNumberToTokenId[currentBlockNumber] == 0);\n\n    super._mint(msg.sender, _tokenId);\n    super._setTokenURI(_tokenId, _tokenURI);\n\n    // Set block number to token mapping (you own this block by default) TODO is this valid?\n    blockNumberToTokenId[currentBlockNumber] = _tokenId;\n\n    tokenIdToHandle[_tokenId] = _handle;\n\n    tokenIdPointer = tokenIdPointer.add(1);\n  }\n\n  /**\n   * @dev Burns a DART token\n   * @dev Reverts if token is not unsold or not owned by management\n   * @param _tokenId the DART token ID\n   */\n  function burn(uint256 _tokenId) external onlyDART onlyDARTOwnedToken(_tokenId) {\n    require(exists(_tokenId));\n    super._burn(ownerOf(_tokenId), _tokenId);\n  }\n\n  /**\n   * @dev Utility function for updating a DART assets token URI\n   * @dev Reverts if not called by management\n   * @param _tokenId the DART token ID\n   * @param _uri the token URI, will be concatenated with baseUri\n   */\n  function setTokenURI(uint256 _tokenId, string _uri) external onlyDART {\n    require(exists(_tokenId));\n    _setTokenURI(_tokenId, _uri);\n  }\n\n  /**\n   * @dev Return owned tokens\n   * @param _owner address to query\n   */\n  function tokensOf(address _owner) public view returns (uint256[] _tokenIds) {\n    return ownedTokens[_owner];\n  }\n\n  /**\n  * @dev Return handle of token\n  * @param _tokenId token ID for handle lookup\n  */\n  function handleOf(uint256 _tokenId) public view returns (string _handle) {\n    return tokenIdToHandle[_tokenId];\n  }\n\n  /**\n  * @dev Return token which backs the block\n  * @param _blockNumber to look up\n  */\n  function tokenBlockOwnerOf(uint256 _blockNumber) public view returns (uint256 _tokenId) {\n    return blockNumberToTokenId[_blockNumber];\n  }\n\n  /**\n   * @dev Get token URI fro the given token, useful for testing purposes\n   * @param _tokenId the DART token ID\n   * @return the token ID or only the base URI if not found\n   */\n  function tokenURI(uint256 _tokenId) public view returns (string) {\n    return Strings.strConcat(tokenBaseURI, tokenURIs[_tokenId]);\n  }\n\n  /**\n   * @dev Allows management to update the base tokenURI path\n   * @dev Reverts if not called by management\n   * @param _newBaseURI the new base URI to set\n   */\n  function setTokenBaseURI(string _newBaseURI) external onlyDART {\n    tokenBaseURI = _newBaseURI;\n  }\n\n  /**\n   * @dev Generates a unique token hash for the token and handle\n   * @param _tokenId the DART token ID\n   */\n  function tokenHash(uint256 _tokenId) public view returns (bytes32) {\n    // TODO decide on hashing function\n    return keccak256(Strings.strConcat(bytes32ToString(bytes32(_tokenId)), \":\", tokenIdToHandle[_tokenId]));\n  }\n\n  /**\n   * @dev Generates a unique token hash for the token and handle\n   */\n  function getCurrentHash() public view returns (bytes32 _tokenHash) {\n\n    // TODO handle funding the next hash ... ?\n\n    uint256 _tokenId = tokenBlockOwnerOf(block.number);\n    if (exists(_tokenId)) {\n      return tokenHash(_tokenId);\n    }\n\n    // if no one own the current blockhash return current\n    return block.blockhash(block.number);\n  }\n\n  function bytes32ToString(bytes32 data) internal pure returns (string) {\n    bytes memory bytesString = new bytes(32);\n    for (uint j = 0; j < 32; j++) {\n      byte char = byte(bytes32(uint(data) * 2 ** (8 * j)));\n      if (char != 0) {\n        bytesString[j] = char;\n      }\n    }\n    return string(bytesString);\n  }\n}\n",
  "sourcePath": "/Users/jamesmorgan/Dropbox/workspace-blockrocket/art-blocks/contracts/DART.sol",
  "compiler": {
    "name": "solc",
    "version": "0.4.21+commit.dfe3193c.Emscripten.clang"
  },
  "schemaVersion": "2.0.0",
  "updatedAt": "2018-04-25T17:58:51.130Z"
}