{
  "contractName": "DART",
  "abi": [
    {
      "constant": true,
      "inputs": [],
      "name": "name",
      "outputs": [
        {
          "name": "",
          "type": "string"
        }
      ],
      "payable": false,
      "stateMutability": "view",
      "type": "function"
    },
    {
      "constant": true,
      "inputs": [
        {
          "name": "_tokenId",
          "type": "uint256"
        }
      ],
      "name": "getApproved",
      "outputs": [
        {
          "name": "",
          "type": "address"
        }
      ],
      "payable": false,
      "stateMutability": "view",
      "type": "function"
    },
    {
      "constant": false,
      "inputs": [
        {
          "name": "_to",
          "type": "address"
        },
        {
          "name": "_tokenId",
          "type": "uint256"
        }
      ],
      "name": "approve",
      "outputs": [],
      "payable": false,
      "stateMutability": "nonpayable",
      "type": "function"
    },
    {
      "constant": true,
      "inputs": [],
      "name": "totalSupply",
      "outputs": [
        {
          "name": "",
          "type": "uint256"
        }
      ],
      "payable": false,
      "stateMutability": "view",
      "type": "function"
    },
    {
      "constant": false,
      "inputs": [
        {
          "name": "_from",
          "type": "address"
        },
        {
          "name": "_to",
          "type": "address"
        },
        {
          "name": "_tokenId",
          "type": "uint256"
        }
      ],
      "name": "transferFrom",
      "outputs": [],
      "payable": false,
      "stateMutability": "nonpayable",
      "type": "function"
    },
    {
      "constant": false,
      "inputs": [
        {
          "name": "addrs",
          "type": "address[]"
        }
      ],
      "name": "removeAddressesFromWhitelist",
      "outputs": [
        {
          "name": "success",
          "type": "bool"
        }
      ],
      "payable": false,
      "stateMutability": "nonpayable",
      "type": "function"
    },
    {
      "constant": false,
      "inputs": [
        {
          "name": "addr",
          "type": "address"
        }
      ],
      "name": "removeAddressFromWhitelist",
      "outputs": [
        {
          "name": "success",
          "type": "bool"
        }
      ],
      "payable": false,
      "stateMutability": "nonpayable",
      "type": "function"
    },
    {
      "constant": true,
      "inputs": [
        {
          "name": "_owner",
          "type": "address"
        },
        {
          "name": "_index",
          "type": "uint256"
        }
      ],
      "name": "tokenOfOwnerByIndex",
      "outputs": [
        {
          "name": "",
          "type": "uint256"
        }
      ],
      "payable": false,
      "stateMutability": "view",
      "type": "function"
    },
    {
      "constant": false,
      "inputs": [
        {
          "name": "_from",
          "type": "address"
        },
        {
          "name": "_to",
          "type": "address"
        },
        {
          "name": "_tokenId",
          "type": "uint256"
        }
      ],
      "name": "safeTransferFrom",
      "outputs": [],
      "payable": false,
      "stateMutability": "nonpayable",
      "type": "function"
    },
    {
      "constant": true,
      "inputs": [
        {
          "name": "_tokenId",
          "type": "uint256"
        }
      ],
      "name": "exists",
      "outputs": [
        {
          "name": "",
          "type": "bool"
        }
      ],
      "payable": false,
      "stateMutability": "view",
      "type": "function"
    },
    {
      "constant": true,
      "inputs": [
        {
          "name": "_index",
          "type": "uint256"
        }
      ],
      "name": "tokenByIndex",
      "outputs": [
        {
          "name": "",
          "type": "uint256"
        }
      ],
      "payable": false,
      "stateMutability": "view",
      "type": "function"
    },
    {
      "constant": true,
      "inputs": [],
      "name": "InterfaceSignature_ERC721Optional",
      "outputs": [
        {
          "name": "",
          "type": "bytes4"
        }
      ],
      "payable": false,
      "stateMutability": "view",
      "type": "function"
    },
    {
      "constant": true,
      "inputs": [
        {
          "name": "_tokenId",
          "type": "uint256"
        }
      ],
      "name": "ownerOf",
      "outputs": [
        {
          "name": "",
          "type": "address"
        }
      ],
      "payable": false,
      "stateMutability": "view",
      "type": "function"
    },
    {
      "constant": true,
      "inputs": [
        {
          "name": "_owner",
          "type": "address"
        }
      ],
      "name": "balanceOf",
      "outputs": [
        {
          "name": "",
          "type": "uint256"
        }
      ],
      "payable": false,
      "stateMutability": "view",
      "type": "function"
    },
    {
      "constant": false,
      "inputs": [
        {
          "name": "addr",
          "type": "address"
        }
      ],
      "name": "addAddressToWhitelist",
      "outputs": [
        {
          "name": "success",
          "type": "bool"
        }
      ],
      "payable": false,
      "stateMutability": "nonpayable",
      "type": "function"
    },
    {
      "constant": true,
      "inputs": [],
      "name": "owner",
      "outputs": [
        {
          "name": "",
          "type": "address"
        }
      ],
      "payable": false,
      "stateMutability": "view",
      "type": "function"
    },
    {
      "constant": true,
      "inputs": [],
      "name": "symbol",
      "outputs": [
        {
          "name": "",
          "type": "string"
        }
      ],
      "payable": false,
      "stateMutability": "view",
      "type": "function"
    },
    {
      "constant": true,
      "inputs": [
        {
          "name": "",
          "type": "address"
        }
      ],
      "name": "whitelist",
      "outputs": [
        {
          "name": "",
          "type": "bool"
        }
      ],
      "payable": false,
      "stateMutability": "view",
      "type": "function"
    },
    {
      "constant": false,
      "inputs": [
        {
          "name": "_to",
          "type": "address"
        },
        {
          "name": "_approved",
          "type": "bool"
        }
      ],
      "name": "setApprovalForAll",
      "outputs": [],
      "payable": false,
      "stateMutability": "nonpayable",
      "type": "function"
    },
    {
      "constant": false,
      "inputs": [
        {
          "name": "_from",
          "type": "address"
        },
        {
          "name": "_to",
          "type": "address"
        },
        {
          "name": "_tokenId",
          "type": "uint256"
        },
        {
          "name": "_data",
          "type": "bytes"
        }
      ],
      "name": "safeTransferFrom",
      "outputs": [],
      "payable": false,
      "stateMutability": "nonpayable",
      "type": "function"
    },
    {
      "constant": false,
      "inputs": [
        {
          "name": "addrs",
          "type": "address[]"
        }
      ],
      "name": "addAddressesToWhitelist",
      "outputs": [
        {
          "name": "success",
          "type": "bool"
        }
      ],
      "payable": false,
      "stateMutability": "nonpayable",
      "type": "function"
    },
    {
      "constant": true,
      "inputs": [
        {
          "name": "_owner",
          "type": "address"
        },
        {
          "name": "_operator",
          "type": "address"
        }
      ],
      "name": "isApprovedForAll",
      "outputs": [
        {
          "name": "",
          "type": "bool"
        }
      ],
      "payable": false,
      "stateMutability": "view",
      "type": "function"
    },
    {
      "constant": false,
      "inputs": [
        {
          "name": "newOwner",
          "type": "address"
        }
      ],
      "name": "transferOwnership",
      "outputs": [],
      "payable": false,
      "stateMutability": "nonpayable",
      "type": "function"
    },
    {
      "inputs": [],
      "payable": false,
      "stateMutability": "nonpayable",
      "type": "constructor"
    },
    {
      "payable": true,
      "stateMutability": "payable",
      "type": "fallback"
    },
    {
      "anonymous": false,
      "inputs": [
        {
          "indexed": true,
          "name": "_owner",
          "type": "address"
        },
        {
          "indexed": true,
          "name": "_tokenId",
          "type": "uint256"
        },
        {
          "indexed": false,
          "name": "_blockhash",
          "type": "bytes32"
        },
        {
          "indexed": false,
          "name": "_nickname",
          "type": "string"
        }
      ],
      "name": "MintDART",
      "type": "event"
    },
    {
      "anonymous": false,
      "inputs": [
        {
          "indexed": false,
          "name": "addr",
          "type": "address"
        }
      ],
      "name": "WhitelistedAddressAdded",
      "type": "event"
    },
    {
      "anonymous": false,
      "inputs": [
        {
          "indexed": false,
          "name": "addr",
          "type": "address"
        }
      ],
      "name": "WhitelistedAddressRemoved",
      "type": "event"
    },
    {
      "anonymous": false,
      "inputs": [
        {
          "indexed": true,
          "name": "previousOwner",
          "type": "address"
        },
        {
          "indexed": true,
          "name": "newOwner",
          "type": "address"
        }
      ],
      "name": "OwnershipTransferred",
      "type": "event"
    },
    {
      "anonymous": false,
      "inputs": [
        {
          "indexed": true,
          "name": "_from",
          "type": "address"
        },
        {
          "indexed": true,
          "name": "_to",
          "type": "address"
        },
        {
          "indexed": false,
          "name": "_tokenId",
          "type": "uint256"
        }
      ],
      "name": "Transfer",
      "type": "event"
    },
    {
      "anonymous": false,
      "inputs": [
        {
          "indexed": true,
          "name": "_owner",
          "type": "address"
        },
        {
          "indexed": true,
          "name": "_approved",
          "type": "address"
        },
        {
          "indexed": false,
          "name": "_tokenId",
          "type": "uint256"
        }
      ],
      "name": "Approval",
      "type": "event"
    },
    {
      "anonymous": false,
      "inputs": [
        {
          "indexed": true,
          "name": "_owner",
          "type": "address"
        },
        {
          "indexed": true,
          "name": "_operator",
          "type": "address"
        },
        {
          "indexed": false,
          "name": "_approved",
          "type": "bool"
        }
      ],
      "name": "ApprovalForAll",
      "type": "event"
    },
    {
      "constant": true,
      "inputs": [
        {
          "name": "_interfaceID",
          "type": "bytes4"
        }
      ],
      "name": "supportsInterface",
      "outputs": [
        {
          "name": "",
          "type": "bool"
        }
      ],
      "payable": false,
      "stateMutability": "pure",
      "type": "function"
    },
    {
      "constant": false,
      "inputs": [
        {
          "name": "_blockhash",
          "type": "bytes32"
        },
        {
          "name": "_tokenId",
          "type": "uint256"
        },
        {
          "name": "_nickname",
          "type": "string"
        }
      ],
      "name": "mint",
      "outputs": [],
      "payable": false,
      "stateMutability": "nonpayable",
      "type": "function"
    },
    {
      "constant": false,
      "inputs": [
        {
          "name": "_tokenId",
          "type": "uint256"
        },
        {
          "name": "_uri",
          "type": "string"
        }
      ],
      "name": "setTokenURI",
      "outputs": [],
      "payable": false,
      "stateMutability": "nonpayable",
      "type": "function"
    },
    {
      "constant": false,
      "inputs": [
        {
          "name": "_tokenId",
          "type": "uint256"
        },
        {
          "name": "_nickname",
          "type": "string"
        }
      ],
      "name": "setNickname",
      "outputs": [],
      "payable": false,
      "stateMutability": "nonpayable",
      "type": "function"
    },
    {
      "constant": true,
      "inputs": [
        {
          "name": "_owner",
          "type": "address"
        }
      ],
      "name": "tokensOf",
      "outputs": [
        {
          "name": "_tokenIds",
          "type": "uint256[]"
        }
      ],
      "payable": false,
      "stateMutability": "view",
      "type": "function"
    },
    {
      "constant": true,
      "inputs": [
        {
          "name": "_owner",
          "type": "address"
        }
      ],
      "name": "hasTokens",
      "outputs": [
        {
          "name": "",
          "type": "bool"
        }
      ],
      "payable": false,
      "stateMutability": "view",
      "type": "function"
    },
    {
      "constant": true,
      "inputs": [
        {
          "name": "_owner",
          "type": "address"
        }
      ],
      "name": "firstToken",
      "outputs": [
        {
          "name": "_tokenId",
          "type": "uint256"
        }
      ],
      "payable": false,
      "stateMutability": "view",
      "type": "function"
    },
    {
      "constant": true,
      "inputs": [
        {
          "name": "_tokenId",
          "type": "uint256"
        }
      ],
      "name": "nicknameOf",
      "outputs": [
        {
          "name": "_nickname",
          "type": "string"
        }
      ],
      "payable": false,
      "stateMutability": "view",
      "type": "function"
    },
    {
      "constant": true,
      "inputs": [
        {
          "name": "_tokenId",
          "type": "uint256"
        }
      ],
      "name": "tokenURI",
      "outputs": [
        {
          "name": "",
          "type": "string"
        }
      ],
      "payable": false,
      "stateMutability": "view",
      "type": "function"
    },
    {
      "constant": false,
      "inputs": [
        {
          "name": "_newBaseURI",
          "type": "string"
        }
      ],
      "name": "setTokenBaseURI",
      "outputs": [],
      "payable": false,
      "stateMutability": "nonpayable",
      "type": "function"
    },
    {
      "constant": true,
      "inputs": [
        {
          "name": "_tokenId",
          "type": "uint256"
        }
      ],
      "name": "blockhashOf",
      "outputs": [
        {
          "name": "hash",
          "type": "bytes32"
        }
      ],
      "payable": false,
      "stateMutability": "view",
      "type": "function"
    }
  ],
  "bytecode": "0x60c0604052601c60808190527f68747470733a2f2f697066732e696e667572612e696f2f697066732f0000000060a09081526200004091600d919062000214565b503480156200004e57600080fd5b50604080518082018252601181527f446563656e7472616c697a6564204172740000000000000000000000000000006020808301918252835180850190945260048085527f4441525400000000000000000000000000000000000000000000000000000000918501919091528251929392620000cb929062000214565b508051620000e190600590602084019062000214565b5050600b8054600160a060020a0319163390811790915562000112915064010000000062000f356200017582021704565b506200014073f43ae50c468c3d3fa0c3dc3454e797317ef5307864010000000062000f356200017582021704565b506200016e73e1023c112a39c58238929153f25364c11a33b72964010000000062000f356200017582021704565b50620002b9565b600b54600090600160a060020a031633146200019057600080fd5b600160a060020a0382166000908152600c602052604090205460ff1615156200020f57600160a060020a0382166000818152600c6020908152604091829020805460ff19166001179055815192835290517fd1bba68c128cc3f427e5831b3c6f99f480b6efa6b9e80c757768f6124158cc3f9281900390910190a15060015b919050565b828054600181600116156101000203166002900490600052602060002090601f016020900481019282601f106200025757805160ff191683800117855562000287565b8280016001018555821562000287579182015b82811115620002875782518255916020019190600101906200026a565b506200029592915062000299565b5090565b620002b691905b80821115620002955760008155600101620002a0565b90565b611f1680620002c96000396000f3006080604052600436106101ab5763ffffffff7c010000000000000000000000000000000000000000000000000000000060003504166301ffc9a781146101b057806306fdde03146101e657806307518c8e14610270578063081812fc1461029a578063095ea7b3146102ce578063162094c4146102f457806318160ddd1461031857806323b872dd1461032d57806324953eaa14610357578063286dd3f5146103ac5780632f745c59146103cd5780633cefc1e0146103f157806342842e0e146104125780634f558e791461043c5780634f6ccce71461045457806354f50f1b1461046c5780635a3f267214610484578063624de3d9146104f55780636352211e146105275780636f37f48b1461053f57806370a08231146105605780637b9417c8146105815780638da5cb5b146105a25780638ef79e91146105b757806395d89b41146105d75780639b19251a146105ec5780639fb6c7961461060d578063a22cb46514610635578063b88d4fde1461065b578063c87b56dd146106ca578063d92af1b7146106e2578063e2ec6ec314610706578063e985e9c51461075b578063f2fde38b14610782575b600080fd5b3480156101bc57600080fd5b506101d2600160e060020a0319600435166107a3565b604080519115158252519081900360200190f35b3480156101f257600080fd5b506101fb6108aa565b6040805160208082528351818301528351919283929083019185019080838360005b8381101561023557818101518382015260200161021d565b50505050905090810190601f1680156102625780820380516001836020036101000a031916815260200191505b509250505060405180910390f35b34801561027c57600080fd5b50610288600435610941565b60408051918252519081900360200190f35b3480156102a657600080fd5b506102b2600435610953565b60408051600160a060020a039092168252519081900360200190f35b3480156102da57600080fd5b506102f2600160a060020a036004351660243561096e565b005b34801561030057600080fd5b506102f2600480359060248035908101910135610a60565b34801561032457600080fd5b50610288610acc565b34801561033957600080fd5b506102f2600160a060020a0360043581169060243516604435610ad2565b34801561036357600080fd5b50604080516020600480358082013583810280860185019096528085526101d295369593946024949385019291829185019084908082843750949750610b819650505050505050565b3480156103b857600080fd5b506101d2600160a060020a0360043516610be2565b3480156103d957600080fd5b50610288600160a060020a0360043516602435610c7a565b3480156103fd57600080fd5b506101d2600160a060020a0360043516610cc7565b34801561041e57600080fd5b506102f2600160a060020a0360043581169060243516604435610ce3565b34801561044857600080fd5b506101d2600435610d1b565b34801561046057600080fd5b50610288600435610d38565b34801561047857600080fd5b506101fb600435610d6d565b34801561049057600080fd5b506104a5600160a060020a0360043516610e0e565b60408051602080825283518183015283519192839290830191858101910280838360005b838110156104e15781810151838201526020016104c9565b505050509050019250505060405180910390f35b34801561050157600080fd5b5061050a610e79565b60408051600160e060020a03199092168252519081900360200190f35b34801561053357600080fd5b506102b2600435610e9d565b34801561054b57600080fd5b50610288600160a060020a0360043516610ec7565b34801561056c57600080fd5b50610288600160a060020a0360043516610f02565b34801561058d57600080fd5b506101d2600160a060020a0360043516610f35565b3480156105ae57600080fd5b506102b2610fd1565b3480156105c357600080fd5b506102f26004803560248101910135610fe0565b3480156105e357600080fd5b506101fb611003565b3480156105f857600080fd5b506101d2600160a060020a0360043516611064565b34801561061957600080fd5b506102f260048035906024803591604435918201910135611079565b34801561064157600080fd5b506102f2600160a060020a036004351660243515156111ac565b34801561066757600080fd5b50604080516020601f6064356004818101359283018490048402850184019095528184526102f294600160a060020a0381358116956024803590921695604435953695608494019181908401838280828437509497506112309650505050505050565b3480156106d657600080fd5b506101fb60043561126f565b3480156106ee57600080fd5b506102f260048035906024803590810191013561139f565b34801561071257600080fd5b50604080516020600480358082013583810280860185019096528085526101d2953695939460249493850192918291850190849080828437509497506113d69650505050505050565b34801561076757600080fd5b506101d2600160a060020a0360043581169060243516611431565b34801561078e57600080fd5b506102f2600160a060020a036004351661145f565b6000600160e060020a031982167f01ffc9a70000000000000000000000000000000000000000000000000000000014806108065750600160e060020a031982167f80ac58cd00000000000000000000000000000000000000000000000000000000145b8061083a5750600160e060020a031982167fb0aa718700000000000000000000000000000000000000000000000000000000145b8061086e5750600160e060020a031982167f780e9d6300000000000000000000000000000000000000000000000000000000145b806108a25750600160e060020a031982167f5b5e139f00000000000000000000000000000000000000000000000000000000145b90505b919050565b60048054604080516020601f60026000196101006001881615020190951694909404938401819004810282018101909252828152606093909290918301828280156109365780601f1061090b57610100808354040283529160200191610936565b820191906000526020600020905b81548152906001019060200180831161091957829003601f168201915b505050505090505b90565b6000908152600f602052604090205490565b600090815260016020526040902054600160a060020a031690565b600061097982610e9d565b9050600160a060020a03838116908216141561099457600080fd5b33600160a060020a03821614806109b057506109b08133611431565b15156109bb57600080fd5b60006109c683610953565b600160a060020a03161415806109e45750600160a060020a03831615155b15610a5b57600082815260016020908152604091829020805473ffffffffffffffffffffffffffffffffffffffff1916600160a060020a03878116918217909255835186815293519093918516927f8c5be1e5ebec7d5bd14f71427d1e84f3dd0314c0f7b2291e5b200ac8c7c3b925928290030190a35b505050565b336000908152600c602052604090205460ff161515610a7e57600080fd5b610a8783610d1b565b1515610a9257600080fd5b610a5b8383838080601f016020809104026020016040519081016040528093929190818152602001838380828437506114f4945050505050565b60085490565b80610add3382611527565b1515610ae857600080fd5b600160a060020a0384161515610afd57600080fd5b600160a060020a0383161515610b1257600080fd5b610b1c8483611586565b610b268483611634565b610b30838361176d565b82600160a060020a031684600160a060020a03167fddf252ad1be2c89b69c2b068fc378daa952ba7f163c4a11628f55a4df523b3ef846040518082815260200191505060405180910390a350505050565b600b546000908190600160a060020a03163314610b9d57600080fd5b5060005b8251811015610bdc57610bca8382815181101515610bbb57fe5b90602001906020020151610be2565b15610bd457600191505b600101610ba1565b50919050565b600b54600090600160a060020a03163314610bfc57600080fd5b600160a060020a0382166000908152600c602052604090205460ff16156108a557600160a060020a0382166000818152600c6020908152604091829020805460ff19169055815192835290517ff1abf01a1043b7c244d128e8595cf0c1d10743b022b03a02dffd8ca3bf729f5a9281900390910190a1506001919050565b6000610c8583610f02565b8210610c9057600080fd5b600160a060020a0383166000908152600660205260409020805483908110610cb457fe5b9060005260206000200154905092915050565b600160a060020a03166000908152600660205260408120541190565b80610cee3382611527565b1515610cf957600080fd5b610d158484846020604051908101604052806000815250611230565b50505050565b600090815260208190526040902054600160a060020a0316151590565b6000610d42610acc565b8210610d4d57600080fd5b6008805483908110610d5b57fe5b90600052602060002001549050919050565b6000818152600e602090815260409182902080548351601f6002600019610100600186161502019093169290920491820184900484028101840190945280845260609392830182828015610e025780601f10610dd757610100808354040283529160200191610e02565b820191906000526020600020905b815481529060010190602001808311610de557829003601f168201915b50505050509050919050565b600160a060020a038116600090815260066020908152604091829020805483518184028101840190945280845260609392830182828015610e0257602002820191906000526020600020905b815481526020019060010190808311610e5a5750505050509050919050565b7fb0aa71870000000000000000000000000000000000000000000000000000000081565b600081815260208190526040812054600160a060020a0316801515610ec157600080fd5b92915050565b6000610ed282610cc7565b1515610edd57600080fd5b600160a060020a038216600090815260066020526040812080549091908110610d5b57fe5b6000600160a060020a0382161515610f1957600080fd5b50600160a060020a031660009081526002602052604090205490565b600b54600090600160a060020a03163314610f4f57600080fd5b600160a060020a0382166000908152600c602052604090205460ff1615156108a557600160a060020a0382166000818152600c6020908152604091829020805460ff19166001179055815192835290517fd1bba68c128cc3f427e5831b3c6f99f480b6efa6b9e80c757768f6124158cc3f9281900390910190a1506001919050565b600b54600160a060020a031681565b600b54600160a060020a03163314610ff757600080fd5b610a5b600d8383611dc4565b60058054604080516020601f60026000196101006001881615020190951694909404938401819004810282018101909252828152606093909290918301828280156109365780601f1061090b57610100808354040283529160200191610936565b600c6020526000908152604090205460ff1681565b336000908152600c602052604090205460ff16151561109757600080fd5b600084815260106020526040902054156110b057600080fd5b6000838152600f6020526040902054156110c957600080fd5b6110d333846117b6565b611112836040805190810160405280600381526020017f57495000000000000000000000000000000000000000000000000000000000008152506114f4565b6000838152600f6020908152604080832087905586835260108252808320869055858352600e9091529020611148908383611dc4565b506040805185815260208101828152918101839052849133917f4453ce3000f70afbe0bcadf15f2ba7165d528adb6dffa06dd8aa0b89c6516e189188918791879190606082018484808284376040519201829003965090945050505050a350505050565b600160a060020a0382163314156111c257600080fd5b336000818152600360209081526040808320600160a060020a03871680855290835292819020805460ff1916861515908117909155815190815290519293927f17307eab39ab6107e8899845ad3d59bd9653f200f220920489ca2b5937696c31929181900390910190a35050565b8161123b3382611527565b151561124657600080fd5b611251858585610ad2565b61125d85858585611805565b151561126857600080fd5b5050505050565b600d805460408051602060026001851615610100026000190190941693909304601f81018490048402820184019092528181526060936108a293919290918301828280156112fe5780601f106112d3576101008083540402835291602001916112fe565b820191906000526020600020905b8154815290600101906020018083116112e157829003601f168201915b5050506000868152600a60209081526040918290208054835160026001831615610100026000190190921691909104601f8101849004840282018401909452838152945092508301828280156113955780601f1061136a57610100808354040283529160200191611395565b820191906000526020600020905b81548152906001019060200180831161137857829003601f168201915b5050505050611976565b82336113aa82610e9d565b600160a060020a0316146113bd57600080fd5b6000848152600e60205260409020611268908484611dc4565b600b546000908190600160a060020a031633146113f257600080fd5b5060005b8251811015610bdc5761141f838281518110151561141057fe5b90602001906020020151610f35565b1561142957600191505b6001016113f6565b600160a060020a03918216600090815260036020908152604080832093909416825291909152205460ff1690565b600b54600160a060020a0316331461147657600080fd5b600160a060020a038116151561148b57600080fd5b600b54604051600160a060020a038084169216907f8be0079c531659141344cd1fd0a4f28419497f9722a3daafe3b4186f6b6457e090600090a3600b805473ffffffffffffffffffffffffffffffffffffffff1916600160a060020a0392909216919091179055565b6114fd82610d1b565b151561150857600080fd5b6000828152600a602090815260409091208251610a5b92840190611e42565b60008061153383610e9d565b905080600160a060020a031684600160a060020a0316148061156e575083600160a060020a031661156384610953565b600160a060020a0316145b8061157e575061157e8185611431565b949350505050565b81600160a060020a031661159982610e9d565b600160a060020a0316146115ac57600080fd5b600081815260016020526040902054600160a060020a031615611630576000818152600160209081526040808320805473ffffffffffffffffffffffffffffffffffffffff1916905580518481529051600160a060020a038616927f8c5be1e5ebec7d5bd14f71427d1e84f3dd0314c0f7b2291e5b200ac8c7c3b925928290030190a35b5050565b600080600061164385856119b2565b600084815260076020908152604080832054600160a060020a038916845260069092529091205490935061167e90600163ffffffff611a4716565b600160a060020a0386166000908152600660205260409020805491935090839081106116a657fe5b90600052602060002001549050806006600087600160a060020a0316600160a060020a03168152602001908152602001600020848154811015156116e657fe5b6000918252602080832090910192909255600160a060020a038716815260069091526040812080548490811061171857fe5b6000918252602080832090910192909255600160a060020a038716815260069091526040902080549061174f906000198301611eb0565b50600093845260076020526040808520859055908452909220555050565b60006117798383611a59565b50600160a060020a039091166000908152600660209081526040808320805460018101825590845282842081018590559383526007909152902055565b6117c08282611ae8565b600880546000838152600960205260408120829055600182018355919091527ff3f7a9fe364faab93b216da50a3214154f22a0a2b415b23a84c8169e8b636ee3015550565b60008061181a85600160a060020a0316611b4c565b1515611829576001915061196d565b84600160a060020a031663f0b9e5ba8786866040518463ffffffff167c01000000000000000000000000000000000000000000000000000000000281526004018084600160a060020a0316600160a060020a0316815260200183815260200180602001828103825283818151815260200191508051906020019080838360005b838110156118c15781810151838201526020016118a9565b50505050905090810190601f1680156118ee5780820380516001836020036101000a031916815260200191505b50945050505050602060405180830381600087803b15801561190f57600080fd5b505af1158015611923573d6000803e3d6000fd5b505050506040513d602081101561193957600080fd5b5051600160e060020a031981167ff0b9e5ba0000000000000000000000000000000000000000000000000000000014925090505b50949350505050565b6040805160208181018352600080835283518083018552818152845192830190945281526060926119ab928692869290611b54565b9392505050565b81600160a060020a03166119c582610e9d565b600160a060020a0316146119d857600080fd5b600160a060020a038216600090815260026020526040902054611a0290600163ffffffff611a4716565b600160a060020a039092166000908152600260209081526040808320949094559181529081905220805473ffffffffffffffffffffffffffffffffffffffff19169055565b600082821115611a5357fe5b50900390565b600081815260208190526040902054600160a060020a031615611a7b57600080fd5b600081815260208181526040808320805473ffffffffffffffffffffffffffffffffffffffff1916600160a060020a03871690811790915583526002909152902054611ac8906001611db5565b600160a060020a0390921660009081526002602052604090209190915550565b600160a060020a0382161515611afd57600080fd5b611b07828261176d565b604080518281529051600160a060020a038416916000917fddf252ad1be2c89b69c2b068fc378daa952ba7f163c4a11628f55a4df523b3ef9181900360200190a35050565b6000903b1190565b6060806060806060806060806000808e98508d97508c96508b95508a94508451865188518a518c51010101016040519080825280601f01601f191660200182016040528015611bad578160200160208202803883390190505b50935083925060009150600090505b8851811015611c1a578881815181101515611bd357fe5b90602001015160f860020a900460f860020a028383806001019450815181101515611bfa57fe5b906020010190600160f860020a031916908160001a905350600101611bbc565b5060005b8751811015611c7c578781815181101515611c3557fe5b90602001015160f860020a900460f860020a028383806001019450815181101515611c5c57fe5b906020010190600160f860020a031916908160001a905350600101611c1e565b5060005b8651811015611cde578681815181101515611c9757fe5b90602001015160f860020a900460f860020a028383806001019450815181101515611cbe57fe5b906020010190600160f860020a031916908160001a905350600101611c80565b5060005b8551811015611d40578581815181101515611cf957fe5b90602001015160f860020a900460f860020a028383806001019450815181101515611d2057fe5b906020010190600160f860020a031916908160001a905350600101611ce2565b5060005b8451811015611da2578481815181101515611d5b57fe5b90602001015160f860020a900460f860020a028383806001019450815181101515611d8257fe5b906020010190600160f860020a031916908160001a905350600101611d44565b50909d9c50505050505050505050505050565b6000828201838110156119ab57fe5b828054600181600116156101000203166002900490600052602060002090601f016020900481019282601f10611e055782800160ff19823516178555611e32565b82800160010185558215611e32579182015b82811115611e32578235825591602001919060010190611e17565b50611e3e929150611ed0565b5090565b828054600181600116156101000203166002900490600052602060002090601f016020900481019282601f10611e8357805160ff1916838001178555611e32565b82800160010185558215611e32579182015b82811115611e32578251825591602001919060010190611e95565b815481835581811115610a5b57600083815260209020610a5b9181019083015b61093e91905b80821115611e3e5760008155600101611ed65600a165627a7a7230582063bd939a679ddc3ad78aceee105d0a339cbf32f62d44055734181fb346d218f50029",
  "source": "pragma solidity ^0.4.21;\n\n\nimport \"./ERC721Token.sol\";\n\nimport \"./Strings.sol\";\n\nimport \"./ERC165.sol\";\n\nimport \"./Whitelist.sol\";\n\n\n/**\n* @title DART\n*/\ncontract DART is ERC721Token, ERC165, Whitelist {\n  using SafeMath for uint256;\n\n  bytes4 constant InterfaceSignature_ERC165 = 0x01ffc9a7;\n  /*\n  bytes4(keccak256('supportsInterface(bytes4)'));\n  */\n\n  bytes4 constant InterfaceSignature_ERC721Enumerable = 0x780e9d63;\n  /*\n  bytes4(keccak256('totalSupply()')) ^\n  bytes4(keccak256('tokenOfOwnerByIndex(address,uint256)')) ^\n  bytes4(keccak256('tokenByIndex(uint256)'));\n  */\n\n  bytes4 constant InterfaceSignature_ERC721Metadata = 0x5b5e139f;\n  /*\n  bytes4(keccak256('name()')) ^\n  bytes4(keccak256('symbol()')) ^\n  bytes4(keccak256('tokenURI(uint256)'));\n  */\n\n  bytes4 constant InterfaceSignature_ERC721 = 0x80ac58cd;\n  /*\n  bytes4(keccak256('balanceOf(address)')) ^\n  bytes4(keccak256('ownerOf(uint256)')) ^\n  bytes4(keccak256('approve(address,uint256)')) ^\n  bytes4(keccak256('getApproved(uint256)')) ^\n  bytes4(keccak256('setApprovalForAll(address,bool)')) ^\n  bytes4(keccak256('isApprovedForAll(address,address)')) ^\n  bytes4(keccak256('transferFrom(address,address,uint256)')) ^\n  bytes4(keccak256('safeTransferFrom(address,address,uint256)')) ^\n  bytes4(keccak256('safeTransferFrom(address,address,uint256,bytes)'));\n  */\n\n  bytes4 public constant InterfaceSignature_ERC721Optional = - 0x4f558e79;\n  /*\n  bytes4(keccak256('exists(uint256)'));\n  */\n\n  /**\n   * @notice Introspection interface as per ERC-165 (https://github.com/ethereum/EIPs/issues/165).\n   * @dev Returns true for any standardized interfaces implemented by this contract.\n   * @param _interfaceID bytes4 the interface to check for\n   * @return true for any standardized interfaces implemented by this contract.\n   */\n  function supportsInterface(bytes4 _interfaceID) external pure returns (bool) {\n    return ((_interfaceID == InterfaceSignature_ERC165)\n    || (_interfaceID == InterfaceSignature_ERC721)\n    || (_interfaceID == InterfaceSignature_ERC721Optional)\n    || (_interfaceID == InterfaceSignature_ERC721Enumerable)\n    || (_interfaceID == InterfaceSignature_ERC721Metadata));\n  }\n\n  event MintDART(address indexed _owner, uint256 indexed _tokenId, bytes32 _blockhash, string _nickname);\n\n  string internal tokenBaseURI = \"https://ipfs.infura.io/ipfs/\";\n\n  mapping (uint256 => string) internal tokenIdToNickname;\n\n  mapping(uint256 => bytes32) internal tokenIdToBlockhash;\n  mapping(bytes32 => uint256) internal blockhashToTokenId;\n\n  function DART() public ERC721Token(\"Decentralized Art\", \"DART\") {\n\n    super.addAddressToWhitelist(msg.sender);\n\n    // FIXME - hardcoded?\n    super.addAddressToWhitelist(0xf43aE50C468c3D3Fa0C3dC3454E797317EF53078);\n    super.addAddressToWhitelist(0xe1023C112A39c58238929153F25364c11A33B729);\n  }\n\n  // don't accept payment directly to contract\n  function() public payable {\n    revert();\n  }\n\n  /**\n   * @dev Mint a new DART token\n   * @dev Reverts if not called by curator\n   * @param _blockhash an Ethereum block hash\n   * @param _tokenId unique token ID\n   * @param _nickname char stamp of token owner\n   */\n  function mint(bytes32 _blockhash, uint256 _tokenId, string _nickname) external onlyWhitelisted {\n    require(blockhashToTokenId[_blockhash] == 0);\n    require(tokenIdToBlockhash[_tokenId] == 0);\n\n    // actually mint the token\n    super._mint(msg.sender, _tokenId);\n\n    // Use default\n    super._setTokenURI(_tokenId, \"WIP\");\n\n    // set data\n    tokenIdToBlockhash[_tokenId] = _blockhash;\n    blockhashToTokenId[_blockhash] = _tokenId;\n    tokenIdToNickname[_tokenId] = _nickname;\n\n    MintDART(msg.sender, _tokenId, _blockhash, _nickname);\n  }\n\n  /**\n   * @dev Utility function for updating a DART assets token URI\n   * @dev Reverts if not called by management\n   * @param _tokenId the DART token ID\n   * @param _uri the token URI, will be concatenated with baseUri\n   */\n  function setTokenURI(uint256 _tokenId, string _uri) external onlyWhitelisted {\n    require(exists(_tokenId));\n    _setTokenURI(_tokenId, _uri);\n  }\n\n  /**\n   * @dev Utility function for updating a nickname if you own the token\n   * @dev Reverts if not called by owner\n   * @param _tokenId the DART token ID\n   * @param _nickname char stamp of token owner\n   */\n  function setNickname(uint256 _tokenId, string _nickname) external onlyOwnerOf(_tokenId) {\n    tokenIdToNickname[_tokenId] = _nickname;\n  }\n\n  /**\n   * @dev Return owned tokens\n   * @param _owner address to query\n   */\n  function tokensOf(address _owner) public view returns (uint256[] _tokenIds) {\n    return ownedTokens[_owner];\n  }\n\n  /**\n   * @dev checks for owned tokens\n   * @param _owner address to query\n   */\n  function hasTokens(address _owner) constant returns (bool) {\n    return ownedTokens[_owner].length > 0;\n  }\n\n  /**\n   * @dev checks for owned tokens\n   * @param _owner address to query\n   */\n  function firstToken(address _owner) constant returns (uint256 _tokenId) {\n    require(hasTokens(_owner));\n    return ownedTokens[_owner][0];\n  }\n\n  /**\n   * @dev Return handle of token\n   * @param _tokenId token ID for handle lookup\n   */\n  function nicknameOf(uint256 _tokenId) public view returns (string _nickname) {\n    return tokenIdToNickname[_tokenId];\n  }\n\n  /**\n   * @dev Get token URI fro the given token, useful for testing purposes\n   * @param _tokenId the DART token ID\n   * @return the token ID or only the base URI if not found\n   */\n  function tokenURI(uint256 _tokenId) public view returns (string) {\n    return Strings.strConcat(tokenBaseURI, tokenURIs[_tokenId]);\n  }\n\n  /**\n   * @dev Allows management to update the base tokenURI path\n   * @dev Reverts if not called by management\n   * @param _newBaseURI the new base URI to set\n   */\n  function setTokenBaseURI(string _newBaseURI) external onlyOwner {\n    tokenBaseURI = _newBaseURI;\n  }\n\n  /**\n   * @dev Return blockhash of the DART token\n   * @param _tokenId the DART token ID\n   */\n  function blockhashOf(uint256 _tokenId) public view returns (bytes32 hash) {\n    return tokenIdToBlockhash[_tokenId];\n  }\n}\n",
  "sourcePath": "/Users/andy/workspace/art-blocks/contracts/DART.sol",
  "compiler": {
    "name": "solc",
    "version": "0.4.24+commit.e67f0147.Emscripten.clang"
  },
  "schemaVersion": "2.0.0",
  "updatedAt": "2018-06-03T11:43:05.024Z"
}