{
  "contractName": "DART",
  "abi": [
    {
      "constant": true,
      "inputs": [],
      "name": "name",
      "outputs": [
        {
          "name": "",
          "type": "string"
        }
      ],
      "payable": false,
      "stateMutability": "view",
      "type": "function"
    },
    {
      "constant": true,
      "inputs": [
        {
          "name": "_tokenId",
          "type": "uint256"
        }
      ],
      "name": "getApproved",
      "outputs": [
        {
          "name": "",
          "type": "address"
        }
      ],
      "payable": false,
      "stateMutability": "view",
      "type": "function"
    },
    {
      "constant": false,
      "inputs": [
        {
          "name": "_to",
          "type": "address"
        },
        {
          "name": "_tokenId",
          "type": "uint256"
        }
      ],
      "name": "approve",
      "outputs": [],
      "payable": false,
      "stateMutability": "nonpayable",
      "type": "function"
    },
    {
      "constant": true,
      "inputs": [],
      "name": "totalSupply",
      "outputs": [
        {
          "name": "",
          "type": "uint256"
        }
      ],
      "payable": false,
      "stateMutability": "view",
      "type": "function"
    },
    {
      "constant": false,
      "inputs": [
        {
          "name": "_from",
          "type": "address"
        },
        {
          "name": "_to",
          "type": "address"
        },
        {
          "name": "_tokenId",
          "type": "uint256"
        }
      ],
      "name": "transferFrom",
      "outputs": [],
      "payable": false,
      "stateMutability": "nonpayable",
      "type": "function"
    },
    {
      "constant": false,
      "inputs": [
        {
          "name": "addrs",
          "type": "address[]"
        }
      ],
      "name": "removeAddressesFromWhitelist",
      "outputs": [
        {
          "name": "success",
          "type": "bool"
        }
      ],
      "payable": false,
      "stateMutability": "nonpayable",
      "type": "function"
    },
    {
      "constant": false,
      "inputs": [
        {
          "name": "addr",
          "type": "address"
        }
      ],
      "name": "removeAddressFromWhitelist",
      "outputs": [
        {
          "name": "success",
          "type": "bool"
        }
      ],
      "payable": false,
      "stateMutability": "nonpayable",
      "type": "function"
    },
    {
      "constant": true,
      "inputs": [
        {
          "name": "_owner",
          "type": "address"
        },
        {
          "name": "_index",
          "type": "uint256"
        }
      ],
      "name": "tokenOfOwnerByIndex",
      "outputs": [
        {
          "name": "",
          "type": "uint256"
        }
      ],
      "payable": false,
      "stateMutability": "view",
      "type": "function"
    },
    {
      "constant": false,
      "inputs": [
        {
          "name": "_from",
          "type": "address"
        },
        {
          "name": "_to",
          "type": "address"
        },
        {
          "name": "_tokenId",
          "type": "uint256"
        }
      ],
      "name": "safeTransferFrom",
      "outputs": [],
      "payable": false,
      "stateMutability": "nonpayable",
      "type": "function"
    },
    {
      "constant": true,
      "inputs": [
        {
          "name": "_tokenId",
          "type": "uint256"
        }
      ],
      "name": "exists",
      "outputs": [
        {
          "name": "",
          "type": "bool"
        }
      ],
      "payable": false,
      "stateMutability": "view",
      "type": "function"
    },
    {
      "constant": true,
      "inputs": [
        {
          "name": "_index",
          "type": "uint256"
        }
      ],
      "name": "tokenByIndex",
      "outputs": [
        {
          "name": "",
          "type": "uint256"
        }
      ],
      "payable": false,
      "stateMutability": "view",
      "type": "function"
    },
    {
      "constant": true,
      "inputs": [],
      "name": "totalContributionsInWei",
      "outputs": [
        {
          "name": "",
          "type": "uint256"
        }
      ],
      "payable": false,
      "stateMutability": "view",
      "type": "function"
    },
    {
      "constant": true,
      "inputs": [],
      "name": "InterfaceSignature_ERC721Optional",
      "outputs": [
        {
          "name": "",
          "type": "bytes4"
        }
      ],
      "payable": false,
      "stateMutability": "view",
      "type": "function"
    },
    {
      "constant": true,
      "inputs": [
        {
          "name": "_tokenId",
          "type": "uint256"
        }
      ],
      "name": "ownerOf",
      "outputs": [
        {
          "name": "",
          "type": "address"
        }
      ],
      "payable": false,
      "stateMutability": "view",
      "type": "function"
    },
    {
      "constant": true,
      "inputs": [
        {
          "name": "_owner",
          "type": "address"
        }
      ],
      "name": "balanceOf",
      "outputs": [
        {
          "name": "",
          "type": "uint256"
        }
      ],
      "payable": false,
      "stateMutability": "view",
      "type": "function"
    },
    {
      "constant": false,
      "inputs": [
        {
          "name": "addr",
          "type": "address"
        }
      ],
      "name": "addAddressToWhitelist",
      "outputs": [
        {
          "name": "success",
          "type": "bool"
        }
      ],
      "payable": false,
      "stateMutability": "nonpayable",
      "type": "function"
    },
    {
      "constant": true,
      "inputs": [],
      "name": "owner",
      "outputs": [
        {
          "name": "",
          "type": "address"
        }
      ],
      "payable": false,
      "stateMutability": "view",
      "type": "function"
    },
    {
      "constant": true,
      "inputs": [],
      "name": "symbol",
      "outputs": [
        {
          "name": "",
          "type": "string"
        }
      ],
      "payable": false,
      "stateMutability": "view",
      "type": "function"
    },
    {
      "constant": true,
      "inputs": [
        {
          "name": "",
          "type": "address"
        }
      ],
      "name": "whitelist",
      "outputs": [
        {
          "name": "",
          "type": "bool"
        }
      ],
      "payable": false,
      "stateMutability": "view",
      "type": "function"
    },
    {
      "constant": false,
      "inputs": [
        {
          "name": "_to",
          "type": "address"
        },
        {
          "name": "_approved",
          "type": "bool"
        }
      ],
      "name": "setApprovalForAll",
      "outputs": [],
      "payable": false,
      "stateMutability": "nonpayable",
      "type": "function"
    },
    {
      "constant": true,
      "inputs": [],
      "name": "pricePerBlock",
      "outputs": [
        {
          "name": "",
          "type": "uint256"
        }
      ],
      "payable": false,
      "stateMutability": "view",
      "type": "function"
    },
    {
      "constant": true,
      "inputs": [],
      "name": "lastPurchasedBlock",
      "outputs": [
        {
          "name": "",
          "type": "uint256"
        }
      ],
      "payable": false,
      "stateMutability": "view",
      "type": "function"
    },
    {
      "constant": false,
      "inputs": [
        {
          "name": "_from",
          "type": "address"
        },
        {
          "name": "_to",
          "type": "address"
        },
        {
          "name": "_tokenId",
          "type": "uint256"
        },
        {
          "name": "_data",
          "type": "bytes"
        }
      ],
      "name": "safeTransferFrom",
      "outputs": [],
      "payable": false,
      "stateMutability": "nonpayable",
      "type": "function"
    },
    {
      "constant": true,
      "inputs": [],
      "name": "maxBlockPurchaseInOneGo",
      "outputs": [
        {
          "name": "",
          "type": "uint256"
        }
      ],
      "payable": false,
      "stateMutability": "view",
      "type": "function"
    },
    {
      "constant": true,
      "inputs": [],
      "name": "donationPercentage",
      "outputs": [
        {
          "name": "",
          "type": "uint8"
        }
      ],
      "payable": false,
      "stateMutability": "view",
      "type": "function"
    },
    {
      "constant": false,
      "inputs": [
        {
          "name": "addrs",
          "type": "address[]"
        }
      ],
      "name": "addAddressesToWhitelist",
      "outputs": [
        {
          "name": "success",
          "type": "bool"
        }
      ],
      "payable": false,
      "stateMutability": "nonpayable",
      "type": "function"
    },
    {
      "constant": true,
      "inputs": [
        {
          "name": "_owner",
          "type": "address"
        },
        {
          "name": "_operator",
          "type": "address"
        }
      ],
      "name": "isApprovedForAll",
      "outputs": [
        {
          "name": "",
          "type": "bool"
        }
      ],
      "payable": false,
      "stateMutability": "view",
      "type": "function"
    },
    {
      "constant": false,
      "inputs": [
        {
          "name": "newOwner",
          "type": "address"
        }
      ],
      "name": "transferOwnership",
      "outputs": [],
      "payable": false,
      "stateMutability": "nonpayable",
      "type": "function"
    },
    {
      "inputs": [],
      "payable": false,
      "stateMutability": "nonpayable",
      "type": "constructor"
    },
    {
      "payable": true,
      "stateMutability": "payable",
      "type": "fallback"
    },
    {
      "anonymous": false,
      "inputs": [
        {
          "indexed": true,
          "name": "_owner",
          "type": "address"
        },
        {
          "indexed": true,
          "name": "_tokenId",
          "type": "uint256"
        },
        {
          "indexed": false,
          "name": "_blockhash",
          "type": "bytes32"
        },
        {
          "indexed": false,
          "name": "_nickname",
          "type": "string"
        }
      ],
      "name": "MintDART",
      "type": "event"
    },
    {
      "anonymous": false,
      "inputs": [
        {
          "indexed": true,
          "name": "_funder",
          "type": "address"
        },
        {
          "indexed": true,
          "name": "_tokenId",
          "type": "uint256"
        },
        {
          "indexed": false,
          "name": "_blockhash",
          "type": "bytes32"
        },
        {
          "indexed": false,
          "name": "_block",
          "type": "uint256"
        }
      ],
      "name": "FundDART",
      "type": "event"
    },
    {
      "anonymous": false,
      "inputs": [
        {
          "indexed": true,
          "name": "_funder",
          "type": "address"
        },
        {
          "indexed": true,
          "name": "_tokenId",
          "type": "uint256"
        },
        {
          "indexed": false,
          "name": "_blocksPurchased",
          "type": "uint256"
        }
      ],
      "name": "BlocksPurchasedDART",
      "type": "event"
    },
    {
      "anonymous": false,
      "inputs": [
        {
          "indexed": false,
          "name": "name",
          "type": "string"
        },
        {
          "indexed": false,
          "name": "now",
          "type": "uint256"
        }
      ],
      "name": "Test",
      "type": "event"
    },
    {
      "anonymous": false,
      "inputs": [
        {
          "indexed": false,
          "name": "addr",
          "type": "address"
        }
      ],
      "name": "WhitelistedAddressAdded",
      "type": "event"
    },
    {
      "anonymous": false,
      "inputs": [
        {
          "indexed": false,
          "name": "addr",
          "type": "address"
        }
      ],
      "name": "WhitelistedAddressRemoved",
      "type": "event"
    },
    {
      "anonymous": false,
      "inputs": [
        {
          "indexed": true,
          "name": "previousOwner",
          "type": "address"
        },
        {
          "indexed": true,
          "name": "newOwner",
          "type": "address"
        }
      ],
      "name": "OwnershipTransferred",
      "type": "event"
    },
    {
      "anonymous": false,
      "inputs": [
        {
          "indexed": true,
          "name": "_from",
          "type": "address"
        },
        {
          "indexed": true,
          "name": "_to",
          "type": "address"
        },
        {
          "indexed": false,
          "name": "_tokenId",
          "type": "uint256"
        }
      ],
      "name": "Transfer",
      "type": "event"
    },
    {
      "anonymous": false,
      "inputs": [
        {
          "indexed": true,
          "name": "_owner",
          "type": "address"
        },
        {
          "indexed": true,
          "name": "_approved",
          "type": "address"
        },
        {
          "indexed": false,
          "name": "_tokenId",
          "type": "uint256"
        }
      ],
      "name": "Approval",
      "type": "event"
    },
    {
      "anonymous": false,
      "inputs": [
        {
          "indexed": true,
          "name": "_owner",
          "type": "address"
        },
        {
          "indexed": true,
          "name": "_operator",
          "type": "address"
        },
        {
          "indexed": false,
          "name": "_approved",
          "type": "bool"
        }
      ],
      "name": "ApprovalForAll",
      "type": "event"
    },
    {
      "constant": true,
      "inputs": [
        {
          "name": "_interfaceID",
          "type": "bytes4"
        }
      ],
      "name": "supportsInterface",
      "outputs": [
        {
          "name": "",
          "type": "bool"
        }
      ],
      "payable": false,
      "stateMutability": "pure",
      "type": "function"
    },
    {
      "constant": false,
      "inputs": [
        {
          "name": "_tokenId",
          "type": "uint256"
        }
      ],
      "name": "fundDart",
      "outputs": [],
      "payable": true,
      "stateMutability": "payable",
      "type": "function"
    },
    {
      "constant": false,
      "inputs": [
        {
          "name": "_blockhash",
          "type": "bytes32"
        },
        {
          "name": "_tokenId",
          "type": "uint256"
        },
        {
          "name": "_nickname",
          "type": "string"
        }
      ],
      "name": "mint",
      "outputs": [],
      "payable": false,
      "stateMutability": "nonpayable",
      "type": "function"
    },
    {
      "constant": true,
      "inputs": [],
      "name": "getNextBlockToFund",
      "outputs": [
        {
          "name": "_nextFundedBlock",
          "type": "uint256"
        }
      ],
      "payable": false,
      "stateMutability": "view",
      "type": "function"
    },
    {
      "constant": false,
      "inputs": [
        {
          "name": "_tokenId",
          "type": "uint256"
        }
      ],
      "name": "burn",
      "outputs": [],
      "payable": false,
      "stateMutability": "nonpayable",
      "type": "function"
    },
    {
      "constant": false,
      "inputs": [
        {
          "name": "_tokenId",
          "type": "uint256"
        },
        {
          "name": "_uri",
          "type": "string"
        }
      ],
      "name": "setTokenURI",
      "outputs": [],
      "payable": false,
      "stateMutability": "nonpayable",
      "type": "function"
    },
    {
      "constant": true,
      "inputs": [
        {
          "name": "_owner",
          "type": "address"
        }
      ],
      "name": "tokensOf",
      "outputs": [
        {
          "name": "_tokenIds",
          "type": "uint256[]"
        }
      ],
      "payable": false,
      "stateMutability": "view",
      "type": "function"
    },
    {
      "constant": true,
      "inputs": [
        {
          "name": "_tokenId",
          "type": "uint256"
        }
      ],
      "name": "nicknameOf",
      "outputs": [
        {
          "name": "_nickname",
          "type": "string"
        }
      ],
      "payable": false,
      "stateMutability": "view",
      "type": "function"
    },
    {
      "constant": true,
      "inputs": [
        {
          "name": "_tokenId",
          "type": "uint256"
        }
      ],
      "name": "blockhashOf",
      "outputs": [
        {
          "name": "hash",
          "type": "bytes32"
        }
      ],
      "payable": false,
      "stateMutability": "view",
      "type": "function"
    },
    {
      "constant": true,
      "inputs": [
        {
          "name": "_blockNumber",
          "type": "uint256"
        }
      ],
      "name": "blockOwnerOf",
      "outputs": [
        {
          "name": "_tokenId",
          "type": "uint256"
        }
      ],
      "payable": false,
      "stateMutability": "view",
      "type": "function"
    },
    {
      "constant": true,
      "inputs": [
        {
          "name": "_blockNumber",
          "type": "uint256"
        }
      ],
      "name": "isBlockPurchased",
      "outputs": [
        {
          "name": "",
          "type": "bool"
        }
      ],
      "payable": false,
      "stateMutability": "view",
      "type": "function"
    },
    {
      "constant": true,
      "inputs": [
        {
          "name": "_tokenId",
          "type": "uint256"
        }
      ],
      "name": "blocksPurchasedByToken",
      "outputs": [
        {
          "name": "_blocks",
          "type": "uint256[]"
        }
      ],
      "payable": false,
      "stateMutability": "view",
      "type": "function"
    },
    {
      "constant": true,
      "inputs": [
        {
          "name": "_tokenId",
          "type": "uint256"
        }
      ],
      "name": "tokenURI",
      "outputs": [
        {
          "name": "",
          "type": "string"
        }
      ],
      "payable": false,
      "stateMutability": "view",
      "type": "function"
    },
    {
      "constant": false,
      "inputs": [
        {
          "name": "_newBaseURI",
          "type": "string"
        }
      ],
      "name": "setTokenBaseURI",
      "outputs": [],
      "payable": false,
      "stateMutability": "nonpayable",
      "type": "function"
    },
    {
      "constant": true,
      "inputs": [
        {
          "name": "_blockNumber",
          "type": "uint256"
        }
      ],
      "name": "generateHash",
      "outputs": [
        {
          "name": "_tokenHash",
          "type": "bytes32"
        }
      ],
      "payable": false,
      "stateMutability": "view",
      "type": "function"
    },
    {
      "constant": true,
      "inputs": [],
      "name": "nextHash",
      "outputs": [
        {
          "name": "_tokenHash",
          "type": "bytes32"
        }
      ],
      "payable": false,
      "stateMutability": "view",
      "type": "function"
    },
    {
      "constant": true,
      "inputs": [
        {
          "name": "_blockNumber",
          "type": "uint256"
        }
      ],
      "name": "defaultBlockhash",
      "outputs": [
        {
          "name": "_tokenHash",
          "type": "bytes32"
        }
      ],
      "payable": false,
      "stateMutability": "view",
      "type": "function"
    },
    {
      "constant": true,
      "inputs": [],
      "name": "blockNumber",
      "outputs": [
        {
          "name": "_blockNumber",
          "type": "uint256"
        }
      ],
      "payable": false,
      "stateMutability": "view",
      "type": "function"
    }
  ],
  "bytecode": "0x606060405260408051908101604052601c81527f68747470733a2f2f697066732e696e667572612e696f2f697066732f000000006020820152600d9080516200004d9291602001906200025e565b50662386f26fc10000600f556010805460ff191660011790556014601155600060155534156200007c57600080fd5b604080519081016040908152600b82527f4469676974616c204172740000000000000000000000000000000000000000006020830152805190810160405260048082527f44415254000000000000000000000000000000000000000000000000000000006020830152828051620000f89291602001906200025e565b5060058180516200010e9291602001906200025e565b5050600b8054600160a060020a03191633600160a060020a03811691909117909155436015556200014e9150640100000000620001b18102620013021704565b506200017c73f43ae50c468c3d3fa0c3dc3454e797317ef5307864010000000062001302620001b182021704565b50620001aa73e1023c112a39c58238929153f25364c11a33b72964010000000062001302620001b182021704565b5062000303565b600b5460009033600160a060020a03908116911614620001d057600080fd5b600160a060020a0382166000908152600c602052604090205460ff1615156200025957600160a060020a0382166000908152600c602052604090819020805460ff191660011790557fd1bba68c128cc3f427e5831b3c6f99f480b6efa6b9e80c757768f6124158cc3f90839051600160a060020a03909116815260200160405180910390a15060015b919050565b828054600181600116156101000203166002900490600052602060002090601f016020900481019282601f10620002a157805160ff1916838001178555620002d1565b82800160010185558215620002d1579182015b82811115620002d1578251825591602001919060010190620002b4565b50620002df929150620002e3565b5090565b6200030091905b80821115620002df5760008155600101620002ea565b90565b61256780620003136000396000f30060606040526004361061022f5763ffffffff7c010000000000000000000000000000000000000000000000000000000060003504166301ffc9a7811461023457806306fdde031461026857806307518c8e146102f2578063081812fc1461031a578063095ea7b31461034c57806310bfaa7c14610370578063162094c41461038657806318160ddd146103a857806323b872dd146103bb57806324953eaa146103e357806325ad50d514610432578063286dd3f5146104485780632f745c59146104675780634064bc061461048957806342842e0e1461049f57806342966c68146104c75780634f558e79146104dd5780634f6ccce7146104f357806354f50f1b1461050957806357e871e71461051f5780635a3f2672146105325780635a7cb31b146105a45780635bc7b8f7146105b7578063624de3d9146105cd5780636352211e146105fd5780636ed2e7781461061357806370a082311461061e578063727f00671461063d5780637b9417c8146106505780638da5cb5b1461066f5780638ef79e911461068257806395d89b41146106a05780639b19251a146106b35780639fb6c796146106d2578063a22cb465146106f8578063aa3249051461071c578063ab792cdb1461072f578063b32bf01114610742578063b88d4fde14610755578063bb8270fa146107c1578063c16cc810146107d4578063c87b56dd146107fd578063cc106d0914610813578063e2ec6ec314610829578063e985e9c514610878578063f2fde38b1461089d575b600080fd5b341561023f57600080fd5b610254600160e060020a0319600435166108bc565b604051901515815260200160405180910390f35b341561027357600080fd5b61027b6109c3565b60405160208082528190810183818151815260200191508051906020019080838360005b838110156102b757808201518382015260200161029f565b50505050905090810190601f1680156102e45780820380516001836020036101000a031916815260200191505b509250505060405180910390f35b34156102fd57600080fd5b610308600435610a6c565b60405190815260200160405180910390f35b341561032557600080fd5b610330600435610a7e565b604051600160a060020a03909116815260200160405180910390f35b341561035757600080fd5b61036e600160a060020a0360043516602435610a99565b005b341561037b57600080fd5b610254600435610b95565b341561039157600080fd5b61036e600480359060248035908101910135610baa565b34156103b357600080fd5b610308610c1e565b34156103c657600080fd5b61036e600160a060020a0360043581169060243516604435610c24565b34156103ee57600080fd5b6102546004602481358181019083013580602081810201604051908101604052809392919081815260200183836020028082843750949650610ccf95505050505050565b341561043d57600080fd5b610308600435610d32565b341561045357600080fd5b610254600160a060020a0360043516610d44565b341561047257600080fd5b610308600160a060020a0360043516602435610dea565b341561049457600080fd5b610308600435610e38565b34156104aa57600080fd5b61036e600160a060020a0360043581169060243516604435610e6a565b34156104d257600080fd5b61036e600435610ea0565b34156104e857600080fd5b610254600435610f1c565b34156104fe57600080fd5b610308600435610f39565b341561051457600080fd5b61027b600435610f6f565b341561052a57600080fd5b61030861102a565b341561053d57600080fd5b610551600160a060020a036004351661102e565b60405160208082528190810183818151815260200191508051906020019060200280838360005b83811015610590578082015183820152602001610578565b505050509050019250505060405180910390f35b34156105af57600080fd5b6103086110b0565b34156105c257600080fd5b6103086004356110b6565b34156105d857600080fd5b6105e06110ba565b604051600160e060020a0319909116815260200160405180910390f35b341561060857600080fd5b6103306004356110de565b61036e600435611108565b341561062957600080fd5b610308600160a060020a036004351661129a565b341561064857600080fd5b6103086112cd565b341561065b57600080fd5b610254600160a060020a0360043516611302565b341561067a57600080fd5b6103306113ac565b341561068d57600080fd5b61036e60048035602481019101356113bb565b34156106ab57600080fd5b61027b6113ee565b34156106be57600080fd5b610254600160a060020a0360043516611461565b34156106dd57600080fd5b61036e60048035906024803591604435918201910135611476565b341561070357600080fd5b61036e600160a060020a036004351660243515156115b4565b341561072757600080fd5b610308611645565b341561073a57600080fd5b610308611662565b341561074d57600080fd5b610308611668565b341561076057600080fd5b61036e600160a060020a036004803582169160248035909116916044359160849060643590810190830135806020601f8201819004810201604051908101604052818152929190602084018383808284375094965061166e95505050505050565b34156107cc57600080fd5b6103086116ad565b34156107df57600080fd5b6107e76116b3565b60405160ff909116815260200160405180910390f35b341561080857600080fd5b61027b6004356116bc565b341561081e57600080fd5b610551600435611813565b341561083457600080fd5b610254600460248135818101908301358060208181020160405190810160405280939291908181526020018383602002808284375094965061188295505050505050565b341561088357600080fd5b610254600160a060020a03600435811690602435166118df565b34156108a857600080fd5b61036e600160a060020a036004351661190d565b6000600160e060020a031982167f01ffc9a700000000000000000000000000000000000000000000000000000000148061091f5750600160e060020a031982167f80ac58cd00000000000000000000000000000000000000000000000000000000145b806109535750600160e060020a031982167fb0aa718700000000000000000000000000000000000000000000000000000000145b806109875750600160e060020a031982167f780e9d6300000000000000000000000000000000000000000000000000000000145b806109bb5750600160e060020a031982167f5b5e139f00000000000000000000000000000000000000000000000000000000145b90505b919050565b6109cb6123bc565b60048054600181600116156101000203166002900480601f016020809104026020016040519081016040528092919081815260200182805460018160011615610100020316600290048015610a615780601f10610a3657610100808354040283529160200191610a61565b820191906000526020600020905b815481529060010190602001808311610a4457829003601f168201915b505050505090505b90565b60009081526012602052604090205490565b600090815260016020526040902054600160a060020a031690565b6000610aa4826110de565b9050600160a060020a038381169082161415610abf57600080fd5b80600160a060020a031633600160a060020a03161480610ae45750610ae481336118df565b1515610aef57600080fd5b6000610afa83610a7e565b600160a060020a0316141580610b185750600160a060020a03831615155b15610b905760008281526001602052604090819020805473ffffffffffffffffffffffffffffffffffffffff1916600160a060020a0386811691821790925591908316907f8c5be1e5ebec7d5bd14f71427d1e84f3dd0314c0f7b2291e5b200ac8c7c3b9259085905190815260200160405180910390a35b505050565b60009081526017602052604090205460ff1690565b600160a060020a0333166000908152600c602052604090205460ff161515610bd157600080fd5b610bda83610f1c565b1515610be557600080fd5b610b908383838080601f0160208091040260200160405190810160405281815292919060208401838380828437506119a8945050505050565b60085490565b80610c2f33826119db565b1515610c3a57600080fd5b600160a060020a0384161515610c4f57600080fd5b600160a060020a0383161515610c6457600080fd5b610c6e8483611a3a565b610c788483611ae9565b610c828383611c17565b82600160a060020a031684600160a060020a03167fddf252ad1be2c89b69c2b068fc378daa952ba7f163c4a11628f55a4df523b3ef8460405190815260200160405180910390a350505050565b600b54600090819033600160a060020a03908116911614610cef57600080fd5b5060005b8251811015610d2c57610d1a838281518110610d0b57fe5b90602001906020020151610d44565b15610d2457600191505b600101610cf3565b50919050565b60009081526016602052604090205490565b600b5460009033600160a060020a03908116911614610d6257600080fd5b600160a060020a0382166000908152600c602052604090205460ff16156109be57600160a060020a0382166000908152600c602052604090819020805460ff191690557ff1abf01a1043b7c244d128e8595cf0c1d10743b022b03a02dffd8ca3bf729f5a90839051600160a060020a03909116815260200160405180910390a1506001919050565b6000610df58361129a565b8210610e0057600080fd5b600160a060020a0383166000908152600660205260409020805483908110610e2457fe5b906000526020600020900154905092915050565b600080610e4483610b95565b1515610e4f57600080fd5b610e5883610d32565b9050610e6381610a6c565b9392505050565b80610e7533826119db565b1515610e8057600080fd5b610e9a84848460206040519081016040526000815261166e565b50505050565b600160a060020a0333166000908152600c602052604090205460ff161515610ec757600080fd5b600b546000828152602081905260409020548291600160a060020a03918216911614610ef257600080fd5b610efb82610f1c565b1515610f0657600080fd5b610f18610f12836110de565b83611c71565b5050565b600090815260208190526040902054600160a060020a0316151590565b6000610f43610c1e565b8210610f4e57600080fd5b6008805483908110610f5c57fe5b9060005260206000209001549050919050565b610f776123bc565b601460008381526020019081526020016000208054600181600116156101000203166002900480601f01602080910402602001604051908101604052809291908181526020018280546001816001161561010002031660029004801561101e5780601f10610ff35761010080835404028352916020019161101e565b820191906000526020600020905b81548152906001019060200180831161100157829003601f168201915b50505050509050919050565b4390565b6110366123bc565b6006600083600160a060020a0316600160a060020a0316815260200190815260200160002080548060200260200160405190810160405280929190818152602001828054801561101e57602002820191906000526020600020905b8154815260200190600101908083116110915750505050509050919050565b600e5481565b4090565b7fb0aa71870000000000000000000000000000000000000000000000000000000081565b600081815260208190526040812054600160a060020a031680151561110257600080fd5b92915050565b6000808080348190101561111b57600080fd5b600f5434101561112a57600080fd5b601154600f540234111561113d57600080fd5b61114685610f1c565b151561115157600080fd5b600f543481151561115e57fe5b0493504360010192506015548310156111775760155492505b5081905060005b838160ff1610156112505760008281526017602052604090205460ff161515611245576000828152601760209081526040808320805460ff191660019081179091556016835281842089905588845260189092529091208054909181016111e583826123ce565b50600091825260209091200182905584600160a060020a0333167f04649188eae35f52d46ae0040474804e761d09610a0ab8338319f35200bcbbb461122985610e38565b8560405191825260208201526040908101905180910390a36001015b60019091019061117e565b601582905584600160a060020a0333167f63b058983ba124fb07f181575aca82b9693554b4313354644491e215083042218660405190815260200160405180910390a35050505050565b6000600160a060020a03821615156112b157600080fd5b50600160a060020a031660009081526002602052604090205490565b600060001943016112dd81610d32565b156112f2576112eb81610e38565b91506112fe565b6112fb816110b6565b91505b5090565b600b5460009033600160a060020a0390811691161461132057600080fd5b600160a060020a0382166000908152600c602052604090205460ff1615156109be57600160a060020a0382166000908152600c602052604090819020805460ff191660011790557fd1bba68c128cc3f427e5831b3c6f99f480b6efa6b9e80c757768f6124158cc3f90839051600160a060020a03909116815260200160405180910390a1506001919050565b600b54600160a060020a031681565b600160a060020a0333166000908152600c602052604090205460ff1615156113e257600080fd5b610b90600d83836123f2565b6113f66123bc565b60058054600181600116156101000203166002900480601f016020809104026020016040519081016040528092919081815260200182805460018160011615610100020316600290048015610a615780601f10610a3657610100808354040283529160200191610a61565b600c6020526000908152604090205460ff1681565b600160a060020a0333166000908152600c602052604090205460ff16151561149d57600080fd5b600084815260136020526040902054156114b657600080fd5b600083815260126020526040902054156114cf57600080fd5b6114d93384611d6c565b6115168360408051908101604052600381527f574950000000000000000000000000000000000000000000000000000000000060208201526119a8565b6000838152601260209081526040808320879055868352601382528083208690558583526014909152902061154c9083836123f2565b508233600160a060020a03167f4453ce3000f70afbe0bcadf15f2ba7165d528adb6dffa06dd8aa0b89c6516e1886858560405183815260406020820181815290820183905260608201848480828437820191505094505050505060405180910390a350505050565b33600160a060020a031682600160a060020a0316141515156115d557600080fd5b33600160a060020a0390811660008181526003602090815260408083209487168084529490915290819020805460ff19168515151790557f17307eab39ab6107e8899845ad3d59bd9653f200f220920489ca2b5937696c3190849051901515815260200160405180910390a35050565b600060155443101561165a5750601554610a69565b506001430190565b600f5481565b60155481565b8161167933826119db565b151561168457600080fd5b61168f858585610c24565b61169b85858585611da9565b15156116a657600080fd5b5050505050565b60115481565b60105460ff1681565b6116c46123bc565b6109bb600d8054600181600116156101000203166002900480601f01602080910402602001604051908101604052809291908181526020018280546001816001161561010002031660029004801561175d5780601f106117325761010080835404028352916020019161175d565b820191906000526020600020905b81548152906001019060200180831161174057829003601f168201915b5050505050600a60008581526020019081526020016000208054600181600116156101000203166002900480601f0160208091040260200160405190810160405280929190818152602001828054600181600116156101000203166002900480156118095780601f106117de57610100808354040283529160200191611809565b820191906000526020600020905b8154815290600101906020018083116117ec57829003601f168201915b5050505050611f03565b61181b6123bc565b6018600083815260200190815260200160002080548060200260200160405190810160405280929190818152602001828054801561101e57602002820191906000526020600020908154815260200190600101908083116110915750505050509050919050565b600b54600090819033600160a060020a039081169116146118a257600080fd5b5060005b8251811015610d2c576118cd8382815181106118be57fe5b90602001906020020151611302565b156118d757600191505b6001016118a6565b600160a060020a03918216600090815260036020908152604080832093909416825291909152205460ff1690565b600b5433600160a060020a0390811691161461192857600080fd5b600160a060020a038116151561193d57600080fd5b600b54600160a060020a0380831691167f8be0079c531659141344cd1fd0a4f28419497f9722a3daafe3b4186f6b6457e060405160405180910390a3600b805473ffffffffffffffffffffffffffffffffffffffff1916600160a060020a0392909216919091179055565b6119b182610f1c565b15156119bc57600080fd5b6000828152600a60205260409020818051610b9092916020019061246c565b6000806119e7836110de565b905080600160a060020a031684600160a060020a03161480611a22575083600160a060020a0316611a1784610a7e565b600160a060020a0316145b80611a325750611a3281856118df565b949350505050565b81600160a060020a0316611a4d826110de565b600160a060020a031614611a6057600080fd5b600081815260016020526040902054600160a060020a031615610f1857600081815260016020526040808220805473ffffffffffffffffffffffffffffffffffffffff19169055600160a060020a038416907f8c5be1e5ebec7d5bd14f71427d1e84f3dd0314c0f7b2291e5b200ac8c7c3b9259084905190815260200160405180910390a35050565b6000806000611af88585611f46565b600084815260076020908152604080832054600160a060020a0389168452600690925290912054909350611b3390600163ffffffff611fdb16565b600160a060020a038616600090815260066020526040902080549193509083908110611b5b57fe5b6000918252602080832090910154600160a060020a0388168352600690915260409091208054919250829185908110611b9057fe5b6000918252602080832090910192909255600160a060020a0387168152600690915260408120805484908110611bc257fe5b6000918252602080832090910192909255600160a060020a0387168152600690915260409020805490611bf99060001983016123ce565b50600093845260076020526040808520859055908452909220555050565b6000611c238383611fed565b50600160a060020a03821660009081526006602052604090208054908160018101611c4e83826123ce565b506000918252602080832091909101849055928152600790925260409091205550565b6000806000611c80858561207c565b6000848152600a60205260409020546002600019610100600184161502019091160415611cbe576000848152600a60205260408120611cbe916124da565b600084815260096020526040902054600854909350611ce490600163ffffffff611fdb16565b9150600882815481101515611cf557fe5b906000526020600020900154905080600884815481101515611d1357fe5b60009182526020822001919091556008805484908110611d2f57fe5b6000918252602090912001556008805490611d4e9060001983016123ce565b50600093845260096020526040808520859055908452909220555050565b611d7682826120d3565b60088054600083815260096020526040902081905560018101611d9983826123ce565b5060009182526020909120015550565b600080611dbe85600160a060020a0316612135565b1515611dcd5760019150611efa565b84600160a060020a031663f0b9e5ba8786866040518463ffffffff167c01000000000000000000000000000000000000000000000000000000000281526004018084600160a060020a0316600160a060020a0316815260200183815260200180602001828103825283818151815260200191508051906020019080838360005b83811015611e65578082015183820152602001611e4d565b50505050905090810190601f168015611e925780820380516001836020036101000a031916815260200191505b50945050505050602060405180830381600087803b1515611eb257600080fd5b5af11515611ebf57600080fd5b5050506040518051600160e060020a031981167ff0b9e5ba000000000000000000000000000000000000000000000000000000001493509150505b50949350505050565b611f0b6123bc565b610e6383836020604051908101604052806000815250602060405190810160405280600081525060206040519081016040526000815261213d565b81600160a060020a0316611f59826110de565b600160a060020a031614611f6c57600080fd5b600160a060020a038216600090815260026020526040902054611f9690600163ffffffff611fdb16565b600160a060020a039092166000908152600260209081526040808320949094559181529081905220805473ffffffffffffffffffffffffffffffffffffffff19169055565b600082821115611fe757fe5b50900390565b600081815260208190526040902054600160a060020a03161561200f57600080fd5b600081815260208181526040808320805473ffffffffffffffffffffffffffffffffffffffff1916600160a060020a0387169081179091558352600290915290205461205c9060016123ad565b600160a060020a0390921660009081526002602052604090209190915550565b6120868282611a3a565b6120908282611ae9565b6000600160a060020a0383167fddf252ad1be2c89b69c2b068fc378daa952ba7f163c4a11628f55a4df523b3ef8360405190815260200160405180910390a35050565b600160a060020a03821615156120e857600080fd5b6120f28282611c17565b600160a060020a03821660007fddf252ad1be2c89b69c2b068fc378daa952ba7f163c4a11628f55a4df523b3ef8360405190815260200160405180910390a35050565b6000903b1190565b6121456123bc565b61214d6123bc565b6121556123bc565b61215d6123bc565b6121656123bc565b61216d6123bc565b6121756123bc565b61217d6123bc565b6000808e98508d97508c96508b95508a94508451865188518a518c51010101016040518059106121aa5750595b818152601f19601f83011681016020016040529050935083925060009150600090505b8851811015612226578881815181106121e257fe5b016020015160f860020a900460f860020a0283838060010194508151811061220657fe5b906020010190600160f860020a031916908160001a9053506001016121cd565b5060005b87518110156122835787818151811061223f57fe5b016020015160f860020a900460f860020a0283838060010194508151811061226357fe5b906020010190600160f860020a031916908160001a90535060010161222a565b5060005b86518110156122e05786818151811061229c57fe5b016020015160f860020a900460f860020a028383806001019450815181106122c057fe5b906020010190600160f860020a031916908160001a905350600101612287565b5060005b855181101561233d578581815181106122f957fe5b016020015160f860020a900460f860020a0283838060010194508151811061231d57fe5b906020010190600160f860020a031916908160001a9053506001016122e4565b5060005b845181101561239a5784818151811061235657fe5b016020015160f860020a900460f860020a0283838060010194508151811061237a57fe5b906020010190600160f860020a031916908160001a905350600101612341565b50909d9c50505050505050505050505050565b600082820183811015610e6357fe5b60206040519081016040526000815290565b815481835581811511610b9057600083815260209020610b90918101908301612521565b828054600181600116156101000203166002900490600052602060002090601f016020900481019282601f106124335782800160ff19823516178555612460565b82800160010185558215612460579182015b82811115612460578235825591602001919060010190612445565b506112fe929150612521565b828054600181600116156101000203166002900490600052602060002090601f016020900481019282601f106124ad57805160ff1916838001178555612460565b82800160010185558215612460579182015b828111156124605782518255916020019190600101906124bf565b50805460018160011615610100020316600290046000825580601f10612500575061251e565b601f01602090049060005260206000209081019061251e9190612521565b50565b610a6991905b808211156112fe57600081556001016125275600a165627a7a7230582048395fcb20299fa045555bc922e059ee583c29d3e1617a5568106c51ce8cad030029",
  "source": "pragma solidity ^0.4.21;\n\n\nimport \"./ERC721Token.sol\";\n\nimport \"./Strings.sol\";\n\nimport \"./ERC165.sol\";\n\nimport \"./Whitelist.sol\";\n\n\n/**\n* @title DART\n*/\ncontract DART is ERC721Token, ERC165, Whitelist {\n  using SafeMath for uint256;\n\n  bytes4 constant InterfaceSignature_ERC165 = 0x01ffc9a7;\n  /*\n  bytes4(keccak256('supportsInterface(bytes4)'));\n  */\n\n  bytes4 constant InterfaceSignature_ERC721Enumerable = 0x780e9d63;\n  /*\n  bytes4(keccak256('totalSupply()')) ^\n  bytes4(keccak256('tokenOfOwnerByIndex(address,uint256)')) ^\n  bytes4(keccak256('tokenByIndex(uint256)'));\n  */\n\n  bytes4 constant InterfaceSignature_ERC721Metadata = 0x5b5e139f;\n  /*\n  bytes4(keccak256('name()')) ^\n  bytes4(keccak256('symbol()')) ^\n  bytes4(keccak256('tokenURI(uint256)'));\n  */\n\n  bytes4 constant InterfaceSignature_ERC721 = 0x80ac58cd;\n  /*\n  bytes4(keccak256('balanceOf(address)')) ^\n  bytes4(keccak256('ownerOf(uint256)')) ^\n  bytes4(keccak256('approve(address,uint256)')) ^\n  bytes4(keccak256('getApproved(uint256)')) ^\n  bytes4(keccak256('setApprovalForAll(address,bool)')) ^\n  bytes4(keccak256('isApprovedForAll(address,address)')) ^\n  bytes4(keccak256('transferFrom(address,address,uint256)')) ^\n  bytes4(keccak256('safeTransferFrom(address,address,uint256)')) ^\n  bytes4(keccak256('safeTransferFrom(address,address,uint256,bytes)'));\n  */\n\n  bytes4 public constant InterfaceSignature_ERC721Optional = - 0x4f558e79;\n  /*\n  bytes4(keccak256('exists(uint256)'));\n  */\n\n  /**\n   * @notice Introspection interface as per ERC-165 (https://github.com/ethereum/EIPs/issues/165).\n   * @dev Returns true for any standardized interfaces implemented by this contract.\n   * @param _interfaceID bytes4 the interface to check for\n   * @return true for any standardized interfaces implemented by this contract.\n   */\n  function supportsInterface(bytes4 _interfaceID) external pure returns (bool) {\n    return ((_interfaceID == InterfaceSignature_ERC165)\n    || (_interfaceID == InterfaceSignature_ERC721)\n    || (_interfaceID == InterfaceSignature_ERC721Optional)\n    || (_interfaceID == InterfaceSignature_ERC721Enumerable)\n    || (_interfaceID == InterfaceSignature_ERC721Metadata));\n  }\n\n  event MintDART(address indexed _owner, uint256 indexed _tokenId, bytes32 _blockhash, string _nickname);\n\n  event FundDART(address indexed _funder, uint256 indexed _tokenId, bytes32 _blockhash, uint256 _block);\n\n  event BlocksPurchasedDART(address indexed _funder, uint256 indexed _tokenId, uint256 _blocksPurchased);\n\n  event Test(string name, uint256 now);\n\n  string internal tokenBaseURI = \"https://ipfs.infura.io/ipfs/\";\n\n  // total wei sent to the  contract\n  uint256 public totalContributionsInWei;\n\n  // TODO handle setting these per contract/installation\n  // the price to display per block\n  uint256 public pricePerBlock = 0.01 ether;\n\n  // TODO handle setting these per contract/installation\n  // percentage of all funds received which is directed to a donation address\n  uint8 public donationPercentage = 1;\n\n  // TODO handle setting these per contract/installation\n  // max number of blocks allowed to purchased in one go (mainly for gas costs, this should be kept fairly low for now)\n  uint256 public maxBlockPurchaseInOneGo = 20;\n\n  mapping (uint256 => bytes32) internal tokenIdToBlockhash;\n\n  mapping (bytes32 => uint256) internal blockhashToTokenId;\n\n  mapping (uint256 => string) internal tokenIdToNickname;\n\n  uint256 public lastPurchasedBlock = 0;\n\n  mapping (uint256 => uint256) internal blockToTokenOwner;\n\n  mapping (uint256 => bool) internal blockPurchasedMapping;\n\n  // Mapping tokenID to the blocks that have purchased\n  mapping (uint256 => uint256[]) internal tokenToBlocksPurchased;\n\n  modifier onlyDARTOwnedToken(uint256 _tokenId) {\n    require(tokenOwner[_tokenId] == owner);\n    _;\n  }\n\n  modifier onlyValidAmounts() {\n    // Some value\n    require(msg.value >= 0);\n\n    // Min price\n    require(msg.value >= pricePerBlock);\n\n    // max price\n    require(msg.value <= (pricePerBlock * maxBlockPurchaseInOneGo));\n    _;\n  }\n\n  function DART() public ERC721Token(\"Digital Art\", \"DART\") {\n    // set to current block mined in\n    lastPurchasedBlock = block.number;\n\n    // TODO handle setting these/configuring\n    super.addAddressToWhitelist(msg.sender);\n    super.addAddressToWhitelist(0xf43aE50C468c3D3Fa0C3dC3454E797317EF53078);\n    super.addAddressToWhitelist(0xe1023C112A39c58238929153F25364c11A33B729);\n  }\n\n  // don't accept payment directly to contract\n  function() public payable {\n    // TODO handle payments, redirect to donations address?\n    revert();\n  }\n\n  /**\n   * @dev Funds your token to be displayed for a specific amount of time\n   * @param _tokenId the DART token ID\n   */\n  function fundDart(uint256 _tokenId) public payable onlyValidAmounts {\n    require(exists(_tokenId));\n\n    // determine how many blocks purchased\n    uint256 blocksToPurchased = msg.value / pricePerBlock;\n\n    // Start purchase from next block the current block is being mined\n    uint256 nextBlockToPurchase = block.number + 1;\n\n    // Move next purchase-able on block if the blockchain is in the past when compared to future purchased blocks\n    // This deal with people purchasing blocks in the future & reduces looping costs\n    if (nextBlockToPurchase < lastPurchasedBlock) {\n      nextBlockToPurchase = lastPurchasedBlock;\n    }\n\n    uint256 nextBlock = nextBlockToPurchase;\n\n    uint8 purchased = 0;\n    while (purchased < blocksToPurchased) {\n\n      // if the next block is not purchased\n      if (!blockPurchasedMapping[nextBlock]) {\n\n        // Set a boolean flag to identify this block is purchased\n        blockPurchasedMapping[nextBlock] = true;\n\n        // keep track of the token associated to the block\n        blockToTokenOwner[nextBlock] = _tokenId;\n\n        // Keep track of the blocks purchased by the token\n        tokenToBlocksPurchased[_tokenId].push(nextBlock);\n\n        // Emit event for logging/tracking\n        FundDART(msg.sender, _tokenId, generateHash(nextBlock), nextBlock);\n\n        // Mark one block as found\n        purchased++;\n      }\n\n      // move next block on to find another free space\n      nextBlock++;\n    }\n\n    // update last block once purchased\n    lastPurchasedBlock = nextBlock;\n\n    BlocksPurchasedDART(msg.sender, _tokenId, blocksToPurchased);\n\n    // TODO splice monies to various parties\n  }\n\n  /**\n   * @dev Mint a new DART token\n   * @dev Reverts if not called by curator\n   * @param _blockhash an Ethereum block hash\n   * @param _tokenId unique token ID\n   * @param _nickname char stamp of token owner\n   */\n  function mint(bytes32 _blockhash, uint256 _tokenId, string _nickname) external onlyWhitelisted {\n    require(blockhashToTokenId[_blockhash] == 0);\n    require(tokenIdToBlockhash[_tokenId] == 0);\n\n    // actually mint the token\n    super._mint(msg.sender, _tokenId);\n\n    // FIXME - handle this\n    super._setTokenURI(_tokenId, \"WIP\");\n\n    // set data\n    tokenIdToBlockhash[_tokenId] = _blockhash;\n    blockhashToTokenId[_blockhash] = _tokenId;\n    tokenIdToNickname[_tokenId] = _nickname;\n\n    MintDART(msg.sender, _tokenId, _blockhash, _nickname);\n  }\n\n  /**\n   * @dev Attempts to work out the next block which will be funded\n   */\n  function getNextBlockToFund() public view returns (uint256 _nextFundedBlock) {\n    if (block.number < lastPurchasedBlock) {\n      return lastPurchasedBlock;\n    }\n    return block.number + 1;\n  }\n\n  /**\n   * @dev Burns a DART token\n   * @dev Reverts if token is not unsold or not owned by management\n   * @param _tokenId the DART token ID\n   */\n  function burn(uint256 _tokenId) external onlyWhitelisted onlyDARTOwnedToken(_tokenId) {\n    require(exists(_tokenId));\n    super._burn(ownerOf(_tokenId), _tokenId);\n    // TODO clear metadata\n  }\n\n  /**\n   * @dev Utility function for updating a DART assets token URI\n   * @dev Reverts if not called by management\n   * @param _tokenId the DART token ID\n   * @param _uri the token URI, will be concatenated with baseUri\n   */\n  function setTokenURI(uint256 _tokenId, string _uri) external onlyWhitelisted {\n    require(exists(_tokenId));\n    _setTokenURI(_tokenId, _uri);\n  }\n\n  /**\n   * @dev Return owned tokens\n   * @param _owner address to query\n   */\n  function tokensOf(address _owner) public view returns (uint256[] _tokenIds) {\n    return ownedTokens[_owner];\n  }\n\n  /**\n   * @dev Return handle of token\n   * @param _tokenId token ID for handle lookup\n   */\n  function nicknameOf(uint256 _tokenId) public view returns (string _nickname) {\n    return tokenIdToNickname[_tokenId];\n  }\n\n  /**\n   * @dev Return blockhash of the DART token\n   * @param _tokenId the DART token ID\n   */\n  function blockhashOf(uint256 _tokenId) public view returns (bytes32 hash) {\n    return tokenIdToBlockhash[_tokenId];\n  }\n\n  /**\n   * @dev Return token ID for the provided block or 0 when not found\n   */\n  function blockOwnerOf(uint256 _blockNumber) public view returns (uint256 _tokenId) {\n    return blockToTokenOwner[_blockNumber];\n  }\n\n  /**\n   * @dev Returns whether the specified block has been purchased\n   */\n  function isBlockPurchased(uint256 _blockNumber) public view returns (bool) {\n    return blockPurchasedMapping[_blockNumber];\n  }\n\n  /**\n   * @dev Returns the blocks which the [provided token has purchased\n   */\n  function blocksPurchasedByToken(uint256 _tokenId) public view returns (uint256[] _blocks) {\n    return tokenToBlocksPurchased[_tokenId];\n  }\n\n  /**\n   * @dev Get token URI fro the given token, useful for testing purposes\n   * @param _tokenId the DART token ID\n   * @return the token ID or only the base URI if not found\n   */\n  function tokenURI(uint256 _tokenId) public view returns (string) {\n    return Strings.strConcat(tokenBaseURI, tokenURIs[_tokenId]);\n  }\n\n  /**\n   * @dev Allows management to update the base tokenURI path\n   * @dev Reverts if not called by management\n   * @param _newBaseURI the new base URI to set\n   */\n  function setTokenBaseURI(string _newBaseURI) external onlyWhitelisted {\n    tokenBaseURI = _newBaseURI;\n  }\n\n  /**\n   * @dev Get the hash the given block\n   * @param _blockNumber the block to generate hash for\n   * TODO rename this to get()\n   */\n  function generateHash(uint256 _blockNumber) public view returns (bytes32 _tokenHash) {\n    // Dont allow this to be called for hashes which aren't purchased\n    require(isBlockPurchased(_blockNumber));\n\n    uint256 token = blockOwnerOf(_blockNumber);\n    return blockhashOf(token);\n  }\n\n  /**\n   * @dev Generates a unique token hash for the token and handle\n   */\n  function nextHash() public view returns (bytes32 _tokenHash) {\n    uint256 nextBlock = block.number - 1;\n\n    // if current block number has been allocated then use it\n    if (blockOwnerOf(nextBlock) != 0) {\n      return generateHash(nextBlock);\n    }\n\n    // if no one own the current blockhash return current\n    return defaultBlockhash(nextBlock);\n  }\n\n  /**\n   * @dev Generates default block hash behaviour - good for testings\n   */\n  function defaultBlockhash(uint256 _blockNumber) public view returns (bytes32 _tokenHash) {\n    return block.blockhash(_blockNumber);\n  }\n\n  /**\n   * @dev Returns blocknumber - good for testings\n   */\n  function blockNumber() public view returns (uint256 _blockNumber) {\n    return block.number;\n  }\n}\n",
  "sourcePath": "/Users/jamesmorgan/Dropbox/workspace-blockrocket/art-blocks/contracts/DART.sol",
  "compiler": {
    "name": "solc",
    "version": "0.4.21+commit.dfe3193c.Emscripten.clang"
  },
  "schemaVersion": "2.0.0",
  "updatedAt": "2018-04-29T09:02:49.891Z"
}