{
  "contractName": "DART",
  "abi": [
    {
      "constant": true,
      "inputs": [],
      "name": "name",
      "outputs": [
        {
          "name": "",
          "type": "string"
        }
      ],
      "payable": false,
      "stateMutability": "view",
      "type": "function"
    },
    {
      "constant": true,
      "inputs": [
        {
          "name": "_tokenId",
          "type": "uint256"
        }
      ],
      "name": "getApproved",
      "outputs": [
        {
          "name": "",
          "type": "address"
        }
      ],
      "payable": false,
      "stateMutability": "view",
      "type": "function"
    },
    {
      "constant": false,
      "inputs": [
        {
          "name": "_to",
          "type": "address"
        },
        {
          "name": "_tokenId",
          "type": "uint256"
        }
      ],
      "name": "approve",
      "outputs": [],
      "payable": false,
      "stateMutability": "nonpayable",
      "type": "function"
    },
    {
      "constant": true,
      "inputs": [],
      "name": "totalSupply",
      "outputs": [
        {
          "name": "",
          "type": "uint256"
        }
      ],
      "payable": false,
      "stateMutability": "view",
      "type": "function"
    },
    {
      "constant": false,
      "inputs": [
        {
          "name": "_from",
          "type": "address"
        },
        {
          "name": "_to",
          "type": "address"
        },
        {
          "name": "_tokenId",
          "type": "uint256"
        }
      ],
      "name": "transferFrom",
      "outputs": [],
      "payable": false,
      "stateMutability": "nonpayable",
      "type": "function"
    },
    {
      "constant": false,
      "inputs": [
        {
          "name": "addrs",
          "type": "address[]"
        }
      ],
      "name": "removeAddressesFromWhitelist",
      "outputs": [
        {
          "name": "success",
          "type": "bool"
        }
      ],
      "payable": false,
      "stateMutability": "nonpayable",
      "type": "function"
    },
    {
      "constant": false,
      "inputs": [
        {
          "name": "addr",
          "type": "address"
        }
      ],
      "name": "removeAddressFromWhitelist",
      "outputs": [
        {
          "name": "success",
          "type": "bool"
        }
      ],
      "payable": false,
      "stateMutability": "nonpayable",
      "type": "function"
    },
    {
      "constant": true,
      "inputs": [
        {
          "name": "_owner",
          "type": "address"
        },
        {
          "name": "_index",
          "type": "uint256"
        }
      ],
      "name": "tokenOfOwnerByIndex",
      "outputs": [
        {
          "name": "",
          "type": "uint256"
        }
      ],
      "payable": false,
      "stateMutability": "view",
      "type": "function"
    },
    {
      "constant": false,
      "inputs": [
        {
          "name": "_from",
          "type": "address"
        },
        {
          "name": "_to",
          "type": "address"
        },
        {
          "name": "_tokenId",
          "type": "uint256"
        }
      ],
      "name": "safeTransferFrom",
      "outputs": [],
      "payable": false,
      "stateMutability": "nonpayable",
      "type": "function"
    },
    {
      "constant": true,
      "inputs": [
        {
          "name": "_tokenId",
          "type": "uint256"
        }
      ],
      "name": "exists",
      "outputs": [
        {
          "name": "",
          "type": "bool"
        }
      ],
      "payable": false,
      "stateMutability": "view",
      "type": "function"
    },
    {
      "constant": true,
      "inputs": [
        {
          "name": "_index",
          "type": "uint256"
        }
      ],
      "name": "tokenByIndex",
      "outputs": [
        {
          "name": "",
          "type": "uint256"
        }
      ],
      "payable": false,
      "stateMutability": "view",
      "type": "function"
    },
    {
      "constant": true,
      "inputs": [],
      "name": "totalContributionsInWei",
      "outputs": [
        {
          "name": "",
          "type": "uint256"
        }
      ],
      "payable": false,
      "stateMutability": "view",
      "type": "function"
    },
    {
      "constant": true,
      "inputs": [],
      "name": "InterfaceSignature_ERC721Optional",
      "outputs": [
        {
          "name": "",
          "type": "bytes4"
        }
      ],
      "payable": false,
      "stateMutability": "view",
      "type": "function"
    },
    {
      "constant": true,
      "inputs": [
        {
          "name": "_tokenId",
          "type": "uint256"
        }
      ],
      "name": "ownerOf",
      "outputs": [
        {
          "name": "",
          "type": "address"
        }
      ],
      "payable": false,
      "stateMutability": "view",
      "type": "function"
    },
    {
      "constant": true,
      "inputs": [
        {
          "name": "_owner",
          "type": "address"
        }
      ],
      "name": "balanceOf",
      "outputs": [
        {
          "name": "",
          "type": "uint256"
        }
      ],
      "payable": false,
      "stateMutability": "view",
      "type": "function"
    },
    {
      "constant": false,
      "inputs": [
        {
          "name": "addr",
          "type": "address"
        }
      ],
      "name": "addAddressToWhitelist",
      "outputs": [
        {
          "name": "success",
          "type": "bool"
        }
      ],
      "payable": false,
      "stateMutability": "nonpayable",
      "type": "function"
    },
    {
      "constant": true,
      "inputs": [],
      "name": "owner",
      "outputs": [
        {
          "name": "",
          "type": "address"
        }
      ],
      "payable": false,
      "stateMutability": "view",
      "type": "function"
    },
    {
      "constant": true,
      "inputs": [],
      "name": "symbol",
      "outputs": [
        {
          "name": "",
          "type": "string"
        }
      ],
      "payable": false,
      "stateMutability": "view",
      "type": "function"
    },
    {
      "constant": true,
      "inputs": [
        {
          "name": "",
          "type": "address"
        }
      ],
      "name": "whitelist",
      "outputs": [
        {
          "name": "",
          "type": "bool"
        }
      ],
      "payable": false,
      "stateMutability": "view",
      "type": "function"
    },
    {
      "constant": false,
      "inputs": [
        {
          "name": "_to",
          "type": "address"
        },
        {
          "name": "_approved",
          "type": "bool"
        }
      ],
      "name": "setApprovalForAll",
      "outputs": [],
      "payable": false,
      "stateMutability": "nonpayable",
      "type": "function"
    },
    {
      "constant": true,
      "inputs": [],
      "name": "pricePerBlock",
      "outputs": [
        {
          "name": "",
          "type": "uint256"
        }
      ],
      "payable": false,
      "stateMutability": "view",
      "type": "function"
    },
    {
      "constant": false,
      "inputs": [
        {
          "name": "_from",
          "type": "address"
        },
        {
          "name": "_to",
          "type": "address"
        },
        {
          "name": "_tokenId",
          "type": "uint256"
        },
        {
          "name": "_data",
          "type": "bytes"
        }
      ],
      "name": "safeTransferFrom",
      "outputs": [],
      "payable": false,
      "stateMutability": "nonpayable",
      "type": "function"
    },
    {
      "constant": true,
      "inputs": [],
      "name": "maxBlockPurchaseInOneGo",
      "outputs": [
        {
          "name": "",
          "type": "uint256"
        }
      ],
      "payable": false,
      "stateMutability": "view",
      "type": "function"
    },
    {
      "constant": true,
      "inputs": [],
      "name": "donationPercentage",
      "outputs": [
        {
          "name": "",
          "type": "uint8"
        }
      ],
      "payable": false,
      "stateMutability": "view",
      "type": "function"
    },
    {
      "constant": false,
      "inputs": [
        {
          "name": "addrs",
          "type": "address[]"
        }
      ],
      "name": "addAddressesToWhitelist",
      "outputs": [
        {
          "name": "success",
          "type": "bool"
        }
      ],
      "payable": false,
      "stateMutability": "nonpayable",
      "type": "function"
    },
    {
      "constant": true,
      "inputs": [
        {
          "name": "_owner",
          "type": "address"
        },
        {
          "name": "_operator",
          "type": "address"
        }
      ],
      "name": "isApprovedForAll",
      "outputs": [
        {
          "name": "",
          "type": "bool"
        }
      ],
      "payable": false,
      "stateMutability": "view",
      "type": "function"
    },
    {
      "constant": false,
      "inputs": [
        {
          "name": "newOwner",
          "type": "address"
        }
      ],
      "name": "transferOwnership",
      "outputs": [],
      "payable": false,
      "stateMutability": "nonpayable",
      "type": "function"
    },
    {
      "inputs": [],
      "payable": false,
      "stateMutability": "nonpayable",
      "type": "constructor"
    },
    {
      "payable": true,
      "stateMutability": "payable",
      "type": "fallback"
    },
    {
      "anonymous": false,
      "inputs": [
        {
          "indexed": true,
          "name": "_owner",
          "type": "address"
        },
        {
          "indexed": true,
          "name": "_tokenId",
          "type": "uint256"
        },
        {
          "indexed": false,
          "name": "_blockhash",
          "type": "bytes32"
        },
        {
          "indexed": false,
          "name": "_nickname",
          "type": "string"
        }
      ],
      "name": "MintDART",
      "type": "event"
    },
    {
      "anonymous": false,
      "inputs": [
        {
          "indexed": false,
          "name": "addr",
          "type": "address"
        }
      ],
      "name": "WhitelistedAddressAdded",
      "type": "event"
    },
    {
      "anonymous": false,
      "inputs": [
        {
          "indexed": false,
          "name": "addr",
          "type": "address"
        }
      ],
      "name": "WhitelistedAddressRemoved",
      "type": "event"
    },
    {
      "anonymous": false,
      "inputs": [
        {
          "indexed": true,
          "name": "previousOwner",
          "type": "address"
        },
        {
          "indexed": true,
          "name": "newOwner",
          "type": "address"
        }
      ],
      "name": "OwnershipTransferred",
      "type": "event"
    },
    {
      "anonymous": false,
      "inputs": [
        {
          "indexed": true,
          "name": "_from",
          "type": "address"
        },
        {
          "indexed": true,
          "name": "_to",
          "type": "address"
        },
        {
          "indexed": false,
          "name": "_tokenId",
          "type": "uint256"
        }
      ],
      "name": "Transfer",
      "type": "event"
    },
    {
      "anonymous": false,
      "inputs": [
        {
          "indexed": true,
          "name": "_owner",
          "type": "address"
        },
        {
          "indexed": true,
          "name": "_approved",
          "type": "address"
        },
        {
          "indexed": false,
          "name": "_tokenId",
          "type": "uint256"
        }
      ],
      "name": "Approval",
      "type": "event"
    },
    {
      "anonymous": false,
      "inputs": [
        {
          "indexed": true,
          "name": "_owner",
          "type": "address"
        },
        {
          "indexed": true,
          "name": "_operator",
          "type": "address"
        },
        {
          "indexed": false,
          "name": "_approved",
          "type": "bool"
        }
      ],
      "name": "ApprovalForAll",
      "type": "event"
    },
    {
      "constant": true,
      "inputs": [
        {
          "name": "_interfaceID",
          "type": "bytes4"
        }
      ],
      "name": "supportsInterface",
      "outputs": [
        {
          "name": "",
          "type": "bool"
        }
      ],
      "payable": false,
      "stateMutability": "pure",
      "type": "function"
    },
    {
      "constant": false,
      "inputs": [
        {
          "name": "_tokenId",
          "type": "uint256"
        }
      ],
      "name": "fundDart",
      "outputs": [],
      "payable": true,
      "stateMutability": "payable",
      "type": "function"
    },
    {
      "constant": false,
      "inputs": [
        {
          "name": "_blockhash",
          "type": "bytes32"
        },
        {
          "name": "_tokenId",
          "type": "uint256"
        },
        {
          "name": "_nickname",
          "type": "string"
        }
      ],
      "name": "mint",
      "outputs": [],
      "payable": false,
      "stateMutability": "nonpayable",
      "type": "function"
    },
    {
      "constant": true,
      "inputs": [],
      "name": "getNextBlockToFund",
      "outputs": [
        {
          "name": "_nextFundedBlock",
          "type": "uint256"
        }
      ],
      "payable": false,
      "stateMutability": "view",
      "type": "function"
    },
    {
      "constant": false,
      "inputs": [
        {
          "name": "_tokenId",
          "type": "uint256"
        }
      ],
      "name": "burn",
      "outputs": [],
      "payable": false,
      "stateMutability": "nonpayable",
      "type": "function"
    },
    {
      "constant": false,
      "inputs": [
        {
          "name": "_tokenId",
          "type": "uint256"
        },
        {
          "name": "_uri",
          "type": "string"
        }
      ],
      "name": "setTokenURI",
      "outputs": [],
      "payable": false,
      "stateMutability": "nonpayable",
      "type": "function"
    },
    {
      "constant": true,
      "inputs": [
        {
          "name": "_owner",
          "type": "address"
        }
      ],
      "name": "tokensOf",
      "outputs": [
        {
          "name": "_tokenIds",
          "type": "uint256[]"
        }
      ],
      "payable": false,
      "stateMutability": "view",
      "type": "function"
    },
    {
      "constant": true,
      "inputs": [
        {
          "name": "_tokenId",
          "type": "uint256"
        }
      ],
      "name": "nicknameOf",
      "outputs": [
        {
          "name": "_nickname",
          "type": "string"
        }
      ],
      "payable": false,
      "stateMutability": "view",
      "type": "function"
    },
    {
      "constant": true,
      "inputs": [
        {
          "name": "_tokenId",
          "type": "uint256"
        }
      ],
      "name": "blockhashOf",
      "outputs": [
        {
          "name": "hash",
          "type": "bytes32"
        }
      ],
      "payable": false,
      "stateMutability": "view",
      "type": "function"
    },
    {
      "constant": true,
      "inputs": [
        {
          "name": "_tokenId",
          "type": "uint256"
        }
      ],
      "name": "tokenURI",
      "outputs": [
        {
          "name": "",
          "type": "string"
        }
      ],
      "payable": false,
      "stateMutability": "view",
      "type": "function"
    },
    {
      "constant": false,
      "inputs": [
        {
          "name": "_newBaseURI",
          "type": "string"
        }
      ],
      "name": "setTokenBaseURI",
      "outputs": [],
      "payable": false,
      "stateMutability": "nonpayable",
      "type": "function"
    },
    {
      "constant": true,
      "inputs": [
        {
          "name": "_tokenId",
          "type": "uint256"
        }
      ],
      "name": "tokenHash",
      "outputs": [
        {
          "name": "",
          "type": "bytes32"
        }
      ],
      "payable": false,
      "stateMutability": "view",
      "type": "function"
    },
    {
      "constant": true,
      "inputs": [],
      "name": "nextHash",
      "outputs": [
        {
          "name": "_tokenHash",
          "type": "bytes32"
        }
      ],
      "payable": false,
      "stateMutability": "view",
      "type": "function"
    },
    {
      "constant": true,
      "inputs": [],
      "name": "blockNumber",
      "outputs": [
        {
          "name": "_blockNumber",
          "type": "uint256"
        }
      ],
      "payable": false,
      "stateMutability": "view",
      "type": "function"
    }
  ],
  "bytecode": "0x606060405260408051908101604052601c81527f68747470733a2f2f697066732e696e667572612e696f2f697066732f000000006020820152600d9080516200004d9291602001906200025e565b50662386f26fc10000600f556010805460ff19166001179055600a601155600060155534156200007c57600080fd5b604080519081016040908152600b82527f4469676974616c204172740000000000000000000000000000000000000000006020830152805190810160405260048082527f44415254000000000000000000000000000000000000000000000000000000006020830152828051620000f89291602001906200025e565b5060058180516200010e9291602001906200025e565b5050600b8054600160a060020a03191633600160a060020a03811691909117909155436015556200014e9150640100000000620001b18102620011421704565b506200017c73f43ae50c468c3d3fa0c3dc3454e797317ef5307864010000000062001142620001b182021704565b50620001aa73e1023c112a39c58238929153f25364c11a33b72964010000000062001142620001b182021704565b5062000303565b600b5460009033600160a060020a03908116911614620001d057600080fd5b600160a060020a0382166000908152600c602052604090205460ff1615156200025957600160a060020a0382166000908152600c602052604090819020805460ff191660011790557fd1bba68c128cc3f427e5831b3c6f99f480b6efa6b9e80c757768f6124158cc3f90839051600160a060020a03909116815260200160405180910390a15060015b919050565b828054600181600116156101000203166002900490600052602060002090601f016020900481019282601f10620002a157805160ff1916838001178555620002d1565b82800160010185558215620002d1579182015b82811115620002d1578251825591602001919060010190620002b4565b50620002df929150620002e3565b5090565b6200030091905b80821115620002df5760008155600101620002ea565b90565b61236680620003136000396000f3006060604052600436106101f85763ffffffff7c010000000000000000000000000000000000000000000000000000000060003504166301ffc9a781146101fd57806306fdde031461023157806307518c8e146102bb578063081812fc146102e3578063095ea7b314610315578063162094c41461033957806318160ddd1461035b57806323b872dd1461036e57806324953eaa14610396578063286dd3f5146103e55780632f745c591461040457806342842e0e1461042657806342966c681461044e5780634f558e79146104645780634f6ccce71461047a57806354f50f1b1461049057806357e871e7146104a65780635a3f2672146104b95780635a7cb31b1461052b578063624de3d91461053e5780636352211e1461056e5780636ed2e7781461058457806370a082311461058f578063727f0067146105ae5780637b9417c8146105c15780638da5cb5b146105e05780638ef79e91146105f357806395d89b41146106115780639b19251a146106245780639fb6c79614610643578063a22cb46514610669578063a38643971461068d578063aa324905146106a3578063ab792cdb146106b6578063b88d4fde146106c9578063bb8270fa14610735578063c16cc81014610748578063c87b56dd14610771578063e2ec6ec314610787578063e985e9c5146107d6578063f2fde38b146107fb575b600080fd5b341561020857600080fd5b61021d600160e060020a03196004351661081a565b604051901515815260200160405180910390f35b341561023c57600080fd5b610244610921565b60405160208082528190810183818151815260200191508051906020019080838360005b83811015610280578082015183820152602001610268565b50505050905090810190601f1680156102ad5780820380516001836020036101000a031916815260200191505b509250505060405180910390f35b34156102c657600080fd5b6102d16004356109ca565b60405190815260200160405180910390f35b34156102ee57600080fd5b6102f96004356109dc565b604051600160a060020a03909116815260200160405180910390f35b341561032057600080fd5b610337600160a060020a03600435166024356109f7565b005b341561034457600080fd5b610337600480359060248035908101910135610af3565b341561036657600080fd5b6102d1610b67565b341561037957600080fd5b610337600160a060020a0360043581169060243516604435610b6d565b34156103a157600080fd5b61021d6004602481358181019083013580602081810201604051908101604052809392919081815260200183836020028082843750949650610c1895505050505050565b34156103f057600080fd5b61021d600160a060020a0360043516610c7b565b341561040f57600080fd5b6102d1600160a060020a0360043516602435610d21565b341561043157600080fd5b610337600160a060020a0360043581169060243516604435610d6f565b341561045957600080fd5b610337600435610da5565b341561046f57600080fd5b61021d600435610e21565b341561048557600080fd5b6102d1600435610e3e565b341561049b57600080fd5b610244600435610e74565b34156104b157600080fd5b6102d1610f2f565b34156104c457600080fd5b6104d8600160a060020a0360043516610f33565b60405160208082528190810183818151815260200191508051906020019060200280838360005b838110156105175780820151838201526020016104ff565b505050509050019250505060405180910390f35b341561053657600080fd5b6102d1610fb5565b341561054957600080fd5b610551610fbb565b604051600160e060020a0319909116815260200160405180910390f35b341561057957600080fd5b6102f9600435610fdf565b610337600435611009565b341561059a57600080fd5b6102d1600160a060020a03600435166110c5565b34156105b957600080fd5b6102d16110f8565b34156105cc57600080fd5b61021d600160a060020a0360043516611142565b34156105eb57600080fd5b6102f96111ec565b34156105fe57600080fd5b61033760048035602481019101356111fb565b341561061c57600080fd5b61024461122e565b341561062f57600080fd5b61021d600160a060020a03600435166112a1565b341561064e57600080fd5b610337600480359060248035916044359182019101356112b6565b341561067457600080fd5b610337600160a060020a036004351660243515156113f4565b341561069857600080fd5b6102d1600435611485565b34156106ae57600080fd5b6102d16114ae565b34156106c157600080fd5b6102d16114cb565b34156106d457600080fd5b610337600160a060020a036004803582169160248035909116916044359160849060643590810190830135806020601f820181900481020160405190810160405281815292919060208401838380828437509496506114d195505050505050565b341561074057600080fd5b6102d1611510565b341561075357600080fd5b61075b611516565b60405160ff909116815260200160405180910390f35b341561077c57600080fd5b61024460043561151f565b341561079257600080fd5b61021d600460248135818101908301358060208181020160405190810160405280939291908181526020018383602002808284375094965061167695505050505050565b34156107e157600080fd5b61021d600160a060020a03600435811690602435166116d3565b341561080657600080fd5b610337600160a060020a0360043516611701565b6000600160e060020a031982167f01ffc9a700000000000000000000000000000000000000000000000000000000148061087d5750600160e060020a031982167f80ac58cd00000000000000000000000000000000000000000000000000000000145b806108b15750600160e060020a031982167fb0aa718700000000000000000000000000000000000000000000000000000000145b806108e55750600160e060020a031982167f780e9d6300000000000000000000000000000000000000000000000000000000145b806109195750600160e060020a031982167f5b5e139f00000000000000000000000000000000000000000000000000000000145b90505b919050565b6109296121b7565b60048054600181600116156101000203166002900480601f0160208091040260200160405190810160405280929190818152602001828054600181600116156101000203166002900480156109bf5780601f10610994576101008083540402835291602001916109bf565b820191906000526020600020905b8154815290600101906020018083116109a257829003601f168201915b505050505090505b90565b60009081526012602052604090205490565b600090815260016020526040902054600160a060020a031690565b6000610a0282610fdf565b9050600160a060020a038381169082161415610a1d57600080fd5b80600160a060020a031633600160a060020a03161480610a425750610a4281336116d3565b1515610a4d57600080fd5b6000610a58836109dc565b600160a060020a0316141580610a765750600160a060020a03831615155b15610aee5760008281526001602052604090819020805473ffffffffffffffffffffffffffffffffffffffff1916600160a060020a0386811691821790925591908316907f8c5be1e5ebec7d5bd14f71427d1e84f3dd0314c0f7b2291e5b200ac8c7c3b9259085905190815260200160405180910390a35b505050565b600160a060020a0333166000908152600c602052604090205460ff161515610b1a57600080fd5b610b2383610e21565b1515610b2e57600080fd5b610aee8383838080601f01602080910402602001604051908101604052818152929190602084018383808284375061179c945050505050565b60085490565b80610b7833826117cf565b1515610b8357600080fd5b600160a060020a0384161515610b9857600080fd5b600160a060020a0383161515610bad57600080fd5b610bb7848361182e565b610bc184836118dd565b610bcb8383611a0b565b82600160a060020a031684600160a060020a03167fddf252ad1be2c89b69c2b068fc378daa952ba7f163c4a11628f55a4df523b3ef8460405190815260200160405180910390a350505050565b600b54600090819033600160a060020a03908116911614610c3857600080fd5b5060005b8251811015610c7557610c63838281518110610c5457fe5b90602001906020020151610c7b565b15610c6d57600191505b600101610c3c565b50919050565b600b5460009033600160a060020a03908116911614610c9957600080fd5b600160a060020a0382166000908152600c602052604090205460ff161561091c57600160a060020a0382166000908152600c602052604090819020805460ff191690557ff1abf01a1043b7c244d128e8595cf0c1d10743b022b03a02dffd8ca3bf729f5a90839051600160a060020a03909116815260200160405180910390a1506001919050565b6000610d2c836110c5565b8210610d3757600080fd5b600160a060020a0383166000908152600660205260409020805483908110610d5b57fe5b906000526020600020900154905092915050565b80610d7a33826117cf565b1515610d8557600080fd5b610d9f8484846020604051908101604052600081526114d1565b50505050565b600160a060020a0333166000908152600c602052604090205460ff161515610dcc57600080fd5b600b546000828152602081905260409020548291600160a060020a03918216911614610df757600080fd5b610e0082610e21565b1515610e0b57600080fd5b610e1d610e1783610fdf565b83611a65565b5050565b600090815260208190526040902054600160a060020a0316151590565b6000610e48610b67565b8210610e5357600080fd5b6008805483908110610e6157fe5b9060005260206000209001549050919050565b610e7c6121b7565b601460008381526020019081526020016000208054600181600116156101000203166002900480601f016020809104026020016040519081016040528092919081815260200182805460018160011615610100020316600290048015610f235780601f10610ef857610100808354040283529160200191610f23565b820191906000526020600020905b815481529060010190602001808311610f0657829003601f168201915b50505050509050919050565b4390565b610f3b6121b7565b6006600083600160a060020a0316600160a060020a03168152602001908152602001600020805480602002602001604051908101604052809291908181526020018280548015610f2357602002820191906000526020600020905b815481526020019060010190808311610f965750505050509050919050565b600e5481565b7fb0aa71870000000000000000000000000000000000000000000000000000000081565b600081815260208190526040812054600160a060020a031680151561100357600080fd5b92915050565b6000808080348190101561101c57600080fd5b600f5434101561102b57600080fd5b601154600f540234111561103e57600080fd5b61104785610e21565b151561105257600080fd5b600f543481151561105f57fe5b0493504392506015544311156110755760155492505b5081905060005b838160ff1610156110bc5760008281526016602052604090205415156110b15760008281526016602052604090208590556001015b60019091019061107c565b50601555505050565b6000600160a060020a03821615156110dc57600080fd5b50600160a060020a031660009081526002602052604090205490565b60001943016000908152601660205260408120541561113857506000194301600090815260166020908152604080832054835260129091529020546109c7565b5060001943014090565b600b5460009033600160a060020a0390811691161461116057600080fd5b600160a060020a0382166000908152600c602052604090205460ff16151561091c57600160a060020a0382166000908152600c602052604090819020805460ff191660011790557fd1bba68c128cc3f427e5831b3c6f99f480b6efa6b9e80c757768f6124158cc3f90839051600160a060020a03909116815260200160405180910390a1506001919050565b600b54600160a060020a031681565b600160a060020a0333166000908152600c602052604090205460ff16151561122257600080fd5b610aee600d83836121c9565b6112366121b7565b60058054600181600116156101000203166002900480601f0160208091040260200160405190810160405280929190818152602001828054600181600116156101000203166002900480156109bf5780601f10610994576101008083540402835291602001916109bf565b600c6020526000908152604090205460ff1681565b600160a060020a0333166000908152600c602052604090205460ff1615156112dd57600080fd5b600084815260136020526040902054156112f657600080fd5b6000838152601260205260409020541561130f57600080fd5b6113193384611b60565b6113568360408051908101604052600381527f5749500000000000000000000000000000000000000000000000000000000000602082015261179c565b6000838152601260209081526040808320879055868352601382528083208690558583526014909152902061138c9083836121c9565b508233600160a060020a03167f4453ce3000f70afbe0bcadf15f2ba7165d528adb6dffa06dd8aa0b89c6516e1886858560405183815260406020820181815290820183905260608201848480828437820191505094505050505060405180910390a350505050565b33600160a060020a031682600160a060020a03161415151561141557600080fd5b33600160a060020a0390811660008181526003602090815260408083209487168084529490915290819020805460ff19168515151790557f17307eab39ab6107e8899845ad3d59bd9653f200f220920489ca2b5937696c3190849051901515815260200160405180910390a35050565b600061149082610e21565b151561149b57600080fd5b5060009081526012602052604090205490565b60006015544310156114c357506015546109c7565b506001430190565b600f5481565b816114dc33826117cf565b15156114e757600080fd5b6114f2858585610b6d565b6114fe85858585611b9d565b151561150957600080fd5b5050505050565b60115481565b60105460ff1681565b6115276121b7565b610919600d8054600181600116156101000203166002900480601f0160208091040260200160405190810160405280929190818152602001828054600181600116156101000203166002900480156115c05780601f10611595576101008083540402835291602001916115c0565b820191906000526020600020905b8154815290600101906020018083116115a357829003601f168201915b5050505050600a60008581526020019081526020016000208054600181600116156101000203166002900480601f01602080910402602001604051908101604052809291908181526020018280546001816001161561010002031660029004801561166c5780601f106116415761010080835404028352916020019161166c565b820191906000526020600020905b81548152906001019060200180831161164f57829003601f168201915b5050505050611cf7565b600b54600090819033600160a060020a0390811691161461169657600080fd5b5060005b8251811015610c75576116c18382815181106116b257fe5b90602001906020020151611142565b156116cb57600191505b60010161169a565b600160a060020a03918216600090815260036020908152604080832093909416825291909152205460ff1690565b600b5433600160a060020a0390811691161461171c57600080fd5b600160a060020a038116151561173157600080fd5b600b54600160a060020a0380831691167f8be0079c531659141344cd1fd0a4f28419497f9722a3daafe3b4186f6b6457e060405160405180910390a3600b805473ffffffffffffffffffffffffffffffffffffffff1916600160a060020a0392909216919091179055565b6117a582610e21565b15156117b057600080fd5b6000828152600a60205260409020818051610aee929160200190612247565b6000806117db83610fdf565b905080600160a060020a031684600160a060020a03161480611816575083600160a060020a031661180b846109dc565b600160a060020a0316145b80611826575061182681856116d3565b949350505050565b81600160a060020a031661184182610fdf565b600160a060020a03161461185457600080fd5b600081815260016020526040902054600160a060020a031615610e1d57600081815260016020526040808220805473ffffffffffffffffffffffffffffffffffffffff19169055600160a060020a038416907f8c5be1e5ebec7d5bd14f71427d1e84f3dd0314c0f7b2291e5b200ac8c7c3b9259084905190815260200160405180910390a35050565b60008060006118ec8585611d41565b600084815260076020908152604080832054600160a060020a038916845260069092529091205490935061192790600163ffffffff611dd616565b600160a060020a03861660009081526006602052604090208054919350908390811061194f57fe5b6000918252602080832090910154600160a060020a038816835260069091526040909120805491925082918590811061198457fe5b6000918252602080832090910192909255600160a060020a03871681526006909152604081208054849081106119b657fe5b6000918252602080832090910192909255600160a060020a03871681526006909152604090208054906119ed9060001983016122b5565b50600093845260076020526040808520859055908452909220555050565b6000611a178383611de8565b50600160a060020a03821660009081526006602052604090208054908160018101611a4283826122b5565b506000918252602080832091909101849055928152600790925260409091205550565b6000806000611a748585611e77565b6000848152600a60205260409020546002600019610100600184161502019091160415611ab2576000848152600a60205260408120611ab2916122d9565b600084815260096020526040902054600854909350611ad890600163ffffffff611dd616565b9150600882815481101515611ae957fe5b906000526020600020900154905080600884815481101515611b0757fe5b60009182526020822001919091556008805484908110611b2357fe5b6000918252602090912001556008805490611b429060001983016122b5565b50600093845260096020526040808520859055908452909220555050565b611b6a8282611ece565b60088054600083815260096020526040902081905560018101611b8d83826122b5565b5060009182526020909120015550565b600080611bb285600160a060020a0316611f30565b1515611bc15760019150611cee565b84600160a060020a031663f0b9e5ba8786866040518463ffffffff167c01000000000000000000000000000000000000000000000000000000000281526004018084600160a060020a0316600160a060020a0316815260200183815260200180602001828103825283818151815260200191508051906020019080838360005b83811015611c59578082015183820152602001611c41565b50505050905090810190601f168015611c865780820380516001836020036101000a031916815260200191505b50945050505050602060405180830381600087803b1515611ca657600080fd5b5af11515611cb357600080fd5b5050506040518051600160e060020a031981167ff0b9e5ba000000000000000000000000000000000000000000000000000000001493509150505b50949350505050565b611cff6121b7565b611d3a838360206040519081016040528060008152506020604051908101604052806000815250602060405190810160405260008152611f38565b9392505050565b81600160a060020a0316611d5482610fdf565b600160a060020a031614611d6757600080fd5b600160a060020a038216600090815260026020526040902054611d9190600163ffffffff611dd616565b600160a060020a039092166000908152600260209081526040808320949094559181529081905220805473ffffffffffffffffffffffffffffffffffffffff19169055565b600082821115611de257fe5b50900390565b600081815260208190526040902054600160a060020a031615611e0a57600080fd5b600081815260208181526040808320805473ffffffffffffffffffffffffffffffffffffffff1916600160a060020a03871690811790915583526002909152902054611e579060016121a8565b600160a060020a0390921660009081526002602052604090209190915550565b611e81828261182e565b611e8b82826118dd565b6000600160a060020a0383167fddf252ad1be2c89b69c2b068fc378daa952ba7f163c4a11628f55a4df523b3ef8360405190815260200160405180910390a35050565b600160a060020a0382161515611ee357600080fd5b611eed8282611a0b565b600160a060020a03821660007fddf252ad1be2c89b69c2b068fc378daa952ba7f163c4a11628f55a4df523b3ef8360405190815260200160405180910390a35050565b6000903b1190565b611f406121b7565b611f486121b7565b611f506121b7565b611f586121b7565b611f606121b7565b611f686121b7565b611f706121b7565b611f786121b7565b6000808e98508d97508c96508b95508a94508451865188518a518c5101010101604051805910611fa55750595b818152601f19601f83011681016020016040529050935083925060009150600090505b885181101561202157888181518110611fdd57fe5b016020015160f860020a900460f860020a0283838060010194508151811061200157fe5b906020010190600160f860020a031916908160001a905350600101611fc8565b5060005b875181101561207e5787818151811061203a57fe5b016020015160f860020a900460f860020a0283838060010194508151811061205e57fe5b906020010190600160f860020a031916908160001a905350600101612025565b5060005b86518110156120db5786818151811061209757fe5b016020015160f860020a900460f860020a028383806001019450815181106120bb57fe5b906020010190600160f860020a031916908160001a905350600101612082565b5060005b8551811015612138578581815181106120f457fe5b016020015160f860020a900460f860020a0283838060010194508151811061211857fe5b906020010190600160f860020a031916908160001a9053506001016120df565b5060005b84518110156121955784818151811061215157fe5b016020015160f860020a900460f860020a0283838060010194508151811061217557fe5b906020010190600160f860020a031916908160001a90535060010161213c565b50909d9c50505050505050505050505050565b600082820183811015611d3a57fe5b60206040519081016040526000815290565b828054600181600116156101000203166002900490600052602060002090601f016020900481019282601f1061220a5782800160ff19823516178555612237565b82800160010185558215612237579182015b8281111561223757823582559160200191906001019061221c565b50612243929150612320565b5090565b828054600181600116156101000203166002900490600052602060002090601f016020900481019282601f1061228857805160ff1916838001178555612237565b82800160010185558215612237579182015b8281111561223757825182559160200191906001019061229a565b815481835581811511610aee57600083815260209020610aee918101908301612320565b50805460018160011615610100020316600290046000825580601f106122ff575061231d565b601f01602090049060005260206000209081019061231d9190612320565b50565b6109c791905b8082111561224357600081556001016123265600a165627a7a72305820b805224b1e5dbf1ea0dde74c1acc0ddc9f52779187216bcb35a474227ac499120029",
  "source": "pragma solidity ^0.4.21;\n\n\nimport \"./ERC721Token.sol\";\n\nimport \"./Strings.sol\";\n\nimport \"./ERC165.sol\";\n\nimport \"./Whitelist.sol\";\n\n\n/**\n* @title DART\n*/\ncontract DART is ERC721Token, ERC165, Whitelist {\n  using SafeMath for uint256;\n\n  bytes4 constant InterfaceSignature_ERC165 = 0x01ffc9a7;\n  /*\n  bytes4(keccak256('supportsInterface(bytes4)'));\n  */\n\n  bytes4 constant InterfaceSignature_ERC721Enumerable = 0x780e9d63;\n  /*\n  bytes4(keccak256('totalSupply()')) ^\n  bytes4(keccak256('tokenOfOwnerByIndex(address,uint256)')) ^\n  bytes4(keccak256('tokenByIndex(uint256)'));\n  */\n\n  bytes4 constant InterfaceSignature_ERC721Metadata = 0x5b5e139f;\n  /*\n  bytes4(keccak256('name()')) ^\n  bytes4(keccak256('symbol()')) ^\n  bytes4(keccak256('tokenURI(uint256)'));\n  */\n\n  bytes4 constant InterfaceSignature_ERC721 = 0x80ac58cd;\n  /*\n  bytes4(keccak256('balanceOf(address)')) ^\n  bytes4(keccak256('ownerOf(uint256)')) ^\n  bytes4(keccak256('approve(address,uint256)')) ^\n  bytes4(keccak256('getApproved(uint256)')) ^\n  bytes4(keccak256('setApprovalForAll(address,bool)')) ^\n  bytes4(keccak256('isApprovedForAll(address,address)')) ^\n  bytes4(keccak256('transferFrom(address,address,uint256)')) ^\n  bytes4(keccak256('safeTransferFrom(address,address,uint256)')) ^\n  bytes4(keccak256('safeTransferFrom(address,address,uint256,bytes)'));\n  */\n\n  bytes4 public constant InterfaceSignature_ERC721Optional = - 0x4f558e79;\n  /*\n  bytes4(keccak256('exists(uint256)'));\n  */\n\n  /**\n   * @notice Introspection interface as per ERC-165 (https://github.com/ethereum/EIPs/issues/165).\n   * @dev Returns true for any standardized interfaces implemented by this contract.\n   * @param _interfaceID bytes4 the interface to check for\n   * @return true for any standardized interfaces implemented by this contract.\n   */\n  function supportsInterface(bytes4 _interfaceID) external pure returns (bool) {\n    return ((_interfaceID == InterfaceSignature_ERC165)\n    || (_interfaceID == InterfaceSignature_ERC721)\n    || (_interfaceID == InterfaceSignature_ERC721Optional)\n    || (_interfaceID == InterfaceSignature_ERC721Enumerable)\n    || (_interfaceID == InterfaceSignature_ERC721Metadata));\n  }\n\n  event MintDART(address indexed _owner, uint256 indexed _tokenId, bytes32 _blockhash, string _nickname);\n\n  string internal tokenBaseURI = \"https://ipfs.infura.io/ipfs/\";\n\n  // total wei sent to the  contract\n  uint256 public totalContributionsInWei;\n\n  // TODO handle setting these per contract/installation\n  // the price to display per block\n  uint256 public pricePerBlock = 0.01 ether;\n\n  // TODO handle setting these per contract/installation\n  // percentage of all funds received which is directed to a donation address\n  uint8 public donationPercentage = 1;\n\n  // TODO handle setting these per contract/installation\n  // max number of blocks allowed to purchased in one go (mainly for gas costs, this should be kept fairly low for now)\n  uint256 public maxBlockPurchaseInOneGo = 10;\n\n  mapping (uint256 => bytes32) internal tokenIdToBlockhash;\n\n  mapping (bytes32 => uint256) internal blockhashToTokenId;\n\n  mapping (uint256 => string) internal tokenIdToNickname;\n\n  uint256 workingBlockCounter = 0;\n\n  mapping (uint256 => uint256) internal blockToTokenIdToDisplay;\n\n  modifier onlyDARTOwnedToken(uint256 _tokenId) {\n    require(tokenOwner[_tokenId] == owner);\n    _;\n  }\n\n  modifier onlyValidAmounts() {\n    // Some value\n    require(msg.value >= 0);\n\n    // Min price\n    require(msg.value >= pricePerBlock);\n\n    // max price\n    require(msg.value <= (pricePerBlock * maxBlockPurchaseInOneGo));\n    _;\n  }\n\n  function DART() public ERC721Token(\"Digital Art\", \"DART\") {\n    // set to current block mined in\n    workingBlockCounter = block.number;\n\n    // TODO handle setting these/configuring\n    super.addAddressToWhitelist(msg.sender);\n    super.addAddressToWhitelist(0xf43aE50C468c3D3Fa0C3dC3454E797317EF53078);\n    super.addAddressToWhitelist(0xe1023C112A39c58238929153F25364c11A33B729);\n  }\n\n  // don't accept payment directly to contract\n  function() public payable {\n    // TODO handle payments, redirect to donations address?\n    revert();\n  }\n\n  /**\n   * @dev Funds your token to be displayed for a specific amount of time\n   * @param _tokenId the DART token ID\n   */\n  function fundDart(uint256 _tokenId) public payable onlyValidAmounts {\n    require(exists(_tokenId));\n\n    // determine how many blocks purchased\n    uint256 blocksPurchased = msg.value / pricePerBlock;\n\n    uint256 currentBlock = block.number;\n\n    // move current block on if already past last purchased block count, reduces while loop costs\n    if (block.number > workingBlockCounter) {\n      currentBlock = workingBlockCounter;\n    }\n\n    uint256 nextBlock = currentBlock;\n\n    uint8 i = 0;\n    while (i < blocksPurchased) {\n\n      // if no one has the next block, set next block to this token\n      if (blockToTokenIdToDisplay[nextBlock] == 0) {\n        blockToTokenIdToDisplay[nextBlock] = _tokenId;\n        i++;\n      }\n\n      // move next block on to find another free space\n      nextBlock++;\n    }\n\n    // update where the current work block is\n    workingBlockCounter = nextBlock;\n\n    // TODO splice monies to various parties\n  }\n\n  /**\n   * @dev Mint a new DART token\n   * @dev Reverts if not called by curator\n   * @param _blockhash an Ethereum block hash\n   * @param _tokenId unique token ID\n   * @param _nickname char stamp of token owner\n   */\n  function mint(bytes32 _blockhash, uint256 _tokenId, string _nickname) external onlyWhitelisted {\n    require(blockhashToTokenId[_blockhash] == 0);\n    require(tokenIdToBlockhash[_tokenId] == 0);\n\n    // actually mint the token\n    super._mint(msg.sender, _tokenId);\n\n    // FIXME - handle this\n    super._setTokenURI(_tokenId, \"WIP\");\n\n    // set data\n    tokenIdToBlockhash[_tokenId] = _blockhash;\n    blockhashToTokenId[_blockhash] = _tokenId;\n    tokenIdToNickname[_tokenId] = _nickname;\n\n    MintDART(msg.sender, _tokenId, _blockhash, _nickname);\n  }\n\n  /**\n   * @dev Attempts to work out the next block which will be funded\n   */\n  function getNextBlockToFund() public view returns (uint256 _nextFundedBlock) {\n    if (block.number < workingBlockCounter) {\n      return workingBlockCounter;\n    }\n    return block.number + 1;\n  }\n\n  /**\n   * @dev Burns a DART token\n   * @dev Reverts if token is not unsold or not owned by management\n   * @param _tokenId the DART token ID\n   */\n  function burn(uint256 _tokenId) external onlyWhitelisted onlyDARTOwnedToken(_tokenId) {\n    require(exists(_tokenId));\n    super._burn(ownerOf(_tokenId), _tokenId);\n  }\n\n  /**\n   * @dev Utility function for updating a DART assets token URI\n   * @dev Reverts if not called by management\n   * @param _tokenId the DART token ID\n   * @param _uri the token URI, will be concatenated with baseUri\n   */\n  function setTokenURI(uint256 _tokenId, string _uri) external onlyWhitelisted {\n    require(exists(_tokenId));\n    _setTokenURI(_tokenId, _uri);\n  }\n\n  /**\n   * @dev Return owned tokens\n   * @param _owner address to query\n   */\n  function tokensOf(address _owner) public view returns (uint256[] _tokenIds) {\n    return ownedTokens[_owner];\n  }\n\n  /**\n  * @dev Return handle of token\n  * @param _tokenId token ID for handle lookup\n  */\n  function nicknameOf(uint256 _tokenId) public view returns (string _nickname) {\n    return tokenIdToNickname[_tokenId];\n  }\n\n  /**\n  * @dev Return blockhash of the DART token\n   * @param _tokenId the DART token ID\n  */\n  function blockhashOf(uint256 _tokenId) public view returns (bytes32 hash) {\n    return tokenIdToBlockhash[_tokenId];\n  }\n\n  /**\n   * @dev Get token URI fro the given token, useful for testing purposes\n   * @param _tokenId the DART token ID\n   * @return the token ID or only the base URI if not found\n   */\n  function tokenURI(uint256 _tokenId) public view returns (string) {\n    return Strings.strConcat(tokenBaseURI, tokenURIs[_tokenId]);\n  }\n\n  /**\n   * @dev Allows management to update the base tokenURI path\n   * @dev Reverts if not called by management\n   * @param _newBaseURI the new base URI to set\n   */\n  function setTokenBaseURI(string _newBaseURI) external onlyWhitelisted {\n    tokenBaseURI = _newBaseURI;\n  }\n\n  /**\n   * @dev Generates a unique token hash for the token and handle\n   * @param _tokenId the DART token ID\n   */\n  function tokenHash(uint256 _tokenId) public view returns (bytes32) {\n    require(exists(_tokenId));\n    return tokenIdToBlockhash[_tokenId];\n  }\n\n  /**\n   * @dev Generates a unique token hash for the token and handle\n   */\n  function nextHash() public view returns (bytes32 _tokenHash) {\n\n    // if current block number has been allocated then use it\n    if (blockToTokenIdToDisplay[block.number - 1] != 0) {\n      return tokenIdToBlockhash[blockToTokenIdToDisplay[block.number - 1]];\n    }\n\n    // if no one own the current blockhash return current\n    return block.blockhash(block.number - 1);\n  }\n\n  /**\n   * @dev Returns blocknumber\n   */\n  function blockNumber() public view returns (uint256 _blockNumber) {\n    return block.number;\n  }\n}\n",
  "sourcePath": "/Users/jamesmorgan/Dropbox/workspace-blockrocket/art-blocks/contracts/DART.sol",
  "compiler": {
    "name": "solc",
    "version": "0.4.21+commit.dfe3193c.Emscripten.clang"
  },
  "schemaVersion": "2.0.0",
  "updatedAt": "2018-04-28T10:53:59.100Z"
}