{
  "contractName": "DART",
  "abi": [
    {
      "constant": true,
      "inputs": [],
      "name": "name",
      "outputs": [
        {
          "name": "",
          "type": "string"
        }
      ],
      "payable": false,
      "stateMutability": "view",
      "type": "function"
    },
    {
      "constant": true,
      "inputs": [
        {
          "name": "_tokenId",
          "type": "uint256"
        }
      ],
      "name": "getApproved",
      "outputs": [
        {
          "name": "",
          "type": "address"
        }
      ],
      "payable": false,
      "stateMutability": "view",
      "type": "function"
    },
    {
      "constant": false,
      "inputs": [
        {
          "name": "_to",
          "type": "address"
        },
        {
          "name": "_tokenId",
          "type": "uint256"
        }
      ],
      "name": "approve",
      "outputs": [],
      "payable": false,
      "stateMutability": "nonpayable",
      "type": "function"
    },
    {
      "constant": true,
      "inputs": [
        {
          "name": "addr",
          "type": "address"
        },
        {
          "name": "roleName",
          "type": "string"
        }
      ],
      "name": "checkRole",
      "outputs": [],
      "payable": false,
      "stateMutability": "view",
      "type": "function"
    },
    {
      "constant": true,
      "inputs": [],
      "name": "totalSupply",
      "outputs": [
        {
          "name": "",
          "type": "uint256"
        }
      ],
      "payable": false,
      "stateMutability": "view",
      "type": "function"
    },
    {
      "constant": true,
      "inputs": [],
      "name": "ROLE_WHITELISTED",
      "outputs": [
        {
          "name": "",
          "type": "string"
        }
      ],
      "payable": false,
      "stateMutability": "view",
      "type": "function"
    },
    {
      "constant": true,
      "inputs": [
        {
          "name": "addr",
          "type": "address"
        },
        {
          "name": "roleName",
          "type": "string"
        }
      ],
      "name": "hasRole",
      "outputs": [
        {
          "name": "",
          "type": "bool"
        }
      ],
      "payable": false,
      "stateMutability": "view",
      "type": "function"
    },
    {
      "constant": false,
      "inputs": [
        {
          "name": "_from",
          "type": "address"
        },
        {
          "name": "_to",
          "type": "address"
        },
        {
          "name": "_tokenId",
          "type": "uint256"
        }
      ],
      "name": "transferFrom",
      "outputs": [],
      "payable": false,
      "stateMutability": "nonpayable",
      "type": "function"
    },
    {
      "constant": false,
      "inputs": [
        {
          "name": "addrs",
          "type": "address[]"
        }
      ],
      "name": "removeAddressesFromWhitelist",
      "outputs": [],
      "payable": false,
      "stateMutability": "nonpayable",
      "type": "function"
    },
    {
      "constant": false,
      "inputs": [
        {
          "name": "addr",
          "type": "address"
        }
      ],
      "name": "removeAddressFromWhitelist",
      "outputs": [],
      "payable": false,
      "stateMutability": "nonpayable",
      "type": "function"
    },
    {
      "constant": true,
      "inputs": [
        {
          "name": "_owner",
          "type": "address"
        },
        {
          "name": "_index",
          "type": "uint256"
        }
      ],
      "name": "tokenOfOwnerByIndex",
      "outputs": [
        {
          "name": "",
          "type": "uint256"
        }
      ],
      "payable": false,
      "stateMutability": "view",
      "type": "function"
    },
    {
      "constant": false,
      "inputs": [
        {
          "name": "_from",
          "type": "address"
        },
        {
          "name": "_to",
          "type": "address"
        },
        {
          "name": "_tokenId",
          "type": "uint256"
        }
      ],
      "name": "safeTransferFrom",
      "outputs": [],
      "payable": false,
      "stateMutability": "nonpayable",
      "type": "function"
    },
    {
      "constant": true,
      "inputs": [
        {
          "name": "_tokenId",
          "type": "uint256"
        }
      ],
      "name": "exists",
      "outputs": [
        {
          "name": "",
          "type": "bool"
        }
      ],
      "payable": false,
      "stateMutability": "view",
      "type": "function"
    },
    {
      "constant": true,
      "inputs": [
        {
          "name": "_index",
          "type": "uint256"
        }
      ],
      "name": "tokenByIndex",
      "outputs": [
        {
          "name": "",
          "type": "uint256"
        }
      ],
      "payable": false,
      "stateMutability": "view",
      "type": "function"
    },
    {
      "constant": true,
      "inputs": [],
      "name": "InterfaceSignature_ERC721Optional",
      "outputs": [
        {
          "name": "",
          "type": "bytes4"
        }
      ],
      "payable": false,
      "stateMutability": "view",
      "type": "function"
    },
    {
      "constant": true,
      "inputs": [
        {
          "name": "_tokenId",
          "type": "uint256"
        }
      ],
      "name": "ownerOf",
      "outputs": [
        {
          "name": "",
          "type": "address"
        }
      ],
      "payable": false,
      "stateMutability": "view",
      "type": "function"
    },
    {
      "constant": true,
      "inputs": [
        {
          "name": "_owner",
          "type": "address"
        }
      ],
      "name": "balanceOf",
      "outputs": [
        {
          "name": "",
          "type": "uint256"
        }
      ],
      "payable": false,
      "stateMutability": "view",
      "type": "function"
    },
    {
      "constant": false,
      "inputs": [],
      "name": "renounceOwnership",
      "outputs": [],
      "payable": false,
      "stateMutability": "nonpayable",
      "type": "function"
    },
    {
      "constant": false,
      "inputs": [
        {
          "name": "addr",
          "type": "address"
        }
      ],
      "name": "addAddressToWhitelist",
      "outputs": [],
      "payable": false,
      "stateMutability": "nonpayable",
      "type": "function"
    },
    {
      "constant": true,
      "inputs": [],
      "name": "owner",
      "outputs": [
        {
          "name": "",
          "type": "address"
        }
      ],
      "payable": false,
      "stateMutability": "view",
      "type": "function"
    },
    {
      "constant": true,
      "inputs": [],
      "name": "symbol",
      "outputs": [
        {
          "name": "",
          "type": "string"
        }
      ],
      "payable": false,
      "stateMutability": "view",
      "type": "function"
    },
    {
      "constant": true,
      "inputs": [
        {
          "name": "addr",
          "type": "address"
        }
      ],
      "name": "whitelist",
      "outputs": [
        {
          "name": "",
          "type": "bool"
        }
      ],
      "payable": false,
      "stateMutability": "view",
      "type": "function"
    },
    {
      "constant": false,
      "inputs": [
        {
          "name": "_to",
          "type": "address"
        },
        {
          "name": "_approved",
          "type": "bool"
        }
      ],
      "name": "setApprovalForAll",
      "outputs": [],
      "payable": false,
      "stateMutability": "nonpayable",
      "type": "function"
    },
    {
      "constant": false,
      "inputs": [
        {
          "name": "_from",
          "type": "address"
        },
        {
          "name": "_to",
          "type": "address"
        },
        {
          "name": "_tokenId",
          "type": "uint256"
        },
        {
          "name": "_data",
          "type": "bytes"
        }
      ],
      "name": "safeTransferFrom",
      "outputs": [],
      "payable": false,
      "stateMutability": "nonpayable",
      "type": "function"
    },
    {
      "constant": false,
      "inputs": [
        {
          "name": "addrs",
          "type": "address[]"
        }
      ],
      "name": "addAddressesToWhitelist",
      "outputs": [],
      "payable": false,
      "stateMutability": "nonpayable",
      "type": "function"
    },
    {
      "constant": true,
      "inputs": [
        {
          "name": "_owner",
          "type": "address"
        },
        {
          "name": "_operator",
          "type": "address"
        }
      ],
      "name": "isApprovedForAll",
      "outputs": [
        {
          "name": "",
          "type": "bool"
        }
      ],
      "payable": false,
      "stateMutability": "view",
      "type": "function"
    },
    {
      "constant": false,
      "inputs": [
        {
          "name": "_newOwner",
          "type": "address"
        }
      ],
      "name": "transferOwnership",
      "outputs": [],
      "payable": false,
      "stateMutability": "nonpayable",
      "type": "function"
    },
    {
      "inputs": [],
      "payable": false,
      "stateMutability": "nonpayable",
      "type": "constructor"
    },
    {
      "payable": true,
      "stateMutability": "payable",
      "type": "fallback"
    },
    {
      "anonymous": false,
      "inputs": [
        {
          "indexed": true,
          "name": "_owner",
          "type": "address"
        },
        {
          "indexed": true,
          "name": "_tokenId",
          "type": "uint256"
        },
        {
          "indexed": false,
          "name": "_blockhash",
          "type": "bytes32"
        },
        {
          "indexed": false,
          "name": "_nickname",
          "type": "bytes32"
        }
      ],
      "name": "MintDART",
      "type": "event"
    },
    {
      "anonymous": false,
      "inputs": [
        {
          "indexed": false,
          "name": "addr",
          "type": "address"
        }
      ],
      "name": "WhitelistedAddressAdded",
      "type": "event"
    },
    {
      "anonymous": false,
      "inputs": [
        {
          "indexed": false,
          "name": "addr",
          "type": "address"
        }
      ],
      "name": "WhitelistedAddressRemoved",
      "type": "event"
    },
    {
      "anonymous": false,
      "inputs": [
        {
          "indexed": false,
          "name": "addr",
          "type": "address"
        },
        {
          "indexed": false,
          "name": "roleName",
          "type": "string"
        }
      ],
      "name": "RoleAdded",
      "type": "event"
    },
    {
      "anonymous": false,
      "inputs": [
        {
          "indexed": false,
          "name": "addr",
          "type": "address"
        },
        {
          "indexed": false,
          "name": "roleName",
          "type": "string"
        }
      ],
      "name": "RoleRemoved",
      "type": "event"
    },
    {
      "anonymous": false,
      "inputs": [
        {
          "indexed": true,
          "name": "previousOwner",
          "type": "address"
        }
      ],
      "name": "OwnershipRenounced",
      "type": "event"
    },
    {
      "anonymous": false,
      "inputs": [
        {
          "indexed": true,
          "name": "previousOwner",
          "type": "address"
        },
        {
          "indexed": true,
          "name": "newOwner",
          "type": "address"
        }
      ],
      "name": "OwnershipTransferred",
      "type": "event"
    },
    {
      "anonymous": false,
      "inputs": [
        {
          "indexed": true,
          "name": "_from",
          "type": "address"
        },
        {
          "indexed": true,
          "name": "_to",
          "type": "address"
        },
        {
          "indexed": false,
          "name": "_tokenId",
          "type": "uint256"
        }
      ],
      "name": "Transfer",
      "type": "event"
    },
    {
      "anonymous": false,
      "inputs": [
        {
          "indexed": true,
          "name": "_owner",
          "type": "address"
        },
        {
          "indexed": true,
          "name": "_approved",
          "type": "address"
        },
        {
          "indexed": false,
          "name": "_tokenId",
          "type": "uint256"
        }
      ],
      "name": "Approval",
      "type": "event"
    },
    {
      "anonymous": false,
      "inputs": [
        {
          "indexed": true,
          "name": "_owner",
          "type": "address"
        },
        {
          "indexed": true,
          "name": "_operator",
          "type": "address"
        },
        {
          "indexed": false,
          "name": "_approved",
          "type": "bool"
        }
      ],
      "name": "ApprovalForAll",
      "type": "event"
    },
    {
      "constant": true,
      "inputs": [
        {
          "name": "_interfaceID",
          "type": "bytes4"
        }
      ],
      "name": "supportsInterface",
      "outputs": [
        {
          "name": "",
          "type": "bool"
        }
      ],
      "payable": false,
      "stateMutability": "pure",
      "type": "function"
    },
    {
      "constant": false,
      "inputs": [
        {
          "name": "_blockhash",
          "type": "bytes32"
        },
        {
          "name": "_tokenId",
          "type": "uint256"
        },
        {
          "name": "_nickname",
          "type": "bytes32"
        }
      ],
      "name": "mint",
      "outputs": [],
      "payable": false,
      "stateMutability": "nonpayable",
      "type": "function"
    },
    {
      "constant": false,
      "inputs": [
        {
          "name": "_tokenId",
          "type": "uint256"
        },
        {
          "name": "_uri",
          "type": "string"
        }
      ],
      "name": "setTokenURI",
      "outputs": [],
      "payable": false,
      "stateMutability": "nonpayable",
      "type": "function"
    },
    {
      "constant": false,
      "inputs": [
        {
          "name": "_tokenId",
          "type": "uint256"
        },
        {
          "name": "_nickname",
          "type": "bytes32"
        }
      ],
      "name": "setNickname",
      "outputs": [],
      "payable": false,
      "stateMutability": "nonpayable",
      "type": "function"
    },
    {
      "constant": true,
      "inputs": [
        {
          "name": "_owner",
          "type": "address"
        }
      ],
      "name": "tokensOf",
      "outputs": [
        {
          "name": "_tokenIds",
          "type": "uint256[]"
        }
      ],
      "payable": false,
      "stateMutability": "view",
      "type": "function"
    },
    {
      "constant": true,
      "inputs": [
        {
          "name": "_owner",
          "type": "address"
        }
      ],
      "name": "hasTokens",
      "outputs": [
        {
          "name": "",
          "type": "bool"
        }
      ],
      "payable": false,
      "stateMutability": "view",
      "type": "function"
    },
    {
      "constant": true,
      "inputs": [
        {
          "name": "_owner",
          "type": "address"
        }
      ],
      "name": "firstToken",
      "outputs": [
        {
          "name": "_tokenId",
          "type": "uint256"
        }
      ],
      "payable": false,
      "stateMutability": "view",
      "type": "function"
    },
    {
      "constant": true,
      "inputs": [
        {
          "name": "_tokenId",
          "type": "uint256"
        }
      ],
      "name": "nicknameOf",
      "outputs": [
        {
          "name": "_nickname",
          "type": "bytes32"
        }
      ],
      "payable": false,
      "stateMutability": "view",
      "type": "function"
    },
    {
      "constant": true,
      "inputs": [
        {
          "name": "_tokenId",
          "type": "uint256"
        }
      ],
      "name": "tokenURI",
      "outputs": [
        {
          "name": "",
          "type": "string"
        }
      ],
      "payable": false,
      "stateMutability": "view",
      "type": "function"
    },
    {
      "constant": false,
      "inputs": [
        {
          "name": "_newBaseURI",
          "type": "string"
        }
      ],
      "name": "setTokenBaseURI",
      "outputs": [],
      "payable": false,
      "stateMutability": "nonpayable",
      "type": "function"
    },
    {
      "constant": true,
      "inputs": [
        {
          "name": "_tokenId",
          "type": "uint256"
        }
      ],
      "name": "blockhashOf",
      "outputs": [
        {
          "name": "hash",
          "type": "bytes32"
        }
      ],
      "payable": false,
      "stateMutability": "view",
      "type": "function"
    }
  ],
  "bytecode": "0x60c0604052601c60808190527f68747470733a2f2f697066732e696e667572612e696f2f697066732f0000000060a09081526200004091600d91906200031a565b503480156200004e57600080fd5b50604080518082018252601181527f446563656e7472616c697a6564204172740000000000000000000000000000006020808301918252835180850190945260048085527f4441525400000000000000000000000000000000000000000000000000000000918501919091528251929392620000cb92906200031a565b508051620000e19060059060208401906200031a565b5050600b8054600160a060020a031916339081179091556200011291506401000000006200121f6200011882021704565b620003bf565b600b54600160a060020a031633146200013057600080fd5b62000180816040805190810160405280600981526020017f77686974656c6973740000000000000000000000000000000000000000000000815250620001bf640100000000026401000000009004565b60408051600160a060020a038316815290517fd1bba68c128cc3f427e5831b3c6f99f480b6efa6b9e80c757768f6124158cc3f9181900360200190a150565b6200023b82600c836040518082805190602001908083835b60208310620001f85780518252601f199092019160209182019101620001d7565b51815160209384036101000a6000190180199092169116179052920194855250604051938490030190922092915050640100000000620002f58102620020411704565b7fbfec83d64eaa953f2708271a023ab9ee82057f8f3578d548c1a4ba0b5b70048982826040518083600160a060020a0316600160a060020a0316815260200180602001828103825283818151815260200191508051906020019080838360005b83811015620002b55781810151838201526020016200029b565b50505050905090810190601f168015620002e35780820380516001836020036101000a031916815260200191505b50935050505060405180910390a15050565b600160a060020a0316600090815260209190915260409020805460ff19166001179055565b828054600181600116156101000203166002900490600052602060002090601f016020900481019282601f106200035d57805160ff19168380011785556200038d565b828001600101855582156200038d579182015b828111156200038d57825182559160200191906001019062000370565b506200039b9291506200039f565b5090565b620003bc91905b808211156200039b5760008155600101620003a6565b90565b61244e80620003cf6000396000f3006080604052600436106101d75763ffffffff7c010000000000000000000000000000000000000000000000000000000060003504166301ffc9a781146101dc57806306fdde031461021257806307518c8e1461029c578063081812fc146102c6578063095ea7b3146102fa5780630988ca8c14610320578063162094c41461038757806318160ddd146103ab57806318b919e9146103c0578063202c413d146103d5578063217fe6c6146103f057806323b872dd1461045757806324953eaa14610481578063286dd3f5146104d65780632f745c59146104f75780633cefc1e01461051b57806340786dec1461053c57806342842e0e1461055a5780634f558e79146105845780634f6ccce71461059c57806354f50f1b146105b45780635a3f2672146105cc578063624de3d91461063d5780636352211e1461066f5780636f37f48b1461068757806370a08231146106a8578063715018a6146106c95780637b9417c8146106de5780638da5cb5b146106ff5780638ef79e911461071457806395d89b41146107345780639b19251a14610749578063a22cb4651461076a578063b88d4fde14610790578063c87b56dd146107ff578063e2ec6ec314610817578063e985e9c51461086c578063f2fde38b14610893575b600080fd5b3480156101e857600080fd5b506101fe600160e060020a0319600435166108b4565b604080519115158252519081900360200190f35b34801561021e57600080fd5b506102276109bb565b6040805160208082528351818301528351919283929083019185019080838360005b83811015610261578181015183820152602001610249565b50505050905090810190601f16801561028e5780820380516001836020036101000a031916815260200191505b509250505060405180910390f35b3480156102a857600080fd5b506102b4600435610a52565b60408051918252519081900360200190f35b3480156102d257600080fd5b506102de600435610a64565b60408051600160a060020a039092168252519081900360200190f35b34801561030657600080fd5b5061031e600160a060020a0360043516602435610a7f565b005b34801561032c57600080fd5b5060408051602060046024803582810135601f810185900485028601850190965285855261031e958335600160a060020a0316953695604494919390910191908190840183828082843750949750610b719650505050505050565b34801561039357600080fd5b5061031e600480359060248035908101910135610bdf565b3480156103b757600080fd5b506102b4610c5a565b3480156103cc57600080fd5b50610227610c60565b3480156103e157600080fd5b5061031e600435602435610c85565b3480156103fc57600080fd5b5060408051602060046024803582810135601f81018590048502860185019096528585526101fe958335600160a060020a0316953695604494919390910191908190840183828082843750949750610cb69650505050505050565b34801561046357600080fd5b5061031e600160a060020a0360043581169060243516604435610d29565b34801561048d57600080fd5b506040805160206004803580820135838102808601850190965280855261031e95369593946024949385019291829185019084908082843750949750610dd89650505050505050565b3480156104e257600080fd5b5061031e600160a060020a0360043516610e27565b34801561050357600080fd5b506102b4600160a060020a0360043516602435610eaa565b34801561052757600080fd5b506101fe600160a060020a0360043516610ef7565b34801561054857600080fd5b5061031e600435602435604435610f13565b34801561056657600080fd5b5061031e600160a060020a0360043581169060243516604435610fed565b34801561059057600080fd5b506101fe600435611025565b3480156105a857600080fd5b506102b4600435611042565b3480156105c057600080fd5b506102b4600435611077565b3480156105d857600080fd5b506105ed600160a060020a0360043516611089565b60408051602080825283518183015283519192839290830191858101910280838360005b83811015610629578181015183820152602001610611565b505050509050019250505060405180910390f35b34801561064957600080fd5b506106526110f5565b60408051600160e060020a03199092168252519081900360200190f35b34801561067b57600080fd5b506102de600435611119565b34801561069357600080fd5b506102b4600160a060020a0360043516611143565b3480156106b457600080fd5b506102b4600160a060020a036004351661117e565b3480156106d557600080fd5b5061031e6111b1565b3480156106ea57600080fd5b5061031e600160a060020a036004351661121f565b34801561070b57600080fd5b506102de6112a2565b34801561072057600080fd5b5061031e60048035602481019101356112b1565b34801561074057600080fd5b506102276112d4565b34801561075557600080fd5b506101fe600160a060020a0360043516611335565b34801561077657600080fd5b5061031e600160a060020a03600435166024351515611364565b34801561079c57600080fd5b50604080516020601f60643560048181013592830184900484028501840190955281845261031e94600160a060020a0381358116956024803590921695604435953695608494019181908401838280828437509497506113e89650505050505050565b34801561080b57600080fd5b50610227600435611427565b34801561082357600080fd5b506040805160206004803580820135838102808601850190965280855261031e9536959394602494938501929182918501908490808284375094975061167b9650505050505050565b34801561087857600080fd5b506101fe600160a060020a03600435811690602435166116ca565b34801561089f57600080fd5b5061031e600160a060020a03600435166116f8565b6000600160e060020a031982167f01ffc9a70000000000000000000000000000000000000000000000000000000014806109175750600160e060020a031982167f80ac58cd00000000000000000000000000000000000000000000000000000000145b8061094b5750600160e060020a031982167fb0aa718700000000000000000000000000000000000000000000000000000000145b8061097f5750600160e060020a031982167f780e9d6300000000000000000000000000000000000000000000000000000000145b806109b35750600160e060020a031982167f5b5e139f00000000000000000000000000000000000000000000000000000000145b90505b919050565b60048054604080516020601f6002600019610100600188161502019095169490940493840181900481028201810190925282815260609390929091830182828015610a475780601f10610a1c57610100808354040283529160200191610a47565b820191906000526020600020905b815481529060010190602001808311610a2a57829003601f168201915b505050505090505b90565b6000908152600f602052604090205490565b600090815260016020526040902054600160a060020a031690565b6000610a8a82611119565b9050600160a060020a038381169082161415610aa557600080fd5b33600160a060020a0382161480610ac15750610ac181336116ca565b1515610acc57600080fd5b6000610ad783610a64565b600160a060020a0316141580610af55750600160a060020a03831615155b15610b6c57600082815260016020908152604091829020805473ffffffffffffffffffffffffffffffffffffffff1916600160a060020a03878116918217909255835186815293519093918516927f8c5be1e5ebec7d5bd14f71427d1e84f3dd0314c0f7b2291e5b200ac8c7c3b925928290030190a35b505050565b610bdb82600c836040518082805190602001908083835b60208310610ba75780518252601f199092019160209182019101610b88565b51815160209384036101000a600019018019909216911617905292019485525060405193849003019092209291505061171b565b5050565b610c0c33604080519081016040528060098152602001600080516020612403833981519152815250610b71565b610c1583611025565b1515610c2057600080fd5b610b6c8383838080601f01602080910402602001604051908101604052809392919081815260200183838082843750611730945050505050565b60085490565b6040805180820190915260098152600080516020612403833981519152602082015281565b8133610c9082611119565b600160a060020a031614610ca357600080fd5b506000918252600e602052604090912055565b6000610d2283600c846040518082805190602001908083835b60208310610cee5780518252601f199092019160209182019101610ccf565b51815160209384036101000a6000190180199092169116179052920194855250604051938490030190922092915050611763565b9392505050565b80610d343382611782565b1515610d3f57600080fd5b600160a060020a0384161515610d5457600080fd5b600160a060020a0383161515610d6957600080fd5b610d7384836117e1565b610d7d848361188e565b610d8783836119c7565b82600160a060020a031684600160a060020a03167fddf252ad1be2c89b69c2b068fc378daa952ba7f163c4a11628f55a4df523b3ef846040518082815260200191505060405180910390a350505050565b600b54600090600160a060020a03163314610df257600080fd5b5060005b8151811015610bdb57610e1f8282815181101515610e1057fe5b90602001906020020151610e27565b600101610df6565b600b54600160a060020a03163314610e3e57600080fd5b610e6b81604080519081016040528060098152602001600080516020612403833981519152815250611a10565b60408051600160a060020a038316815290517ff1abf01a1043b7c244d128e8595cf0c1d10743b022b03a02dffd8ca3bf729f5a9181900360200190a150565b6000610eb58361117e565b8210610ec057600080fd5b600160a060020a0383166000908152600660205260409020805483908110610ee457fe5b9060005260206000200154905092915050565b600160a060020a03166000908152600660205260408120541190565b610f4033604080519081016040528060098152602001600080516020612403833981519152815250610b71565b600083815260106020526040902054158015610f6857506000828152600f6020526040902054155b1515610f7357600080fd5b610f7d3383611b31565b6000828152600f6020908152604080832086905585835260108252808320859055848352600e82529182902083905581518581529081018390528151849233927f02eaafbcba86bb6efee76aa94b66db88189635b9ca856870dae091808fed4ee5929081900390910190a3505050565b80610ff83382611782565b151561100357600080fd5b61101f84848460206040519081016040528060008152506113e8565b50505050565b600090815260208190526040902054600160a060020a0316151590565b600061104c610c5a565b821061105757600080fd5b600880548390811061106557fe5b90600052602060002001549050919050565b6000908152600e602052604090205490565b600160a060020a0381166000908152600660209081526040918290208054835181840281018401909452808452606093928301828280156110e957602002820191906000526020600020905b8154815260200190600101908083116110d5575b50505050509050919050565b7fb0aa71870000000000000000000000000000000000000000000000000000000081565b600081815260208190526040812054600160a060020a031680151561113d57600080fd5b92915050565b600061114e82610ef7565b151561115957600080fd5b600160a060020a03821660009081526006602052604081208054909190811061106557fe5b6000600160a060020a038216151561119557600080fd5b50600160a060020a031660009081526002602052604090205490565b600b54600160a060020a031633146111c857600080fd5b600b54604051600160a060020a03909116907ff8df31144d9c2f0f6b59d69b8b98abd5459d07f2742c4df920b25aae33c6482090600090a2600b805473ffffffffffffffffffffffffffffffffffffffff19169055565b600b54600160a060020a0316331461123657600080fd5b61126381604080519081016040528060098152602001600080516020612403833981519152815250611b80565b60408051600160a060020a038316815290517fd1bba68c128cc3f427e5831b3c6f99f480b6efa6b9e80c757768f6124158cc3f9181900360200190a150565b600b54600160a060020a031681565b600b54600160a060020a031633146112c857600080fd5b610b6c600d83836122dc565b60058054604080516020601f6002600019610100600188161502019095169490940493840181900481028201810190925282815260609390929091830182828015610a475780601f10610a1c57610100808354040283529160200191610a47565b60006109b382604080519081016040528060098152602001600080516020612403833981519152815250610cb6565b600160a060020a03821633141561137a57600080fd5b336000818152600360209081526040808320600160a060020a03871680855290835292819020805460ff1916861515908117909155815190815290519293927f17307eab39ab6107e8899845ad3d59bd9653f200f220920489ca2b5937696c31929181900390910190a35050565b816113f33382611782565b15156113fe57600080fd5b611409858585610d29565b61141585858585611c61565b151561142057600080fd5b5050505050565b6000818152600a602052604090205460609060026000196101006001841615020190911604151561154d57600d8054604080516020601f6002600019610100600188161502019095169490940493840181900481028201810190925282815261154693909290918301828280156114df5780601f106114b4576101008083540402835291602001916114df565b820191906000526020600020905b8154815290600101906020018083116114c257829003601f168201915b5050505050606060405190810160405280602e81526020017f516d5572546a5079326734617752594156384b73525368476148664c6863676b81526020017f336e51704547775935383933426b000000000000000000000000000000000000815250611dd2565b90506109b6565b600d8054604080516020601f600260001961010060018816150201909516949094049384018190048102820181019092528281526109b393909290918301828280156115da5780601f106115af576101008083540402835291602001916115da565b820191906000526020600020905b8154815290600101906020018083116115bd57829003601f168201915b5050506000868152600a60209081526040918290208054835160026001831615610100026000190190921691909104601f8101849004840282018401909452838152945092508301828280156116715780601f1061164657610100808354040283529160200191611671565b820191906000526020600020905b81548152906001019060200180831161165457829003601f168201915b5050505050611dd2565b600b54600090600160a060020a0316331461169557600080fd5b5060005b8151811015610bdb576116c282828151811015156116b357fe5b9060200190602002015161121f565b600101611699565b600160a060020a03918216600090815260036020908152604080832093909416825291909152205460ff1690565b600b54600160a060020a0316331461170f57600080fd5b61171881611e07565b50565b6117258282611763565b1515610bdb57600080fd5b61173982611025565b151561174457600080fd5b6000828152600a602090815260409091208251610b6c9284019061235a565b600160a060020a03166000908152602091909152604090205460ff1690565b60008061178e83611119565b905080600160a060020a031684600160a060020a031614806117c9575083600160a060020a03166117be84610a64565b600160a060020a0316145b806117d957506117d981856116ca565b949350505050565b81600160a060020a03166117f482611119565b600160a060020a03161461180757600080fd5b600081815260016020526040902054600160a060020a031615610bdb576000818152600160209081526040808320805473ffffffffffffffffffffffffffffffffffffffff1916905580518481529051600160a060020a038616927f8c5be1e5ebec7d5bd14f71427d1e84f3dd0314c0f7b2291e5b200ac8c7c3b925928290030190a35050565b600080600061189d8585611e85565b600084815260076020908152604080832054600160a060020a03891684526006909252909120549093506118d890600163ffffffff611f1a16565b600160a060020a03861660009081526006602052604090208054919350908390811061190057fe5b90600052602060002001549050806006600087600160a060020a0316600160a060020a031681526020019081526020016000208481548110151561194057fe5b6000918252602080832090910192909255600160a060020a038716815260069091526040812080548490811061197257fe5b6000918252602080832090910192909255600160a060020a03871681526006909152604090208054906119a99060001983016123c8565b50600093845260076020526040808520859055908452909220555050565b60006119d38383611f2c565b50600160a060020a039091166000908152600660209081526040808320805460018101825590845282842081018590559383526007909152902055565b611a7a82600c836040518082805190602001908083835b60208310611a465780518252601f199092019160209182019101611a27565b51815160209384036101000a6000190180199092169116179052920194855250604051938490030190922092915050611fbb565b7fd211483f91fc6eff862467f8de606587a30c8fc9981056f051b897a418df803a82826040518083600160a060020a0316600160a060020a0316815260200180602001828103825283818151815260200191508051906020019080838360005b83811015611af2578181015183820152602001611ada565b50505050905090810190601f168015611b1f5780820380516001836020036101000a031916815260200191505b50935050505060405180910390a15050565b611b3b8282611fdd565b600880546000838152600960205260408120829055600182018355919091527ff3f7a9fe364faab93b216da50a3214154f22a0a2b415b23a84c8169e8b636ee3015550565b611bea82600c836040518082805190602001908083835b60208310611bb65780518252601f199092019160209182019101611b97565b51815160209384036101000a6000190180199092169116179052920194855250604051938490030190922092915050612041565b7fbfec83d64eaa953f2708271a023ab9ee82057f8f3578d548c1a4ba0b5b70048982826040518083600160a060020a0316600160a060020a03168152602001806020018281038252838181518152602001915080519060200190808383600083811015611af2578181015183820152602001611ada565b600080611c7685600160a060020a0316612066565b1515611c855760019150611dc9565b84600160a060020a031663f0b9e5ba8786866040518463ffffffff167c01000000000000000000000000000000000000000000000000000000000281526004018084600160a060020a0316600160a060020a0316815260200183815260200180602001828103825283818151815260200191508051906020019080838360005b83811015611d1d578181015183820152602001611d05565b50505050905090810190601f168015611d4a5780820380516001836020036101000a031916815260200191505b50945050505050602060405180830381600087803b158015611d6b57600080fd5b505af1158015611d7f573d6000803e3d6000fd5b505050506040513d6020811015611d9557600080fd5b5051600160e060020a031981167ff0b9e5ba0000000000000000000000000000000000000000000000000000000014925090505b50949350505050565b604080516020818101835260008083528351808301855281815284519283019094528152606092610d2292869286929061206e565b600160a060020a0381161515611e1c57600080fd5b600b54604051600160a060020a038084169216907f8be0079c531659141344cd1fd0a4f28419497f9722a3daafe3b4186f6b6457e090600090a3600b805473ffffffffffffffffffffffffffffffffffffffff1916600160a060020a0392909216919091179055565b81600160a060020a0316611e9882611119565b600160a060020a031614611eab57600080fd5b600160a060020a038216600090815260026020526040902054611ed590600163ffffffff611f1a16565b600160a060020a039092166000908152600260209081526040808320949094559181529081905220805473ffffffffffffffffffffffffffffffffffffffff19169055565b600082821115611f2657fe5b50900390565b600081815260208190526040902054600160a060020a031615611f4e57600080fd5b600081815260208181526040808320805473ffffffffffffffffffffffffffffffffffffffff1916600160a060020a03871690811790915583526002909152902054611f9b9060016122cf565b600160a060020a0390921660009081526002602052604090209190915550565b600160a060020a0316600090815260209190915260409020805460ff19169055565b600160a060020a0382161515611ff257600080fd5b611ffc82826119c7565b604080518281529051600160a060020a038416916000917fddf252ad1be2c89b69c2b068fc378daa952ba7f163c4a11628f55a4df523b3ef9181900360200190a35050565b600160a060020a0316600090815260209190915260409020805460ff19166001179055565b6000903b1190565b6060806060806060806060806000808e98508d97508c96508b95508a94508451865188518a518c51010101016040519080825280601f01601f1916602001820160405280156120c7578160200160208202803883390190505b50935083925060009150600090505b88518110156121345788818151811015156120ed57fe5b90602001015160f860020a900460f860020a02838380600101945081518110151561211457fe5b906020010190600160f860020a031916908160001a9053506001016120d6565b5060005b875181101561219657878181518110151561214f57fe5b90602001015160f860020a900460f860020a02838380600101945081518110151561217657fe5b906020010190600160f860020a031916908160001a905350600101612138565b5060005b86518110156121f85786818151811015156121b157fe5b90602001015160f860020a900460f860020a0283838060010194508151811015156121d857fe5b906020010190600160f860020a031916908160001a90535060010161219a565b5060005b855181101561225a57858181518110151561221357fe5b90602001015160f860020a900460f860020a02838380600101945081518110151561223a57fe5b906020010190600160f860020a031916908160001a9053506001016121fc565b5060005b84518110156122bc57848181518110151561227557fe5b90602001015160f860020a900460f860020a02838380600101945081518110151561229c57fe5b906020010190600160f860020a031916908160001a90535060010161225e565b50909d9c50505050505050505050505050565b8181018281101561113d57fe5b828054600181600116156101000203166002900490600052602060002090601f016020900481019282601f1061231d5782800160ff1982351617855561234a565b8280016001018555821561234a579182015b8281111561234a57823582559160200191906001019061232f565b506123569291506123e8565b5090565b828054600181600116156101000203166002900490600052602060002090601f016020900481019282601f1061239b57805160ff191683800117855561234a565b8280016001018555821561234a579182015b8281111561234a5782518255916020019190600101906123ad565b815481835581811115610b6c57600083815260209020610b6c9181019083015b610a4f91905b8082111561235657600081556001016123ee560077686974656c6973740000000000000000000000000000000000000000000000a165627a7a723058203c0917f3175894c5302570f72e82d02e3a3d71cf386bf78a3b7a6bf72ea9a2ac0029",
  "source": "pragma solidity ^0.4.24;\n\n\nimport \"openzeppelin-solidity/contracts/ownership/Whitelist.sol\";\nimport \"openzeppelin-solidity/contracts/token/ERC721/ERC721Token.sol\";\n\nimport \"./Strings.sol\";\nimport \"./ERC165.sol\";\n\n/**\n* @title DART\n*/\ncontract DART is ERC721Token, ERC165, Whitelist {\n  using SafeMath for uint256;\n\n  bytes4 constant InterfaceSignature_ERC165 = 0x01ffc9a7;\n  /*\n  bytes4(keccak256('supportsInterface(bytes4)'));\n  */\n\n  bytes4 constant InterfaceSignature_ERC721Enumerable = 0x780e9d63;\n  /*\n  bytes4(keccak256('totalSupply()')) ^\n  bytes4(keccak256('tokenOfOwnerByIndex(address,uint256)')) ^\n  bytes4(keccak256('tokenByIndex(uint256)'));\n  */\n\n  bytes4 constant InterfaceSignature_ERC721Metadata = 0x5b5e139f;\n  /*\n  bytes4(keccak256('name()')) ^\n  bytes4(keccak256('symbol()')) ^\n  bytes4(keccak256('tokenURI(uint256)'));\n  */\n\n  bytes4 constant InterfaceSignature_ERC721 = 0x80ac58cd;\n  /*\n  bytes4(keccak256('balanceOf(address)')) ^\n  bytes4(keccak256('ownerOf(uint256)')) ^\n  bytes4(keccak256('approve(address,uint256)')) ^\n  bytes4(keccak256('getApproved(uint256)')) ^\n  bytes4(keccak256('setApprovalForAll(address,bool)')) ^\n  bytes4(keccak256('isApprovedForAll(address,address)')) ^\n  bytes4(keccak256('transferFrom(address,address,uint256)')) ^\n  bytes4(keccak256('safeTransferFrom(address,address,uint256)')) ^\n  bytes4(keccak256('safeTransferFrom(address,address,uint256,bytes)'));\n  */\n\n  bytes4 public constant InterfaceSignature_ERC721Optional = - 0x4f558e79;\n  /*\n  bytes4(keccak256('exists(uint256)'));\n  */\n\n  /**\n   * @notice Introspection interface as per ERC-165 (https://github.com/ethereum/EIPs/issues/165).\n   * @dev Returns true for any standardized interfaces implemented by this contract.\n   * @param _interfaceID bytes4 the interface to check for\n   * @return true for any standardized interfaces implemented by this contract.\n   */\n  function supportsInterface(bytes4 _interfaceID) external pure returns (bool) {\n    return ((_interfaceID == InterfaceSignature_ERC165)\n    || (_interfaceID == InterfaceSignature_ERC721)\n    || (_interfaceID == InterfaceSignature_ERC721Optional)\n    || (_interfaceID == InterfaceSignature_ERC721Enumerable)\n    || (_interfaceID == InterfaceSignature_ERC721Metadata));\n  }\n\n  event MintDART(address indexed _owner, uint256 indexed _tokenId, bytes32 _blockhash, bytes32 _nickname);\n\n  /**\n   * @dev Throws if not called by a dART token holder\n   */\n  modifier onlyTokenOwners() {\n    require(hasTokens(msg.sender));\n    _;\n  }\n\n  string internal tokenBaseURI = \"https://ipfs.infura.io/ipfs/\";\n  string internal constant defaultTokenURI = \"QmUrTjPy2g4awRYAV8KsRShGaHfLhcgk3nQpEGwY5893Bk\";\n\n  mapping (uint256 => bytes32) internal tokenIdToNickname;\n\n  mapping(uint256 => bytes32) internal tokenIdToBlockhash;\n  mapping(bytes32 => uint256) internal blockhashToTokenId;\n\n  constructor() public ERC721Token(\"Decentralized Art\", \"DART\") {\n    super.addAddressToWhitelist(msg.sender);\n  }\n\n  // don't accept payment directly to contract\n  function() public payable {\n    revert();\n  }\n\n  /**\n   * @dev Mint a new DART token\n   * @dev Reverts if not called by curator\n   * @param _blockhash an Ethereum block hash\n   * @param _tokenId unique token ID\n   * @param _nickname char stamp of token owner\n   */\n  function mint(bytes32 _blockhash, uint256 _tokenId, bytes32 _nickname) external onlyWhitelisted {\n    require(blockhashToTokenId[_blockhash] == 0 && tokenIdToBlockhash[_tokenId] == 0);\n\n    // actually mint the token\n    super._mint(msg.sender, _tokenId);\n\n    // set data\n    tokenIdToBlockhash[_tokenId] = _blockhash;\n    blockhashToTokenId[_blockhash] = _tokenId;\n\n    tokenIdToNickname[_tokenId] = _nickname;\n\n    emit MintDART(msg.sender, _tokenId, _blockhash, _nickname);\n  }\n\n  /**\n   * @dev Utility function for updating a DART assets token URI\n   * @dev Reverts if not called by management\n   * @param _tokenId the DART token ID\n   * @param _uri the token URI, will be concatenated with baseUri\n   */\n  function setTokenURI(uint256 _tokenId, string _uri) external onlyWhitelisted {\n    require(exists(_tokenId));\n    _setTokenURI(_tokenId, _uri);\n  }\n\n  /**\n   * @dev Utility function for updating a nickname if you own the token\n   * @dev Reverts if not called by owner\n   * @param _tokenId the DART token ID\n   * @param _nickname char stamp of token owner\n   */\n  function setNickname(uint256 _tokenId, bytes32 _nickname) external onlyOwnerOf(_tokenId) {\n    tokenIdToNickname[_tokenId] = _nickname;\n  }\n\n  /**\n   * @dev Return owned tokens\n   * @param _owner address to query\n   */\n  function tokensOf(address _owner) public view returns (uint256[] _tokenIds) {\n    return ownedTokens[_owner];\n  }\n\n  /**\n   * @dev checks for owned tokens\n   * @param _owner address to query\n   */\n  function hasTokens(address _owner) public view returns (bool) {\n    return ownedTokens[_owner].length > 0;\n  }\n\n  /**\n   * @dev checks for owned tokens\n   * @param _owner address to query\n   */\n  function firstToken(address _owner) public view returns (uint256 _tokenId) {\n    require(hasTokens(_owner));\n    return ownedTokens[_owner][0];\n  }\n\n  /**\n   * @dev Return handle of token\n   * @param _tokenId token ID for handle lookup\n   */\n  function nicknameOf(uint256 _tokenId) public view returns (bytes32 _nickname) {\n    return tokenIdToNickname[_tokenId];\n  }\n\n  /**\n   * @dev Get token URI fro the given token, useful for testing purposes\n   * @param _tokenId the DART token ID\n   * @return the token ID or only the base URI if not found\n   */\n  function tokenURI(uint256 _tokenId) public view returns (string) {\n    if (bytes(tokenURIs[_tokenId]).length == 0) {\n      return Strings.strConcat(tokenBaseURI, defaultTokenURI);\n    }\n    return Strings.strConcat(tokenBaseURI, tokenURIs[_tokenId]);\n  }\n\n  /**\n   * @dev Allows management to update the base tokenURI path\n   * @dev Reverts if not called by management\n   * @param _newBaseURI the new base URI to set\n   */\n  function setTokenBaseURI(string _newBaseURI) external onlyOwner {\n    tokenBaseURI = _newBaseURI;\n  }\n\n  /**\n   * @dev Return blockhash of the DART token\n   * @param _tokenId the DART token ID\n   */\n  function blockhashOf(uint256 _tokenId) public view returns (bytes32 hash) {\n    return tokenIdToBlockhash[_tokenId];\n  }\n}\n",
  "sourcePath": "/Users/jamesmorgan/Dropbox/workspace-blockrocket/art-blocks/contracts/DART.sol",
  "compiler": {
    "name": "solc",
    "version": "0.4.24+commit.e67f0147.Emscripten.clang"
  },
  "schemaVersion": "2.0.1",
  "updatedAt": "2018-07-02T14:47:30.814Z"
}