{
  "contractName": "DART",
  "abi": [
    {
      "constant": true,
      "inputs": [],
      "name": "name",
      "outputs": [
        {
          "name": "",
          "type": "string"
        }
      ],
      "payable": false,
      "stateMutability": "view",
      "type": "function"
    },
    {
      "constant": true,
      "inputs": [
        {
          "name": "_tokenId",
          "type": "uint256"
        }
      ],
      "name": "getApproved",
      "outputs": [
        {
          "name": "",
          "type": "address"
        }
      ],
      "payable": false,
      "stateMutability": "view",
      "type": "function"
    },
    {
      "constant": false,
      "inputs": [
        {
          "name": "_to",
          "type": "address"
        },
        {
          "name": "_tokenId",
          "type": "uint256"
        }
      ],
      "name": "approve",
      "outputs": [],
      "payable": false,
      "stateMutability": "nonpayable",
      "type": "function"
    },
    {
      "constant": true,
      "inputs": [],
      "name": "totalSupply",
      "outputs": [
        {
          "name": "",
          "type": "uint256"
        }
      ],
      "payable": false,
      "stateMutability": "view",
      "type": "function"
    },
    {
      "constant": false,
      "inputs": [
        {
          "name": "_from",
          "type": "address"
        },
        {
          "name": "_to",
          "type": "address"
        },
        {
          "name": "_tokenId",
          "type": "uint256"
        }
      ],
      "name": "transferFrom",
      "outputs": [],
      "payable": false,
      "stateMutability": "nonpayable",
      "type": "function"
    },
    {
      "constant": false,
      "inputs": [
        {
          "name": "addrs",
          "type": "address[]"
        }
      ],
      "name": "removeAddressesFromWhitelist",
      "outputs": [
        {
          "name": "success",
          "type": "bool"
        }
      ],
      "payable": false,
      "stateMutability": "nonpayable",
      "type": "function"
    },
    {
      "constant": false,
      "inputs": [
        {
          "name": "addr",
          "type": "address"
        }
      ],
      "name": "removeAddressFromWhitelist",
      "outputs": [
        {
          "name": "success",
          "type": "bool"
        }
      ],
      "payable": false,
      "stateMutability": "nonpayable",
      "type": "function"
    },
    {
      "constant": true,
      "inputs": [
        {
          "name": "_owner",
          "type": "address"
        },
        {
          "name": "_index",
          "type": "uint256"
        }
      ],
      "name": "tokenOfOwnerByIndex",
      "outputs": [
        {
          "name": "",
          "type": "uint256"
        }
      ],
      "payable": false,
      "stateMutability": "view",
      "type": "function"
    },
    {
      "constant": true,
      "inputs": [],
      "name": "tokenIdPointer",
      "outputs": [
        {
          "name": "",
          "type": "uint256"
        }
      ],
      "payable": false,
      "stateMutability": "view",
      "type": "function"
    },
    {
      "constant": false,
      "inputs": [
        {
          "name": "_from",
          "type": "address"
        },
        {
          "name": "_to",
          "type": "address"
        },
        {
          "name": "_tokenId",
          "type": "uint256"
        }
      ],
      "name": "safeTransferFrom",
      "outputs": [],
      "payable": false,
      "stateMutability": "nonpayable",
      "type": "function"
    },
    {
      "constant": true,
      "inputs": [
        {
          "name": "_tokenId",
          "type": "uint256"
        }
      ],
      "name": "exists",
      "outputs": [
        {
          "name": "",
          "type": "bool"
        }
      ],
      "payable": false,
      "stateMutability": "view",
      "type": "function"
    },
    {
      "constant": true,
      "inputs": [
        {
          "name": "_index",
          "type": "uint256"
        }
      ],
      "name": "tokenByIndex",
      "outputs": [
        {
          "name": "",
          "type": "uint256"
        }
      ],
      "payable": false,
      "stateMutability": "view",
      "type": "function"
    },
    {
      "constant": true,
      "inputs": [],
      "name": "totalContributionsInWei",
      "outputs": [
        {
          "name": "",
          "type": "uint256"
        }
      ],
      "payable": false,
      "stateMutability": "view",
      "type": "function"
    },
    {
      "constant": true,
      "inputs": [],
      "name": "InterfaceSignature_ERC721Optional",
      "outputs": [
        {
          "name": "",
          "type": "bytes4"
        }
      ],
      "payable": false,
      "stateMutability": "view",
      "type": "function"
    },
    {
      "constant": true,
      "inputs": [
        {
          "name": "_tokenId",
          "type": "uint256"
        }
      ],
      "name": "ownerOf",
      "outputs": [
        {
          "name": "",
          "type": "address"
        }
      ],
      "payable": false,
      "stateMutability": "view",
      "type": "function"
    },
    {
      "constant": true,
      "inputs": [
        {
          "name": "_owner",
          "type": "address"
        }
      ],
      "name": "balanceOf",
      "outputs": [
        {
          "name": "",
          "type": "uint256"
        }
      ],
      "payable": false,
      "stateMutability": "view",
      "type": "function"
    },
    {
      "constant": false,
      "inputs": [
        {
          "name": "addr",
          "type": "address"
        }
      ],
      "name": "addAddressToWhitelist",
      "outputs": [
        {
          "name": "success",
          "type": "bool"
        }
      ],
      "payable": false,
      "stateMutability": "nonpayable",
      "type": "function"
    },
    {
      "constant": true,
      "inputs": [],
      "name": "owner",
      "outputs": [
        {
          "name": "",
          "type": "address"
        }
      ],
      "payable": false,
      "stateMutability": "view",
      "type": "function"
    },
    {
      "constant": true,
      "inputs": [],
      "name": "symbol",
      "outputs": [
        {
          "name": "",
          "type": "string"
        }
      ],
      "payable": false,
      "stateMutability": "view",
      "type": "function"
    },
    {
      "constant": true,
      "inputs": [
        {
          "name": "",
          "type": "address"
        }
      ],
      "name": "whitelist",
      "outputs": [
        {
          "name": "",
          "type": "bool"
        }
      ],
      "payable": false,
      "stateMutability": "view",
      "type": "function"
    },
    {
      "constant": false,
      "inputs": [
        {
          "name": "_to",
          "type": "address"
        },
        {
          "name": "_approved",
          "type": "bool"
        }
      ],
      "name": "setApprovalForAll",
      "outputs": [],
      "payable": false,
      "stateMutability": "nonpayable",
      "type": "function"
    },
    {
      "constant": true,
      "inputs": [],
      "name": "pricePerBlock",
      "outputs": [
        {
          "name": "",
          "type": "uint256"
        }
      ],
      "payable": false,
      "stateMutability": "view",
      "type": "function"
    },
    {
      "constant": false,
      "inputs": [
        {
          "name": "_from",
          "type": "address"
        },
        {
          "name": "_to",
          "type": "address"
        },
        {
          "name": "_tokenId",
          "type": "uint256"
        },
        {
          "name": "_data",
          "type": "bytes"
        }
      ],
      "name": "safeTransferFrom",
      "outputs": [],
      "payable": false,
      "stateMutability": "nonpayable",
      "type": "function"
    },
    {
      "constant": true,
      "inputs": [],
      "name": "maxBlockPurchaseInOneGo",
      "outputs": [
        {
          "name": "",
          "type": "uint256"
        }
      ],
      "payable": false,
      "stateMutability": "view",
      "type": "function"
    },
    {
      "constant": true,
      "inputs": [],
      "name": "donationPercentage",
      "outputs": [
        {
          "name": "",
          "type": "uint8"
        }
      ],
      "payable": false,
      "stateMutability": "view",
      "type": "function"
    },
    {
      "constant": false,
      "inputs": [
        {
          "name": "addrs",
          "type": "address[]"
        }
      ],
      "name": "addAddressesToWhitelist",
      "outputs": [
        {
          "name": "success",
          "type": "bool"
        }
      ],
      "payable": false,
      "stateMutability": "nonpayable",
      "type": "function"
    },
    {
      "constant": true,
      "inputs": [
        {
          "name": "_owner",
          "type": "address"
        },
        {
          "name": "_operator",
          "type": "address"
        }
      ],
      "name": "isApprovedForAll",
      "outputs": [
        {
          "name": "",
          "type": "bool"
        }
      ],
      "payable": false,
      "stateMutability": "view",
      "type": "function"
    },
    {
      "constant": false,
      "inputs": [
        {
          "name": "newOwner",
          "type": "address"
        }
      ],
      "name": "transferOwnership",
      "outputs": [],
      "payable": false,
      "stateMutability": "nonpayable",
      "type": "function"
    },
    {
      "inputs": [],
      "payable": false,
      "stateMutability": "nonpayable",
      "type": "constructor"
    },
    {
      "payable": true,
      "stateMutability": "payable",
      "type": "fallback"
    },
    {
      "anonymous": false,
      "inputs": [
        {
          "indexed": false,
          "name": "addr",
          "type": "address"
        }
      ],
      "name": "WhitelistedAddressAdded",
      "type": "event"
    },
    {
      "anonymous": false,
      "inputs": [
        {
          "indexed": false,
          "name": "addr",
          "type": "address"
        }
      ],
      "name": "WhitelistedAddressRemoved",
      "type": "event"
    },
    {
      "anonymous": false,
      "inputs": [
        {
          "indexed": true,
          "name": "previousOwner",
          "type": "address"
        },
        {
          "indexed": true,
          "name": "newOwner",
          "type": "address"
        }
      ],
      "name": "OwnershipTransferred",
      "type": "event"
    },
    {
      "anonymous": false,
      "inputs": [
        {
          "indexed": true,
          "name": "_from",
          "type": "address"
        },
        {
          "indexed": true,
          "name": "_to",
          "type": "address"
        },
        {
          "indexed": false,
          "name": "_tokenId",
          "type": "uint256"
        }
      ],
      "name": "Transfer",
      "type": "event"
    },
    {
      "anonymous": false,
      "inputs": [
        {
          "indexed": true,
          "name": "_owner",
          "type": "address"
        },
        {
          "indexed": true,
          "name": "_approved",
          "type": "address"
        },
        {
          "indexed": false,
          "name": "_tokenId",
          "type": "uint256"
        }
      ],
      "name": "Approval",
      "type": "event"
    },
    {
      "anonymous": false,
      "inputs": [
        {
          "indexed": true,
          "name": "_owner",
          "type": "address"
        },
        {
          "indexed": true,
          "name": "_operator",
          "type": "address"
        },
        {
          "indexed": false,
          "name": "_approved",
          "type": "bool"
        }
      ],
      "name": "ApprovalForAll",
      "type": "event"
    },
    {
      "constant": true,
      "inputs": [
        {
          "name": "_interfaceID",
          "type": "bytes4"
        }
      ],
      "name": "supportsInterface",
      "outputs": [
        {
          "name": "",
          "type": "bool"
        }
      ],
      "payable": false,
      "stateMutability": "pure",
      "type": "function"
    },
    {
      "constant": false,
      "inputs": [
        {
          "name": "_tokenId",
          "type": "uint256"
        }
      ],
      "name": "fundDart",
      "outputs": [],
      "payable": true,
      "stateMutability": "payable",
      "type": "function"
    },
    {
      "constant": false,
      "inputs": [
        {
          "name": "_blockHash",
          "type": "bytes32"
        },
        {
          "name": "_nickname",
          "type": "string"
        }
      ],
      "name": "mint",
      "outputs": [],
      "payable": false,
      "stateMutability": "nonpayable",
      "type": "function"
    },
    {
      "constant": false,
      "inputs": [
        {
          "name": "_tokenId",
          "type": "uint256"
        }
      ],
      "name": "burn",
      "outputs": [],
      "payable": false,
      "stateMutability": "nonpayable",
      "type": "function"
    },
    {
      "constant": false,
      "inputs": [
        {
          "name": "_tokenId",
          "type": "uint256"
        },
        {
          "name": "_uri",
          "type": "string"
        }
      ],
      "name": "setTokenURI",
      "outputs": [],
      "payable": false,
      "stateMutability": "nonpayable",
      "type": "function"
    },
    {
      "constant": true,
      "inputs": [
        {
          "name": "_owner",
          "type": "address"
        }
      ],
      "name": "tokensOf",
      "outputs": [
        {
          "name": "_tokenIds",
          "type": "uint256[]"
        }
      ],
      "payable": false,
      "stateMutability": "view",
      "type": "function"
    },
    {
      "constant": true,
      "inputs": [
        {
          "name": "_tokenId",
          "type": "uint256"
        }
      ],
      "name": "nicknameOf",
      "outputs": [
        {
          "name": "_nickname",
          "type": "string"
        }
      ],
      "payable": false,
      "stateMutability": "view",
      "type": "function"
    },
    {
      "constant": true,
      "inputs": [
        {
          "name": "_tokenId",
          "type": "uint256"
        }
      ],
      "name": "blockhashOf",
      "outputs": [
        {
          "name": "hash",
          "type": "bytes32"
        }
      ],
      "payable": false,
      "stateMutability": "view",
      "type": "function"
    },
    {
      "constant": true,
      "inputs": [
        {
          "name": "_tokenId",
          "type": "uint256"
        }
      ],
      "name": "tokenURI",
      "outputs": [
        {
          "name": "",
          "type": "string"
        }
      ],
      "payable": false,
      "stateMutability": "view",
      "type": "function"
    },
    {
      "constant": false,
      "inputs": [
        {
          "name": "_newBaseURI",
          "type": "string"
        }
      ],
      "name": "setTokenBaseURI",
      "outputs": [],
      "payable": false,
      "stateMutability": "nonpayable",
      "type": "function"
    },
    {
      "constant": true,
      "inputs": [
        {
          "name": "_tokenId",
          "type": "uint256"
        }
      ],
      "name": "tokenHash",
      "outputs": [
        {
          "name": "",
          "type": "bytes32"
        }
      ],
      "payable": false,
      "stateMutability": "view",
      "type": "function"
    },
    {
      "constant": true,
      "inputs": [],
      "name": "nextHash",
      "outputs": [
        {
          "name": "_tokenHash",
          "type": "bytes32"
        }
      ],
      "payable": false,
      "stateMutability": "view",
      "type": "function"
    }
  ],
  "bytecode": "0x606060405260408051908101604052601c81527f68747470733a2f2f697066732e696e667572612e696f2f697066732f000000006020820152600d9080516200004d92916020019062000263565b506000600f819055662386f26fc100006010556011805460ff19166001179055600a60125560155534156200008157600080fd5b604080519081016040908152600b82527f4469676974616c204172740000000000000000000000000000000000000000006020830152805190810160405260048082527f44415254000000000000000000000000000000000000000000000000000000006020830152828051620000fd92916020019062000263565b5060058180516200011392916020019062000263565b5050600b8054600160a060020a03191633600160a060020a0381169190911790915543601555620001539150640100000000620001b68102620011151704565b506200018173f43ae50c468c3d3fa0c3dc3454e797317ef5307864010000000062001115620001b682021704565b50620001af73e1023c112a39c58238929153f25364c11a33b72964010000000062001115620001b682021704565b5062000308565b600b5460009033600160a060020a03908116911614620001d557600080fd5b600160a060020a0382166000908152600c602052604090205460ff1615156200025e57600160a060020a0382166000908152600c602052604090819020805460ff191660011790557fd1bba68c128cc3f427e5831b3c6f99f480b6efa6b9e80c757768f6124158cc3f90839051600160a060020a03909116815260200160405180910390a15060015b919050565b828054600181600116156101000203166002900490600052602060002090601f016020900481019282601f10620002a657805160ff1916838001178555620002d6565b82800160010185558215620002d6579182015b82811115620002d6578251825591602001919060010190620002b9565b50620002e4929150620002e8565b5090565b6200030591905b80821115620002e45760008155600101620002ef565b90565b61229480620003186000396000f3006060604052600436106101ed5763ffffffff7c010000000000000000000000000000000000000000000000000000000060003504166301ffc9a781146101f257806306fdde031461022657806307518c8e146102b0578063081812fc146102d8578063095ea7b31461030a578063162094c41461032e57806318160ddd1461035057806323b872dd1461036357806324953eaa1461038b578063286dd3f5146103da5780632f745c59146103f95780633b3a1a7a1461041b57806342842e0e1461042e57806342966c68146104565780634f558e791461046c5780634f6ccce71461048257806354f50f1b146104985780635a3f2672146104ae5780635a7cb31b14610520578063624de3d9146105335780636352211e146105635780636ed2e7781461057957806370a0823114610584578063727f0067146105a35780637b9417c8146105b65780638da5cb5b146105d55780638ef79e91146105e857806395d89b41146106065780639b19251a14610619578063a22cb46514610638578063a38643971461065c578063ab792cdb14610672578063b88d4fde14610685578063bb8270fa146106f1578063c16cc81014610704578063c87b56dd1461072d578063e2ec6ec314610743578063e985e9c514610792578063ee7242e3146107b7578063f2fde38b146107d9575b600080fd5b34156101fd57600080fd5b610212600160e060020a0319600435166107f8565b604051901515815260200160405180910390f35b341561023157600080fd5b6102396108ff565b60405160208082528190810183818151815260200191508051906020019080838360005b8381101561027557808201518382015260200161025d565b50505050905090810190601f1680156102a25780820380516001836020036101000a031916815260200191505b509250505060405180910390f35b34156102bb57600080fd5b6102c66004356109a8565b60405190815260200160405180910390f35b34156102e357600080fd5b6102ee6004356109ba565b604051600160a060020a03909116815260200160405180910390f35b341561031557600080fd5b61032c600160a060020a03600435166024356109d5565b005b341561033957600080fd5b61032c600480359060248035908101910135610ad1565b341561035b57600080fd5b6102c6610b45565b341561036e57600080fd5b61032c600160a060020a0360043581169060243516604435610b4b565b341561039657600080fd5b6102126004602481358181019083013580602081810201604051908101604052809392919081815260200183836020028082843750949650610bf695505050505050565b34156103e557600080fd5b610212600160a060020a0360043516610c59565b341561040457600080fd5b6102c6600160a060020a0360043516602435610cff565b341561042657600080fd5b6102c6610d4d565b341561043957600080fd5b61032c600160a060020a0360043581169060243516604435610d53565b341561046157600080fd5b61032c600435610d89565b341561047757600080fd5b610212600435610e05565b341561048d57600080fd5b6102c6600435610e22565b34156104a357600080fd5b610239600435610e58565b34156104b957600080fd5b6104cd600160a060020a0360043516610f13565b60405160208082528190810183818151815260200191508051906020019060200280838360005b8381101561050c5780820151838201526020016104f4565b505050509050019250505060405180910390f35b341561052b57600080fd5b6102c6610f95565b341561053e57600080fd5b610546610f9b565b604051600160e060020a0319909116815260200160405180910390f35b341561056e57600080fd5b6102ee600435610fbf565b61032c600435610fe9565b341561058f57600080fd5b6102c6600160a060020a03600435166110a7565b34156105ae57600080fd5b6102c66110da565b34156105c157600080fd5b610212600160a060020a0360043516611115565b34156105e057600080fd5b6102ee6111bf565b34156105f357600080fd5b61032c60048035602481019101356111ce565b341561061157600080fd5b610239611201565b341561062457600080fd5b610212600160a060020a0360043516611274565b341561064357600080fd5b61032c600160a060020a03600435166024351515611289565b341561066757600080fd5b6102c660043561131a565b341561067d57600080fd5b6102c6611343565b341561069057600080fd5b61032c600160a060020a036004803582169160248035909116916044359160849060643590810190830135806020601f8201819004810201604051908101604052818152929190602084018383808284375094965061134995505050505050565b34156106fc57600080fd5b6102c6611388565b341561070f57600080fd5b61071761138e565b60405160ff909116815260200160405180910390f35b341561073857600080fd5b610239600435611397565b341561074e57600080fd5b61021260046024813581810190830135806020818102016040519081016040528093929190818152602001838360200280828437509496506114ee95505050505050565b341561079d57600080fd5b610212600160a060020a036004358116906024351661154b565b34156107c257600080fd5b61032c600480359060248035908101910135611579565b34156107e457600080fd5b61032c600160a060020a036004351661162f565b6000600160e060020a031982167f01ffc9a700000000000000000000000000000000000000000000000000000000148061085b5750600160e060020a031982167f80ac58cd00000000000000000000000000000000000000000000000000000000145b8061088f5750600160e060020a031982167fb0aa718700000000000000000000000000000000000000000000000000000000145b806108c35750600160e060020a031982167f780e9d6300000000000000000000000000000000000000000000000000000000145b806108f75750600160e060020a031982167f5b5e139f00000000000000000000000000000000000000000000000000000000145b90505b919050565b6109076120e5565b60048054600181600116156101000203166002900480601f01602080910402602001604051908101604052809291908181526020018280546001816001161561010002031660029004801561099d5780601f106109725761010080835404028352916020019161099d565b820191906000526020600020905b81548152906001019060200180831161098057829003601f168201915b505050505090505b90565b60009081526013602052604090205490565b600090815260016020526040902054600160a060020a031690565b60006109e082610fbf565b9050600160a060020a0383811690821614156109fb57600080fd5b80600160a060020a031633600160a060020a03161480610a205750610a20813361154b565b1515610a2b57600080fd5b6000610a36836109ba565b600160a060020a0316141580610a545750600160a060020a03831615155b15610acc5760008281526001602052604090819020805473ffffffffffffffffffffffffffffffffffffffff1916600160a060020a0386811691821790925591908316907f8c5be1e5ebec7d5bd14f71427d1e84f3dd0314c0f7b2291e5b200ac8c7c3b9259085905190815260200160405180910390a35b505050565b600160a060020a0333166000908152600c602052604090205460ff161515610af857600080fd5b610b0183610e05565b1515610b0c57600080fd5b610acc8383838080601f0160208091040260200160405190810160405281815292919060208401838380828437506116ca945050505050565b60085490565b80610b5633826116fd565b1515610b6157600080fd5b600160a060020a0384161515610b7657600080fd5b600160a060020a0383161515610b8b57600080fd5b610b95848361175c565b610b9f848361180b565b610ba98383611939565b82600160a060020a031684600160a060020a03167fddf252ad1be2c89b69c2b068fc378daa952ba7f163c4a11628f55a4df523b3ef8460405190815260200160405180910390a350505050565b600b54600090819033600160a060020a03908116911614610c1657600080fd5b5060005b8251811015610c5357610c41838281518110610c3257fe5b90602001906020020151610c59565b15610c4b57600191505b600101610c1a565b50919050565b600b5460009033600160a060020a03908116911614610c7757600080fd5b600160a060020a0382166000908152600c602052604090205460ff16156108fa57600160a060020a0382166000908152600c602052604090819020805460ff191690557ff1abf01a1043b7c244d128e8595cf0c1d10743b022b03a02dffd8ca3bf729f5a90839051600160a060020a03909116815260200160405180910390a1506001919050565b6000610d0a836110a7565b8210610d1557600080fd5b600160a060020a0383166000908152600660205260409020805483908110610d3957fe5b906000526020600020900154905092915050565b600f5481565b80610d5e33826116fd565b1515610d6957600080fd5b610d83848484602060405190810160405260008152611349565b50505050565b600160a060020a0333166000908152600c602052604090205460ff161515610db057600080fd5b600b546000828152602081905260409020548291600160a060020a03918216911614610ddb57600080fd5b610de482610e05565b1515610def57600080fd5b610e01610dfb83610fbf565b83611993565b5050565b600090815260208190526040902054600160a060020a0316151590565b6000610e2c610b45565b8210610e3757600080fd5b6008805483908110610e4557fe5b9060005260206000209001549050919050565b610e606120e5565b601460008381526020019081526020016000208054600181600116156101000203166002900480601f016020809104026020016040519081016040528092919081815260200182805460018160011615610100020316600290048015610f075780601f10610edc57610100808354040283529160200191610f07565b820191906000526020600020905b815481529060010190602001808311610eea57829003601f168201915b50505050509050919050565b610f1b6120e5565b6006600083600160a060020a0316600160a060020a03168152602001908152602001600020805480602002602001604051908101604052809291908181526020018280548015610f0757602002820191906000526020600020905b815481526020019060010190808311610f765750505050509050919050565b600e5481565b7fb0aa71870000000000000000000000000000000000000000000000000000000081565b600081815260208190526040812054600160a060020a0316801515610fe357600080fd5b92915050565b60008080803481901015610ffc57600080fd5b60105434101561100b57600080fd5b6012546010540234111561101e57600080fd5b61102785610e05565b151561103257600080fd5b6010543481151561103f57fe5b0493504392506015544311156110555760155492505b50506001810160005b838160ff16101561109e5760008281526016602052604090205415156110935760008281526016602052604090208590556001015b60019091019061105e565b50601555505050565b6000600160a060020a03821615156110be57600080fd5b50600160a060020a031660009081526002602052604090205490565b436000908152601660205260408120541561110f57436000908152601660205260409020546111089061131a565b90506109a5565b50434090565b600b5460009033600160a060020a0390811691161461113357600080fd5b600160a060020a0382166000908152600c602052604090205460ff1615156108fa57600160a060020a0382166000908152600c602052604090819020805460ff191660011790557fd1bba68c128cc3f427e5831b3c6f99f480b6efa6b9e80c757768f6124158cc3f90839051600160a060020a03909116815260200160405180910390a1506001919050565b600b54600160a060020a031681565b600160a060020a0333166000908152600c602052604090205460ff1615156111f557600080fd5b610acc600d83836120f7565b6112096120e5565b60058054600181600116156101000203166002900480601f01602080910402602001604051908101604052809291908181526020018280546001816001161561010002031660029004801561099d5780601f106109725761010080835404028352916020019161099d565b600c6020526000908152604090205460ff1681565b33600160a060020a031682600160a060020a0316141515156112aa57600080fd5b33600160a060020a0390811660008181526003602090815260408083209487168084529490915290819020805460ff19168515151790557f17307eab39ab6107e8899845ad3d59bd9653f200f220920489ca2b5937696c3190849051901515815260200160405180910390a35050565b600061132582610e05565b151561133057600080fd5b5060009081526013602052604090205490565b60105481565b8161135433826116fd565b151561135f57600080fd5b61136a858585610b4b565b61137685858585611a8e565b151561138157600080fd5b5050505050565b60125481565b60115460ff1681565b61139f6120e5565b6108f7600d8054600181600116156101000203166002900480601f0160208091040260200160405190810160405280929190818152602001828054600181600116156101000203166002900480156114385780601f1061140d57610100808354040283529160200191611438565b820191906000526020600020905b81548152906001019060200180831161141b57829003601f168201915b5050505050600a60008581526020019081526020016000208054600181600116156101000203166002900480601f0160208091040260200160405190810160405280929190818152602001828054600181600116156101000203166002900480156114e45780601f106114b9576101008083540402835291602001916114e4565b820191906000526020600020905b8154815290600101906020018083116114c757829003601f168201915b5050505050611be8565b600b54600090819033600160a060020a0390811691161461150e57600080fd5b5060005b8251811015610c535761153983828151811061152a57fe5b90602001906020020151611115565b1561154357600191505b600101611512565b600160a060020a03918216600090815260036020908152604080832093909416825291909152205460ff1690565b600160a060020a0333166000908152600c602052604081205460ff1615156115a057600080fd5b50600f546115ae3382611c32565b6115eb8160408051908101604052601d81527f544f444f202d20646f20736f6d657468696e672077697468207468697300000060208201526116ca565b6000818152601360209081526040808320879055601490915290206116119084846120f7565b50600f5461162690600163ffffffff611c6f16565b600f5550505050565b600b5433600160a060020a0390811691161461164a57600080fd5b600160a060020a038116151561165f57600080fd5b600b54600160a060020a0380831691167f8be0079c531659141344cd1fd0a4f28419497f9722a3daafe3b4186f6b6457e060405160405180910390a3600b805473ffffffffffffffffffffffffffffffffffffffff1916600160a060020a0392909216919091179055565b6116d382610e05565b15156116de57600080fd5b6000828152600a60205260409020818051610acc929160200190612175565b60008061170983610fbf565b905080600160a060020a031684600160a060020a03161480611744575083600160a060020a0316611739846109ba565b600160a060020a0316145b806117545750611754818561154b565b949350505050565b81600160a060020a031661176f82610fbf565b600160a060020a03161461178257600080fd5b600081815260016020526040902054600160a060020a031615610e0157600081815260016020526040808220805473ffffffffffffffffffffffffffffffffffffffff19169055600160a060020a038416907f8c5be1e5ebec7d5bd14f71427d1e84f3dd0314c0f7b2291e5b200ac8c7c3b9259084905190815260200160405180910390a35050565b600080600061181a8585611c7e565b600084815260076020908152604080832054600160a060020a038916845260069092529091205490935061185590600163ffffffff611d1316565b600160a060020a03861660009081526006602052604090208054919350908390811061187d57fe5b6000918252602080832090910154600160a060020a03881683526006909152604090912080549192508291859081106118b257fe5b6000918252602080832090910192909255600160a060020a03871681526006909152604081208054849081106118e457fe5b6000918252602080832090910192909255600160a060020a038716815260069091526040902080549061191b9060001983016121e3565b50600093845260076020526040808520859055908452909220555050565b60006119458383611d25565b50600160a060020a0382166000908152600660205260409020805490816001810161197083826121e3565b506000918252602080832091909101849055928152600790925260409091205550565b60008060006119a28585611db4565b6000848152600a602052604090205460026000196101006001841615020190911604156119e0576000848152600a602052604081206119e091612207565b600084815260096020526040902054600854909350611a0690600163ffffffff611d1316565b9150600882815481101515611a1757fe5b906000526020600020900154905080600884815481101515611a3557fe5b60009182526020822001919091556008805484908110611a5157fe5b6000918252602090912001556008805490611a709060001983016121e3565b50600093845260096020526040808520859055908452909220555050565b600080611aa385600160a060020a0316611e0b565b1515611ab25760019150611bdf565b84600160a060020a031663f0b9e5ba8786866040518463ffffffff167c01000000000000000000000000000000000000000000000000000000000281526004018084600160a060020a0316600160a060020a0316815260200183815260200180602001828103825283818151815260200191508051906020019080838360005b83811015611b4a578082015183820152602001611b32565b50505050905090810190601f168015611b775780820380516001836020036101000a031916815260200191505b50945050505050602060405180830381600087803b1515611b9757600080fd5b5af11515611ba457600080fd5b5050506040518051600160e060020a031981167ff0b9e5ba000000000000000000000000000000000000000000000000000000001493509150505b50949350505050565b611bf06120e5565b611c2b838360206040519081016040528060008152506020604051908101604052806000815250602060405190810160405260008152611e13565b9392505050565b611c3c8282612083565b60088054600083815260096020526040902081905560018101611c5f83826121e3565b5060009182526020909120015550565b600082820183811015611c2b57fe5b81600160a060020a0316611c9182610fbf565b600160a060020a031614611ca457600080fd5b600160a060020a038216600090815260026020526040902054611cce90600163ffffffff611d1316565b600160a060020a039092166000908152600260209081526040808320949094559181529081905220805473ffffffffffffffffffffffffffffffffffffffff19169055565b600082821115611d1f57fe5b50900390565b600081815260208190526040902054600160a060020a031615611d4757600080fd5b600081815260208181526040808320805473ffffffffffffffffffffffffffffffffffffffff1916600160a060020a03871690811790915583526002909152902054611d94906001611c6f565b600160a060020a0390921660009081526002602052604090209190915550565b611dbe828261175c565b611dc8828261180b565b6000600160a060020a0383167fddf252ad1be2c89b69c2b068fc378daa952ba7f163c4a11628f55a4df523b3ef8360405190815260200160405180910390a35050565b6000903b1190565b611e1b6120e5565b611e236120e5565b611e2b6120e5565b611e336120e5565b611e3b6120e5565b611e436120e5565b611e4b6120e5565b611e536120e5565b6000808e98508d97508c96508b95508a94508451865188518a518c5101010101604051805910611e805750595b818152601f19601f83011681016020016040529050935083925060009150600090505b8851811015611efc57888181518110611eb857fe5b016020015160f860020a900460f860020a02838380600101945081518110611edc57fe5b906020010190600160f860020a031916908160001a905350600101611ea3565b5060005b8751811015611f5957878181518110611f1557fe5b016020015160f860020a900460f860020a02838380600101945081518110611f3957fe5b906020010190600160f860020a031916908160001a905350600101611f00565b5060005b8651811015611fb657868181518110611f7257fe5b016020015160f860020a900460f860020a02838380600101945081518110611f9657fe5b906020010190600160f860020a031916908160001a905350600101611f5d565b5060005b855181101561201357858181518110611fcf57fe5b016020015160f860020a900460f860020a02838380600101945081518110611ff357fe5b906020010190600160f860020a031916908160001a905350600101611fba565b5060005b84518110156120705784818151811061202c57fe5b016020015160f860020a900460f860020a0283838060010194508151811061205057fe5b906020010190600160f860020a031916908160001a905350600101612017565b50909d9c50505050505050505050505050565b600160a060020a038216151561209857600080fd5b6120a28282611939565b600160a060020a03821660007fddf252ad1be2c89b69c2b068fc378daa952ba7f163c4a11628f55a4df523b3ef8360405190815260200160405180910390a35050565b60206040519081016040526000815290565b828054600181600116156101000203166002900490600052602060002090601f016020900481019282601f106121385782800160ff19823516178555612165565b82800160010185558215612165579182015b8281111561216557823582559160200191906001019061214a565b5061217192915061224e565b5090565b828054600181600116156101000203166002900490600052602060002090601f016020900481019282601f106121b657805160ff1916838001178555612165565b82800160010185558215612165579182015b828111156121655782518255916020019190600101906121c8565b815481835581811511610acc57600083815260209020610acc91810190830161224e565b50805460018160011615610100020316600290046000825580601f1061222d575061224b565b601f01602090049060005260206000209081019061224b919061224e565b50565b6109a591905b8082111561217157600081556001016122545600a165627a7a72305820bf4d1b815f0a439cd9d39abdb7ab5c02cc8570647c6b565cfafa69a8bf5ba8700029",
  "source": "pragma solidity ^0.4.21;\n\n\nimport \"./ERC721Token.sol\";\n\nimport \"./Strings.sol\";\n\nimport \"./ERC165.sol\";\n\nimport \"./Whitelist.sol\";\n\n\n/**\n* @title DART\n*/\ncontract DART is ERC721Token, ERC165, Whitelist {\n  using SafeMath for uint256;\n\n  bytes4 constant InterfaceSignature_ERC165 = 0x01ffc9a7;\n  /*\n  bytes4(keccak256('supportsInterface(bytes4)'));\n  */\n\n  bytes4 constant InterfaceSignature_ERC721Enumerable = 0x780e9d63;\n  /*\n  bytes4(keccak256('totalSupply()')) ^\n  bytes4(keccak256('tokenOfOwnerByIndex(address,uint256)')) ^\n  bytes4(keccak256('tokenByIndex(uint256)'));\n  */\n\n  bytes4 constant InterfaceSignature_ERC721Metadata = 0x5b5e139f;\n  /*\n  bytes4(keccak256('name()')) ^\n  bytes4(keccak256('symbol()')) ^\n  bytes4(keccak256('tokenURI(uint256)'));\n  */\n\n  bytes4 constant InterfaceSignature_ERC721 = 0x80ac58cd;\n  /*\n  bytes4(keccak256('balanceOf(address)')) ^\n  bytes4(keccak256('ownerOf(uint256)')) ^\n  bytes4(keccak256('approve(address,uint256)')) ^\n  bytes4(keccak256('getApproved(uint256)')) ^\n  bytes4(keccak256('setApprovalForAll(address,bool)')) ^\n  bytes4(keccak256('isApprovedForAll(address,address)')) ^\n  bytes4(keccak256('transferFrom(address,address,uint256)')) ^\n  bytes4(keccak256('safeTransferFrom(address,address,uint256)')) ^\n  bytes4(keccak256('safeTransferFrom(address,address,uint256,bytes)'));\n  */\n\n  bytes4 public constant InterfaceSignature_ERC721Optional = - 0x4f558e79;\n  /*\n  bytes4(keccak256('exists(uint256)'));\n  */\n\n  /**\n   * @notice Introspection interface as per ERC-165 (https://github.com/ethereum/EIPs/issues/165).\n   * @dev Returns true for any standardized interfaces implemented by this contract.\n   * @param _interfaceID bytes4 the interface to check for\n   * @return true for any standardized interfaces implemented by this contract.\n   */\n  function supportsInterface(bytes4 _interfaceID) external pure returns (bool) {\n    return ((_interfaceID == InterfaceSignature_ERC165)\n    || (_interfaceID == InterfaceSignature_ERC721)\n    || (_interfaceID == InterfaceSignature_ERC721Optional)\n    || (_interfaceID == InterfaceSignature_ERC721Enumerable)\n    || (_interfaceID == InterfaceSignature_ERC721Metadata));\n  }\n\n  string internal tokenBaseURI = \"https://ipfs.infura.io/ipfs/\";\n\n  // total wei sent to the  contract\n  uint256 public totalContributionsInWei;\n\n  // A pointer to the next token to be minted, zero indexed\n  uint256 public tokenIdPointer = 0;\n\n  // TODO handle setting these per contract/installation\n  // the price to display per block\n  uint256 public pricePerBlock = 0.01 ether;\n\n  // TODO handle setting these per contract/installation\n  // percentage of all funds received which is directed to a donation address\n  uint8 public donationPercentage = 1;\n\n  // TODO handle setting these per contract/installation\n  // max number of blocks allowed to purchased in one go (mainly for gas costs, this should be kept fairly low for now)\n  uint256 public maxBlockPurchaseInOneGo = 10;\n\n  // Token ID to block hash\n  mapping (uint256 => bytes32) internal tokenIdToBlockhash;\n\n  //Token ID to nickname\n  mapping (uint256 => string) internal tokenIdToNickname;\n\n  uint256 workingBlockCounter = 0;\n\n  mapping (uint256 => uint256) internal blockToTokenIdToDisplay;\n\n  modifier onlyDARTOwnedToken(uint256 _tokenId) {\n    require(tokenOwner[_tokenId] == owner);\n    _;\n  }\n\n  modifier onlyValidAmounts() {\n    // Some value\n    require(msg.value >= 0);\n\n    // Min price\n    require(msg.value >= pricePerBlock);\n\n    // max price\n    require(msg.value <= (pricePerBlock * maxBlockPurchaseInOneGo));\n    _;\n  }\n\n  function DART() public ERC721Token(\"Digital Art\", \"DART\") {\n    // set to current block mined in\n    workingBlockCounter = block.number;\n\n    // TODO handle setting these/configuring\n    super.addAddressToWhitelist(msg.sender);\n    super.addAddressToWhitelist(0xf43aE50C468c3D3Fa0C3dC3454E797317EF53078);\n    super.addAddressToWhitelist(0xe1023C112A39c58238929153F25364c11A33B729);\n  }\n\n  // don't accept payment directly to contract\n  function() public payable {\n    // TODO handle payments, redirect to donations address?\n    revert();\n  }\n\n  /**\n   * @dev Funds your token to be displayed for a specific amount of time\n   * @param _tokenId the DART token ID\n   */\n  function fundDart(uint256 _tokenId) public payable onlyValidAmounts {\n    require(exists(_tokenId));\n\n    // determine how many blocks purchased\n    uint256 blocksPurchased = msg.value / pricePerBlock;\n\n    uint256 currentBlock = block.number;\n\n    // move current block on if already past last purchased block count, reduces while loop costs\n    if (block.number > workingBlockCounter) {\n      currentBlock = workingBlockCounter;\n    }\n\n    uint256 nextBlock = currentBlock + 1;\n\n    uint8 i = 0;\n    while (i < blocksPurchased) {\n\n      // if no one has the next block, set next block to this token\n      if (blockToTokenIdToDisplay[nextBlock] == 0) {\n        blockToTokenIdToDisplay[nextBlock] = _tokenId;\n        i++;\n      }\n\n      // move next block on to find another free space\n      nextBlock++;\n    }\n\n    // update where the current work block is (TODO is this needed)\n    workingBlockCounter = nextBlock;\n\n    // TODO splice monies to various parties\n  }\n\n  /**\n   * @dev Mint a new DART token\n   * @dev Reverts if not called by curator\n   * @param _blockHash an ethereum block hash\n   * @param _nickname char stamp of token owner\n   */\n  function mint(bytes32 _blockHash, string _nickname) external onlyWhitelisted {\n    uint256 _tokenId = tokenIdPointer;\n\n    // actually mint the token\n    super._mint(msg.sender, _tokenId);\n\n    // TODO handle this\n    super._setTokenURI(_tokenId, \"TODO - do something with this\");\n\n    // set data\n    tokenIdToBlockhash[_tokenId] = _blockHash;\n    tokenIdToNickname[_tokenId] = _nickname;\n\n    // bump pointer on\n    tokenIdPointer = tokenIdPointer.add(1);\n  }\n\n  /**\n   * @dev Burns a DART token\n   * @dev Reverts if token is not unsold or not owned by management\n   * @param _tokenId the DART token ID\n   */\n  function burn(uint256 _tokenId) external onlyWhitelisted onlyDARTOwnedToken(_tokenId) {\n    require(exists(_tokenId));\n    super._burn(ownerOf(_tokenId), _tokenId);\n  }\n\n  /**\n   * @dev Utility function for updating a DART assets token URI\n   * @dev Reverts if not called by management\n   * @param _tokenId the DART token ID\n   * @param _uri the token URI, will be concatenated with baseUri\n   */\n  function setTokenURI(uint256 _tokenId, string _uri) external onlyWhitelisted {\n    require(exists(_tokenId));\n    _setTokenURI(_tokenId, _uri);\n  }\n\n  /**\n   * @dev Return owned tokens\n   * @param _owner address to query\n   */\n  function tokensOf(address _owner) public view returns (uint256[] _tokenIds) {\n    return ownedTokens[_owner];\n  }\n\n  /**\n  * @dev Return handle of token\n  * @param _tokenId token ID for handle lookup\n  */\n  function nicknameOf(uint256 _tokenId) public view returns (string _nickname) {\n    return tokenIdToNickname[_tokenId];\n  }\n\n  /**\n  * @dev Return blockhash of the DART token\n   * @param _tokenId the DART token ID\n  */\n  function blockhashOf(uint256 _tokenId) public view returns (bytes32 hash) {\n    return tokenIdToBlockhash[_tokenId];\n  }\n\n  /**\n   * @dev Get token URI fro the given token, useful for testing purposes\n   * @param _tokenId the DART token ID\n   * @return the token ID or only the base URI if not found\n   */\n  function tokenURI(uint256 _tokenId) public view returns (string) {\n    return Strings.strConcat(tokenBaseURI, tokenURIs[_tokenId]);\n  }\n\n  /**\n   * @dev Allows management to update the base tokenURI path\n   * @dev Reverts if not called by management\n   * @param _newBaseURI the new base URI to set\n   */\n  function setTokenBaseURI(string _newBaseURI) external onlyWhitelisted {\n    tokenBaseURI = _newBaseURI;\n  }\n\n  /**\n   * @dev Generates a unique token hash for the token and handle\n   * @param _tokenId the DART token ID\n   */\n  function tokenHash(uint256 _tokenId) public view returns (bytes32) {\n    require(exists(_tokenId));\n    // TODO decide on hashing function\n//    return keccak256(Strings.strConcat(bytes32ToString(bytes32(_tokenId)), \":\", tokenIdToNickname[_tokenId]));\n    return tokenIdToBlockhash[_tokenId];\n  }\n\n  /**\n   * @dev Generates a unique token hash for the token and handle\n   */\n  function nextHash() public view returns (bytes32 _tokenHash) {\n\n    // if current block number has been allocated then use it\n    if (blockToTokenIdToDisplay[block.number] != 0) {\n      return tokenHash(blockToTokenIdToDisplay[block.number]);\n    }\n\n    // if no one own the current blockhash return current\n    return block.blockhash(block.number);\n  }\n\n  function bytes32ToString(bytes32 data) internal pure returns (string) {\n    bytes memory bytesString = new bytes(32);\n    for (uint j = 0; j < 32; j++) {\n      byte char = byte(bytes32(uint(data) * 2 ** (8 * j)));\n      if (char != 0) {\n        bytesString[j] = char;\n      }\n    }\n    return string(bytesString);\n  }\n}\n",
  "sourcePath": "/Users/jamesmorgan/Dropbox/workspace-blockrocket/art-blocks/contracts/DART.sol",
  "compiler": {
    "name": "solc",
    "version": "0.4.21+commit.dfe3193c.Emscripten.clang"
  },
  "schemaVersion": "2.0.0",
  "updatedAt": "2018-04-26T15:29:18.082Z"
}