{
  "contractName": "ERC721ReceiverMock",
  "abi": [
    {
      "inputs": [
        {
          "name": "_retval",
          "type": "bytes4"
        },
        {
          "name": "_reverts",
          "type": "bool"
        }
      ],
      "payable": false,
      "stateMutability": "nonpayable",
      "type": "constructor"
    },
    {
      "anonymous": false,
      "inputs": [
        {
          "indexed": false,
          "name": "_address",
          "type": "address"
        },
        {
          "indexed": false,
          "name": "_tokenId",
          "type": "uint256"
        },
        {
          "indexed": false,
          "name": "_data",
          "type": "bytes"
        },
        {
          "indexed": false,
          "name": "_gas",
          "type": "uint256"
        }
      ],
      "name": "Received",
      "type": "event"
    },
    {
      "constant": false,
      "inputs": [
        {
          "name": "_address",
          "type": "address"
        },
        {
          "name": "_tokenId",
          "type": "uint256"
        },
        {
          "name": "_data",
          "type": "bytes"
        }
      ],
      "name": "onERC721Received",
      "outputs": [
        {
          "name": "",
          "type": "bytes4"
        }
      ],
      "payable": false,
      "stateMutability": "nonpayable",
      "type": "function"
    }
  ],
  "bytecode": "0x608060405234801561001057600080fd5b506040516040806102be833981016040528051602090910151600080549115156401000000000264ff00000000197c010000000000000000000000000000000000000000000000000000000090940463ffffffff19909316929092179290921617905561023c806100826000396000f3006080604052600436106100405763ffffffff7c0100000000000000000000000000000000000000000000000000000000600035041663f0b9e5ba8114610045575b600080fd5b34801561005157600080fd5b50604080516020600460443581810135601f81018490048402850184019095528484526100bb94823573ffffffffffffffffffffffffffffffffffffffff169460248035953695946064949201919081908401838280828437509497506100f09650505050505050565b604080517fffffffff000000000000000000000000000000000000000000000000000000009092168252519081900360200190f35b60008054640100000000900460ff161561010957600080fd5b7f52548e4e28236d78290c101c358cfbcd432a3b9c0063ecb10e6cb5aad585329b8484845a604051808573ffffffffffffffffffffffffffffffffffffffff1673ffffffffffffffffffffffffffffffffffffffff16815260200184815260200180602001838152602001828103825284818151815260200191508051906020019080838360005b838110156101a9578181015183820152602001610191565b50505050905090810190601f1680156101d65780820380516001836020036101000a031916815260200191505b509550505050505060405180910390a1506000547c01000000000000000000000000000000000000000000000000000000000293925050505600a165627a7a72305820280420d2d176fb1cddaf8ba7d2620f8e2cd44a8713125635813d83e2168c85330029",
  "source": "pragma solidity ^0.4.18;\n\nimport \"openzeppelin-solidity/contracts/token/ERC721/ERC721Receiver.sol\";\n\ncontract ERC721ReceiverMock is ERC721Receiver {\n  bytes4 retval;\n  bool reverts;\n\n  event Received(address _address, uint256 _tokenId, bytes _data, uint256 _gas);\n\n  function ERC721ReceiverMock(bytes4 _retval, bool _reverts) public {\n    retval = _retval;\n    reverts = _reverts;\n  }\n\n  function onERC721Received(address _address, uint256 _tokenId, bytes _data) public returns(bytes4) {\n    require(!reverts);\n    Received(_address, _tokenId, _data, msg.gas);\n    return retval;\n  }\n}\n",
  "sourcePath": "/Users/andy/workspace/art-blocks/contracts/mocks/ERC721ReceiverMock.sol",
  "compiler": {
    "name": "solc",
    "version": "0.4.24+commit.e67f0147.Emscripten.clang"
  },
  "schemaVersion": "2.0.0",
  "updatedAt": "2018-06-22T12:56:28.549Z"
}