{
  "contractName": "ERC721Token",
  "abi": [
    {
      "constant": true,
      "inputs": [
        {
          "name": "_tokenId",
          "type": "uint256"
        }
      ],
      "name": "getApproved",
      "outputs": [
        {
          "name": "",
          "type": "address"
        }
      ],
      "payable": false,
      "stateMutability": "view",
      "type": "function"
    },
    {
      "constant": false,
      "inputs": [
        {
          "name": "_to",
          "type": "address"
        },
        {
          "name": "_tokenId",
          "type": "uint256"
        }
      ],
      "name": "approve",
      "outputs": [],
      "payable": false,
      "stateMutability": "nonpayable",
      "type": "function"
    },
    {
      "constant": false,
      "inputs": [
        {
          "name": "_from",
          "type": "address"
        },
        {
          "name": "_to",
          "type": "address"
        },
        {
          "name": "_tokenId",
          "type": "uint256"
        }
      ],
      "name": "transferFrom",
      "outputs": [],
      "payable": false,
      "stateMutability": "nonpayable",
      "type": "function"
    },
    {
      "constant": false,
      "inputs": [
        {
          "name": "_from",
          "type": "address"
        },
        {
          "name": "_to",
          "type": "address"
        },
        {
          "name": "_tokenId",
          "type": "uint256"
        }
      ],
      "name": "safeTransferFrom",
      "outputs": [],
      "payable": false,
      "stateMutability": "nonpayable",
      "type": "function"
    },
    {
      "constant": true,
      "inputs": [
        {
          "name": "_tokenId",
          "type": "uint256"
        }
      ],
      "name": "exists",
      "outputs": [
        {
          "name": "",
          "type": "bool"
        }
      ],
      "payable": false,
      "stateMutability": "view",
      "type": "function"
    },
    {
      "constant": true,
      "inputs": [
        {
          "name": "_tokenId",
          "type": "uint256"
        }
      ],
      "name": "ownerOf",
      "outputs": [
        {
          "name": "",
          "type": "address"
        }
      ],
      "payable": false,
      "stateMutability": "view",
      "type": "function"
    },
    {
      "constant": true,
      "inputs": [
        {
          "name": "_owner",
          "type": "address"
        }
      ],
      "name": "balanceOf",
      "outputs": [
        {
          "name": "",
          "type": "uint256"
        }
      ],
      "payable": false,
      "stateMutability": "view",
      "type": "function"
    },
    {
      "constant": false,
      "inputs": [
        {
          "name": "_to",
          "type": "address"
        },
        {
          "name": "_approved",
          "type": "bool"
        }
      ],
      "name": "setApprovalForAll",
      "outputs": [],
      "payable": false,
      "stateMutability": "nonpayable",
      "type": "function"
    },
    {
      "constant": false,
      "inputs": [
        {
          "name": "_from",
          "type": "address"
        },
        {
          "name": "_to",
          "type": "address"
        },
        {
          "name": "_tokenId",
          "type": "uint256"
        },
        {
          "name": "_data",
          "type": "bytes"
        }
      ],
      "name": "safeTransferFrom",
      "outputs": [],
      "payable": false,
      "stateMutability": "nonpayable",
      "type": "function"
    },
    {
      "constant": true,
      "inputs": [
        {
          "name": "_owner",
          "type": "address"
        },
        {
          "name": "_operator",
          "type": "address"
        }
      ],
      "name": "isApprovedForAll",
      "outputs": [
        {
          "name": "",
          "type": "bool"
        }
      ],
      "payable": false,
      "stateMutability": "view",
      "type": "function"
    },
    {
      "inputs": [
        {
          "name": "_name",
          "type": "string"
        },
        {
          "name": "_symbol",
          "type": "string"
        }
      ],
      "payable": false,
      "stateMutability": "nonpayable",
      "type": "constructor"
    },
    {
      "anonymous": false,
      "inputs": [
        {
          "indexed": true,
          "name": "_from",
          "type": "address"
        },
        {
          "indexed": true,
          "name": "_to",
          "type": "address"
        },
        {
          "indexed": false,
          "name": "_tokenId",
          "type": "uint256"
        }
      ],
      "name": "Transfer",
      "type": "event"
    },
    {
      "anonymous": false,
      "inputs": [
        {
          "indexed": true,
          "name": "_owner",
          "type": "address"
        },
        {
          "indexed": true,
          "name": "_approved",
          "type": "address"
        },
        {
          "indexed": false,
          "name": "_tokenId",
          "type": "uint256"
        }
      ],
      "name": "Approval",
      "type": "event"
    },
    {
      "anonymous": false,
      "inputs": [
        {
          "indexed": true,
          "name": "_owner",
          "type": "address"
        },
        {
          "indexed": true,
          "name": "_operator",
          "type": "address"
        },
        {
          "indexed": false,
          "name": "_approved",
          "type": "bool"
        }
      ],
      "name": "ApprovalForAll",
      "type": "event"
    },
    {
      "constant": true,
      "inputs": [],
      "name": "name",
      "outputs": [
        {
          "name": "",
          "type": "string"
        }
      ],
      "payable": false,
      "stateMutability": "view",
      "type": "function"
    },
    {
      "constant": true,
      "inputs": [],
      "name": "symbol",
      "outputs": [
        {
          "name": "",
          "type": "string"
        }
      ],
      "payable": false,
      "stateMutability": "view",
      "type": "function"
    },
    {
      "constant": true,
      "inputs": [
        {
          "name": "_tokenId",
          "type": "uint256"
        }
      ],
      "name": "tokenURI",
      "outputs": [
        {
          "name": "",
          "type": "string"
        }
      ],
      "payable": false,
      "stateMutability": "view",
      "type": "function"
    },
    {
      "constant": true,
      "inputs": [
        {
          "name": "_owner",
          "type": "address"
        },
        {
          "name": "_index",
          "type": "uint256"
        }
      ],
      "name": "tokenOfOwnerByIndex",
      "outputs": [
        {
          "name": "",
          "type": "uint256"
        }
      ],
      "payable": false,
      "stateMutability": "view",
      "type": "function"
    },
    {
      "constant": true,
      "inputs": [],
      "name": "totalSupply",
      "outputs": [
        {
          "name": "",
          "type": "uint256"
        }
      ],
      "payable": false,
      "stateMutability": "view",
      "type": "function"
    },
    {
      "constant": true,
      "inputs": [
        {
          "name": "_index",
          "type": "uint256"
        }
      ],
      "name": "tokenByIndex",
      "outputs": [
        {
          "name": "",
          "type": "uint256"
        }
      ],
      "payable": false,
      "stateMutability": "view",
      "type": "function"
    }
  ],
  "bytecode": "0x606060405234156200001057600080fd5b604051620010903803806200109083398101604052808051820191906020018051909101905060048280516200004b9291602001906200006a565b506005818051620000619291602001906200006a565b5050506200010f565b828054600181600116156101000203166002900490600052602060002090601f016020900481019282601f10620000ad57805160ff1916838001178555620000dd565b82800160010185558215620000dd579182015b82811115620000dd578251825591602001919060010190620000c0565b50620000eb929150620000ef565b5090565b6200010c91905b80821115620000eb5760008155600101620000f6565b90565b610f71806200011f6000396000f3006060604052600436106100e55763ffffffff7c010000000000000000000000000000000000000000000000000000000060003504166306fdde0381146100ea578063081812fc14610174578063095ea7b3146101a657806318160ddd146101ca57806323b872dd146101ef5780632f745c591461021757806342842e0e146102395780634f558e79146102615780634f6ccce71461028b5780636352211e146102a157806370a08231146102b757806395d89b41146102d6578063a22cb465146102e9578063b88d4fde1461030d578063c87b56dd14610379578063e985e9c51461038f575b600080fd5b34156100f557600080fd5b6100fd6103b4565b60405160208082528190810183818151815260200191508051906020019080838360005b83811015610139578082015183820152602001610121565b50505050905090810190601f1680156101665780820380516001836020036101000a031916815260200191505b509250505060405180910390f35b341561017f57600080fd5b61018a60043561045d565b604051600160a060020a03909116815260200160405180910390f35b34156101b157600080fd5b6101c8600160a060020a0360043516602435610478565b005b34156101d557600080fd5b6101dd610574565b60405190815260200160405180910390f35b34156101fa57600080fd5b6101c8600160a060020a036004358116906024351660443561057a565b341561022257600080fd5b6101dd600160a060020a0360043516602435610625565b341561024457600080fd5b6101c8600160a060020a0360043581169060243516604435610673565b341561026c57600080fd5b6102776004356106a9565b604051901515815260200160405180910390f35b341561029657600080fd5b6101dd6004356106c6565b34156102ac57600080fd5b61018a6004356106fc565b34156102c257600080fd5b6101dd600160a060020a0360043516610726565b34156102e157600080fd5b6100fd610759565b34156102f457600080fd5b6101c8600160a060020a036004351660243515156107cc565b341561031857600080fd5b6101c8600160a060020a036004803582169160248035909116916044359160849060643590810190830135806020601f8201819004810201604051908101604052818152929190602084018383808284375094965061085d95505050505050565b341561038457600080fd5b6100fd60043561089c565b341561039a57600080fd5b610277600160a060020a036004358116906024351661096b565b6103bc610ef6565b60048054600181600116156101000203166002900480601f0160208091040260200160405190810160405280929190818152602001828054600181600116156101000203166002900480156104525780601f1061042757610100808354040283529160200191610452565b820191906000526020600020905b81548152906001019060200180831161043557829003601f168201915b505050505090505b90565b600090815260016020526040902054600160a060020a031690565b6000610483826106fc565b9050600160a060020a03838116908216141561049e57600080fd5b80600160a060020a031633600160a060020a031614806104c357506104c3813361096b565b15156104ce57600080fd5b60006104d98361045d565b600160a060020a03161415806104f75750600160a060020a03831615155b1561056f5760008281526001602052604090819020805473ffffffffffffffffffffffffffffffffffffffff1916600160a060020a0386811691821790925591908316907f8c5be1e5ebec7d5bd14f71427d1e84f3dd0314c0f7b2291e5b200ac8c7c3b9259085905190815260200160405180910390a35b505050565b60085490565b806105853382610999565b151561059057600080fd5b600160a060020a03841615156105a557600080fd5b600160a060020a03831615156105ba57600080fd5b6105c484836109f8565b6105ce8483610aa8565b6105d88383610bd6565b82600160a060020a031684600160a060020a03167fddf252ad1be2c89b69c2b068fc378daa952ba7f163c4a11628f55a4df523b3ef8460405190815260200160405180910390a350505050565b600061063083610726565b821061063b57600080fd5b600160a060020a038316600090815260066020526040902080548390811061065f57fe5b906000526020600020900154905092915050565b8061067e3382610999565b151561068957600080fd5b6106a384848460206040519081016040526000815261085d565b50505050565b600090815260208190526040902054600160a060020a0316151590565b60006106d0610574565b82106106db57600080fd5b60088054839081106106e957fe5b9060005260206000209001549050919050565b600081815260208190526040812054600160a060020a031680151561072057600080fd5b92915050565b6000600160a060020a038216151561073d57600080fd5b50600160a060020a031660009081526002602052604090205490565b610761610ef6565b60058054600181600116156101000203166002900480601f0160208091040260200160405190810160405280929190818152602001828054600181600116156101000203166002900480156104525780601f1061042757610100808354040283529160200191610452565b33600160a060020a031682600160a060020a0316141515156107ed57600080fd5b33600160a060020a0390811660008181526003602090815260408083209487168084529490915290819020805460ff19168515151790557f17307eab39ab6107e8899845ad3d59bd9653f200f220920489ca2b5937696c3190849051901515815260200160405180910390a35050565b816108683382610999565b151561087357600080fd5b61087e85858561057a565b61088a85858585610c30565b151561089557600080fd5b5050505050565b6108a4610ef6565b6108ad826106a9565b15156108b857600080fd5b600a60008381526020019081526020016000208054600181600116156101000203166002900480601f01602080910402602001604051908101604052809291908181526020018280546001816001161561010002031660029004801561095f5780601f106109345761010080835404028352916020019161095f565b820191906000526020600020905b81548152906001019060200180831161094257829003601f168201915b50505050509050919050565b600160a060020a03918216600090815260036020908152604080832093909416825291909152205460ff1690565b6000806109a5836106fc565b905080600160a060020a031684600160a060020a031614806109e0575083600160a060020a03166109d58461045d565b600160a060020a0316145b806109f057506109f0818561096b565b949350505050565b81600160a060020a0316610a0b826106fc565b600160a060020a031614610a1e57600080fd5b600081815260016020526040902054600160a060020a031615610aa457600081815260016020526040808220805473ffffffffffffffffffffffffffffffffffffffff19169055600160a060020a038416907f8c5be1e5ebec7d5bd14f71427d1e84f3dd0314c0f7b2291e5b200ac8c7c3b9259084905190815260200160405180910390a35b5050565b6000806000610ab78585610da2565b600084815260076020908152604080832054600160a060020a0389168452600690925290912054909350610af290600163ffffffff610e3716565b600160a060020a038616600090815260066020526040902080549193509083908110610b1a57fe5b6000918252602080832090910154600160a060020a0388168352600690915260409091208054919250829185908110610b4f57fe5b6000918252602080832090910192909255600160a060020a0387168152600690915260408120805484908110610b8157fe5b6000918252602080832090910192909255600160a060020a0387168152600690915260409020805490610bb8906000198301610f08565b50600093845260076020526040808520859055908452909220555050565b6000610be28383610e49565b50600160a060020a03821660009081526006602052604090208054908160018101610c0d8382610f08565b506000918252602080832091909101849055928152600790925260409091205550565b600080610c4585600160a060020a0316610ed8565b1515610c545760019150610d99565b84600160a060020a031663f0b9e5ba8786866040518463ffffffff167c01000000000000000000000000000000000000000000000000000000000281526004018084600160a060020a0316600160a060020a0316815260200183815260200180602001828103825283818151815260200191508051906020019080838360005b83811015610cec578082015183820152602001610cd4565b50505050905090810190601f168015610d195780820380516001836020036101000a031916815260200191505b50945050505050602060405180830381600087803b1515610d3957600080fd5b5af11515610d4657600080fd5b50505060405180517fffffffff0000000000000000000000000000000000000000000000000000000081167ff0b9e5ba000000000000000000000000000000000000000000000000000000001493509150505b50949350505050565b81600160a060020a0316610db5826106fc565b600160a060020a031614610dc857600080fd5b600160a060020a038216600090815260026020526040902054610df290600163ffffffff610e3716565b600160a060020a039092166000908152600260209081526040808320949094559181529081905220805473ffffffffffffffffffffffffffffffffffffffff19169055565b600082821115610e4357fe5b50900390565b600081815260208190526040902054600160a060020a031615610e6b57600080fd5b600081815260208181526040808320805473ffffffffffffffffffffffffffffffffffffffff1916600160a060020a03871690811790915583526002909152902054610eb8906001610ee0565b600160a060020a0390921660009081526002602052604090209190915550565b6000903b1190565b600082820183811015610eef57fe5b9392505050565b60206040519081016040526000815290565b81548183558181151161056f5760008381526020902061056f91810190830161045a91905b80821115610f415760008155600101610f2d565b50905600a165627a7a723058203af57f2f33317e22d89f7a9371de99921f71f5a138ae68006842fda560bd73e70029",
  "source": "pragma solidity ^0.4.21;\n\nimport \"./ERC721.sol\";\nimport \"./ERC721BasicToken.sol\";\n\n\n/**\n * @title Full ERC721 Token\n * This implementation includes all the required and some optional functionality of the ERC721 standard\n * Moreover, it includes approve all functionality using operator terminology\n * @dev see https://github.com/ethereum/EIPs/blob/master/EIPS/eip-721.md\n */\ncontract ERC721Token is ERC721, ERC721BasicToken {\n  // Token name\n  string internal name_;\n\n  // Token symbol\n  string internal symbol_;\n\n  // Mapping from owner to list of owned token IDs\n  mapping (address => uint256[]) internal ownedTokens;\n\n  // Mapping from token ID to index of the owner tokens list\n  mapping(uint256 => uint256) internal ownedTokensIndex;\n\n  // Array with all token ids, used for enumeration\n  uint256[] internal allTokens;\n\n  // Mapping from token id to position in the allTokens array\n  mapping(uint256 => uint256) internal allTokensIndex;\n\n  // Optional mapping for token URIs\n  mapping(uint256 => string) internal tokenURIs;\n\n  /**\n  * @dev Constructor function\n  */\n  function ERC721Token(string _name, string _symbol) public {\n    name_ = _name;\n    symbol_ = _symbol;\n  }\n\n  /**\n  * @dev Gets the token name\n  * @return string representing the token name\n  */\n  function name() public view returns (string) {\n    return name_;\n  }\n\n  /**\n  * @dev Gets the token symbol\n  * @return string representing the token symbol\n  */\n  function symbol() public view returns (string) {\n    return symbol_;\n  }\n\n  /**\n  * @dev Returns an URI for a given token ID\n  * @dev Throws if the token ID does not exist. May return an empty string.\n  * @param _tokenId uint256 ID of the token to query\n  */\n  function tokenURI(uint256 _tokenId) public view returns (string) {\n    require(exists(_tokenId));\n    return tokenURIs[_tokenId];\n  }\n\n  /**\n  * @dev Internal function to set the token URI for a given token\n  * @dev Reverts if the token ID does not exist\n  * @param _tokenId uint256 ID of the token to set its URI\n  * @param _uri string URI to assign\n  */\n  function _setTokenURI(uint256 _tokenId, string _uri) internal {\n    require(exists(_tokenId));\n    tokenURIs[_tokenId] = _uri;\n  }\n\n  /**\n  * @dev Gets the token ID at a given index of the tokens list of the requested owner\n  * @param _owner address owning the tokens list to be accessed\n  * @param _index uint256 representing the index to be accessed of the requested tokens list\n  * @return uint256 token ID at the given index of the tokens list owned by the requested address\n  */\n  function tokenOfOwnerByIndex(address _owner, uint256 _index) public view returns (uint256) {\n    require(_index < balanceOf(_owner));\n    return ownedTokens[_owner][_index];\n  }\n\n  /**\n  * @dev Gets the total amount of tokens stored by the contract\n  * @return uint256 representing the total amount of tokens\n  */\n  function totalSupply() public view returns (uint256) {\n    return allTokens.length;\n  }\n\n  /**\n  * @dev Gets the token ID at a given index of all the tokens in this contract\n  * @dev Reverts if the index is greater or equal to the total number of tokens\n  * @param _index uint256 representing the index to be accessed of the tokens list\n  * @return uint256 token ID at the given index of the tokens list\n  */\n  function tokenByIndex(uint256 _index) public view returns (uint256) {\n    require(_index < totalSupply());\n    return allTokens[_index];\n  }\n\n  /**\n  * @dev Internal function to add a token ID to the list of a given address\n  * @param _to address representing the new owner of the given token ID\n  * @param _tokenId uint256 ID of the token to be added to the tokens list of the given address\n  */\n  function addTokenTo(address _to, uint256 _tokenId) internal {\n    super.addTokenTo(_to, _tokenId);\n    uint256 length = ownedTokens[_to].length;\n    ownedTokens[_to].push(_tokenId);\n    ownedTokensIndex[_tokenId] = length;\n  }\n\n  /**\n  * @dev Internal function to remove a token ID from the list of a given address\n  * @param _from address representing the previous owner of the given token ID\n  * @param _tokenId uint256 ID of the token to be removed from the tokens list of the given address\n  */\n  function removeTokenFrom(address _from, uint256 _tokenId) internal {\n    super.removeTokenFrom(_from, _tokenId);\n\n    uint256 tokenIndex = ownedTokensIndex[_tokenId];\n    uint256 lastTokenIndex = ownedTokens[_from].length.sub(1);\n    uint256 lastToken = ownedTokens[_from][lastTokenIndex];\n\n    ownedTokens[_from][tokenIndex] = lastToken;\n    ownedTokens[_from][lastTokenIndex] = 0;\n    // Note that this will handle single-element arrays. In that case, both tokenIndex and lastTokenIndex are going to\n    // be zero. Then we can make sure that we will remove _tokenId from the ownedTokens list since we are first swapping\n    // the lastToken to the first position, and then dropping the element placed in the last position of the list\n\n    ownedTokens[_from].length--;\n    ownedTokensIndex[_tokenId] = 0;\n    ownedTokensIndex[lastToken] = tokenIndex;\n  }\n\n  /**\n  * @dev Internal function to mint a new token\n  * @dev Reverts if the given token ID already exists\n  * @param _to address the beneficiary that will own the minted token\n  * @param _tokenId uint256 ID of the token to be minted by the msg.sender\n  */\n  function _mint(address _to, uint256 _tokenId) internal {\n    super._mint(_to, _tokenId);\n\n    allTokensIndex[_tokenId] = allTokens.length;\n    allTokens.push(_tokenId);\n  }\n\n  /**\n  * @dev Internal function to burn a specific token\n  * @dev Reverts if the token does not exist\n  * @param _owner owner of the token to burn\n  * @param _tokenId uint256 ID of the token being burned by the msg.sender\n  */\n  function _burn(address _owner, uint256 _tokenId) internal {\n    super._burn(_owner, _tokenId);\n\n    // Clear metadata (if any)\n    if (bytes(tokenURIs[_tokenId]).length != 0) {\n      delete tokenURIs[_tokenId];\n    }\n\n    // Reorg all tokens array\n    uint256 tokenIndex = allTokensIndex[_tokenId];\n    uint256 lastTokenIndex = allTokens.length.sub(1);\n    uint256 lastToken = allTokens[lastTokenIndex];\n\n    allTokens[tokenIndex] = lastToken;\n    allTokens[lastTokenIndex] = 0;\n\n    allTokens.length--;\n    allTokensIndex[_tokenId] = 0;\n    allTokensIndex[lastToken] = tokenIndex;\n  }\n\n}\n",
  "sourcePath": "/Users/andy/workspace/art-blocks/contracts/ERC721Token.sol",
  "compiler": {
    "name": "solc",
    "version": "0.4.21+commit.dfe3193c.Emscripten.clang"
  },
  "schemaVersion": "2.0.0",
  "updatedAt": "2018-05-20T09:22:28.907Z"
}