{
  "contractName": "InterfaceToken",
  "abi": [
    {
      "constant": true,
      "inputs": [
        {
          "name": "_interfaceId",
          "type": "bytes4"
        }
      ],
      "name": "supportsInterface",
      "outputs": [
        {
          "name": "",
          "type": "bool"
        }
      ],
      "payable": false,
      "stateMutability": "view",
      "type": "function"
    },
    {
      "constant": true,
      "inputs": [],
      "name": "name",
      "outputs": [
        {
          "name": "",
          "type": "string"
        }
      ],
      "payable": false,
      "stateMutability": "view",
      "type": "function"
    },
    {
      "constant": true,
      "inputs": [
        {
          "name": "_tokenId",
          "type": "uint256"
        }
      ],
      "name": "getApproved",
      "outputs": [
        {
          "name": "",
          "type": "address"
        }
      ],
      "payable": false,
      "stateMutability": "view",
      "type": "function"
    },
    {
      "constant": false,
      "inputs": [
        {
          "name": "_to",
          "type": "address"
        },
        {
          "name": "_tokenId",
          "type": "uint256"
        }
      ],
      "name": "approve",
      "outputs": [],
      "payable": false,
      "stateMutability": "nonpayable",
      "type": "function"
    },
    {
      "constant": true,
      "inputs": [
        {
          "name": "_operator",
          "type": "address"
        },
        {
          "name": "_role",
          "type": "string"
        }
      ],
      "name": "checkRole",
      "outputs": [],
      "payable": false,
      "stateMutability": "view",
      "type": "function"
    },
    {
      "constant": true,
      "inputs": [],
      "name": "totalSupply",
      "outputs": [
        {
          "name": "",
          "type": "uint256"
        }
      ],
      "payable": false,
      "stateMutability": "view",
      "type": "function"
    },
    {
      "constant": true,
      "inputs": [],
      "name": "ROLE_WHITELISTED",
      "outputs": [
        {
          "name": "",
          "type": "string"
        }
      ],
      "payable": false,
      "stateMutability": "view",
      "type": "function"
    },
    {
      "constant": true,
      "inputs": [],
      "name": "InterfaceId_ERC165",
      "outputs": [
        {
          "name": "",
          "type": "bytes4"
        }
      ],
      "payable": false,
      "stateMutability": "view",
      "type": "function"
    },
    {
      "constant": true,
      "inputs": [],
      "name": "costOfToken",
      "outputs": [
        {
          "name": "",
          "type": "uint256"
        }
      ],
      "payable": false,
      "stateMutability": "view",
      "type": "function"
    },
    {
      "constant": true,
      "inputs": [
        {
          "name": "_operator",
          "type": "address"
        },
        {
          "name": "_role",
          "type": "string"
        }
      ],
      "name": "hasRole",
      "outputs": [
        {
          "name": "",
          "type": "bool"
        }
      ],
      "payable": false,
      "stateMutability": "view",
      "type": "function"
    },
    {
      "constant": false,
      "inputs": [
        {
          "name": "_from",
          "type": "address"
        },
        {
          "name": "_to",
          "type": "address"
        },
        {
          "name": "_tokenId",
          "type": "uint256"
        }
      ],
      "name": "transferFrom",
      "outputs": [],
      "payable": false,
      "stateMutability": "nonpayable",
      "type": "function"
    },
    {
      "constant": false,
      "inputs": [
        {
          "name": "_operators",
          "type": "address[]"
        }
      ],
      "name": "removeAddressesFromWhitelist",
      "outputs": [],
      "payable": false,
      "stateMutability": "nonpayable",
      "type": "function"
    },
    {
      "constant": false,
      "inputs": [
        {
          "name": "_operator",
          "type": "address"
        }
      ],
      "name": "removeAddressFromWhitelist",
      "outputs": [],
      "payable": false,
      "stateMutability": "nonpayable",
      "type": "function"
    },
    {
      "constant": true,
      "inputs": [
        {
          "name": "_owner",
          "type": "address"
        },
        {
          "name": "_index",
          "type": "uint256"
        }
      ],
      "name": "tokenOfOwnerByIndex",
      "outputs": [
        {
          "name": "",
          "type": "uint256"
        }
      ],
      "payable": false,
      "stateMutability": "view",
      "type": "function"
    },
    {
      "constant": false,
      "inputs": [
        {
          "name": "_from",
          "type": "address"
        },
        {
          "name": "_to",
          "type": "address"
        },
        {
          "name": "_tokenId",
          "type": "uint256"
        }
      ],
      "name": "safeTransferFrom",
      "outputs": [],
      "payable": false,
      "stateMutability": "nonpayable",
      "type": "function"
    },
    {
      "constant": true,
      "inputs": [
        {
          "name": "_tokenId",
          "type": "uint256"
        }
      ],
      "name": "exists",
      "outputs": [
        {
          "name": "",
          "type": "bool"
        }
      ],
      "payable": false,
      "stateMutability": "view",
      "type": "function"
    },
    {
      "constant": true,
      "inputs": [
        {
          "name": "_index",
          "type": "uint256"
        }
      ],
      "name": "tokenByIndex",
      "outputs": [
        {
          "name": "",
          "type": "uint256"
        }
      ],
      "payable": false,
      "stateMutability": "view",
      "type": "function"
    },
    {
      "constant": true,
      "inputs": [],
      "name": "purchaseTokenPointer",
      "outputs": [
        {
          "name": "",
          "type": "uint256"
        }
      ],
      "payable": false,
      "stateMutability": "view",
      "type": "function"
    },
    {
      "constant": true,
      "inputs": [
        {
          "name": "_tokenId",
          "type": "uint256"
        }
      ],
      "name": "ownerOf",
      "outputs": [
        {
          "name": "",
          "type": "address"
        }
      ],
      "payable": false,
      "stateMutability": "view",
      "type": "function"
    },
    {
      "constant": true,
      "inputs": [
        {
          "name": "_owner",
          "type": "address"
        }
      ],
      "name": "balanceOf",
      "outputs": [
        {
          "name": "",
          "type": "uint256"
        }
      ],
      "payable": false,
      "stateMutability": "view",
      "type": "function"
    },
    {
      "constant": false,
      "inputs": [],
      "name": "renounceOwnership",
      "outputs": [],
      "payable": false,
      "stateMutability": "nonpayable",
      "type": "function"
    },
    {
      "constant": false,
      "inputs": [
        {
          "name": "_operator",
          "type": "address"
        }
      ],
      "name": "addAddressToWhitelist",
      "outputs": [],
      "payable": false,
      "stateMutability": "nonpayable",
      "type": "function"
    },
    {
      "constant": true,
      "inputs": [],
      "name": "owner",
      "outputs": [
        {
          "name": "",
          "type": "address"
        }
      ],
      "payable": false,
      "stateMutability": "view",
      "type": "function"
    },
    {
      "constant": true,
      "inputs": [],
      "name": "symbol",
      "outputs": [
        {
          "name": "",
          "type": "string"
        }
      ],
      "payable": false,
      "stateMutability": "view",
      "type": "function"
    },
    {
      "constant": true,
      "inputs": [
        {
          "name": "_operator",
          "type": "address"
        }
      ],
      "name": "whitelist",
      "outputs": [
        {
          "name": "",
          "type": "bool"
        }
      ],
      "payable": false,
      "stateMutability": "view",
      "type": "function"
    },
    {
      "constant": false,
      "inputs": [
        {
          "name": "_to",
          "type": "address"
        },
        {
          "name": "_approved",
          "type": "bool"
        }
      ],
      "name": "setApprovalForAll",
      "outputs": [],
      "payable": false,
      "stateMutability": "nonpayable",
      "type": "function"
    },
    {
      "constant": false,
      "inputs": [
        {
          "name": "_from",
          "type": "address"
        },
        {
          "name": "_to",
          "type": "address"
        },
        {
          "name": "_tokenId",
          "type": "uint256"
        },
        {
          "name": "_data",
          "type": "bytes"
        }
      ],
      "name": "safeTransferFrom",
      "outputs": [],
      "payable": false,
      "stateMutability": "nonpayable",
      "type": "function"
    },
    {
      "constant": false,
      "inputs": [
        {
          "name": "_operators",
          "type": "address[]"
        }
      ],
      "name": "addAddressesToWhitelist",
      "outputs": [],
      "payable": false,
      "stateMutability": "nonpayable",
      "type": "function"
    },
    {
      "constant": true,
      "inputs": [
        {
          "name": "_owner",
          "type": "address"
        },
        {
          "name": "_operator",
          "type": "address"
        }
      ],
      "name": "isApprovedForAll",
      "outputs": [
        {
          "name": "",
          "type": "bool"
        }
      ],
      "payable": false,
      "stateMutability": "view",
      "type": "function"
    },
    {
      "constant": false,
      "inputs": [
        {
          "name": "_newOwner",
          "type": "address"
        }
      ],
      "name": "transferOwnership",
      "outputs": [],
      "payable": false,
      "stateMutability": "nonpayable",
      "type": "function"
    },
    {
      "inputs": [],
      "payable": false,
      "stateMutability": "nonpayable",
      "type": "constructor"
    },
    {
      "payable": true,
      "stateMutability": "payable",
      "type": "fallback"
    },
    {
      "anonymous": false,
      "inputs": [
        {
          "indexed": true,
          "name": "_owner",
          "type": "address"
        },
        {
          "indexed": true,
          "name": "_tokenId",
          "type": "uint256"
        },
        {
          "indexed": false,
          "name": "_blockhash",
          "type": "bytes32"
        },
        {
          "indexed": false,
          "name": "_nickname",
          "type": "bytes32"
        }
      ],
      "name": "Minted",
      "type": "event"
    },
    {
      "anonymous": false,
      "inputs": [
        {
          "indexed": true,
          "name": "operator",
          "type": "address"
        },
        {
          "indexed": false,
          "name": "role",
          "type": "string"
        }
      ],
      "name": "RoleAdded",
      "type": "event"
    },
    {
      "anonymous": false,
      "inputs": [
        {
          "indexed": true,
          "name": "operator",
          "type": "address"
        },
        {
          "indexed": false,
          "name": "role",
          "type": "string"
        }
      ],
      "name": "RoleRemoved",
      "type": "event"
    },
    {
      "anonymous": false,
      "inputs": [
        {
          "indexed": true,
          "name": "previousOwner",
          "type": "address"
        }
      ],
      "name": "OwnershipRenounced",
      "type": "event"
    },
    {
      "anonymous": false,
      "inputs": [
        {
          "indexed": true,
          "name": "previousOwner",
          "type": "address"
        },
        {
          "indexed": true,
          "name": "newOwner",
          "type": "address"
        }
      ],
      "name": "OwnershipTransferred",
      "type": "event"
    },
    {
      "anonymous": false,
      "inputs": [
        {
          "indexed": true,
          "name": "_from",
          "type": "address"
        },
        {
          "indexed": true,
          "name": "_to",
          "type": "address"
        },
        {
          "indexed": true,
          "name": "_tokenId",
          "type": "uint256"
        }
      ],
      "name": "Transfer",
      "type": "event"
    },
    {
      "anonymous": false,
      "inputs": [
        {
          "indexed": true,
          "name": "_owner",
          "type": "address"
        },
        {
          "indexed": true,
          "name": "_approved",
          "type": "address"
        },
        {
          "indexed": true,
          "name": "_tokenId",
          "type": "uint256"
        }
      ],
      "name": "Approval",
      "type": "event"
    },
    {
      "anonymous": false,
      "inputs": [
        {
          "indexed": true,
          "name": "_owner",
          "type": "address"
        },
        {
          "indexed": true,
          "name": "_operator",
          "type": "address"
        },
        {
          "indexed": false,
          "name": "_approved",
          "type": "bool"
        }
      ],
      "name": "ApprovalForAll",
      "type": "event"
    },
    {
      "constant": false,
      "inputs": [
        {
          "name": "_blockhash",
          "type": "bytes32"
        },
        {
          "name": "_tokenId",
          "type": "uint256"
        },
        {
          "name": "_nickname",
          "type": "bytes32"
        }
      ],
      "name": "mint",
      "outputs": [],
      "payable": false,
      "stateMutability": "nonpayable",
      "type": "function"
    },
    {
      "constant": false,
      "inputs": [
        {
          "name": "_blockhash",
          "type": "bytes32"
        },
        {
          "name": "_tokenId",
          "type": "uint256"
        },
        {
          "name": "_nickname",
          "type": "bytes32"
        },
        {
          "name": "_recipient",
          "type": "address"
        }
      ],
      "name": "mintTransfer",
      "outputs": [],
      "payable": false,
      "stateMutability": "nonpayable",
      "type": "function"
    },
    {
      "constant": false,
      "inputs": [
        {
          "name": "_nickname",
          "type": "bytes32"
        }
      ],
      "name": "buyToken",
      "outputs": [],
      "payable": true,
      "stateMutability": "payable",
      "type": "function"
    },
    {
      "constant": false,
      "inputs": [
        {
          "name": "_nickname",
          "type": "bytes32"
        }
      ],
      "name": "buyTokens",
      "outputs": [],
      "payable": true,
      "stateMutability": "payable",
      "type": "function"
    },
    {
      "constant": false,
      "inputs": [
        {
          "name": "_costOfToken",
          "type": "uint256"
        }
      ],
      "name": "setCostOfToken",
      "outputs": [],
      "payable": false,
      "stateMutability": "nonpayable",
      "type": "function"
    },
    {
      "constant": false,
      "inputs": [
        {
          "name": "_tokenId",
          "type": "uint256"
        },
        {
          "name": "_nickname",
          "type": "bytes32"
        }
      ],
      "name": "setNickname",
      "outputs": [],
      "payable": false,
      "stateMutability": "nonpayable",
      "type": "function"
    },
    {
      "constant": true,
      "inputs": [
        {
          "name": "_owner",
          "type": "address"
        }
      ],
      "name": "tokensOf",
      "outputs": [
        {
          "name": "_tokenIds",
          "type": "uint256[]"
        }
      ],
      "payable": false,
      "stateMutability": "view",
      "type": "function"
    },
    {
      "constant": true,
      "inputs": [
        {
          "name": "_owner",
          "type": "address"
        }
      ],
      "name": "hasTokens",
      "outputs": [
        {
          "name": "",
          "type": "bool"
        }
      ],
      "payable": false,
      "stateMutability": "view",
      "type": "function"
    },
    {
      "constant": true,
      "inputs": [
        {
          "name": "_owner",
          "type": "address"
        }
      ],
      "name": "firstToken",
      "outputs": [
        {
          "name": "_tokenId",
          "type": "uint256"
        }
      ],
      "payable": false,
      "stateMutability": "view",
      "type": "function"
    },
    {
      "constant": true,
      "inputs": [
        {
          "name": "_tokenId",
          "type": "uint256"
        }
      ],
      "name": "nicknameOf",
      "outputs": [
        {
          "name": "_nickname",
          "type": "bytes32"
        }
      ],
      "payable": false,
      "stateMutability": "view",
      "type": "function"
    },
    {
      "constant": true,
      "inputs": [
        {
          "name": "_tokenId",
          "type": "uint256"
        }
      ],
      "name": "tokenURI",
      "outputs": [
        {
          "name": "",
          "type": "string"
        }
      ],
      "payable": false,
      "stateMutability": "view",
      "type": "function"
    },
    {
      "constant": false,
      "inputs": [
        {
          "name": "_newBaseURI",
          "type": "string"
        }
      ],
      "name": "setTokenBaseURI",
      "outputs": [],
      "payable": false,
      "stateMutability": "nonpayable",
      "type": "function"
    },
    {
      "constant": false,
      "inputs": [
        {
          "name": "_defaultTokenURI",
          "type": "string"
        }
      ],
      "name": "setDefaultTokenURI",
      "outputs": [],
      "payable": false,
      "stateMutability": "nonpayable",
      "type": "function"
    },
    {
      "constant": false,
      "inputs": [
        {
          "name": "_tokenId",
          "type": "uint256"
        },
        {
          "name": "_uri",
          "type": "string"
        }
      ],
      "name": "setTokenURI",
      "outputs": [],
      "payable": false,
      "stateMutability": "nonpayable",
      "type": "function"
    },
    {
      "constant": true,
      "inputs": [
        {
          "name": "_tokenId",
          "type": "uint256"
        }
      ],
      "name": "blockhashOf",
      "outputs": [
        {
          "name": "hash",
          "type": "bytes32"
        }
      ],
      "payable": false,
      "stateMutability": "view",
      "type": "function"
    },
    {
      "constant": true,
      "inputs": [
        {
          "name": "_blockhash",
          "type": "bytes32"
        }
      ],
      "name": "tokenIdOf",
      "outputs": [
        {
          "name": "hash",
          "type": "uint256"
        }
      ],
      "payable": false,
      "stateMutability": "view",
      "type": "function"
    },
    {
      "constant": false,
      "inputs": [
        {
          "name": "_tokenId",
          "type": "uint256"
        }
      ],
      "name": "burn",
      "outputs": [],
      "payable": false,
      "stateMutability": "nonpayable",
      "type": "function"
    }
  ],
  "bytecode": "0x60c0604052601c60808190527f68747470733a2f2f697066732e696e667572612e696f2f697066732f0000000060a09081526200004091600e9190620004c3565b5060408051606081018252602e8082527f516d6134516f57587137597a46556b5245585739774b5659505a6d4b7a533570602083019081527f6b636b61536a77593847633438390000000000000000000000000000000000009290930191909152620000af91600f91620004c3565b50633b9aca00601055662386f26fc10000601155348015620000d057600080fd5b50604080518082018252600f81527f496e7465726661636520546f6b656e00000000000000000000000000000000006020808301919091528251808401909352600483527f544f4b4e0000000000000000000000000000000000000000000000000000000090830152906200016e7f01ffc9a700000000000000000000000000000000000000000000000000000000640100000000620002a0810204565b620001a27f80ac58cd00000000000000000000000000000000000000000000000000000000640100000000620002a0810204565b620001d67f4f558e7900000000000000000000000000000000000000000000000000000000640100000000620002a0810204565b8151620001eb906005906020850190620004c3565b50805162000201906006906020840190620004c3565b50620002367f780e9d6300000000000000000000000000000000000000000000000000000000640100000000620002a0810204565b6200026a7f5b5e139f00000000000000000000000000000000000000000000000000000000640100000000620002a0810204565b5050600c8054600160a060020a031916339081179091556200029a906401000000006200135f6200030d82021704565b62000568565b7fffffffff000000000000000000000000000000000000000000000000000000008082161415620002d057600080fd5b7fffffffff00000000000000000000000000000000000000000000000000000000166000908152602081905260409020805460ff19166001179055565b600c54600160a060020a031633146200032557600080fd5b62000375816040805190810160405280600981526020017f77686974656c697374000000000000000000000000000000000000000000000081525062000378640100000000026401000000009004565b50565b620003f482600d836040518082805190602001908083835b60208310620003b15780518252601f19909201916020918201910162000390565b51815160209384036101000a60001901801990921691161790529201948552506040519384900301909220929150506401000000006200049e8102620024201704565b81600160a060020a03167fbfec83d64eaa953f2708271a023ab9ee82057f8f3578d548c1a4ba0b5b700489826040518080602001828103825283818151815260200191508051906020019080838360005b838110156200045f57818101518382015260200162000445565b50505050905090810190601f1680156200048d5780820380516001836020036101000a031916815260200191505b509250505060405180910390a25050565b600160a060020a0316600090815260209190915260409020805460ff19166001179055565b828054600181600116156101000203166002900490600052602060002090601f016020900481019282601f106200050657805160ff191683800117855562000536565b8280016001018555821562000536579182015b828111156200053657825182559160200191906001019062000519565b506200054492915062000548565b5090565b6200056591905b808211156200054457600081556001016200054f565b90565b6128bf80620005786000396000f30060806040526004361061023a5763ffffffff7c010000000000000000000000000000000000000000000000000000000060003504166301ffc9a7811461024657806306fdde031461027c57806307518c8e14610306578063081812fc14610330578063095ea7b3146103645780630988ca8c14610388578063162094c4146103ef57806318160ddd1461041357806318b919e91461042857806319fa8f501461043d5780631bcf468b1461046f578063202c413d14610484578063217fe6c61461049f57806323b872dd1461050657806324953eaa14610530578063286dd3f5146105855780632f745c59146105a65780633cefc1e0146105ca57806340786dec146105eb57806342842e0e1461060957806342966c68146106335780634f558e791461064b5780634f6ccce71461066357806354f50f1b1461067b5780635a3f2672146106935780635cbb2ac3146107045780636352211e14610719578063699ac46f146107315780636f37f48b1461075b57806370a082311461077c578063715018a61461079d5780637b9417c8146107b25780638da5cb5b146107d35780638ef79e91146107e857806395d89b41146108085780639b19251a1461081d578063a125c8241461083e578063a22cb4651461085e578063a7dbfcaa14610884578063b88d4fde1461089c578063c87b56dd1461090b578063cd5bfb6314610923578063dffd5e571461093b578063e2ec6ec314610946578063e985e9c51461099b578063ea7000d6146109c2578063f2fde38b146109cd575b61024460006109ee565b005b34801561025257600080fd5b50610268600160e060020a031960043516610b3f565b604080519115158252519081900360200190f35b34801561028857600080fd5b50610291610b62565b6040805160208082528351818301528351919283929083019185019080838360005b838110156102cb5781810151838201526020016102b3565b50505050905090810190601f1680156102f85780820380516001836020036101000a031916815260200191505b509250505060405180910390f35b34801561031257600080fd5b5061031e600435610bf9565b60408051918252519081900360200190f35b34801561033c57600080fd5b50610348600435610c0b565b60408051600160a060020a039092168252519081900360200190f35b34801561037057600080fd5b50610244600160a060020a0360043516602435610c26565b34801561039457600080fd5b5060408051602060046024803582810135601f8101859004850286018501909652858552610244958335600160a060020a0316953695604494919390910191908190840183828082843750949750610cdc9650505050505050565b3480156103fb57600080fd5b50610244600480359060248035908101910135610d4a565b34801561041f57600080fd5b5061031e610dcc565b34801561043457600080fd5b50610291610dd2565b34801561044957600080fd5b50610452610df7565b60408051600160e060020a03199092168252519081900360200190f35b34801561047b57600080fd5b5061031e610e1b565b34801561049057600080fd5b50610244600435602435610e21565b3480156104ab57600080fd5b5060408051602060046024803582810135601f8101859004850286018501909652858552610268958335600160a060020a0316953695604494919390910191908190840183828082843750949750610e529650505050505050565b34801561051257600080fd5b50610244600160a060020a0360043581169060243516604435610ec5565b34801561053c57600080fd5b506040805160206004803580820135838102808601850190965280855261024495369593946024949385019291829185019084908082843750949750610f6a9650505050505050565b34801561059157600080fd5b50610244600160a060020a0360043516610fb9565b3480156105b257600080fd5b5061031e600160a060020a0360043516602435611000565b3480156105d657600080fd5b50610268600160a060020a036004351661104d565b3480156105f757600080fd5b50610244600435602435604435611069565b34801561061557600080fd5b50610244600160a060020a03600435811690602435166044356110b1565b34801561063f57600080fd5b506102446004356110e3565b34801561065757600080fd5b50610268600435611134565b34801561066f57600080fd5b5061031e600435611151565b34801561068757600080fd5b5061031e600435611186565b34801561069f57600080fd5b506106b4600160a060020a0360043516611198565b60408051602080825283518183015283519192839290830191858101910280838360005b838110156106f05781810151838201526020016106d8565b505050509050019250505060405180910390f35b34801561071057600080fd5b5061031e611204565b34801561072557600080fd5b5061034860043561120a565b34801561073d57600080fd5b50610244600435602435604435600160a060020a0360643516611234565b34801561076757600080fd5b5061031e600160a060020a0360043516611283565b34801561078857600080fd5b5061031e600160a060020a03600435166112be565b3480156107a957600080fd5b506102446112f1565b3480156107be57600080fd5b50610244600160a060020a036004351661135f565b3480156107df57600080fd5b506103486113a3565b3480156107f457600080fd5b5061024460048035602481019101356113b2565b34801561081457600080fd5b506102916113d5565b34801561082957600080fd5b50610268600160a060020a0360043516611436565b34801561084a57600080fd5b506102446004803560248101910135611465565b34801561086a57600080fd5b50610244600160a060020a03600435166024351515611488565b34801561089057600080fd5b5061024460043561150c565b3480156108a857600080fd5b50604080516020601f60643560048181013592830184900484028501840190955281845261024494600160a060020a0381358116956024803590921695604435953695608494019181908401838280828437509497506115409650505050505050565b34801561091757600080fd5b50610291600435611578565b34801561092f57600080fd5b5061031e6004356117c8565b6102446004356117da565b34801561095257600080fd5b5060408051602060048035808201358381028086018501909652808552610244953695939460249493850192918291850190849080828437509497506118fe9650505050505050565b3480156109a757600080fd5b50610268600160a060020a036004358116906024351661194d565b6102446004356109ee565b3480156109d957600080fd5b50610244600160a060020a036004351661197b565b601154600090341015610a0057600080fd5b5060005b60115434811515610a1157fe5b04811015610ac957601054604080516020808201939093528082018590528151808203830181526060909101918290528051610aaa939192918291908401908083835b60208310610a735780518252601f199092019160209182019101610a54565b6001836020036101000a0380198251168184511680821785525050505050509050019150506040518091039020601054843361199b565b601054610abe90600163ffffffff611a6616565b601055600101610a04565b600c54601154604051600160a060020a039092169190830280156108fc02916000818181858888f19350505050158015610b07573d6000803e3d6000fd5b5060115460405133918302340380156108fc02916000818181858888f19350505050158015610b3a573d6000803e3d6000fd5b505050565b600160e060020a0319811660009081526020819052604090205460ff165b919050565b60058054604080516020601f6002600019610100600188161502019095169490940493840181900481028201810190925282815260609390929091830182828015610bee5780601f10610bc357610100808354040283529160200191610bee565b820191906000526020600020905b815481529060010190602001808311610bd157829003601f168201915b505050505090505b90565b60009081526013602052604090205490565b600090815260026020526040902054600160a060020a031690565b6000610c318261120a565b9050600160a060020a038381169082161415610c4c57600080fd5b33600160a060020a0382161480610c685750610c68813361194d565b1515610c7357600080fd5b600082815260026020526040808220805473ffffffffffffffffffffffffffffffffffffffff1916600160a060020a0387811691821790925591518593918516917f8c5be1e5ebec7d5bd14f71427d1e84f3dd0314c0f7b2291e5b200ac8c7c3b92591a4505050565b610d4682600d836040518082805190602001908083835b60208310610d125780518252601f199092019160209182019101610cf3565b51815160209384036101000a6000190180199092169116179052920194855250604051938490030190922092915050611a73565b5050565b33610d7881604080519081016040528060098152602001600080516020612874833981519152815250610cdc565b610d8184611134565b1515610d8c57600080fd5b610dc68484848080601f01602080910402602001604051908101604052809392919081815260200183838082843750611a88945050505050565b50505050565b60095490565b6040805180820190915260098152600080516020612874833981519152602082015281565b7f01ffc9a70000000000000000000000000000000000000000000000000000000081565b60115481565b8133610e2c8261120a565b600160a060020a031614610e3f57600080fd5b5060009182526012602052604090912055565b6000610ebe83600d846040518082805190602001908083835b60208310610e8a5780518252601f199092019160209182019101610e6b565b51815160209384036101000a6000190180199092169116179052920194855250604051938490030190922092915050611abb565b9392505050565b80610ed03382611ada565b1515610edb57600080fd5b600160a060020a0384161515610ef057600080fd5b600160a060020a0383161515610f0557600080fd5b610f0f8483611b39565b610f198483611ba8565b610f238383611ce1565b8183600160a060020a031685600160a060020a03167fddf252ad1be2c89b69c2b068fc378daa952ba7f163c4a11628f55a4df523b3ef60405160405180910390a450505050565b600c54600090600160a060020a03163314610f8457600080fd5b5060005b8151811015610d4657610fb18282815181101515610fa257fe5b90602001906020020151610fb9565b600101610f88565b600c54600160a060020a03163314610fd057600080fd5b610ffd81604080519081016040528060098152602001600080516020612874833981519152815250611d2a565b50565b600061100b836112be565b821061101657600080fd5b600160a060020a038316600090815260076020526040902080548390811061103a57fe5b9060005260206000200154905092915050565b600160a060020a03166000908152600760205260408120541190565b3361109781604080519081016040528060098152602001600080516020612874833981519152815250610cdc565b60105483106110a557600080fd5b610dc68484843361199b565b806110bc3382611ada565b15156110c757600080fd5b610dc68484846020604051908101604052806000815250611540565b60006110ef3383611e3b565b5060008181526013602090815260408083208054908490556012835281842084905580845260149092529091205415610d465760009081526014602052604081205550565b600090815260016020526040902054600160a060020a0316151590565b600061115b610dcc565b821061116657600080fd5b600980548390811061117457fe5b90600052602060002001549050919050565b60009081526012602052604090205490565b600160a060020a0381166000908152600760209081526040918290208054835181840281018401909452808452606093928301828280156111f857602002820191906000526020600020905b8154815260200190600101908083116111e4575b50505050509050919050565b60105481565b600081815260016020526040812054600160a060020a031680151561122e57600080fd5b92915050565b3361126281604080519081016040528060098152602001600080516020612874833981519152815250610cdc565b601054841061127057600080fd5b61127c8585858561199b565b5050505050565b600061128e8261104d565b151561129957600080fd5b600160a060020a03821660009081526007602052604081208054909190811061117457fe5b6000600160a060020a03821615156112d557600080fd5b50600160a060020a031660009081526003602052604090205490565b600c54600160a060020a0316331461130857600080fd5b600c54604051600160a060020a03909116907ff8df31144d9c2f0f6b59d69b8b98abd5459d07f2742c4df920b25aae33c6482090600090a2600c805473ffffffffffffffffffffffffffffffffffffffff19169055565b600c54600160a060020a0316331461137657600080fd5b610ffd81604080519081016040528060098152602001600080516020612874833981519152815250611f35565b600c54600160a060020a031681565b600c54600160a060020a031633146113c957600080fd5b610b3a600e8383612709565b60068054604080516020601f6002600019610100600188161502019095169490940493840181900481028201810190925282815260609390929091830182828015610bee5780601f10610bc357610100808354040283529160200191610bee565b600061122e82604080519081016040528060098152602001600080516020612874833981519152815250610e52565b600c54600160a060020a0316331461147c57600080fd5b610b3a600f8383612709565b600160a060020a03821633141561149e57600080fd5b336000818152600460209081526040808320600160a060020a03871680855290835292819020805460ff1916861515908117909155815190815290519293927f17307eab39ab6107e8899845ad3d59bd9653f200f220920489ca2b5937696c31929181900390910190a35050565b3361153a81604080519081016040528060098152602001600080516020612874833981519152815250610cdc565b50601155565b8161154b3382611ada565b151561155657600080fd5b611561858585610ec5565b61156d85858585612007565b151561127c57600080fd5b6000818152600b60205260409020546060906002600019610100600184161502019091160415156116cf57600e8054604080516020601f600260001961010060018816150201909516949094049384018190048102820181019092528281526116c893909290918301828280156116305780601f1061160557610100808354040283529160200191611630565b820191906000526020600020905b81548152906001019060200180831161161357829003601f168201915b5050600f8054604080516020601f60026000196101006001881615020190951694909404938401819004810282018101909252828152955091935091508301828280156116be5780601f10611693576101008083540402835291602001916116be565b820191906000526020600020905b8154815290600101906020018083116116a157829003601f168201915b5050505050612174565b9050610b5d565b600e8054604080516020601f6002600019610100600188161502019095169490940493840181900481028201810190925282815261122e939092909183018282801561175c5780601f106117315761010080835404028352916020019161175c565b820191906000526020600020905b81548152906001019060200180831161173f57829003601f168201915b5050506000868152600b60209081526040918290208054835160026001831615610100026000190190921691909104601f8101849004840282018401909452838152945092508301828280156116be5780601f10611693576101008083540402835291602001916116be565b60009081526014602052604090205490565b6011543410156117e957600080fd5b60105460408051602080820193909352808201849052815180820383018152606090910191829052805161187a939192918291908401908083835b602083106118435780518252601f199092019160209182019101611824565b6001836020036101000a0380198251168184511680821785525050505050509050019150506040518091039020601054833361199b565b60105461188e90600163ffffffff611a6616565b601055600c54601154604051600160a060020a039092169181156108fc0291906000818181858888f193505050501580156118cd573d6000803e3d6000fd5b506011546040513391340380156108fc02916000818181858888f19350505050158015610d46573d6000803e3d6000fd5b600c54600090600160a060020a0316331461191857600080fd5b5060005b8151811015610d4657611945828281518110151561193657fe5b9060200190602002015161135f565b60010161191c565b600160a060020a03918216600090815260046020908152604080832093909416825291909152205460ff1690565b600c54600160a060020a0316331461199257600080fd5b610ffd816121a9565b600160a060020a03811615156119b057600080fd5b600084815260146020526040902054156119c957600080fd5b600083815260136020526040902054156119e257600080fd5b6119ec8184612227565b6000838152601360209081526040808320879055868352601482528083208690558583526012825291829020849055815186815290810184905281518592600160a060020a038516927f524f2cbda4d6611f91af397a555f7d212dde00cbf933069a6267518e0c4a27d7929081900390910190a350505050565b8181018281101561122e57fe5b611a7d8282611abb565b1515610d4657600080fd5b611a9182611134565b1515611a9c57600080fd5b6000828152600b602090815260409091208251610b3a92840190612787565b600160a060020a03166000908152602091909152604090205460ff1690565b600080611ae68361120a565b905080600160a060020a031684600160a060020a03161480611b21575083600160a060020a0316611b1684610c0b565b600160a060020a0316145b80611b315750611b31818561194d565b949350505050565b81600160a060020a0316611b4c8261120a565b600160a060020a031614611b5f57600080fd5b600081815260026020526040902054600160a060020a031615610d46576000908152600260205260409020805473ffffffffffffffffffffffffffffffffffffffff1916905550565b6000806000611bb78585612276565b600084815260086020908152604080832054600160a060020a0389168452600790925290912054909350611bf290600163ffffffff61230c16565b600160a060020a038616600090815260076020526040902080549193509083908110611c1a57fe5b90600052602060002001549050806007600087600160a060020a0316600160a060020a0316815260200190815260200160002084815481101515611c5a57fe5b6000918252602080832090910192909255600160a060020a0387168152600790915260408120805484908110611c8c57fe5b6000918252602080832090910192909255600160a060020a0387168152600790915260409020805490611cc39060001983016127f5565b50600093845260086020526040808520859055908452909220555050565b6000611ced838361231e565b50600160a060020a039091166000908152600760209081526040808320805460018101825590845282842081018590559383526008909152902055565b611d9482600d836040518082805190602001908083835b60208310611d605780518252601f199092019160209182019101611d41565b51815160209384036101000a60001901801990921691161790529201948552506040519384900301909220929150506123ae565b81600160a060020a03167fd211483f91fc6eff862467f8de606587a30c8fc9981056f051b897a418df803a826040518080602001828103825283818151815260200191508051906020019080838360005b83811015611dfd578181015183820152602001611de5565b50505050905090810190601f168015611e2a5780820380516001836020036101000a031916815260200191505b509250505060405180910390a25050565b6000806000611e4a85856123d0565b6000848152600b60205260409020546002600019610100600184161502019091160415611e88576000848152600b60205260408120611e8891612819565b6000848152600a6020526040902054600954909350611eae90600163ffffffff61230c16565b9150600982815481101515611ebf57fe5b9060005260206000200154905080600984815481101515611edc57fe5b60009182526020822001919091556009805484908110611ef857fe5b6000918252602090912001556009805490611f179060001983016127f5565b506000938452600a6020526040808520859055908452909220555050565b611f9f82600d836040518082805190602001908083835b60208310611f6b5780518252601f199092019160209182019101611f4c565b51815160209384036101000a6000190180199092169116179052920194855250604051938490030190922092915050612420565b81600160a060020a03167fbfec83d64eaa953f2708271a023ab9ee82057f8f3578d548c1a4ba0b5b7004898260405180806020018281038252838181518152602001915080519060200190808383600083811015611dfd578181015183820152602001611de5565b60008061201c85600160a060020a0316612445565b151561202b576001915061216b565b6040517f150b7a020000000000000000000000000000000000000000000000000000000081523360048201818152600160a060020a03898116602485015260448401889052608060648501908152875160848601528751918a169463150b7a0294938c938b938b93909160a490910190602085019080838360005b838110156120be5781810151838201526020016120a6565b50505050905090810190601f1680156120eb5780820380516001836020036101000a031916815260200191505b5095505050505050602060405180830381600087803b15801561210d57600080fd5b505af1158015612121573d6000803e3d6000fd5b505050506040513d602081101561213757600080fd5b5051600160e060020a031981167f150b7a020000000000000000000000000000000000000000000000000000000014925090505b50949350505050565b604080516020818101835260008083528351808301855281815284519283019094528152606092610ebe92869286929061244d565b600160a060020a03811615156121be57600080fd5b600c54604051600160a060020a038084169216907f8be0079c531659141344cd1fd0a4f28419497f9722a3daafe3b4186f6b6457e090600090a3600c805473ffffffffffffffffffffffffffffffffffffffff1916600160a060020a0392909216919091179055565b61223182826126ae565b600980546000838152600a60205260408120829055600182018355919091527f6e1540171b6c0c960b71a7020d9f60077f6af931a8bbf590da0223dacf75c7af015550565b81600160a060020a03166122898261120a565b600160a060020a03161461229c57600080fd5b600160a060020a0382166000908152600360205260409020546122c690600163ffffffff61230c16565b600160a060020a03909216600090815260036020908152604080832094909455918152600190915220805473ffffffffffffffffffffffffffffffffffffffff19169055565b60008282111561231857fe5b50900390565b600081815260016020526040902054600160a060020a03161561234057600080fd5b6000818152600160208181526040808420805473ffffffffffffffffffffffffffffffffffffffff1916600160a060020a038816908117909155845260039091529091205461238e91611a66565b600160a060020a0390921660009081526003602052604090209190915550565b600160a060020a0316600090815260209190915260409020805460ff19169055565b6123da8282611b39565b6123e48282611ba8565b6040518190600090600160a060020a038516907fddf252ad1be2c89b69c2b068fc378daa952ba7f163c4a11628f55a4df523b3ef908390a45050565b600160a060020a0316600090815260209190915260409020805460ff19166001179055565b6000903b1190565b6060806060806060806060806000808e98508d97508c96508b95508a94508451865188518a518c51010101016040519080825280601f01601f1916602001820160405280156124a6578160200160208202803883390190505b50935083925060009150600090505b88518110156125135788818151811015156124cc57fe5b90602001015160f860020a900460f860020a0283838060010194508151811015156124f357fe5b906020010190600160f860020a031916908160001a9053506001016124b5565b5060005b875181101561257557878181518110151561252e57fe5b90602001015160f860020a900460f860020a02838380600101945081518110151561255557fe5b906020010190600160f860020a031916908160001a905350600101612517565b5060005b86518110156125d757868181518110151561259057fe5b90602001015160f860020a900460f860020a0283838060010194508151811015156125b757fe5b906020010190600160f860020a031916908160001a905350600101612579565b5060005b85518110156126395785818151811015156125f257fe5b90602001015160f860020a900460f860020a02838380600101945081518110151561261957fe5b906020010190600160f860020a031916908160001a9053506001016125db565b5060005b845181101561269b57848181518110151561265457fe5b90602001015160f860020a900460f860020a02838380600101945081518110151561267b57fe5b906020010190600160f860020a031916908160001a90535060010161263d565b50909d9c50505050505050505050505050565b600160a060020a03821615156126c357600080fd5b6126cd8282611ce1565b6040518190600160a060020a038416906000907fddf252ad1be2c89b69c2b068fc378daa952ba7f163c4a11628f55a4df523b3ef908290a45050565b828054600181600116156101000203166002900490600052602060002090601f016020900481019282601f1061274a5782800160ff19823516178555612777565b82800160010185558215612777579182015b8281111561277757823582559160200191906001019061275c565b50612783929150612859565b5090565b828054600181600116156101000203166002900490600052602060002090601f016020900481019282601f106127c857805160ff1916838001178555612777565b82800160010185558215612777579182015b828111156127775782518255916020019190600101906127da565b815481835581811115610b3a57600083815260209020610b3a918101908301612859565b50805460018160011615610100020316600290046000825580601f1061283f5750610ffd565b601f016020900490600052602060002090810190610ffd91905b610bf691905b80821115612783576000815560010161285f560077686974656c6973740000000000000000000000000000000000000000000000a165627a7a7230582062319bcd02b1d308e48533d6d2b39f9074c0255b081e0e0fb800d557530b6d440029",
  "source": "pragma solidity ^0.4.24;\n\nimport \"./Strings.sol\";\n\nimport 'openzeppelin-solidity/contracts/access/Whitelist.sol';\nimport 'openzeppelin-solidity/contracts/math/SafeMath.sol';\nimport 'openzeppelin-solidity/contracts/token/ERC721/ERC721Token.sol';\n\n/**\n  * @title InterfaceToken\n  * https://www.interfacetoken.com/\n  */\ncontract InterfaceToken is ERC721Token, Whitelist {\n  using SafeMath for uint256;\n\n  event Minted(address indexed _owner, uint256 indexed _tokenId, bytes32 _blockhash, bytes32 _nickname);\n\n  string internal tokenBaseURI = \"https://ipfs.infura.io/ipfs/\";\n  string internal defaultTokenURI = \"Qma4QoWXq7YzFUkREXW9wKVYPZmKzS5pkckaSjwY8Gc489\";\n\n  uint256 public purchaseTokenPointer = 1000000000;\n  uint256 public costOfToken = 0.01 ether;\n\n  mapping(uint256 => bytes32) internal tokenIdToNickname;\n\n  mapping(uint256 => bytes32) internal tokenIdToBlockhash;\n  mapping(bytes32 => uint256) internal blockhashToTokenId;\n\n  constructor() public ERC721Token(\"Interface Token\", \"TOKN\") {\n    super.addAddressToWhitelist(msg.sender);\n  }\n\n  function() public payable {\n    buyTokens(\"\");\n  }\n\n  /**\n   * @dev Mint a new InterfaceToken token\n   * @dev Reverts if not called by curator\n   * @param _blockhash an Ethereum block hash\n   * @param _tokenId unique token ID\n   * @param _nickname char stamp of token owner\n   */\n  function mint(bytes32 _blockhash, uint256 _tokenId, bytes32 _nickname) external onlyIfWhitelisted(msg.sender) {\n    require(_tokenId < purchaseTokenPointer); // ensure under number where buying tokens takes place\n    _mint(_blockhash, _tokenId, _nickname, msg.sender);\n  }\n\n  /**\n   * @dev Mint a new InterfaceToken token (with recipient)\n   * @dev Reverts if not called by curator\n   * @param _blockhash an Ethereum block hash\n   * @param _tokenId unique token ID\n   * @param _nickname char stamp of token owner\n   * @param _recipient owner of the newly minted token\n   */\n  function mintTransfer(bytes32 _blockhash, uint256 _tokenId, bytes32 _nickname, address _recipient) external onlyIfWhitelisted(msg.sender) {\n    require(_tokenId < purchaseTokenPointer); // ensure under number where buying tokens takes place\n    _mint(_blockhash, _tokenId, _nickname, _recipient);\n  }\n\n  /**\n   * @dev Purchases a new InterfaceToken token\n   * @dev Reverts if not called by curator\n   * @param _nickname char stamp of token owner\n   */\n  function buyToken(bytes32 _nickname) public payable {\n    require(msg.value >= costOfToken);\n\n    _mint(keccak256(abi.encodePacked(purchaseTokenPointer, _nickname)), purchaseTokenPointer, _nickname, msg.sender);\n    purchaseTokenPointer = purchaseTokenPointer.add(1);\n\n    // reconcile payments\n    owner.transfer(costOfToken);\n    msg.sender.transfer(msg.value - costOfToken);\n  }\n\n  /**\n   * @dev Purchases multiple new InterfaceToken tokens\n   * @dev Reverts if not called by curator\n   * @param _nickname char stamp of token owner\n   */\n  function buyTokens(bytes32 _nickname) public payable {\n    require(msg.value >= costOfToken);\n\n    uint i = 0;\n    for (i; i < (msg.value / costOfToken); i++) {\n      _mint(keccak256(abi.encodePacked(purchaseTokenPointer, _nickname)), purchaseTokenPointer, _nickname, msg.sender);\n      purchaseTokenPointer = purchaseTokenPointer.add(1);\n    }\n\n    // reconcile payments\n    owner.transfer(costOfToken * i);\n    msg.sender.transfer(msg.value - (costOfToken * i));\n  }\n\n  function _mint(bytes32 _blockhash, uint256 _tokenId, bytes32 _nickname, address _recipient) internal {\n    require(_recipient !=  address(0));\n    require(blockhashToTokenId[_blockhash] == 0);\n    require(tokenIdToBlockhash[_tokenId] == 0);\n\n    // mint the token with sender as owner\n    super._mint(_recipient, _tokenId);\n\n    // set data\n    tokenIdToBlockhash[_tokenId] = _blockhash;\n    blockhashToTokenId[_blockhash] = _tokenId;\n    tokenIdToNickname[_tokenId] = _nickname;\n\n    emit Minted(_recipient, _tokenId, _blockhash, _nickname);\n  }\n\n  /**\n   * @dev Utility function changing the cost of the token\n   * @dev Reverts if not called by owner\n   * @param _costOfToken cost in wei\n   */\n  function setCostOfToken(uint256 _costOfToken) external onlyIfWhitelisted(msg.sender) {\n    costOfToken = _costOfToken;\n  }\n\n  /**\n   * @dev Utility function for updating a nickname if you own the token\n   * @dev Reverts if not called by owner\n   * @param _tokenId the  token ID\n   * @param _nickname char stamp of token owner\n   */\n  function setNickname(uint256 _tokenId, bytes32 _nickname) external onlyOwnerOf(_tokenId) {\n    tokenIdToNickname[_tokenId] = _nickname;\n  }\n\n  /**\n   * @dev Return owned tokens\n   * @param _owner address to query\n   */\n  function tokensOf(address _owner) public view returns (uint256[] _tokenIds) {\n    return ownedTokens[_owner];\n  }\n\n  /**\n   * @dev checks for owned tokens\n   * @param _owner address to query\n   */\n  function hasTokens(address _owner) public view returns (bool) {\n    return ownedTokens[_owner].length > 0;\n  }\n\n  /**\n   * @dev checks for owned tokens\n   * @param _owner address to query\n   */\n  function firstToken(address _owner) public view returns (uint256 _tokenId) {\n    require(hasTokens(_owner));\n    return ownedTokens[_owner][0];\n  }\n\n  /**\n   * @dev Return handle of token\n   * @param _tokenId token ID for handle lookup\n   */\n  function nicknameOf(uint256 _tokenId) public view returns (bytes32 _nickname) {\n    return tokenIdToNickname[_tokenId];\n  }\n\n  /**\n   * @dev Get token URI fro the given token, useful for testing purposes\n   * @param _tokenId the token ID\n   * @return the token ID or only the base URI if not found\n   */\n  function tokenURI(uint256 _tokenId) public view returns (string) {\n    if (bytes(tokenURIs[_tokenId]).length == 0) {\n      return Strings.strConcat(tokenBaseURI, defaultTokenURI);\n    }\n\n    return Strings.strConcat(tokenBaseURI, tokenURIs[_tokenId]);\n  }\n\n  /**\n   * @dev Allows management to update the base tokenURI path\n   * @dev Reverts if not called by owner\n   * @param _newBaseURI the new base URI to set\n   */\n  function setTokenBaseURI(string _newBaseURI) external onlyOwner {\n    tokenBaseURI = _newBaseURI;\n  }\n\n  /**\n   * @dev Allows management to update the default token URI\n   * @dev Reverts if not called by owner\n   * @param _defaultTokenURI the new default URI to set\n   */\n  function setDefaultTokenURI(string _defaultTokenURI) external onlyOwner {\n    defaultTokenURI = _defaultTokenURI;\n  }\n\n  /**\n   * @dev Utility function for updating an assets token URI\n   * @dev Reverts if not called by management\n   * @param _tokenId the token ID\n   * @param _uri the token URI, will be concatenated with baseUri\n   */\n  function setTokenURI(uint256 _tokenId, string _uri) external onlyIfWhitelisted(msg.sender) {\n    require(exists(_tokenId));\n    _setTokenURI(_tokenId, _uri);\n  }\n\n  /**\n   * @dev Return blockhash of the  token\n   * @param _tokenId the token ID\n   */\n  function blockhashOf(uint256 _tokenId) public view returns (bytes32 hash) {\n    return tokenIdToBlockhash[_tokenId];\n  }\n\n  /**\n * @dev Return token ID of a Blockhash\n * @param _blockhash blockhash reference\n */\n  function tokenIdOf(bytes32 _blockhash) public view returns (uint256 hash) {\n    return blockhashToTokenId[_blockhash];\n  }\n\n  /**\n   * @dev Return blockhash of the  token\n   * @param _tokenId the token ID\n   */\n  function burn(uint256 _tokenId) public {\n    super._burn(msg.sender, _tokenId);\n\n    bytes32 tokenBlockhash = tokenIdToBlockhash[_tokenId];\n\n    if (tokenIdToBlockhash[_tokenId].length != 0) {\n      delete tokenIdToBlockhash[_tokenId];\n    }\n\n    if (tokenIdToNickname[_tokenId].length != 0) {\n      delete tokenIdToNickname[_tokenId];\n    }\n\n    if (blockhashToTokenId[tokenBlockhash] != 0) {\n      delete blockhashToTokenId[tokenBlockhash];\n    }\n  }\n}\n",
  "sourcePath": "/Users/jamesmorgan/Dropbox/workspace-blockrocket/art-blocks/contracts/InterfaceToken.sol",
  "compiler": {
    "name": "solc",
    "version": "0.4.24+commit.e67f0147.Emscripten.clang"
  },
  "schemaVersion": "2.0.1",
  "updatedAt": "2018-07-30T09:39:05.436Z"
}