{
  "contractName": "InterfaceToken",
  "abi": [
    {
      "constant": true,
      "inputs": [
        {
          "name": "_interfaceId",
          "type": "bytes4"
        }
      ],
      "name": "supportsInterface",
      "outputs": [
        {
          "name": "",
          "type": "bool"
        }
      ],
      "payable": false,
      "stateMutability": "view",
      "type": "function"
    },
    {
      "constant": true,
      "inputs": [],
      "name": "name",
      "outputs": [
        {
          "name": "",
          "type": "string"
        }
      ],
      "payable": false,
      "stateMutability": "view",
      "type": "function"
    },
    {
      "constant": true,
      "inputs": [
        {
          "name": "_tokenId",
          "type": "uint256"
        }
      ],
      "name": "getApproved",
      "outputs": [
        {
          "name": "",
          "type": "address"
        }
      ],
      "payable": false,
      "stateMutability": "view",
      "type": "function"
    },
    {
      "constant": false,
      "inputs": [
        {
          "name": "_to",
          "type": "address"
        },
        {
          "name": "_tokenId",
          "type": "uint256"
        }
      ],
      "name": "approve",
      "outputs": [],
      "payable": false,
      "stateMutability": "nonpayable",
      "type": "function"
    },
    {
      "constant": true,
      "inputs": [
        {
          "name": "_operator",
          "type": "address"
        },
        {
          "name": "_role",
          "type": "string"
        }
      ],
      "name": "checkRole",
      "outputs": [],
      "payable": false,
      "stateMutability": "view",
      "type": "function"
    },
    {
      "constant": true,
      "inputs": [],
      "name": "totalSupply",
      "outputs": [
        {
          "name": "",
          "type": "uint256"
        }
      ],
      "payable": false,
      "stateMutability": "view",
      "type": "function"
    },
    {
      "constant": true,
      "inputs": [],
      "name": "ROLE_WHITELISTED",
      "outputs": [
        {
          "name": "",
          "type": "string"
        }
      ],
      "payable": false,
      "stateMutability": "view",
      "type": "function"
    },
    {
      "constant": true,
      "inputs": [],
      "name": "InterfaceId_ERC165",
      "outputs": [
        {
          "name": "",
          "type": "bytes4"
        }
      ],
      "payable": false,
      "stateMutability": "view",
      "type": "function"
    },
    {
      "constant": true,
      "inputs": [],
      "name": "costOfToken",
      "outputs": [
        {
          "name": "",
          "type": "uint256"
        }
      ],
      "payable": false,
      "stateMutability": "view",
      "type": "function"
    },
    {
      "constant": true,
      "inputs": [
        {
          "name": "_operator",
          "type": "address"
        },
        {
          "name": "_role",
          "type": "string"
        }
      ],
      "name": "hasRole",
      "outputs": [
        {
          "name": "",
          "type": "bool"
        }
      ],
      "payable": false,
      "stateMutability": "view",
      "type": "function"
    },
    {
      "constant": false,
      "inputs": [
        {
          "name": "_from",
          "type": "address"
        },
        {
          "name": "_to",
          "type": "address"
        },
        {
          "name": "_tokenId",
          "type": "uint256"
        }
      ],
      "name": "transferFrom",
      "outputs": [],
      "payable": false,
      "stateMutability": "nonpayable",
      "type": "function"
    },
    {
      "constant": false,
      "inputs": [
        {
          "name": "_operators",
          "type": "address[]"
        }
      ],
      "name": "removeAddressesFromWhitelist",
      "outputs": [],
      "payable": false,
      "stateMutability": "nonpayable",
      "type": "function"
    },
    {
      "constant": false,
      "inputs": [
        {
          "name": "_operator",
          "type": "address"
        }
      ],
      "name": "removeAddressFromWhitelist",
      "outputs": [],
      "payable": false,
      "stateMutability": "nonpayable",
      "type": "function"
    },
    {
      "constant": true,
      "inputs": [
        {
          "name": "_owner",
          "type": "address"
        },
        {
          "name": "_index",
          "type": "uint256"
        }
      ],
      "name": "tokenOfOwnerByIndex",
      "outputs": [
        {
          "name": "",
          "type": "uint256"
        }
      ],
      "payable": false,
      "stateMutability": "view",
      "type": "function"
    },
    {
      "constant": false,
      "inputs": [
        {
          "name": "_from",
          "type": "address"
        },
        {
          "name": "_to",
          "type": "address"
        },
        {
          "name": "_tokenId",
          "type": "uint256"
        }
      ],
      "name": "safeTransferFrom",
      "outputs": [],
      "payable": false,
      "stateMutability": "nonpayable",
      "type": "function"
    },
    {
      "constant": true,
      "inputs": [
        {
          "name": "_tokenId",
          "type": "uint256"
        }
      ],
      "name": "exists",
      "outputs": [
        {
          "name": "",
          "type": "bool"
        }
      ],
      "payable": false,
      "stateMutability": "view",
      "type": "function"
    },
    {
      "constant": true,
      "inputs": [
        {
          "name": "_index",
          "type": "uint256"
        }
      ],
      "name": "tokenByIndex",
      "outputs": [
        {
          "name": "",
          "type": "uint256"
        }
      ],
      "payable": false,
      "stateMutability": "view",
      "type": "function"
    },
    {
      "constant": true,
      "inputs": [],
      "name": "purchaseTokenPointer",
      "outputs": [
        {
          "name": "",
          "type": "uint256"
        }
      ],
      "payable": false,
      "stateMutability": "view",
      "type": "function"
    },
    {
      "constant": true,
      "inputs": [
        {
          "name": "_tokenId",
          "type": "uint256"
        }
      ],
      "name": "ownerOf",
      "outputs": [
        {
          "name": "",
          "type": "address"
        }
      ],
      "payable": false,
      "stateMutability": "view",
      "type": "function"
    },
    {
      "constant": true,
      "inputs": [
        {
          "name": "_owner",
          "type": "address"
        }
      ],
      "name": "balanceOf",
      "outputs": [
        {
          "name": "",
          "type": "uint256"
        }
      ],
      "payable": false,
      "stateMutability": "view",
      "type": "function"
    },
    {
      "constant": false,
      "inputs": [],
      "name": "renounceOwnership",
      "outputs": [],
      "payable": false,
      "stateMutability": "nonpayable",
      "type": "function"
    },
    {
      "constant": false,
      "inputs": [
        {
          "name": "_operator",
          "type": "address"
        }
      ],
      "name": "addAddressToWhitelist",
      "outputs": [],
      "payable": false,
      "stateMutability": "nonpayable",
      "type": "function"
    },
    {
      "constant": true,
      "inputs": [],
      "name": "owner",
      "outputs": [
        {
          "name": "",
          "type": "address"
        }
      ],
      "payable": false,
      "stateMutability": "view",
      "type": "function"
    },
    {
      "constant": true,
      "inputs": [],
      "name": "symbol",
      "outputs": [
        {
          "name": "",
          "type": "string"
        }
      ],
      "payable": false,
      "stateMutability": "view",
      "type": "function"
    },
    {
      "constant": true,
      "inputs": [
        {
          "name": "_operator",
          "type": "address"
        }
      ],
      "name": "whitelist",
      "outputs": [
        {
          "name": "",
          "type": "bool"
        }
      ],
      "payable": false,
      "stateMutability": "view",
      "type": "function"
    },
    {
      "constant": false,
      "inputs": [
        {
          "name": "_to",
          "type": "address"
        },
        {
          "name": "_approved",
          "type": "bool"
        }
      ],
      "name": "setApprovalForAll",
      "outputs": [],
      "payable": false,
      "stateMutability": "nonpayable",
      "type": "function"
    },
    {
      "constant": false,
      "inputs": [
        {
          "name": "_from",
          "type": "address"
        },
        {
          "name": "_to",
          "type": "address"
        },
        {
          "name": "_tokenId",
          "type": "uint256"
        },
        {
          "name": "_data",
          "type": "bytes"
        }
      ],
      "name": "safeTransferFrom",
      "outputs": [],
      "payable": false,
      "stateMutability": "nonpayable",
      "type": "function"
    },
    {
      "constant": false,
      "inputs": [
        {
          "name": "_operators",
          "type": "address[]"
        }
      ],
      "name": "addAddressesToWhitelist",
      "outputs": [],
      "payable": false,
      "stateMutability": "nonpayable",
      "type": "function"
    },
    {
      "constant": true,
      "inputs": [
        {
          "name": "_owner",
          "type": "address"
        },
        {
          "name": "_operator",
          "type": "address"
        }
      ],
      "name": "isApprovedForAll",
      "outputs": [
        {
          "name": "",
          "type": "bool"
        }
      ],
      "payable": false,
      "stateMutability": "view",
      "type": "function"
    },
    {
      "constant": false,
      "inputs": [
        {
          "name": "_newOwner",
          "type": "address"
        }
      ],
      "name": "transferOwnership",
      "outputs": [],
      "payable": false,
      "stateMutability": "nonpayable",
      "type": "function"
    },
    {
      "inputs": [],
      "payable": false,
      "stateMutability": "nonpayable",
      "type": "constructor"
    },
    {
      "payable": true,
      "stateMutability": "payable",
      "type": "fallback"
    },
    {
      "anonymous": false,
      "inputs": [
        {
          "indexed": true,
          "name": "_owner",
          "type": "address"
        },
        {
          "indexed": true,
          "name": "_tokenId",
          "type": "uint256"
        },
        {
          "indexed": false,
          "name": "_blockhash",
          "type": "bytes32"
        },
        {
          "indexed": false,
          "name": "_nickname",
          "type": "bytes32"
        }
      ],
      "name": "Minted",
      "type": "event"
    },
    {
      "anonymous": false,
      "inputs": [
        {
          "indexed": true,
          "name": "operator",
          "type": "address"
        },
        {
          "indexed": false,
          "name": "role",
          "type": "string"
        }
      ],
      "name": "RoleAdded",
      "type": "event"
    },
    {
      "anonymous": false,
      "inputs": [
        {
          "indexed": true,
          "name": "operator",
          "type": "address"
        },
        {
          "indexed": false,
          "name": "role",
          "type": "string"
        }
      ],
      "name": "RoleRemoved",
      "type": "event"
    },
    {
      "anonymous": false,
      "inputs": [
        {
          "indexed": true,
          "name": "previousOwner",
          "type": "address"
        }
      ],
      "name": "OwnershipRenounced",
      "type": "event"
    },
    {
      "anonymous": false,
      "inputs": [
        {
          "indexed": true,
          "name": "previousOwner",
          "type": "address"
        },
        {
          "indexed": true,
          "name": "newOwner",
          "type": "address"
        }
      ],
      "name": "OwnershipTransferred",
      "type": "event"
    },
    {
      "anonymous": false,
      "inputs": [
        {
          "indexed": true,
          "name": "_from",
          "type": "address"
        },
        {
          "indexed": true,
          "name": "_to",
          "type": "address"
        },
        {
          "indexed": true,
          "name": "_tokenId",
          "type": "uint256"
        }
      ],
      "name": "Transfer",
      "type": "event"
    },
    {
      "anonymous": false,
      "inputs": [
        {
          "indexed": true,
          "name": "_owner",
          "type": "address"
        },
        {
          "indexed": true,
          "name": "_approved",
          "type": "address"
        },
        {
          "indexed": true,
          "name": "_tokenId",
          "type": "uint256"
        }
      ],
      "name": "Approval",
      "type": "event"
    },
    {
      "anonymous": false,
      "inputs": [
        {
          "indexed": true,
          "name": "_owner",
          "type": "address"
        },
        {
          "indexed": true,
          "name": "_operator",
          "type": "address"
        },
        {
          "indexed": false,
          "name": "_approved",
          "type": "bool"
        }
      ],
      "name": "ApprovalForAll",
      "type": "event"
    },
    {
      "constant": false,
      "inputs": [
        {
          "name": "_blockhash",
          "type": "bytes32"
        },
        {
          "name": "_tokenId",
          "type": "uint256"
        },
        {
          "name": "_nickname",
          "type": "bytes32"
        }
      ],
      "name": "mint",
      "outputs": [],
      "payable": false,
      "stateMutability": "nonpayable",
      "type": "function"
    },
    {
      "constant": false,
      "inputs": [
        {
          "name": "_blockhash",
          "type": "bytes32"
        },
        {
          "name": "_tokenId",
          "type": "uint256"
        },
        {
          "name": "_nickname",
          "type": "bytes32"
        },
        {
          "name": "_recipient",
          "type": "address"
        }
      ],
      "name": "mintTransfer",
      "outputs": [],
      "payable": false,
      "stateMutability": "nonpayable",
      "type": "function"
    },
    {
      "constant": false,
      "inputs": [
        {
          "name": "_nickname",
          "type": "bytes32"
        }
      ],
      "name": "buyToken",
      "outputs": [],
      "payable": true,
      "stateMutability": "payable",
      "type": "function"
    },
    {
      "constant": false,
      "inputs": [
        {
          "name": "_nickname",
          "type": "bytes32"
        }
      ],
      "name": "buyTokens",
      "outputs": [],
      "payable": true,
      "stateMutability": "payable",
      "type": "function"
    },
    {
      "constant": false,
      "inputs": [
        {
          "name": "_costOfToken",
          "type": "uint256"
        }
      ],
      "name": "setCostOfToken",
      "outputs": [],
      "payable": false,
      "stateMutability": "nonpayable",
      "type": "function"
    },
    {
      "constant": false,
      "inputs": [
        {
          "name": "_tokenId",
          "type": "uint256"
        },
        {
          "name": "_nickname",
          "type": "bytes32"
        }
      ],
      "name": "setNickname",
      "outputs": [],
      "payable": false,
      "stateMutability": "nonpayable",
      "type": "function"
    },
    {
      "constant": true,
      "inputs": [
        {
          "name": "_owner",
          "type": "address"
        }
      ],
      "name": "tokensOf",
      "outputs": [
        {
          "name": "_tokenIds",
          "type": "uint256[]"
        }
      ],
      "payable": false,
      "stateMutability": "view",
      "type": "function"
    },
    {
      "constant": true,
      "inputs": [
        {
          "name": "_owner",
          "type": "address"
        }
      ],
      "name": "hasTokens",
      "outputs": [
        {
          "name": "",
          "type": "bool"
        }
      ],
      "payable": false,
      "stateMutability": "view",
      "type": "function"
    },
    {
      "constant": true,
      "inputs": [
        {
          "name": "_owner",
          "type": "address"
        }
      ],
      "name": "firstToken",
      "outputs": [
        {
          "name": "_tokenId",
          "type": "uint256"
        }
      ],
      "payable": false,
      "stateMutability": "view",
      "type": "function"
    },
    {
      "constant": true,
      "inputs": [
        {
          "name": "_tokenId",
          "type": "uint256"
        }
      ],
      "name": "nicknameOf",
      "outputs": [
        {
          "name": "_nickname",
          "type": "bytes32"
        }
      ],
      "payable": false,
      "stateMutability": "view",
      "type": "function"
    },
    {
      "constant": true,
      "inputs": [
        {
          "name": "_tokenId",
          "type": "uint256"
        }
      ],
      "name": "tokenURI",
      "outputs": [
        {
          "name": "",
          "type": "string"
        }
      ],
      "payable": false,
      "stateMutability": "view",
      "type": "function"
    },
    {
      "constant": false,
      "inputs": [
        {
          "name": "_newBaseURI",
          "type": "string"
        }
      ],
      "name": "setTokenBaseURI",
      "outputs": [],
      "payable": false,
      "stateMutability": "nonpayable",
      "type": "function"
    },
    {
      "constant": false,
      "inputs": [
        {
          "name": "_defaultTokenURI",
          "type": "string"
        }
      ],
      "name": "setDefaultTokenURI",
      "outputs": [],
      "payable": false,
      "stateMutability": "nonpayable",
      "type": "function"
    },
    {
      "constant": false,
      "inputs": [
        {
          "name": "_tokenId",
          "type": "uint256"
        },
        {
          "name": "_uri",
          "type": "string"
        }
      ],
      "name": "setTokenURI",
      "outputs": [],
      "payable": false,
      "stateMutability": "nonpayable",
      "type": "function"
    },
    {
      "constant": true,
      "inputs": [
        {
          "name": "_tokenId",
          "type": "uint256"
        }
      ],
      "name": "blockhashOf",
      "outputs": [
        {
          "name": "hash",
          "type": "bytes32"
        }
      ],
      "payable": false,
      "stateMutability": "view",
      "type": "function"
    }
  ],
  "bytecode": "0x60c0604052601c60808190527f68747470733a2f2f697066732e696e667572612e696f2f697066732f0000000060a09081526200004091600e9190620004c3565b5060408051606081018252602e8082527f516d5572546a5079326734617752594156384b73525368476148664c6863676b602083019081527f336e51704547775935383933426b0000000000000000000000000000000000009290930191909152620000af91600f91620004c3565b50633b9aca00601055662386f26fc10000601155348015620000d057600080fd5b50604080518082018252600f81527f496e7465726661636520546f6b656e00000000000000000000000000000000006020808301919091528251808401909352600483527f544f4b4e0000000000000000000000000000000000000000000000000000000090830152906200016e7f01ffc9a700000000000000000000000000000000000000000000000000000000640100000000620002a0810204565b620001a27f80ac58cd00000000000000000000000000000000000000000000000000000000640100000000620002a0810204565b620001d67f4f558e7900000000000000000000000000000000000000000000000000000000640100000000620002a0810204565b8151620001eb906005906020850190620004c3565b50805162000201906006906020840190620004c3565b50620002367f780e9d6300000000000000000000000000000000000000000000000000000000640100000000620002a0810204565b6200026a7f5b5e139f00000000000000000000000000000000000000000000000000000000640100000000620002a0810204565b5050600c8054600160a060020a031916339081179091556200029a90640100000000620012ac6200030d82021704565b62000568565b7fffffffff000000000000000000000000000000000000000000000000000000008082161415620002d057600080fd5b7fffffffff00000000000000000000000000000000000000000000000000000000166000908152602081905260409020805460ff19166001179055565b600c54600160a060020a031633146200032557600080fd5b62000375816040805190810160405280600981526020017f77686974656c697374000000000000000000000000000000000000000000000081525062000378640100000000026401000000009004565b50565b620003f482600d836040518082805190602001908083835b60208310620003b15780518252601f19909201916020918201910162000390565b51815160209384036101000a60001901801990921691161790529201948552506040519384900301909220929150506401000000006200049e8102620021fc1704565b81600160a060020a03167fbfec83d64eaa953f2708271a023ab9ee82057f8f3578d548c1a4ba0b5b700489826040518080602001828103825283818151815260200191508051906020019080838360005b838110156200045f57818101518382015260200162000445565b50505050905090810190601f1680156200048d5780820380516001836020036101000a031916815260200191505b509250505060405180910390a25050565b600160a060020a0316600090815260209190915260409020805460ff19166001179055565b828054600181600116156101000203166002900490600052602060002090601f016020900481019282601f106200050657805160ff191683800117855562000536565b8280016001018555821562000536579182015b828111156200053657825182559160200191906001019062000519565b506200054492915062000548565b5090565b6200056591905b808211156200054457600081556001016200054f565b90565b61265780620005786000396000f3006080604052600436106102245763ffffffff7c010000000000000000000000000000000000000000000000000000000060003504166301ffc9a7811461023057806306fdde031461026657806307518c8e146102f0578063081812fc1461031a578063095ea7b31461034e5780630988ca8c14610372578063162094c4146103d957806318160ddd146103fd57806318b919e91461041257806319fa8f50146104275780631bcf468b14610459578063202c413d1461046e578063217fe6c61461048957806323b872dd146104f057806324953eaa1461051a578063286dd3f51461056f5780632f745c59146105905780633cefc1e0146105b457806340786dec146105d557806342842e0e146105f35780634f558e791461061d5780634f6ccce71461063557806354f50f1b1461064d5780635a3f2672146106655780635cbb2ac3146106d65780636352211e146106eb578063699ac46f146107035780636f37f48b1461072d57806370a082311461074e578063715018a61461076f5780637b9417c8146107845780638da5cb5b146107a55780638ef79e91146107ba57806395d89b41146107da5780639b19251a146107ef578063a125c82414610810578063a22cb46514610830578063a7dbfcaa14610856578063b88d4fde1461086e578063c87b56dd146108dd578063dffd5e57146108f5578063e2ec6ec314610900578063e985e9c514610955578063ea7000d61461097c578063f2fde38b14610987575b61022e60006109a8565b005b34801561023c57600080fd5b50610252600160e060020a031960043516610af9565b604080519115158252519081900360200190f35b34801561027257600080fd5b5061027b610b1c565b6040805160208082528351818301528351919283929083019185019080838360005b838110156102b557818101518382015260200161029d565b50505050905090810190601f1680156102e25780820380516001836020036101000a031916815260200191505b509250505060405180910390f35b3480156102fc57600080fd5b50610308600435610bb3565b60408051918252519081900360200190f35b34801561032657600080fd5b50610332600435610bc5565b60408051600160a060020a039092168252519081900360200190f35b34801561035a57600080fd5b5061022e600160a060020a0360043516602435610be0565b34801561037e57600080fd5b5060408051602060046024803582810135601f810185900485028601850190965285855261022e958335600160a060020a0316953695604494919390910191908190840183828082843750949750610c969650505050505050565b3480156103e557600080fd5b5061022e600480359060248035908101910135610d04565b34801561040957600080fd5b50610308610d86565b34801561041e57600080fd5b5061027b610d8c565b34801561043357600080fd5b5061043c610db1565b60408051600160e060020a03199092168252519081900360200190f35b34801561046557600080fd5b50610308610dd5565b34801561047a57600080fd5b5061022e600435602435610ddb565b34801561049557600080fd5b5060408051602060046024803582810135601f8101859004850286018501909652858552610252958335600160a060020a0316953695604494919390910191908190840183828082843750949750610e0c9650505050505050565b3480156104fc57600080fd5b5061022e600160a060020a0360043581169060243516604435610e7f565b34801561052657600080fd5b506040805160206004803580820135838102808601850190965280855261022e95369593946024949385019291829185019084908082843750949750610f249650505050505050565b34801561057b57600080fd5b5061022e600160a060020a0360043516610f73565b34801561059c57600080fd5b50610308600160a060020a0360043516602435610fba565b3480156105c057600080fd5b50610252600160a060020a0360043516611007565b3480156105e157600080fd5b5061022e600435602435604435611023565b3480156105ff57600080fd5b5061022e600160a060020a036004358116906024351660443561105d565b34801561062957600080fd5b5061025260043561108f565b34801561064157600080fd5b506103086004356110ac565b34801561065957600080fd5b506103086004356110e1565b34801561067157600080fd5b50610686600160a060020a03600435166110f3565b60408051602080825283518183015283519192839290830191858101910280838360005b838110156106c25781810151838201526020016106aa565b505050509050019250505060405180910390f35b3480156106e257600080fd5b5061030861115f565b3480156106f757600080fd5b50610332600435611165565b34801561070f57600080fd5b5061022e600435602435604435600160a060020a036064351661118f565b34801561073957600080fd5b50610308600160a060020a03600435166111d0565b34801561075a57600080fd5b50610308600160a060020a036004351661120b565b34801561077b57600080fd5b5061022e61123e565b34801561079057600080fd5b5061022e600160a060020a03600435166112ac565b3480156107b157600080fd5b506103326112f0565b3480156107c657600080fd5b5061022e60048035602481019101356112ff565b3480156107e657600080fd5b5061027b611322565b3480156107fb57600080fd5b50610252600160a060020a0360043516611383565b34801561081c57600080fd5b5061022e60048035602481019101356113b2565b34801561083c57600080fd5b5061022e600160a060020a036004351660243515156113d5565b34801561086257600080fd5b5061022e600435611459565b34801561087a57600080fd5b50604080516020601f60643560048181013592830184900484028501840190955281845261022e94600160a060020a03813581169560248035909216956044359536956084940191819084018382808284375094975061148d9650505050505050565b3480156108e957600080fd5b5061027b6004356114c5565b61022e600435611715565b34801561090c57600080fd5b506040805160206004803580820135838102808601850190965280855261022e953695939460249493850192918291850190849080828437509497506118399650505050505050565b34801561096157600080fd5b50610252600160a060020a0360043581169060243516611888565b61022e6004356109a8565b34801561099357600080fd5b5061022e600160a060020a03600435166118b6565b6011546000903410156109ba57600080fd5b5060005b601154348115156109cb57fe5b04811015610a8357601054604080516020808201939093528082018590528151808203830181526060909101918290528051610a64939192918291908401908083835b60208310610a2d5780518252601f199092019160209182019101610a0e565b6001836020036101000a038019825116818451168082178552505050505050905001915050604051809103902060105484336118d6565b601054610a7890600163ffffffff61198c16565b6010556001016109be565b600c54601154604051600160a060020a039092169190830280156108fc02916000818181858888f19350505050158015610ac1573d6000803e3d6000fd5b5060115460405133918302340380156108fc02916000818181858888f19350505050158015610af4573d6000803e3d6000fd5b505050565b600160e060020a0319811660009081526020819052604090205460ff165b919050565b60058054604080516020601f6002600019610100600188161502019095169490940493840181900481028201810190925282815260609390929091830182828015610ba85780601f10610b7d57610100808354040283529160200191610ba8565b820191906000526020600020905b815481529060010190602001808311610b8b57829003601f168201915b505050505090505b90565b60009081526013602052604090205490565b600090815260026020526040902054600160a060020a031690565b6000610beb82611165565b9050600160a060020a038381169082161415610c0657600080fd5b33600160a060020a0382161480610c225750610c228133611888565b1515610c2d57600080fd5b600082815260026020526040808220805473ffffffffffffffffffffffffffffffffffffffff1916600160a060020a0387811691821790925591518593918516917f8c5be1e5ebec7d5bd14f71427d1e84f3dd0314c0f7b2291e5b200ac8c7c3b92591a4505050565b610d0082600d836040518082805190602001908083835b60208310610ccc5780518252601f199092019160209182019101610cad565b51815160209384036101000a6000190180199092169116179052920194855250604051938490030190922092915050611999565b5050565b33610d328160408051908101604052806009815260200160008051602061260c833981519152815250610c96565b610d3b8461108f565b1515610d4657600080fd5b610d808484848080601f016020809104026020016040519081016040528093929190818152602001838380828437506119ae945050505050565b50505050565b60095490565b604080518082019091526009815260008051602061260c833981519152602082015281565b7f01ffc9a70000000000000000000000000000000000000000000000000000000081565b60115481565b8133610de682611165565b600160a060020a031614610df957600080fd5b5060009182526012602052604090912055565b6000610e7883600d846040518082805190602001908083835b60208310610e445780518252601f199092019160209182019101610e25565b51815160209384036101000a60001901801990921691161790529201948552506040519384900301909220929150506119e1565b9392505050565b80610e8a3382611a00565b1515610e9557600080fd5b600160a060020a0384161515610eaa57600080fd5b600160a060020a0383161515610ebf57600080fd5b610ec98483611a5f565b610ed38483611ace565b610edd8383611c07565b8183600160a060020a031685600160a060020a03167fddf252ad1be2c89b69c2b068fc378daa952ba7f163c4a11628f55a4df523b3ef60405160405180910390a450505050565b600c54600090600160a060020a03163314610f3e57600080fd5b5060005b8151811015610d0057610f6b8282815181101515610f5c57fe5b90602001906020020151610f73565b600101610f42565b600c54600160a060020a03163314610f8a57600080fd5b610fb78160408051908101604052806009815260200160008051602061260c833981519152815250611c50565b50565b6000610fc58361120b565b8210610fd057600080fd5b600160a060020a0383166000908152600760205260409020805483908110610ff457fe5b9060005260206000200154905092915050565b600160a060020a03166000908152600760205260408120541190565b336110518160408051908101604052806009815260200160008051602061260c833981519152815250610c96565b610d80848484336118d6565b806110683382611a00565b151561107357600080fd5b610d80848484602060405190810160405280600081525061148d565b600090815260016020526040902054600160a060020a0316151590565b60006110b6610d86565b82106110c157600080fd5b60098054839081106110cf57fe5b90600052602060002001549050919050565b60009081526012602052604090205490565b600160a060020a03811660009081526007602090815260409182902080548351818402810184019094528084526060939283018282801561115357602002820191906000526020600020905b81548152602001906001019080831161113f575b50505050509050919050565b60105481565b600081815260016020526040812054600160a060020a031680151561118957600080fd5b92915050565b336111bd8160408051908101604052806009815260200160008051602061260c833981519152815250610c96565b6111c9858585856118d6565b5050505050565b60006111db82611007565b15156111e657600080fd5b600160a060020a0382166000908152600760205260408120805490919081106110cf57fe5b6000600160a060020a038216151561122257600080fd5b50600160a060020a031660009081526003602052604090205490565b600c54600160a060020a0316331461125557600080fd5b600c54604051600160a060020a03909116907ff8df31144d9c2f0f6b59d69b8b98abd5459d07f2742c4df920b25aae33c6482090600090a2600c805473ffffffffffffffffffffffffffffffffffffffff19169055565b600c54600160a060020a031633146112c357600080fd5b610fb78160408051908101604052806009815260200160008051602061260c833981519152815250611d61565b600c54600160a060020a031681565b600c54600160a060020a0316331461131657600080fd5b610af4600e83836124e5565b60068054604080516020601f6002600019610100600188161502019095169490940493840181900481028201810190925282815260609390929091830182828015610ba85780601f10610b7d57610100808354040283529160200191610ba8565b60006111898260408051908101604052806009815260200160008051602061260c833981519152815250610e0c565b600c54600160a060020a031633146113c957600080fd5b610af4600f83836124e5565b600160a060020a0382163314156113eb57600080fd5b336000818152600460209081526040808320600160a060020a03871680855290835292819020805460ff1916861515908117909155815190815290519293927f17307eab39ab6107e8899845ad3d59bd9653f200f220920489ca2b5937696c31929181900390910190a35050565b336114878160408051908101604052806009815260200160008051602061260c833981519152815250610c96565b50601155565b816114983382611a00565b15156114a357600080fd5b6114ae858585610e7f565b6114ba85858585611e33565b15156111c957600080fd5b6000818152600b602052604090205460609060026000196101006001841615020190911604151561161c57600e8054604080516020601f60026000196101006001881615020190951694909404938401819004810282018101909252828152611615939092909183018282801561157d5780601f106115525761010080835404028352916020019161157d565b820191906000526020600020905b81548152906001019060200180831161156057829003601f168201915b5050600f8054604080516020601f600260001961010060018816150201909516949094049384018190048102820181019092528281529550919350915083018282801561160b5780601f106115e05761010080835404028352916020019161160b565b820191906000526020600020905b8154815290600101906020018083116115ee57829003601f168201915b5050505050611fa0565b9050610b17565b600e8054604080516020601f6002600019610100600188161502019095169490940493840181900481028201810190925282815261118993909290918301828280156116a95780601f1061167e576101008083540402835291602001916116a9565b820191906000526020600020905b81548152906001019060200180831161168c57829003601f168201915b5050506000868152600b60209081526040918290208054835160026001831615610100026000190190921691909104601f81018490048402820184019094528381529450925083018282801561160b5780601f106115e05761010080835404028352916020019161160b565b60115434101561172457600080fd5b6010546040805160208082019390935280820184905281518082038301815260609091019182905280516117b5939192918291908401908083835b6020831061177e5780518252601f19909201916020918201910161175f565b6001836020036101000a038019825116818451168082178552505050505050905001915050604051809103902060105483336118d6565b6010546117c990600163ffffffff61198c16565b601055600c54601154604051600160a060020a039092169181156108fc0291906000818181858888f19350505050158015611808573d6000803e3d6000fd5b506011546040513391340380156108fc02916000818181858888f19350505050158015610d00573d6000803e3d6000fd5b600c54600090600160a060020a0316331461185357600080fd5b5060005b8151811015610d0057611880828281518110151561187157fe5b906020019060200201516112ac565b600101611857565b600160a060020a03918216600090815260046020908152604080832093909416825291909152205460ff1690565b600c54600160a060020a031633146118cd57600080fd5b610fb781611fd5565b600084815260146020526040902054156118ef57600080fd5b6000838152601360205260409020541561190857600080fd5b6119128184612053565b6000838152601360209081526040808320879055868352601482528083208690558583526012825291829020849055815186815290810184905281518592600160a060020a038516927f524f2cbda4d6611f91af397a555f7d212dde00cbf933069a6267518e0c4a27d7929081900390910190a350505050565b8181018281101561118957fe5b6119a382826119e1565b1515610d0057600080fd5b6119b78261108f565b15156119c257600080fd5b6000828152600b602090815260409091208251610af492840190612563565b600160a060020a03166000908152602091909152604090205460ff1690565b600080611a0c83611165565b905080600160a060020a031684600160a060020a03161480611a47575083600160a060020a0316611a3c84610bc5565b600160a060020a0316145b80611a575750611a578185611888565b949350505050565b81600160a060020a0316611a7282611165565b600160a060020a031614611a8557600080fd5b600081815260026020526040902054600160a060020a031615610d00576000908152600260205260409020805473ffffffffffffffffffffffffffffffffffffffff1916905550565b6000806000611add85856120a2565b600084815260086020908152604080832054600160a060020a0389168452600790925290912054909350611b1890600163ffffffff61213816565b600160a060020a038616600090815260076020526040902080549193509083908110611b4057fe5b90600052602060002001549050806007600087600160a060020a0316600160a060020a0316815260200190815260200160002084815481101515611b8057fe5b6000918252602080832090910192909255600160a060020a0387168152600790915260408120805484908110611bb257fe5b6000918252602080832090910192909255600160a060020a0387168152600790915260409020805490611be99060001983016125d1565b50600093845260086020526040808520859055908452909220555050565b6000611c13838361214a565b50600160a060020a039091166000908152600760209081526040808320805460018101825590845282842081018590559383526008909152902055565b611cba82600d836040518082805190602001908083835b60208310611c865780518252601f199092019160209182019101611c67565b51815160209384036101000a60001901801990921691161790529201948552506040519384900301909220929150506121da565b81600160a060020a03167fd211483f91fc6eff862467f8de606587a30c8fc9981056f051b897a418df803a826040518080602001828103825283818151815260200191508051906020019080838360005b83811015611d23578181015183820152602001611d0b565b50505050905090810190601f168015611d505780820380516001836020036101000a031916815260200191505b509250505060405180910390a25050565b611dcb82600d836040518082805190602001908083835b60208310611d975780518252601f199092019160209182019101611d78565b51815160209384036101000a60001901801990921691161790529201948552506040519384900301909220929150506121fc565b81600160a060020a03167fbfec83d64eaa953f2708271a023ab9ee82057f8f3578d548c1a4ba0b5b7004898260405180806020018281038252838181518152602001915080519060200190808383600083811015611d23578181015183820152602001611d0b565b600080611e4885600160a060020a0316612221565b1515611e575760019150611f97565b6040517f150b7a020000000000000000000000000000000000000000000000000000000081523360048201818152600160a060020a03898116602485015260448401889052608060648501908152875160848601528751918a169463150b7a0294938c938b938b93909160a490910190602085019080838360005b83811015611eea578181015183820152602001611ed2565b50505050905090810190601f168015611f175780820380516001836020036101000a031916815260200191505b5095505050505050602060405180830381600087803b158015611f3957600080fd5b505af1158015611f4d573d6000803e3d6000fd5b505050506040513d6020811015611f6357600080fd5b5051600160e060020a031981167f150b7a020000000000000000000000000000000000000000000000000000000014925090505b50949350505050565b604080516020818101835260008083528351808301855281815284519283019094528152606092610e78928692869290612229565b600160a060020a0381161515611fea57600080fd5b600c54604051600160a060020a038084169216907f8be0079c531659141344cd1fd0a4f28419497f9722a3daafe3b4186f6b6457e090600090a3600c805473ffffffffffffffffffffffffffffffffffffffff1916600160a060020a0392909216919091179055565b61205d828261248a565b600980546000838152600a60205260408120829055600182018355919091527f6e1540171b6c0c960b71a7020d9f60077f6af931a8bbf590da0223dacf75c7af015550565b81600160a060020a03166120b582611165565b600160a060020a0316146120c857600080fd5b600160a060020a0382166000908152600360205260409020546120f290600163ffffffff61213816565b600160a060020a03909216600090815260036020908152604080832094909455918152600190915220805473ffffffffffffffffffffffffffffffffffffffff19169055565b60008282111561214457fe5b50900390565b600081815260016020526040902054600160a060020a03161561216c57600080fd5b6000818152600160208181526040808420805473ffffffffffffffffffffffffffffffffffffffff1916600160a060020a03881690811790915584526003909152909120546121ba9161198c565b600160a060020a0390921660009081526003602052604090209190915550565b600160a060020a0316600090815260209190915260409020805460ff19169055565b600160a060020a0316600090815260209190915260409020805460ff19166001179055565b6000903b1190565b6060806060806060806060806000808e98508d97508c96508b95508a94508451865188518a518c51010101016040519080825280601f01601f191660200182016040528015612282578160200160208202803883390190505b50935083925060009150600090505b88518110156122ef5788818151811015156122a857fe5b90602001015160f860020a900460f860020a0283838060010194508151811015156122cf57fe5b906020010190600160f860020a031916908160001a905350600101612291565b5060005b875181101561235157878181518110151561230a57fe5b90602001015160f860020a900460f860020a02838380600101945081518110151561233157fe5b906020010190600160f860020a031916908160001a9053506001016122f3565b5060005b86518110156123b357868181518110151561236c57fe5b90602001015160f860020a900460f860020a02838380600101945081518110151561239357fe5b906020010190600160f860020a031916908160001a905350600101612355565b5060005b85518110156124155785818151811015156123ce57fe5b90602001015160f860020a900460f860020a0283838060010194508151811015156123f557fe5b906020010190600160f860020a031916908160001a9053506001016123b7565b5060005b845181101561247757848181518110151561243057fe5b90602001015160f860020a900460f860020a02838380600101945081518110151561245757fe5b906020010190600160f860020a031916908160001a905350600101612419565b50909d9c50505050505050505050505050565b600160a060020a038216151561249f57600080fd5b6124a98282611c07565b6040518190600160a060020a038416906000907fddf252ad1be2c89b69c2b068fc378daa952ba7f163c4a11628f55a4df523b3ef908290a45050565b828054600181600116156101000203166002900490600052602060002090601f016020900481019282601f106125265782800160ff19823516178555612553565b82800160010185558215612553579182015b82811115612553578235825591602001919060010190612538565b5061255f9291506125f1565b5090565b828054600181600116156101000203166002900490600052602060002090601f016020900481019282601f106125a457805160ff1916838001178555612553565b82800160010185558215612553579182015b828111156125535782518255916020019190600101906125b6565b815481835581811115610af457600083815260209020610af49181019083015b610bb091905b8082111561255f57600081556001016125f7560077686974656c6973740000000000000000000000000000000000000000000000a165627a7a72305820a74f2778161bdabb091e5675f05523b3fede6cdaf23352df46e4043020f2e05e0029",
  "source": "pragma solidity ^0.4.24;\n\nimport \"./Strings.sol\";\n\nimport 'openzeppelin-solidity/contracts/access/Whitelist.sol';\nimport 'openzeppelin-solidity/contracts/math/SafeMath.sol';\nimport 'openzeppelin-solidity/contracts/token/ERC721/ERC721Token.sol';\n\n/**\n  * @title InterfaceToken\n  * https://www.interfacetoken.com/\n  */\ncontract InterfaceToken is ERC721Token, Whitelist {\n  using SafeMath for uint256;\n\n  event Minted(address indexed _owner, uint256 indexed _tokenId, bytes32 _blockhash, bytes32 _nickname);\n\n  string internal tokenBaseURI = \"https://ipfs.infura.io/ipfs/\";\n  string internal defaultTokenURI = \"QmUrTjPy2g4awRYAV8KsRShGaHfLhcgk3nQpEGwY5893Bk\";\n\n  uint256 public purchaseTokenPointer = 1000000000;\n  uint256 public costOfToken = 0.01 ether;\n\n  mapping(uint256 => bytes32) internal tokenIdToNickname;\n\n  mapping(uint256 => bytes32) internal tokenIdToBlockhash;\n  mapping(bytes32 => uint256) internal blockhashToTokenId;\n\n  constructor() public ERC721Token(\"Interface Token\", \"TOKN\") {\n    super.addAddressToWhitelist(msg.sender);\n  }\n\n  function() public payable {\n    buyTokens(\"\");\n  }\n\n  /**\n   * @dev Mint a new InterfaceToken token\n   * @dev Reverts if not called by curator\n   * @param _blockhash an Ethereum block hash\n   * @param _tokenId unique token ID\n   * @param _nickname char stamp of token owner\n   */\n  function mint(bytes32 _blockhash, uint256 _tokenId, bytes32 _nickname) external onlyIfWhitelisted(msg.sender) {\n    _mint(_blockhash, _tokenId, _nickname, msg.sender);\n  }\n\n  /**\n   * @dev Mint a new InterfaceToken token (with recipient)\n   * @dev Reverts if not called by curator\n   * @param _blockhash an Ethereum block hash\n   * @param _tokenId unique token ID\n   * @param _nickname char stamp of token owner\n   * @param _recipient owner of the newly minted token\n   */\n  function mintTransfer(bytes32 _blockhash, uint256 _tokenId, bytes32 _nickname, address _recipient) external onlyIfWhitelisted(msg.sender) {\n    _mint(_blockhash, _tokenId, _nickname, _recipient);\n  }\n\n  /**\n   * @dev Purchases a new InterfaceToken token\n   * @dev Reverts if not called by curator\n   * @param _nickname char stamp of token owner\n   */\n  function buyToken(bytes32 _nickname) public payable {\n    require(msg.value >= costOfToken);\n\n    _mint(keccak256(abi.encodePacked(purchaseTokenPointer, _nickname)), purchaseTokenPointer, _nickname, msg.sender);\n    purchaseTokenPointer = purchaseTokenPointer.add(1);\n\n    // reconcile payments\n    owner.transfer(costOfToken);\n    msg.sender.transfer(msg.value - costOfToken);\n  }\n\n  /**\n   * @dev Purchases multiple new InterfaceToken tokens\n   * @dev Reverts if not called by curator\n   * @param _nickname char stamp of token owner\n   */\n  function buyTokens(bytes32 _nickname) public payable {\n    require(msg.value >= costOfToken);\n\n    uint i = 0;\n    for (i; i < (msg.value / costOfToken); i++) {\n      _mint(keccak256(abi.encodePacked(purchaseTokenPointer, _nickname)), purchaseTokenPointer, _nickname, msg.sender);\n      purchaseTokenPointer = purchaseTokenPointer.add(1);\n    }\n\n    // reconcile payments\n    owner.transfer(costOfToken * i);\n    msg.sender.transfer(msg.value - (costOfToken * i));\n  }\n\n  function _mint(bytes32 _blockhash, uint256 _tokenId, bytes32 _nickname, address _recipient) internal {\n    require(blockhashToTokenId[_blockhash] == 0);\n    require(tokenIdToBlockhash[_tokenId] == 0);\n\n    // mint the token with sender as owner\n    super._mint(_recipient, _tokenId);\n\n    // set data\n    tokenIdToBlockhash[_tokenId] = _blockhash;\n    blockhashToTokenId[_blockhash] = _tokenId;\n    tokenIdToNickname[_tokenId] = _nickname;\n\n    emit Minted(_recipient, _tokenId, _blockhash, _nickname);\n  }\n\n  /**\n   * @dev Utility function changing the cost of the token\n   * @dev Reverts if not called by owner\n   * @param _costOfToken cost in wei\n   */\n  function setCostOfToken(uint256 _costOfToken) external onlyIfWhitelisted(msg.sender) {\n    costOfToken = _costOfToken;\n  }\n\n  /**\n   * @dev Utility function for updating a nickname if you own the token\n   * @dev Reverts if not called by owner\n   * @param _tokenId the DART token ID\n   * @param _nickname char stamp of token owner\n   */\n  function setNickname(uint256 _tokenId, bytes32 _nickname) external onlyOwnerOf(_tokenId) {\n    tokenIdToNickname[_tokenId] = _nickname;\n  }\n\n  /**\n   * @dev Return owned tokens\n   * @param _owner address to query\n   */\n  function tokensOf(address _owner) public view returns (uint256[] _tokenIds) {\n    return ownedTokens[_owner];\n  }\n\n  /**\n   * @dev checks for owned tokens\n   * @param _owner address to query\n   */\n  function hasTokens(address _owner) public view returns (bool) {\n    return ownedTokens[_owner].length > 0;\n  }\n\n  /**\n   * @dev checks for owned tokens\n   * @param _owner address to query\n   */\n  function firstToken(address _owner) public view returns (uint256 _tokenId) {\n    require(hasTokens(_owner));\n    return ownedTokens[_owner][0];\n  }\n\n  /**\n   * @dev Return handle of token\n   * @param _tokenId token ID for handle lookup\n   */\n  function nicknameOf(uint256 _tokenId) public view returns (bytes32 _nickname) {\n    return tokenIdToNickname[_tokenId];\n  }\n\n  /**\n   * @dev Get token URI fro the given token, useful for testing purposes\n   * @param _tokenId the DART token ID\n   * @return the token ID or only the base URI if not found\n   */\n  function tokenURI(uint256 _tokenId) public view returns (string) {\n    if (bytes(tokenURIs[_tokenId]).length == 0) {\n      return Strings.strConcat(tokenBaseURI, defaultTokenURI);\n    }\n\n    return Strings.strConcat(tokenBaseURI, tokenURIs[_tokenId]);\n  }\n\n  /**\n   * @dev Allows management to update the base tokenURI path\n   * @dev Reverts if not called by owner\n   * @param _newBaseURI the new base URI to set\n   */\n  function setTokenBaseURI(string _newBaseURI) external onlyOwner {\n    tokenBaseURI = _newBaseURI;\n  }\n\n  /**\n   * @dev Allows management to update the default token URI\n   * @dev Reverts if not called by owner\n   * @param _defaultTokenURI the new default URI to set\n   */\n  function setDefaultTokenURI(string _defaultTokenURI) external onlyOwner {\n    defaultTokenURI = _defaultTokenURI;\n  }\n\n  /**\n   * @dev Utility function for updating a DART assets token URI\n   * @dev Reverts if not called by management\n   * @param _tokenId the DART token ID\n   * @param _uri the token URI, will be concatenated with baseUri\n   */\n  function setTokenURI(uint256 _tokenId, string _uri) external onlyIfWhitelisted(msg.sender) {\n    require(exists(_tokenId));\n    _setTokenURI(_tokenId, _uri);\n  }\n\n  /**\n   * @dev Return blockhash of the DART token\n   * @param _tokenId the DART token ID\n   */\n  function blockhashOf(uint256 _tokenId) public view returns (bytes32 hash) {\n    return tokenIdToBlockhash[_tokenId];\n  }\n}\n",
  "sourcePath": "/Users/andy/workspace/art-blocks/contracts/InterfaceToken.sol",
  "compiler": {
    "name": "solc",
    "version": "0.4.24+commit.e67f0147.Emscripten.clang"
  },
  "schemaVersion": "2.0.0",
  "updatedAt": "2018-07-19T15:10:05.291Z"
}