{
  "contractName": "InterfaceToken",
  "abi": [
    {
      "constant": true,
      "inputs": [],
      "name": "name",
      "outputs": [
        {
          "name": "",
          "type": "string"
        }
      ],
      "payable": false,
      "stateMutability": "view",
      "type": "function"
    },
    {
      "constant": true,
      "inputs": [
        {
          "name": "_tokenId",
          "type": "uint256"
        }
      ],
      "name": "getApproved",
      "outputs": [
        {
          "name": "",
          "type": "address"
        }
      ],
      "payable": false,
      "stateMutability": "view",
      "type": "function"
    },
    {
      "constant": false,
      "inputs": [
        {
          "name": "_to",
          "type": "address"
        },
        {
          "name": "_tokenId",
          "type": "uint256"
        }
      ],
      "name": "approve",
      "outputs": [],
      "payable": false,
      "stateMutability": "nonpayable",
      "type": "function"
    },
    {
      "constant": true,
      "inputs": [],
      "name": "totalSupply",
      "outputs": [
        {
          "name": "",
          "type": "uint256"
        }
      ],
      "payable": false,
      "stateMutability": "view",
      "type": "function"
    },
    {
      "constant": true,
      "inputs": [],
      "name": "costOfToken",
      "outputs": [
        {
          "name": "",
          "type": "uint256"
        }
      ],
      "payable": false,
      "stateMutability": "view",
      "type": "function"
    },
    {
      "constant": false,
      "inputs": [
        {
          "name": "_from",
          "type": "address"
        },
        {
          "name": "_to",
          "type": "address"
        },
        {
          "name": "_tokenId",
          "type": "uint256"
        }
      ],
      "name": "transferFrom",
      "outputs": [],
      "payable": false,
      "stateMutability": "nonpayable",
      "type": "function"
    },
    {
      "constant": false,
      "inputs": [
        {
          "name": "addrs",
          "type": "address[]"
        }
      ],
      "name": "removeAddressesFromWhitelist",
      "outputs": [
        {
          "name": "success",
          "type": "bool"
        }
      ],
      "payable": false,
      "stateMutability": "nonpayable",
      "type": "function"
    },
    {
      "constant": false,
      "inputs": [
        {
          "name": "addr",
          "type": "address"
        }
      ],
      "name": "removeAddressFromWhitelist",
      "outputs": [
        {
          "name": "success",
          "type": "bool"
        }
      ],
      "payable": false,
      "stateMutability": "nonpayable",
      "type": "function"
    },
    {
      "constant": true,
      "inputs": [
        {
          "name": "_owner",
          "type": "address"
        },
        {
          "name": "_index",
          "type": "uint256"
        }
      ],
      "name": "tokenOfOwnerByIndex",
      "outputs": [
        {
          "name": "",
          "type": "uint256"
        }
      ],
      "payable": false,
      "stateMutability": "view",
      "type": "function"
    },
    {
      "constant": false,
      "inputs": [
        {
          "name": "_from",
          "type": "address"
        },
        {
          "name": "_to",
          "type": "address"
        },
        {
          "name": "_tokenId",
          "type": "uint256"
        }
      ],
      "name": "safeTransferFrom",
      "outputs": [],
      "payable": false,
      "stateMutability": "nonpayable",
      "type": "function"
    },
    {
      "constant": true,
      "inputs": [
        {
          "name": "_tokenId",
          "type": "uint256"
        }
      ],
      "name": "exists",
      "outputs": [
        {
          "name": "",
          "type": "bool"
        }
      ],
      "payable": false,
      "stateMutability": "view",
      "type": "function"
    },
    {
      "constant": true,
      "inputs": [
        {
          "name": "_index",
          "type": "uint256"
        }
      ],
      "name": "tokenByIndex",
      "outputs": [
        {
          "name": "",
          "type": "uint256"
        }
      ],
      "payable": false,
      "stateMutability": "view",
      "type": "function"
    },
    {
      "constant": true,
      "inputs": [],
      "name": "purchaseTokenPointer",
      "outputs": [
        {
          "name": "",
          "type": "uint256"
        }
      ],
      "payable": false,
      "stateMutability": "view",
      "type": "function"
    },
    {
      "constant": true,
      "inputs": [],
      "name": "InterfaceSignature_ERC721Optional",
      "outputs": [
        {
          "name": "",
          "type": "bytes4"
        }
      ],
      "payable": false,
      "stateMutability": "view",
      "type": "function"
    },
    {
      "constant": true,
      "inputs": [
        {
          "name": "_tokenId",
          "type": "uint256"
        }
      ],
      "name": "ownerOf",
      "outputs": [
        {
          "name": "",
          "type": "address"
        }
      ],
      "payable": false,
      "stateMutability": "view",
      "type": "function"
    },
    {
      "constant": true,
      "inputs": [
        {
          "name": "_owner",
          "type": "address"
        }
      ],
      "name": "balanceOf",
      "outputs": [
        {
          "name": "",
          "type": "uint256"
        }
      ],
      "payable": false,
      "stateMutability": "view",
      "type": "function"
    },
    {
      "constant": false,
      "inputs": [
        {
          "name": "addr",
          "type": "address"
        }
      ],
      "name": "addAddressToWhitelist",
      "outputs": [
        {
          "name": "success",
          "type": "bool"
        }
      ],
      "payable": false,
      "stateMutability": "nonpayable",
      "type": "function"
    },
    {
      "constant": true,
      "inputs": [],
      "name": "owner",
      "outputs": [
        {
          "name": "",
          "type": "address"
        }
      ],
      "payable": false,
      "stateMutability": "view",
      "type": "function"
    },
    {
      "constant": true,
      "inputs": [],
      "name": "symbol",
      "outputs": [
        {
          "name": "",
          "type": "string"
        }
      ],
      "payable": false,
      "stateMutability": "view",
      "type": "function"
    },
    {
      "constant": true,
      "inputs": [
        {
          "name": "",
          "type": "address"
        }
      ],
      "name": "whitelist",
      "outputs": [
        {
          "name": "",
          "type": "bool"
        }
      ],
      "payable": false,
      "stateMutability": "view",
      "type": "function"
    },
    {
      "constant": false,
      "inputs": [
        {
          "name": "_to",
          "type": "address"
        },
        {
          "name": "_approved",
          "type": "bool"
        }
      ],
      "name": "setApprovalForAll",
      "outputs": [],
      "payable": false,
      "stateMutability": "nonpayable",
      "type": "function"
    },
    {
      "constant": false,
      "inputs": [
        {
          "name": "_from",
          "type": "address"
        },
        {
          "name": "_to",
          "type": "address"
        },
        {
          "name": "_tokenId",
          "type": "uint256"
        },
        {
          "name": "_data",
          "type": "bytes"
        }
      ],
      "name": "safeTransferFrom",
      "outputs": [],
      "payable": false,
      "stateMutability": "nonpayable",
      "type": "function"
    },
    {
      "constant": false,
      "inputs": [
        {
          "name": "addrs",
          "type": "address[]"
        }
      ],
      "name": "addAddressesToWhitelist",
      "outputs": [
        {
          "name": "success",
          "type": "bool"
        }
      ],
      "payable": false,
      "stateMutability": "nonpayable",
      "type": "function"
    },
    {
      "constant": true,
      "inputs": [
        {
          "name": "_owner",
          "type": "address"
        },
        {
          "name": "_operator",
          "type": "address"
        }
      ],
      "name": "isApprovedForAll",
      "outputs": [
        {
          "name": "",
          "type": "bool"
        }
      ],
      "payable": false,
      "stateMutability": "view",
      "type": "function"
    },
    {
      "constant": false,
      "inputs": [
        {
          "name": "newOwner",
          "type": "address"
        }
      ],
      "name": "transferOwnership",
      "outputs": [],
      "payable": false,
      "stateMutability": "nonpayable",
      "type": "function"
    },
    {
      "inputs": [],
      "payable": false,
      "stateMutability": "nonpayable",
      "type": "constructor"
    },
    {
      "payable": true,
      "stateMutability": "payable",
      "type": "fallback"
    },
    {
      "anonymous": false,
      "inputs": [
        {
          "indexed": true,
          "name": "_owner",
          "type": "address"
        },
        {
          "indexed": true,
          "name": "_tokenId",
          "type": "uint256"
        },
        {
          "indexed": false,
          "name": "_blockhash",
          "type": "bytes32"
        },
        {
          "indexed": false,
          "name": "_nickname",
          "type": "bytes32"
        }
      ],
      "name": "Minted",
      "type": "event"
    },
    {
      "anonymous": false,
      "inputs": [
        {
          "indexed": false,
          "name": "addr",
          "type": "address"
        }
      ],
      "name": "WhitelistedAddressAdded",
      "type": "event"
    },
    {
      "anonymous": false,
      "inputs": [
        {
          "indexed": false,
          "name": "addr",
          "type": "address"
        }
      ],
      "name": "WhitelistedAddressRemoved",
      "type": "event"
    },
    {
      "anonymous": false,
      "inputs": [
        {
          "indexed": true,
          "name": "previousOwner",
          "type": "address"
        },
        {
          "indexed": true,
          "name": "newOwner",
          "type": "address"
        }
      ],
      "name": "OwnershipTransferred",
      "type": "event"
    },
    {
      "anonymous": false,
      "inputs": [
        {
          "indexed": true,
          "name": "_from",
          "type": "address"
        },
        {
          "indexed": true,
          "name": "_to",
          "type": "address"
        },
        {
          "indexed": false,
          "name": "_tokenId",
          "type": "uint256"
        }
      ],
      "name": "Transfer",
      "type": "event"
    },
    {
      "anonymous": false,
      "inputs": [
        {
          "indexed": true,
          "name": "_owner",
          "type": "address"
        },
        {
          "indexed": true,
          "name": "_approved",
          "type": "address"
        },
        {
          "indexed": false,
          "name": "_tokenId",
          "type": "uint256"
        }
      ],
      "name": "Approval",
      "type": "event"
    },
    {
      "anonymous": false,
      "inputs": [
        {
          "indexed": true,
          "name": "_owner",
          "type": "address"
        },
        {
          "indexed": true,
          "name": "_operator",
          "type": "address"
        },
        {
          "indexed": false,
          "name": "_approved",
          "type": "bool"
        }
      ],
      "name": "ApprovalForAll",
      "type": "event"
    },
    {
      "constant": true,
      "inputs": [
        {
          "name": "_interfaceID",
          "type": "bytes4"
        }
      ],
      "name": "supportsInterface",
      "outputs": [
        {
          "name": "",
          "type": "bool"
        }
      ],
      "payable": false,
      "stateMutability": "pure",
      "type": "function"
    },
    {
      "constant": false,
      "inputs": [
        {
          "name": "_blockhash",
          "type": "bytes32"
        },
        {
          "name": "_tokenId",
          "type": "uint256"
        },
        {
          "name": "_nickname",
          "type": "bytes32"
        }
      ],
      "name": "mint",
      "outputs": [],
      "payable": false,
      "stateMutability": "nonpayable",
      "type": "function"
    },
    {
      "constant": false,
      "inputs": [
        {
          "name": "_blockhash",
          "type": "bytes32"
        },
        {
          "name": "_tokenId",
          "type": "uint256"
        },
        {
          "name": "_nickname",
          "type": "bytes32"
        },
        {
          "name": "_recipient",
          "type": "address"
        }
      ],
      "name": "mintTransfer",
      "outputs": [],
      "payable": false,
      "stateMutability": "nonpayable",
      "type": "function"
    },
    {
      "constant": false,
      "inputs": [
        {
          "name": "_nickname",
          "type": "bytes32"
        }
      ],
      "name": "buyToken",
      "outputs": [],
      "payable": true,
      "stateMutability": "payable",
      "type": "function"
    },
    {
      "constant": false,
      "inputs": [
        {
          "name": "_costOfToken",
          "type": "uint256"
        }
      ],
      "name": "setCostOfToken",
      "outputs": [],
      "payable": false,
      "stateMutability": "nonpayable",
      "type": "function"
    },
    {
      "constant": false,
      "inputs": [
        {
          "name": "_tokenId",
          "type": "uint256"
        },
        {
          "name": "_nickname",
          "type": "bytes32"
        }
      ],
      "name": "setNickname",
      "outputs": [],
      "payable": false,
      "stateMutability": "nonpayable",
      "type": "function"
    },
    {
      "constant": true,
      "inputs": [
        {
          "name": "_owner",
          "type": "address"
        }
      ],
      "name": "tokensOf",
      "outputs": [
        {
          "name": "_tokenIds",
          "type": "uint256[]"
        }
      ],
      "payable": false,
      "stateMutability": "view",
      "type": "function"
    },
    {
      "constant": true,
      "inputs": [
        {
          "name": "_owner",
          "type": "address"
        }
      ],
      "name": "hasTokens",
      "outputs": [
        {
          "name": "",
          "type": "bool"
        }
      ],
      "payable": false,
      "stateMutability": "view",
      "type": "function"
    },
    {
      "constant": true,
      "inputs": [
        {
          "name": "_owner",
          "type": "address"
        }
      ],
      "name": "firstToken",
      "outputs": [
        {
          "name": "_tokenId",
          "type": "uint256"
        }
      ],
      "payable": false,
      "stateMutability": "view",
      "type": "function"
    },
    {
      "constant": true,
      "inputs": [
        {
          "name": "_tokenId",
          "type": "uint256"
        }
      ],
      "name": "nicknameOf",
      "outputs": [
        {
          "name": "_nickname",
          "type": "bytes32"
        }
      ],
      "payable": false,
      "stateMutability": "view",
      "type": "function"
    },
    {
      "constant": true,
      "inputs": [
        {
          "name": "_tokenId",
          "type": "uint256"
        }
      ],
      "name": "tokenURI",
      "outputs": [
        {
          "name": "",
          "type": "string"
        }
      ],
      "payable": false,
      "stateMutability": "view",
      "type": "function"
    },
    {
      "constant": false,
      "inputs": [
        {
          "name": "_newBaseURI",
          "type": "string"
        }
      ],
      "name": "setTokenBaseURI",
      "outputs": [],
      "payable": false,
      "stateMutability": "nonpayable",
      "type": "function"
    },
    {
      "constant": false,
      "inputs": [
        {
          "name": "_defaultTokenURI",
          "type": "string"
        }
      ],
      "name": "setDefaultTokenURI",
      "outputs": [],
      "payable": false,
      "stateMutability": "nonpayable",
      "type": "function"
    },
    {
      "constant": false,
      "inputs": [
        {
          "name": "_tokenId",
          "type": "uint256"
        },
        {
          "name": "_uri",
          "type": "string"
        }
      ],
      "name": "setTokenURI",
      "outputs": [],
      "payable": false,
      "stateMutability": "nonpayable",
      "type": "function"
    },
    {
      "constant": true,
      "inputs": [
        {
          "name": "_tokenId",
          "type": "uint256"
        }
      ],
      "name": "blockhashOf",
      "outputs": [
        {
          "name": "hash",
          "type": "bytes32"
        }
      ],
      "payable": false,
      "stateMutability": "view",
      "type": "function"
    }
  ],
  "bytecode": "0x60c0604052601c60808190527f68747470733a2f2f697066732e696e667572612e696f2f697066732f0000000060a09081526200004091600d91906200023a565b5060408051606081018252602e8082527f516d5572546a5079326734617752594156384b73525368476148664c6863676b602083019081527f336e51704547775935383933426b0000000000000000000000000000000000009290930191909152620000af91600e916200023a565b50633b9aca00600f55662386f26fc10000601055348015620000d057600080fd5b50604080518082018252600f81527f496e7465726661636520546f6b656e00000000000000000000000000000000006020808301918252835180850190945260048085527f544f4b4e000000000000000000000000000000000000000000000000000000009185019190915282519293926200014d92906200023a565b508051620001639060059060208401906200023a565b5050600b8054600160a060020a03191633908117909155620001949150640100000000620010ba6200019b82021704565b50620002df565b600b54600090600160a060020a03163314620001b657600080fd5b600160a060020a0382166000908152600c602052604090205460ff1615156200023557600160a060020a0382166000818152600c6020908152604091829020805460ff19166001179055815192835290517fd1bba68c128cc3f427e5831b3c6f99f480b6efa6b9e80c757768f6124158cc3f9281900390910190a15060015b919050565b828054600181600116156101000203166002900490600052602060002090601f016020900481019282601f106200027d57805160ff1916838001178555620002ad565b82800160010185558215620002ad579182015b82811115620002ad57825182559160200191906001019062000290565b50620002bb929150620002bf565b5090565b620002dc91905b80821115620002bb5760008155600101620002c6565b90565b61214580620002ef6000396000f3006080604052600436106101ed5763ffffffff7c010000000000000000000000000000000000000000000000000000000060003504166301ffc9a781146101f957806306fdde031461022f57806307518c8e146102b9578063081812fc146102e3578063095ea7b314610317578063162094c41461033b57806318160ddd1461035f5780631bcf468b14610374578063202c413d1461038957806323b872dd146103a457806324953eaa146103ce578063286dd3f5146104235780632f745c59146104445780633cefc1e01461046857806340786dec1461048957806342842e0e146104a75780634f558e79146104d15780634f6ccce7146104e957806354f50f1b146105015780635a3f2672146105195780635cbb2ac31461058a578063624de3d91461059f5780636352211e146105d1578063699ac46f146105e95780636f37f48b1461061357806370a08231146106345780637b9417c8146106555780638da5cb5b146106765780638ef79e911461068b57806395d89b41146106ab5780639b19251a146106c0578063a125c824146106e1578063a22cb46514610701578063a7dbfcaa14610727578063b88d4fde1461073f578063c87b56dd146107ae578063dffd5e57146107c6578063e2ec6ec3146107d1578063e985e9c514610826578063f2fde38b1461084d575b6101f7600061086e565b005b34801561020557600080fd5b5061021b600160e060020a031960043516610925565b604080519115158252519081900360200190f35b34801561023b57600080fd5b50610244610a2c565b6040805160208082528351818301528351919283929083019185019080838360005b8381101561027e578181015183820152602001610266565b50505050905090810190601f1680156102ab5780820380516001836020036101000a031916815260200191505b509250505060405180910390f35b3480156102c557600080fd5b506102d1600435610ac3565b60408051918252519081900360200190f35b3480156102ef57600080fd5b506102fb600435610ad5565b60408051600160a060020a039092168252519081900360200190f35b34801561032357600080fd5b506101f7600160a060020a0360043516602435610af0565b34801561034757600080fd5b506101f7600480359060248035908101910135610be2565b34801561036b57600080fd5b506102d1610c4e565b34801561038057600080fd5b506102d1610c54565b34801561039557600080fd5b506101f7600435602435610c5a565b3480156103b057600080fd5b506101f7600160a060020a0360043581169060243516604435610c8b565b3480156103da57600080fd5b506040805160206004803580820135838102808601850190965280855261021b95369593946024949385019291829185019084908082843750949750610d3a9650505050505050565b34801561042f57600080fd5b5061021b600160a060020a0360043516610d9b565b34801561045057600080fd5b506102d1600160a060020a0360043516602435610e33565b34801561047457600080fd5b5061021b600160a060020a0360043516610e80565b34801561049557600080fd5b506101f7600435602435604435610e9c565b3480156104b357600080fd5b506101f7600160a060020a0360043581169060243516604435610ec6565b3480156104dd57600080fd5b5061021b600435610efe565b3480156104f557600080fd5b506102d1600435610f1b565b34801561050d57600080fd5b506102d1600435610f50565b34801561052557600080fd5b5061053a600160a060020a0360043516610f62565b60408051602080825283518183015283519192839290830191858101910280838360005b8381101561057657818101518382015260200161055e565b505050509050019250505060405180910390f35b34801561059657600080fd5b506102d1610fce565b3480156105ab57600080fd5b506105b4610fd4565b60408051600160e060020a03199092168252519081900360200190f35b3480156105dd57600080fd5b506102fb600435610ff8565b3480156105f557600080fd5b506101f7600435602435604435600160a060020a0360643516611022565b34801561061f57600080fd5b506102d1600160a060020a036004351661104c565b34801561064057600080fd5b506102d1600160a060020a0360043516611087565b34801561066157600080fd5b5061021b600160a060020a03600435166110ba565b34801561068257600080fd5b506102fb611156565b34801561069757600080fd5b506101f76004803560248101910135611165565b3480156106b757600080fd5b50610244611188565b3480156106cc57600080fd5b5061021b600160a060020a03600435166111e9565b3480156106ed57600080fd5b506101f760048035602481019101356111fe565b34801561070d57600080fd5b506101f7600160a060020a03600435166024351515611221565b34801561073357600080fd5b506101f76004356112a5565b34801561074b57600080fd5b50604080516020601f6064356004818101359283018490048402850184019095528184526101f794600160a060020a0381358116956024803590921695604435953695608494019181908401838280828437509497506112c19650505050505050565b3480156107ba57600080fd5b50610244600435611300565b6101f760043561086e565b3480156107dd57600080fd5b506040805160206004803580820135838102808601850190965280855261021b953695939460249493850192918291850190849080828437509497506115509650505050505050565b34801561083257600080fd5b5061021b600160a060020a03600435811690602435166115ab565b34801561085957600080fd5b506101f7600160a060020a03600435166115d9565b60105434101561087d57600080fd5b600f5460408051828152905190819003602001902061089d91833361166e565b600f546108b190600163ffffffff61172416565b600f556010546040513391340380156108fc02916000818181858888f193505050501580156108e4573d6000803e3d6000fd5b50600b54601054604051600160a060020a039092169181156108fc0291906000818181858888f19350505050158015610921573d6000803e3d6000fd5b5050565b6000600160e060020a031982167f01ffc9a70000000000000000000000000000000000000000000000000000000014806109885750600160e060020a031982167f80ac58cd00000000000000000000000000000000000000000000000000000000145b806109bc5750600160e060020a031982167fb0aa718700000000000000000000000000000000000000000000000000000000145b806109f05750600160e060020a031982167f780e9d6300000000000000000000000000000000000000000000000000000000145b80610a245750600160e060020a031982167f5b5e139f00000000000000000000000000000000000000000000000000000000145b90505b919050565b60048054604080516020601f6002600019610100600188161502019095169490940493840181900481028201810190925282815260609390929091830182828015610ab85780601f10610a8d57610100808354040283529160200191610ab8565b820191906000526020600020905b815481529060010190602001808311610a9b57829003601f168201915b505050505090505b90565b60009081526012602052604090205490565b600090815260016020526040902054600160a060020a031690565b6000610afb82610ff8565b9050600160a060020a038381169082161415610b1657600080fd5b33600160a060020a0382161480610b325750610b3281336115ab565b1515610b3d57600080fd5b6000610b4883610ad5565b600160a060020a0316141580610b665750600160a060020a03831615155b15610bdd57600082815260016020908152604091829020805473ffffffffffffffffffffffffffffffffffffffff1916600160a060020a03878116918217909255835186815293519093918516927f8c5be1e5ebec7d5bd14f71427d1e84f3dd0314c0f7b2291e5b200ac8c7c3b925928290030190a35b505050565b336000908152600c602052604090205460ff161515610c0057600080fd5b610c0983610efe565b1515610c1457600080fd5b610bdd8383838080601f0160208091040260200160405190810160405280939291908181526020018383808284375061173a945050505050565b60085490565b60105481565b8133610c6582610ff8565b600160a060020a031614610c7857600080fd5b5060009182526011602052604090912055565b80610c96338261176d565b1515610ca157600080fd5b600160a060020a0384161515610cb657600080fd5b600160a060020a0383161515610ccb57600080fd5b610cd584836117cc565b610cdf8483611879565b610ce983836119b2565b82600160a060020a031684600160a060020a03167fddf252ad1be2c89b69c2b068fc378daa952ba7f163c4a11628f55a4df523b3ef846040518082815260200191505060405180910390a350505050565b600b546000908190600160a060020a03163314610d5657600080fd5b5060005b8251811015610d9557610d838382815181101515610d7457fe5b90602001906020020151610d9b565b15610d8d57600191505b600101610d5a565b50919050565b600b54600090600160a060020a03163314610db557600080fd5b600160a060020a0382166000908152600c602052604090205460ff1615610a2757600160a060020a0382166000818152600c6020908152604091829020805460ff19169055815192835290517ff1abf01a1043b7c244d128e8595cf0c1d10743b022b03a02dffd8ca3bf729f5a9281900390910190a1506001919050565b6000610e3e83611087565b8210610e4957600080fd5b600160a060020a0383166000908152600660205260409020805483908110610e6d57fe5b9060005260206000200154905092915050565b600160a060020a03166000908152600660205260408120541190565b336000908152600c602052604090205460ff161515610eba57600080fd5b610bdd8383833361166e565b80610ed1338261176d565b1515610edc57600080fd5b610ef884848460206040519081016040528060008152506112c1565b50505050565b600090815260208190526040902054600160a060020a0316151590565b6000610f25610c4e565b8210610f3057600080fd5b6008805483908110610f3e57fe5b90600052602060002001549050919050565b60009081526011602052604090205490565b600160a060020a038116600090815260066020908152604091829020805483518184028101840190945280845260609392830182828015610fc257602002820191906000526020600020905b815481526020019060010190808311610fae575b50505050509050919050565b600f5481565b7fb0aa71870000000000000000000000000000000000000000000000000000000081565b600081815260208190526040812054600160a060020a031680151561101c57600080fd5b92915050565b336000908152600c602052604090205460ff16151561104057600080fd5b610ef88484848461166e565b600061105782610e80565b151561106257600080fd5b600160a060020a038216600090815260066020526040812080549091908110610f3e57fe5b6000600160a060020a038216151561109e57600080fd5b50600160a060020a031660009081526002602052604090205490565b600b54600090600160a060020a031633146110d457600080fd5b600160a060020a0382166000908152600c602052604090205460ff161515610a2757600160a060020a0382166000818152600c6020908152604091829020805460ff19166001179055815192835290517fd1bba68c128cc3f427e5831b3c6f99f480b6efa6b9e80c757768f6124158cc3f9281900390910190a1506001919050565b600b54600160a060020a031681565b600b54600160a060020a0316331461117c57600080fd5b610bdd600d8383611ff3565b60058054604080516020601f6002600019610100600188161502019095169490940493840181900481028201810190925282815260609390929091830182828015610ab85780601f10610a8d57610100808354040283529160200191610ab8565b600c6020526000908152604090205460ff1681565b600b54600160a060020a0316331461121557600080fd5b610bdd600e8383611ff3565b600160a060020a03821633141561123757600080fd5b336000818152600360209081526040808320600160a060020a03871680855290835292819020805460ff1916861515908117909155815190815290519293927f17307eab39ab6107e8899845ad3d59bd9653f200f220920489ca2b5937696c31929181900390910190a35050565b600b54600160a060020a031633146112bc57600080fd5b601055565b816112cc338261176d565b15156112d757600080fd5b6112e2858585610c8b565b6112ee858585856119fb565b15156112f957600080fd5b5050505050565b6000818152600a602052604090205460609060026000196101006001841615020190911604151561145757600d8054604080516020601f6002600019610100600188161502019095169490940493840181900481028201810190925282815261145093909290918301828280156113b85780601f1061138d576101008083540402835291602001916113b8565b820191906000526020600020905b81548152906001019060200180831161139b57829003601f168201915b5050600e8054604080516020601f60026000196101006001881615020190951694909404938401819004810282018101909252828152955091935091508301828280156114465780601f1061141b57610100808354040283529160200191611446565b820191906000526020600020905b81548152906001019060200180831161142957829003601f168201915b5050505050611b6c565b9050610a27565b600d8054604080516020601f60026000196101006001881615020190951694909404938401819004810282018101909252828152610a2493909290918301828280156114e45780601f106114b9576101008083540402835291602001916114e4565b820191906000526020600020905b8154815290600101906020018083116114c757829003601f168201915b5050506000868152600a60209081526040918290208054835160026001831615610100026000190190921691909104601f8101849004840282018401909452838152945092508301828280156114465780601f1061141b57610100808354040283529160200191611446565b600b546000908190600160a060020a0316331461156c57600080fd5b5060005b8251811015610d9557611599838281518110151561158a57fe5b906020019060200201516110ba565b156115a357600191505b600101611570565b600160a060020a03918216600090815260036020908152604080832093909416825291909152205460ff1690565b600b54600160a060020a031633146115f057600080fd5b600160a060020a038116151561160557600080fd5b600b54604051600160a060020a038084169216907f8be0079c531659141344cd1fd0a4f28419497f9722a3daafe3b4186f6b6457e090600090a3600b805473ffffffffffffffffffffffffffffffffffffffff1916600160a060020a0392909216919091179055565b6000848152601360205260409020541561168757600080fd5b600083815260126020526040902054156116a057600080fd5b6116aa8184611ba1565b6000838152601260209081526040808320879055868352601382528083208690558583526011825291829020849055815186815290810184905281518592600160a060020a038516927f524f2cbda4d6611f91af397a555f7d212dde00cbf933069a6267518e0c4a27d7929081900390910190a350505050565b60008282018381101561173357fe5b9392505050565b61174382610efe565b151561174e57600080fd5b6000828152600a602090815260409091208251610bdd92840190612071565b60008061177983610ff8565b905080600160a060020a031684600160a060020a031614806117b4575083600160a060020a03166117a984610ad5565b600160a060020a0316145b806117c457506117c481856115ab565b949350505050565b81600160a060020a03166117df82610ff8565b600160a060020a0316146117f257600080fd5b600081815260016020526040902054600160a060020a031615610921576000818152600160209081526040808320805473ffffffffffffffffffffffffffffffffffffffff1916905580518481529051600160a060020a038616927f8c5be1e5ebec7d5bd14f71427d1e84f3dd0314c0f7b2291e5b200ac8c7c3b925928290030190a35050565b60008060006118888585611bf0565b600084815260076020908152604080832054600160a060020a03891684526006909252909120549093506118c390600163ffffffff611c8516565b600160a060020a0386166000908152600660205260409020805491935090839081106118eb57fe5b90600052602060002001549050806006600087600160a060020a0316600160a060020a031681526020019081526020016000208481548110151561192b57fe5b6000918252602080832090910192909255600160a060020a038716815260069091526040812080548490811061195d57fe5b6000918252602080832090910192909255600160a060020a03871681526006909152604090208054906119949060001983016120df565b50600093845260076020526040808520859055908452909220555050565b60006119be8383611c97565b50600160a060020a039091166000908152600660209081526040808320805460018101825590845282842081018590559383526007909152902055565b600080611a1085600160a060020a0316611d26565b1515611a1f5760019150611b63565b84600160a060020a031663f0b9e5ba8786866040518463ffffffff167c01000000000000000000000000000000000000000000000000000000000281526004018084600160a060020a0316600160a060020a0316815260200183815260200180602001828103825283818151815260200191508051906020019080838360005b83811015611ab7578181015183820152602001611a9f565b50505050905090810190601f168015611ae45780820380516001836020036101000a031916815260200191505b50945050505050602060405180830381600087803b158015611b0557600080fd5b505af1158015611b19573d6000803e3d6000fd5b505050506040513d6020811015611b2f57600080fd5b5051600160e060020a031981167ff0b9e5ba0000000000000000000000000000000000000000000000000000000014925090505b50949350505050565b604080516020818101835260008083528351808301855281815284519283019094528152606092611733928692869290611d2e565b611bab8282611f8f565b600880546000838152600960205260408120829055600182018355919091527ff3f7a9fe364faab93b216da50a3214154f22a0a2b415b23a84c8169e8b636ee3015550565b81600160a060020a0316611c0382610ff8565b600160a060020a031614611c1657600080fd5b600160a060020a038216600090815260026020526040902054611c4090600163ffffffff611c8516565b600160a060020a039092166000908152600260209081526040808320949094559181529081905220805473ffffffffffffffffffffffffffffffffffffffff19169055565b600082821115611c9157fe5b50900390565b600081815260208190526040902054600160a060020a031615611cb957600080fd5b600081815260208181526040808320805473ffffffffffffffffffffffffffffffffffffffff1916600160a060020a03871690811790915583526002909152902054611d06906001611724565b600160a060020a0390921660009081526002602052604090209190915550565b6000903b1190565b6060806060806060806060806000808e98508d97508c96508b95508a94508451865188518a518c51010101016040519080825280601f01601f191660200182016040528015611d87578160200160208202803883390190505b50935083925060009150600090505b8851811015611df4578881815181101515611dad57fe5b90602001015160f860020a900460f860020a028383806001019450815181101515611dd457fe5b906020010190600160f860020a031916908160001a905350600101611d96565b5060005b8751811015611e56578781815181101515611e0f57fe5b90602001015160f860020a900460f860020a028383806001019450815181101515611e3657fe5b906020010190600160f860020a031916908160001a905350600101611df8565b5060005b8651811015611eb8578681815181101515611e7157fe5b90602001015160f860020a900460f860020a028383806001019450815181101515611e9857fe5b906020010190600160f860020a031916908160001a905350600101611e5a565b5060005b8551811015611f1a578581815181101515611ed357fe5b90602001015160f860020a900460f860020a028383806001019450815181101515611efa57fe5b906020010190600160f860020a031916908160001a905350600101611ebc565b5060005b8451811015611f7c578481815181101515611f3557fe5b90602001015160f860020a900460f860020a028383806001019450815181101515611f5c57fe5b906020010190600160f860020a031916908160001a905350600101611f1e565b50909d9c50505050505050505050505050565b600160a060020a0382161515611fa457600080fd5b611fae82826119b2565b604080518281529051600160a060020a038416916000917fddf252ad1be2c89b69c2b068fc378daa952ba7f163c4a11628f55a4df523b3ef9181900360200190a35050565b828054600181600116156101000203166002900490600052602060002090601f016020900481019282601f106120345782800160ff19823516178555612061565b82800160010185558215612061579182015b82811115612061578235825591602001919060010190612046565b5061206d9291506120ff565b5090565b828054600181600116156101000203166002900490600052602060002090601f016020900481019282601f106120b257805160ff1916838001178555612061565b82800160010185558215612061579182015b828111156120615782518255916020019190600101906120c4565b815481835581811115610bdd57600083815260209020610bdd9181019083015b610ac091905b8082111561206d57600081556001016121055600a165627a7a723058209e06956da71d1c55a7b3edd8fe0745952e3c96fd716d0e4ee1cd321f2874b95a0029",
  "source": "pragma solidity ^0.4.21;\n\n\nimport \"./ERC721Token.sol\";\n\nimport \"./Strings.sol\";\n\nimport \"./ERC165.sol\";\n\nimport \"./Whitelist.sol\";\n\n/**\n* @title InterfaceToken\n*/\ncontract InterfaceToken is ERC721Token, ERC165, Whitelist {\n  using SafeMath for uint256;\n\n  bytes4 constant InterfaceSignature_ERC165 = 0x01ffc9a7;\n  /*\n  bytes4(keccak256('supportsInterface(bytes4)'));\n  */\n\n  bytes4 constant InterfaceSignature_ERC721Enumerable = 0x780e9d63;\n  /*\n  bytes4(keccak256('totalSupply()')) ^\n  bytes4(keccak256('tokenOfOwnerByIndex(address,uint256)')) ^\n  bytes4(keccak256('tokenByIndex(uint256)'));\n  */\n\n  bytes4 constant InterfaceSignature_ERC721Metadata = 0x5b5e139f;\n  /*\n  bytes4(keccak256('name()')) ^\n  bytes4(keccak256('symbol()')) ^\n  bytes4(keccak256('tokenURI(uint256)'));\n  */\n\n  bytes4 constant InterfaceSignature_ERC721 = 0x80ac58cd;\n  /*\n  bytes4(keccak256('balanceOf(address)')) ^\n  bytes4(keccak256('ownerOf(uint256)')) ^\n  bytes4(keccak256('approve(address,uint256)')) ^\n  bytes4(keccak256('getApproved(uint256)')) ^\n  bytes4(keccak256('setApprovalForAll(address,bool)')) ^\n  bytes4(keccak256('isApprovedForAll(address,address)')) ^\n  bytes4(keccak256('transferFrom(address,address,uint256)')) ^\n  bytes4(keccak256('safeTransferFrom(address,address,uint256)')) ^\n  bytes4(keccak256('safeTransferFrom(address,address,uint256,bytes)'));\n  */\n\n  bytes4 public constant InterfaceSignature_ERC721Optional = - 0x4f558e79;\n  /*\n  bytes4(keccak256('exists(uint256)'));\n  */\n\n  /**\n   * @notice Introspection interface as per ERC-165 (https://github.com/ethereum/EIPs/issues/165).\n   * @dev Returns true for any standardized interfaces implemented by this contract.\n   * @param _interfaceID bytes4 the interface to check for\n   * @return true for any standardized interfaces implemented by this contract.\n   */\n  function supportsInterface(bytes4 _interfaceID) external pure returns (bool) {\n    return ((_interfaceID == InterfaceSignature_ERC165)\n    || (_interfaceID == InterfaceSignature_ERC721)\n    || (_interfaceID == InterfaceSignature_ERC721Optional)\n    || (_interfaceID == InterfaceSignature_ERC721Enumerable)\n    || (_interfaceID == InterfaceSignature_ERC721Metadata));\n  }\n\n  event Minted(address indexed _owner, uint256 indexed _tokenId, bytes32 _blockhash, bytes32 _nickname);\n\n  string internal tokenBaseURI = \"https://ipfs.infura.io/ipfs/\";\n  string internal defaultTokenURI = \"QmUrTjPy2g4awRYAV8KsRShGaHfLhcgk3nQpEGwY5893Bk\";\n\n  uint256 public purchaseTokenPointer =  1000000000;\n  uint256 public costOfToken = 0.01 ether;\n\n\n  mapping(uint256 => bytes32) internal tokenIdToNickname;\n\n  mapping(uint256 => bytes32) internal tokenIdToBlockhash;\n  mapping(bytes32 => uint256) internal blockhashToTokenId;\n\n  function InterfaceToken() public ERC721Token(\"Interface Token\", \"TOKN\") {\n    super.addAddressToWhitelist(msg.sender);\n  }\n\n  // attempt to buy last block\n  function() public payable {\n    buyToken(\"\");\n  }\n\n  /**\n   * @dev Mint a new InterfaceToken token\n   * @dev Reverts if not called by curator\n   * @param _blockhash an Ethereum block hash\n   * @param _tokenId unique token ID\n   * @param _nickname char stamp of token owner\n   */\n  function mint(bytes32 _blockhash, uint256 _tokenId, bytes32 _nickname) external onlyWhitelisted {\n    _mint(_blockhash, _tokenId, _nickname, msg.sender);\n  }\n\n  /**\n   * @dev Mint a new InterfaceToken token (with recipient)\n   * @dev Reverts if not called by curator\n   * @param _blockhash an Ethereum block hash\n   * @param _tokenId unique token ID\n   * @param _nickname char stamp of token owner\n   * @param _recipient owner of the newly minted token\n   */\n  function mintTransfer(bytes32 _blockhash, uint256 _tokenId, bytes32 _nickname, address _recipient) external onlyWhitelisted {\n    _mint(_blockhash, _tokenId, _nickname, _recipient);\n  }\n\n  /**\n   * @dev Purchases a new InterfaceToken token\n   * @dev Reverts if not called by curator\n   * @param _nickname char stamp of token owner\n   */\n  function buyToken(bytes32 _nickname) public payable {\n    require(msg.value >= costOfToken);\n\n    _mint(keccak256(purchaseTokenPointer), purchaseTokenPointer, _nickname, msg.sender);\n\n    purchaseTokenPointer = purchaseTokenPointer.add(1);\n\n    // reconcile payments\n    msg.sender.transfer(msg.value - costOfToken);\n    owner.transfer(costOfToken);\n  }\n\n  function _mint(bytes32 _blockhash, uint256 _tokenId, bytes32 _nickname, address _recipient) internal {\n    require(blockhashToTokenId[_blockhash] == 0);\n    require(tokenIdToBlockhash[_tokenId] == 0);\n\n    // mint the token with sender as owner\n    super._mint(_recipient, _tokenId);\n\n    // set data\n    tokenIdToBlockhash[_tokenId] = _blockhash;\n    blockhashToTokenId[_blockhash] = _tokenId;\n    tokenIdToNickname[_tokenId] = _nickname;\n\n    Minted(_recipient, _tokenId, _blockhash, _nickname);\n  }\n\n  /**\n   * @dev Utility function changing the cost of the token\n   * @dev Reverts if not called by owner\n   * @param _costOfToken cost in wei\n   */\n  function setCostOfToken(uint256 _costOfToken) external onlyOwner {\n    costOfToken = _costOfToken;\n  }\n\n  /**\n   * @dev Utility function for updating a nickname if you own the token\n   * @dev Reverts if not called by owner\n   * @param _tokenId the DART token ID\n   * @param _nickname char stamp of token owner\n   */\n  function setNickname(uint256 _tokenId, bytes32 _nickname) external onlyOwnerOf(_tokenId) {\n    tokenIdToNickname[_tokenId] = _nickname;\n  }\n\n  /**\n   * @dev Return owned tokens\n   * @param _owner address to query\n   */\n  function tokensOf(address _owner) public view returns (uint256[] _tokenIds) {\n    return ownedTokens[_owner];\n  }\n\n  /**\n   * @dev checks for owned tokens\n   * @param _owner address to query\n   */\n  function hasTokens(address _owner) constant returns (bool) {\n    return ownedTokens[_owner].length > 0;\n  }\n\n  /**\n   * @dev checks for owned tokens\n   * @param _owner address to query\n   */\n  function firstToken(address _owner) constant returns (uint256 _tokenId) {\n    require(hasTokens(_owner));\n    return ownedTokens[_owner][0];\n  }\n\n  /**\n   * @dev Return handle of token\n   * @param _tokenId token ID for handle lookup\n   */\n  function nicknameOf(uint256 _tokenId) public view returns (bytes32 _nickname) {\n    return tokenIdToNickname[_tokenId];\n  }\n\n  /**\n   * @dev Get token URI fro the given token, useful for testing purposes\n   * @param _tokenId the DART token ID\n   * @return the token ID or only the base URI if not found\n   */\n  function tokenURI(uint256 _tokenId) public view returns (string) {\n    if (bytes(tokenURIs[_tokenId]).length == 0) {\n      return Strings.strConcat(tokenBaseURI, defaultTokenURI);\n    }\n\n    return Strings.strConcat(tokenBaseURI, tokenURIs[_tokenId]);\n  }\n\n  /**\n   * @dev Allows management to update the base tokenURI path\n   * @dev Reverts if not called by owner\n   * @param _newBaseURI the new base URI to set\n   */\n  function setTokenBaseURI(string _newBaseURI) external onlyOwner {\n    tokenBaseURI = _newBaseURI;\n  }\n\n  /**\n   * @dev Allows management to update the default token URI\n   * @dev Reverts if not called by owner\n   * @param _defaultTokenURI the new default URI to set\n   */\n  function setDefaultTokenURI(string _defaultTokenURI) external onlyOwner {\n    defaultTokenURI = _defaultTokenURI;\n  }\n\n  /**\n   * @dev Utility function for updating a DART assets token URI\n   * @dev Reverts if not called by management\n   * @param _tokenId the DART token ID\n   * @param _uri the token URI, will be concatenated with baseUri\n   */\n  function setTokenURI(uint256 _tokenId, string _uri) external onlyWhitelisted {\n    require(exists(_tokenId));\n    _setTokenURI(_tokenId, _uri);\n  }\n\n  /**\n   * @dev Return blockhash of the DART token\n   * @param _tokenId the DART token ID\n   */\n  function blockhashOf(uint256 _tokenId) public view returns (bytes32 hash) {\n    return tokenIdToBlockhash[_tokenId];\n  }\n}\n",
  "sourcePath": "/Users/andy/workspace/art-blocks/contracts/InterfaceToken.sol",
  "compiler": {
    "name": "solc",
    "version": "0.4.24+commit.e67f0147.Emscripten.clang"
  },
  "schemaVersion": "2.0.0",
  "updatedAt": "2018-07-15T11:24:07.301Z"
}