{
  "contractName": "InterfaceToken",
  "abi": [
    {
      "constant": true,
      "inputs": [],
      "name": "name",
      "outputs": [
        {
          "name": "",
          "type": "string"
        }
      ],
      "payable": false,
      "stateMutability": "view",
      "type": "function"
    },
    {
      "constant": true,
      "inputs": [
        {
          "name": "_tokenId",
          "type": "uint256"
        }
      ],
      "name": "getApproved",
      "outputs": [
        {
          "name": "",
          "type": "address"
        }
      ],
      "payable": false,
      "stateMutability": "view",
      "type": "function"
    },
    {
      "constant": false,
      "inputs": [
        {
          "name": "_to",
          "type": "address"
        },
        {
          "name": "_tokenId",
          "type": "uint256"
        }
      ],
      "name": "approve",
      "outputs": [],
      "payable": false,
      "stateMutability": "nonpayable",
      "type": "function"
    },
    {
      "constant": true,
      "inputs": [],
      "name": "totalSupply",
      "outputs": [
        {
          "name": "",
          "type": "uint256"
        }
      ],
      "payable": false,
      "stateMutability": "view",
      "type": "function"
    },
    {
      "constant": true,
      "inputs": [],
      "name": "costOfToken",
      "outputs": [
        {
          "name": "",
          "type": "uint256"
        }
      ],
      "payable": false,
      "stateMutability": "view",
      "type": "function"
    },
    {
      "constant": false,
      "inputs": [
        {
          "name": "_from",
          "type": "address"
        },
        {
          "name": "_to",
          "type": "address"
        },
        {
          "name": "_tokenId",
          "type": "uint256"
        }
      ],
      "name": "transferFrom",
      "outputs": [],
      "payable": false,
      "stateMutability": "nonpayable",
      "type": "function"
    },
    {
      "constant": false,
      "inputs": [
        {
          "name": "addrs",
          "type": "address[]"
        }
      ],
      "name": "removeAddressesFromWhitelist",
      "outputs": [
        {
          "name": "success",
          "type": "bool"
        }
      ],
      "payable": false,
      "stateMutability": "nonpayable",
      "type": "function"
    },
    {
      "constant": false,
      "inputs": [
        {
          "name": "addr",
          "type": "address"
        }
      ],
      "name": "removeAddressFromWhitelist",
      "outputs": [
        {
          "name": "success",
          "type": "bool"
        }
      ],
      "payable": false,
      "stateMutability": "nonpayable",
      "type": "function"
    },
    {
      "constant": true,
      "inputs": [
        {
          "name": "_owner",
          "type": "address"
        },
        {
          "name": "_index",
          "type": "uint256"
        }
      ],
      "name": "tokenOfOwnerByIndex",
      "outputs": [
        {
          "name": "",
          "type": "uint256"
        }
      ],
      "payable": false,
      "stateMutability": "view",
      "type": "function"
    },
    {
      "constant": false,
      "inputs": [
        {
          "name": "_from",
          "type": "address"
        },
        {
          "name": "_to",
          "type": "address"
        },
        {
          "name": "_tokenId",
          "type": "uint256"
        }
      ],
      "name": "safeTransferFrom",
      "outputs": [],
      "payable": false,
      "stateMutability": "nonpayable",
      "type": "function"
    },
    {
      "constant": true,
      "inputs": [
        {
          "name": "_tokenId",
          "type": "uint256"
        }
      ],
      "name": "exists",
      "outputs": [
        {
          "name": "",
          "type": "bool"
        }
      ],
      "payable": false,
      "stateMutability": "view",
      "type": "function"
    },
    {
      "constant": true,
      "inputs": [
        {
          "name": "_index",
          "type": "uint256"
        }
      ],
      "name": "tokenByIndex",
      "outputs": [
        {
          "name": "",
          "type": "uint256"
        }
      ],
      "payable": false,
      "stateMutability": "view",
      "type": "function"
    },
    {
      "constant": true,
      "inputs": [],
      "name": "purchaseTokenPointer",
      "outputs": [
        {
          "name": "",
          "type": "uint256"
        }
      ],
      "payable": false,
      "stateMutability": "view",
      "type": "function"
    },
    {
      "constant": true,
      "inputs": [],
      "name": "InterfaceSignature_ERC721Optional",
      "outputs": [
        {
          "name": "",
          "type": "bytes4"
        }
      ],
      "payable": false,
      "stateMutability": "view",
      "type": "function"
    },
    {
      "constant": true,
      "inputs": [
        {
          "name": "_tokenId",
          "type": "uint256"
        }
      ],
      "name": "ownerOf",
      "outputs": [
        {
          "name": "",
          "type": "address"
        }
      ],
      "payable": false,
      "stateMutability": "view",
      "type": "function"
    },
    {
      "constant": true,
      "inputs": [
        {
          "name": "_owner",
          "type": "address"
        }
      ],
      "name": "balanceOf",
      "outputs": [
        {
          "name": "",
          "type": "uint256"
        }
      ],
      "payable": false,
      "stateMutability": "view",
      "type": "function"
    },
    {
      "constant": false,
      "inputs": [
        {
          "name": "addr",
          "type": "address"
        }
      ],
      "name": "addAddressToWhitelist",
      "outputs": [
        {
          "name": "success",
          "type": "bool"
        }
      ],
      "payable": false,
      "stateMutability": "nonpayable",
      "type": "function"
    },
    {
      "constant": true,
      "inputs": [],
      "name": "owner",
      "outputs": [
        {
          "name": "",
          "type": "address"
        }
      ],
      "payable": false,
      "stateMutability": "view",
      "type": "function"
    },
    {
      "constant": true,
      "inputs": [],
      "name": "symbol",
      "outputs": [
        {
          "name": "",
          "type": "string"
        }
      ],
      "payable": false,
      "stateMutability": "view",
      "type": "function"
    },
    {
      "constant": true,
      "inputs": [
        {
          "name": "",
          "type": "address"
        }
      ],
      "name": "whitelist",
      "outputs": [
        {
          "name": "",
          "type": "bool"
        }
      ],
      "payable": false,
      "stateMutability": "view",
      "type": "function"
    },
    {
      "constant": false,
      "inputs": [
        {
          "name": "_to",
          "type": "address"
        },
        {
          "name": "_approved",
          "type": "bool"
        }
      ],
      "name": "setApprovalForAll",
      "outputs": [],
      "payable": false,
      "stateMutability": "nonpayable",
      "type": "function"
    },
    {
      "constant": false,
      "inputs": [
        {
          "name": "_from",
          "type": "address"
        },
        {
          "name": "_to",
          "type": "address"
        },
        {
          "name": "_tokenId",
          "type": "uint256"
        },
        {
          "name": "_data",
          "type": "bytes"
        }
      ],
      "name": "safeTransferFrom",
      "outputs": [],
      "payable": false,
      "stateMutability": "nonpayable",
      "type": "function"
    },
    {
      "constant": false,
      "inputs": [
        {
          "name": "addrs",
          "type": "address[]"
        }
      ],
      "name": "addAddressesToWhitelist",
      "outputs": [
        {
          "name": "success",
          "type": "bool"
        }
      ],
      "payable": false,
      "stateMutability": "nonpayable",
      "type": "function"
    },
    {
      "constant": true,
      "inputs": [
        {
          "name": "_owner",
          "type": "address"
        },
        {
          "name": "_operator",
          "type": "address"
        }
      ],
      "name": "isApprovedForAll",
      "outputs": [
        {
          "name": "",
          "type": "bool"
        }
      ],
      "payable": false,
      "stateMutability": "view",
      "type": "function"
    },
    {
      "constant": false,
      "inputs": [
        {
          "name": "newOwner",
          "type": "address"
        }
      ],
      "name": "transferOwnership",
      "outputs": [],
      "payable": false,
      "stateMutability": "nonpayable",
      "type": "function"
    },
    {
      "inputs": [],
      "payable": false,
      "stateMutability": "nonpayable",
      "type": "constructor"
    },
    {
      "payable": true,
      "stateMutability": "payable",
      "type": "fallback"
    },
    {
      "anonymous": false,
      "inputs": [
        {
          "indexed": true,
          "name": "_owner",
          "type": "address"
        },
        {
          "indexed": true,
          "name": "_tokenId",
          "type": "uint256"
        },
        {
          "indexed": false,
          "name": "_blockhash",
          "type": "bytes32"
        },
        {
          "indexed": false,
          "name": "_nickname",
          "type": "bytes32"
        }
      ],
      "name": "Minted",
      "type": "event"
    },
    {
      "anonymous": false,
      "inputs": [
        {
          "indexed": false,
          "name": "addr",
          "type": "address"
        }
      ],
      "name": "WhitelistedAddressAdded",
      "type": "event"
    },
    {
      "anonymous": false,
      "inputs": [
        {
          "indexed": false,
          "name": "addr",
          "type": "address"
        }
      ],
      "name": "WhitelistedAddressRemoved",
      "type": "event"
    },
    {
      "anonymous": false,
      "inputs": [
        {
          "indexed": true,
          "name": "previousOwner",
          "type": "address"
        },
        {
          "indexed": true,
          "name": "newOwner",
          "type": "address"
        }
      ],
      "name": "OwnershipTransferred",
      "type": "event"
    },
    {
      "anonymous": false,
      "inputs": [
        {
          "indexed": true,
          "name": "_from",
          "type": "address"
        },
        {
          "indexed": true,
          "name": "_to",
          "type": "address"
        },
        {
          "indexed": false,
          "name": "_tokenId",
          "type": "uint256"
        }
      ],
      "name": "Transfer",
      "type": "event"
    },
    {
      "anonymous": false,
      "inputs": [
        {
          "indexed": true,
          "name": "_owner",
          "type": "address"
        },
        {
          "indexed": true,
          "name": "_approved",
          "type": "address"
        },
        {
          "indexed": false,
          "name": "_tokenId",
          "type": "uint256"
        }
      ],
      "name": "Approval",
      "type": "event"
    },
    {
      "anonymous": false,
      "inputs": [
        {
          "indexed": true,
          "name": "_owner",
          "type": "address"
        },
        {
          "indexed": true,
          "name": "_operator",
          "type": "address"
        },
        {
          "indexed": false,
          "name": "_approved",
          "type": "bool"
        }
      ],
      "name": "ApprovalForAll",
      "type": "event"
    },
    {
      "constant": true,
      "inputs": [
        {
          "name": "_interfaceID",
          "type": "bytes4"
        }
      ],
      "name": "supportsInterface",
      "outputs": [
        {
          "name": "",
          "type": "bool"
        }
      ],
      "payable": false,
      "stateMutability": "pure",
      "type": "function"
    },
    {
      "constant": false,
      "inputs": [
        {
          "name": "_blockhash",
          "type": "bytes32"
        },
        {
          "name": "_tokenId",
          "type": "uint256"
        },
        {
          "name": "_nickname",
          "type": "bytes32"
        }
      ],
      "name": "mint",
      "outputs": [],
      "payable": false,
      "stateMutability": "nonpayable",
      "type": "function"
    },
    {
      "constant": false,
      "inputs": [
        {
          "name": "_blockhash",
          "type": "bytes32"
        },
        {
          "name": "_tokenId",
          "type": "uint256"
        },
        {
          "name": "_nickname",
          "type": "bytes32"
        },
        {
          "name": "_recipient",
          "type": "address"
        }
      ],
      "name": "mintTransfer",
      "outputs": [],
      "payable": false,
      "stateMutability": "nonpayable",
      "type": "function"
    },
    {
      "constant": false,
      "inputs": [
        {
          "name": "_nickname",
          "type": "bytes32"
        }
      ],
      "name": "buyToken",
      "outputs": [],
      "payable": true,
      "stateMutability": "payable",
      "type": "function"
    },
    {
      "constant": false,
      "inputs": [
        {
          "name": "_nickname",
          "type": "bytes32"
        }
      ],
      "name": "buyTokens",
      "outputs": [],
      "payable": true,
      "stateMutability": "payable",
      "type": "function"
    },
    {
      "constant": false,
      "inputs": [
        {
          "name": "_costOfToken",
          "type": "uint256"
        }
      ],
      "name": "setCostOfToken",
      "outputs": [],
      "payable": false,
      "stateMutability": "nonpayable",
      "type": "function"
    },
    {
      "constant": false,
      "inputs": [
        {
          "name": "_tokenId",
          "type": "uint256"
        },
        {
          "name": "_nickname",
          "type": "bytes32"
        }
      ],
      "name": "setNickname",
      "outputs": [],
      "payable": false,
      "stateMutability": "nonpayable",
      "type": "function"
    },
    {
      "constant": true,
      "inputs": [
        {
          "name": "_owner",
          "type": "address"
        }
      ],
      "name": "tokensOf",
      "outputs": [
        {
          "name": "_tokenIds",
          "type": "uint256[]"
        }
      ],
      "payable": false,
      "stateMutability": "view",
      "type": "function"
    },
    {
      "constant": true,
      "inputs": [
        {
          "name": "_owner",
          "type": "address"
        }
      ],
      "name": "hasTokens",
      "outputs": [
        {
          "name": "",
          "type": "bool"
        }
      ],
      "payable": false,
      "stateMutability": "view",
      "type": "function"
    },
    {
      "constant": true,
      "inputs": [
        {
          "name": "_owner",
          "type": "address"
        }
      ],
      "name": "firstToken",
      "outputs": [
        {
          "name": "_tokenId",
          "type": "uint256"
        }
      ],
      "payable": false,
      "stateMutability": "view",
      "type": "function"
    },
    {
      "constant": true,
      "inputs": [
        {
          "name": "_tokenId",
          "type": "uint256"
        }
      ],
      "name": "nicknameOf",
      "outputs": [
        {
          "name": "_nickname",
          "type": "bytes32"
        }
      ],
      "payable": false,
      "stateMutability": "view",
      "type": "function"
    },
    {
      "constant": true,
      "inputs": [
        {
          "name": "_tokenId",
          "type": "uint256"
        }
      ],
      "name": "tokenURI",
      "outputs": [
        {
          "name": "",
          "type": "string"
        }
      ],
      "payable": false,
      "stateMutability": "view",
      "type": "function"
    },
    {
      "constant": false,
      "inputs": [
        {
          "name": "_newBaseURI",
          "type": "string"
        }
      ],
      "name": "setTokenBaseURI",
      "outputs": [],
      "payable": false,
      "stateMutability": "nonpayable",
      "type": "function"
    },
    {
      "constant": false,
      "inputs": [
        {
          "name": "_defaultTokenURI",
          "type": "string"
        }
      ],
      "name": "setDefaultTokenURI",
      "outputs": [],
      "payable": false,
      "stateMutability": "nonpayable",
      "type": "function"
    },
    {
      "constant": false,
      "inputs": [
        {
          "name": "_tokenId",
          "type": "uint256"
        },
        {
          "name": "_uri",
          "type": "string"
        }
      ],
      "name": "setTokenURI",
      "outputs": [],
      "payable": false,
      "stateMutability": "nonpayable",
      "type": "function"
    },
    {
      "constant": true,
      "inputs": [
        {
          "name": "_tokenId",
          "type": "uint256"
        }
      ],
      "name": "blockhashOf",
      "outputs": [
        {
          "name": "hash",
          "type": "bytes32"
        }
      ],
      "payable": false,
      "stateMutability": "view",
      "type": "function"
    }
  ],
  "bytecode": "0x60c0604052601c60808190527f68747470733a2f2f697066732e696e667572612e696f2f697066732f0000000060a09081526200004091600d91906200023a565b5060408051606081018252602e8082527f516d5572546a5079326734617752594156384b73525368476148664c6863676b602083019081527f336e51704547775935383933426b0000000000000000000000000000000000009290930191909152620000af91600e916200023a565b50633b9aca00600f55662386f26fc10000601055348015620000d057600080fd5b50604080518082018252600f81527f496e7465726661636520546f6b656e00000000000000000000000000000000006020808301918252835180850190945260048085527f544f4b4e000000000000000000000000000000000000000000000000000000009185019190915282519293926200014d92906200023a565b508051620001639060059060208401906200023a565b5050600b8054600160a060020a03191633908117909155620001949150640100000000620010f86200019b82021704565b50620002df565b600b54600090600160a060020a03163314620001b657600080fd5b600160a060020a0382166000908152600c602052604090205460ff1615156200023557600160a060020a0382166000818152600c6020908152604091829020805460ff19166001179055815192835290517fd1bba68c128cc3f427e5831b3c6f99f480b6efa6b9e80c757768f6124158cc3f9281900390910190a15060015b919050565b828054600181600116156101000203166002900490600052602060002090601f016020900481019282601f106200027d57805160ff1916838001178555620002ad565b82800160010185558215620002ad579182015b82811115620002ad57825182559160200191906001019062000290565b50620002bb929150620002bf565b5090565b620002dc91905b80821115620002bb5760008155600101620002c6565b90565b61223a80620002ef6000396000f3006080604052600436106101f85763ffffffff7c010000000000000000000000000000000000000000000000000000000060003504166301ffc9a7811461020457806306fdde031461023a57806307518c8e146102c4578063081812fc146102ee578063095ea7b314610322578063162094c41461034657806318160ddd1461036a5780631bcf468b1461037f578063202c413d1461039457806323b872dd146103af57806324953eaa146103d9578063286dd3f51461042e5780632f745c591461044f5780633cefc1e01461047357806340786dec1461049457806342842e0e146104b25780634f558e79146104dc5780634f6ccce7146104f457806354f50f1b1461050c5780635a3f2672146105245780635cbb2ac314610595578063624de3d9146105aa5780636352211e146105dc578063699ac46f146105f45780636f37f48b1461061e57806370a082311461063f5780637b9417c8146106605780638da5cb5b146106815780638ef79e911461069657806395d89b41146106b65780639b19251a146106cb578063a125c824146106ec578063a22cb4651461070c578063a7dbfcaa14610732578063b88d4fde1461074a578063c87b56dd146107b9578063dffd5e57146107d1578063e2ec6ec3146107dc578063e985e9c514610831578063ea7000d614610858578063f2fde38b14610863575b6102026000610884565b005b34801561021057600080fd5b50610226600160e060020a031960043516610964565b604080519115158252519081900360200190f35b34801561024657600080fd5b5061024f610a6b565b6040805160208082528351818301528351919283929083019185019080838360005b83811015610289578181015183820152602001610271565b50505050905090810190601f1680156102b65780820380516001836020036101000a031916815260200191505b509250505060405180910390f35b3480156102d057600080fd5b506102dc600435610b02565b60408051918252519081900360200190f35b3480156102fa57600080fd5b50610306600435610b14565b60408051600160a060020a039092168252519081900360200190f35b34801561032e57600080fd5b50610202600160a060020a0360043516602435610b2f565b34801561035257600080fd5b50610202600480359060248035908101910135610c20565b34801561037657600080fd5b506102dc610c8c565b34801561038b57600080fd5b506102dc610c92565b3480156103a057600080fd5b50610202600435602435610c98565b3480156103bb57600080fd5b50610202600160a060020a0360043581169060243516604435610cc9565b3480156103e557600080fd5b506040805160206004803580820135838102808601850190965280855261022695369593946024949385019291829185019084908082843750949750610d789650505050505050565b34801561043a57600080fd5b50610226600160a060020a0360043516610dd9565b34801561045b57600080fd5b506102dc600160a060020a0360043516602435610e71565b34801561047f57600080fd5b50610226600160a060020a0360043516610ebe565b3480156104a057600080fd5b50610202600435602435604435610eda565b3480156104be57600080fd5b50610202600160a060020a0360043581169060243516604435610f04565b3480156104e857600080fd5b50610226600435610f3c565b34801561050057600080fd5b506102dc600435610f59565b34801561051857600080fd5b506102dc600435610f8e565b34801561053057600080fd5b50610545600160a060020a0360043516610fa0565b60408051602080825283518183015283519192839290830191858101910280838360005b83811015610581578181015183820152602001610569565b505050509050019250505060405180910390f35b3480156105a157600080fd5b506102dc61100c565b3480156105b657600080fd5b506105bf611012565b60408051600160e060020a03199092168252519081900360200190f35b3480156105e857600080fd5b50610306600435611036565b34801561060057600080fd5b50610202600435602435604435600160a060020a0360643516611060565b34801561062a57600080fd5b506102dc600160a060020a036004351661108a565b34801561064b57600080fd5b506102dc600160a060020a03600435166110c5565b34801561066c57600080fd5b50610226600160a060020a03600435166110f8565b34801561068d57600080fd5b50610306611194565b3480156106a257600080fd5b5061020260048035602481019101356111a3565b3480156106c257600080fd5b5061024f6111c6565b3480156106d757600080fd5b50610226600160a060020a0360043516611227565b3480156106f857600080fd5b50610202600480356024810191013561123c565b34801561071857600080fd5b50610202600160a060020a0360043516602435151561125f565b34801561073e57600080fd5b506102026004356112e3565b34801561075657600080fd5b50604080516020601f60643560048181013592830184900484028501840190955281845261020294600160a060020a0381358116956024803590921695604435953695608494019181908401838280828437509497506112ff9650505050505050565b3480156107c557600080fd5b5061024f60043561133e565b61020260043561158e565b3480156107e857600080fd5b5060408051602060048035808201358381028086018501909652808552610226953695939460249493850192918291850190849080828437509497506116459650505050505050565b34801561083d57600080fd5b50610226600160a060020a03600435811690602435166116a0565b610202600435610884565b34801561086f57600080fd5b50610202600160a060020a03600435166116ce565b60105460009034101561089657600080fd5b5060005b601054348115156108a757fe5b048110156108ee57600f546040805182815290519081900360200190206108cf918433611763565b600f546108e390600163ffffffff61181916565b600f5560010161089a565b600b54601054604051600160a060020a039092169190830280156108fc02916000818181858888f1935050505015801561092c573d6000803e3d6000fd5b5060105460405133918302340380156108fc02916000818181858888f1935050505015801561095f573d6000803e3d6000fd5b505050565b6000600160e060020a031982167f01ffc9a70000000000000000000000000000000000000000000000000000000014806109c75750600160e060020a031982167f80ac58cd00000000000000000000000000000000000000000000000000000000145b806109fb5750600160e060020a031982167fb0aa718700000000000000000000000000000000000000000000000000000000145b80610a2f5750600160e060020a031982167f780e9d6300000000000000000000000000000000000000000000000000000000145b80610a635750600160e060020a031982167f5b5e139f00000000000000000000000000000000000000000000000000000000145b90505b919050565b60048054604080516020601f6002600019610100600188161502019095169490940493840181900481028201810190925282815260609390929091830182828015610af75780601f10610acc57610100808354040283529160200191610af7565b820191906000526020600020905b815481529060010190602001808311610ada57829003601f168201915b505050505090505b90565b60009081526012602052604090205490565b600090815260016020526040902054600160a060020a031690565b6000610b3a82611036565b9050600160a060020a038381169082161415610b5557600080fd5b33600160a060020a0382161480610b715750610b7181336116a0565b1515610b7c57600080fd5b6000610b8783610b14565b600160a060020a0316141580610ba55750600160a060020a03831615155b1561095f57600082815260016020908152604091829020805473ffffffffffffffffffffffffffffffffffffffff1916600160a060020a03878116918217909255835186815293519093918516927f8c5be1e5ebec7d5bd14f71427d1e84f3dd0314c0f7b2291e5b200ac8c7c3b925928290030190a3505050565b336000908152600c602052604090205460ff161515610c3e57600080fd5b610c4783610f3c565b1515610c5257600080fd5b61095f8383838080601f0160208091040260200160405190810160405280939291908181526020018383808284375061182f945050505050565b60085490565b60105481565b8133610ca382611036565b600160a060020a031614610cb657600080fd5b5060009182526011602052604090912055565b80610cd43382611862565b1515610cdf57600080fd5b600160a060020a0384161515610cf457600080fd5b600160a060020a0383161515610d0957600080fd5b610d1384836118c1565b610d1d848361196e565b610d278383611aa7565b82600160a060020a031684600160a060020a03167fddf252ad1be2c89b69c2b068fc378daa952ba7f163c4a11628f55a4df523b3ef846040518082815260200191505060405180910390a350505050565b600b546000908190600160a060020a03163314610d9457600080fd5b5060005b8251811015610dd357610dc18382815181101515610db257fe5b90602001906020020151610dd9565b15610dcb57600191505b600101610d98565b50919050565b600b54600090600160a060020a03163314610df357600080fd5b600160a060020a0382166000908152600c602052604090205460ff1615610a6657600160a060020a0382166000818152600c6020908152604091829020805460ff19169055815192835290517ff1abf01a1043b7c244d128e8595cf0c1d10743b022b03a02dffd8ca3bf729f5a9281900390910190a1506001919050565b6000610e7c836110c5565b8210610e8757600080fd5b600160a060020a0383166000908152600660205260409020805483908110610eab57fe5b9060005260206000200154905092915050565b600160a060020a03166000908152600660205260408120541190565b336000908152600c602052604090205460ff161515610ef857600080fd5b61095f83838333611763565b80610f0f3382611862565b1515610f1a57600080fd5b610f3684848460206040519081016040528060008152506112ff565b50505050565b600090815260208190526040902054600160a060020a0316151590565b6000610f63610c8c565b8210610f6e57600080fd5b6008805483908110610f7c57fe5b90600052602060002001549050919050565b60009081526011602052604090205490565b600160a060020a03811660009081526006602090815260409182902080548351818402810184019094528084526060939283018282801561100057602002820191906000526020600020905b815481526020019060010190808311610fec575b50505050509050919050565b600f5481565b7fb0aa71870000000000000000000000000000000000000000000000000000000081565b600081815260208190526040812054600160a060020a031680151561105a57600080fd5b92915050565b336000908152600c602052604090205460ff16151561107e57600080fd5b610f3684848484611763565b600061109582610ebe565b15156110a057600080fd5b600160a060020a038216600090815260066020526040812080549091908110610f7c57fe5b6000600160a060020a03821615156110dc57600080fd5b50600160a060020a031660009081526002602052604090205490565b600b54600090600160a060020a0316331461111257600080fd5b600160a060020a0382166000908152600c602052604090205460ff161515610a6657600160a060020a0382166000818152600c6020908152604091829020805460ff19166001179055815192835290517fd1bba68c128cc3f427e5831b3c6f99f480b6efa6b9e80c757768f6124158cc3f9281900390910190a1506001919050565b600b54600160a060020a031681565b600b54600160a060020a031633146111ba57600080fd5b61095f600d83836120e8565b60058054604080516020601f6002600019610100600188161502019095169490940493840181900481028201810190925282815260609390929091830182828015610af75780601f10610acc57610100808354040283529160200191610af7565b600c6020526000908152604090205460ff1681565b600b54600160a060020a0316331461125357600080fd5b61095f600e83836120e8565b600160a060020a03821633141561127557600080fd5b336000818152600360209081526040808320600160a060020a03871680855290835292819020805460ff1916861515908117909155815190815290519293927f17307eab39ab6107e8899845ad3d59bd9653f200f220920489ca2b5937696c31929181900390910190a35050565b600b54600160a060020a031633146112fa57600080fd5b601055565b8161130a3382611862565b151561131557600080fd5b611320858585610cc9565b61132c85858585611af0565b151561133757600080fd5b5050505050565b6000818152600a602052604090205460609060026000196101006001841615020190911604151561149557600d8054604080516020601f6002600019610100600188161502019095169490940493840181900481028201810190925282815261148e93909290918301828280156113f65780601f106113cb576101008083540402835291602001916113f6565b820191906000526020600020905b8154815290600101906020018083116113d957829003601f168201915b5050600e8054604080516020601f60026000196101006001881615020190951694909404938401819004810282018101909252828152955091935091508301828280156114845780601f1061145957610100808354040283529160200191611484565b820191906000526020600020905b81548152906001019060200180831161146757829003601f168201915b5050505050611c61565b9050610a66565b600d8054604080516020601f60026000196101006001881615020190951694909404938401819004810282018101909252828152610a6393909290918301828280156115225780601f106114f757610100808354040283529160200191611522565b820191906000526020600020905b81548152906001019060200180831161150557829003601f168201915b5050506000868152600a60209081526040918290208054835160026001831615610100026000190190921691909104601f8101849004840282018401909452838152945092508301828280156114845780601f1061145957610100808354040283529160200191611484565b60105434101561159d57600080fd5b600f546040805182815290519081900360200190206115bd918333611763565b600f546115d190600163ffffffff61181916565b600f55600b54601054604051600160a060020a039092169181156108fc0291906000818181858888f19350505050158015611610573d6000803e3d6000fd5b506010546040513391340380156108fc02916000818181858888f19350505050158015611641573d6000803e3d6000fd5b5050565b600b546000908190600160a060020a0316331461166157600080fd5b5060005b8251811015610dd35761168e838281518110151561167f57fe5b906020019060200201516110f8565b1561169857600191505b600101611665565b600160a060020a03918216600090815260036020908152604080832093909416825291909152205460ff1690565b600b54600160a060020a031633146116e557600080fd5b600160a060020a03811615156116fa57600080fd5b600b54604051600160a060020a038084169216907f8be0079c531659141344cd1fd0a4f28419497f9722a3daafe3b4186f6b6457e090600090a3600b805473ffffffffffffffffffffffffffffffffffffffff1916600160a060020a0392909216919091179055565b6000848152601360205260409020541561177c57600080fd5b6000838152601260205260409020541561179557600080fd5b61179f8184611c96565b6000838152601260209081526040808320879055868352601382528083208690558583526011825291829020849055815186815290810184905281518592600160a060020a038516927f524f2cbda4d6611f91af397a555f7d212dde00cbf933069a6267518e0c4a27d7929081900390910190a350505050565b60008282018381101561182857fe5b9392505050565b61183882610f3c565b151561184357600080fd5b6000828152600a60209081526040909120825161095f92840190612166565b60008061186e83611036565b905080600160a060020a031684600160a060020a031614806118a9575083600160a060020a031661189e84610b14565b600160a060020a0316145b806118b957506118b981856116a0565b949350505050565b81600160a060020a03166118d482611036565b600160a060020a0316146118e757600080fd5b600081815260016020526040902054600160a060020a031615611641576000818152600160209081526040808320805473ffffffffffffffffffffffffffffffffffffffff1916905580518481529051600160a060020a038616927f8c5be1e5ebec7d5bd14f71427d1e84f3dd0314c0f7b2291e5b200ac8c7c3b925928290030190a35050565b600080600061197d8585611ce5565b600084815260076020908152604080832054600160a060020a03891684526006909252909120549093506119b890600163ffffffff611d7a16565b600160a060020a0386166000908152600660205260409020805491935090839081106119e057fe5b90600052602060002001549050806006600087600160a060020a0316600160a060020a0316815260200190815260200160002084815481101515611a2057fe5b6000918252602080832090910192909255600160a060020a0387168152600690915260408120805484908110611a5257fe5b6000918252602080832090910192909255600160a060020a0387168152600690915260409020805490611a899060001983016121d4565b50600093845260076020526040808520859055908452909220555050565b6000611ab38383611d8c565b50600160a060020a039091166000908152600660209081526040808320805460018101825590845282842081018590559383526007909152902055565b600080611b0585600160a060020a0316611e1b565b1515611b145760019150611c58565b84600160a060020a031663f0b9e5ba8786866040518463ffffffff167c01000000000000000000000000000000000000000000000000000000000281526004018084600160a060020a0316600160a060020a0316815260200183815260200180602001828103825283818151815260200191508051906020019080838360005b83811015611bac578181015183820152602001611b94565b50505050905090810190601f168015611bd95780820380516001836020036101000a031916815260200191505b50945050505050602060405180830381600087803b158015611bfa57600080fd5b505af1158015611c0e573d6000803e3d6000fd5b505050506040513d6020811015611c2457600080fd5b5051600160e060020a031981167ff0b9e5ba0000000000000000000000000000000000000000000000000000000014925090505b50949350505050565b604080516020818101835260008083528351808301855281815284519283019094528152606092611828928692869290611e23565b611ca08282612084565b600880546000838152600960205260408120829055600182018355919091527ff3f7a9fe364faab93b216da50a3214154f22a0a2b415b23a84c8169e8b636ee3015550565b81600160a060020a0316611cf882611036565b600160a060020a031614611d0b57600080fd5b600160a060020a038216600090815260026020526040902054611d3590600163ffffffff611d7a16565b600160a060020a039092166000908152600260209081526040808320949094559181529081905220805473ffffffffffffffffffffffffffffffffffffffff19169055565b600082821115611d8657fe5b50900390565b600081815260208190526040902054600160a060020a031615611dae57600080fd5b600081815260208181526040808320805473ffffffffffffffffffffffffffffffffffffffff1916600160a060020a03871690811790915583526002909152902054611dfb906001611819565b600160a060020a0390921660009081526002602052604090209190915550565b6000903b1190565b6060806060806060806060806000808e98508d97508c96508b95508a94508451865188518a518c51010101016040519080825280601f01601f191660200182016040528015611e7c578160200160208202803883390190505b50935083925060009150600090505b8851811015611ee9578881815181101515611ea257fe5b90602001015160f860020a900460f860020a028383806001019450815181101515611ec957fe5b906020010190600160f860020a031916908160001a905350600101611e8b565b5060005b8751811015611f4b578781815181101515611f0457fe5b90602001015160f860020a900460f860020a028383806001019450815181101515611f2b57fe5b906020010190600160f860020a031916908160001a905350600101611eed565b5060005b8651811015611fad578681815181101515611f6657fe5b90602001015160f860020a900460f860020a028383806001019450815181101515611f8d57fe5b906020010190600160f860020a031916908160001a905350600101611f4f565b5060005b855181101561200f578581815181101515611fc857fe5b90602001015160f860020a900460f860020a028383806001019450815181101515611fef57fe5b906020010190600160f860020a031916908160001a905350600101611fb1565b5060005b845181101561207157848181518110151561202a57fe5b90602001015160f860020a900460f860020a02838380600101945081518110151561205157fe5b906020010190600160f860020a031916908160001a905350600101612013565b50909d9c50505050505050505050505050565b600160a060020a038216151561209957600080fd5b6120a38282611aa7565b604080518281529051600160a060020a038416916000917fddf252ad1be2c89b69c2b068fc378daa952ba7f163c4a11628f55a4df523b3ef9181900360200190a35050565b828054600181600116156101000203166002900490600052602060002090601f016020900481019282601f106121295782800160ff19823516178555612156565b82800160010185558215612156579182015b8281111561215657823582559160200191906001019061213b565b506121629291506121f4565b5090565b828054600181600116156101000203166002900490600052602060002090601f016020900481019282601f106121a757805160ff1916838001178555612156565b82800160010185558215612156579182015b828111156121565782518255916020019190600101906121b9565b81548183558181111561095f5760008381526020902061095f9181019083015b610aff91905b8082111561216257600081556001016121fa5600a165627a7a723058208678c092db03360c1d16af553be7a967b2bd03ccc79d5ce172c4c869778d42620029",
  "source": "pragma solidity ^0.4.21;\n\n\nimport \"./ERC721Token.sol\";\n\nimport \"./Strings.sol\";\n\nimport \"./ERC165.sol\";\n\nimport \"./Whitelist.sol\";\n\n/**\n* @title InterfaceToken\n*/\ncontract InterfaceToken is ERC721Token, ERC165, Whitelist {\n  using SafeMath for uint256;\n\n  bytes4 constant InterfaceSignature_ERC165 = 0x01ffc9a7;\n  /*\n  bytes4(keccak256('supportsInterface(bytes4)'));\n  */\n\n  bytes4 constant InterfaceSignature_ERC721Enumerable = 0x780e9d63;\n  /*\n  bytes4(keccak256('totalSupply()')) ^\n  bytes4(keccak256('tokenOfOwnerByIndex(address,uint256)')) ^\n  bytes4(keccak256('tokenByIndex(uint256)'));\n  */\n\n  bytes4 constant InterfaceSignature_ERC721Metadata = 0x5b5e139f;\n  /*\n  bytes4(keccak256('name()')) ^\n  bytes4(keccak256('symbol()')) ^\n  bytes4(keccak256('tokenURI(uint256)'));\n  */\n\n  bytes4 constant InterfaceSignature_ERC721 = 0x80ac58cd;\n  /*\n  bytes4(keccak256('balanceOf(address)')) ^\n  bytes4(keccak256('ownerOf(uint256)')) ^\n  bytes4(keccak256('approve(address,uint256)')) ^\n  bytes4(keccak256('getApproved(uint256)')) ^\n  bytes4(keccak256('setApprovalForAll(address,bool)')) ^\n  bytes4(keccak256('isApprovedForAll(address,address)')) ^\n  bytes4(keccak256('transferFrom(address,address,uint256)')) ^\n  bytes4(keccak256('safeTransferFrom(address,address,uint256)')) ^\n  bytes4(keccak256('safeTransferFrom(address,address,uint256,bytes)'));\n  */\n\n  bytes4 public constant InterfaceSignature_ERC721Optional = - 0x4f558e79;\n  /*\n  bytes4(keccak256('exists(uint256)'));\n  */\n\n  /**\n   * @notice Introspection interface as per ERC-165 (https://github.com/ethereum/EIPs/issues/165).\n   * @dev Returns true for any standardized interfaces implemented by this contract.\n   * @param _interfaceID bytes4 the interface to check for\n   * @return true for any standardized interfaces implemented by this contract.\n   */\n  function supportsInterface(bytes4 _interfaceID) external pure returns (bool) {\n    return ((_interfaceID == InterfaceSignature_ERC165)\n    || (_interfaceID == InterfaceSignature_ERC721)\n    || (_interfaceID == InterfaceSignature_ERC721Optional)\n    || (_interfaceID == InterfaceSignature_ERC721Enumerable)\n    || (_interfaceID == InterfaceSignature_ERC721Metadata));\n  }\n\n  event Minted(address indexed _owner, uint256 indexed _tokenId, bytes32 _blockhash, bytes32 _nickname);\n\n  string internal tokenBaseURI = \"https://ipfs.infura.io/ipfs/\";\n  string internal defaultTokenURI = \"QmUrTjPy2g4awRYAV8KsRShGaHfLhcgk3nQpEGwY5893Bk\";\n\n  uint256 public purchaseTokenPointer =  1000000000;\n  uint256 public costOfToken = 0.01 ether;\n\n\n  mapping(uint256 => bytes32) internal tokenIdToNickname;\n\n  mapping(uint256 => bytes32) internal tokenIdToBlockhash;\n  mapping(bytes32 => uint256) internal blockhashToTokenId;\n\n  function InterfaceToken() public ERC721Token(\"Interface Token\", \"TOKN\") {\n    super.addAddressToWhitelist(msg.sender);\n  }\n\n  function() public payable {\n    buyTokens(\"\");\n  }\n\n  /**\n   * @dev Mint a new InterfaceToken token\n   * @dev Reverts if not called by curator\n   * @param _blockhash an Ethereum block hash\n   * @param _tokenId unique token ID\n   * @param _nickname char stamp of token owner\n   */\n  function mint(bytes32 _blockhash, uint256 _tokenId, bytes32 _nickname) external onlyWhitelisted {\n    _mint(_blockhash, _tokenId, _nickname, msg.sender);\n  }\n\n  /**\n   * @dev Mint a new InterfaceToken token (with recipient)\n   * @dev Reverts if not called by curator\n   * @param _blockhash an Ethereum block hash\n   * @param _tokenId unique token ID\n   * @param _nickname char stamp of token owner\n   * @param _recipient owner of the newly minted token\n   */\n  function mintTransfer(bytes32 _blockhash, uint256 _tokenId, bytes32 _nickname, address _recipient) external onlyWhitelisted {\n    _mint(_blockhash, _tokenId, _nickname, _recipient);\n  }\n\n  /**\n   * @dev Purchases a new InterfaceToken token\n   * @dev Reverts if not called by curator\n   * @param _nickname char stamp of token owner\n   */\n  function buyToken(bytes32 _nickname) public payable {\n    require(msg.value >= costOfToken);\n\n    _mint(keccak256(purchaseTokenPointer), purchaseTokenPointer, _nickname, msg.sender);\n    purchaseTokenPointer = purchaseTokenPointer.add(1);\n\n    // reconcile payments\n    owner.transfer(costOfToken);\n    msg.sender.transfer(msg.value - costOfToken);\n  }\n\n  /**\n   * @dev Purchases multiple new InterfaceToken tokens\n   * @dev Reverts if not called by curator\n   * @param _nickname char stamp of token owner\n   */\n  function buyTokens(bytes32 _nickname) public payable {\n    require(msg.value >= costOfToken);\n\n    uint i = 0;\n    for (i; i < (msg.value / costOfToken); i++) {\n      _mint(keccak256(purchaseTokenPointer), purchaseTokenPointer, _nickname, msg.sender);\n      purchaseTokenPointer = purchaseTokenPointer.add(1);\n    }\n\n    // reconcile payments\n    owner.transfer(costOfToken * i);\n    msg.sender.transfer(msg.value - (costOfToken * i));\n  }\n\n  function _mint(bytes32 _blockhash, uint256 _tokenId, bytes32 _nickname, address _recipient) internal {\n    require(blockhashToTokenId[_blockhash] == 0);\n    require(tokenIdToBlockhash[_tokenId] == 0);\n\n    // mint the token with sender as owner\n    super._mint(_recipient, _tokenId);\n\n    // set data\n    tokenIdToBlockhash[_tokenId] = _blockhash;\n    blockhashToTokenId[_blockhash] = _tokenId;\n    tokenIdToNickname[_tokenId] = _nickname;\n\n    Minted(_recipient, _tokenId, _blockhash, _nickname);\n  }\n\n  /**\n   * @dev Utility function changing the cost of the token\n   * @dev Reverts if not called by owner\n   * @param _costOfToken cost in wei\n   */\n  function setCostOfToken(uint256 _costOfToken) external onlyOwner {\n    costOfToken = _costOfToken;\n  }\n\n  /**\n   * @dev Utility function for updating a nickname if you own the token\n   * @dev Reverts if not called by owner\n   * @param _tokenId the DART token ID\n   * @param _nickname char stamp of token owner\n   */\n  function setNickname(uint256 _tokenId, bytes32 _nickname) external onlyOwnerOf(_tokenId) {\n    tokenIdToNickname[_tokenId] = _nickname;\n  }\n\n  /**\n   * @dev Return owned tokens\n   * @param _owner address to query\n   */\n  function tokensOf(address _owner) public view returns (uint256[] _tokenIds) {\n    return ownedTokens[_owner];\n  }\n\n  /**\n   * @dev checks for owned tokens\n   * @param _owner address to query\n   */\n  function hasTokens(address _owner) constant returns (bool) {\n    return ownedTokens[_owner].length > 0;\n  }\n\n  /**\n   * @dev checks for owned tokens\n   * @param _owner address to query\n   */\n  function firstToken(address _owner) constant returns (uint256 _tokenId) {\n    require(hasTokens(_owner));\n    return ownedTokens[_owner][0];\n  }\n\n  /**\n   * @dev Return handle of token\n   * @param _tokenId token ID for handle lookup\n   */\n  function nicknameOf(uint256 _tokenId) public view returns (bytes32 _nickname) {\n    return tokenIdToNickname[_tokenId];\n  }\n\n  /**\n   * @dev Get token URI fro the given token, useful for testing purposes\n   * @param _tokenId the DART token ID\n   * @return the token ID or only the base URI if not found\n   */\n  function tokenURI(uint256 _tokenId) public view returns (string) {\n    if (bytes(tokenURIs[_tokenId]).length == 0) {\n      return Strings.strConcat(tokenBaseURI, defaultTokenURI);\n    }\n\n    return Strings.strConcat(tokenBaseURI, tokenURIs[_tokenId]);\n  }\n\n  /**\n   * @dev Allows management to update the base tokenURI path\n   * @dev Reverts if not called by owner\n   * @param _newBaseURI the new base URI to set\n   */\n  function setTokenBaseURI(string _newBaseURI) external onlyOwner {\n    tokenBaseURI = _newBaseURI;\n  }\n\n  /**\n   * @dev Allows management to update the default token URI\n   * @dev Reverts if not called by owner\n   * @param _defaultTokenURI the new default URI to set\n   */\n  function setDefaultTokenURI(string _defaultTokenURI) external onlyOwner {\n    defaultTokenURI = _defaultTokenURI;\n  }\n\n  /**\n   * @dev Utility function for updating a DART assets token URI\n   * @dev Reverts if not called by management\n   * @param _tokenId the DART token ID\n   * @param _uri the token URI, will be concatenated with baseUri\n   */\n  function setTokenURI(uint256 _tokenId, string _uri) external onlyWhitelisted {\n    require(exists(_tokenId));\n    _setTokenURI(_tokenId, _uri);\n  }\n\n  /**\n   * @dev Return blockhash of the DART token\n   * @param _tokenId the DART token ID\n   */\n  function blockhashOf(uint256 _tokenId) public view returns (bytes32 hash) {\n    return tokenIdToBlockhash[_tokenId];\n  }\n}\n",
  "sourcePath": "/Users/andy/workspace/art-blocks/contracts/InterfaceToken.sol",
  "compiler": {
    "name": "solc",
    "version": "0.4.24+commit.e67f0147.Emscripten.clang"
  },
  "schemaVersion": "2.0.0",
  "updatedAt": "2018-07-15T19:54:07.918Z"
}