{
  "contractName": "SimpleArtistContract",
  "abi": [
    {
      "constant": true,
      "inputs": [],
      "name": "owner",
      "outputs": [
        {
          "name": "",
          "type": "address"
        }
      ],
      "payable": false,
      "stateMutability": "view",
      "type": "function"
    },
    {
      "constant": true,
      "inputs": [],
      "name": "lastPurchasedBlock",
      "outputs": [
        {
          "name": "",
          "type": "uint256"
        }
      ],
      "payable": false,
      "stateMutability": "view",
      "type": "function"
    },
    {
      "constant": true,
      "inputs": [],
      "name": "maxBlockPurchaseInOneGo",
      "outputs": [
        {
          "name": "",
          "type": "uint256"
        }
      ],
      "payable": false,
      "stateMutability": "view",
      "type": "function"
    },
    {
      "constant": true,
      "inputs": [],
      "name": "pricePerBlockInWei",
      "outputs": [
        {
          "name": "",
          "type": "uint256"
        }
      ],
      "payable": false,
      "stateMutability": "view",
      "type": "function"
    },
    {
      "constant": false,
      "inputs": [
        {
          "name": "newOwner",
          "type": "address"
        }
      ],
      "name": "transferOwnership",
      "outputs": [],
      "payable": false,
      "stateMutability": "nonpayable",
      "type": "function"
    },
    {
      "constant": true,
      "inputs": [],
      "name": "token",
      "outputs": [
        {
          "name": "",
          "type": "address"
        }
      ],
      "payable": false,
      "stateMutability": "view",
      "type": "function"
    },
    {
      "inputs": [
        {
          "name": "_token",
          "type": "address"
        },
        {
          "name": "_pricePerBlockInWei",
          "type": "uint256"
        },
        {
          "name": "_maxBlockPurchaseInOneGo",
          "type": "uint256"
        }
      ],
      "payable": false,
      "stateMutability": "nonpayable",
      "type": "constructor"
    },
    {
      "payable": true,
      "stateMutability": "payable",
      "type": "fallback"
    },
    {
      "anonymous": false,
      "inputs": [
        {
          "indexed": true,
          "name": "_funder",
          "type": "address"
        },
        {
          "indexed": true,
          "name": "_tokenId",
          "type": "uint256"
        },
        {
          "indexed": false,
          "name": "_blockhash",
          "type": "bytes32"
        },
        {
          "indexed": false,
          "name": "_block",
          "type": "uint256"
        }
      ],
      "name": "Purchase",
      "type": "event"
    },
    {
      "anonymous": false,
      "inputs": [
        {
          "indexed": true,
          "name": "_funder",
          "type": "address"
        },
        {
          "indexed": true,
          "name": "_tokenId",
          "type": "uint256"
        },
        {
          "indexed": false,
          "name": "_blocksPurchased",
          "type": "uint256"
        }
      ],
      "name": "Purchased",
      "type": "event"
    },
    {
      "anonymous": false,
      "inputs": [
        {
          "indexed": true,
          "name": "previousOwner",
          "type": "address"
        },
        {
          "indexed": true,
          "name": "newOwner",
          "type": "address"
        }
      ],
      "name": "OwnershipTransferred",
      "type": "event"
    },
    {
      "constant": false,
      "inputs": [],
      "name": "withdraw",
      "outputs": [],
      "payable": false,
      "stateMutability": "nonpayable",
      "type": "function"
    },
    {
      "constant": false,
      "inputs": [
        {
          "name": "_tokenId",
          "type": "uint256"
        }
      ],
      "name": "purchase",
      "outputs": [],
      "payable": true,
      "stateMutability": "payable",
      "type": "function"
    },
    {
      "constant": true,
      "inputs": [],
      "name": "nextPurchasableBlocknumber",
      "outputs": [
        {
          "name": "_nextFundedBlock",
          "type": "uint256"
        }
      ],
      "payable": false,
      "stateMutability": "view",
      "type": "function"
    },
    {
      "constant": true,
      "inputs": [
        {
          "name": "_tokenId",
          "type": "uint256"
        }
      ],
      "name": "blocknumbersOf",
      "outputs": [
        {
          "name": "_blocks",
          "type": "uint256[]"
        }
      ],
      "payable": false,
      "stateMutability": "view",
      "type": "function"
    },
    {
      "constant": true,
      "inputs": [
        {
          "name": "_blockNumber",
          "type": "uint256"
        }
      ],
      "name": "tokenIdOf",
      "outputs": [
        {
          "name": "_tokenId",
          "type": "uint256"
        }
      ],
      "payable": false,
      "stateMutability": "view",
      "type": "function"
    },
    {
      "constant": true,
      "inputs": [
        {
          "name": "_blocknumber",
          "type": "uint256"
        }
      ],
      "name": "getPurchasedBlockhash",
      "outputs": [
        {
          "name": "_tokenHash",
          "type": "bytes32"
        }
      ],
      "payable": false,
      "stateMutability": "view",
      "type": "function"
    },
    {
      "constant": true,
      "inputs": [
        {
          "name": "_blocknumber",
          "type": "uint256"
        }
      ],
      "name": "nativeBlockhash",
      "outputs": [
        {
          "name": "_tokenHash",
          "type": "bytes32"
        }
      ],
      "payable": false,
      "stateMutability": "view",
      "type": "function"
    },
    {
      "constant": true,
      "inputs": [],
      "name": "nextHash",
      "outputs": [
        {
          "name": "_tokenHash",
          "type": "bytes32"
        },
        {
          "name": "_nextBlocknumber",
          "type": "uint256"
        }
      ],
      "payable": false,
      "stateMutability": "view",
      "type": "function"
    },
    {
      "constant": true,
      "inputs": [],
      "name": "blocknumber",
      "outputs": [
        {
          "name": "_blockNumber",
          "type": "uint256"
        }
      ],
      "payable": false,
      "stateMutability": "view",
      "type": "function"
    }
  ],
  "bytecode": "0x60606040526000600655341561001457600080fd5b6040516060806108e283398101604052808051919060200180519190602001805160008054600160a060020a03338116600160a060020a0319928316179092556001805497909216961695909517909455505060025560035543600655610862806100806000396000f3006060604052600436106100c15763ffffffff60e060020a60003504166305062247811461019f57806306474d12146101c457806336f19b77146101da5780633ccfd60b146101f05780634bf96e6014610203578063727f0067146102165780638da5cb5b146102415780638da8a5ae14610270578063b32bf01114610286578063bb8270fa14610299578063c88e0feb146102ac578063efef39a1146102bf578063f2fde38b146102ca578063fc0c546a146102e9578063fc12c7da146102fc575b600154600160a060020a0316633cefc1e03360405160e060020a63ffffffff8416028152600160a060020a039091166004820152602401602060405180830381600087803b151561011157600080fd5b5af1151561011e57600080fd5b505050604051805190501561019d5760015461019d90600160a060020a0316636f37f48b3360405160e060020a63ffffffff8416028152600160a060020a039091166004820152602401602060405180830381600087803b151561018157600080fd5b5af1151561018e57600080fd5b50505060405180519050610365565b005b34156101aa57600080fd5b6101b26104a9565b60405190815260200160405180910390f35b34156101cf57600080fd5b6101b26004356104ae565b34156101e557600080fd5b6101b26004356104c0565b34156101fb57600080fd5b61019d610548565b341561020e57600080fd5b6101b26105b5565b341561022157600080fd5b6102296105d2565b60405191825260208201526040908101905180910390f35b341561024c57600080fd5b61025461060f565b604051600160a060020a03909116815260200160405180910390f35b341561027b57600080fd5b6101b260043561061e565b341561029157600080fd5b6101b2610622565b34156102a457600080fd5b6101b2610628565b34156102b757600080fd5b6101b261062e565b61019d600435610365565b34156102d557600080fd5b61019d600160a060020a0360043516610634565b34156102f457600080fd5b6102546106cf565b341561030757600080fd5b6103126004356106de565b60405160208082528190810183818151815260200191508051906020019060200280838360005b83811015610351578082015183820152602001610339565b505050509050019250505060405180910390f35b60008080348190101561037757600080fd5b60025434101561038657600080fd5b6003546002540234111561039957600080fd5b600154600160a060020a0316634f558e798560405160e060020a63ffffffff84160281526004810191909152602401602060405180830381600087803b15156103e157600080fd5b5af115156103ee57600080fd5b50505060405180519050151561040357600080fd5b6002543481151561041057fe5b0492504360010191506006548210156104295760065491505b5060005b828160ff16101561046057610441826104ae565b151561045557610451828561074f565b6001015b81600101915061042d565b600682905583600160a060020a0333167ff761777482b4b40d2bcc0d050cfba6829900a2d8b3484bd0244ec0feeb3db5048560405190815260200160405180910390a350505050565b435b90565b60009081526004602052604090205490565b6000806104cc836104ae565b15156104d757600080fd5b6104e0836104ae565b600154909150600160a060020a03166307518c8e8260405160e060020a63ffffffff84160281526004810191909152602401602060405180830381600087803b151561052b57600080fd5b5af1151561053857600080fd5b5050506040518051949350505050565b60005433600160a060020a0390811691161461056357600080fd5b6000600160a060020a033016311161057a57600080fd5b600054600160a060020a039081169030163180156108fc0290604051600060405180830381858888f1935050505015156105b357600080fd5b565b60006006544310156105ca57506006546104ab565b506001430190565b60008060001943016105e3816104ae565b156105fb576105f1816104c0565b819250925061060a565b6106048161061e565b81925092505b509091565b600054600160a060020a031681565b4090565b60065481565b60035481565b60025481565b60005433600160a060020a0390811691161461064f57600080fd5b600160a060020a038116151561066457600080fd5b600054600160a060020a0380831691167f8be0079c531659141344cd1fd0a4f28419497f9722a3daafe3b4186f6b6457e060405160405180910390a36000805473ffffffffffffffffffffffffffffffffffffffff1916600160a060020a0392909216919091179055565b600154600160a060020a031681565b6106e66107dd565b6005600083815260200190815260200160002080548060200260200160405190810160405280929190818152602001828054801561074357602002820191906000526020600020905b81548152602001906001019080831161072f575b50505050509050919050565b60008281526004602090815260408083208490558383526005909152902080546001810161077d83826107ef565b50600091825260209091200182905580600160a060020a0333167f127eb70ed395861ddc18e795701cb38d5571d5f433a10d6a9e663bd30101c0aa6107c1856104c0565b8560405191825260208201526040908101905180910390a35050565b60206040519081016040526000815290565b81548183558181151161081357600083815260209020610813918101908301610818565b505050565b6104ab91905b80821115610832576000815560010161081e565b50905600a165627a7a72305820b3ca8545cc12fd213ff0fff86d702527b4b916e1d4d27a555e1ba7b2e953ba6b0029",
  "source": "pragma solidity ^0.4.21;\n\nimport \"./DART.sol\";\n\nimport \"./Ownable.sol\";\n\n/**\n* @title SimpleArtistContract\n*/\ncontract SimpleArtistContract is Ownable {\n  using SafeMath for uint256;\n\n  event Purchase(address indexed _funder, uint256 indexed _tokenId, bytes32 _blockhash, uint256 _block);\n  event Purchased(address indexed _funder, uint256 indexed _tokenId, uint256 _blocksPurchased);\n\n  modifier onlyValidAmounts() {\n    require(msg.value >= 0);\n\n    // Min price\n    require(msg.value >= pricePerBlockInWei);\n\n    // max price\n    require(msg.value <= (pricePerBlockInWei * maxBlockPurchaseInOneGo));\n    _;\n  }\n\n  DART public token;\n\n  uint256 public pricePerBlockInWei;\n  uint256 public maxBlockPurchaseInOneGo;\n\n  mapping(uint256 => uint256) internal blocknumberToTokenId;\n  mapping(uint256 => uint256[]) internal tokenIdToPurchasedBlocknumbers;\n\n  uint256 public lastPurchasedBlock = 0;\n\n  function SimpleArtistContract(DART _token, uint256 _pricePerBlockInWei, uint256 _maxBlockPurchaseInOneGo) public {\n    token = _token;\n\n    pricePerBlockInWei = _pricePerBlockInWei;\n    maxBlockPurchaseInOneGo = _maxBlockPurchaseInOneGo;\n\n    // set to current block mined in\n    lastPurchasedBlock = block.number;\n  }\n\n  /**\n  * @dev allows payment direct to contract - if no token will store value on contract\n  */\n  function() public payable {\n    if (token.hasTokens(msg.sender)) {\n      purchase(token.firstToken(msg.sender));\n    }\n  }\n\n  /**\n  * @dev allows artist to withdraw funds sent by non-token holders\n  */\n  function withdraw() public onlyOwner {\n    require(this.balance > 0);\n\n    owner.transfer(this.balance);\n  }\n\n  /**\n   * @dev purchase blocks with your Token ID to be displayed for a specific amount of blocks\n   * @param _tokenId the DART token ID\n   */\n  function purchase(uint256 _tokenId) public payable onlyValidAmounts {\n    require(token.exists(_tokenId));\n\n    // determine how many blocks purchased\n    uint256 blocksToPurchased = msg.value / pricePerBlockInWei;\n\n    // Start purchase from next block the current block is being mined\n    uint256 nextBlockToPurchase = block.number + 1;\n\n    // If next block is behind the next block to purchase, set next block to the last block\n    if (nextBlockToPurchase < lastPurchasedBlock) {\n      // reducing wasted loops to find a viable block to purchase\n      nextBlockToPurchase = lastPurchasedBlock;\n    }\n\n    uint8 purchased = 0;\n    while (purchased < blocksToPurchased) {\n\n      if (tokenIdOf(nextBlockToPurchase) == 0) {\n        purchaseBlock(nextBlockToPurchase, _tokenId);\n        purchased++;\n      }\n\n      // move next block on to find another free space\n      nextBlockToPurchase = nextBlockToPurchase + 1;\n    }\n\n    // update last block once purchased\n    lastPurchasedBlock = nextBlockToPurchase;\n\n    // TODO splice monies to various parties\n\n    Purchased(msg.sender, _tokenId, blocksToPurchased);\n  }\n\n  function purchaseBlock(uint256 _blocknumber, uint256 _tokenId) internal {\n    // keep track of the token associated to the block\n    blocknumberToTokenId[_blocknumber] = _tokenId;\n\n    // Keep track of the blocks purchased by the token\n    tokenIdToPurchasedBlocknumbers[_tokenId].push(_blocknumber);\n\n    // Emit event for logging/tracking\n    Purchase(msg.sender, _tokenId, getPurchasedBlockhash(_blocknumber), _blocknumber);\n  }\n\n  /**\n   * @dev Attempts to work out the next block which will be funded\n   */\n  function nextPurchasableBlocknumber() public view returns (uint256 _nextFundedBlock) {\n    if (block.number < lastPurchasedBlock) {\n      return lastPurchasedBlock;\n    }\n    return block.number + 1;\n  }\n\n  /**\n   * @dev Returns the blocks which the provided token has purchased\n   */\n  function blocknumbersOf(uint256 _tokenId) public view returns (uint256[] _blocks) {\n    return tokenIdToPurchasedBlocknumbers[_tokenId];\n  }\n\n  /**\n   * @dev Return token ID for the provided block or 0 when not found\n   */\n  function tokenIdOf(uint256 _blockNumber) public view returns (uint256 _tokenId) {\n    return blocknumberToTokenId[_blockNumber];\n  }\n\n  /**\n * @dev Get the block hash the given block number\n * @param _blocknumber the block to generate hash for\n */\n  function getPurchasedBlockhash(uint256 _blocknumber) public view returns (bytes32 _tokenHash) {\n    // Do not allow this to be called for hashes which aren't purchased\n    require(tokenIdOf(_blocknumber) != 0);\n\n    uint256 tokenId = tokenIdOf(_blocknumber);\n    return token.blockhashOf(tokenId);\n  }\n\n  /**\n   * @dev Generates default block hash behaviour - helps with tests\n   */\n  function nativeBlockhash(uint256 _blocknumber) public view returns (bytes32 _tokenHash) {\n    return block.blockhash(_blocknumber);\n  }\n\n  /**\n   * @dev Generates a unique token hash for the token\n   * @return the hash and its associated block\n   */\n  function nextHash() public view returns (bytes32 _tokenHash, uint256 _nextBlocknumber) {\n    uint256 nextBlocknumber = block.number - 1;\n\n    // if current block number has been allocated then use it\n    if (tokenIdOf(nextBlocknumber) != 0) {\n      return (getPurchasedBlockhash(nextBlocknumber), nextBlocknumber);\n    }\n\n    // if no one own the current blockhash return current\n    return (nativeBlockhash(nextBlocknumber), nextBlocknumber);\n  }\n\n  /**\n   * @dev Returns blocknumber - helps with tests\n   */\n  function blocknumber() public view returns (uint256 _blockNumber) {\n    return block.number;\n  }\n}\n",
  "sourcePath": "/Users/andy/workspace/art-blocks/contracts/SimpleArtistContract.sol",
  "compiler": {
    "name": "solc",
    "version": "0.4.21+commit.dfe3193c.Emscripten.clang"
  },
  "schemaVersion": "2.0.0",
  "updatedAt": "2018-05-21T08:21:34.160Z"
}