{
  "contractName": "SimpleArtistContractV2",
  "abi": [
    {
      "constant": true,
      "inputs": [],
      "name": "applicationChecksum",
      "outputs": [
        {
          "name": "",
          "type": "bytes32"
        }
      ],
      "payable": false,
      "stateMutability": "view",
      "type": "function"
    },
    {
      "constant": true,
      "inputs": [],
      "name": "totalInvocations",
      "outputs": [
        {
          "name": "",
          "type": "uint256"
        }
      ],
      "payable": false,
      "stateMutability": "view",
      "type": "function"
    },
    {
      "constant": true,
      "inputs": [],
      "name": "minBlockPurchaseInOneGo",
      "outputs": [
        {
          "name": "",
          "type": "uint256"
        }
      ],
      "payable": false,
      "stateMutability": "view",
      "type": "function"
    },
    {
      "constant": true,
      "inputs": [],
      "name": "artist",
      "outputs": [
        {
          "name": "",
          "type": "address"
        }
      ],
      "payable": false,
      "stateMutability": "view",
      "type": "function"
    },
    {
      "constant": true,
      "inputs": [],
      "name": "maxInvocations",
      "outputs": [
        {
          "name": "",
          "type": "uint256"
        }
      ],
      "payable": false,
      "stateMutability": "view",
      "type": "function"
    },
    {
      "constant": true,
      "inputs": [],
      "name": "foundationPercentage",
      "outputs": [
        {
          "name": "",
          "type": "uint256"
        }
      ],
      "payable": false,
      "stateMutability": "view",
      "type": "function"
    },
    {
      "constant": true,
      "inputs": [],
      "name": "onlyShowPurchased",
      "outputs": [
        {
          "name": "",
          "type": "bool"
        }
      ],
      "payable": false,
      "stateMutability": "view",
      "type": "function"
    },
    {
      "constant": true,
      "inputs": [],
      "name": "lastPurchasedBlock",
      "outputs": [
        {
          "name": "",
          "type": "uint256"
        }
      ],
      "payable": false,
      "stateMutability": "view",
      "type": "function"
    },
    {
      "constant": true,
      "inputs": [],
      "name": "optionalSplitPercentage",
      "outputs": [
        {
          "name": "",
          "type": "uint256"
        }
      ],
      "payable": false,
      "stateMutability": "view",
      "type": "function"
    },
    {
      "constant": true,
      "inputs": [],
      "name": "maxBlockPurchaseInOneGo",
      "outputs": [
        {
          "name": "",
          "type": "uint256"
        }
      ],
      "payable": false,
      "stateMutability": "view",
      "type": "function"
    },
    {
      "constant": true,
      "inputs": [],
      "name": "pricePerBlockInWei",
      "outputs": [
        {
          "name": "",
          "type": "uint256"
        }
      ],
      "payable": false,
      "stateMutability": "view",
      "type": "function"
    },
    {
      "constant": true,
      "inputs": [],
      "name": "preventDoublePurchases",
      "outputs": [
        {
          "name": "",
          "type": "bool"
        }
      ],
      "payable": false,
      "stateMutability": "view",
      "type": "function"
    },
    {
      "constant": true,
      "inputs": [],
      "name": "optionalSplitAddress",
      "outputs": [
        {
          "name": "",
          "type": "address"
        }
      ],
      "payable": false,
      "stateMutability": "view",
      "type": "function"
    },
    {
      "constant": true,
      "inputs": [],
      "name": "token",
      "outputs": [
        {
          "name": "",
          "type": "address"
        }
      ],
      "payable": false,
      "stateMutability": "view",
      "type": "function"
    },
    {
      "constant": true,
      "inputs": [],
      "name": "foundationAddress",
      "outputs": [
        {
          "name": "",
          "type": "address"
        }
      ],
      "payable": false,
      "stateMutability": "view",
      "type": "function"
    },
    {
      "inputs": [
        {
          "name": "_token",
          "type": "address"
        },
        {
          "name": "_pricePerBlockInWei",
          "type": "uint256"
        },
        {
          "name": "_minBlockPurchaseInOneGo",
          "type": "uint256"
        },
        {
          "name": "_maxBlockPurchaseInOneGo",
          "type": "uint256"
        },
        {
          "name": "_artist",
          "type": "address"
        }
      ],
      "payable": false,
      "stateMutability": "nonpayable",
      "type": "constructor"
    },
    {
      "payable": true,
      "stateMutability": "payable",
      "type": "fallback"
    },
    {
      "anonymous": false,
      "inputs": [
        {
          "indexed": true,
          "name": "_funder",
          "type": "address"
        },
        {
          "indexed": true,
          "name": "_tokenId",
          "type": "uint256"
        },
        {
          "indexed": false,
          "name": "_blocksPurchased",
          "type": "uint256"
        },
        {
          "indexed": false,
          "name": "_totalValue",
          "type": "uint256"
        }
      ],
      "name": "Purchased",
      "type": "event"
    },
    {
      "anonymous": false,
      "inputs": [
        {
          "indexed": true,
          "name": "_funder",
          "type": "address"
        },
        {
          "indexed": true,
          "name": "_tokenId",
          "type": "uint256"
        },
        {
          "indexed": false,
          "name": "_blockhash",
          "type": "bytes32"
        },
        {
          "indexed": false,
          "name": "_block",
          "type": "uint256"
        }
      ],
      "name": "PurchaseBlock",
      "type": "event"
    },
    {
      "constant": false,
      "inputs": [
        {
          "name": "_tokenId",
          "type": "uint256"
        }
      ],
      "name": "purchase",
      "outputs": [],
      "payable": true,
      "stateMutability": "payable",
      "type": "function"
    },
    {
      "constant": true,
      "inputs": [
        {
          "name": "_tokenId",
          "type": "uint256"
        }
      ],
      "name": "tokenAlreadyUsed",
      "outputs": [
        {
          "name": "",
          "type": "bool"
        }
      ],
      "payable": false,
      "stateMutability": "view",
      "type": "function"
    },
    {
      "constant": true,
      "inputs": [],
      "name": "exceedsMaxInvocations",
      "outputs": [
        {
          "name": "",
          "type": "bool"
        }
      ],
      "payable": false,
      "stateMutability": "view",
      "type": "function"
    },
    {
      "constant": true,
      "inputs": [],
      "name": "remainingInvocations",
      "outputs": [
        {
          "name": "",
          "type": "uint256"
        }
      ],
      "payable": false,
      "stateMutability": "view",
      "type": "function"
    },
    {
      "constant": true,
      "inputs": [],
      "name": "nextPurchasableBlocknumber",
      "outputs": [
        {
          "name": "_nextFundedBlock",
          "type": "uint256"
        }
      ],
      "payable": false,
      "stateMutability": "view",
      "type": "function"
    },
    {
      "constant": true,
      "inputs": [
        {
          "name": "_tokenId",
          "type": "uint256"
        }
      ],
      "name": "blocknumbersOf",
      "outputs": [
        {
          "name": "_blocks",
          "type": "uint256[]"
        }
      ],
      "payable": false,
      "stateMutability": "view",
      "type": "function"
    },
    {
      "constant": true,
      "inputs": [
        {
          "name": "_blockNumber",
          "type": "uint256"
        }
      ],
      "name": "tokenIdOf",
      "outputs": [
        {
          "name": "_tokenId",
          "type": "uint256"
        }
      ],
      "payable": false,
      "stateMutability": "view",
      "type": "function"
    },
    {
      "constant": true,
      "inputs": [
        {
          "name": "_blocknumber",
          "type": "uint256"
        }
      ],
      "name": "getPurchasedBlockhash",
      "outputs": [
        {
          "name": "_tokenHash",
          "type": "bytes32"
        }
      ],
      "payable": false,
      "stateMutability": "view",
      "type": "function"
    },
    {
      "constant": true,
      "inputs": [
        {
          "name": "_blocknumber",
          "type": "uint256"
        }
      ],
      "name": "nativeBlockhash",
      "outputs": [
        {
          "name": "_tokenHash",
          "type": "bytes32"
        }
      ],
      "payable": false,
      "stateMutability": "view",
      "type": "function"
    },
    {
      "constant": true,
      "inputs": [],
      "name": "nextHash",
      "outputs": [
        {
          "name": "_tokenHash",
          "type": "bytes32"
        },
        {
          "name": "_nextBlocknumber",
          "type": "uint256"
        }
      ],
      "payable": false,
      "stateMutability": "view",
      "type": "function"
    },
    {
      "constant": true,
      "inputs": [],
      "name": "blocknumber",
      "outputs": [
        {
          "name": "_blockNumber",
          "type": "uint256"
        }
      ],
      "payable": false,
      "stateMutability": "view",
      "type": "function"
    },
    {
      "constant": false,
      "inputs": [],
      "name": "togglePreventDoublePurchases",
      "outputs": [],
      "payable": false,
      "stateMutability": "nonpayable",
      "type": "function"
    },
    {
      "constant": false,
      "inputs": [
        {
          "name": "_maxInvocations",
          "type": "uint256"
        }
      ],
      "name": "setMaxInvocations",
      "outputs": [],
      "payable": false,
      "stateMutability": "nonpayable",
      "type": "function"
    },
    {
      "constant": false,
      "inputs": [
        {
          "name": "_applicationChecksum",
          "type": "bytes32"
        }
      ],
      "name": "setApplicationChecksum",
      "outputs": [],
      "payable": false,
      "stateMutability": "nonpayable",
      "type": "function"
    },
    {
      "constant": false,
      "inputs": [
        {
          "name": "_priceInWei",
          "type": "uint256"
        }
      ],
      "name": "setPricePerBlockInWei",
      "outputs": [],
      "payable": false,
      "stateMutability": "nonpayable",
      "type": "function"
    },
    {
      "constant": false,
      "inputs": [
        {
          "name": "_maxBlockPurchaseInOneGo",
          "type": "uint256"
        }
      ],
      "name": "setMaxBlockPurchaseInOneGo",
      "outputs": [],
      "payable": false,
      "stateMutability": "nonpayable",
      "type": "function"
    },
    {
      "constant": false,
      "inputs": [
        {
          "name": "_minBlockPurchaseInOneGo",
          "type": "uint256"
        }
      ],
      "name": "setMinBlockPurchaseInOneGo",
      "outputs": [],
      "payable": false,
      "stateMutability": "nonpayable",
      "type": "function"
    },
    {
      "constant": false,
      "inputs": [
        {
          "name": "_onlyShowPurchased",
          "type": "bool"
        }
      ],
      "name": "setOnlyShowPurchased",
      "outputs": [],
      "payable": false,
      "stateMutability": "nonpayable",
      "type": "function"
    }
  ],
  "bytecode": "0x608060405260058054600160a860020a031916742b54605ef16c4da53e32ec20b7f170389350e9f100178155600655600b805460ff19169055600019600c556000600d819055600f5534801561005457600080fd5b5060405160a080610fdd8339810160409081528151602083015191830151606084015160809094015191939091600160a060020a038116151561009657600080fd5b60008054600160a060020a03928316600160a060020a031991821617909155600180549690921695169490941790935560029190915560045560035543600f55610ef8806100e56000396000f3006080604052600436106101a05763ffffffff7c010000000000000000000000000000000000000000000000000000000060003504166301dd014281146102de578063050622471461030557806306474d121461031a57806319eae36b146103325780632bb3dcc81461034a57806334b7d3101461035f57806336f19b77146103745780633878f4231461038c57806343bc1612146103a1578063471d66cb146103d25780634bf96e60146103fb5780636cbdef6114610410578063727f006714610425578063795bfd7b14610453578063864329e31461046857806389831bc41461047d5780638da8a5ae146104925780638ff5f021146104aa578063930f5fbe146104c25780639521000c146104da57806397e950f7146104f4578063b32bf0111461050c578063b61992e714610521578063b88c4eb914610539578063bb8270fa1461054e578063c88e0feb14610563578063e15ce84d14610578578063e91e70c41461058d578063ef7d47a5146105a2578063efef39a1146105ba578063fc0c546a146105c5578063fc12c7da146105da578063fcf07c6b14610642575b600154604080517f3cefc1e00000000000000000000000000000000000000000000000000000000081523360048201529051600160a060020a0390921691633cefc1e0916024808201926020929091908290030181600087803b15801561020657600080fd5b505af115801561021a573d6000803e3d6000fd5b505050506040513d602081101561023057600080fd5b5051156102d457600154604080517f6f37f48b00000000000000000000000000000000000000000000000000000000815233600482015290516102cf92600160a060020a031691636f37f48b9160248083019260209291908290030181600087803b15801561029e57600080fd5b505af11580156102b2573d6000803e3d6000fd5b505050506040513d60208110156102c857600080fd5b5051610657565b6102dc565b6102dc610903565b005b3480156102ea57600080fd5b506102f3610a34565b60408051918252519081900360200190f35b34801561031157600080fd5b506102f3610a3a565b34801561032657600080fd5b506102f3600435610a3f565b34801561033e57600080fd5b506102dc600435610a51565b34801561035657600080fd5b506102f3610a6d565b34801561036b57600080fd5b506102f3610a73565b34801561038057600080fd5b506102f3600435610a79565b34801561039857600080fd5b506102f3610b36565b3480156103ad57600080fd5b506103b6610b40565b60408051600160a060020a039092168252519081900360200190f35b3480156103de57600080fd5b506103e7610b4f565b604080519115158252519081900360200190f35b34801561040757600080fd5b506102f3610b5a565b34801561041c57600080fd5b506102f3610b77565b34801561043157600080fd5b5061043a610b7d565b6040805192835260208301919091528051918290030190f35b34801561045f57600080fd5b506102dc610bd1565b34801561047457600080fd5b506102f3610bfc565b34801561048957600080fd5b506103e7610c02565b34801561049e57600080fd5b506102f3600435610c0b565b3480156104b657600080fd5b506103e7600435610c0f565b3480156104ce57600080fd5b506102dc600435610c22565b3480156104e657600080fd5b506102dc6004351515610c3e565b34801561050057600080fd5b506102dc600435610c68565b34801561051857600080fd5b506102f3610d19565b34801561052d57600080fd5b506102dc600435610d1f565b34801561054557600080fd5b506102f3610d3b565b34801561055a57600080fd5b506102f3610d41565b34801561056f57600080fd5b506102f3610d47565b34801561058457600080fd5b506103e7610d4d565b34801561059957600080fd5b506103b6610d56565b3480156105ae57600080fd5b506102dc600435610d65565b6102dc600435610657565b3480156105d157600080fd5b506103b6610d81565b3480156105e657600080fd5b506105f2600435610d90565b60408051602080825283518183015283519192839290830191858101910280838360005b8381101561062e578181015183820152602001610616565b505050509050019250505060405180910390f35b34801561064e57600080fd5b506103b6610df2565b600080803481111561066857600080fd5b60045460025461067d9163ffffffff610e0616565b34101561068957600080fd5b60035460025461069e9163ffffffff610e0616565b3411156106aa57600080fd5b600154604080517f4f558e79000000000000000000000000000000000000000000000000000000008152600481018790529051600160a060020a0390921691634f558e79916024808201926020929091908290030181600087803b15801561071157600080fd5b505af1158015610725573d6000803e3d6000fd5b505050506040513d602081101561073b57600080fd5b5051151561074857600080fd5b600b5460ff16801561075e575061075e84610c0f565b156107ca57604080517f08c379a000000000000000000000000000000000000000000000000000000000815260206004820152601a60248201527f43616e742062757920616e79206d6f7265202d20736f72727921000000000000604482015290519081900360640190fd5b6107d2610b4f565b1561083e57604080517f08c379a000000000000000000000000000000000000000000000000000000000815260206004820152601a60248201527f417274204e6f646520736f6c64206f7574202d20736f72727921000000000000604482015290519081900360640190fd5b6002543481151561084b57fe5b049250436001019150600f5482101561086457600f5491505b5060005b828160ff16101561089b5761087c82610a3f565b15156108905761088c8285610e35565b6001015b816001019150610868565b600f8290556108a8610903565b600d546108bc90600163ffffffff610eaa16565b600d55604080518481523460208201528151869233927f2bdd59583c8e5cc64165e86af2482dbe93e85c98b355b788aa592465b3f6920e929081900390910190a350505050565b600080600060065460643481151561091757fe5b04029250600560019054906101000a9004600160a060020a0316600160a060020a03166108fc849081150290604051600060405180830381858888f19350505050158015610969573d6000803e3d6000fd5b50600754600160a060020a03161580159061098657506000600854115b156109ec576008546109af906109a334606463ffffffff610eb716565b9063ffffffff610e0616565b600754604051919350600160a060020a03169083156108fc029084906000818181858888f193505050501580156109ea573d6000803e3d6000fd5b505b50600080546040513485900384900392600160a060020a039092169183156108fc02918491818181858888f19350505050158015610a2e573d6000803e3d6000fd5b50505050565b600e5481565b435b90565b60009081526009602052604090205490565b600054600160a060020a03163314610a6857600080fd5b600355565b600d5481565b60045481565b600080610a8583610a3f565b1515610a9057600080fd5b610a9983610a3f565b600154604080517f07518c8e000000000000000000000000000000000000000000000000000000008152600481018490529051929350600160a060020a03909116916307518c8e916024808201926020929091908290030181600087803b158015610b0357600080fd5b505af1158015610b17573d6000803e3d6000fd5b505050506040513d6020811015610b2d57600080fd5b50519392505050565b600d54600c540390565b600054600160a060020a031681565b600c54600d54101590565b6000600f54431015610b6f5750600f54610a3c565b506001430190565b600c5481565b6000806000194301610b8e81610a3f565b15610ba657610b9c81610a79565b8192509250610bcc565b60055460ff1615610bbd5760009250905080610bcc565b610bc681610c0b565b81925092505b509091565b600054600160a060020a03163314610be857600080fd5b600b805460ff19811660ff90911615179055565b60065481565b60055460ff1681565b4090565b6000908152600a60205260408120541190565b600054600160a060020a03163314610c3957600080fd5b600e55565b600054600160a060020a03163314610c5557600080fd5b6005805460ff1916911515919091179055565b600054600160a060020a03163314610c7f57600080fd5b60008111610d1457604080517f08c379a000000000000000000000000000000000000000000000000000000000815260206004820152602960248201527f43616e6e6f7420736574206d617820696e766f636174696f6e7320746f206c6560448201527f7373207468656e20310000000000000000000000000000000000000000000000606482015290519081900360840190fd5b600c55565b600f5481565b600054600160a060020a03163314610d3657600080fd5b600255565b60085481565b60035481565b60025481565b600b5460ff1681565b600754600160a060020a031681565b600054600160a060020a03163314610d7c57600080fd5b600455565b600154600160a060020a031681565b6000818152600a6020908152604091829020805483518184028101840190945280845260609392830182828015610de657602002820191906000526020600020905b815481526020019060010190808311610dd2575b50505050509050919050565b6005546101009004600160a060020a031681565b6000821515610e1757506000610e2f565b50818102818382811515610e2757fe5b0414610e2f57fe5b92915050565b6000828152600960209081526040808320849055838352600a82528220805460018101825590835291200182905580337fda9dcec1d3238cd1a15f4d34d5c75faed5bcf16b5294105aa1a0e59557425871610e8f85610a79565b60408051918252602082018790528051918290030190a35050565b81810182811015610e2f57fe5b60008183811515610ec457fe5b0493925050505600a165627a7a723058200a447418326910b103bff6192509ec86be821264ffe183e21aa2eb381faa45160029",
  "source": "pragma solidity ^0.4.24;\n\nimport \"../v1/InterfaceToken.sol\";\n\n/**\n* @title SimpleArtistContract V2\n*/\ncontract SimpleArtistContractV2 {\n\n  using SafeMath for uint256;\n\n  uint256 constant internal MAX_UINT = ~uint256(0);\n\n  event Purchased(address indexed _funder, uint256 indexed _tokenId, uint256 _blocksPurchased, uint256 _totalValue);\n  event PurchaseBlock(address indexed _funder, uint256 indexed _tokenId, bytes32 _blockhash, uint256 _block);\n\n  modifier onlyValidAmounts() {\n    require(msg.value >= 0);\n\n    // Min price\n    require(msg.value >= pricePerBlockInWei.mul(minBlockPurchaseInOneGo));\n\n    // max price\n    require(msg.value <= pricePerBlockInWei.mul(maxBlockPurchaseInOneGo));\n    _;\n  }\n\n  /**\n   * @dev Throws if called by any account other than the artist.\n   */\n  modifier onlyArtist() {\n    require(msg.sender == artist);\n    _;\n  }\n\n  address public artist;\n\n  InterfaceToken public token;\n\n  uint256 public pricePerBlockInWei;\n  uint256 public maxBlockPurchaseInOneGo;\n  uint256 public minBlockPurchaseInOneGo;\n  bool public onlyShowPurchased = false;\n\n  // Foundation split\n  address public foundationAddress = 0x2b54605eF16c4da53E32eC20b7F170389350E9F1;\n  uint256 public foundationPercentage = 5; // 5% to foundation\n\n  // Optional 3rd party split\n  address public optionalSplitAddress;\n  uint256 public optionalSplitPercentage;\n\n  mapping(uint256 => uint256) internal blocknumberToTokenId;\n  mapping(uint256 => uint256[]) internal tokenIdToPurchasedBlocknumbers;\n\n  // When true - prevents the same token being used more than once\n  bool public preventDoublePurchases = false;\n\n  // Allows for a max number of invocations of this contract, equivalent to rarity i.e. 1 or 1000 in an edition\n  uint256 public maxInvocations = MAX_UINT;\n\n  // When total invocations equal max allowed invocations - no further token interactions with this contract are allowed\n  uint256 public totalInvocations = 0;\n\n  // Can hold the checksum of the corresponding generative script\n  bytes32 public applicationChecksum;\n\n  uint256 public lastPurchasedBlock = 0;\n\n  constructor(InterfaceToken _token, uint256 _pricePerBlockInWei, uint256 _minBlockPurchaseInOneGo, uint256 _maxBlockPurchaseInOneGo, address _artist) public {\n    require(_artist != address(0));\n    artist = _artist;\n\n    token = _token;\n\n    pricePerBlockInWei = _pricePerBlockInWei;\n    minBlockPurchaseInOneGo = _minBlockPurchaseInOneGo;\n    maxBlockPurchaseInOneGo = _maxBlockPurchaseInOneGo;\n\n    // set to current block mined in\n    lastPurchasedBlock = block.number;\n  }\n\n  /**\n  * @dev allows payment direct to contract - if no token will store value on contract\n  */\n  function() public payable {\n\n    if (token.hasTokens(msg.sender)) {\n      purchase(token.firstToken(msg.sender));\n    }\n    else {\n      splitFunds();\n    }\n  }\n\n  /**\n   * @dev purchase blocks with your Token ID to be displayed for a specific amount of blocks\n   * @param _tokenId the InterfaceToken token ID\n   */\n  function purchase(uint256 _tokenId) public payable onlyValidAmounts {\n    require(token.exists(_tokenId));\n\n    // If we are preventing double purchases, then check the token has not been used before\n    if (preventDoublePurchases && tokenAlreadyUsed(_tokenId)) {\n      revert(\"Cant buy any more - sorry!\");\n    }\n\n    // We check to see if the Node has exceeded max available invocations\n    if (exceedsMaxInvocations()) {\n      revert(\"Art Node sold out - sorry!\");\n    }\n\n    // determine how many blocks purchased\n    uint256 blocksToPurchased = msg.value / pricePerBlockInWei;\n\n    // Start purchase from next block the current block is being mined\n    uint256 nextBlockToPurchase = block.number + 1;\n\n    // If next block is behind the next block to purchase, set next block to the last block\n    if (nextBlockToPurchase < lastPurchasedBlock) {\n      // reducing wasted loops to find a viable block to purchase\n      nextBlockToPurchase = lastPurchasedBlock;\n    }\n\n    uint8 purchased = 0;\n    while (purchased < blocksToPurchased) {\n\n      if (tokenIdOf(nextBlockToPurchase) == 0) {\n        purchaseBlock(nextBlockToPurchase, _tokenId);\n        purchased++;\n      }\n\n      // move next block on to find another free space\n      nextBlockToPurchase = nextBlockToPurchase + 1;\n    }\n\n    // update last block once purchased\n    lastPurchasedBlock = nextBlockToPurchase;\n\n    // payments\n    splitFunds();\n\n    // Bump the invocation count\n    totalInvocations = totalInvocations.add(1);\n\n    emit Purchased(msg.sender, _tokenId, blocksToPurchased, msg.value);\n  }\n\n  function purchaseBlock(uint256 _blocknumber, uint256 _tokenId) internal {\n    // keep track of the token associated to the block\n    blocknumberToTokenId[_blocknumber] = _tokenId;\n\n    // Keep track of the blocks purchased by the token\n    tokenIdToPurchasedBlocknumbers[_tokenId].push(_blocknumber);\n\n    // Emit event for logging/tracking\n    emit PurchaseBlock(msg.sender, _tokenId, getPurchasedBlockhash(_blocknumber), _blocknumber);\n  }\n\n  function splitFunds() internal {\n    // 5% to foundation\n    uint foundationShare = msg.value / 100 * foundationPercentage;\n    foundationAddress.transfer(foundationShare);\n\n    // Optional X% to 3rd party\n    uint256 optionalShare;\n    if (optionalSplitAddress != address(0) && optionalSplitPercentage > 0) {\n      optionalShare = msg.value.div(100).mul(optionalSplitPercentage);\n      optionalSplitAddress.transfer(optionalShare);\n    }\n\n    // artists sent the remaining value\n    uint artistTotal = msg.value - foundationShare - optionalShare;\n    artist.transfer(artistTotal);\n  }\n\n  /**\n   * @dev Checks to see if the token has already purchased blocks\n   */\n  function tokenAlreadyUsed(uint256 _tokenId) public view returns (bool) {\n    return tokenIdToPurchasedBlocknumbers[_tokenId].length > 0;\n  }\n\n  /**\n   * @dev Checks to see if the maximum number of purchases have been made\n   */\n  function exceedsMaxInvocations() public view returns (bool) {\n    return totalInvocations >= maxInvocations;\n  }\n\n  /**\n   * @dev Returns the allowed number of interactions left on the contract\n   */\n  function remainingInvocations() public view returns (uint256) {\n    return maxInvocations - totalInvocations;\n  }\n\n  /**\n   * @dev Attempts to work out the next block which will be funded\n   */\n  function nextPurchasableBlocknumber() public view returns (uint256 _nextFundedBlock) {\n    if (block.number < lastPurchasedBlock) {\n      return lastPurchasedBlock;\n    }\n    return block.number + 1;\n  }\n\n  /**\n   * @dev Returns the blocks which the provided token has purchased\n   */\n  function blocknumbersOf(uint256 _tokenId) public view returns (uint256[] _blocks) {\n    return tokenIdToPurchasedBlocknumbers[_tokenId];\n  }\n\n  /**\n   * @dev Return token ID for the provided block or 0 when not found\n   */\n  function tokenIdOf(uint256 _blockNumber) public view returns (uint256 _tokenId) {\n    return blocknumberToTokenId[_blockNumber];\n  }\n\n  /**\n    * @dev Get the block hash the given block number\n    * @param _blocknumber the block to generate hash for\n    */\n  function getPurchasedBlockhash(uint256 _blocknumber) public view returns (bytes32 _tokenHash) {\n    // Do not allow this to be called for hashes which aren't purchased\n    require(tokenIdOf(_blocknumber) != 0);\n\n    uint256 tokenId = tokenIdOf(_blocknumber);\n    return token.blockhashOf(tokenId);\n  }\n\n  /**\n   * @dev Generates default block hash behaviour - helps with tests\n   */\n  function nativeBlockhash(uint256 _blocknumber) public view returns (bytes32 _tokenHash) {\n    return blockhash(_blocknumber);\n  }\n\n  /**\n   * @dev Generates a unique token hash for the token\n   * @return the hash and its associated block\n   */\n  function nextHash() public view returns (bytes32 _tokenHash, uint256 _nextBlocknumber) {\n    uint256 nextBlocknumber = block.number - 1;\n\n    // if current block number has been allocated then use it\n    if (tokenIdOf(nextBlocknumber) != 0) {\n      return (getPurchasedBlockhash(nextBlocknumber), nextBlocknumber);\n    }\n\n    if (onlyShowPurchased) {\n      return (0x0, nextBlocknumber);\n    }\n\n    // if no one own the current blockhash return current\n    return (nativeBlockhash(nextBlocknumber), nextBlocknumber);\n  }\n\n  /**\n   * @dev Returns blocknumber - helps with tests\n   */\n  function blocknumber() public view returns (uint256 _blockNumber) {\n    return block.number;\n  }\n\n  /**\n   * @dev Toggles the contract between allowing and preventing double purchases\n   */\n  function togglePreventDoublePurchases() external onlyArtist {\n    preventDoublePurchases = !preventDoublePurchases;\n  }\n\n  /**\n   * @dev Can control the max invocations allowed\n   */\n  function setMaxInvocations(uint256 _maxInvocations) external onlyArtist {\n    require(_maxInvocations > 0, \"Cannot set max invocations to less then 1\");\n    maxInvocations = _maxInvocations;\n  }\n\n  /**\n   * @dev Sets the application checksum, assume the bytes32 is a sha256 has of the application\n   */\n  function setApplicationChecksum(bytes32 _applicationChecksum) external onlyArtist {\n    applicationChecksum = _applicationChecksum;\n  }\n\n  /**\n   * @dev Utility function for updating price per block\n   * @param _priceInWei the price in wei\n   */\n  function setPricePerBlockInWei(uint256 _priceInWei) external onlyArtist {\n    pricePerBlockInWei = _priceInWei;\n  }\n\n  /**\n   * @dev Utility function for updating max blocks\n   * @param _maxBlockPurchaseInOneGo max blocks per purchase\n   */\n  function setMaxBlockPurchaseInOneGo(uint256 _maxBlockPurchaseInOneGo) external onlyArtist {\n    maxBlockPurchaseInOneGo = _maxBlockPurchaseInOneGo;\n  }\n\n  /**\n   * @dev Utility function for updating min blocks\n   * @param _minBlockPurchaseInOneGo min blocks per purchase\n   */\n  function setMinBlockPurchaseInOneGo(uint256 _minBlockPurchaseInOneGo) external onlyArtist {\n    minBlockPurchaseInOneGo = _minBlockPurchaseInOneGo;\n  }\n\n  /**\n * @dev Utility function for only show purchased\n * @param _onlyShowPurchased flag for only showing purchased hashes\n */\n  function setOnlyShowPurchased(bool _onlyShowPurchased) external onlyArtist {\n    onlyShowPurchased = _onlyShowPurchased;\n  }\n}\n",
  "sourcePath": "/Users/jamesmorgan/Dropbox/workspace-blockrocket/art-blocks/contracts/v2/SimpleArtistContractV2.sol",
  "compiler": {
    "name": "solc",
    "version": "0.4.25+commit.59dbf8f1.Emscripten.clang"
  },
  "schemaVersion": "3.0.0-beta.1",
  "updatedAt": "2018-10-24T14:11:23.184Z"
}