{
  "contractName": "SimpleArtistContract",
  "abi": [
    {
      "constant": true,
      "inputs": [],
      "name": "artist",
      "outputs": [
        {
          "name": "",
          "type": "address"
        }
      ],
      "payable": false,
      "stateMutability": "view",
      "type": "function"
    },
    {
      "constant": true,
      "inputs": [],
      "name": "foundationPercentage",
      "outputs": [
        {
          "name": "",
          "type": "uint256"
        }
      ],
      "payable": false,
      "stateMutability": "view",
      "type": "function"
    },
    {
      "constant": true,
      "inputs": [],
      "name": "onlyShowPurchased",
      "outputs": [
        {
          "name": "",
          "type": "bool"
        }
      ],
      "payable": false,
      "stateMutability": "view",
      "type": "function"
    },
    {
      "constant": true,
      "inputs": [],
      "name": "lastPurchasedBlock",
      "outputs": [
        {
          "name": "",
          "type": "uint256"
        }
      ],
      "payable": false,
      "stateMutability": "view",
      "type": "function"
    },
    {
      "constant": true,
      "inputs": [],
      "name": "maxBlockPurchaseInOneGo",
      "outputs": [
        {
          "name": "",
          "type": "uint256"
        }
      ],
      "payable": false,
      "stateMutability": "view",
      "type": "function"
    },
    {
      "constant": true,
      "inputs": [],
      "name": "pricePerBlockInWei",
      "outputs": [
        {
          "name": "",
          "type": "uint256"
        }
      ],
      "payable": false,
      "stateMutability": "view",
      "type": "function"
    },
    {
      "constant": true,
      "inputs": [],
      "name": "token",
      "outputs": [
        {
          "name": "",
          "type": "address"
        }
      ],
      "payable": false,
      "stateMutability": "view",
      "type": "function"
    },
    {
      "constant": true,
      "inputs": [],
      "name": "foundationAddress",
      "outputs": [
        {
          "name": "",
          "type": "address"
        }
      ],
      "payable": false,
      "stateMutability": "view",
      "type": "function"
    },
    {
      "inputs": [
        {
          "name": "_token",
          "type": "address"
        },
        {
          "name": "_pricePerBlockInWei",
          "type": "uint256"
        },
        {
          "name": "_maxBlockPurchaseInOneGo",
          "type": "uint256"
        },
        {
          "name": "_artist",
          "type": "address"
        }
      ],
      "payable": false,
      "stateMutability": "nonpayable",
      "type": "constructor"
    },
    {
      "payable": true,
      "stateMutability": "payable",
      "type": "fallback"
    },
    {
      "anonymous": false,
      "inputs": [
        {
          "indexed": true,
          "name": "_funder",
          "type": "address"
        },
        {
          "indexed": true,
          "name": "_tokenId",
          "type": "uint256"
        },
        {
          "indexed": false,
          "name": "_blocksPurchased",
          "type": "uint256"
        },
        {
          "indexed": false,
          "name": "_totalValue",
          "type": "uint256"
        }
      ],
      "name": "Purchased",
      "type": "event"
    },
    {
      "anonymous": false,
      "inputs": [
        {
          "indexed": true,
          "name": "_funder",
          "type": "address"
        },
        {
          "indexed": true,
          "name": "_tokenId",
          "type": "uint256"
        },
        {
          "indexed": false,
          "name": "_blockhash",
          "type": "bytes32"
        },
        {
          "indexed": false,
          "name": "_block",
          "type": "uint256"
        }
      ],
      "name": "PurchaseBlock",
      "type": "event"
    },
    {
      "constant": false,
      "inputs": [
        {
          "name": "_tokenId",
          "type": "uint256"
        }
      ],
      "name": "purchase",
      "outputs": [],
      "payable": true,
      "stateMutability": "payable",
      "type": "function"
    },
    {
      "constant": true,
      "inputs": [],
      "name": "nextPurchasableBlocknumber",
      "outputs": [
        {
          "name": "_nextFundedBlock",
          "type": "uint256"
        }
      ],
      "payable": false,
      "stateMutability": "view",
      "type": "function"
    },
    {
      "constant": true,
      "inputs": [
        {
          "name": "_tokenId",
          "type": "uint256"
        }
      ],
      "name": "blocknumbersOf",
      "outputs": [
        {
          "name": "_blocks",
          "type": "uint256[]"
        }
      ],
      "payable": false,
      "stateMutability": "view",
      "type": "function"
    },
    {
      "constant": true,
      "inputs": [
        {
          "name": "_blockNumber",
          "type": "uint256"
        }
      ],
      "name": "tokenIdOf",
      "outputs": [
        {
          "name": "_tokenId",
          "type": "uint256"
        }
      ],
      "payable": false,
      "stateMutability": "view",
      "type": "function"
    },
    {
      "constant": true,
      "inputs": [
        {
          "name": "_blocknumber",
          "type": "uint256"
        }
      ],
      "name": "getPurchasedBlockhash",
      "outputs": [
        {
          "name": "_tokenHash",
          "type": "bytes32"
        }
      ],
      "payable": false,
      "stateMutability": "view",
      "type": "function"
    },
    {
      "constant": true,
      "inputs": [
        {
          "name": "_blocknumber",
          "type": "uint256"
        }
      ],
      "name": "nativeBlockhash",
      "outputs": [
        {
          "name": "_tokenHash",
          "type": "bytes32"
        }
      ],
      "payable": false,
      "stateMutability": "view",
      "type": "function"
    },
    {
      "constant": true,
      "inputs": [],
      "name": "nextHash",
      "outputs": [
        {
          "name": "_tokenHash",
          "type": "bytes32"
        },
        {
          "name": "_nextBlocknumber",
          "type": "uint256"
        }
      ],
      "payable": false,
      "stateMutability": "view",
      "type": "function"
    },
    {
      "constant": true,
      "inputs": [],
      "name": "blocknumber",
      "outputs": [
        {
          "name": "_blockNumber",
          "type": "uint256"
        }
      ],
      "payable": false,
      "stateMutability": "view",
      "type": "function"
    },
    {
      "constant": false,
      "inputs": [
        {
          "name": "_priceInWei",
          "type": "uint256"
        }
      ],
      "name": "setPricePerBlockInWei",
      "outputs": [],
      "payable": false,
      "stateMutability": "nonpayable",
      "type": "function"
    },
    {
      "constant": false,
      "inputs": [
        {
          "name": "_maxBlockPurchaseInOneGo",
          "type": "uint256"
        }
      ],
      "name": "setMaxBlockPurchaseInOneGo",
      "outputs": [],
      "payable": false,
      "stateMutability": "nonpayable",
      "type": "function"
    },
    {
      "constant": false,
      "inputs": [
        {
          "name": "_onlyShowPurchased",
          "type": "bool"
        }
      ],
      "name": "setOnlyShowPurchased",
      "outputs": [],
      "payable": false,
      "stateMutability": "nonpayable",
      "type": "function"
    }
  ],
  "bytecode": "0x608060405260048054600160a860020a03191674f43ae50c468c3d3fa0c3dc3454e797317ef530780017905560058055600060085534801561004057600080fd5b50604051608080610ae58339810160409081528151602083015191830151606090930151909290600160a060020a038116151561007c57600080fd5b60008054600160a060020a03928316600160a060020a031991821617909155600180549590921694169390931790925560025560035543600855610a20806100c56000396000f3006080604052600436106101065763ffffffff7c01000000000000000000000000000000000000000000000000000000006000350416630506224781146102cd57806306474d12146102f457806319eae36b1461030c57806336f19b771461032657806343bc16121461033e5780634bf96e601461036f578063727f006714610384578063864329e3146103b257806389831bc4146103c75780638da8a5ae146103f05780639521000c14610408578063b32bf01114610422578063b61992e714610437578063bb8270fa1461044f578063c88e0feb14610464578063efef39a114610479578063fc0c546a14610484578063fc12c7da14610499578063fcf07c6b14610501575b600154604080517f3cefc1e000000000000000000000000000000000000000000000000000000000815233600482015290516000928392600160a060020a0390911691633cefc1e09160248082019260209290919082900301818787803b15801561017057600080fd5b505af1158015610184573d6000803e3d6000fd5b505050506040513d602081101561019a57600080fd5b50511561023e57600154604080517f6f37f48b000000000000000000000000000000000000000000000000000000008152336004820152905161023992600160a060020a031691636f37f48b9160248083019260209291908290030181600087803b15801561020857600080fd5b505af115801561021c573d6000803e3d6000fd5b505050506040513d602081101561023257600080fd5b5051610516565b6102c9565b6005546004546040516064340490920293506101009004600160a060020a0316906108fc8415029084906000818181858888f19350505050158015610287573d6000803e3d6000fd5b5050600080546040513484900392600160a060020a039092169183156108fc02918491818181858888f193505050501580156102c7573d6000803e3d6000fd5b505b5050005b3480156102d957600080fd5b506102e261071f565b60408051918252519081900360200190f35b34801561030057600080fd5b506102e2600435610724565b34801561031857600080fd5b50610324600435610736565b005b34801561033257600080fd5b506102e2600435610752565b34801561034a57600080fd5b5061035361080f565b60408051600160a060020a039092168252519081900360200190f35b34801561037b57600080fd5b506102e261081e565b34801561039057600080fd5b5061039961083b565b6040805192835260208301919091528051918290030190f35b3480156103be57600080fd5b506102e261088f565b3480156103d357600080fd5b506103dc610895565b604080519115158252519081900360200190f35b3480156103fc57600080fd5b506102e260043561089e565b34801561041457600080fd5b5061032460043515156108a2565b34801561042e57600080fd5b506102e26108cc565b34801561044357600080fd5b506103246004356108d2565b34801561045b57600080fd5b506102e26108ee565b34801561047057600080fd5b506102e26108f4565b610324600435610516565b34801561049057600080fd5b506103536108fa565b3480156104a557600080fd5b506104b1600435610909565b60408051602080825283518183015283519192839290830191858101910280838360005b838110156104ed5781810151838201526020016104d5565b505050509050019250505060405180910390f35b34801561050d57600080fd5b5061035361096b565b6000808080803481111561052957600080fd5b60025434101561053857600080fd5b6003546002540234111561054b57600080fd5b600154604080517f4f558e79000000000000000000000000000000000000000000000000000000008152600481018990529051600160a060020a0390921691634f558e79916024808201926020929091908290030181600087803b1580156105b257600080fd5b505af11580156105c6573d6000803e3d6000fd5b505050506040513d60208110156105dc57600080fd5b505115156105e957600080fd5b600254348115156105f657fe5b04945043600101935060085484101561060f5760085493505b600092505b848360ff16101561064a5761062884610724565b151561063f57610638848761097f565b6001909201915b836001019350610614565b60088490556005546004546040516064340490920293506101009004600160a060020a0316906108fc8415029084906000818181858888f19350505050158015610698573d6000803e3d6000fd5b5050600080546040513484900392600160a060020a039092169183156108fc02918491818181858888f193505050501580156106d8573d6000803e3d6000fd5b50604080518681523460208201528151889233927f2bdd59583c8e5cc64165e86af2482dbe93e85c98b355b788aa592465b3f6920e929081900390910190a3505050505050565b435b90565b60009081526006602052604090205490565b600054600160a060020a0316331461074d57600080fd5b600355565b60008061075e83610724565b151561076957600080fd5b61077283610724565b600154604080517f07518c8e000000000000000000000000000000000000000000000000000000008152600481018490529051929350600160a060020a03909116916307518c8e916024808201926020929091908290030181600087803b1580156107dc57600080fd5b505af11580156107f0573d6000803e3d6000fd5b505050506040513d602081101561080657600080fd5b50519392505050565b600054600160a060020a031681565b60006008544310156108335750600854610721565b506001430190565b600080600019430161084c81610724565b156108645761085a81610752565b819250925061088a565b60045460ff161561087b576000925082915061088a565b6108848161089e565b81925092505b509091565b60055481565b60045460ff1681565b4090565b600054600160a060020a031633146108b957600080fd5b6004805460ff1916911515919091179055565b60085481565b600054600160a060020a031633146108e957600080fd5b600255565b60035481565b60025481565b600154600160a060020a031681565b60008181526007602090815260409182902080548351818402810184019094528084526060939283018282801561095f57602002820191906000526020600020905b81548152602001906001019080831161094b575b50505050509050919050565b6004546101009004600160a060020a031681565b6000828152600660209081526040808320849055838352600782528220805460018101825590835291200182905580337fda9dcec1d3238cd1a15f4d34d5c75faed5bcf16b5294105aa1a0e595574258716109d985610752565b60408051918252602082018790528051918290030190a350505600a165627a7a72305820aa83fcb12d2feaba3c9377fd78f2ac2e85daecdd27eff8347db99b73ff0b31900029",
  "source": "pragma solidity ^0.4.21;\n\nimport \"./InterfaceToken.sol\";\n\n/**\n* @title SimpleArtistContract\n*/\ncontract SimpleArtistContract  {\n  using SafeMath for uint256;\n\n  event Purchased(address indexed _funder, uint256 indexed _tokenId, uint256 _blocksPurchased, uint256 _totalValue);\n  event PurchaseBlock(address indexed _funder, uint256 indexed _tokenId, bytes32 _blockhash, uint256 _block);\n\n  modifier onlyValidAmounts() {\n    require(msg.value >= 0);\n\n    // Min price\n    require(msg.value >= pricePerBlockInWei);\n\n    // max price\n    require(msg.value <= (pricePerBlockInWei * maxBlockPurchaseInOneGo));\n    _;\n  }\n\n  /**\n   * @dev Throws if called by any account other than the artist.\n   */\n  modifier onlyArtist() {\n    require(msg.sender == artist);\n    _;\n  }\n\n  address public artist;\n\n  InterfaceToken public token;\n\n  uint256 public pricePerBlockInWei;\n  uint256 public maxBlockPurchaseInOneGo;\n  bool public onlyShowPurchased = false;\n\n  address public foundationAddress = 0xf43aE50C468c3D3Fa0C3dC3454E797317EF53078;\n  uint256 public foundationPercentage = 5; // 5% to foundation\n\n  mapping(uint256 => uint256) internal blocknumberToTokenId;\n  mapping(uint256 => uint256[]) internal tokenIdToPurchasedBlocknumbers;\n\n  uint256 public lastPurchasedBlock = 0;\n\n  function SimpleArtistContract(InterfaceToken _token, uint256 _pricePerBlockInWei, uint256 _maxBlockPurchaseInOneGo, address _artist) public {\n    require(_artist != address(0));\n    artist = _artist;\n\n    token = _token;\n\n    pricePerBlockInWei = _pricePerBlockInWei;\n    maxBlockPurchaseInOneGo = _maxBlockPurchaseInOneGo;\n\n    // set to current block mined in\n    lastPurchasedBlock = block.number;\n  }\n\n  /**\n  * @dev allows payment direct to contract - if no token will store value on contract\n  */\n  function() public payable {\n    if (token.hasTokens(msg.sender)) {\n      purchase(token.firstToken(msg.sender));\n    }\n    else {\n      // 4% to foundation\n      uint foundationShare = msg.value / 100 * foundationPercentage;\n      foundationAddress.transfer(foundationShare);\n\n      // artists sent the remaining value\n      uint artistTotal = msg.value - foundationShare;\n      artist.transfer(artistTotal);\n    }\n  }\n\n  /**\n   * @dev purchase blocks with your Token ID to be displayed for a specific amount of blocks\n   * @param _tokenId the InterfaceToken token ID\n   */\n  function purchase(uint256 _tokenId) public payable onlyValidAmounts {\n    require(token.exists(_tokenId));\n\n    // determine how many blocks purchased\n    uint256 blocksToPurchased = msg.value / pricePerBlockInWei;\n\n    // Start purchase from next block the current block is being mined\n    uint256 nextBlockToPurchase = block.number + 1;\n\n    // If next block is behind the next block to purchase, set next block to the last block\n    if (nextBlockToPurchase < lastPurchasedBlock) {\n      // reducing wasted loops to find a viable block to purchase\n      nextBlockToPurchase = lastPurchasedBlock;\n    }\n\n    uint8 purchased = 0;\n    while (purchased < blocksToPurchased) {\n\n      if (tokenIdOf(nextBlockToPurchase) == 0) {\n        purchaseBlock(nextBlockToPurchase, _tokenId);\n        purchased++;\n      }\n\n      // move next block on to find another free space\n      nextBlockToPurchase = nextBlockToPurchase + 1;\n    }\n\n    // update last block once purchased\n    lastPurchasedBlock = nextBlockToPurchase;\n\n    // payments\n\n    // 4% to foundation\n    uint foundationShare = msg.value / 100 * foundationPercentage;\n    foundationAddress.transfer(foundationShare);\n\n    // artists sent the remaining value\n    uint artistTotal = msg.value - foundationShare;\n    artist.transfer(artistTotal);\n\n    Purchased(msg.sender, _tokenId, blocksToPurchased, msg.value);\n  }\n\n  function purchaseBlock(uint256 _blocknumber, uint256 _tokenId) internal {\n    // keep track of the token associated to the block\n    blocknumberToTokenId[_blocknumber] = _tokenId;\n\n    // Keep track of the blocks purchased by the token\n    tokenIdToPurchasedBlocknumbers[_tokenId].push(_blocknumber);\n\n    // Emit event for logging/tracking\n    PurchaseBlock(msg.sender, _tokenId, getPurchasedBlockhash(_blocknumber), _blocknumber);\n  }\n\n  /**\n   * @dev Attempts to work out the next block which will be funded\n   */\n  function nextPurchasableBlocknumber() public view returns (uint256 _nextFundedBlock) {\n    if (block.number < lastPurchasedBlock) {\n      return lastPurchasedBlock;\n    }\n    return block.number + 1;\n  }\n\n  /**\n   * @dev Returns the blocks which the provided token has purchased\n   */\n  function blocknumbersOf(uint256 _tokenId) public view returns (uint256[] _blocks) {\n    return tokenIdToPurchasedBlocknumbers[_tokenId];\n  }\n\n  /**\n   * @dev Return token ID for the provided block or 0 when not found\n   */\n  function tokenIdOf(uint256 _blockNumber) public view returns (uint256 _tokenId) {\n    return blocknumberToTokenId[_blockNumber];\n  }\n\n  /**\n    * @dev Get the block hash the given block number\n    * @param _blocknumber the block to generate hash for\n    */\n  function getPurchasedBlockhash(uint256 _blocknumber) public view returns (bytes32 _tokenHash) {\n    // Do not allow this to be called for hashes which aren't purchased\n    require(tokenIdOf(_blocknumber) != 0);\n\n    uint256 tokenId = tokenIdOf(_blocknumber);\n    return token.blockhashOf(tokenId);\n  }\n\n  /**\n   * @dev Generates default block hash behaviour - helps with tests\n   */\n  function nativeBlockhash(uint256 _blocknumber) public view returns (bytes32 _tokenHash) {\n    return block.blockhash(_blocknumber);\n  }\n\n  /**\n   * @dev Generates a unique token hash for the token\n   * @return the hash and its associated block\n   */\n  function nextHash() public view returns (bytes32 _tokenHash, uint256 _nextBlocknumber) {\n    uint256 nextBlocknumber = block.number - 1;\n\n    // if current block number has been allocated then use it\n    if (tokenIdOf(nextBlocknumber) != 0) {\n      return (getPurchasedBlockhash(nextBlocknumber), nextBlocknumber);\n    }\n\n    if (onlyShowPurchased) {\n      return (0x0, 0x0);\n    }\n\n    // if no one own the current blockhash return current\n    return (nativeBlockhash(nextBlocknumber), nextBlocknumber);\n  }\n\n  /**\n   * @dev Returns blocknumber - helps with tests\n   */\n  function blocknumber() public view returns (uint256 _blockNumber) {\n    return block.number;\n  }\n\n  /**\n   * @dev Utility function for updating price per block\n   * @param _priceInWei the price in wei\n   */\n  function setPricePerBlockInWei( uint256 _priceInWei) external onlyArtist {\n    pricePerBlockInWei = _priceInWei;\n  }\n\n  /**\n   * @dev Utility function for updating max blocks\n   * @param _maxBlockPurchaseInOneGo max blocks per purchase\n   */\n  function setMaxBlockPurchaseInOneGo( uint256 _maxBlockPurchaseInOneGo) external onlyArtist {\n    maxBlockPurchaseInOneGo = _maxBlockPurchaseInOneGo;\n  }\n\n  /**\n * @dev Utility function for only show purchased\n * @param _onlyShowPurchased flag for only showing purchased hashes\n */\n  function setOnlyShowPurchased(bool _onlyShowPurchased) external onlyArtist {\n    onlyShowPurchased = _onlyShowPurchased;\n  }\n}\n",
  "sourcePath": "/Users/andy/workspace/art-blocks/contracts/SimpleArtistContract.sol",
  "compiler": {
    "name": "solc",
    "version": "0.4.24+commit.e67f0147.Emscripten.clang"
  },
  "schemaVersion": "2.0.0",
  "updatedAt": "2018-07-15T11:24:07.109Z"
}