{
  "contractName": "SimpleArtistContract",
  "abi": [
    {
      "constant": true,
      "inputs": [],
      "name": "owner",
      "outputs": [
        {
          "name": "",
          "type": "address"
        }
      ],
      "payable": false,
      "stateMutability": "view",
      "type": "function"
    },
    {
      "constant": false,
      "inputs": [
        {
          "name": "newOwner",
          "type": "address"
        }
      ],
      "name": "transferOwnership",
      "outputs": [],
      "payable": false,
      "stateMutability": "nonpayable",
      "type": "function"
    },
    {
      "constant": true,
      "inputs": [],
      "name": "token",
      "outputs": [
        {
          "name": "",
          "type": "address"
        }
      ],
      "payable": false,
      "stateMutability": "view",
      "type": "function"
    },
    {
      "inputs": [
        {
          "name": "_token",
          "type": "address"
        }
      ],
      "payable": false,
      "stateMutability": "nonpayable",
      "type": "constructor"
    },
    {
      "anonymous": false,
      "inputs": [
        {
          "indexed": true,
          "name": "previousOwner",
          "type": "address"
        },
        {
          "indexed": true,
          "name": "newOwner",
          "type": "address"
        }
      ],
      "name": "OwnershipTransferred",
      "type": "event"
    }
  ],
  "bytecode": "0x6060604052341561000f57600080fd5b6040516020806102028339810160405280805160008054600160a060020a03338116600160a060020a0319928316179092556001805492909316911617905550506101a38061005f6000396000f3006060604052600436106100565763ffffffff7c01000000000000000000000000000000000000000000000000000000006000350416638da5cb5b811461005b578063f2fde38b1461008a578063fc0c546a146100ab575b600080fd5b341561006657600080fd5b61006e6100be565b604051600160a060020a03909116815260200160405180910390f35b341561009557600080fd5b6100a9600160a060020a03600435166100cd565b005b34156100b657600080fd5b61006e610168565b600054600160a060020a031681565b60005433600160a060020a039081169116146100e857600080fd5b600160a060020a03811615156100fd57600080fd5b600054600160a060020a0380831691167f8be0079c531659141344cd1fd0a4f28419497f9722a3daafe3b4186f6b6457e060405160405180910390a36000805473ffffffffffffffffffffffffffffffffffffffff1916600160a060020a0392909216919091179055565b600154600160a060020a0316815600a165627a7a72305820e3e7cd05b027b938cc830758fb9d020cc2ef75e658782e97790076fe3af4b3c70029",
  "source": "pragma solidity ^0.4.21;\n\nimport \"./DART.sol\";\n\nimport \"./Ownable.sol\";\n\n/**\n* @title SimpleArtistContract\n*/\ncontract SimpleArtistContract is Ownable {\n  using SafeMath for uint256;\n\n  DART public token;\n\n  function SimpleArtistContract(DART _token) public {\n    token = _token;\n  }\n}\n",
  "sourcePath": "/Users/andy/workspace/art-blocks/contracts/SimpleArtistContract.sol",
  "compiler": {
    "name": "solc",
    "version": "0.4.21+commit.dfe3193c.Emscripten.clang"
  },
  "schemaVersion": "2.0.0",
  "updatedAt": "2018-05-15T14:18:02.375Z"
}