{
  "contractName": "SimpleArtistContract",
  "abi": [
    {
      "constant": true,
      "inputs": [],
      "name": "onlyShowPurchased",
      "outputs": [
        {
          "name": "",
          "type": "bool"
        }
      ],
      "payable": false,
      "stateMutability": "view",
      "type": "function"
    },
    {
      "constant": true,
      "inputs": [],
      "name": "owner",
      "outputs": [
        {
          "name": "",
          "type": "address"
        }
      ],
      "payable": false,
      "stateMutability": "view",
      "type": "function"
    },
    {
      "constant": true,
      "inputs": [],
      "name": "lastPurchasedBlock",
      "outputs": [
        {
          "name": "",
          "type": "uint256"
        }
      ],
      "payable": false,
      "stateMutability": "view",
      "type": "function"
    },
    {
      "constant": true,
      "inputs": [],
      "name": "maxBlockPurchaseInOneGo",
      "outputs": [
        {
          "name": "",
          "type": "uint256"
        }
      ],
      "payable": false,
      "stateMutability": "view",
      "type": "function"
    },
    {
      "constant": true,
      "inputs": [],
      "name": "pricePerBlockInWei",
      "outputs": [
        {
          "name": "",
          "type": "uint256"
        }
      ],
      "payable": false,
      "stateMutability": "view",
      "type": "function"
    },
    {
      "constant": false,
      "inputs": [
        {
          "name": "newOwner",
          "type": "address"
        }
      ],
      "name": "transferOwnership",
      "outputs": [],
      "payable": false,
      "stateMutability": "nonpayable",
      "type": "function"
    },
    {
      "constant": true,
      "inputs": [],
      "name": "token",
      "outputs": [
        {
          "name": "",
          "type": "address"
        }
      ],
      "payable": false,
      "stateMutability": "view",
      "type": "function"
    },
    {
      "inputs": [
        {
          "name": "_token",
          "type": "address"
        },
        {
          "name": "_pricePerBlockInWei",
          "type": "uint256"
        },
        {
          "name": "_maxBlockPurchaseInOneGo",
          "type": "uint256"
        }
      ],
      "payable": false,
      "stateMutability": "nonpayable",
      "type": "constructor"
    },
    {
      "payable": true,
      "stateMutability": "payable",
      "type": "fallback"
    },
    {
      "anonymous": false,
      "inputs": [
        {
          "indexed": true,
          "name": "_funder",
          "type": "address"
        },
        {
          "indexed": true,
          "name": "_tokenId",
          "type": "uint256"
        },
        {
          "indexed": false,
          "name": "_blockhash",
          "type": "bytes32"
        },
        {
          "indexed": false,
          "name": "_block",
          "type": "uint256"
        }
      ],
      "name": "Purchase",
      "type": "event"
    },
    {
      "anonymous": false,
      "inputs": [
        {
          "indexed": true,
          "name": "_funder",
          "type": "address"
        },
        {
          "indexed": true,
          "name": "_tokenId",
          "type": "uint256"
        },
        {
          "indexed": false,
          "name": "_blocksPurchased",
          "type": "uint256"
        }
      ],
      "name": "Purchased",
      "type": "event"
    },
    {
      "anonymous": false,
      "inputs": [
        {
          "indexed": true,
          "name": "previousOwner",
          "type": "address"
        },
        {
          "indexed": true,
          "name": "newOwner",
          "type": "address"
        }
      ],
      "name": "OwnershipTransferred",
      "type": "event"
    },
    {
      "constant": false,
      "inputs": [],
      "name": "withdraw",
      "outputs": [],
      "payable": false,
      "stateMutability": "nonpayable",
      "type": "function"
    },
    {
      "constant": false,
      "inputs": [
        {
          "name": "_tokenId",
          "type": "uint256"
        }
      ],
      "name": "purchase",
      "outputs": [],
      "payable": true,
      "stateMutability": "payable",
      "type": "function"
    },
    {
      "constant": true,
      "inputs": [],
      "name": "nextPurchasableBlocknumber",
      "outputs": [
        {
          "name": "_nextFundedBlock",
          "type": "uint256"
        }
      ],
      "payable": false,
      "stateMutability": "view",
      "type": "function"
    },
    {
      "constant": true,
      "inputs": [
        {
          "name": "_tokenId",
          "type": "uint256"
        }
      ],
      "name": "blocknumbersOf",
      "outputs": [
        {
          "name": "_blocks",
          "type": "uint256[]"
        }
      ],
      "payable": false,
      "stateMutability": "view",
      "type": "function"
    },
    {
      "constant": true,
      "inputs": [
        {
          "name": "_blockNumber",
          "type": "uint256"
        }
      ],
      "name": "tokenIdOf",
      "outputs": [
        {
          "name": "_tokenId",
          "type": "uint256"
        }
      ],
      "payable": false,
      "stateMutability": "view",
      "type": "function"
    },
    {
      "constant": true,
      "inputs": [
        {
          "name": "_blocknumber",
          "type": "uint256"
        }
      ],
      "name": "getPurchasedBlockhash",
      "outputs": [
        {
          "name": "_tokenHash",
          "type": "bytes32"
        }
      ],
      "payable": false,
      "stateMutability": "view",
      "type": "function"
    },
    {
      "constant": true,
      "inputs": [
        {
          "name": "_blocknumber",
          "type": "uint256"
        }
      ],
      "name": "nativeBlockhash",
      "outputs": [
        {
          "name": "_tokenHash",
          "type": "bytes32"
        }
      ],
      "payable": false,
      "stateMutability": "view",
      "type": "function"
    },
    {
      "constant": true,
      "inputs": [],
      "name": "nextHash",
      "outputs": [
        {
          "name": "_tokenHash",
          "type": "bytes32"
        },
        {
          "name": "_nextBlocknumber",
          "type": "uint256"
        }
      ],
      "payable": false,
      "stateMutability": "view",
      "type": "function"
    },
    {
      "constant": true,
      "inputs": [],
      "name": "blocknumber",
      "outputs": [
        {
          "name": "_blockNumber",
          "type": "uint256"
        }
      ],
      "payable": false,
      "stateMutability": "view",
      "type": "function"
    },
    {
      "constant": false,
      "inputs": [
        {
          "name": "_priceInWei",
          "type": "uint256"
        }
      ],
      "name": "setPricePerBlockInWei",
      "outputs": [],
      "payable": false,
      "stateMutability": "nonpayable",
      "type": "function"
    },
    {
      "constant": false,
      "inputs": [
        {
          "name": "_maxBlockPurchaseInOneGo",
          "type": "uint256"
        }
      ],
      "name": "setMaxBlockPurchaseInOneGo",
      "outputs": [],
      "payable": false,
      "stateMutability": "nonpayable",
      "type": "function"
    },
    {
      "constant": false,
      "inputs": [
        {
          "name": "_onlyShowPurchased",
          "type": "bool"
        }
      ],
      "name": "setOnlyShowPurchased",
      "outputs": [],
      "payable": false,
      "stateMutability": "nonpayable",
      "type": "function"
    }
  ],
  "bytecode": "0x60806040526004805460ff19169055600060075534801561001f57600080fd5b50604051606080610a5e83398101604090815281516020830151919092015160008054600160a060020a0319908116331790915560018054600160a060020a039095169490911693909317909255600255600355436007556109d8806100866000396000f3006080604052600436106101065763ffffffff7c010000000000000000000000000000000000000000000000000000000060003504166305062247811461023757806306474d121461025e57806319eae36b1461027657806336f19b771461028e5780633ccfd60b146102a65780634bf96e60146102bb578063727f0067146102d057806389831bc4146102fe5780638da5cb5b146103275780638da8a5ae146103585780639521000c14610370578063b32bf0111461038a578063b61992e71461039f578063bb8270fa146103b7578063c88e0feb146103cc578063efef39a1146103e1578063f2fde38b146103ec578063fc0c546a1461040d578063fc12c7da14610422575b600154604080517f3cefc1e00000000000000000000000000000000000000000000000000000000081523360048201529051600160a060020a0390921691633cefc1e0916024808201926020929091908290030181600087803b15801561016c57600080fd5b505af1158015610180573d6000803e3d6000fd5b505050506040513d602081101561019657600080fd5b50511561023557600154604080517f6f37f48b000000000000000000000000000000000000000000000000000000008152336004820152905161023592600160a060020a031691636f37f48b9160248083019260209291908290030181600087803b15801561020457600080fd5b505af1158015610218573d6000803e3d6000fd5b505050506040513d602081101561022e57600080fd5b505161048a565b005b34801561024357600080fd5b5061024c6105fa565b60408051918252519081900360200190f35b34801561026a57600080fd5b5061024c6004356105ff565b34801561028257600080fd5b50610235600435610611565b34801561029a57600080fd5b5061024c60043561062d565b3480156102b257600080fd5b506102356106ea565b3480156102c757600080fd5b5061024c61074d565b3480156102dc57600080fd5b506102e561076a565b6040805192835260208301919091528051918290030190f35b34801561030a57600080fd5b506103136107be565b604080519115158252519081900360200190f35b34801561033357600080fd5b5061033c6107c7565b60408051600160a060020a039092168252519081900360200190f35b34801561036457600080fd5b5061024c6004356107d6565b34801561037c57600080fd5b5061023560043515156107da565b34801561039657600080fd5b5061024c610804565b3480156103ab57600080fd5b5061023560043561080a565b3480156103c357600080fd5b5061024c610826565b3480156103d857600080fd5b5061024c61082c565b61023560043561048a565b3480156103f857600080fd5b50610235600160a060020a0360043516610832565b34801561041957600080fd5b5061033c6108c6565b34801561042e57600080fd5b5061043a6004356108d5565b60408051602080825283518183015283519192839290830191858101910280838360005b8381101561047657818101518382015260200161045e565b505050509050019250505060405180910390f35b600080803481111561049b57600080fd5b6002543410156104aa57600080fd5b600354600254023411156104bd57600080fd5b600154604080517f4f558e79000000000000000000000000000000000000000000000000000000008152600481018790529051600160a060020a0390921691634f558e79916024808201926020929091908290030181600087803b15801561052457600080fd5b505af1158015610538573d6000803e3d6000fd5b505050506040513d602081101561054e57600080fd5b5051151561055b57600080fd5b6002543481151561056857fe5b0492504360010191506007548210156105815760075491505b5060005b828160ff1610156105b857610599826105ff565b15156105ad576105a98285610937565b6001015b816001019150610585565b6007829055604080518481529051859133917ff761777482b4b40d2bcc0d050cfba6829900a2d8b3484bd0244ec0feeb3db5049181900360200190a350505050565b435b90565b60009081526005602052604090205490565b600054600160a060020a0316331461062857600080fd5b600355565b600080610639836105ff565b151561064457600080fd5b61064d836105ff565b600154604080517f07518c8e000000000000000000000000000000000000000000000000000000008152600481018490529051929350600160a060020a03909116916307518c8e916024808201926020929091908290030181600087803b1580156106b757600080fd5b505af11580156106cb573d6000803e3d6000fd5b505050506040513d60208110156106e157600080fd5b50519392505050565b600054600160a060020a0316331461070157600080fd5b600030311161070f57600080fd5b60008054604051600160a060020a0390911691303180156108fc02929091818181858888f1935050505015801561074a573d6000803e3d6000fd5b50565b600060075443101561076257506007546105fc565b506001430190565b600080600019430161077b816105ff565b15610793576107898161062d565b81925092506107b9565b60045460ff16156107aa57600092508291506107b9565b6107b3816107d6565b81925092505b509091565b60045460ff1681565b600054600160a060020a031681565b4090565b600054600160a060020a031633146107f157600080fd5b6004805460ff1916911515919091179055565b60075481565b600054600160a060020a0316331461082157600080fd5b600255565b60035481565b60025481565b600054600160a060020a0316331461084957600080fd5b600160a060020a038116151561085e57600080fd5b60008054604051600160a060020a03808516939216917f8be0079c531659141344cd1fd0a4f28419497f9722a3daafe3b4186f6b6457e091a36000805473ffffffffffffffffffffffffffffffffffffffff1916600160a060020a0392909216919091179055565b600154600160a060020a031681565b60008181526006602090815260409182902080548351818402810184019094528084526060939283018282801561092b57602002820191906000526020600020905b815481526020019060010190808311610917575b50505050509050919050565b6000828152600560209081526040808320849055838352600682528220805460018101825590835291200182905580337f127eb70ed395861ddc18e795701cb38d5571d5f433a10d6a9e663bd30101c0aa6109918561062d565b60408051918252602082018790528051918290030190a350505600a165627a7a7230582034a349481fccd741c87d798f1a2ac78dcfff9f6c167cad35933854c431e1963a0029",
  "source": "pragma solidity ^0.4.21;\n\nimport \"./DART.sol\";\n\nimport \"./Ownable.sol\";\n\n/**\n* @title SimpleArtistContract\n*/\ncontract SimpleArtistContract is Ownable {\n  using SafeMath for uint256;\n\n  event Purchase(address indexed _funder, uint256 indexed _tokenId, bytes32 _blockhash, uint256 _block);\n  event Purchased(address indexed _funder, uint256 indexed _tokenId, uint256 _blocksPurchased);\n\n  modifier onlyValidAmounts() {\n    require(msg.value >= 0);\n\n    // Min price\n    require(msg.value >= pricePerBlockInWei);\n\n    // max price\n    require(msg.value <= (pricePerBlockInWei * maxBlockPurchaseInOneGo));\n    _;\n  }\n\n  DART public token;\n\n  uint256 public pricePerBlockInWei;\n  uint256 public maxBlockPurchaseInOneGo;\n  bool public onlyShowPurchased = false;\n\n  mapping(uint256 => uint256) internal blocknumberToTokenId;\n  mapping(uint256 => uint256[]) internal tokenIdToPurchasedBlocknumbers;\n\n  uint256 public lastPurchasedBlock = 0;\n\n  function SimpleArtistContract(DART _token, uint256 _pricePerBlockInWei, uint256 _maxBlockPurchaseInOneGo) public {\n    token = _token;\n\n    pricePerBlockInWei = _pricePerBlockInWei;\n    maxBlockPurchaseInOneGo = _maxBlockPurchaseInOneGo;\n\n    // set to current block mined in\n    lastPurchasedBlock = block.number;\n  }\n\n  /**\n  * @dev allows payment direct to contract - if no token will store value on contract\n  */\n  function() public payable {\n    if (token.hasTokens(msg.sender)) {\n      purchase(token.firstToken(msg.sender));\n    }\n  }\n\n  /**\n  * @dev allows artist to withdraw funds sent by non-token holders\n  */\n  function withdraw() public onlyOwner {\n    require(this.balance > 0);\n\n    owner.transfer(this.balance);\n  }\n\n  /**\n   * @dev purchase blocks with your Token ID to be displayed for a specific amount of blocks\n   * @param _tokenId the DART token ID\n   */\n  function purchase(uint256 _tokenId) public payable onlyValidAmounts {\n    require(token.exists(_tokenId));\n\n    // determine how many blocks purchased\n    uint256 blocksToPurchased = msg.value / pricePerBlockInWei;\n\n    // Start purchase from next block the current block is being mined\n    uint256 nextBlockToPurchase = block.number + 1;\n\n    // If next block is behind the next block to purchase, set next block to the last block\n    if (nextBlockToPurchase < lastPurchasedBlock) {\n      // reducing wasted loops to find a viable block to purchase\n      nextBlockToPurchase = lastPurchasedBlock;\n    }\n\n    uint8 purchased = 0;\n    while (purchased < blocksToPurchased) {\n\n      if (tokenIdOf(nextBlockToPurchase) == 0) {\n        purchaseBlock(nextBlockToPurchase, _tokenId);\n        purchased++;\n      }\n\n      // move next block on to find another free space\n      nextBlockToPurchase = nextBlockToPurchase + 1;\n    }\n\n    // update last block once purchased\n    lastPurchasedBlock = nextBlockToPurchase;\n\n    // TODO splice monies to various parties\n\n    Purchased(msg.sender, _tokenId, blocksToPurchased);\n  }\n\n  function purchaseBlock(uint256 _blocknumber, uint256 _tokenId) internal {\n    // keep track of the token associated to the block\n    blocknumberToTokenId[_blocknumber] = _tokenId;\n\n    // Keep track of the blocks purchased by the token\n    tokenIdToPurchasedBlocknumbers[_tokenId].push(_blocknumber);\n\n    // Emit event for logging/tracking\n    Purchase(msg.sender, _tokenId, getPurchasedBlockhash(_blocknumber), _blocknumber);\n  }\n\n  /**\n   * @dev Attempts to work out the next block which will be funded\n   */\n  function nextPurchasableBlocknumber() public view returns (uint256 _nextFundedBlock) {\n    if (block.number < lastPurchasedBlock) {\n      return lastPurchasedBlock;\n    }\n    return block.number + 1;\n  }\n\n  /**\n   * @dev Returns the blocks which the provided token has purchased\n   */\n  function blocknumbersOf(uint256 _tokenId) public view returns (uint256[] _blocks) {\n    return tokenIdToPurchasedBlocknumbers[_tokenId];\n  }\n\n  /**\n   * @dev Return token ID for the provided block or 0 when not found\n   */\n  function tokenIdOf(uint256 _blockNumber) public view returns (uint256 _tokenId) {\n    return blocknumberToTokenId[_blockNumber];\n  }\n\n  /**\n * @dev Get the block hash the given block number\n * @param _blocknumber the block to generate hash for\n */\n  function getPurchasedBlockhash(uint256 _blocknumber) public view returns (bytes32 _tokenHash) {\n    // Do not allow this to be called for hashes which aren't purchased\n    require(tokenIdOf(_blocknumber) != 0);\n\n    uint256 tokenId = tokenIdOf(_blocknumber);\n    return token.blockhashOf(tokenId);\n  }\n\n  /**\n   * @dev Generates default block hash behaviour - helps with tests\n   */\n  function nativeBlockhash(uint256 _blocknumber) public view returns (bytes32 _tokenHash) {\n    return block.blockhash(_blocknumber);\n  }\n\n  /**\n   * @dev Generates a unique token hash for the token\n   * @return the hash and its associated block\n   */\n  function nextHash() public view returns (bytes32 _tokenHash, uint256 _nextBlocknumber) {\n    uint256 nextBlocknumber = block.number - 1;\n\n    // if current block number has been allocated then use it\n    if (tokenIdOf(nextBlocknumber) != 0) {\n      return (getPurchasedBlockhash(nextBlocknumber), nextBlocknumber);\n    }\n\n    if (onlyShowPurchased) {\n      return (0x0, 0x0);\n    }\n\n    // if no one own the current blockhash return current\n    return (nativeBlockhash(nextBlocknumber), nextBlocknumber);\n  }\n\n  /**\n   * @dev Returns blocknumber - helps with tests\n   */\n  function blocknumber() public view returns (uint256 _blockNumber) {\n    return block.number;\n  }\n\n  /**\n   * @dev Utility function for updating price per block\n   * @param _priceInWei the price in wei\n   */\n  function setPricePerBlockInWei( uint256 _priceInWei) external onlyOwner {\n    pricePerBlockInWei = _priceInWei;\n  }\n\n  /**\n   * @dev Utility function for updating max blocks\n   * @param _maxBlockPurchaseInOneGo max blocks per purchase\n   */\n  function setMaxBlockPurchaseInOneGo( uint256 _maxBlockPurchaseInOneGo) external onlyOwner {\n    maxBlockPurchaseInOneGo = _maxBlockPurchaseInOneGo;\n  }\n\n  /**\n * @dev Utility function for only show purchased\n * @param _onlyShowPurchased flag for only showing purchased hashes\n */\n  function setOnlyShowPurchased(bool _onlyShowPurchased) external onlyOwner {\n    onlyShowPurchased = _onlyShowPurchased;\n  }\n}\n",
  "sourcePath": "/Users/andy/workspace/art-blocks/contracts/SimpleArtistContract.sol",
  "compiler": {
    "name": "solc",
    "version": "0.4.24+commit.e67f0147.Emscripten.clang"
  },
  "schemaVersion": "2.0.0",
  "updatedAt": "2018-05-27T08:53:47.881Z"
}