{
  "contractName": "SimpleArtistContract",
  "abi": [
    {
      "constant": true,
      "inputs": [],
      "name": "onlyShowPurchased",
      "outputs": [
        {
          "name": "",
          "type": "bool"
        }
      ],
      "payable": false,
      "stateMutability": "view",
      "type": "function"
    },
    {
      "constant": true,
      "inputs": [],
      "name": "owner",
      "outputs": [
        {
          "name": "",
          "type": "address"
        }
      ],
      "payable": false,
      "stateMutability": "view",
      "type": "function"
    },
    {
      "constant": true,
      "inputs": [],
      "name": "lastPurchasedBlock",
      "outputs": [
        {
          "name": "",
          "type": "uint256"
        }
      ],
      "payable": false,
      "stateMutability": "view",
      "type": "function"
    },
    {
      "constant": true,
      "inputs": [],
      "name": "maxBlockPurchaseInOneGo",
      "outputs": [
        {
          "name": "",
          "type": "uint256"
        }
      ],
      "payable": false,
      "stateMutability": "view",
      "type": "function"
    },
    {
      "constant": true,
      "inputs": [],
      "name": "pricePerBlockInWei",
      "outputs": [
        {
          "name": "",
          "type": "uint256"
        }
      ],
      "payable": false,
      "stateMutability": "view",
      "type": "function"
    },
    {
      "constant": false,
      "inputs": [
        {
          "name": "newOwner",
          "type": "address"
        }
      ],
      "name": "transferOwnership",
      "outputs": [],
      "payable": false,
      "stateMutability": "nonpayable",
      "type": "function"
    },
    {
      "constant": true,
      "inputs": [],
      "name": "token",
      "outputs": [
        {
          "name": "",
          "type": "address"
        }
      ],
      "payable": false,
      "stateMutability": "view",
      "type": "function"
    },
    {
      "constant": true,
      "inputs": [],
      "name": "foundationAddress",
      "outputs": [
        {
          "name": "",
          "type": "address"
        }
      ],
      "payable": false,
      "stateMutability": "view",
      "type": "function"
    },
    {
      "inputs": [
        {
          "name": "_token",
          "type": "address"
        },
        {
          "name": "_pricePerBlockInWei",
          "type": "uint256"
        },
        {
          "name": "_maxBlockPurchaseInOneGo",
          "type": "uint256"
        }
      ],
      "payable": false,
      "stateMutability": "nonpayable",
      "type": "constructor"
    },
    {
      "payable": true,
      "stateMutability": "payable",
      "type": "fallback"
    },
    {
      "anonymous": false,
      "inputs": [
        {
          "indexed": true,
          "name": "_funder",
          "type": "address"
        },
        {
          "indexed": true,
          "name": "_tokenId",
          "type": "uint256"
        },
        {
          "indexed": false,
          "name": "_blockhash",
          "type": "bytes32"
        },
        {
          "indexed": false,
          "name": "_block",
          "type": "uint256"
        }
      ],
      "name": "Purchase",
      "type": "event"
    },
    {
      "anonymous": false,
      "inputs": [
        {
          "indexed": true,
          "name": "_funder",
          "type": "address"
        },
        {
          "indexed": true,
          "name": "_tokenId",
          "type": "uint256"
        },
        {
          "indexed": false,
          "name": "_blocksPurchased",
          "type": "uint256"
        }
      ],
      "name": "Purchased",
      "type": "event"
    },
    {
      "anonymous": false,
      "inputs": [
        {
          "indexed": true,
          "name": "previousOwner",
          "type": "address"
        },
        {
          "indexed": true,
          "name": "newOwner",
          "type": "address"
        }
      ],
      "name": "OwnershipTransferred",
      "type": "event"
    },
    {
      "constant": false,
      "inputs": [],
      "name": "withdraw",
      "outputs": [],
      "payable": false,
      "stateMutability": "nonpayable",
      "type": "function"
    },
    {
      "constant": false,
      "inputs": [
        {
          "name": "_tokenId",
          "type": "uint256"
        }
      ],
      "name": "purchase",
      "outputs": [],
      "payable": true,
      "stateMutability": "payable",
      "type": "function"
    },
    {
      "constant": true,
      "inputs": [],
      "name": "nextPurchasableBlocknumber",
      "outputs": [
        {
          "name": "_nextFundedBlock",
          "type": "uint256"
        }
      ],
      "payable": false,
      "stateMutability": "view",
      "type": "function"
    },
    {
      "constant": true,
      "inputs": [
        {
          "name": "_tokenId",
          "type": "uint256"
        }
      ],
      "name": "blocknumbersOf",
      "outputs": [
        {
          "name": "_blocks",
          "type": "uint256[]"
        }
      ],
      "payable": false,
      "stateMutability": "view",
      "type": "function"
    },
    {
      "constant": true,
      "inputs": [
        {
          "name": "_blockNumber",
          "type": "uint256"
        }
      ],
      "name": "tokenIdOf",
      "outputs": [
        {
          "name": "_tokenId",
          "type": "uint256"
        }
      ],
      "payable": false,
      "stateMutability": "view",
      "type": "function"
    },
    {
      "constant": true,
      "inputs": [
        {
          "name": "_blocknumber",
          "type": "uint256"
        }
      ],
      "name": "getPurchasedBlockhash",
      "outputs": [
        {
          "name": "_tokenHash",
          "type": "bytes32"
        }
      ],
      "payable": false,
      "stateMutability": "view",
      "type": "function"
    },
    {
      "constant": true,
      "inputs": [
        {
          "name": "_blocknumber",
          "type": "uint256"
        }
      ],
      "name": "nativeBlockhash",
      "outputs": [
        {
          "name": "_tokenHash",
          "type": "bytes32"
        }
      ],
      "payable": false,
      "stateMutability": "view",
      "type": "function"
    },
    {
      "constant": true,
      "inputs": [],
      "name": "nextHash",
      "outputs": [
        {
          "name": "_tokenHash",
          "type": "bytes32"
        },
        {
          "name": "_nextBlocknumber",
          "type": "uint256"
        }
      ],
      "payable": false,
      "stateMutability": "view",
      "type": "function"
    },
    {
      "constant": true,
      "inputs": [],
      "name": "blocknumber",
      "outputs": [
        {
          "name": "_blockNumber",
          "type": "uint256"
        }
      ],
      "payable": false,
      "stateMutability": "view",
      "type": "function"
    },
    {
      "constant": false,
      "inputs": [
        {
          "name": "_priceInWei",
          "type": "uint256"
        }
      ],
      "name": "setPricePerBlockInWei",
      "outputs": [],
      "payable": false,
      "stateMutability": "nonpayable",
      "type": "function"
    },
    {
      "constant": false,
      "inputs": [
        {
          "name": "_maxBlockPurchaseInOneGo",
          "type": "uint256"
        }
      ],
      "name": "setMaxBlockPurchaseInOneGo",
      "outputs": [],
      "payable": false,
      "stateMutability": "nonpayable",
      "type": "function"
    },
    {
      "constant": false,
      "inputs": [
        {
          "name": "_onlyShowPurchased",
          "type": "bool"
        }
      ],
      "name": "setOnlyShowPurchased",
      "outputs": [],
      "payable": false,
      "stateMutability": "nonpayable",
      "type": "function"
    }
  ],
  "bytecode": "0x608060405260048054600160a860020a03191674f43ae50c468c3d3fa0c3dc3454e797317ef5307800179055600060075534801561003c57600080fd5b50604051606080610b4083398101604090815281516020830151919092015160008054600160a060020a0319908116331790915560018054600160a060020a03909516949091169390931790925560025560035543600755610a9d806100a36000396000f3006080604052600436106101115763ffffffff7c010000000000000000000000000000000000000000000000000000000060003504166305062247811461024257806306474d121461026957806319eae36b1461028157806336f19b77146102995780633ccfd60b146102b15780634bf96e60146102c6578063727f0067146102db57806389831bc4146103095780638da5cb5b146103325780638da8a5ae146103635780639521000c1461037b578063b32bf01114610395578063b61992e7146103aa578063bb8270fa146103c2578063c88e0feb146103d7578063efef39a1146103ec578063f2fde38b146103f7578063fc0c546a14610418578063fc12c7da1461042d578063fcf07c6b14610495575b600154604080517f3cefc1e00000000000000000000000000000000000000000000000000000000081523360048201529051600160a060020a0390921691633cefc1e0916024808201926020929091908290030181600087803b15801561017757600080fd5b505af115801561018b573d6000803e3d6000fd5b505050506040513d60208110156101a157600080fd5b50511561024057600154604080517f6f37f48b000000000000000000000000000000000000000000000000000000008152336004820152905161024092600160a060020a031691636f37f48b9160248083019260209291908290030181600087803b15801561020f57600080fd5b505af1158015610223573d6000803e3d6000fd5b505050506040513d602081101561023957600080fd5b50516104aa565b005b34801561024e57600080fd5b506102576106ab565b60408051918252519081900360200190f35b34801561027557600080fd5b506102576004356106b0565b34801561028d57600080fd5b506102406004356106c2565b3480156102a557600080fd5b506102576004356106de565b3480156102bd57600080fd5b5061024061079b565b3480156102d257600080fd5b506102576107fe565b3480156102e757600080fd5b506102f061081b565b6040805192835260208301919091528051918290030190f35b34801561031557600080fd5b5061031e61086f565b604080519115158252519081900360200190f35b34801561033e57600080fd5b50610347610878565b60408051600160a060020a039092168252519081900360200190f35b34801561036f57600080fd5b50610257600435610887565b34801561038757600080fd5b50610240600435151561088b565b3480156103a157600080fd5b506102576108b5565b3480156103b657600080fd5b506102406004356108bb565b3480156103ce57600080fd5b506102576108d7565b3480156103e357600080fd5b506102576108dd565b6102406004356104aa565b34801561040357600080fd5b50610240600160a060020a03600435166108e3565b34801561042457600080fd5b50610347610977565b34801561043957600080fd5b50610445600435610986565b60408051602080825283518183015283519192839290830191858101910280838360005b83811015610481578181015183820152602001610469565b505050509050019250505060405180910390f35b3480156104a157600080fd5b506103476109e8565b600080808080348111156104bd57600080fd5b6002543410156104cc57600080fd5b600354600254023411156104df57600080fd5b600154604080517f4f558e79000000000000000000000000000000000000000000000000000000008152600481018990529051600160a060020a0390921691634f558e79916024808201926020929091908290030181600087803b15801561054657600080fd5b505af115801561055a573d6000803e3d6000fd5b505050506040513d602081101561057057600080fd5b5051151561057d57600080fd5b6002543481151561058a57fe5b0494504360010193506007548410156105a35760075493505b600092505b848360ff1610156105de576105bc846106b0565b15156105d3576105cc84876109fc565b6001909201915b8360010193506105a8565b600784905560643460048054604051939092040293506101009004600160a060020a0316906108fc8415029084906000818181858888f1935050505015801561062b573d6000803e3d6000fd5b5050600080546040513484900392600160a060020a039092169183156108fc02918491818181858888f1935050505015801561066b573d6000803e3d6000fd5b50604080518681529051879133917ff761777482b4b40d2bcc0d050cfba6829900a2d8b3484bd0244ec0feeb3db5049181900360200190a3505050505050565b435b90565b60009081526005602052604090205490565b600054600160a060020a031633146106d957600080fd5b600355565b6000806106ea836106b0565b15156106f557600080fd5b6106fe836106b0565b600154604080517f07518c8e000000000000000000000000000000000000000000000000000000008152600481018490529051929350600160a060020a03909116916307518c8e916024808201926020929091908290030181600087803b15801561076857600080fd5b505af115801561077c573d6000803e3d6000fd5b505050506040513d602081101561079257600080fd5b50519392505050565b600054600160a060020a031633146107b257600080fd5b60003031116107c057600080fd5b60008054604051600160a060020a0390911691303180156108fc02929091818181858888f193505050501580156107fb573d6000803e3d6000fd5b50565b600060075443101561081357506007546106ad565b506001430190565b600080600019430161082c816106b0565b156108445761083a816106de565b819250925061086a565b60045460ff161561085b576000925082915061086a565b61086481610887565b81925092505b509091565b60045460ff1681565b600054600160a060020a031681565b4090565b600054600160a060020a031633146108a257600080fd5b6004805460ff1916911515919091179055565b60075481565b600054600160a060020a031633146108d257600080fd5b600255565b60035481565b60025481565b600054600160a060020a031633146108fa57600080fd5b600160a060020a038116151561090f57600080fd5b60008054604051600160a060020a03808516939216917f8be0079c531659141344cd1fd0a4f28419497f9722a3daafe3b4186f6b6457e091a36000805473ffffffffffffffffffffffffffffffffffffffff1916600160a060020a0392909216919091179055565b600154600160a060020a031681565b6000818152600660209081526040918290208054835181840281018401909452808452606093928301828280156109dc57602002820191906000526020600020905b8154815260200190600101908083116109c8575b50505050509050919050565b6004546101009004600160a060020a031681565b6000828152600560209081526040808320849055838352600682528220805460018101825590835291200182905580337f127eb70ed395861ddc18e795701cb38d5571d5f433a10d6a9e663bd30101c0aa610a56856106de565b60408051918252602082018790528051918290030190a350505600a165627a7a72305820c504281c1acdbb757fd1474ce40673c748ca6f218bf87e7f1f4b568c11beb9eb0029",
  "source": "pragma solidity ^0.4.21;\n\nimport \"./DART.sol\";\n\nimport \"./Ownable.sol\";\n\n/**\n* @title SimpleArtistContract\n*/\ncontract SimpleArtistContract is Ownable {\n  using SafeMath for uint256;\n\n  event Purchase(address indexed _funder, uint256 indexed _tokenId, bytes32 _blockhash, uint256 _block);\n  event Purchased(address indexed _funder, uint256 indexed _tokenId, uint256 _blocksPurchased);\n\n  modifier onlyValidAmounts() {\n    require(msg.value >= 0);\n\n    // Min price\n    require(msg.value >= pricePerBlockInWei);\n\n    // max price\n    require(msg.value <= (pricePerBlockInWei * maxBlockPurchaseInOneGo));\n    _;\n  }\n\n  DART public token;\n\n  uint256 public pricePerBlockInWei;\n  uint256 public maxBlockPurchaseInOneGo;\n  bool public onlyShowPurchased = false;\n  address public foundationAddress = 0xf43aE50C468c3D3Fa0C3dC3454E797317EF53078;\n\n  mapping(uint256 => uint256) internal blocknumberToTokenId;\n  mapping(uint256 => uint256[]) internal tokenIdToPurchasedBlocknumbers;\n\n  uint256 public lastPurchasedBlock = 0;\n\n  function SimpleArtistContract(DART _token, uint256 _pricePerBlockInWei, uint256 _maxBlockPurchaseInOneGo) public {\n    token = _token;\n\n    pricePerBlockInWei = _pricePerBlockInWei;\n    maxBlockPurchaseInOneGo = _maxBlockPurchaseInOneGo;\n\n    // set to current block mined in\n    lastPurchasedBlock = block.number;\n  }\n\n  /**\n  * @dev allows payment direct to contract - if no token will store value on contract\n  */\n  function() public payable {\n    if (token.hasTokens(msg.sender)) {\n      purchase(token.firstToken(msg.sender));\n    }\n  }\n\n  /**\n  * @dev allows artist to withdraw funds sent by non-token holders\n  */\n  function withdraw() public onlyOwner {\n    require(this.balance > 0);\n\n    owner.transfer(this.balance);\n  }\n\n  /**\n   * @dev purchase blocks with your Token ID to be displayed for a specific amount of blocks\n   * @param _tokenId the DART token ID\n   */\n  function purchase(uint256 _tokenId) public payable onlyValidAmounts {\n    require(token.exists(_tokenId));\n\n    // determine how many blocks purchased\n    uint256 blocksToPurchased = msg.value / pricePerBlockInWei;\n\n    // Start purchase from next block the current block is being mined\n    uint256 nextBlockToPurchase = block.number + 1;\n\n    // If next block is behind the next block to purchase, set next block to the last block\n    if (nextBlockToPurchase < lastPurchasedBlock) {\n      // reducing wasted loops to find a viable block to purchase\n      nextBlockToPurchase = lastPurchasedBlock;\n    }\n\n    uint8 purchased = 0;\n    while (purchased < blocksToPurchased) {\n\n      if (tokenIdOf(nextBlockToPurchase) == 0) {\n        purchaseBlock(nextBlockToPurchase, _tokenId);\n        purchased++;\n      }\n\n      // move next block on to find another free space\n      nextBlockToPurchase = nextBlockToPurchase + 1;\n    }\n\n    // update last block once purchased\n    lastPurchasedBlock = nextBlockToPurchase;\n\n    // payments\n\n    // 4% to foundation\n    uint foundationShare = msg.value / 100 * 4;\n    foundationAddress.transfer(foundationShare);\n\n    // artists sent the remaining value\n    uint artistTotal = msg.value - foundationShare;\n    owner.transfer(artistTotal);\n\n    Purchased(msg.sender, _tokenId, blocksToPurchased);\n  }\n\n  function purchaseBlock(uint256 _blocknumber, uint256 _tokenId) internal {\n    // keep track of the token associated to the block\n    blocknumberToTokenId[_blocknumber] = _tokenId;\n\n    // Keep track of the blocks purchased by the token\n    tokenIdToPurchasedBlocknumbers[_tokenId].push(_blocknumber);\n\n    // Emit event for logging/tracking\n    Purchase(msg.sender, _tokenId, getPurchasedBlockhash(_blocknumber), _blocknumber);\n  }\n\n  /**\n   * @dev Attempts to work out the next block which will be funded\n   */\n  function nextPurchasableBlocknumber() public view returns (uint256 _nextFundedBlock) {\n    if (block.number < lastPurchasedBlock) {\n      return lastPurchasedBlock;\n    }\n    return block.number + 1;\n  }\n\n  /**\n   * @dev Returns the blocks which the provided token has purchased\n   */\n  function blocknumbersOf(uint256 _tokenId) public view returns (uint256[] _blocks) {\n    return tokenIdToPurchasedBlocknumbers[_tokenId];\n  }\n\n  /**\n   * @dev Return token ID for the provided block or 0 when not found\n   */\n  function tokenIdOf(uint256 _blockNumber) public view returns (uint256 _tokenId) {\n    return blocknumberToTokenId[_blockNumber];\n  }\n\n  /**\n * @dev Get the block hash the given block number\n * @param _blocknumber the block to generate hash for\n */\n  function getPurchasedBlockhash(uint256 _blocknumber) public view returns (bytes32 _tokenHash) {\n    // Do not allow this to be called for hashes which aren't purchased\n    require(tokenIdOf(_blocknumber) != 0);\n\n    uint256 tokenId = tokenIdOf(_blocknumber);\n    return token.blockhashOf(tokenId);\n  }\n\n  /**\n   * @dev Generates default block hash behaviour - helps with tests\n   */\n  function nativeBlockhash(uint256 _blocknumber) public view returns (bytes32 _tokenHash) {\n    return block.blockhash(_blocknumber);\n  }\n\n  /**\n   * @dev Generates a unique token hash for the token\n   * @return the hash and its associated block\n   */\n  function nextHash() public view returns (bytes32 _tokenHash, uint256 _nextBlocknumber) {\n    uint256 nextBlocknumber = block.number - 1;\n\n    // if current block number has been allocated then use it\n    if (tokenIdOf(nextBlocknumber) != 0) {\n      return (getPurchasedBlockhash(nextBlocknumber), nextBlocknumber);\n    }\n\n    if (onlyShowPurchased) {\n      return (0x0, 0x0);\n    }\n\n    // if no one own the current blockhash return current\n    return (nativeBlockhash(nextBlocknumber), nextBlocknumber);\n  }\n\n  /**\n   * @dev Returns blocknumber - helps with tests\n   */\n  function blocknumber() public view returns (uint256 _blockNumber) {\n    return block.number;\n  }\n\n  /**\n   * @dev Utility function for updating price per block\n   * @param _priceInWei the price in wei\n   */\n  function setPricePerBlockInWei( uint256 _priceInWei) external onlyOwner {\n    pricePerBlockInWei = _priceInWei;\n  }\n\n  /**\n   * @dev Utility function for updating max blocks\n   * @param _maxBlockPurchaseInOneGo max blocks per purchase\n   */\n  function setMaxBlockPurchaseInOneGo( uint256 _maxBlockPurchaseInOneGo) external onlyOwner {\n    maxBlockPurchaseInOneGo = _maxBlockPurchaseInOneGo;\n  }\n\n  /**\n * @dev Utility function for only show purchased\n * @param _onlyShowPurchased flag for only showing purchased hashes\n */\n  function setOnlyShowPurchased(bool _onlyShowPurchased) external onlyOwner {\n    onlyShowPurchased = _onlyShowPurchased;\n  }\n}\n",
  "sourcePath": "/Users/andy/workspace/art-blocks/contracts/SimpleArtistContract.sol",
  "compiler": {
    "name": "solc",
    "version": "0.4.24+commit.e67f0147.Emscripten.clang"
  },
  "schemaVersion": "2.0.0",
  "updatedAt": "2018-05-27T09:18:02.462Z"
}