{
  "contractName": "Strings",
  "abi": [
    {
      "constant": false,
      "inputs": [
        {
          "name": "data",
          "type": "bytes32"
        }
      ],
      "name": "bytes32ToString",
      "outputs": [
        {
          "name": "",
          "type": "string"
        }
      ],
      "payable": false,
      "stateMutability": "nonpayable",
      "type": "function"
    }
  ],
  "bytecode": "0x6101f2610030600b82828239805160001a6073146000811461002057610022565bfe5b5030600052607381538281f30073000000000000000000000000000000000000000030146060604052600436106100575763ffffffff7c01000000000000000000000000000000000000000000000000000000006000350416639201de55811461005c575b600080fd5b811561006757600080fd5b6100726004356100e9565b60405160208082528190810183818151815260200191508051906020019080838360005b838110156100ae578082015183820152602001610096565b50505050905090810190601f1680156100db5780820380516001836020036101000a031916815260200191505b509250505060405180910390f35b6100f16101b4565b6100f96101b4565b600080602060405180591061010b5750595b818152601f19601f830116810160200160405290509250600091505b60208210156101ab57506008810260020a84027fff000000000000000000000000000000000000000000000000000000000000008116156101a0578083838151811061016f57fe5b9060200101907effffffffffffffffffffffffffffffffffffffffffffffffffffffffffffff1916908160001a9053505b600190910190610127565b50909392505050565b602060405190810160405260008152905600a165627a7a72305820b3a96598c1fd5ab180fc34dd496b32697f0c96c43b93b5c57210052e11bcf33d0029",
  "source": "pragma solidity ^0.4.19;\n\nlibrary Strings {\n  // via https://github.com/oraclize/ethereum-api/blob/master/oraclizeAPI_0.5.sol\n  function strConcat(string _a, string _b, string _c, string _d, string _e) internal pure returns (string) {\n    bytes memory _ba = bytes(_a);\n    bytes memory _bb = bytes(_b);\n    bytes memory _bc = bytes(_c);\n    bytes memory _bd = bytes(_d);\n    bytes memory _be = bytes(_e);\n    string memory abcde = new string(_ba.length + _bb.length + _bc.length + _bd.length + _be.length);\n    bytes memory babcde = bytes(abcde);\n    uint k = 0;\n    for (uint i = 0; i < _ba.length; i++) babcde[k++] = _ba[i];\n    for (i = 0; i < _bb.length; i++) babcde[k++] = _bb[i];\n    for (i = 0; i < _bc.length; i++) babcde[k++] = _bc[i];\n    for (i = 0; i < _bd.length; i++) babcde[k++] = _bd[i];\n    for (i = 0; i < _be.length; i++) babcde[k++] = _be[i];\n    return string(babcde);\n  }\n\n  function strConcat(string _a, string _b, string _c, string _d) internal pure returns (string) {\n    return strConcat(_a, _b, _c, _d, \"\");\n  }\n\n  function strConcat(string _a, string _b, string _c) internal pure returns (string) {\n    return strConcat(_a, _b, _c, \"\", \"\");\n  }\n\n  function strConcat(string _a, string _b) internal pure returns (string) {\n    return strConcat(_a, _b, \"\", \"\", \"\");\n  }\n\n  function bytes32ToString(bytes32 data) returns (string) {\n    bytes memory bytesString = new bytes(32);\n    for (uint j = 0; j < 32; j++) {\n      byte char = byte(bytes32(uint(data) * 2 ** (8 * j)));\n      if (char != 0) {\n        bytesString[j] = char;\n      }\n    }\n    return string(bytesString);\n  }\n}\n",
  "sourcePath": "/Users/andy/workspace/art-blocks/contracts/Strings.sol",
  "compiler": {
    "name": "solc",
    "version": "0.4.21+commit.dfe3193c.Emscripten.clang"
  },
  "schemaVersion": "2.0.0",
  "updatedAt": "2018-04-25T13:02:12.164Z"
}