{
  "contractName": "Whitelist",
  "abi": [
    {
      "constant": true,
      "inputs": [],
      "name": "owner",
      "outputs": [
        {
          "name": "",
          "type": "address"
        }
      ],
      "payable": false,
      "stateMutability": "view",
      "type": "function"
    },
    {
      "constant": true,
      "inputs": [
        {
          "name": "",
          "type": "address"
        }
      ],
      "name": "whitelist",
      "outputs": [
        {
          "name": "",
          "type": "bool"
        }
      ],
      "payable": false,
      "stateMutability": "view",
      "type": "function"
    },
    {
      "constant": false,
      "inputs": [
        {
          "name": "newOwner",
          "type": "address"
        }
      ],
      "name": "transferOwnership",
      "outputs": [],
      "payable": false,
      "stateMutability": "nonpayable",
      "type": "function"
    },
    {
      "anonymous": false,
      "inputs": [
        {
          "indexed": false,
          "name": "addr",
          "type": "address"
        }
      ],
      "name": "WhitelistedAddressAdded",
      "type": "event"
    },
    {
      "anonymous": false,
      "inputs": [
        {
          "indexed": false,
          "name": "addr",
          "type": "address"
        }
      ],
      "name": "WhitelistedAddressRemoved",
      "type": "event"
    },
    {
      "anonymous": false,
      "inputs": [
        {
          "indexed": true,
          "name": "previousOwner",
          "type": "address"
        },
        {
          "indexed": true,
          "name": "newOwner",
          "type": "address"
        }
      ],
      "name": "OwnershipTransferred",
      "type": "event"
    },
    {
      "constant": false,
      "inputs": [
        {
          "name": "addr",
          "type": "address"
        }
      ],
      "name": "addAddressToWhitelist",
      "outputs": [
        {
          "name": "success",
          "type": "bool"
        }
      ],
      "payable": false,
      "stateMutability": "nonpayable",
      "type": "function"
    },
    {
      "constant": false,
      "inputs": [
        {
          "name": "addrs",
          "type": "address[]"
        }
      ],
      "name": "addAddressesToWhitelist",
      "outputs": [
        {
          "name": "success",
          "type": "bool"
        }
      ],
      "payable": false,
      "stateMutability": "nonpayable",
      "type": "function"
    },
    {
      "constant": false,
      "inputs": [
        {
          "name": "addr",
          "type": "address"
        }
      ],
      "name": "removeAddressFromWhitelist",
      "outputs": [
        {
          "name": "success",
          "type": "bool"
        }
      ],
      "payable": false,
      "stateMutability": "nonpayable",
      "type": "function"
    },
    {
      "constant": false,
      "inputs": [
        {
          "name": "addrs",
          "type": "address[]"
        }
      ],
      "name": "removeAddressesFromWhitelist",
      "outputs": [
        {
          "name": "success",
          "type": "bool"
        }
      ],
      "payable": false,
      "stateMutability": "nonpayable",
      "type": "function"
    }
  ],
  "bytecode": "0x608060405260008054600160a060020a031916331790556104ca806100256000396000f3006080604052600436106100825763ffffffff7c010000000000000000000000000000000000000000000000000000000060003504166324953eaa8114610087578063286dd3f5146100f05780637b9417c8146101115780638da5cb5b146101325780639b19251a14610163578063e2ec6ec314610184578063f2fde38b146101d9575b600080fd5b34801561009357600080fd5b50604080516020600480358082013583810280860185019096528085526100dc953695939460249493850192918291850190849080828437509497506101fc9650505050505050565b604080519115158252519081900360200190f35b3480156100fc57600080fd5b506100dc600160a060020a036004351661025b565b34801561011d57600080fd5b506100dc600160a060020a03600435166102f2565b34801561013e57600080fd5b5061014761038d565b60408051600160a060020a039092168252519081900360200190f35b34801561016f57600080fd5b506100dc600160a060020a036004351661039c565b34801561019057600080fd5b50604080516020600480358082013583810280860185019096528085526100dc953695939460249493850192918291850190849080828437509497506103b19650505050505050565b3480156101e557600080fd5b506101fa600160a060020a036004351661040a565b005b600080548190600160a060020a0316331461021657600080fd5b5060005b825181101561025557610243838281518110151561023457fe5b9060200190602002015161025b565b1561024d57600191505b60010161021a565b50919050565b60008054600160a060020a0316331461027357600080fd5b600160a060020a03821660009081526001602052604090205460ff16156102ed57600160a060020a038216600081815260016020908152604091829020805460ff19169055815192835290517ff1abf01a1043b7c244d128e8595cf0c1d10743b022b03a02dffd8ca3bf729f5a9281900390910190a15060015b919050565b60008054600160a060020a0316331461030a57600080fd5b600160a060020a03821660009081526001602052604090205460ff1615156102ed57600160a060020a038216600081815260016020818152604092839020805460ff1916909217909155815192835290517fd1bba68c128cc3f427e5831b3c6f99f480b6efa6b9e80c757768f6124158cc3f9281900390910190a1506001919050565b600054600160a060020a031681565b60016020526000908152604090205460ff1681565b600080548190600160a060020a031633146103cb57600080fd5b5060005b8251811015610255576103f883828151811015156103e957fe5b906020019060200201516102f2565b1561040257600191505b6001016103cf565b600054600160a060020a0316331461042157600080fd5b600160a060020a038116151561043657600080fd5b60008054604051600160a060020a03808516939216917f8be0079c531659141344cd1fd0a4f28419497f9722a3daafe3b4186f6b6457e091a36000805473ffffffffffffffffffffffffffffffffffffffff1916600160a060020a03929092169190911790555600a165627a7a72305820fdc6f885deac2b105b12391d7f4529eee051dd3a81723a6f066a06fcf78ffaef0029",
  "source": "pragma solidity ^0.4.18;\n\nimport \"./Ownable.sol\";\n\n/**\n * @title Whitelist\n * @dev The Whitelist contract has a whitelist of addresses, and provides basic authorization control functions.\n * @dev This simplifies the implementation of \"user permissions\".\n */\ncontract Whitelist is Ownable {\n  mapping(address => bool) public whitelist;\n\n  event WhitelistedAddressAdded(address addr);\n  event WhitelistedAddressRemoved(address addr);\n\n  /**\n   * @dev Throws if called by any account that's not whitelisted.\n   */\n  modifier onlyWhitelisted() {\n    require(whitelist[msg.sender]);\n    _;\n  }\n\n  /**\n   * @dev add an address to the whitelist\n   * @param addr address\n   * @return true if the address was added to the whitelist, false if the address was already in the whitelist\n   */\n  function addAddressToWhitelist(address addr) onlyOwner public returns(bool success) {\n    if (!whitelist[addr]) {\n      whitelist[addr] = true;\n      WhitelistedAddressAdded(addr);\n      success = true;\n    }\n  }\n\n  /**\n   * @dev add addresses to the whitelist\n   * @param addrs addresses\n   * @return true if at least one address was added to the whitelist,\n   * false if all addresses were already in the whitelist\n   */\n  function addAddressesToWhitelist(address[] addrs) onlyOwner public returns(bool success) {\n    for (uint256 i = 0; i < addrs.length; i++) {\n      if (addAddressToWhitelist(addrs[i])) {\n        success = true;\n      }\n    }\n  }\n\n  /**\n   * @dev remove an address from the whitelist\n   * @param addr address\n   * @return true if the address was removed from the whitelist,\n   * false if the address wasn't in the whitelist in the first place\n   */\n  function removeAddressFromWhitelist(address addr) onlyOwner public returns(bool success) {\n    if (whitelist[addr]) {\n      whitelist[addr] = false;\n      WhitelistedAddressRemoved(addr);\n      success = true;\n    }\n  }\n\n  /**\n   * @dev remove addresses from the whitelist\n   * @param addrs addresses\n   * @return true if at least one address was removed from the whitelist,\n   * false if all addresses weren't in the whitelist in the first place\n   */\n  function removeAddressesFromWhitelist(address[] addrs) onlyOwner public returns(bool success) {\n    for (uint256 i = 0; i < addrs.length; i++) {\n      if (removeAddressFromWhitelist(addrs[i])) {\n        success = true;\n      }\n    }\n  }\n\n}\n",
  "sourcePath": "/Users/andy/workspace/art-blocks/contracts/Whitelist.sol",
  "compiler": {
    "name": "solc",
    "version": "0.4.24+commit.e67f0147.Emscripten.clang"
  },
  "schemaVersion": "2.0.0",
  "updatedAt": "2018-07-15T11:23:26.575Z"
}